:100000000C94FE160C942F170C942F170C942F178A
:100010000C942F170C942F170C942F170C942F1748
:100020000C942F170C942F170C942F170C942F1738
:100030000C942F170C942F170C942F170C942F1728
:100040000C942F170D9499220C942F170C942F17A2
:100050000C942F170C942F170D94EF2E0D945C8891
:100060000C942F170D9495860D946C860C942F1775
:100070000C942F170C942F170C942F170C942F17E8
:100080000C942F170C942F170C942F170C942F17D8
:100090000C942F170C942F170C942F170C942F17C8
:1000A0000C942F170C942F170C942F170C942F17B8
:1000B0000C942F170C942F170C942F170C942F17A8
:1000C0000C942F170C942F170C942F170D94438614
:1000D0000D941A860C942F170C942F170C942F172D
:1000E0000C942F17E12BF1733B2C1228F173191F7D
:1000F000F173651FF173F1738D390720F173F1739B
:10010000E71AE21AF173F73AF173F173F173D84118
:100110000142B14BDA4B4250F1737143D0432F444B
:10012000B546F7455F3B513BE4275646F1733F1F09
:10013000791BDF1E3427D83DB827374B68558C27ED
:100140006027604B894BF1730C2C2A42C8368F3ED6
:100150008E1FF61AEC1AF1739A347921C84FF17395
:10016000F14F1A23034CE52F691EEF5174350057E8
:100170006330744C53426B50DE21902E902EB62D7E
:10018000E5306B315B231E203520C31FAB23DD1A06
:10019000F11AF173F173F1738E2C532496246020BD
:1001A000593D153D7C42A542CD42F6421F4348438E
:1001B0005E448744B044D94402452B4553457C45B1
:1001C000A545CE456B47E4460248E74971490B49CE
:1001D000F1731A50F423DA2410268E2CE42D0D2E00
:1001E0004C2E0E4BA24E274F9B4FE54A9937371B9B
:1001F000925E992BF173F173E15BF173BE3C6D3B41
:100200008932E3323C33F331B6320F336933EF33A3
:10021000C3338F2A7B2A373C402823290D2A442ABE
:100220000A5CA02A672B9733F173F173F173F173B2
:10023000F173F173F173F173F173D83D8720B0203E
:10024000F720D95D375EF34E5B4F034C9B4F9450C4
:10025000B451F1733656AF568D55FE5511532F5785
:10026000F17370539538E959B639AF3A2D5AF17395
:10027000F1733758A2580F597C590E585E57AB5737
:10028000715A945B745DF173F173095DF173F173ED
:10029000A65DF173072214553B539B5364548D5450
:1002A000DF1E3D55E69AC49B8C9C679CE89B679C2F
:1002B000429C0B9B309B559B079D2C9D519D769D91
:1002C0009F9B7A9B1D9CF0012002C40124021E0208
:1002D0001A022802F601D20122020002C601E4013C
:1002E000F8011002CC01DA01D001EE01B801CE0113
:1002F000D8010A02C2010602DA011402CA01E801A9
:1003000008022A021602FC01BA01DE01C001E60160
:100310000E02EA011202BE01EC01D601DE01F40177
:10032000E201FE01084AD73B3BCE016E84BCBFFD13
:10033000C12F3D6C74319ABD56833DDA3D00C77FB5
:1003400011BED9E4BB4C3E916BAAAABE000000804E
:100350003F05A84CCDB2D44EB93836A9020C50B9DD
:10036000918688083CA6AAAA2ABE000000803F0009
:100370000D94CB850D9496870D94C0840D94CE87F3
:100380000D94A0870D94DD850D94A22F0D94BA8550
:100390000D9404850D94EB850D94B6850D94CF8551
:1003A0000D94C1850D94F42F0D94E62D0D94E787DF
:1003B0000D94D3850D94F4850D94539E0D940F8860
:1003C0000D9465180D94FB870D94BD850D94A88739
:1003D0000D94EF850D94BA870D94DD870D94C58536
:1003E0000D94792F0D945F9C0D94F1870D94F22F4D
:1003F0000D94AC850D94CE840D948C870D94058856
:100400000D94FE2F0D944A850D94AC840D94E185D6
:100410000D9478870D94D9850D94D7750D94B08778
:100420000D94B0850D94C4870D94E7850D94828753
:100430000D949D840D94D62F0D9464180D94C92F9E
:100440000D94862F0D94F62F0D94AF2F0D940276F8
:100450000D94F02F0D947D874E414E494E495459CD
:10046000494E46CDCCCC3D0AD7233C17B7D138777F
:10047000CC2B329595E6241FB14F0A000020410095
:1004800000C84200401C4620BCBE4CCA1B0E5AAEDF
:10049000C59D746364696E6F70737578585B003BBB
:1004A000202020757365526166742C2564004D36DA
:1004B000303520532564002533642025634300250F
:1004C0003364202563430050757267652046696C6C
:1004D000616D656E740A0053757266696E672031CE
:1004E0000A0053757266696E6720300A004733341C
:1004F00000494E464F3A204245442043414C494230
:10050000202D200053757266696E6720300A0047FF
:1005100032382058302059300054300054310054C3
:10052000300054300053757266696E6720300A00DF
:100530004734330047343300473431004734300008
:1005400047333400473433004734330047343100F5
:10055000473430004D3834004D3834004D383400C5
:100560005A32204F66667365743A20004F4B2073F1
:1005700065636F6E642045787472756465722100DE
:100580005A20706F736974696F6E3A20005A207038
:100590006F736974696F6E3A20004D3834005A31B8
:1005A0002050726F6265206F66667365743A200032
:1005B0004F4B206669727374204578747275646558
:1005C0007221200A005A20706F736974696F6E3A45
:1005D00020005A20706F736974696F6E3A2000436F
:1005E000616C63756C75733A20200043616C6375B0
:1005F0006C75733A20200043616C63756C75733AB7
:1006000020200043616C63756C75733A20200036BE
:10061000302064656772656573200A0054300054A9
:10062000300054300043616C6962726174696F6EAE
:10063000205375636365737366756C0A00543000EC
:100640004A756D70206F76657220736372657731BD
:1006500020616E6420736372657732200A004A75E8
:100660006D70206F76657220736372657731200A32
:1006700000473334004733340047333400543000EC
:1006800047333400494E464F3A20424544204341C7
:100690004C4942202D20004C6F6164696E670A004E
:1006A00053757266696E6720300A00537572666909
:1006B0006E6720300A0053757266696E6720300AD3
:1006C00000253364202563430025336420256343DC
:1006D000002533642025634300507572676520460A
:1006E000696C616D656E740A00253364202563436F
:1006F00000253364202563430025336420256343AC
:10070000002533642025634300253364202563439B
:10071000002533642025634300253364202563438B
:1007200000253364202563430053757266696E6744
:1007300020300A0053757266696E6720300A0054D3
:100740003000466F756E640053757266696E67207F
:10075000300A004D33340053757266696E6720307D
:100760000A004D3234004D3233202573004D3234AF
:10077000004D32332025730054686520666972731A
:1007800074206C61796572207072696E7465642082
:10079000776974682074686520257320486F7465D4
:1007A0006E640A77696C6C20626520646973746F8B
:1007B000727465642062792025642E2531642531A8
:1007C00064206D6D0053757266696E6720300A0093
:1007D00053757266696E6720300A005375726669D8
:1007E0006E6720300A00535543434553530A002592
:1007F00033642025634300253364202563430025AB
:10080000336420256343002533642025634300259A
:10081000336420256343002533642025634300258A
:10082000336420256343002533642025634300257A
:10083000336420256343004C6F6164696E673A0A34
:10084000002533642025634300253364202563435A
:100850000025336420256343005075726765204688
:10086000696C616D656E74200A004736392041431A
:1008700054495641544544002F0053442070726936
:100880006E74696E67206279746520004E6F742003
:100890005344207072696E74696E67002E0044655F
:1008A0006C6574696F6E206661696C65642C2046A6
:1008B000696C653A200046696C652064656C6574F6
:1008C00065643A002E006F70656E206661696C6524
:1008D000642C2046696C653A200047323820583035
:1008E00020593000204500205A00205900483D582A
:1008F000004649524D574152455F4E414D453A4D94
:1009000061726C696E2056313B20537072696E744F
:1009100065722F6772626C206D61736875702066F6
:100920006F722067656E36204649524D57415245D9
:100930005F55524C3A68747470733A2F2F6769741C
:100940006875622E636F6D2F4572696B5A616C6DAD
:100950002F4D61726C696E2F2050524F544F434F90
:100960004C5F56455253494F4E3A312E30204D413F
:100970004348494E455F545950453A4D656E64654C
:100980006C2045585452554445525F434F554E5480
:100990003A3220555549443A3030303030303030DA
:1009A0002D303030302D303030302D303030302D53
:1009B0003030303030303030303030300A007A5F14
:1009C0006D696E3A2000795F6D61783A2000785F3A
:1009D0006D61783A2000785F6D696E3A200053555A
:1009E00043434553530056616C756573206F7574AE
:1009F000206F662072616E67650056616C75657365
:100A0000206F7574206F662072616E676500566195
:100A10006C756573206F7574206F662072616E67E8
:100A2000650056616C756573206F7574206F662064
:100A300072616E67650053554343455353005661D9
:100A40006C756573206F7574206F662072616E67B8
:100A5000650056616C756573206F7574206F662034
:100A600072616E67650056616C756573206F757491
:100A7000206F662072616E67650056616C756573E4
:100A8000206F7574206F662072616E6765005A2052
:100A90004F6666736574206F6B005A204F666673ED
:100AA0006574203A20007A5F6D61783A20007A5FA1
:100AB0006D696E3A20005A204F666673657400486F
:100AC0006F74656E64206F6666736574733A005464
:100AD000696D6520696E6163746976650050757231
:100AE00067652064697374616E636500504F534994
:100AF00054494F4E20484F4D453A20002200556E34
:100B00006B6E6F776E20636F6D6D616E643A20223D
:100B100000466F726D203221005265616479207445
:100B20006F204C6F61642F556E6C6F6164200A00FA
:100B3000256425250025336420256343002533647F
:100B40002025634300253364256343202F2025336C
:100B50006425634300253364256343202F20253318
:100B60006425634300253364256343202F20253308
:100B7000642563430053757266696E672030200AEE
:100B80000043616C6962726174696F6E20537563B2
:100B90006365737366756C0A005430004D383420F9
:100BA000582059205A204500627566666572206F8C
:100BB00075743A2000427566666572313A200043CA
:100BC000617264204E616D653A20002569206D696F
:100BD0006E2C20256920736563000A0A0053746136
:100BE0006E6461726420446576696174696F6E3AFF
:100BF00020000A004D65616E3A20000A0020202086
:100C00007A3A200000793A2000783A20003F537069
:100C100065636966696564206E756D626572206FD3
:100C200066206C65677320696E206D6F76656D65F3
:100C30006E74206E6F7420706C61757361626C6588
:100C40002E0A003F53706563696669656420592008
:100C5000706F736974696F6E206F7574206F662092
:100C600072616E67652E0A003F537065636966693D
:100C70006564205820706F736974696F6E206F759A
:100C800074206F662072616E67652E0A003F537094
:100C9000656369666965642073616D706C65207356
:100CA000697A65206E6F7420706C61757361626C17
:100CB000652E0A0046756C6C20737570706F7274C7
:100CC0002061743A20687474703A2F2F3364707204
:100CD000696E74626F6172642E636F6D2F666F72DE
:100CE000756D2E7068700A004D3438205A2D507280
:100CF0006F6265205265706561746162696C6974C8
:100D00007920746573742E20202056657273696F84
:100D10006E20322E30300A003F566572626F736566
:100D2000204C6576656C206E6F7420706C617573F5
:100D300061626C652E0A002042403A0020403A0071
:100D4000202F003A00205400202F0020423A00209B
:100D50002F006F6B20543A0042656420486561742F
:100D600065640020423A0020453A00543A00457834
:100D70007472756465722072656C65617365642058
:100D80006163746976653A20005A205349474D41A2
:100D900020486F6D656400457874727564657220D3
:100DA0006163746976653A20004D3834005374618C
:100DB0007274696E6720582043616C696272617455
:100DC000696F6E2057697A617264004D3834005340
:100DD00074617274696E6720592043616C69627234
:100DE0006174696F6E2057697A617264005265732D
:100DF000656E643A20006F6B004475616C204D6F26
:100E00006465204F4E004475616C204D6972726FAD
:100E100072204D6F6465204F4E004475616C204D0B
:100E20006F6465204F464600436F6F6C696E6720A4
:100E3000446F776E2048656174657200202D2049EB
:100E40006E76616C69642065787472756465722071
:100E50006E756D6265722021004572726F723A0084
:100E600067636F646520666F756E640020746F2021
:100E7000537461727420446973706C617920667276
:100E80006F6D20526573657400546F6F6B20006442
:100E90006973706C6179206F6E6C696E6521002ECC
:100EA000006469706C6179206F66666C696E6500BC
:100EB00042434E3344205369676D61780073746117
:100EC0007274006563686F3A0030322D312E322E15
:100ED00037006572726F722077726974696E67206D
:100EE000746F2066696C6500205A3A0020593A00F8
:100EF00020583A00656E6473746F7073206869746B
:100F00003A20006563686F3A00446F6E6520736134
:100F100076696E672066696C652E006F6B004D32D6
:100F200039003B20472D436F64652067656E65720D
:100F3000617465642062792053696D706C696679AB
:100F400033442852292056657273696F6E202564D8
:100F5000003B5072696E742074696D653A20256497
:100F60002025732025642025732025642025730007
:100F70003B54494D453A256C64003B202020427586
:100F8000696C642074696D653A202564202573209E
:100F90002564202573003B202020506C6173746908
:100FA00063207765696768743A2025642E25646735
:100FB000003B46696C616D656E7420757365643ABB
:100FC0002025642E25646D2025642E256467003B52
:100FD00046696C616D656E7420757365643A202591
:100FE0006C642E256C646D0053415645442050526C
:100FF000494E540043616E6E6F7420656E74657265
:10100000207375626469723A200057726974696E60
:101010006720746F2066696C653A20002E006F703F
:10102000656E206661696C65642C2046696C653A62
:1010300020002E006F70656E206661696C65642CFF
:101040002046696C653A200046696C652073656CC2
:101050006563746564002053697A653A20004669C7
:101060006C65206F70656E65643A20002E006F70AD
:10107000656E206661696C65642C2046696C653A12
:1010800020004E6F772066726573682066696C6514
:101090003A20004E6F7720646F696E672066696C36
:1010A000653A20002220706F730022207061726503
:1010B0006E743A2200535542524F5554494E4520C2
:1010C00043414C4C207461726765743A220074721B
:1010D00079696E6720746F2063616C6C2073756230
:1010E0002D67636F64652066696C6573207769742A
:1010F0006820746F6F206D616E79206C6576656C09
:10110000732E204D4158206C6576656C2069733ACA
:10111000002A2A2A2047656E6965204261642042C0
:10112000797465202A2A2A202D2D2D3E2030780022
:101130002056616C75653A200020496E6465783AE6
:1011400020002A2A2A2047656E6965205265706F43
:101150007274204F626A656374202A2A2A204F62C3
:101160006A6563743A20002A2A2A2047656E6965F9
:1011700020436F6E6E6563746564202F2053796E13
:101180006321202A2A2A002056616C75653A2000C6
:1011900020496E6465783A20002A2A2A2047656E25
:1011A0006965205265706F7274204576656E742093
:1011B0002A2A2A204F626A6563743A2000204C650F
:1011C0006E6774683A20002A2A2A2047656E69658E
:1011D000205265636569766564204D6167696320A7
:1011E000446F75626C65204279746573202A2A2ADF
:1011F00020496E6465783A2000204C656E677468FB
:101200003A20002A2A2A2047656E696520526563C4
:101210006569766564204D6167696320427974650C
:1012200073202A2A2A20496E6465783A20002A2AE7
:101230002A2047656E6965204E414B205265636FD9
:101240007665727920212121202A2A2A002A2A2A39
:101250002047656E696520446973636F6E6E6563D0
:101260007465642066726F6D20446F4576656E7498
:101270007321202A2A2A002A2A2A2047656E6965B6
:1012800020546F6F6B20746F6F206C6F6E672074CB
:101290006F2072652D656E74657220446F457665AA
:1012A0006E747328292C20726564756365206465EB
:1012B0006C61797320696E20636F64652C2073659F
:1012C0006C662D70726F74656374696F6E20656EE5
:1012D00061626C65642E202A2A2A002A2A2A204765
:1012E000656E696520446973636F6E6E65637465CE
:1012F000642066726F6D204765744E65787442791C
:10130000746521202A2A2A002A2A2A2047656E6924
:101310006520456E61626C65204174746163684547
:1013200076656E7448616E646C657220212121209F
:101330002A2A2A005374617274696E67205A204306
:10134000616C6962726174696F6E2057697A61724B
:1013500064000A0020616E7469686F726172690AC4
:101360003A200020686F726172690A20002F3800ED
:10137000766F6C746573200020566F6C74657320F3
:10138000636172676F6C20333A200020616E74696C
:10139000686F726172690A3A200020686F72617228
:1013A000690A20002F3800766F6C74657320002066
:1013B000566F6C74657320636172676F6C20323A8C
:1013C00020000A0020647A333A200020647A323AFE
:1013D0002000543100543000543000543000005686
:1013E000756974656E73333A2020004170726F78AE
:1013F000333A202000566F6C746573333A20200016
:101400000056756974656E73323A2020004170721F
:101410006F78323A202000566F6C746573323A2030
:10142000200056616C6F7220645A333A20200056B7
:10143000616C6F7220645A323A2020004E6577202A
:101440006F66667365742076657273696F6E3A2095
:10145000007A335F313A20007A325F313A20005A05
:101460007363726F6C6C5F313A20007A335F303A8D
:1014700020007A325F303A20005A7363726F6C6CCE
:101480005F303A2000706C616E654E6F726D616CFA
:101490005F312E7A3A2000706C616E654E6F726D0E
:1014A000616C5F312E793A2000706C616E654E6F11
:1014B000726D616C5F312E783A2000706C616E65E0
:1014C0004E6F726D616C5F302E7A3A2000706C61E5
:1014D0006E654E6F726D616C5F302E793A200070D0
:1014E0006C616E654E6F726D616C5F302E783A2064
:1014F000005A76616C756520616674657220686F4C
:101500006D653A00486F6D6520582F5920626566F9
:101510006F7265205A004578747275646572207226
:10152000656C6561736564206163746976653A20F2
:10153000005A205349474D4120486F6D656400456E
:1015400078747275646572206163746976653A2097
:10155000000000000000809343000000000000A095
:10156000400000A0400000004020004D6F76652044
:10157000746F3A2000CDAC034400809343000052C6
:1015800043FF01FF20636F6C64206578747275738C
:10159000696F6E2070726576656E74656400656350
:1015A000686F3A0053657474696E67732053746F83
:1015B00072656400204D696E75746573203A002071
:1015C000204C617374207072696E742074696D654B
:1015D0002D3E20486F757273203A004C6173742061
:1015E0007072696E74206475726174696F6E002C1C
:1015F000205468697264204944206E756D6265727A
:1016000020002C205365636F6E64204944206E7562
:101610006D6265723A200020204669727374204919
:1016200044206E756D6265723A2000554920496EFE
:10163000666F726D6174696F6E2053657269616C5B
:10164000204E756D6265723A00206D2C2045312068
:101650007072696E742064697374616E63653A2098
:1016600000206B6D2C204530207072696E742064F0
:10167000697374616E63653A2000206B6D2C20598C
:10168000207072696E742064697374616E63653A68
:101690002000206B6D2C205831207072696E7420F0
:1016A00064697374616E63653A200020432C0A20DC
:1016B0005830207072696E742064697374616E634F
:1016C000653A200020432C206D61782074656D7090
:1016D00020423A200020432C206D61782074656DF3
:1016E0007020523A20002C206D61782074656D7056
:1016F000204C3A2000682C207072696E747320664A
:10170000696E69736865643A20002C207072696E96
:1017100074696E672074696D653A200020207072CC
:10172000696E74733A200053544154533A00204375
:101730002C20525F5052494E543A200020432C2016
:10174000525F4245443A200020432C20525F5245CC
:101750004D4F56453A20002020525F494E53455286
:10176000543A200054656D70202843293A002043E4
:101770002C204C5F5052494E543A200020432C20DC
:101780004C5F4245443A200020432C204C5F524598
:101790004D4F56453A200020204C5F494E5345524C
:1017A000543A200054656D70202843293A00205691
:1017B0002856657273696F6E292000205228426591
:1017C00064207269676874207363726577292000EA
:1017D00020204D353331204C28426564206C6566ED
:1017E00074207363726577292000426564204F6618
:1017F000667365747320286D6D293A002050285A4D
:101800002070726F62652900205A20002059200044
:1018100020204D353330205820004F6666736574A4
:101820007320286D6D293A00204400204900202DA6
:10183000204D333031205249474854205000204435
:101840000020490020204D333031204C45465420A3
:1018500050005049442073657474696E67733A0090
:10186000205A0020590020204D32303620580048A0
:101870006F6D65206F666673657420286D6D293AFB
:1018800000204500205A002058002042002054002B
:1018900020204D323035205300416476616E6365FF
:1018A00064207661726961626C65733A20533D4DC4
:1018B000696E20666565647261746520286D6D2FA0
:1018C00073292C20543D4D696E2074726176656CCD
:1018D00020666565647261746520286D6D2F7329BB
:1018E0002C20423D6D696E696D756D207365676D65
:1018F000656E742074696D6520286D73292C2058DD
:101900003D6D6178696D756D205859206A65726BFF
:1019100020286D6D2F73292C20205A3D6D61786928
:101920006D756D205A206A65726B20286D6D2F735E
:10193000292C2020453D6D6178696D756D2045200D
:101940006A65726B20286D6D2F732900205400206A
:10195000204D323034205300416363656C65726101
:1019600074696F6E3A20533D616363656C657261A3
:1019700074696F6E2C20543D7265747261637420BB
:10198000616363656C65726174696F6E0020450008
:10199000205A0020590020204D3230312058004D6F
:1019A0006178696D756D20416363656C6572617402
:1019B000696F6E20286D6D2F7332293A0020450023
:1019C000205A0020590020204D3230332058004D3D
:1019D0006178696D756D20666565647261746573A3
:1019E00020286D6D2F73293A00204500205A0020D1
:1019F000590020204D3932205800537465707320EF
:101A000070657220756E69743A0024F4D43050C346
:101A10008E20C2A24017828B7011127A910D816CB8
:101A2000D90AA861E108C7586607615143061E4BF1
:101A30005D05C145A7041A411104093D9803713998
:101A400031034036DB0265339102D4305402802EDC
:101A50001D02632CEE01752AC501B028A0011027D4
:101A600081018F2564012B244B01E0223401AC213C
:101A70001F018D200D01801FFC00841EED00971DAD
:101A8000DF00B81CD200E61BC600201BBC00641A95
:101A9000B200B219A8000A19A0006A189900D1175B
:101AA000910040178B00B516840031167E00B315E7
:101AB00079003A157300C7146F0058146A00EE13CA
:101AC00066008813630025135E00C7125B006C126A
:101AD000570015125400C111510070114F0021110F
:101AE0004B00D61049008D104700461044000210EC
:101AF0004200C00F4000800F3E00420F3C00060F26
:101B00003B00CB0E3800930E37005C0E3500270EDD
:101B10003400F30D3200C10D3100900D3000600D26
:101B20002E00320D2D00050D2C00D90C2B00AE0C13
:101B30002900850C29005C0C2700350C27000E0CB1
:101B40002600E80B2400C40B2400A00B23007D0B0F
:101B500023005A0B2100390B2100180B2000F80A32
:101B60001F00D90A1E00BB0A1E009D0A1D00800A24
:101B70001D00630A1C00470A1B002C0A1B00110AE7
:101B80001A00F7091A00DD091900C4091900AB0988
:101B90001900920917007B091800630917004C0906
:101BA000160036091600200916000A091500F50866
:101BB0001500E0081400CC081400B8081400A408AC
:101BC0001400900813007D0812006B0813005808D9
:101BD00012004608120034081100230811001208F0
:101BE000110001081100F0071000E0071000D007F5
:101BF0001000C0071000B0070F00A10710009107E8
:101C00000E0083070F0074070F0065070E005707CB
:101C10000E0049070E003B070D002E070E0020079F
:101C20000D0013070D0006070D00F9060C00ED0668
:101C30000D00E0060C00D4060C00C8060C00BC0623
:101C40000C00B0060C00A4060B0099060C008D06D3
:101C50000B0082060B0077060B006C060B0061067A
:101C60000A0057060B004C060A0042060A00380616
:101C70000A002E060A0024060A001A060A001006A8
:101C8000090007060A00FD050900F4050900EB0537
:101C90000900E2050900D9050900D0050900C705BA
:101CA0000900BE050900B5050800AD050800A50539
:101CB00009009C050800940508008C0508008405AF
:101CC00008007C050800740508006C050700650520
:101CD00008005D050700560508004E05070047058A
:101CE00007004005080038050700310507002A05F0
:101CF0000700230507001C050600160507000F0551
:101D000007000805060002050700FB040600F504AD
:101D10000700EE040600E8040600E2040700DB0406
:101D20000600D5040600CF040600C9040600C3045B
:101D30000600BD040600B7040600B1040500AC04AB
:101D40000600A6040600A00405009B0406009504F6
:101D50000500900406008A0405008504050080043F
:101D600006007A04050075040500700405006B0484
:101D7000050066040500610405005C0405005704C5
:101D80000500520405004D04050048040500430405
:101D900005003E0404003A04050035040500300443
:101DA00004002C04050027040400230405001E047D
:101DB00004001A04040016040500110404000D04B4
:101DC0000400090405000404040000040400FC03EA
:101DD0000400F8030400F4030400F0030400EC031F
:101DE0000400E8030400E4030400E0030400DC034F
:101DF0000400D8030400D4030400D0030400CC037F
:101E00000400C8030300C503030024F404D9201B05
:101E1000C40C5C0E9804C4095F0265077101F405E7
:101E2000F900FB04B30048048700C10369005803AC
:101E3000550003034500BE023A00840231005302FC
:101E40002A002902250004022000E4011C00C80128
:101E50001900AF01170098011400840113007101EB
:101E600010006101100051010E0043010D00360108
:101E70000B002B010B0020010B00150109000C01C8
:101E8000090003010800FB000800F3000800EB0054
:101E90000700E4000600DE000600D8000600D200BD
:101EA0000600CC000500C7000500C2000500BD000B
:101EB0000400B9000400B5000400B1000400AD0046
:101EC0000400A9000400A5000300A20003009F0075
:101ED00004009B000300980003009500020093009B
:101EE0000300900003008D0002008B0003008800B7
:101EF00002008600020084000300810002007F00CF
:101F000002007D0002007B000200790002007700E1
:101F100001007600020074000200720001007100EE
:101F200002006F0002006D0001006C0002006A00F8
:101F30000100690002006700010066000100650001
:101F40000100640002006200010061000100600005
:101F500001005F0002005D0001005C0001005B0009
:101F600001005A000100590001005800010057000B
:101F7000010056000100550001005400010053000B
:101F80000000530001005200010051000100500008
:101F900001004F0001004E0000004E0001004D0006
:101FA00001004C0001004B0000004B0001004A0002
:101FB00001004900010048000000480001004700FE
:101FC00001004600000046000100450000004500F9
:101FD00001004400010043000000430001004200F2
:101FE00000004200010041000000410001004000EB
:101FF00001003F0000003F0001003E0000003E00E5
:1020000001003D0000003D0001003C0000003C00DC
:1020100000003C0001003B0000003B0001003A00D2
:1020200000003A00010039000000390001003800CA
:1020300000003800000038000100370000003700C1
:1020400001003600000036000000360001003500B7
:1020500000003500000035000100340000003400AD
:1020600000003400010033000000330000003300A2
:102070000100320000003200000032000100310097
:10208000000031000000310001003000000030008D
:102090000000300001002F0000002F0000002F0082
:1020A00000002F0001002E0000002E0000002E0076
:1020B00001002D0000002D0000002D0000002D006B
:1020C00001002C0000002C0000002C0000002C005F
:1020D00001002B0000002B0000002B0000002B0053
:1020E00001002A0000002A0000002A0000002A0047
:1020F000010029000000290000002900000029003B
:10210000000029000100280000002800000028002D
:102110000000280000002800010027000000270020
:102120000000270000002700000027000100260013
:102130000000260000002600000026000000260007
:1021400001002500000025000000250000002500FA
:1021500000002500000025000100240000002400EC
:1021600000002400000024000000240001002300DF
:1021700000002300000023000000230000002300D3
:1021800000002300000023000100220000002200C4
:1021900000002200000022000000220000002200B7
:1021A00001002100000021000000210000002100AA
:1021B000000021000000210000002100010020009B
:1021C000000020000000200000002000000020008F
:1021D00000002000000020000000200001001F007F
:1021E00000001F0000001F0000001F0000001F0073
:1021F00000001F0000001F0001001E0000001E0064
:1022000000001E0000001E00000070012C01900163
:102210002701B0012201C0011D01F00118011002C7
:10222000130130020E016002090190020401C00294
:10223000FF000003FA004003F5008003F000D00324
:10224000EB002004E6007004E100E004DC0040053F
:10225000D700C005D2004006CD00D006C8008007D8
:10226000C3003008BE00F008B900C009B400B00ACD
:10227000AF00B00BAA00D00CA500000EA000500FBC
:102280009B00C01096005012910000148C00C015E5
:102290008700B0178200B0197D00D01B7800001EA7
:1022A000730040206E0090226900F02464004027F3
:1022B0005F0090295A00E02B5500102E500020306E
:1022C0004B0010324600E033410090353C0010379F
:1022D000370070383200A0392D00B03A2800A03BFA
:1022E0002300603C1E00103D1900903D1400103E7C
:1022F0000F00703E0A00C03E0500003F0000487914
:1023000073746572657369732074656D706572614D
:102310007475726500546865726D616C2072756EBB
:10232000617761792070726F74656374696F6E2074
:102330006279204865617465725F49443A0045726C
:10234000726F72283833293A2042656420746865B8
:10235000726D6973746F72206E6F7420646574653A
:1023600063746564004572726F72283832293A20AE
:10237000526967687420746865726D6973746F72EE
:10238000206E6F74206465746563746564004572C3
:10239000726F72283831293A204C6566742074684F
:1023A00065726D6973746F72206E6F74202064653E
:1023B000746563746564002053544F502050524933
:1023C0004E54200A004572726F72283833293A2021
:1023D00042656420746865726D6973746F72206EF3
:1023E0006F74206465746563746564002053544F92
:1023F00050205052494E54200A004572726F722884
:102400003832293A20526967687420746865726DA1
:102410006973746F72206E6F742064657465637481
:102420006564002053544F50205052494E54200AA6
:10243000004572726F72283831293A204C656674F3
:1024400020746865726D6973746F72206E6F74208A
:10245000206465746563746564002200656E71753F
:1024600065696E672022002200656E717565696E70
:10247000672022002520336420252500256420685C
:10248000202564206D002520336420252500253279
:1024900064202563430025336420256343002533EE
:1024A000642025634300526561647920746F204C79
:1024B0006F61642F556E6C6F6164200A002564257E
:1024C00025002533642025634300253364202563DC
:1024D00043002053544F50205052494E54200A007C
:1024E000473238205830205930004D33350052657E
:1024F00073756D65206465746563746564200A0096
:1025000047373000A1524553554D4521200A00A1BF
:10251000504155534521200A00253364202563434B
:10252000002533642025634300253364202563435D
:10253000002533642025634300253364202563434D
:10254000002533642025634300253364202563433D
:10255000002533642025634300253364202563432D
:10256000005052494E542053455454494E4753202D
:102570000A00504944204175746F74756E65206679
:10258000696E69736865642120507574207468658C
:10259000206C617374204B702C204B6920616E6439
:1025A000204B6420636F6E7374616E747320667267
:1025B0006F6D2061626F766520696E746F20436F66
:1025C0006E66696775726174696F6E2E6800504936
:1025D00044204175746F74756E65206661696C6521
:1025E00064212074696D656F75740020403A006F36
:1025F0006B20543A006F6B20423A0050494420410E
:1026000075746F74756E65206661696C65642120F0
:1026100054656D706572617475726520746F6F209A
:102620006869676800204B643A2000204B693A20B3
:1026300000204B703A200020436C61737369632063
:1026400050494420002054753A2000204B753A2010
:1026500000206D61783A2000206D696E3A200020DC
:10266000643A200020626961733A20005354415457
:10267000495354494353205245534554002C207329
:10268000617665645F466C61675F66616E6C6179F7
:1026900065725F6D6972726F723A20002C207361EF
:1026A0007665645F66656564726174653A20002CC6
:1026B0002073617665645F66616E6C617965723AFC
:1026C00020002C2073617665645F74656D706265AF
:1026D000643A20002C2073617665645F74656D70C8
:1026E000303A20002C2073617665645F74656D70EC
:1026F000313A20002C2073617665645F66696C65F1
:10270000706F736974696F6E3A20002C2073617664
:1027100065645F655F706F736974696F6E3A2000FE
:102720002C2073617665645F746F6F6C5F61637496
:102730006976653A20002C2073617665645F7A5F64
:10274000706F736974696F6E3A20002C2073617624
:1027500065645F795F706F736974696F6E3A2000AA
:102760002C2073617665645F785F706F736974693C
:102770006F6E3A200053415645205052494E542026
:102780004C4F473A006563686F3A005072696E7447
:10279000207265636F76657279207570004E6F7474
:1027A000207072696E74207265636F76657279202D
:1027B000757000504F534954494F4E20484F4D4576
:1027C0003A20007C3C3E5E2B3D3F2F5B5D3B2C2A3C
:1027D000225C002564206974656D73002534643AB9
:1027E000252E326468202F202564670000496E730F
:1027F00074616C6C202564202573206F6E207468D2
:102800006520257320686F74656E640043616C6396
:10281000756C75733A20200043616C63756C757339
:102820003A20200043616C63756C75733A20200078
:10283000496E7374616C6C202564202573206F6E63
:102840002074686520257320686F74656E64007A53
:1028500070726F62653A2000534420636172642095
:102860006F6B006F70656E526F6F74206661696C7C
:10287000656400766F6C756D652E696E697420668F
:1028800061696C6564004572726F723A005344204E
:10289000696E6974206661696C006563686F3A00EF
:1028A0004D3234004D3233202573006175746F252D
:1028B000692E67002E2E2E2054696D656F75742168
:1028C000002A2A2A2047656E696520577269746557
:1028D0004F626A656374202A2A2A202D2D2D3E001E
:1028E0002E2E2E204E414B2021002A2A2A204765D9
:1028F0006E69652057726974654F626A65637420FA
:102900002A2A2A202D2D2D3E002E2E2E2041434BEB
:102910002021002A2A2A2047656E6965205772699E
:1029200074654F626A656374202A2A2A202D2D2D32
:102930003E004578747275646572204865617465FF
:10294000640020573A0020453A00543A00205A3A91
:102950000020593A0020436F756E7420583A2000C9
:1029600020453A00205A3A0020593A00583A004887
:102970006F74656E64206F6666736574733A004D9C
:10298000383420582059205A2045004D3130370026
:102990005430004D31303700473932204530205A0D
:1029A0003020522564004E6577206C617965722075
:1029B0006465746563746564005A20686F7070693B
:1029C0006E672064657465637465640025692068BA
:1029D0006F757273202569206D696E75746573005B
:1029E000446F6E65207072696E74696E67206669E7
:1029F0006C65004D333300706175736520646574D8
:102A00006563746564200A00473639005072696E48
:102A10007465722073746F707065642064756520CE
:102A2000746F206572726F72732E204669782074FD
:102A30006865206572726F7220616E6420757365BF
:102A4000204D39393920746F207265737461727446
:102A50002E202854656D70657261747572652069E9
:102A6000732072657365742E205365742069742019
:102A700061667465722072657374617274696E67E1
:102A800029006F6B004E6F204C696E65204E756D8E
:102A9000626572207769746820636865636B73751B
:102AA0006D2C204C617374204C696E653A20004E89
:102AB0006F20436865636B73756D20776974682058
:102AC0006C696E65206E756D6265722C204C617349
:102AD00074204C696E653A2000636865636B73759A
:102AE0006D206D69736D617463682C204C61737423
:102AF000204C696E653A20004C696E65204E756DFC
:102B0000626572206973206E6F74204C617374204B
:102B10004C696E65204E756D6265722B312C204CB0
:102B2000617374204C696E653A20004D313130007C
:102B3000504944204175746F74756E652066696EE6
:102B400069736865642100504944204175746F744D
:102B5000756E65206661696C6564212074696D65B8
:102B60006F75740020403A006F6B20543A006F6B11
:102B700020423A00504944204175746F74756E6567
:102B8000206661696C6564212054656D70657261B1
:102B90007475726520746F6F206869676800204BD8
:102BA000643A2000204B693A2000204B703A200004
:102BB00020436C61737369632050494420002054A2
:102BC000753A2000204B753A2000206D61783A203C
:102BD00000206D696E3A200020643A20002062696E
:102BE00061733A20005072696E7465722068616C7E
:102BF0007465642E206B696C6C28292063616C6C91
:102C0000656421004572726F723A0053746F726589
:102C1000642073657474696E677320726574726979
:102C2000657665640048617264636F64656420441E
:102C3000656661756C742053657474696E67732082
:102C40004C6F616465640048617264636F646564BD
:102C50002043616C696220616E64205049442044C5
:102C6000656661756C742053657474696E67732052
:102C70004C6F616465640000002100240027002A75
:102C8000002D003000330001010000040107010A9B
:102C90000100002200250028002B002E0031003406
:102CA0000002010000050108010B010000200023C3
:102CB00000260029002C002F003200000100000334
:102CC00001060109010505050507050808080802B0
:102CD0000202020A0A0808040404040101010101B5
:102CE0000101010303030303030303040707070CA4
:102CF0000C0C0C0C0C0C0C0202020206060606065A
:102D00000606060B0B0B0B0B0B0B0B010210202006
:102D1000080810204010204080020102010804022F
:102D200001010204081020408080402010080402A5
:102D300001800402018040201008040201080402FE
:102D40000101020408102040800102040810204004
:102D50008000000A0B02090C0D0E08070304010095
:102D60000000000000000000000000000000000063
:102D70000000000000000000000000000012111020
:102D80000000000000000000000000000000000043
:102D9000000000000000000A00205A3A20002059DC
:102DA0003A200020583A200042656400456E6420B5
:102DB00066696C65206C69737400426567696E2092
:102DC00066696C65206C69737400CDAC0344008047
:102DD0009343000052430000000000000000000088
:102DE00000000A00207A3A200020793A200020785A
:102DF0003A20004265640000F201DC0111241FBE8C
:102E0000CFEFD1E2DEBFCDBF00E00CBF17E0A0E006
:102E1000B2E0ECE2F9E803E00BBF02C007900D92CC
:102E2000AE37B107D9F729E1AEE7B7E001C01D928F
:102E3000A43CB207E1F716E1CDEFD6E100E006C011
:102E400021970109802FFE010F94F9C1CC3FD107D2
:102E500080E00807A9F70F942F930D9485C40C9474
:102E600000002F923F924F925F926F927F928F92CB
:102E70009F92AF92BF92CF92DF92EF92FF920F9309
:102E80001F93CF93DF93CDB7DEB7C353D1400FB6B7
:102E9000F894DEBF0FBECDBF2DB73EB7CE5CDE4F80
:102EA00039832883C253D1409091E411992391F042
:102EB0008091E21136E0839FF0011124EE57FE4E1F
:102EC000F080018112818F5F8F708093E2119150A9
:102ED0009093E4118091C00781110DC00F94508828
:102EE0006093BC077093BD078093BE079093BF07A4
:102EF00081E08093C0078091B40781110DC00F94C9
:102F000050886093B0077093B1078093B207909395
:102F1000B30781E08093B40747E0F4120C94F17397
:102F2000013211F00C94035F8091CE0E81110C944C
:102F300071619091CF0E91110C9471619091C807BD
:102F4000992309F42CC38091CC07823008F427C35D
:102F5000173409F489C1B0F41B32E1F140F41731A0
:102F600009F4ADC0183109F4D1C00C94F1731033D9
:102F700009F47EC0153309F4D8C21F3211F00C9445
:102F8000F1734FC0103809F4E4C0D0F41E3509F4D1
:102F90009AC21F3511F00C94F17314E410933F1290
:102FA00040E050E06BE084E10F94335F40E050E09C
:102FB00065E18AE00F94335F1093EA170C94F17384
:102FC000123809F424C108F4F3C01B3A09F4F9C11A
:102FD0000C94F1730F9450880091B0071091B107D1
:102FE0002091B2073091B3076017710782079307EA
:102FF00010F40C94F1730F945088DC01CB018853CA
:103000009F4FAF4FBF4F8093B0079093B107A093EE
:10301000B207B093B3078EEF9FEF0F942EA60C94D8
:10302000F1730F9450880091B0071091B10720916F
:10303000B2073091B307601771078207930710F446
:103040000C94F1730F945088DC01CB0188539F4F8F
:10305000AF4FBF4F8093B0079093B107A093B207D3
:10306000B093B3078FEF9FEF0F942EA60C94F173DC
:103070000F9450880091B0071091B1072091B207CA
:103080003091B307601771078207930710F40C940F
:10309000F1730F945088DC01CB0188539F4FAF4FE1
:1030A000BF4F8093B0079093B107A093B207B0933E
:1030B000B30780E090E00F942EA60C94F1730F9468
:1030C00050880091B0071091B1072091B20730915C
:1030D000B307601771078207930710F40C94F1731C
:1030E0000F945088DC01CB0188539F4FAF4FBF4FE7
:1030F0008093B0079093B107A093B207B093B30742
:1031000081E090E00F942EA60C94F1730F945088F8
:103110000091B0071091B1072091B2073091B30729
:103120006017710782079307A0F00F945088DC01A5
:10313000CB0188539F4FAF4FBF4F8093B007909301
:10314000B107A093B207B093B30782E090E00F9469
:103150002EA60F9450880091B0071091B1072091CE
:10316000B2073091B307601771078207930710F415
:103170000C94F1730F945088DC01CB0188539F4F5E
:10318000AF4FBF4F8093B0079093B107A093B207A2
:10319000B093B3078DEF9FEF90934112809340124D
:1031A00040E050E06AE08AE00F94335F0C94F173E2
:1031B0000F9450880091B0071091B1072091B20789
:1031C0003091B307601771078207930710F40C94CE
:1031D000F1730F945088DC01CB0188539F4FAF4FA0
:1031E000BF4F8093B0079093B107A093B207B093FD
:1031F000B30783E090E0909341128093401240E047
:1032000050E06AE08AE00F94335F0C94F1730F94FE
:1032100050880091B0071091B1072091B20730910A
:10322000B307601771078207930710F40C94F173CA
:103230000F945088DC01CB0188539F4FAF4FBF4F95
:103240008093B0079093B107A093B207B093B307F0
:10325000109241121092401240E050E06AE08AE081
:103260000F94335F0C94F1730F9450880091B00762
:103270001091B1072091B2073091B3076017710721
:103280008207930710F40C94F1730F945088DC01BB
:10329000CB0188539F4FAF4FBF4F8093B0079093A0
:1032A000B107A093B207B093B30740E050E068E0E5
:1032B0008AE00F94335F81E48093EA1741E061E094
:1032C00081E00F94D6141092EA170F94B7390F9437
:1032D000D6A1109140128091CC07823011F540E0C8
:1032E00050E061E18AE00F94335F80E58093EA1754
:1032F0000091C907010F0093C907002E000C110BA4
:1033000020E030E0A901CA01B9010F94DCA740E038
:1033100050E069E18AE00F94335F1092EA170C9451
:10332000F173833029F540E050E061E18AE00F94C9
:10333000335F80E58093EA170091CA07010F00937D
:10334000CA07002E000C110B20E030E04CE553ECD6
:1033500060E070E088E393EC0F94DCA740E050E07D
:1033600069E18AE00F94335F1092EA170C94F173CD
:10337000843011F00C94F17340E050E061E18AE098
:103380000F94335F80E58093EA170091CB07010F1C
:103390000093CB07002E000C110B20E030E04CE531
:1033A00053EC60E070E080E493E40F94DCA740E02D
:1033B00050E069E18AE00F94335F1092EA170C94B1
:1033C000F1731092EA178091C9074091CA07042F40
:1033D000081B4091CB07142F181B602F002E000CE8
:1033E000770B880B990B0F940EB72DEC3CEC4CEC43
:1033F0005DEB0F94FEB16093080870930908809309
:103400000A0890930B08612F012E000C770B880B94
:10341000990B0F940EB72DEC3CEC4CEC5DEB0F943C
:10342000FEB160930408709305088093060890939A
:1034300007080023A1F040E050E06FE18AE00F941C
:10344000335F07FF07C0202F332721950CF43095F9
:1034500008E0020F402F000F550B64E015C0112348
:10346000B9F040E050E060E28AE00F94335F17FF6C
:1034700007C0812F992781950CF4909518E0180FBB
:10348000412F110F550B65E08BE10F94335F11C095
:1034900014E410933F1240E050E06BE084E10F949D
:1034A000335F40E050E065E18AE00F94335F1093B2
:1034B000EA178FE790E090930308809302080F9437
:1034C0003A1F0C94F1734091CB078091C907142FD8
:1034D000181BC1F040E050E060E28AE00F94335FD7
:1034E00017FF07C0A12FBB27A1950CF4B09518E0DA
:1034F0001A0F412F110F550B65E08BE10F94335FCD
:103500000C94F17314E410933F1240E050E06BE030
:1035100084E10F94335F40E050E065E18AE00F946E
:10352000335F1093EA170C94F17380913F12843447
:1035300011F00C94F1731092CC071092C8071092FE
:10354000EA171092FB0A1092FA0A1092010B1092DD
:10355000000B1092030B1092020B10921B0B109297
:10356000E617E0EDF7E084918F01882351F0082EF3
:10357000000C990B0F943C600F5F1F4FF801849172
:10358000F4CF109286190F945B3A40E050E065E06A
:103590008AE00F94335F10923F120C94F173412F25
:1035A00050E0403E510510F00C94F173FA01882769
:1035B000EE58FF4F8F4F0D94F9C181E080931F08A3
:1035C0000C94F17381E080931E080C94F17381E0F8
:1035D00080931D080C94F17381E080931C080C9477
:1035E000F17381E080931B080C94F1730F94508861
:1035F0000091B0071091B1072091B2073091B30745
:10360000601771078207930710F40C94F1730E94FE
:10361000C4EB009721F481E08093200811C001974A
:10362000A1F481E08093200840E050E067E381E26C
:103630000F94335F40E050E061E08BE10F94335F23
:103640008091ED0A81508093ED0A0F945088DC013F
:10365000CB0188539F4FAF4FBF4F8093B0079093DC
:10366000B107A093B207B093B3070C94F1730F9412
:1036700050880091B0071091B1072091B2073091A6
:10368000B307601771078207930710F40C94F17366
:1036900010921B0B1092E617E5ECF7E084918F0176
:1036A000882351F0082E000C990B0F943C600F5F9B
:1036B0001F4FF8018491F4CF1092861981E00F9486
:1036C0005B3A40E050E065E08AE00F94335F0F948E
:1036D0005088DC01CB0188539F4FAF4FBF4F809381
:1036E000B0079093B107A093B207B093B3070C94BF
:1036F000F1730F9450880091B0071091B107209199
:10370000B2073091B307601771078207930708F477
:10371000CEC28091D00E882309F4C9C241E061E095
:1037200081ED9EE00E9448E28FEF9FEF9093BF0EE5
:103730008093BE0EE12CF12C0DE61EE09E012F5F62
:103740003F4F590188248A94982C22242394312CA9
:103750005EEAC52E54E0D52E40916F115091701144
:1037600060917111709172118091CA109091CB107B
:10377000A091CC10B091CD1084179507A607B7077C
:1037800008F0C8C0D801E2E31D92EA95E9F725E107
:10379000422E512C80916D0E8D3429F4E114F104E8
:1037A00009F07FC05FC040916F115091701160911E
:1037B0007111709172118091CA109091CB10A091EB
:1037C000CC10B091CD1084179507A607B70730F736
:1037D0009DE6692E9EE0792E8091CA109091CB10C3
:1037E000A091CC10B091CD1040916F1150917011FB
:1037F000609171117091721184179507A607B70730
:1038000088F48093771190937811A0937911B093F5
:103810007A1182EC90E10F94B857D3018D933D015A
:103820008A3029F4B1E04B1A510829F4B7CFAE59C8
:10383000BE40C1F3D1CF40916F1150917011609192
:103840007111709172118091CA109091CB10A0915A
:10385000CC10B091CD1084179507A607B70708F4D0
:1038600099CF9CCF9A828982BF92AF92A2E2BFE0A9
:10387000BF93AF931F930F930F94E7B689819A81FB
:103880000F900F900F900F900F900F90019629F0CE
:103890003092BF0E2092BE0E04C01092BF0E109246
:1038A000BE0E9A828982BF92AF92DF92CF921F930F
:1038B0000F930F94E7B689819A810F900F900F9024
:1038C0000F900F900F90059711F40C9455619A8208
:1038D0008982BF92AF92DF92CF921F930F930F9482
:1038E000E7B689819A810F900F900F900F900F90FB
:1038F0000F90069711F40C9455612EE0E216F10436
:1039000009F486C13FEFE31AF30A4FE0E416F1042D
:103910000CF422CF10927711109278111092791135
:1039200010927A1140E050E0BA0182EC90E10F94DD
:10393000FF528091BE0E9091BF0E892B49F40CE38B
:1039400010E0BDE6EB2EBEE0FB2E82E3D82E98C041
:103950000AEF10E05DE6E52E5EE0F52E62E3362E1E
:1039600044244A94542CAE014F5F5F4F6A01EFE943
:10397000AE2EE4E0BE2E40916F1150917011609117
:103980007111709172118091CA109091CB10A09119
:10399000CC10B091CD1084179507A607B70708F093
:1039A0003FC0ADE68A2EAEE09A2ED701E32D1D92E0
:1039B000EA95E9F70E948BE9019621F480E00E94E4
:1039C0006EE826C15A824982DF92CF92FFE96F2EBC
:1039D000F4E07F2EBF92AF92FF92EF920F94E7B682
:1039E00089819A810F900F900F900F900F900F90F8
:1039F000019659F18FEF9FEF9A838983DF92CF92DF
:103A00007F926F929F928F920F94E7B689819A81ED
:103A10000F900F900F900F900F900F90892B71F6D1
:103A200080E00E946EE8C0903202D0903302E090B5
:103A30003402F090350220E030E0A901C701B60160
:103A40000F946CC0181694F13CC00150110909F094
:103A500092CFE6CFD701ED2D1D92EA95E9F70E94AE
:103A60008BE9019609F4AACF6DE67EE083E194E04C
:103A70000F9476B6892B09F4A1CF0150110981F278
:103A800040916F115091701160917111709172118C
:103A90008091CA109091CB10A091CC10B091CD1014
:103AA00084179507A607B707A8F2BACF2DEC3CEC10
:103AB0004CE45DE3C701B6010F946CC018165CF0CE
:103AC000A7C02DEC3CEC4CE45DEBC701B6010F94B4
:103AD00008B787FF9DC040E050E067E18AE00F949F
:103AE000335F8090320290903302A0903402B09005
:103AF000350220E030E0A901C501B4010F946CC08B
:103B000018162CF520E030E048EC52E4C501B40171
:103B10000F94FEB10F942EBF0AE010E0CB01B80164
:103B20000F94CAC1F82EE92E20E030E040E251E4C3
:103B3000C501B4010F94FEB10F942EBFCB01B801A3
:103B40000F94CAC1082FD92EC501B4012AC024017F
:103B5000350177FA709477F8709420E030E048EC03
:103B600052E4C301B2010F94FEB10F942EBF0AE0DC
:103B700010E0CB01B8010F94CAC1F82EE92E20E065
:103B800030E040E251E4C301B2010F94FEB10F9462
:103B90002EBFCB01B8010F94CAC1082FD92EC30183
:103BA000B2010F942EBF162FC72E20E030E0A901DE
:103BB000C501B4010F9408B787FD03C08BEF93E0F4
:103BC00002C086EF93E0EF92FF92DF920F93CF92C5
:103BD0001F939F938F9388E797E09F938F938E0116
:103BE0000F5F1F4F1F930F930F94B8B6C8010E9429
:103BF000EEE7B80180E30E945EE62DB73EB7245F92
:103C00003F4F0FB6F8943EBF0FBE2DBF0C94F1731B
:103C10008091200F81114BC0CDB6DEB6809119087E
:103C200090911A080E94C2E1E1EDFEE0DF010D90E3
:103C30000020E9F78DB79EB78A1B9B0BAC0143535D
:103C4000514F0FB6F8945EBF0FBE4DBF0DB71EB7F4
:103C50000F5F1F4FFF93EF9381E797E09F938F9341
:103C60001F930F930F94B8B6780154E0E50EF11C42
:103C70000F900F900F900F900F900F90F701808191
:103C8000882349F0082E000C990B0F94F4C3D70138
:103C90008D937D01F3CFC8010F9469468DE697E0BF
:103CA0000F945E3A0FB6F894DEBE0FBECDBE0F94F1
:103CB0005088DC01CB0188539F4FAF4FBF4F80939B
:103CC000B0079093B107A093B207B093B3070C94D9
:103CD000F1730F9450880091B0071091B1072091B3
:103CE000B2073091B307601771078207930708F492
:103CF00054C08091D00E882309F44FC08091200FCA
:103D000081114BC0CDB6DEB68091190890911A088A
:103D10000E94C2E1E1EDFEE0DF010D900020E9F735
:103D20008DB79EB78A1B9B0B9C012353314F0FB657
:103D3000F8943EBF0FBE2DBF0DB71EB70F5F1F4FCC
:103D4000FF93EF9386E697E09F938F931F930F93D4
:103D50000F94B8B6780134E0E30EF11C0F900F9089
:103D60000F900F900F900F90F7018081882349F0FA
:103D7000082E000C990B0F94F4C3D7018D937D018D
:103D8000F3CFC8010F94694682E697E00F945E3A3C
:103D90000FB6F894DEBE0FBECDBE0F945088DC0186
:103DA000CB0188539F4FAF4FBF4F8093B007909385
:103DB000B107A093B207B093B3070C94F1730F94BB
:103DC00050880091B0071091B1072091B20730914F
:103DD000B307601771078207930710F40C94F1730F
:103DE00040E050E067E381E20F94335F40E050E051
:103DF00061E08BE10F94335F40E050E062E08AE0E5
:103E00000F94335F81E080931B0B809321080F9404
:103E10005088DC01CB0188539F4FAF4FBF4F809339
:103E2000B0079093B107A093B207B093B3070C9477
:103E3000F1730F9450880091B0071091B107209151
:103E4000B2073091B307601771078207930710F428
:103E50000C94F17381E0809323080F945088DC0167
:103E6000CB0188539F4FAF4FBF4F8093B0079093C4
:103E7000B107A093B207B093B3070C94F1730F94FA
:103E800050880091B0071091B1072091B20730918E
:103E9000B307601771078207930710F40C94F1734E
:103EA00081E0809322080F945088DC01CB01885375
:103EB0009F4FAF4FBF4F8093B0079093B107A09330
:103EC000B207B093B3070C94F1730F94508800912C
:103ED000B0071091B1072091B2073091B307601776
:103EE00071078207930710F40C94F17340E050E0DF
:103EF00062E18AE00F94335F0F945088DC01CB01BC
:103F000088539F4FAF4FBF4F8093B0079093B10737
:103F1000A093B207B093B3070C94F1730F94508839
:103F20000091B0071091B1072091B2073091B3070B
:103F3000601771078207930710F40C94F17340E047
:103F400050E06CE18AE00F94335F80E00F945B3ABD
:103F500010923508109234081092330881E0809353
:103F600086190F945088DC01CB0188539F4FAF4FC7
:103F7000BF4F8093B0079093B107A093B207B0935F
:103F8000B3070C94F1730F9450880091B00710910F
:103F9000B1072091B2073091B3076017710782070C
:103FA000930710F40C94F17310921B0B1092E61708
:103FB000E7E5F7E084918F01882351F0082E000C8B
:103FC000990B0F943C600F5F1F4FF8018491F4CF61
:103FD000109286190E943F9081E00F945B3A40E076
:103FE00050E065E08AE00F94335F0F945088DC0165
:103FF000CB0188539F4FAF4FBF4F8093B007909333
:10400000B107A093B207B093B3070C94F1738091FA
:10401000000B9091010B892B29F01092010B10924B
:10402000000B08C080910709909108099093010B3B
:104030008093000B109235080C94F1738091020B61
:104040009091030B892B29F01092030B1092020B15
:1040500008C080910509909106099093030B809305
:10406000020B109234080C94F1738091FA0A90912B
:10407000FB0A892B29F01092FB0A1092FA0A1CC045
:1040800080910309909104096091010970910209DE
:10409000681779072CF4BC01990F880B990B04C0A1
:1040A000072E000C880B990B0F940EB70F942EBFA0
:1040B0007093FB0A6093FA0A109233080C94F17320
:1040C0000F9450880091B0071091B1072091B2076A
:1040D0003091B307601771078207930710F40C94AF
:1040E000F17383E597E00F945E3A0F945088DC01FA
:1040F000CB0188539F4FAF4FBF4F8093B007909332
:10410000B107A093B207B093B3070C94F1730F9467
:1041100050880091B0071091B1072091B2073091FB
:10412000B307601771078207930710F40C94F173BB
:1041300040E050E06EE18AE00F94335F0F945088C6
:10414000DC01CB0188539F4FAF4FBF4F8093B00727
:104150009093B107A093B207B093B3070C94F17397
:104160000F9450880091B0071091B1072091B207C9
:104170003091B307601771078207930710F40C940E
:10418000F17340E050E065E08AE00F94335F1092F5
:104190001B0B1092E617E8E4F7E084918F01882367
:1041A00051F0082E000C990B0F943C600F5F1F4FCD
:1041B000F8018491F4CF1092861988E793E09093E8
:1041C0005602809355020F943A1F0F945088DC01D9
:1041D000CB0188539F4FAF4FBF4F8093B007909351
:1041E000B107A093B207B093B3070C94F1730F9487
:1041F00050880091B0071091B1072091B20730911B
:10420000B307601771078207930710F40C94F173DA
:104210000F945088DC01CB0188539F4FAF4FBF4FA5
:104220008093B0079093B107A093B207B093B30700
:1042300040E050E06AE18AE00F94335F0F948862B7
:104240008091D00E882311F40C94F1738091EC0AC4
:104250008093ED0A24ECE22E2AE0F22E38EDC32EF4
:104260003AE0D32E00E010E042E4842E47E0942EA2
:104270008091EC0A90E008171907ACF561ED7EE03B
:1042800088E49FE00F94E8535701D7018D919D91E9
:104290007D010E94C2E1F50180819181D6018D935B
:1042A0009D936D018091200F811118C0F4018491BC
:1042B00092E4A92E97E0B92E882359F0082E000C1D
:1042C000990B0F943C60FFEFAF1ABF0AF501849180
:1042D000F3CF8AE090E00F943C6002C00E943BE77D
:1042E0000F5F1F4FC5CF87E090E00F94785C0C9470
:1042F000F1730F9450880091B0071091B10720918D
:10430000B2073091B307601771078207930710F463
:104310000C94F1730F945088DC01CB0180579E4FB1
:10432000AF4FBF4F8093B0079093B107A093B207F0
:10433000B093B30780915502909156028036974012
:1043400041F488E793E090935602809355020F94CE
:104350003A1F40E050E068E08AE00F94335F81E468
:104360008093EA1780914F12882331F140E061E099
:1043700081E00F94D6140F94B7398091EA178E34E8
:1043800011F40C94F17381E00F945B3A1092EA17E8
:104390008FE397E00F945E3A0F94B7398091EA1754
:1043A0008E3411F40C94F17340E050E06BE08AE03D
:1043B0000F94335F0C94F17341E0D9CF0F94508880
:1043C0000091B0071091B1072091B2073091B30767
:1043D000601771078207930710F40C94F17340E0A3
:1043E00050E064E08AE00F94335F0F945088DC0162
:1043F000CB0188539F4FAF4FBF4F8093B00790932F
:10440000B107A093B207B093B3070C94F1730F9464
:1044100050880091B0071091B1072091B2073091F8
:10442000B307601771078207930710F40C94F173B8
:104430000F945088DC01CB0180579E4FAF4FBF4F88
:104440008093B0079093B107A093B207B093B307DE
:1044500040E050E064E28AE00F94335F81E08093B3
:10446000AD0789E48093EA171F921F9289E194E0D7
:104470009F938F938E010F5F1F4F1F930F930F9486
:1044800055C4B8018EE20E945EE660910709709102
:104490000809072E000C880B990B0F940EB700E04B
:1044A00010E028EC31E440E050E00F946E780F9477
:1044B0003A1F6EE174E084EC9DE00F946D7861E248
:1044C00074E084EC9DE00F946D786091EB02709144
:1044D000EC028091ED029091EE0242E050E00F94E8
:1044E000547865E274E084EC9DE00F946D782DEBD8
:1044F00037E346E05EE36091E3027091E40280916D
:10450000E5029091E6020F9482BE42E050E00F94E3
:10451000547869E274E084EC9DE00F946D782DEBA3
:1045200037E346E05EE36091DB027091DC0280914C
:10453000DD029091DE020F94FEB142E050E00F9454
:1045400054786091050970910609072E000C880BBC
:10455000990B0F940EB700E010E028EC31E441E035
:1045600050E00F946E780F943A1F6EE174E084EC83
:104570009DE00F946D7861E274E084EC9DE00F940F
:104580006D786091EF027091F0028091F10290914C
:10459000F20242E050E00F94547865E274E084EC5B
:1045A0009DE00F946D782DEB37E346E05EE360917C
:1045B000E7027091E8028091E9029091EA020F947B
:1045C00082BE42E050E00F94547869E274E084ECDB
:1045D0009DE00F946D782DEB37E346E05EE360914C
:1045E000DF027091E0028091E1029091E2020F946B
:1045F000FEB142E050E00F9454781092EA170E9406
:104600003F9040E050E06BE084E10F94335F40E086
:1046100050E065E18AE00F94335F84E480933F12B9
:104620008093EA170F900F900F900F900F900F90BC
:104630000C94F1730F9450880091B0071091B1075A
:104640002091B2073091B307601771078207930773
:1046500010F40C94F17310921B0B1092E617E4E324
:10466000F7E084918F01882351F0082E000C990BFC
:104670000F943C600F5F1F4FF8018491F4CF1092AC
:1046800086190E943F9040E050E065E08AE00F9478
:10469000335F0F945088DC01CB0188539F4FAF4F9D
:1046A000BF4F8093B0079093B107A093B207B09328
:1046B000B3070C94F1730F9450880091B0071091D8
:1046C000B1072091B2073091B307601771078207D5
:1046D000930710F40C94F17382E580930C0281E04F
:1046E0008093AC0740E050E06BE581E20F94335FCC
:1046F00040E050E06CE581E20F94335F40E050E031
:1047000060E08BE10F94335F40E050E06AE781E2C4
:104710000F94335F40E050E069E781E20F94335F2C
:1047200040E050E06DE18AE00F94335F8FEF8093BB
:10473000E4120F945088DC01CB0180579E4FAF4F9D
:10474000BF4F8093B0079093B107A093B207B09387
:10475000B3070C94F1730F9450880091B007109137
:10476000B1072091B2073091B30760177107820734
:10477000930710F40C94F17340E050E062E18AE09A
:104780000F94335F40E050E06BE581E20F94335FBC
:1047900040E050E06CE581E20F94335F40E050E090
:1047A00060E08BE10F94335F40E050E06AE781E224
:1047B0000F94335F40E050E069E781E20F94335F8C
:1047C0001092AC070F945088DC01CB0188539F4FA7
:1047D000AF4FBF4F8093B0079093B107A093B2073C
:1047E000B093B3070C94F1730F9450880091B00705
:1047F0001091B1072091B2073091B307601771078C
:104800008207930710F40C94F17310921B0B109213
:10481000E617E9E2F7E084918F01882351F0082E32
:10482000000C990B0F943C600F5F1F4FF8018491AF
:10483000F4CF1092861940E050E065E08AE00F94D2
:10484000335F40E050E06BE581E20F94335F40E07E
:1048500050E06CE581E20F94335F40E050E060E0AF
:104860008BE10F94335F40E050E06AE781E20F9400
:10487000335F40E050E069E781E20F94335F1092CC
:10488000AC070F945088DC01CB0188539F4FAF4F8A
:10489000BF4F8093B0079093B107A093B207B09336
:1048A000B3070C94F1730F9450880091B0071091E6
:1048B000B1072091B2073091B307601771078207E3
:1048C000930710F40C94F17341E050E06BE581E242
:1048D0000F94335F40E050E06CE581E20F94335F6A
:1048E00041E050E060E08BE10F94335F41E050E045
:1048F0006AE781E20F94335F41E050E069E781E2CB
:104900000F94335F1092E4120F945088DC01CB01B6
:1049100088539F4FAF4FBF4F8093B0079093B1071D
:10492000A093B207B093B3070C94F1730F9450881F
:104930000091B0071091B1072091B2073091B307F1
:10494000601771078207930710F40C94F17340E02D
:1049500050E06BE581E20F94335F41E050E06CE59D
:1049600081E20F94335F41E050E060E08BE10F940F
:10497000335F41E050E06AE781E20F94335F41E04A
:1049800050E069E781E20F94335F81E08093E412A5
:104990000F945088DC01CB0188539F4FAF4FBF4F1E
:1049A0008093B0079093B107A093B207B093B30779
:1049B0000C94F1730F9450880091B0071091B107D7
:1049C0002091B2073091B3076017710782079307F0
:1049D00010F40C94F1730F945088DC01CB018853D0
:1049E0009F4FAF4FBF4F8093B0079093B107A093F5
:1049F000B207B093B307809155029091560280366A
:104A0000974041F488E793E09093560280935502D3
:104A10000F943A1F0091E4120F3F11F40C94F173BC
:104A200001111DC08091FA079091FB0760918807E2
:104A300070918907681779072CF4BC01990F880BCE
:104A4000990B04C0072E000C880B990B0F940EB71E
:104A50000F942EBF7093010B6093000B20C08091C8
:104A6000FE079091FF07609186077091870768178E
:104A700079072CF4BC01990F880B990B04C0072E01
:104A8000000C880B990B0F940EB710E0000F111F4C
:104A90000050154F0F942EBFD8016D937C9381E089
:104AA0008093E81781E48093EA1740E050E068E0E3
:104AB0008AE00F94335F80914F12882311F040E019
:104AC00001C041E061E081E00F94D61480E090E005
:104AD000A3E4B3E48093401990934119A093421941
:104AE000B09343198090D0129090D112A090D2121E
:104AF000B090D31220913C1930913D1940913E194C
:104B000050913F19609138197091391980913A1973
:104B100090913B19EEE06E2EEBE07E2E7F926F922D
:104B2000F4E4CF2EF9E1DF2EE12CF12C03E413E4C1
:104B30000F94790280E090E0A0E2B1E480933C1908
:104B400090933D19A0933E19B0933F198090CC12D9
:104B50009090CD12A090CE12B090CF12E09040195C
:104B6000F090411900914219109143196091381940
:104B70007091391980913A1990913B197F926F92F7
:104B800020E030E040E251E40F9479020F94B7390D
:104B90000F900F900F900F908091EA178E3411F4C0
:104BA0000C94F1731092EA170E943F9061E074E058
:104BB0008DE20E945EE640E050E068E28AE00F94F9
:104BC000335F0091E41210E0F801EE0FFF1FEE0FCB
:104BD000FF1FE156F64E60817181828193810F94AF
:104BE0002EBF70932C0860932B08000F111FF80143
:104BF000E050F54F8081918190932A088093290895
:104C000088E48093EA170E943F9064EF71E080E0AF
:104C100090E00F94188881E080932D080C94F17334
:104C20000F9450880091B0071091B1072091B207FE
:104C30003091B307601771078207930710F40C9443
:104C4000F1730F945088DC01CB0188539F4FAF4F15
:104C5000BF4F8093B0079093B107A093B207B09372
:104C6000B30780915502909156028036974041F4E7
:104C700088E793E090935602809355020F943A1F71
:104C8000E091E412EF3F11F40C94F17381E0809312
:104C9000E817F0E0EE0FFF1FE050F54F84E091E0E1
:104CA0009183808381E48093EA1740E050E068E0DC
:104CB0008AE00F94335F80914F12882311F040E017
:104CC00001C041E061E081E00F94D6140F94B73940
:104CD0008091EA178E3411F40C94F17380E090E027
:104CE000A3E4B3E48093401990934119A09342192F
:104CF000B09343198090D0129090D112A090D2120C
:104D0000B090D31220913C1930913D1940913E1939
:104D100050913F19609138197091391980913A1961
:104D200090913B19EEE06E2EEBE07E2E7F926F921B
:104D3000F4E4CF2EF9E1DF2EE12CF12C03E413E4AF
:104D40000F9479020F94B7390F900F908091EA1762
:104D50008E3411F40C94F17380E090E0A0E2B1E4A1
:104D600080933C1990933D19A0933E19B0933F193D
:104D70008090CC129090CD12A090CE12B090CF1215
:104D8000E0904019F0904119009142191091431997
:104D9000609138197091391980913A1990913B19A5
:104DA0007F926F9220E030E040E251E40F9479026C
:104DB0000F94B7390F900F908091EA178E3411F449
:104DC0000C94F1738091E412811103C080E090E0B3
:104DD00002C081E090E00E947DDE80E090E0AFE7DD
:104DE000B3E48093381990933919A0933A19B0938A
:104DF0003B19E0904019F09041190091421910912F
:104E0000431920913C1930913D1940913E19509120
:104E10003F1984EE92E19F938F93812C60E8962E48
:104E20006BE3A62E66E4B62E74E4C72E79E1D72E86
:104E300060E070E08FE793E40F9479020F94B73944
:104E40000F900F908091EA178E3411F40C94F17347
:104E50001092EA170E943F9040E050E065E28AE03D
:104E60000F94335F0C94F1730F9450880091B00746
:104E70001091B1072091B2073091B3076017710705
:104E80008207930710F40C94F17381E08093270854
:104E90001092250810922608109228080F94508826
:104EA000DC01CB0186509F4FAF4FBF4F8093B007BF
:104EB0009093B107A093B207B093B3070C94F1732A
:104EC0000F9450880091B0071091B1072091B2075C
:104ED0003091B307601771078207930710F40C94A1
:104EE000F1731092270881E080932508109226081C
:104EF000109228080F945088DC01CB0186509F4FF8
:104F0000AF4FBF4F8093B0079093B107A093B20704
:104F1000B093B3070C94F1730F9450880091B007CD
:104F20001091B1072091B2073091B3076017710754
:104F30008207930710F40C94F173109227081092D3
:104F4000250881E080932608109228080F94508845
:104F5000DC01CB0186509F4FAF4FBF4F8093B0070E
:104F60009093B107A093B207B093B3070C94F17379
:104F70000F9450880091B0071091B1072091B207AB
:104F80003091B307601771078207930710F40C94F0
:104F9000F17310922708109225081092260881E0DC
:104FA000809328080F945088DC01CB0186509F4FD6
:104FB000AF4FBF4F8093B0079093B107A093B20754
:104FC000B093B3070C94F1730F9450880091B0071D
:104FD0001091B1072091B2073091B30760177107A4
:104FE0008207930710F40C94F1738FEF80930D02F6
:104FF0000E943F9040E050E062E18AE00F94335F0E
:105000000F945088DC01CB0188539F4FAF4FBF4FA7
:105010008093B0079093B107A093B207B093B30702
:105020000C94F1730F9450880091B0071091B10760
:105030002091B2073091B307601771078207930779
:1050400010F40C94F1738FEF80930D020E943F9047
:1050500040E050E062E18AE00F94335F0F945088A3
:10506000DC01CB0188539F4FAF4FBF4F8093B007F8
:105070009093B107A093B207B093B3070C94F17368
:105080000F9450880091B0071091B1072091B2079A
:105090003091B307601771078207930710F40C94DF
:1050A000F17341E050E06CE981E20F94335F41E03D
:1050B00050E06DE981E20F94335F20918A023091D4
:1050C0008B028E010F5F1F4F8091000B9091010B9F
:1050D00010928B0210928A022130310509F052C0E1
:1050E000892B41F480910709909108099093010B55
:1050F0008093000B41E050E06AE981E20F94335F56
:1051000040E050E06BE981E20F94335F1F9240EB87
:10511000F42EFF928091010B8F938091000B8F935F
:1051200084E094E09F938F931F930F930F9455C443
:10513000B80185E00E945EE6C8010E94EEE71F927A
:10514000FF9260919F197091A0198091A11990917F
:10515000A2190F942EBF7F936F9381E297E09F93E4
:105160008F931F930F930F94B8B6B8018AE00E94F3
:105170005EE6EDB7FEB770960FB6F894FEBF0FBEB1
:10518000EDBF4FC0892B41F4809107099091080928
:105190009093010B8093000B41E050E06AE981E2BB
:1051A0000F94335F40E050E06BE981E20F94335F8E
:1051B0001F9230EBF32EFF928091010B8F93809121
:1051C000000B8F9384E094E09F938F931F930F9332
:1051D0000F9455C4B80185E00E945EE61F92FF92CD
:1051E00060919F197091A0198091A1199091A219B5
:1051F0000F942EBF7F936F9389E197E09F938F93D6
:105200001F930F930F94B8B6B8018AE00E945EE630
:105210002DB73EB7205F3F4F0FB6F8943EBF0FBE8D
:105220002DBF0F945088DC01CB0188539F4FAF4FA7
:10523000BF4F8093B0079093B107A093B207B0938C
:10524000B3070C94F1730F9450880091B00710913C
:10525000B1072091B2073091B30760177107820739
:10526000930710F40C94F17341E050E06CE981E293
:105270000F94335F41E050E06DE981E20F94335FBA
:1052800020918A0230918B028E010F5F1F4F809117
:10529000020B9091030B232B09F059C021E030E061
:1052A00030938B0220938A02892B41F48091050967
:1052B000909106099093030B8093020B40E050E01D
:1052C0006AE981E20F94335F41E050E06BE981E2EB
:1052D0000F94335F1F9220EBF22EFF928091030B0D
:1052E0008F938091020B8F9381E197E09F938F932F
:1052F0001F930F930F94B8B6B80185E00E945EE645
:10530000C8010E94EEE71F92FF926091A31970916D
:10531000A4198091A5199091A6190F942EBF7F937F
:105320006F9389E097E09F938F931F930F930F9450
:10533000B8B6B80181E10E945EE64DB75EB7405F46
:105340005F4F0FB6F8945EBF0FBE4DBF54C021E053
:1053500030E030938B0220938A02892B41F48091B4
:105360000509909106099093030B8093020B40E08E
:1053700050E06AE981E20F94335F41E050E06BE96D
:1053800081E20F94335F1F9290EBF92EFF92809190
:10539000030B8F938091020B8F9381E097E09F9393
:1053A0008F931F930F930F94B8B6B80185E00E94B6
:1053B0005EE61F92FF926091A3197091A4198091EB
:1053C000A5199091A6190F942EBF7F936F9389EF23
:1053D00096E09F938F931F930F930F94B8B6B801E5
:1053E00081E10E945EE68DB79EB740960FB6F894B5
:1053F0009EBF0FBE8DBF0F945088DC01CB01885338
:105400009F4FAF4FBF4F8093B0079093B107A093CA
:10541000B207B093B3070C94F173E0918A02F09154
:105420008B02EF3F9FEFF90711F40C94F173EE0F2D
:10543000FF1FE050F54F808191818B33A1E09A07E7
:1054400014F00C94F1730596918380831F9220EBE6
:105450002F939F938F9381EF96E09F938F938E016D
:105460000F5F1F4F1F930F930F94B8B6B80185E0DD
:105470000E945EE6EDB7FEB738960FB6F894FEBF11
:105480000FBEEDBF0C94F173E0918A02F0918B0294
:10549000EF3F2FEFF20711F40C94F173EE0FFF1FA3
:1054A000E050F54F808191811816190614F00C9484
:1054B000F1730597918380831F9220EB2F939F9325
:1054C0008F9389EE96E09F938F938E010F5F1F4F0E
:1054D0001F930F930F94B8B6B80185E00E945EE663
:1054E0004DB75EB7485F5F4F0FB6F8945EBF0FBE13
:1054F0004DBF0C94F17380918A0290918B020196BA
:1055000011F40C94F173909100098091FF089813A5
:105510000C945A6181E0809332080C94F17380916D
:105520008A0290918B02019611F40C94F173909180
:1055300000098091FF0898130C945A610C945E61E5
:105540000F9450880091B0071091B1072091B207D5
:105550003091B307601771078207930710F40C941A
:10556000F17381E080932E0840E050E068E981E229
:105570000F94335F40E050E067E981E20F94335FBE
:1055800040E050E06CE981E20F94335F40E050E08E
:105590006DE981E20F94335F40E050E067E881E21B
:1055A0000F94335F40E050E06CE28AE00F94335F89
:1055B0008FEF9FEF90938B0280938A02E9EDF6E0E4
:1055C00084918F01882351F0082E000C990B0F94C1
:1055D0003C600F5F1F4FF8018491F4CF40E050E032
:1055E0006AE981E20F94335F40E050E06BE981E2C9
:1055F0000F94335F1F9210EBF12EFF9260919F1971
:105600007091A0198091A1199091A2190F942EBFA9
:105610007F936F9381ED96E09F938F938E010F5F41
:105620001F4F1F930F930F94B8B6B8018AE00E94E2
:105630005EE6C8010E94EEE71F92FF926091A319F7
:105640007091A4198091A5199091A6190F942EBF5D
:105650007F936F9389EC96E09F938F931F930F93A3
:105660000F94B8B6B80181E10E945EE6C8010E94BD
:10567000EEE71F92FF921F921F9281EC96E09F939C
:105680008F931F930F930F94B8B6B80185E00E94D3
:105690005EE6C8010E94EEE70F945088DC01CB0162
:1056A00088539F4FAF4FBF4F8093B0079093B10780
:1056B000A093B207B093B3072DB73EB7285E3F4F14
:1056C0000FB6F8943EBF0FBE2DBF0C94F1730F942C
:1056D00050880091B0071091B1072091B207309126
:1056E000B307601771078207930710F40C94F173E6
:1056F00010922E080F94743981E00F945B3A0E9447
:105700003F9040E050E066E08AE00F94335F0F94F2
:105710005088DC01CB0188539F4FAF4FBF4F809320
:10572000B0079093B107A093B207B093B3070C945E
:10573000F1730F9450880091B0071091B107209138
:10574000B2073091B307601771078207930710F40F
:105750000C94F17310922E080F94743910921B0B55
:105760001092E61710928619E6EBF6E084918F010D
:10577000882351F0082E000C990B0F943C600F5FAA
:105780001F4FF8018491F4CF81E00F945B3A0E949F
:105790003F9040E050E065E08AE00F94335F0F9463
:1057A0005088DC01CB0188539F4FAF4FBF4F809390
:1057B000B0079093B107A093B207B093B3070C94CE
:1057C000F1730F9450880091B0071091B1072091A8
:1057D000B2073091B307601771078207930710F47F
:1057E0000C94F1731092AB0740E050E064E08AE063
:1057F0000F94335F0F945088DC01CB0188539F4F87
:10580000AF4FBF4F8093B0079093B107A093B207FB
:10581000B093B3070C94F1730F9450880091B007C4
:105820001091B1072091B2073091B307601771074B
:105830008207930710F40C94F17382E580930C02B5
:105840008FEF8093E41240E050E066E18AE00F942D
:10585000335F0F945088DC01CB0188539F4FAF4FCB
:10586000BF4F8093B0079093B107A093B207B09356
:10587000B3070C94F1730F9450880091B007109106
:10588000B1072091B2073091B30760177107820703
:10589000930710F40C94F17389E480930C0240E0B8
:1058A00050E06CE481E20F94335F40E050E06BE441
:1058B00081E20F94335F40E050E061E481E20F94B5
:1058C000335F40E050E066E481E20F94335F40E0F4
:1058D00050E06EE481E20F94335F40E050E06FE40B
:1058E00081E20F94335F40E050E064E18AE00F947E
:1058F000335F8FEF8093E4120F945088DC01CB016B
:1059000088539F4FAF4FBF4F8093B0079093B1071D
:10591000A093B207B093B3070C94F1730F9450881F
:10592000C090B007D090B107E090B207F090B307F5
:105930006C157D058E059F0510F40C94F1730F9482
:105940005088DC01CB0188539F4FAF4FBF4F8093EE
:10595000B0079093B107A093B207B093B3071A357D
:1059600019F41092E41203C081E08093E4120091D4
:10597000E41201111DC08091FA079091FB0760911C
:10598000880770918907681779072CF4BC01990F73
:10599000880B990B04C0072E000C880B990B0F94F1
:1059A0000EB70F942EBF7093010B6093000B20C0B5
:1059B0008091FE079091FF0760918607709187079D
:1059C000681779072CF4BC01990F880B990B04C058
:1059D000072E000C880B990B0F940EB710E0000FE8
:1059E000111F0050154F0F942EBFD8016D937C935B
:1059F00081E48093EA1740E050E068E08AE00F9489
:105A0000335F80914F12882311F040E001C041E0E4
:105A100061E081E00F94D61480E090E0A3E4B3E469
:105A20008093401990934119A0934219B093431960
:105A30008090D0129090D112A090D212B090D31238
:105A400020913C1930913D1940913E1950913F19D8
:105A5000609138197091391980913A1990913B19D8
:105A6000EEE06E2EEBE07E2E7F926F92F4E4CF2E6E
:105A7000F9E1DF2EE12CF12C03E413E40F94790219
:105A800080E090E0A0E2B1E480933C1990933D194E
:105A9000A0933E19B0933F198090CC129090CD12F4
:105AA000A090CE12B090CF12E0904019F090411922
:105AB0000091421910914319609138197091391968
:105AC00080913A1990913B197F926F9220E030E0DB
:105AD00040E251E40F9479020F94B7390F900F9080
