:100000000C9402170C9433170C9433170C94331779
:100010000C9433170C9433170C9433170C94331738
:100020000C9433170C9433170C9433170C94331728
:100030000C9433170C9433170C9433170D944F050D
:100040000C9433170C9433170C9433170C94331708
:100050000C9433170C9433170D94023F0C947BDFF0
:100060000C9433170C94A9DD0C9480DD0C94331799
:100070000C9433170C9433170C9433170C943317D8
:100080000C94EBE00C9433170C9433170C94331747
:100090000C9433170C9433170C9433170C943317B8
:1000A0000C9433170C9433170C9433170C943317A8
:1000B0000C9433170C9433170C9433170C94331798
:1000C0000C9433170C9433170C9433170C944BDDAA
:1000D0000C9422DD0C9433170C9433170C943317C3
:1000E0000C9433175F5AE65CB62F7A2D0458992882
:1000F000C05BAF28E65CE65CE65CEE288B28E65C3D
:10010000E725DC25E65C9A39E65CE65CE65CCB5BE1
:1001100057406D40834099403141AF40E95B4940D1
:100120000F43665AE739D839C540D940E65CA42860
:100130005D268B285A2DD23B722D7D5BD24E6A2DC7
:10014000622D9E5BFB59E65CA82F765BE65C793CF2
:10015000B7280826F225E65CE65CC829033AE65C87
:100160004B5B1F5B3648B3313328474CF436F639C6
:10017000B731E65CBC5A755A742F5E305E303A3047
:10018000BB31BF32662B07292029FA2F1C30D1251D
:10019000FD25E65CE65C8B28EE2FDA2BFC2B4D2947
:1001A000773B573BE65CCF567A57E859E65CE95B0C
:1001B000E95B48591C59F058C45840586C58985835
:1001C000315A4D5793431D4309441A467345FD4424
:1001D000E65CE65C04581F2C382CEE2FF256E05BF0
:1001E000E65CE65C3C5BEF40264B1247E65C3C2657
:1001F000005505411B41E65C7541E65CAC3AA43A0A
:10020000E65CE65C2235E65CE65CE65C49359B35FF
:100210008635F32EDD2EB43A832D002E842EB12E9A
:100220004C53042F964771352A47E65CE65CE65C42
:10023000E65CE65CE65CE65CE65CE65C53295B2932
:100240008129E65CE65C404754473648264B324BF2
:10025000374CE65C454FA94FD84E2C4F4E4DE65CCF
:10026000E65C6B4DE65C81519F389239C5516A4717
:10027000E65C53509D50E95035514B508047E65C49
:1002800009520B537F54A255E65C3554E945E945C4
:1002900090549133FD2ABE4E574D774D494E514EE5
:1002A0008B28C64EE65CE65CE65CE65CE65CE65CFB
:1002B0006439E65CE65CF557285AE65CE65CE65C89
:1002C000E65CE65CE65CE65CE65C6656B956E65CD7
:1002D000E65CE65CE65CE65CE65CE65CE65CE65C0E
:1002E000E65CE65CE65CE65CE65CE65CE65CE65CFE
:1002F000E65CE65CE65CE65CE65CE65CE65CE65CEE
:10030000E65CE65CE65CE65CE65CE65CE65CE65CDD
:10031000E65CE65CE65CE65CE65CE65CE65CE65CCD
:10032000E65CE65CE65CE65CE65CE65CE65CE65CBD
:10033000E65CE65CE65CE65CE65CE65C0B40CD3FDA
:10034000D1429342E65CF845E65CE65CF6392D2B3B
:1003500083424941F6394941E65C5F415F41052BE3
:10036000595B525B685B6F5BC857CD57D257D75705
:10037000355B265BE157E657EB57F057DC57C35721
:10038000D74AF64A7A2D172A0D2BE65C535A375373
:10039000CB28992BE65CE65C46570950E65CE65CA8
:1003A000E65C9B55E65CF256E65CE65CE65C143087
:1003B0006E2B4453632F6334E65CDD4FE65C94554B
:1003C000E65CE65CE65CE65CE65C9B2FB14AC44A10
:1003D000535A315A27360937C94F243B0D371F2A44
:1003E000D23B2F36274E9738D137A254F354E65CD0
:1003F000033AC94F8648E95BBC3A352BD14FE95BDC
:10040000C2DCC5DCB4DCB8DCBEDCFCDCC9DCCDDCC9
:10041000D3DCD7DCDBDCE1DCE5DCE9DCFCDCEFDCDD
:10042000F3DCF7DC97DE9CDEA1DEABDEB5DE2EDF93
:10043000BFDEC7DECFDED9DEE3DEEDDEFCDE06DFCB
:100440002EDF10DF1ADF24DF6702730277028902D2
:100450008302890269026D02AB029B02A10285023E
:100460007502A502A3026F027F028D02AD02910206
:100470009302790297028B02A7027B029902810202
:100480009D02084AD73B3BCE016E84BCBFFDC12F05
:100490003D6C74319ABD56833DDA3D00C77F11BE75
:1004A000D9E4BB4C3E916BAAAABE000000803F0578
:1004B000A84CCDB2D44EB93836A9020C50B99186A9
:1004C00088083CA6AAAA2ABE000000803F000D941E
:1004D000910F0D948A100D945E010D94A2100D944D
:1004E000CD0F0D9490610D940B100D949D110D94F2
:1004F000F0100D94C23F0D9405400D9497C70D94D4
:100500006C100D9409400D942F100D947F110D94D3
:1005100059810D94CB100D94E93F0D94BB110D94AE
:10052000DFA70D94993F0D94B53F0D94F6B40D944B
:10053000DC3F0D9407400D9425120D9411400D944D
:1005400091610D9461110D94ED0F0D94F6110D94C0
:1005500003400D9483810D94AF0F0D948C3F4E4159
:100560004E494E495459494E46CDCCCC3D0AD7232D
:100570003C17B7D13877CC2B329595E6241FB14F75
:100580000A000020410000C84200401C4620BCBEBA
:100590004CCA1B0E5AAEC59D746364696E6F70734E
:1005A0007578585B003B4C415945523A2564003BF5
:1005B000202020757365526166742C2564004D36C9
:1005C0003035205325640043616C63756C75733A54
:1005D00020200043616C63756C75733A20200043E2
:1005E000616C63756C75733A20200053757266698F
:1005F0006E6720300A00417420426F74746F6D2062
:10060000537469636B657200253033642E25303373
:1006100064253033642E2530346400417420426FE9
:1006200074746F6D20537469636B65720025303389
:10063000642E25303364253033642E253034640035
:1006400053757266696E6720300A00473238205849
:1006500030205930005430005431005430005430B0
:100660000053757266696E6720300A0047343300A4
:1006700047343100473430004733340047343300C7
:100680004734330047343100473430004D383400AC
:100690004D3834004D3834005A32204F6666736549
:1006A000743A20004F4B207365636F6E6420457869
:1006B000747275646572210A005A20706F736974D0
:1006C000696F6E3A20005A20706F736974696F6E9B
:1006D0003A20004D3834005A312050726F62652044
:1006E0006F66667365743A20004F4B2066697273BB
:1006F0007420457874727564657221200A005A204E
:10070000706F736974696F6E3A20005A20706F734E
:100710006974696F6E3A200043616C63756C757320
:100720003A20200043616C63756C75733A20200099
:1007300043616C63756C75733A20200043616C6390
:10074000756C75733A2020003630206465677265D9
:100750006573200A00543000543000543000436167
:100760006C6962726174696F6E205375636365733F
:100770007366756C0A005430004A756D70206F7690
:1007800065722073637265773120616E64207363D4
:1007900072657732200A004A756D70206F76657237
:1007A00020736372657731200A0047333400473382
:1007B00034004733340054300047333400537572EB
:1007C00066696E6720300A0053757266696E67202D
:1007D000300A0053757266696E6720300A005375DF
:1007E0007266696E6720300A0053757266696E67BB
:1007F00020300A0054300053757266696E672030ED
:100800000A004D33340053757266696E6720300AF2
:10081000004D3234004D3233202573004D32340008
:100820004D32332025730077696C6C20626520643B
:100830006973746F727465642062792025642E2553
:100840003164253164206D6D2E0054686520666921
:10085000727374206C61796572207072696E746550
:100860006420776974682074686520257320686F38
:1008700074656E640053757266696E6720300A0095
:1008800053757266696E6720300A00537572666927
:100890006E6720300A00526561647920746F2053BE
:1008A000746172740A002564206B6D2E0067636F9B
:1008B000646520666F756E640A0020746F2053743F
:1008C00061727420446973706C61792066726F6D17
:1008D00020526573657400546F6F6B2000646973F8
:1008E000706C6179206F6E6C696E6521002E00203E
:1008F00053544F50205052494E54200A004732382A
:10090000205830205930004D3335004737300052E1
:100910004553554D450A0050415553450A004D3841
:100920003420582059205A2045004D31303700548A
:1009300030005374617274696E67205A2043616C91
:100940006962726174696F6E2057697A6172640AB4
:10095000000A00205A3A200020593A200020583A34
:10096000200042656400456E642066696C65206CF9
:100970006973740A00426567696E2066696C652058
:100980006C6973740A002F005344207072696E748E
:10099000696E67206279746520004E6F742053443D
:1009A000207072696E74696E670A002569206D692E
:1009B0006E2C20256920736563006F6B00464952D9
:1009C0004D574152455F4E414D453A4D61726C69FC
:1009D0006E2042434E3344205369676D61783B205B
:1009E0004649524D574152455F56455253494F4E25
:1009F0003A30322D322E302E333B204649524D575D
:100A00004152455F55524C3A68747470733A2F2FB7
:100A10006769746875622E636F6D2F42434E33446D
:100A20002F42434E33445369676D61782D46697296
:100A30006D776172653B2050524F544F434F4C5F6E
:100A400056455253494F4E3A312E303B204D41438B
:100A500048494E455F545950453A42434E3344202D
:100A60005369676D61783B2045585452554445524F
:100A70005F434F554E543A323B20555549443A0056
:100A800053544154495354494353205245534554B8
:100A90000A004D6F64652032203A206379636C65EB
:100AA0002020202D3E205247423A20362073746188
:100AB000746573002A2A2D3E20004D6F6465203135
:100AC000203A2072616E646F6D20202D3E205247C7
:100AD000423A202B31202B32202B332C206475728C
:100AE000696E67207072696E74696E67002A2A2DBC
:100AF0003E20004D6F64652030203A2064656661B9
:100B0000756C74202D3E205247423A2032353520F4
:100B100032353520323535002A2A2D3E20004C65ED
:100B200064206D6F646573203A004D353336204C78
:100B30005B6D6F64655D00504F534954494F4E20C3
:100B4000484F4D453A2000220A00556E6B6E6F7774
:100B50006E20636F6D6D616E643A2022000A002082
:100B60007A3A200020793A200020783A2000426525
:100B7000640045787472756465722072656C656195
:100B8000736564206163746976653A20005A205366
:100B900049474D4120486F6D65640A00457874727D
:100BA00075646572206163746976653A20004D381A
:100BB00034005374617274696E6720582043616C0D
:100BC0006962726174696F6E2057697A6172640A32
:100BD000004D3834005374617274696E6720592077
:100BE00043616C6962726174696F6E2057697A61E2
:100BF00072640A0045787472756465722048656194
:100C00007465640A0020573A00204500205A0020ED
:100C10005900483D5800205A3A0020593A002043D4
:100C20006F756E7420583A200020453A00205A3AD9
:100C30000020593A00583A007A5F6D696E3A2000F8
:100C4000795F6D61783A2000785F6D61783A2000B5
:100C5000785F6D696E3A2000486F74656E64206F2E
:100C60006666736574733A00504944204175746F29
:100C700074756E652066696E6973686564212050BD
:100C8000757420746865206C617374204B702C201F
:100C90004B6920616E64204B6420636F6E737461D6
:100CA0006E74732066726F6D2061626F7665206965
:100CB0006E746F20436F6E66696775726174696FD9
:100CC0006E2E680A00504944204175746F74756E29
:100CD00065206661696C6564212074696D656F7556
:100CE000740A0020403A006F6B20543A006F6B206A
:100CF000423A00504944204175746F74756E652006
:100D00006661696C6564212054656D7065726174FB
:100D100075726520746F6F20686967680A00204BE0
:100D2000643A2000204B693A2000204B703A2000A2
:100D300020436C617373696320504944200A00208A
:100D400054753A2000204B753A2000206D61783AA6
:100D50002000206D696E3A200020643A2000206255
:100D60006961733A2000436F6F6C696E6720446F4E
:100D7000776E204865617465720A005072696E74FE
:100D800065722068616C7465642E206B696C6C28D8
:100D9000292063616C6C6564210A004572726F7270
:100DA0003A006C61796572206865696768743A20F9
:100DB0000045787472756465722072656C65617344
:100DC0006564206163746976653A20005A2053494E
:100DD000474D4120486F6D65640A0045787472750F
:100DE000646572206163746976653A2000000000D2
:100DF0000000809343000000000000A0400000A01D
:100E0000400000004020004D6F766520746F3A204E
:100E100000CDAC03440080934300005243FF01FF28
:100E200020636F6C6420657874727573696F6E20CF
:100E300070726576656E7465640A006563686F3A02
:100E40000000002100240027002A002D003000337C
:100E50000001010000040107010A01000022002531
:100E60000028002B002E0031003400020100000594
:100E70000108010B01000020002300260029002C9E
:100E8000002F0032000001000003010601090105E6
:100E9000050505070508080808020202020A0A08F3
:100EA0000804040404010101010101010103030319
:100EB0000303030303040707070C0C0C0C0C0C0CB6
:100EC0000C0202020206060606060606060B0B0BBD
:100ED0000B0B0B0B0B0102102020080810204010F8
:100EE00020408002010201080402010102040810EE
:100EF000204080804020100804020180040201800C
:100F00004020100804020108040201010204081034
:100F1000204080010204081020408000000A0B02DB
:100F2000090C0D0E0807030401000000000000007A
:100F300000000000000000000000000000000000B1
:100F4000000000000000001211100000000000006E
:100F50000000000000000000000000000000000091
:100F600000646973706C6179206F66666C696E6588
:100F70000042434E3344205369676D61780A007321
:100F8000746172740A006563686F3A0030322D3202
:100F90002E302E330A006572726F72207772697478
:100FA000696E6720746F2066696C650A00205A3A82
:100FB0000020593A0020583A00656E6473746F70CF
:100FC00073206869743A20006563686F3A00446F63
:100FD0006E6520736176696E672066696C652E0A9E
:100FE000006F6B0A004D32390024F4D43050C38EA8
:100FF00020C2A24017828B7011127A910D816CD998
:101000000AA861E108C7586607615143061E4B5D97
:1010100005C145A7041A411104093D9803713931EE
:10102000034036DB0265339102D4305402802E1D1A
:1010300002632CEE01752AC501B028A0011027819A
:10104000018F2564012B244B01E0223401AC211FC8
:10105000018D200D01801FFC00841EED00971DDF17
:1010600000B81CD200E61BC600201BBC00641AB2EC
:1010700000B219A8000A19A0006A189900D11791A6
:101080000040178B00B516840031167E00B3157929
:10109000003A157300C7146F0058146A00EE136607
:1010A000008813630025135E00C7125B006C1257A3
:1010B0000015125400C111510070114F0021114B45
:1010C00000D61049008D104700461044000210421F
:1010D00000C00F4000800F3E00420F3C00060F3B57
:1010E00000CB0E3800930E37005C0E3500270E340F
:1010F00000F30D3200C10D3100900D3000600D2E57
:1011000000320D2D00050D2C00D90C2B00AE0C2942
:1011100000850C29005C0C2700350C27000E0C26DE
:1011200000E80B2400C40B2400A00B23007D0B233C
:10113000005A0B2100390B2100180B2000F80A1F60
:1011400000D90A1E00BB0A1E009D0A1D00800A1D50
:1011500000630A1C00470A1B002C0A1B00110A1A14
:1011600000F7091A00DD091900C4091900AB0919B3
:1011700000920917007B091800630917004C091633
:101180000036091600200916000A091500F5081591
:1011900000E0081400CC081400B8081400A40814D7
:1011A00000900813007D0812006B08130058081205
:1011B000004608120034081100230811001208111B
:1011C0000001081100F0071000E0071000D0071020
:1011D00000C0071000B0070F00A107100091070E14
:1011E0000083070F0074070F0065070E0057070EF6
:1011F0000049070E003B070D002E070E0020070DCB
:101200000013070D0006070D00F9060C00ED060D92
:1012100000E0060C00D4060C00C8060C00BC060C4E
:1012200000B0060C00A4060B0099060C008D060BFE
:101230000082060B0077060B006C060B0061060AA5
:101240000057060B004C060A0042060A0038060A40
:10125000002E060A0024060A001A060A00100609D3
:101260000007060A00FD050900F4050900EB050961
:1012700000E2050900D9050900D0050900C70509E4
:1012800000BE050900B5050800AD050800A5050963
:10129000009C050800940508008C050800840508DA
:1012A000007C050800740508006C0507006505084A
:1012B000005D050700560508004E050700470507B5
:1012C000004005080038050700310507002A05071A
:1012D00000230507001C050600160507000F05077B
:1012E000000805060002050700FB040600F50407D8
:1012F00000EE040600E8040600E2040700DB040632
:1013000000D5040600CF040600C9040600C3040685
:1013100000BD040600B7040600B1040500AC0406D5
:1013200000A6040600A00405009B04060095040521
:1013300000900406008A0405008504050080040668
:10134000007A04050075040500700405006B0405AF
:101350000066040500610405005C040500570405EF
:1013600000520405004D040500480405004304052F
:10137000003E0404003A040500350405003004046E
:10138000002C04050027040400230405001E0404A7
:10139000001A04040016040500110404000D0404DE
:1013A00000090405000404040000040400FC030414
:1013B00000F8030400F4030400F0030400EC030449
:1013C00000E8030400E4030400E0030400DC030479
:1013D00000D8030400D4030400D0030400CC0304A9
:1013E00000C8030300C503030024F404D9201BC470
:1013F0000C5C0E9804C4095F0265077101F405F9DD
:1014000000FB04B30048048700C10369005803557A
:101410000003034500BE023A008402310053022A51
:10142000002902250004022000E4011C00C8011963
:1014300000AF01170098011400840113007101101E
:10144000006101100051010E0043010D0036010B37
:10145000002B010B0020010B00150109000C0109F4
:101460000003010800FB000800F3000800EB000780
:1014700000E4000600DE000600D8000600D20006E8
:1014800000CC000500C7000500C2000500BD000437
:1014900000B9000400B5000400B1000400AD000470
:1014A00000A9000400A5000300A20003009F00049F
:1014B000009B0003009800030095000200930003C6
:1014C00000900003008D0002008B000300880002E2
:1014D000008600020084000300810002007F0002F9
:1014E000007D0002007B000200790002007700010D
:1014F0000076000200740002007200010071000218
:10150000006F0002006D0001006C0002006A000123
:10151000006900020067000100660001006500012B
:10152000006400020062000100610001006000012F
:10153000005F0002005D0001005C0001005B000133
:10154000005A000100590001005800010057000135
:101550000056000100550001005400010053000036
:101560000053000100520001005100010050000131
:10157000004F0001004E0000004E0001004D000130
:10158000004C0001004B0000004B0001004A00012C
:101590000049000100480000004800010047000128
:1015A0000046000000460001004500000045000123
:1015B000004400010043000000430001004200001D
:1015C0000042000100410000004100010040000114
:1015D000003F0000003F0001003E0000003E00010F
:1015E000003D0000003D0001003C0000003C000008
:1015F000003C0001003B0000003B0001003A0000FD
:10160000003A0001003900000039000100380000F4
:1016100000380000003800010037000000370001EA
:1016200000360000003600000036000100350000E2
:1016300000350000003500010034000000340000D7
:1016400000340001003300000033000000330001CB
:1016500000320000003200000032000100310000C2
:1016600000310000003100010030000000300000B7
:1016700000300001002F0000002F0000002F0000AC
:10168000002F0001002E0000002E0000002E00019F
:10169000002D0000002D0000002D0000002D000195
:1016A000002C0000002C0000002C0000002C000189
:1016B000002B0000002B0000002B0000002B00017D
:1016C000002A0000002A0000002A0000002A000171
:1016D0000029000000290000002900000029000066
:1016E0000029000100280000002800000028000058
:1016F000002800000028000100270000002700004B
:10170000002700000027000000270001002600003D
:101710000026000000260000002600000026000130
:101720000025000000250000002500000025000025
:101730000025000000250001002400000024000016
:101740000024000000240000002400010023000009
:1017500000230000002300000023000000230000FD
:1017600000230000002300010022000000220000EE
:1017700000220000002200000022000000220001E0
:1017800000210000002100000021000000210000D5
:1017900000210000002100000021000100200000C5
:1017A00000200000002000000020000000200000B9
:1017B000002000000020000000200001001F0000A9
:1017C000001F0000001F0000001F0000001F00009D
:1017D000001F0000001F0001001E0000001E00008E
:1017E000001E0000001E0000002E0A0044656C650B
:1017F00074696F6E206661696C65642C2046696C43
:10180000653A200046696C652064656C65746564A2
:101810003A002E0A006F70656E206661696C65641F
:101820002C2046696C653A20004732382058302019
:101830005930000A0A005374616E64617264204476
:101840006576696174696F6E3A20000A004D6561C2
:101850006E3A20000A002020207A3A20000A0079FF
:101860003A2000783A20003F5370656369666965E5
:1018700064206E756D626572206F66206C6567739B
:1018800020696E206D6F76656D656E74206E6F7465
:1018900020706C61757361626C652E0A003F537035
:1018A00065636966696564205920706F736974693E
:1018B0006F6E206F7574206F662072616E67652E83
:1018C0000A003F537065636966696564205820703B
:1018D0006F736974696F6E206F7574206F66207204
:1018E000616E67652E0A003F5370656369666965BE
:1018F000642073616D706C652073697A65206E6F0A
:101900007420706C61757361626C652E0A00467597
:101910006C6C20737570706F72742061743A2068FB
:101920007474703A2F2F33647072696E74626F61D1
:1019300072642E636F6D2F666F72756D2E70687096
:101940000A004D3438205A2D50726F62652052655E
:10195000706561746162696C69747920746573740F
:101960002E20202056657273696F6E20322E303023
:101970000A003F566572626F7365204C6576656C30
:10198000206E6F7420706C61757361626C652E0AD5
:1019900000426564204865617465640A0020573A16
:1019A00000496E7374616C6C202564202573206F70
:1019B0006E2074686520257320686F74656E642ED0
:1019C0000050757267652046696C616D656E740ABA
:1019D0000053757266696E6720310A00537572662E
:1019E000696E6720300A004252494748544E4553B9
:1019F000533A2000220A00656E717565696E672092
:101A00002200220A00656E717565696E67202200EA
:101A1000202F0020400020403A0053757266696E06
:101A2000672030200A005430004D383420582059A7
:101A3000205A204500496E7374616C6C2025642027
:101A40002573206F6E2074686520257320686F747D
:101A5000656E642E00526573656E643A20006F6B8C
:101A60000A004475706C69204D6F6465204F4E0A02
:101A7000004D6972726F72204D6F6465204F4E0A7F
:101A8000002C2073617665645F466C61675F6661F8
:101A90006E6C617965725F6D6972726F723A200067
:101AA0002C2073617665645F666565647261746538
:101AB000313A20002C2073617665645F6665656449
:101AC00072617465303A20002C2073617665645F22
:101AD00066616E6C617965723A20002C20736176C4
:101AE00065645F74656D706265643A20002C2073D4
:101AF000617665645F74656D70303A20002C2073E8
:101B0000617665645F74656D70313A20002C2073D6
:101B1000617665645F66696C65706F736974696F1F
:101B20006E3A20002C2073617665645F655F706F8C
:101B3000736974696F6E3A20002C20736176656456
:101B40005F746F6F6C5F6163746976653A20002C17
:101B50002073617665645F7A5F706F736974696F13
:101B60006E3A20002C2073617665645F795F706F38
:101B7000736974696F6E3A20002C20736176656416
:101B80005F785F706F736974696F6E3A20005341BC
:101B90005645205052494E54204C4F473A0A006552
:101BA00063686F3A005072696E74207265636F7675
:101BB0006572792075700A004E6F74207072696EBC
:101BC00074207265636F766572792075700A0053B0
:101BD0005543434553530A0056616C756573206F36
:101BE0007574206F662072616E67650A0056616CBD
:101BF000756573206F7574206F662072616E6765FE
:101C00000A0056616C756573206F7574206F6620CD
:101C100072616E67650A0056616C756573206F7539
:101C200074206F662072616E67650A0053554343E6
:101C30004553530A0056616C756573206F757420A7
:101C40006F662072616E67650A0056616C75657318
:101C5000206F7574206F662072616E67650A00568A
:101C6000616C756573206F7574206F662072616E8C
:101C700067650A0056616C756573206F7574206F17
:101C8000662072616E67650A0020502000205A208D
:101C90000020592000536574204D353330205820E2
:101CA00000486F74656E64206F6666736574733A7E
:101CB0000054696D6520696E6163746976650A0018
:101CC00050757267652064697374616E63650A009C
:101CD0005A204F6666736574206F6B0A005A204F56
:101CE0006666736574203A200A007A5F6D61783AFF
:101CF00020007A5F6D696E3A20005A204F66667345
:101D0000657400504F534954494F4E20484F4D453C
:101D10003A20002A2A2A2047656E696520446973A3
:101D2000636F6E6E65637465642066726F6D2047C5
:101D300065744E6578744279746521202A2A2A00D8
:101D40002A2A2A2047656E696520456E61626C65A6
:101D5000204174746163684576656E7448616E6491
:101D60006C657220212121202A2A2A0043616E6E8F
:101D70006F7420656E746572207375626469723A5F
:101D8000200057726974696E6720746F2066696CF1
:101D9000653A20002E0A006F70656E206661696CDE
:101DA00065642C2046696C653A20002E0A006F702D
:101DB000656E206661696C65642C2046696C653AC5
:101DC000200046696C652073656C65637465640A00
:101DD000002053697A653A200046696C65206F706F
:101DE000656E65643A20002E0A006F70656E20668D
:101DF00061696C65642C2046696C653A20004E6F01
:101E0000772066726573682066696C653A20004EBB
:101E10006F7720646F696E672066696C653A200091
:101E20002220706F73002220706172656E743A22F6
:101E300000535542524F5554494E452043414C4C56
:101E4000207461726765743A2200747279696E67F2
:101E500020746F2063616C6C207375622D67636FF3
:101E600064652066696C6573207769746820746F97
:101E70006F206D616E79206C6576656C732E204DD8
:101E80004158206C6576656C2069733A0053415661
:101E90004544205052494E540A007A70726F626570
:101EA0003A200053442063617264206F6B0A006F14
:101EB00070656E526F6F74206661696C65640A00AC
:101EC000766F6C756D652E696E6974206661696CDC
:101ED00065640A004572726F723A00534420696E5D
:101EE0006974206661696C0A0070012C01900127F9
:101EF00001B0012201C0011D01F0011801100213FF
:101F00000130020E016002090190020401C002FFCB
:101F1000000003FA004003F5008003F000D003EB5B
:101F2000002004E6007004E100E004DC004005D776
:101F300000C005D2004006CD00D006C8008007C30F
:101F4000003008BE00F008B900C009B400B00AAF04
:101F500000B00BAA00D00CA500000EA000500F9BF3
:101F600000C01096005012910000148C00C015871C
:101F700000B0178200B0197D00D01B7800001E73DE
:101F80000040206E0090226900F024640040275F2A
:101F90000090295A00E02B5500102E500020304BA5
:101FA0000010324600E033410090353C00103737D6
:101FB0000070383200A0392D00B03A2800A03B2331
:101FC00000603C1E00103D1900903D1400103E0FB3
:101FD00000703E0A00C03E0500003F0000487973D3
:101FE000746572657369732074656D706572617470
:101FF0007572650A00546865726D616C2072756E49
:10200000617761792070726F74656374696F6E2097
:102010006279204865617465725F49443A0A0045F7
:1020200072726F723A004572726F72283833293AB1
:102030002042656420746865726D6973746F7220E4
:102040006E6F742064657465637465640A0045721C
:10205000726F72283832293A205269676874207486
:102060006865726D6973746F72206E6F7420646539
:102070007465637465640A004572726F7228383142
:10208000293A204C65667420746865726D697374B2
:102090006F72206E6F74202064657465637465646C
:1020A0000A002053544F50205052494E54200A00E9
:1020B0004572726F72283833293A20426564207461
:1020C0006865726D6973746F72206E6F74206465D9
:1020D0007465637465640A002053544F5020505255
:1020E000494E54200A004572726F72283832293ADC
:1020F00020526967687420746865726D6973746FC3
:1021000072206E6F742064657465637465640A0080
:102110002053544F50205052494E54200A004572CB
:10212000726F72283831293A204C656674207468C1
:1021300065726D6973746F72206E6F7420206465B0
:102140007465637465640A002053544F50205052E4
:10215000494E54200A004552524F52283839293AE4
:1021600020424544206973206E6F74206865617455
:10217000696E67002053544F50205052494E5420EE
:102180000A004552524F52283839293A20486F7474
:10219000656E64202564206973206E6F7420686505
:1021A0006174696E67006563686F3A000A002061B8
:1021B0006E7469686F726172690A3A200020686FF4
:1021C000726172690A20002F3800766F6C74657333
:1021D000200020566F6C74657320636172676F6CAA
:1021E00020333A200020616E7469686F72617269F1
:1021F0000A3A200020686F726172690A20002F3845
:1022000000766F6C746573200020566F6C74657374
:1022100020636172676F6C20323A20000A002064EC
:102220007A333A200020647A323A20005431005444
:1022300030005430005430000A0056756974656EE1
:1022400073333A2020004170726F78333A202000B7
:10225000566F6C746573333A2020000A0056756916
:1022600074656E73323A2020004170726F78323A92
:10227000202000566F6C746573323A20200056613E
:102280006C6F7220645A333A20200056616C6F7272
:1022900020645A323A2020004E6577206F666673BC
:1022A00065742076657273696F6E3A20007A335FC9
:1022B000313A20007A325F313A20005A7363726FEC
:1022C0006C6C5F313A20007A335F303A20007A320A
:1022D0005F303A20005A7363726F6C6C5F303A2043
:1022E000005A76616C756520616674657220686F4E
:1022F0006D653A00486F6D6520582F5920626566FC
:102300006F7265205A0A003B2020204275696C6478
:102310002074696D653A202564202573202564208A
:102320002573003B5072696E742074696D653A20A4
:10233000256420257320256420257320256420250D
:1023400073003B54494D453A256C64003B202020E6
:10235000506C6173746963207765696768743A20AB
:1023600025642E256467003B46696C616D656E745B
:1023700020757365643A2025642E25646D202564DC
:102380002E256467003B46696C616D656E7420752F
:102390007365643A20256C642E256C646D003B45A2
:1023A000787472756465727320757365643A20542D
:1023B00025642025642E2564205425642025642E60
:1023C0002564003B20202065787472756465724432
:1023D00069616D657465722C25642E25642C2564F5
:1023E0002E2564002E2E2E2054696D656F75742184
:1023F000002A2A2A2047656E69652057726974652C
:102400004F626A656374202A2A2A202D2D2D3E00F2
:102410002E2E2E204E414B2021002A2A2A204765AD
:102420006E69652057726974654F626A65637420CE
:102430002A2A2A202D2D2D3E002E2E2E2041434BC0
:102440002021002A2A2A2047656E69652057726973
:1024500074654F626A656374202A2A2A202D2D2D07
:102460003E002A2A2A2047656E6965204261642061
:1024700042797465202A2A2A202D2D2D3E2030787D
:10248000002056616C75653A200020496E646578BD
:102490003A20002A2A2A2047656E69652052657015
:1024A0006F7274204F626A656374202A2A2A204F53
:1024B000626A6563743A20002A2A2A2047656E6999
:1024C0006520436F6E6E6563746564202F205379B9
:1024D0006E6321202A2A2A002056616C75653A20F5
:1024E0000020496E6465783A20002A2A2A20476530
:1024F0006E6965205265706F7274204576656E74E2
:10250000202A2A2A204F626A6563743A2000204CF0
:10251000656E6774683A20002A2A2A2047656E692A
:1025200065205265636569766564204D61676963FE
:1025300020446F75626C65204279746573202A2A85
:102540002A20496E6465783A2000204C656E6774D5
:10255000683A20002A2A2A2047656E69652052655C
:10256000636569766564204D6167696320427974AB
:102570006573202A2A2A20496E6465783A20002A49
:102580002A2A2047656E6965204E414B20526563BB
:102590006F7665727920212121202A2A2A002A2A91
:1025A0002A2047656E696520446973636F6E6E65A6
:1025B000637465642066726F6D20446F4576656E46
:1025C000747321202A2A2A002A2A2A2047656E6944
:1025D0006520546F6F6B20746F6F206C6F6E672077
:1025E000746F2072652D656E74657220446F457638
:1025F000656E747328292C20726564756365206488
:10260000656C61797320696E20636F64652C20733B
:10261000656C662D70726F74656374696F6E20658A
:102620006E61626C65642E202A2A2A004572726FE0
:102630007220577269746520454550524F4D0053C2
:10264000657474696E67732053746F7265640A00F1
:10265000204D696E75746573203A0020204C6173BB
:1026600074207072696E742074696D652D3E204807
:102670006F757273203A004C617374207072696ECA
:1026800074206475726174696F6E0A002C2054683E
:10269000697264204944206E756D62657220002C59
:1026A000205365636F6E64204944206E756D6265CA
:1026B000723A200020204669727374204944206ECB
:1026C000756D6265723A2000554920496E666F72D9
:1026D0006D6174696F6E2053657269616C204E750F
:1026E0006D6265723A0A00206D2C204531207072AF
:1026F000696E742064697374616E63653A200020AA
:102700006B6D2C204530207072696E742064697383
:1027100074616E63653A2000206B6D2C2059207027
:1027200072696E742064697374616E63653A200027
:10273000206B6D2C205831207072696E7420646992
:102740007374616E63653A200020432C0A20583070
:10275000207072696E742064697374616E63653A87
:10276000200020432C206D61782074656D7020421C
:102770003A200020432C206D61782074656D702014
:10278000523A20002C206D61782074656D70204CC9
:102790003A2000682C207072696E74732066696E2E
:1027A00069736865643A20002C207072696E7469E0
:1027B0006E672074696D653A200020207072696E22
:1027C00074733A200053544154533A0A0020432C66
:1027D00020525F5052494E543A200020432C205240
:1027E0005F4245443A200020432C20525F52454D21
:1027F0004F56453A20002020525F494E53455254CF
:102800003A200054656D70202843293A0A0020437D
:102810002C204C5F5052494E543A200020432C202B
:102820004C5F4245443A200020432C204C5F5245E7
:102830004D4F56453A200020204C5F494E5345529B
:10284000543A200054656D70202843293A0A00202C
:10285000562856657273696F6E29200020522842EF
:1028600065642072696768742073637265772920D4
:102870000020204D353331204C28426564206C65A2
:102880006674207363726577292000426564204F67
:1028900066667365747320286D6D293A0A002050AE
:1028A000285A2070726F62652900205A2000205932
:1028B000200020204D353330205820004F666673AD
:1028C00065747320286D6D293A0A00204400204960
:1028D00000202D204D33303120524947485420509C
:1028E0000020440020490020204D333031204C4549
:1028F00046542050005049442073657474696E67D3
:10290000733A0A00205A0020590020204D323036F8
:10291000205800486F6D65206F66667365742028C7
:102920006D6D293A0A00204500205A0020580020E9
:10293000420020540020204D3230352053004164A5
:1029400076616E636564207661726961626C65733D
:102950003A20533D4D696E20666565647261746509
:1029600020286D6D2F73292C20543D4D696E2074E5
:10297000726176656C206665656472617465202895
:102980006D6D2F73292C20423D6D696E696D756DDB
:10299000207365676D656E742074696D6520286DA0
:1029A00073292C20583D6D6178696D756D205859DB
:1029B000206A65726B20286D6D2F73292C20205A98
:1029C0003D6D6178696D756D205A206A65726B2066
:1029D000286D6D2F73292C2020453D6D6178696D20
:1029E000756D2045206A65726B20286D6D2F7329E7
:1029F0000A0020540020204D32303420530041631F
:102A000063656C65726174696F6E3A20533D6163F2
:102A100063656C65726174696F6E2C20543D7265DC
:102A2000747261637420616363656C65726174695B
:102A30006F6E0A00204500205A0020590020204DCA
:102A40003230312058004D6178696D756D204163D9
:102A500063656C65726174696F6E20286D6D2F738C
:102A600032293A0A00204500205A0020590020202F
:102A70004D3230332058004D6178696D756D206698
:102A8000656564726174657320286D6D2F73293AD2
:102A90000A00204500205A0020590020204D3932DC
:102AA00020580053746570732070657220756E69CC
:102AB000743A0A004D313037004E6577206C6179E9
:102AC00065722064657465637465640A003B206CFC
:102AD00061796572003B4C41594552002569206877
:102AE0006F757273202569206D696E75746573004A
:102AF000446F6E65207072696E74696E67206669D6
:102B00006C650A004D333300506175736520706148
:102B1000726B696E670A00473639005072696E74CD
:102B200065722073746F70706564206475652074BD
:102B30006F206572726F72732E20466978207468F8
:102B400065206572726F7220616E642075736520F6
:102B50004D39393920746F20726573746172742E27
:102B6000202854656D706572617475726520697393
:102B70002072657365742E2053657420697420611A
:102B8000667465722072657374617274696E672908
:102B90000A006F6B0A004E6F204C696E65204E75FF
:102BA0006D626572207769746820636865636B7312
:102BB000756D2C204C617374204C696E653A200051
:102BC0004E6F20436865636B73756D207769746819
:102BD000206C696E65206E756D6265722C204C618B
:102BE0007374204C696E653A2000636865636B738B
:102BF000756D206D69736D617463682C204C617311
:102C000074204C696E653A20004C696E65204E75E3
:102C10006D626572206973206E6F74204C617374ED
:102C2000204C696E65204E756D6265722B312C20CB
:102C30004C617374204C696E653A20004D3131301F
:102C400000CDAC03440080934300005243000000D9
:102C50000000000000000000007C3C3E5E2B3D3F79
:102C60002F5B5D3B2C2A225C006563686F3A004D48
:102C70003234004D3233202573006175746F25693D
:102C80002E6700504944204175746F74756E65203D
:102C900066696E6973686564210A00504944204181
:102CA00075746F74756E65206661696C656421204A
:102CB00074696D656F75740A0020403A006F6B206F
:102CC000543A006F6B20423A0050494420417574D9
:102CD0006F74756E65206661696C6564212054654A
:102CE0006D706572617475726520746F6F206869AC
:102CF00067680A00204B643A2000204B693A2000A4
:102D0000204B703A200020436C617373696320503C
:102D10004944200A002054753A2000204B753A207F
:102D200000206D61783A2000206D696E3A20002005
:102D3000643A200020626961733A20003B20472DED
:102D4000436F64652067656E6572617465642062B7
:102D5000792053696D706C69667933442852292053
:102D600056657273696F6E202564005265616479DF
:102D700020746F204C6F61642F556E6C6F616420FE
:102D80000A0053746F7265642073657474696E67AA
:102D900073207265747269657665640A00486172B1
:102DA00064636F6465642044656661756C74205368
:102DB000657474696E6773204C6F616465640A00A2
:102DC00048617264636F6465642043616C6962206A
:102DD000616E64205049442044656661756C7420BE
:102DE00053657474696E6773204C6F616465640A1F
:102DF00000473639204143544956415445440A005E
:102E000095028F0211241FBECFEFD1E2DEBFCDBFEE
:102E100000E00CBF18E0A0E0B2E0E6E1F4E903E076
:102E20000BBF02C007900D92A831B107D9F72DE171
:102E3000A8E1B8E001C01D92A13BB207E1F717E19C
:102E4000C1E0D7E100E006C021970109802FFE0113
:102E50000F94ECC6C030D10780E00807A9F70F94A3
:102E600008A80D94FAC90C9400002F923F924F923B
:102E70005F926F927F928F929F92AF92BF92CF920A
:102E8000DF92EF92FF920F931F93CF93DF93CDB713
:102E9000DEB7C352D1400FB6F894DEBF0FBECDBF30
:102EA0002DB73EB7CE5DDE4F39832883C252D14065
:102EB00011E010936C0880914E0881110CC00E94A3
:102EC0006FDF60934A0870934B0880934C0890938F
:102ED0004D0810934E088091420881110DC00E9448
:102EE0006FDF60933E0870933F0880934008909393
:102EF000410881E0809342089091FF194091970228
:102F0000509198026091990270919A02911106C0B5
:102F10008091001A882311F40C942E22453A510511
:102F20006105710509F44DC60CF0C3C04735510564
:102F30006105710509F4BAC40CF05EC04132510557
:102F40006105710511F40C94462034F541315105A9
:102F50006105710509F4FCC774F441305105610540
:102F6000710509F4E8C2403151056105710509F4A4
:102F7000BBC10C94E65C433151056105710509F450
:102F80007DC40CF49BC4403251056105710511F4F8
:102F90000C9455200C94E65C413451056105710593
:102FA00009F4DBC4ACF4453351056105710511F436
:102FB0000C94FA204D3351056105710509F4F4C3F1
:102FC000413351056105710511F00C94E65C31C483
:102FD000463451056105710509F4C3C443355105F3
:102FE0006105710509F4C3C24434510561057105D9
:102FF00009F495C70C94E65C4739510561057105E4
:1030000011F40C94E0204CF546375105610571052B
:1030100009F476C474F4483551056105710509F465
:10302000E9C34A3551056105710509F416C60C94CA
:10303000E65C4E3751056105710509F48DC14938CB
:1030400051056105710509F443C24B37510561050E
:10305000710511F00C94E65C00C64C395105610510
:10306000710511F40C9476209CF44A3951056105E0
:10307000710511F40C94642014F00C946D204839FF
:1030800051056105710511F40C94CF200C94E65C98
:10309000433A51056105710509F480C50CF0B7C5C7
:1030A0004D3951056105710511F40C94A3200C9460
:1030B000E65C4F3E51056105710509F472C20CF0E2
:1030C00088C0433D51056105710511F40C94EA2156
:1030D000BCF5483A51056105710509F4ABC504F525
:1030E000463A51056105710509F400C5473A510595
:1030F0006105710511F00C94E65C80916508909172
:103100006608A0916708B09168089160809365088F
:1031100090936608A0936708B09368080C94E65CE7
:103120004A3A51056105710509F40CC50CF45CC5FA
:103130004E3B51056105710509F46EC30C94E65CC4
:10314000453E51056105710509F40FC414F5433E70
:1031500051056105710509F41BC40CF06AC4423EB7
:1031600051056105710511F00C94E65C80916508CC
:1031700090916608A0916708B0916808826080937A
:10318000650890936608A0936708B09368080C944C
:10319000E65C4D3E51056105710509F40BC10CF06B
:1031A000C2C14A3E51056105710511F00C94E65CFF
:1031B00040E050E06EE681E20F941B5C80913D0A96
:1031C00090913E0A926090933E0A80933D0A0C943F
:1031D000E65C4B3F51056105710509F405C484F5B2
:1031E000473F51056105710509F436C4A4F4423F17
:1031F00051056105710509F4BAC1463F51056105E4
:10320000710509F44EC4413F51056105710511F086
:103210000C94E65C90C18091650890916608A0913D
:103220006708B09168082091C5023091C602493FF5
:1032300051056105710509F498C40CF46AC4BBC357
:103240004E3631E053076105710509F4A8C0B4F5A5
:10325000483691E059076105710509F4C2C74A363D
:10326000A1E05A076105710509F499C0453651403E
:103270006105710511F00C94E65C40E050E06AE2F3
:103280008AE00F941B5C40E050E064E581E20F941B
:103290001B5C81E08093DE111092E1116AEB78E013
:1032A00086E20F94295D80913D0A90913E0A9860D4
:1032B00090933E0A80933D0A0C94E65C4937E1E026
:1032C0005E076105710509F43FC64538F1E05F0707
:1032D0006105710509F46CC14837514061057105FC
:1032E00011F00C94E65C9CC580912302813419F5A1
:1032F00041E050E066E08BE10F941B5C41E050E060
:1033000060E181E20F941B5C41E050E062E181E208
:103310000F941B5C41E050E063E181E20F941B5C81
:1033200041E050E06EE781E20F941B5C84E48093FF
:1033300023020C94E65C843411F00C94E65C8091DA
:103340003D0A90913E0A806490933E0A80933D0A24
:103350001092DE110C94E65C40E050E066E08BE1F8
:103360000F941B5C40E050E060E181E20F941B5C35
:1033700040E050E062E181E20F941B5C40E050E0ED
:1033800063E181E20F941B5C40E050E06EE781E274
:103390000F941B5C81E4809323020C94E65C809183
:1033A0003D0A90913E0A926090933E0A80933D0AB6
:1033B0000C94E65C80912302823419F583E48093B7
:1033C000230241E050E063E08BE10F941B5C41E09D
:1033D00050E067E581E20F941B5C41E050E066E756
:1033E00081E20F941B5C41E050E06DEE81E20F94AE
:1033F0001B5C41E050E069E881E20F941B5C0C9497
:10340000E65C833411F00C94E65C11E010936108E3
:1034100040E050E068E981E20F941B5C40E050E03E
:1034200067E981E20F941B5C40E050E06CE981E2C7
:103430000F941B5C40E050E06DE981E20F941B5C4F
:1034400041E050E06AE481E20F941B5C40E050E010
:103450006CE28AE00F941B5C1093E1118FEF9FEFF9
:10346000909379028093780240E050E06AE981E22B
:103470000F941B5C40E050E06BE981E20F941B5C11
:103480006091721D7091731D8091741D9091751DD6
:103490000F9414C4AB0166E289E00F941B5C609149
:1034A000761D7091771D8091781D9091791D0F94F4
:1034B00014C4AB0167E289E00F941B5C40E050E06C
:1034C00068E289E00F941B5C1092DE110C94E65CBC
:1034D00080912302833411F00C94E65C82E48093A3
:1034E000230240E050E063E08BE10F941B5C40E07E
:1034F00050E067E581E20F941B5C40E050E066E736
:1035000081E20F941B5C40E050E06DEE81E20F948D
:103510001B5C40E050E069E881E20F941B5C109274
:10352000E1110C94E65C40E050E064E58AE00F9421
:103530001B5C0C94E65C1092DE1180E00F94643505
:1035400080913D0A90913E0A826090933E0A80935A
:103550003D0A81E08093E51140E050E068E08AE0B8
:103560000F941B5C81E48093E6110C94E65C8091DF
:10357000420A882311F40C94E65C41E050E080910B
:103580003F0A8A3011F440E050E066E18BE10F948D
:103590001B5C40E050E062E58AE00F941B5C0C94F9
:1035A000E65C89E480931D020F94AD0D0C94E65CFB
:1035B00080919F1D9091A01D9093AD118093AC11AF
:1035C0000F94B3408091A11D9091A21D9093AF11D3
:1035D0008093AE110F94B34082E48093230282E57E
:1035E00080931D0281E08093E1111092DE118091A1
:1035F0003F0AE1E08A3009F4E0E0E093FA09F0E004
:10360000EE0FFF1FE455FE4E2081318130933D08BF
:1036100020933C088A3029F480915F1190916011C9
:1036200004C08091631190916411918380830F9401
:10363000B34081E48093E61140E050E068E08AE026
:103640000F941B5C40E050E064E581E20F941B5C4A
:1036500080E090E0A3E4B3E48093CF119093D01185
:10366000A093D111B093D2118090E6099090E70910
:10367000A090E809B090E9092091CB113091CC11CC
:103680004091CD115091CE116091C7117091C81128
:103690008091C9119091CA11EAEB6E2EE1E17E2E64
:1036A0007F926F92F3EDCF2EF1E1DF2EE12CF12C22
:1036B00003E413E40E9478C60F94194480E090E07C
:1036C000A0E2B1E48093CB119093CC11A093CD11E3
:1036D000B093CE118090E2099090E309A090E409A4
:1036E000B090E509E090CF11F090D0110091D11188
:1036F0001091D2116091C7117091C8118091C911B8
:103700009091CA117F926F9220E030E040E251E444
:103710000E9478C60F9419440F900F900F900F904D
:103720008091E6118E3411F40C94EF291092E61179
:103730000E945F6440E050E060E289E00F941B5C0F
:1037400040E050E064E28AE00F941B5C0091FA09CB
:1037500010E0F801EE0FFF1FEE0FFF1FEE58F24EC4
:1037600060817181828193810F9414C470935F088A
:1037700060935E08000F111FF801E455FE4E808132
:1037800091810A9790935D0880935C0810925B0882
:1037900010925A0889E48093E6110E945F6481E0E8
:1037A000809360080C94E65C8091230240E050E036
:1037B000813441F469E08AE00F941B5C6AEB78E0A5
:1037C00082E007C06AE28AE00F941B5C6AEB78E053
:1037D00086E20F94295D80913D0A90913E0A98609F
:1037E00090933E0A80933D0A1092E1111092DE11EF
:1037F0000C94E65C8091450981110C94E65C809103
:10380000001A81110C94E65C40E050E069E38AE024
:103810000F941B5C0C94E65C8091450981110C941B
:10382000E65C40E050E061E08AE00F941B5C0C94A1
:10383000E65C8091450981110C94E65C10912302AD
:10384000113411F00C94E65C1092DE111092FF1905
:1038500081E08093001A40E050E068E08AE00F9435
:103860001B5C1093E61180913D0A90913E0A946092
:1038700090933E0A80933D0A0C94E65C809123026B
:10388000813439F440E050E061E08AE00F941B5C41
:10389000ADCF843409F0AACF80913D0A90913E0AC1
:1038A000906190933E0A80933D0AA0CF80912302BD
:1038B000823441F3833409F099CFEECF8091230213
:1038C000992369F0813459F480913D0A90913E0A20
:1038D000886090933E0A80933D0A0C94E65C8434A1
:1038E00011F00C94E65C80913D0A90913E0A80684C
:1038F00090933E0A80933D0A1092DE110C94E65C90
:103900008091001A882311F40C94E65C80912302C4
:10391000823459F480913D0A90913E0A80619093DF
:103920003E0A80933D0A0C94E65C833411F00C94BB
:10393000E65C40E050E066E18AE00F941B5C41E009
:1039400050E064E581E20F941B5C82E580931D02E8
:1039500081E08093E1110C94E65C0F9458080C947C
:10396000E65C0F94E2070C94E65C80916508909108
:103970006608A0916708B091680884608093650824
:1039800090936608A0936708B09368080C94E65C6F
:103990008091650890916608A0916708B0916808C9
:1039A00088608093650890936608A0936708B09339
:1039B00068080C94E65C2330310559F4A1608093CB
:1039C000650890936608A0936708B09368080C9404
:1039D000E65C84608093650890936608A09367080E
:1039E000B09368080C94E65C2091C5023091C60241
:1039F0008091650890916608A0916708B091680869
:103A00002330310559F4A2608093650890936608CD
:103A1000A0936708B09368080C94E65C8860809374
:103A2000650890936608A0936708B09368080C94A3
:103A3000E65C8091650890916608A0916708B09156
:103A4000680881608093650890936608A093670872
:103A5000B09368080C94E65C2091C5023091C602D0
:103A60008091650890916608A0916708B0916808F8
:103A70002330310559F4906180936508909366086E
:103A8000A0936708B09368080C94E65C816080930B
:103A9000650890936608A0936708B09368080C9433
:103AA000E65C2091C5023091C60280916508909134
:103AB0006608A0916708B09168082330310559F471
:103AC00090628093650890936608A0936708B0930E
:103AD00068080C94E65C82608093650890936608A1
:103AE000A0936708B09368080C94E65C8091650821
:103AF00090916608A0916708B091680880628093F1
:103B0000650890936608A0936708B09368080C94C2
:103B1000E65C2330310559F49064809365089093F6
:103B20006608A0936708B09368080C94E65C80620E
:103B30008093650890936608A0936708B09368081F
:103B40000C94E65C8091650890916608A0916708E6
:103B5000B091680880618093650890936608A0938F
:103B60006708B09368080C94E65C2330310559F47B
:103B700090688093650890936608A0936708B09357
:103B800068080C94E65C80618093650890936608F1
:103B9000A0936708B09368080C94E65C8091650870
:103BA00090916608A0916708B0916808806480933E
:103BB000650890936608A0936708B09368080C9412
:103BC000E65C8091650890916608A0916708B091C5
:103BD000680880688093650890936608A0936708DA
:103BE000B09368080C94E65C809165089091660833
:103BF000A0916708B09168089260809365089093DF
:103C00006608A0936708B09368080C94E65C8091FE
:103C1000650890916608A0916708B0916808946063
:103C20008093650890936608A0936708B09368082E
:103C30000C94E65C8091650890916608A0916708F5
:103C4000B091680898608093650890936608A09387
:103C50006708B09368080C94E65C4A355105610525
:103C6000710519F41092FA0903C081E08093FA09F2
:103C70008091FA09E82FF0E0EE0FFF1FE455FE4EA9
:103C80002081318130933D0820933C08811105C08B
:103C900080915F119091601104C0809163119091A7
:103CA0006411918380830F94B34081E48093E61183
:103CB00040E050E068E08AE00F941B5C40E050E098
:103CC00064E581E20F941B5C80E090E0A3E4B3E440
:103CD0008093CF119093D011A093D111B093D211B2
:103CE0008090E6099090E709A090E809B090E90972
:103CF0002091CB113091CC114091CD115091CE112A
:103D00006091C7117091C8118091C9119091CA1129
:103D1000EAEB6E2EE1E17E2E7F926F92F3EDCF2ED5
:103D2000F1E1DF2EE12CF12C03E413E40E9478C6CC
:103D30000F94194480E090E0A0E2B1E48093CB11AD
:103D40009093CC11A093CD11B093CE118090E20945
:103D50009090E309A090E409B090E509E090CF11BC
:103D6000F090D0110091D1111091D2116091C71132
:103D70007091C8118091C9119091CA117F926F9270
:103D800020E030E040E251E40E9478C60F941944EC
:103D90000F900F900F900F908091E6118E3411F4D8
:103DA0000C94EF291092E6110E945F6440E050E00D
:103DB00060E289E00F941B5C40E050E064E28AE03E
:103DC0000F941B5C0091FA0910E0F801EE0FFF1F41
:103DD000EE0FFF1FEE58F24E608171818281938158
:103DE0000F9414C470935F0860935E08000F111F56
:103DF000F801E455FE4E808191810A9790935D0809
:103E000080935C0810925B0810925A0889E48093B2
:103E1000E6110E945F6481E0809360080C94E65C88
:103E200040E050E060E289E00F941B5C40E050E02D
:103E300064E28AE00F941B5C89E48093E6110E949F
:103E40005F640091FA0901111DC080916111909188
:103E500062116091031170910411681779072CF4B5
:103E6000BC01990F880B990B04C0072E000C880B1E
:103E7000990B0F94DFBB0F9414C47093AD11609332
:103E8000AC1120C080916511909166116091FD1078
:103E90007091FE10681779072CF4BC01990F880BFC
:103EA000990B04C0072E000C880B990B0F94DFBBF5
:103EB00010E0000F111F04551E4E0F9414C4D801BA
:103EC0006D937C930F94B3400091FA0910E0F801D0
:103ED000EE0FFF1FEE0FFF1FEE58F24E6081718153
:103EE000828193810F9414C470935F0860935E087D
:103EF000000F111FF801E455FE4E808191810A9751
:103F000090935D0880935C0810925B0810925A08A9
:103F10000E945F6481E0809360080C94E65C80916D
:103F20008B02882311F40C94F45C8091FA098111BE
:103F300002C08AE101C086E30E94DEDD892B11F018
:103F40000C94F45C0C94E65C0F94CE080C94E65C44
:103F50008091630881FF02C00C94E65C90911D0A79
:103F600080911C0A98130C94755E40E050E06BE061
:103F700084E10F941B5C40E050E065E18AE00F941F
:103F80001B5C82E48093E61180936612E091FA094B
:103F900034E0E39FF0011124E555FD4F608171810C
:103FA000828193816093C7117093C8118093C91166
:103FB0009093CA11E090CF11F090D0110091D111DF
:103FC0001091D2112091CB113091CC114091CD1193
:103FD0005091CE11EAEFF9E0FF93EF93812C912CF1
:103FE000E8E4AE2EE3E4BE2EF3EDCF2EF1E1DF2EBA
:103FF0000E9478C6E090CF11F090D0110091D111BD
:104000001091D2112091CB113091CC114091CD1152
:104010005091CE11E091BA1164E0E69FF0011124B5
:10402000E555FD4F60817181828193810F94AB5D75
:10403000E091BA1184E0E89FF0011124E555FD4FAD
:1040400080819181A281B3818093C7119093C8111F
:10405000A093C911B093CA11E091FA09F0E0EE0FF4
:10406000FF1FE455FE4E80913C0890913D089183DE
:1040700080830F94B3401092420A0F94194481E058
:104080000F940F030F900F900C94E65C80916308DF
:1040900081FF02C00C94E65C90911D0A20911C0ADD
:1040A00029130C94795E0C947C5E8091630881FFE7
:1040B00002C00C94E65C90911D0A20911C0A291301
:1040C0000C94795E0C94805E90911D0A80911C0A7C
:1040D00098130C94E65C0C94845E90911D0A809178
:1040E0001C0A98130C94E65C0C940F5FE091780224
:1040F000F0917902EF3F9FEFF90711F40C94E65C21
:10410000EE0FFF1FE455FE4E808191818B33A1E0BD
:104110009A0714F00C94E65C0596918380830F94C3
:10412000B3400F94B340E0917802F0917902EE0F22
:10413000FF1FE455FE4E4081518168E289E00F94F3
:104140001B5C0C94E65CE0917802F0917902EF3F01
:10415000BFEFFB0711F40C94E65CEE0FFF1FE45574
:10416000FE4E808191811816190614F00C94E65CBD
:104170000597918380830F94B3400F94B340E091EF
:104180007802F0917902EE0FFF1FE455FE4E408158
:10419000518168E289E00F941B5C0C94E65C80918D
:1041A000780290917902019611F40C94E65C90915A
:1041B0001D0A80911C0A98130C94795E0C949D5FE3
:1041C0008091780290917902019611F40C94E65C4A
:1041D00090911D0A80911C0A98130C94795E0C949E
:1041E000A35F90911D0A80911C0A98130C94E65CC1
:1041F0000C94A95F80916612823411F00C94E65CF5
:104200001092E61180913D0A90913E0A8D7F909325
:104210003E0A80933D0A80911D02823531F489E483
:1042200080931D020F94AD0DD1C0893409F0CEC02A
:1042300081E48093E61140E050E068E08AE00F946A
:104240001B5C4090D9085090DA086090DB087090B1
:10425000DC084092CB115092CC116092CD1170923B
:10426000CE1120E030E040E752E460915E027091B0
:104270005F0280916002909161020F9468C34B01CC
:104280005C01E090CF11F090D0110091D11110910C
:10429000D2116091C7117091C8118091C91190918C
:1042A000CA112AEB31E13F932F9323EDC22E21E176
:1042B000D22EA30192010E9478C60F9419440F9048
:1042C0000F908091E6118E3411F40C94EF2920E0C8
:1042D00030E040E251E46091DD087091DE088091A9
:1042E000DF089091E0080F947AC27B018C01609303
:1042F000CF117093D0118093D1119093D2118091EE
:10430000D40889838090620290906302A090640236
:10431000B09065022091CB113091CC114091CD111C
:104320005091CE116091C7117091C8118091C9113F
:104330009091CA11FE013196FF93EF930E9478C6C7
:104340000F9419440F900F908091E6118E3411F460
:104350000C94EF291092E61182E48093230240E04E
:1043600050E063E08BE10F941B5C40E050E067E5B8
:1043700081E20F941B5C40E050E066E781E20F941D
:104380001B5C40E050E06DEE81E20F941B5C40E06E
:1043900050E069E881E20F941B5C40E050E06AE283
:1043A0008AE00F941B5C81E08093DE111092E11192
:1043B0006AEB78E086E20F94295D80913D0A909146
:1043C0003E0A986090933E0A80933D0A10926612CE
:1043D0000C94E65C8091F8101092E6118823E9F0C5
:1043E0001092F81080913D0A90913E0A9860909347
:1043F0003E0A80933D0A8091230240E050E08134E0
:1044000031F469E08AE00F941B5C0C94E65C6AE28C
:104410008AE00F941B5C0C94E65C10926D11109274
:10442000E111EBE8F8E084918F01882351F0082E28
:10443000000C990B0F946B7D0F5F1F4FF801849157
:10444000F4CF10926B0881E00F940F0340E050E02E
:1044500065E08AE00F941B5C0C94E65C8091B508E3
:10446000282F287083FF90C39091B908923008F4E8
:104470008BC3413B51056105710509F4A8C0B4F532
:10448000443651056105710509F4A1C1A4F44E3506
:1044900051056105710509F4F0C24F3551056105FB
:1044A000710509F41CC3453351056105710511F00F
:1044B0000C94E65C27C3403A51056105710509F487
:1044C000C8C0423A51056105710509F46AC0433814
:1044D00051056105710511F00C94E65C40E050E077
:1044E0006DE68AE00F941B5C0C94E65C4233F1E0CD
:1044F0005F076105710509F45CC13CF5453C510558
:104500006105710509F479C04C3C510561057105DF
:1045100009F489C0423B51056105710511F00C9405
:10452000E65C0F94C40741E050E062EB81E20F9437
:104530001B5C41E050E060EA81E20F941B5C10924A
:104540004402109243020C94E65C463331E0530778
:104550006105710509F417C1ACF44333514061059D
:10456000710511F00C94E65C8DEF9FEF909368124B
:104570008093671240E050E06AE08AE00F941B5C91
:104580000C94E65C4E37A1E05A076105710509F409
:10459000F2C1483851406105710509F424C10C94F9
:1045A000E65C0F94C40741E050E062EA81E20F94B8
:1045B0001B5C41E050E060EA81E20F941B5C8EEFEF
:1045C0009FEF90934402809343020C94E65C0F9417
:1045D000C40741E050E061EB81E20F941B5C41E0D5
:1045E00050E060EA81E20F941B5C8FEF9FEF9093A5
:1045F0004402809343020C94E65C0F94C40741E0AC
:1046000050E065EC81E20F941B5C41E050E060EA11
:1046100081E20F941B5C81E090E0909344028093D0
:1046200043020C94E65C0F94C40741E050E06CEC4C
:1046300081E20F941B5C41E050E060EA81E20F945C
:104640001B5C82E090E090934402809343020C94C0
:10465000E65C009143021091440298012E5F3F4FA7
:104660002530310510F00C94E65C9230D9F583E0EA
:104670008093B90840E050E061E18AE00F941B5C50
:1046800080E58093E6118091B608800F8093B6088C
:1046900000E010E020E030E04CE553EC60E070E03A
:1046A00088E393EC0F94FC9E0F94C40780E697E098
:1046B000909344028093430240E050E060EA81E23C
:1046C0000F941B5C42E050E06CE08BE10F941B5CAC
:1046D00040E050E069E18AE00F941B5C1092E61123
:1046E0000C94E65C9330D9F584E08093B90840E0FF
:1046F00050E061E18AE00F941B5C80E58093E61155
:104700008091B708800F8093B70800E010E020E0A8
:1047100030E04CE553EC60E070E080E493E40F940B
:10472000FC9E0F94C40780E697E090934402809328
:10473000430240E050E060EA81E20F941B5C42E0FB
:1047400050E06CE08BE10F941B5C40E050E069E1CD
:104750008AE00F941B5C1092E6110C94E65C943096
:1047600011F00C94E65C8091B808800F8093B80833
:1047700040E050E06EE28AE00F941B5C8FE480938F
:10478000E6110C94E65C0F94C40740E050E060EA48
:1047900081E20F941B5C40E050E069E18AE00F94F5
:1047A0001B5C80E697E090934402809343020C9454
:1047B000E65C83E090E0909368128093671240E09B
:1047C00050E06AE08AE00F941B5C0C94E65C109267
:1047D00068121092671240E050E06AE08AE00F949D
:1047E0001B5C0C94E65C40E050E068E08AE00F94CB
:1047F0001B5C81E48093E61141E061E081E00E946E
:1048000033D81092E6110F9419440F943D0A109179
:1048100067128091B9088230B1F540E050E061E163
:104820008AE00F941B5C80E58093E6110091B60846
:10483000010F0093B608002E000C110B20E030E0B1
:10484000A901CA01B9010F94FC9E0F94C40780E628
:1048500097E0909344028093430240E050E060EA86
:1048600081E20F941B5C42E050E06CE08BE10F941E
:104870001B5C40E050E069E18AE00F941B5C109201
:10488000E6110C94E65C8330C9F540E050E061E14C
:104890008AE00F941B5C80E58093E6110091B708D5
:1048A000010F0093B708002E000C110B20E030E040
:1048B0004CE553EC60E070E088E393EC0F94FC9ED1
:1048C0000F94C40780E697E09093440280934302DC
:1048D00040E050E060EA81E20F941B5C42E050E06F
:1048E0006CE08BE10F941B5C40E050E069E18AE0F2
:1048F0000F941B5C1092E6110C94E65C843011F06E
:104900000C94E65C40E050E061E18AE00F941B5CAF
:1049100080E58093E6110091B808010F0093B80874
:10492000002E000C110B20E030E04CE553EC60E071
:1049300070E080E493E40F94FC9E0F94C40780E63B
:1049400097E0909344028093430240E050E060EA95
:1049500081E20F941B5C42E050E06CE08BE10F942D
:104960001B5C40E050E069E18AE00F941B5C109210
:10497000E6110C94E65C1092E6118091B608409125
:10498000B708042F081B4091B808142F181B602F7C
:10499000002E000C770B880B990B0F94DFBB2DECCE
:1049A0003CEC4CEC5DEB0F94E7B6609335097093EB
:1049B00036098093370990933809612F012E000C36
:1049C000770B880B990B0F94DFBB2DEC3CEC4CEC78
:1049D0005DEB0F94E7B660933109709332098093D1
:1049E0003309909334090023A1F040E050E06FE1D7
:1049F0008AE00F941B5C07FF07C0E02FFF27E195BB
:104A00000CF4F09508E00E0F402F000F550B64E0FA
:104A100015C01123B9F040E050E060E28AE00F9445
:104A20001B5C17FF07C0212F332721950CF430950D
:104A300018E0120F412F110F550B65E08BE10F9419
:104A40001B5C11C014E41093661240E050E06BE070
:104A500084E10F941B5C40E050E065E18AE00F9434
:104A60001B5C1093E61189EE90E0909330098093DF
:104A70002F090F9450680C94E65C4091B80880911F
:104A8000B608142F181BC1F040E050E060E28AE045
:104A90000F941B5C17FF07C0812F992781950CF499
:104AA000909518E0180F412F110F550B65E08BE121
:104AB0000F941B5C0C94E65C14E41093661240E0C7
:104AC00050E06BE084E10F941B5C40E050E065E156
:104AD0008AE00F941B5C1093E6110C94E65C14E4DE
:104AE0001093661240E050E06BE084E10F941B5C91
:104AF00040E050E065E18AE00F941B5C1093E61102
:104B00000C94E65C90916612943411F00C94E65C7F
:104B10001092B908877F8093B5081092E611109221
:104B2000A7111092A6110F946F401092AD11109220
:104B3000AC110F94B3401092AF111092AE110F94BC
:104B4000B34010926D111092E111E0E8F8E0849109
:104B50008F01882351F0082E000C990B0F946B7D68
:104B60000F5F1F4FF8018491F4CF10926B0880E023
:104B70000F940F0340E050E065E08AE00F941B5C67
:104B8000109266120C94E65C4E38F1E05F0710F06C
:104B90000C94E65CFA018827EE58FF4F8F4F0D9476
:104BA000ECC68091210290912202826090932202B1
:104BB000809321020C94E65C809121029091220264
:104BC000846090932202809321020C94E65C809191
:104BD0002102909122028860909322028093210208
:104BE0000C94E65C80912102909122028061909366
:104BF0002202809321020C94E65C80912102909124
:104C00002202806290932202809321020C94E65C3F
:104C10000F94BA36009781F480912102909122027C
:104C20009460909322028093210280919711815089
:104C3000809397110C94E65C019711F00C94E65C5C
:104C4000809121029091220294609093220280939D
:104C5000210240E050E067E381E20F941B5C40E0FA
:104C600050E061E08BE10F941B5C809197118150C3
:104C7000809397110C94E65C10926D111092E111E3
:104C8000E5E7F8E084918F01882351F0082E000CAD
:104C9000990B0F946B7D0F5F1F4FF8018491F4CF38
:104CA00010926B0881E00F940F0340E050E065E044
:104CB0008AE00F941B5C0C94E65C8091011A8823B7
:104CC00011F40C94E65C41E061E082E09AE10F941B
:104CD0004D398FEF9FEF9093F0198093EF19412C8E
:104CE000512C32017301620100E010E08EE9A82E20
:104CF00089E1B82E9E012F5F3F4F190188248394CC
:104D0000912C4091A01C5091A11C6091A21C70910B
:104D1000A31C8091FB1B9091FC1BA091FD1BB091EB
:104D2000FE1B84179507A607B70708F06DC0D501CD
:104D3000E2E31D92EA95E9F70F94315F0196D9F409
:104D40001092EA191092E9191092EC191092EB19CD
:104D500081E090E09093EE198093ED191092FA198A
:104D60001092F9191092FC191092FB1980E00F941F
:104D700064350C94C65F0115110521F52FEF3FEF47
:104D80003A8329833F922F924CE35DE25F934F93E6
:104D9000BF92AF920F94B8BB89819A810F900F9008
:104DA0000F900F900F900F90019639F09092F0199C
:104DB0008092EF1907E010E021C01092F0191092D4
:104DC000EF191CC080E00F9443B46B017C0181E0BB
:104DD0000F9443B42B013C0120E030E0A901C7014E
:104DE000B6010F9452C518167CF020E030E0A901FE
:104DF000C301B2010F9452C5181634F00F5F1F4F54
:104E00000E3111050CF47DCF80E00F94643520E065
:104E100030E0A901C701B6010F94D9BB18165CF0A8
:104E200020E030E0A901C301B2010F94D9BB1816EC
:104E300014F00C94C65F8090450290904602A090BA
:104E40004702B0904802A5019401C701B6010F9432
:104E5000D9BB811114C020E030E0A901C701B6011F
:104E60000F9452C518165CF420E030E0A901C3018C
:104E7000B2010F94D9BB181614F00C94C65F2091A0
:104E8000490230914A0240914B0250914C02C65E59
:104E9000DE4F288339834A835B83CA51D140C301E3
:104EA000B2010F94D9BB81111EC020E030E0A901EE
:104EB000C301B2010F9452C518165CF420E030E033
:104EC000A901C701B6010F94D9BB181614F00C94B0
:104ED000C65FA5019401C701B6010F94D9BB882311
:104EE00011F40C94C65F20E030E0A901C701B601BF
:104EF0000F94D9BB20E030E040E251E418161CF0DA
:104F0000C501B40102C0C701B6010F94E7B60F9402
:104F100014C46093080220E030E0A901C301B2018B
:104F20000F94D9BB20E030E040E251E418164CF079
:104F3000C65EDE4F688179818A819B81CA51D140EA
:104F400002C0C301B2010F94E7B60F9414C460937A
:104F5000090240E050E06FE58AE00F941B5C60912D
:104F600045027091460280914702909148020F9449
:104F700014C4AB016DE489E00F941B5C20E030E0C9
:104F800040E251E4609145027091460280914702EF
:104F9000909148020F94E7B60F9414C40AE010E011
:104FA000CB01B8010F94BDC6AC016EE489E00F944B
:104FB0001B5C6091490270914A0280914B02909172
:104FC0004C020F9414C4AB016FE489E00F941B5C96
:104FD00020E030E040E251E46091490270914A02E1
:104FE00080914B0290914C020F94E7B60F9414C439
:104FF000CB01B8010F94BDC6AC0160E589E00F9408
:105000001B5C809108021AE0612F0F949CC6482F08
:10501000880F550B61E589E00F941B5C80910802B5
:10502000612F0F949CC6492F990F550B62E589E0BB
:105030000F941B5C80910902612F0F949CC6482F2E
:10504000880F550B63E589E00F941B5C8091090282
:10505000612F0F949CC6492F990F550B64E589E089
:105060000F941B5CBCC18091011A882311F40C942D
:10507000E65C8091511A81110C94E65CCDB6DEB6E7
:105080008091690890916A080F94C738E2E0FAE1CC
:10509000DF010D900020E9F78DB79EB78A1B9B0BAF
:1050A0009C012250364E0FB6F8943EBF0FBE2DBF66
:1050B0000DB71EB70F5F1F4FFF93EF9385E198E089
:1050C0009F938F931F930F930F948ABB780134E0C3
:1050D000E30EF11C0F900F900F900F900F900F9018
:1050E000D7018C91882349F0082E000C990B0F945E
:1050F0006AC9F70181937F01F3CFC8010F9481033F
:1051000081E198E00F9412030FB6F894DEBE0FBE53
:10511000CDBE0C94E65C81E080936D1180912102FC
:1051200090912202926090932202809321020C942B
:10513000E65C80912102909122029160909322027C
:10514000809321020C94E65C8091210290912202CE
:10515000806890932202809321020C94E65C40E0E8
:1051600050E062E18AE00F941B5C0C94E65C40E046
:1051700050E06CE18AE00F941B5C80E00F940F0319
:105180001092811D1092801D10927F1D81E08093EE
:105190006B080C94E65C10926D111092E111E6E040
:1051A000F8E084918F01882351F0082E000C990BB0
:1051B0000F946B7D0F5F1F4FF8018491F4CF109215
:1051C0006B080E945F6481E00F940F0340E050E0A1
:1051D00065E08AE00F941B5C0C94E65C8091AC1156
:1051E0009091AD11892B29F01092AD111092AC1154
:1051F00008C080916109909162099093AD118093EC
:10520000AC110F94B3401092811D0C94E65C809118
:10521000AE119091AF11892B29F01092AF1110921D
:10522000AE1108C080915E0990915F099093AF1113
:105230008093AE110F94B3401092801D0C94E65CE5
:105240008091A6119091A711892B29F01092A71196
:105250001092A6111CC08091B3089091B40860917F
:10526000B1087091B208681779072CF4BC01990F46
:10527000880B990B04C0072E000C880B990B0F9418
:10528000DFBB0F9414C47093A7116093A6110F9401
:105290006F4010927F1D0C94E65C82E098E00F94C2
:1052A00012030C94E65C40E050E06EE18AE00F945B
:1052B0001B5C0C94E65C40E050E065E08AE00F94F3
:1052C0001B5C10926D111092E111E7EFF7E08491F1
:1052D0008F01882351F0082E000C990B0F946B7DE1
:1052E0000F5F1F4FF8018491F4CF10926B0888E78D
:1052F00093E09093C4028093C3020F9450680C947F
:10530000E65C40E050E06AE18AE00F941B5C0F9499
:10531000C3338091011A882311F40C94E65C8091C8
:10532000961180939711BEE6EB2EB1E1FB2E12E8A9
:10533000C12E11E1D12E00E010E08091961190E095
:1053400008171907FCF462E07AE189E79AE10F9403
:1053500038755701D7018D919D917D010F94C73804
:10536000F50180819181D6018D939D936D0180918E
:10537000511A882321F082E09AE10F945C3D0F5F7F
:105380001F4FDBCF87E090E00F9433120C94E65C64
:105390008091C3029091C4028036974041F488E71F
:1053A00093E09093C4028093C3020F94506840E04E
:1053B00050E068E08AE00F941B5C81E48093E61182
:1053C000809167098823D1F040E061E081E00E948C
:1053D00033D80F9419448091E6118E3489F48FEFFD
:1053E0009FEFDC018093970290939802A09399021B
:1053F000B0939A0210926C080C943A6441E0E5CFA5
:1054000081E00F940F031092E61184EF97E00F9460
:1054100012030F9419448091E6118E3401F340E099
:1054200050E06BE08AE00F941B5C0C94E65C40E07B
:1054300050E064E08AE00F941B5C0C94E65C40E072
:1054400050E064E28AE00F941B5C80917E1D8260D4
:1054500080937E1D89E48093E61140E050E060E295
:1054600089E00F941B5C6091610970916209072EBD
:10547000000C880B990B0F94DFBB40E050E00F94B9
:10548000C5840F9450686BE974E085E797E10F9449
:10549000707D6EE974E085E797E10F94707D60910F
:1054A000150370911603809117039091180342E041
:1054B00050E00F941D3762EA74E085E797E10F949E
:1054C000707D2DEB37E346E05EE360910D03709154
:1054D0000E0380910F03909110030F9468C342E074
:1054E00050E00F941D3766EA74E085E797E10F946A
:1054F000707D2DEB37E346E05EE36091050370912C
:10550000060380910703909108030F94E7B642E0E9
:1055100050E00F941D3760915E0970915F09072E6E
:10552000000C880B990B0F94DFBB41E050E00F9407
:10553000C5840F9450686BE974E085E797E10F9498
:10554000707D6EE974E085E797E10F94707D60915E
:10555000190370911A0380911B0390911C0342E080
:1055600050E00F941D3762EA74E085E797E10F94ED
:10557000707D2DEB37E346E05EE36091110370919F
:10558000120380911303909114030F9468C342E0B7
:1055900050E00F941D3766EA74E085E797E10F94B9
:1055A000707D2DEB37E346E05EE360910903709177
:1055B0000A0380910B0390910C030F94E7B642E02D
:1055C00050E00F941D371092E6110E945F6440E096
:1055D00050E06BE084E10F941B5C40E050E065E13B
:1055E0008AE00F941B5C81E00F940F0384E48093A6
:1055F00066128093E6110C94E65C40E050E068E2AD
:105600008AE00F941B5C0C94E65C40E050E062E1A1
:105610008AE00F941B5C0C94E65C10926D11109262
:10562000E111E9EEF7E084918F01882351F0082E13
:10563000000C990B0F946B7D0F5F1F4FF801849145
:10564000F4CF10926B080E945F6440E050E065E088
:105650008AE00F941B5C0C94E65C40E050E062E151
:105660008AE00F941B5C0C94E65C82E580931D023B
:1056700080917E1D816080937E1D40E050E06BE54F
:1056800081E20F941B5C40E050E06CE581E20F94F6
:105690001B5C40E050E060E08BE10F941B5C40E05D
:1056A00050E06AE781E20F941B5C40E050E069E75C
:1056B00081E20F941B5C40E050E06DE18AE00F94C2
:1056C0001B5C8FEF8093FA090C94E65C40E050E09D
:1056D0006CE68AE00F941B5C0C94E65C40E050E0C2
:1056E00062E18AE00F941B5C40E050E06BE581E2F0
:1056F0000F941B5C40E050E06CE581E20F941B5C72
:1057000040E050E060E08BE10F941B5C40E050E033
:105710006AE781E20F941B5C40E050E069E781E2B8
:105720000F941B5C80917E1D8E7F80937E1D0C9458
:10573000E65C10926D111092E111EEEDF7E08491AC
:105740008F01882351F0082E000C990B0F946B7D6C
:105750000F5F1F4FF8018491F4CF10926B0840E067
:1057600050E065E08AE00F941B5C40E050E06BE5A0
:1057700081E20F941B5C40E050E06CE581E20F9405
:105780001B5C40E050E060E08BE10F941B5C40E06C
:1057900050E06AE781E20F941B5C40E050E069E76B
:1057A00081E20F941B5C80917E1D8E7F80937E1D15
:1057B0000C94E65C41E050E06BE581E20F941B5CE9
:1057C00040E050E06CE581E20F941B5C41E050E06A
:1057D00060E08BE10F941B5C41E050E06AE781E2FE
:1057E0000F941B5C41E050E069E781E20F941B5C81
:1057F0001092FA090C94E65C40E050E06BE581E21F
:105800000F941B5C41E050E06CE581E20F941B5C5F
:1058100041E050E060E08BE10F941B5C41E050E020
:105820006AE781E20F941B5C41E050E069E781E2A6
:105830000F941B5C81E08093FA090C94E65C8091E4
:10584000C3029091C4028036974041F488E793E008
:105850009093C4028093C3020F9450688091FA0918
:105860008F3F11F40C94E65C0F94A0B10C94E65CAD
:105870008091C3029091C4028036974041F488E73A
:1058800093E09093C4028093C3020F945068E09118
:10589000FA09EF3F11F40C94E65C81E08093E41187
:1058A000F0E0EE0FFF1FE455FE4E84E091E091839F
:1058B00080830F94B34081E48093E61140E050E090
:1058C00068E08AE00F941B5C80916709882311F0DF
:1058D00040E001C041E061E081E00E9433D80F94D4
:1058E00019448091E6118E3409F479CD80E090E07E
:1058F000A3E4B3E48093CF119093D011A093D1117E
:10590000B093D2118090E6099090E709A090E80941
:10591000B090E9092091CB113091CC114091CD117B
:105920005091CE116091C7117091C8118091C91129
:105930009091CA11AAEB6A2EA1E17A2E7F926F9202
:10594000B3EDCB2EB1E1DB2EE12CF12C03E413E41B
:105950000E9478C60F9419440F900F908091E61121
:105960008E3409F43CCD80E090E0A0E2B1E4809375
:10597000CB119093CC11A093CD11B093CE11809008
:10598000E2099090E309A090E409B090E509E09065
:10599000CF11F090D0110091D1111091D2116091DE
:1059A000C7117091C8118091C9119091CA117F924D
:1059B0006F9220E030E040E251E40E9478C60F94FC
:1059C00019440F900F908091E6118E3409F407CDA1
:1059D0008091FA09811111C080E090E00F94DC23DE
:1059E00080E090E0ADE9B2E48093C7119093C811D4
:1059F000A093C911B093CA1120C081E090E00F9428
:105A0000DC2320E030E048EC51E46091AF0270917B
:105A1000B0028091B1029091B2020F9479C220E05D
:105A200030E046E552E40F9479C26093C711709359
:105A3000C8118093C9119093CA11E090CF11F090D2
:105A4000D0110091D1111091D2112091CB11309130
:105A5000CC114091CD115091CE116091C711709130
:105A6000C8118091C9119091CA11EAEFF9E0FF9332
:105A7000EF93812C912CE8E4AE2EE3E4BE2EF3EDFF
:105A8000CF2EF1E1DF2E0E9478C60F9419440F90BB
:105A90000F908091E6118E3409F4A1CC1092E6119A
:105AA0000E945F6440E050E065E28AE00F941B5C76
:105AB0000C94E65C80917E1D877C846080937E1DC3
:105AC0000C94E65C80917E1D837D806180937E1DB9
:105AD0000C94E65C80917E1D837E806280937E1DA7
