:100000000C946D170C949E170C949E170C949E17CD
:100010000C949E170C949E170C949E170C949E178C
:100020000C949E170C949E170C949E170C949E177C
:100030000C949E170C949E170C949E170C94B591DB
:100040000C949E170C949E170C949E170C949E175C
:100050000C949E170C949E170D9488120D946110A9
:100060000C949E170C94EEDE0C94C5DE0C949E1737
:100070000C949E170C949E170C949E170C949E172C
:100080000C946B9D0C949E170C949E170C949E17C9
:100090000C949E170C949E170C949E170C949E170C
:1000A0000C949E170C949E170C949E170C949E17FC
:1000B0000C949E170C949E170C949E170C949E17EC
:1000C0000C949E170C949E170C949E170C9490DE23
:1000D0000C9467DE0C949E170C949E170C949E173C
:1000E0000C949E1731345458493426315458632B9C
:1000F00054586D2B545854584C3FAC2B54585458AA
:10010000B727B22754585340545854585458FE45B2
:1001100006467C4B844B7B4E54584D468B46C94615
:10012000A24726479A408C40193164475458682B9F
:100130000F284A2BED3070420E31654B07520331C8
:10014000F8306D4B754B54583B340E46EA3C174320
:10015000752BC627BC275458FE3A972C644E54582A
:100160006C4EE02D8C4B0A37F22AA64FB73BE25279
:100170006B37DC4B1646834EE62CD335D3358535AD
:10018000CC373138002EC32BDA2B892B2F2EAD27FD
:10019000C1275458545854587B34952EB72E052CEB
:1001A0001242EF411E4626462D4635463D464546FF
:1001B000D746DF46E746EF46F746FF4606470E4777
:1001C00016471E472648B0479C486D4AF749814963
:1001D0005458744E572EDA2EEE2F7B3492359A35C2
:1001E000B8355D4BE34D094E584E554B9A3DEE27C1
:1001F0000D580A34545854584B565458B941A840D5
:100200000E396839C13999383B399439EE39743A25
:10021000483A42332E3351413331F631C032F7324E
:1002200052565333F9331C3A54585458545854586E
:100230005458545854585458545870420B2C132C3A
:10024000392C9857D457F64D284E8C4B584E8B4E20
:100250008A4F54586D52CA520A525752A650EF5202
:100260005458BF50753E9954543F2C40DC54545858
:1002700054586F53B85303544E546853FC52275389
:100280001F5520567757545854582E575458545881
:1002900087575458EE2CF751AD50C8508C5193519C
:1002A0004A2BFE51997D777E3F7F1A7F9B7E1A7F76
:1002B000F57EBE7DE37D087EBA7FDF7F04802980E6
:1002C000527E2D7ED07EF0011C02C401DE010A02A6
:1002D000CC01FA011602F8010E02E601C801020281
:1002E000DA01CC01B801F401D401D201CA01DC0168
:1002F000D00100021E02C60114020C021802EA011B
:1003000020021A02D6011E02C201E801FC011202FB
:10031000C001E001BE01BA01EC01F201FE01CE0113
:100320000402E201084AD73B3BCE016E84BCBFFD0C
:10033000C12F3D6C74319ABD56833DDA3D00C77FB5
:1003400011BED9E4BB4C3E916BAAAABE000000804E
:100350003F05A84CCDB2D44EB93836A9020C50B9DD
:10036000918688083CA6AAAA2ABE000000803F0009
:100370000D94DD0E0D9462130D94092D0D94481308
:100380000D941F130D94F60F0D94A20E0D94A50F4E
:100390000D94CF0E0D94820F0D94EA0E0D948D13D3
:1003A0000D94910F0D947D0F0D94E50E0D94EC0FAF
:1003B0000D9491940D94D70E0D94870F0D94A60E65
:1003C0000D943B130D9497130D9482940D94C90EC4
:1003D0000D9400100D94C90F0D946F130D94839418
:1003E0000D94B00E0D9489130D94E10E0D948104BB
:1003F0000D94C10E0D94B70E0D940A100D948B132D
:100400000D949B0F0D94D30E0D948F130D94DA2A37
:100410000D9482040D94AC0E0D94B50F0D94C50E81
:100420000D94D2910D9412130D94AD0F0D94BB0E3B
:100430000D94BF0F0D94E20F0D94B30E0D94141094
:100440000D94D30F4E414E494E495459494E46CD15
:10045000CCCC3D0AD7233C17B7D13877CC2B32957B
:1004600095E6241FB14F0A000020410000C8420059
:10047000401C4620BCBE4CCA1B0E5AAEC59D7463C0
:1004800064696E6F70737578585B003B202020752F
:100490007365526166742C2564004D3630352053E7
:1004A00025640047333400494E464F3A20424544C4
:1004B0002043414C4942202D200053757266696EDD
:1004C0006720300A00473238205830205930005415
:1004D0003000543100543000543000537572666956
:1004E0006E6720300A004734330047343300473406
:1004F0003100473430004733340047343300473449
:10050000330047343100473430004D3834004D3823
:1005100034004D3834005A32204F66667365743AA1
:1005200020004F4B207365636F6E642045787472B2
:1005300075646572210A005A20706F736974696F5F
:100540006E3A20005A20706F736974696F6E3A209A
:10055000004D3834005A312050726F6265206F664A
:10056000667365743A20004F4B206669727374207D
:10057000457874727564657221200A005A20706F84
:10058000736974696F6E3A20005A20706F736974D2
:10059000696F6E3A200043616C63756C75733A2025
:1005A000200043616C63756C75733A2020004361D1
:1005B0006C63756C75733A20200043616C63756CD5
:1005C00075733A2020003630206465677265657364
:1005D000200A0054300054300054300043616C69EC
:1005E00062726174696F6E205375636365737366BD
:1005F000756C0A005430004A756D70206F76657214
:100600002073637265773120616E64207363726555
:100610007732200A004A756D70206F7665722073FC
:100620006372657731200A00473334004733340062
:100630004733340054300047333400494E464F3A74
:10064000204245442043414C4942202D20004C6F1C
:100650006164696E670A0053757266696E6720305F
:100660000A0053757266696E6720300A005375720E
:1006700066696E6720300A002533642025634300D5
:10068000253364202563430025336420256343001C
:1006900050757267652046696C616D656E740A00FD
:1006A00025336420256343002533642025634300FC
:1006B00025336420256343002533642025634300EC
:1006C00025336420256343002533642025634300DC
:1006D00025336420256343002533642025634300CC
:1006E00053757266696E6720300A005375726669C9
:1006F0006E6720300A00543000466F756E640A0041
:1007000053757266696E6720300A004D33340053AA
:10071000757266696E6720300A004D3234004D32C2
:1007200033202573004D3234004D323320257300C1
:10073000546865206669727374206C6179657220F3
:100740007072696E74656420776974682074686576
:1007500020257320486F74656E640A77696C6C207D
:10076000626520646973746F7274656420627920B5
:1007700025642E253164253164206D6D005375721A
:1007800066696E6720300A0053757266696E67206D
:10079000300A0053757266696E6720300A0053553F
:1007A00043434553530A0025336420256343002502
:1007B00033642025634300253364202563430025EB
:1007C00033642025634300253364202563430025DB
:1007D00033642025634300253364202563430025CB
:1007E0003364202563430025336420256343004C94
:1007F0006F6164696E673A0A00253364202563439C
:10080000002533642025634300253364202563439A
:100810000050757267652046696C616D656E742065
:100820000A005374617274696E67205A2043616CC8
:100830006962726174696F6E2057697A6172640AC5
:10084000000A00205A3A200020593A200020583A45
:10085000200042656400456E642066696C65206C0A
:100860006973740A00426567696E2066696C652069
:100870006C6973740A00426564204865617465643C
:100880000A0020573A00204500205A00205900480D
:100890003D58007A5F6D696E3A2000795F6D61782E
:1008A0003A2000785F6D61783A2000785F6D696E5C
:1008B0003A2000486F74656E64206F6666736574D5
:1008C000733A00504944204175746F74756E652009
:1008D00066696E6973686564212050757420746858
:1008E00065206C617374204B702C204B6920616E05
:1008F00064204B6420636F6E7374616E7473206642
:10090000726F6D2061626F766520696E746F20432F
:100910006F6E66696775726174696F6E2E680A0022
:10092000504944204175746F74756E652066616925
:100930006C6564212074696D656F75740A002040D0
:100940003A006F6B20543A006F6B20423A005049D6
:1009500044204175746F74756E65206661696C65BD
:1009600064212054656D70657261747572652074C0
:100970006F6F20686967680A00204B643A20002086
:100980004B693A2000204B703A200020436C617381
:1009900073696320504944200A002054753A2000AE
:1009A000204B753A2000206D61783A2000206D6957
:1009B0006E3A200020643A200020626961733A2078
:1009C00000535441544953544943532052455345CD
:1009D000540A002C2073617665645F466C61675F22
:1009E00066616E6C617965725F6D6972726F723A81
:1009F00020002C2073617665645F666565647261B2
:100A000074653A20002C2073617665645F66616EC0
:100A10006C617965723A20002C2073617665645FA1
:100A200074656D706265643A20002C207361766590
:100A3000645F74656D70303A20002C2073617665B8
:100A4000645F74656D70313A20002C2073617665A7
:100A5000645F66696C65706F736974696F6E3A2064
:100A6000002C2073617665645F655F706F736974D5
:100A7000696F6E3A20002C2073617665645F746F35
:100A80006F6C5F6163746976653A20002C20736136
:100A90007665645F7A5F706F736974696F6E3A2010
:100AA000002C2073617665645F795F706F73697481
:100AB000696F6E3A20002C2073617665645F785F01
:100AC000706F736974696F6E3A2000534156452008
:100AD0005052494E54204C4F473A0A006563686FA4
:100AE0003A005072696E74207265636F7665727930
:100AF0002075700A004E6F74207072696E742072D7
:100B000065636F766572792075700A0053554343AB
:100B10004553530A0056616C756573206F757420D8
:100B20006F662072616E67650A0056616C75657349
:100B3000206F7574206F662072616E67650A0056BB
:100B4000616C756573206F7574206F662072616EBD
:100B500067650A0056616C756573206F7574206F48
:100B6000662072616E67650A00504F534954494FC1
:100B70004E20484F4D453A2000220A00556E6B6EBC
:100B80006F776E20636F6D6D616E643A2022005244
:100B90006561647920746F2053746172740A006710
:100BA000636F646520666F756E640A0020746F2041
:100BB000537461727420446973706C617920667239
:100BC0006F6D20526573657400546F6F6B20006405
:100BD0006973706C6179206F6E6C696E6521002E8F
:100BE00000466F726D2032210A00526561647920DF
:100BF000746F204C6F61642F556E6C6F6164200AB6
:100C00000025642525002533642025634300253312
:100C1000642025634300253364256343202F20256A
:100C2000336425634300253364256343202F202547
:100C3000336425634300253364256343202F202537
:100C40003364256343005072696E74204A6F6220DA
:100C500046696E6973686564004D383420582059C0
:100C6000205A2045004D3130370054300053757202
:100C700066696E672030200A0043616C69627261A8
:100C800074696F6E205375636365737366756C0A60
:100C9000005430004D383420582059205A20450047
:100CA000496E7374616C6C202564202573206F6E0F
:100CB0002074686520257320686F74656E64004336
:100CC000616C63756C75733A20200043616C6375C9
:100CD0006C75733A20200043616C63756C75733AD0
:100CE000202000496E7374616C6C2025642025738C
:100CF000206F6E2074686520257320686F74656EA0
:100D00006400253364202563430025336420256374
:100D1000430050757267652046696C616D656E743D
:100D20000A0053757266696E6720310A0053757246
:100D300066696E6720300A00220A00656E7175656B
:100D4000696E67202200220A00656E717565696E02
:100D500067202200202F0020400020403A0024F489
:100D6000D43050C38E20C2A24017828B7011127AE9
:100D7000910D816CD90AA861E108C75866076151D5
:100D800043061E4B5D05C145A7041A411104093DE8
:100D90009803713931034036DB0265339102D43058
:100DA0005402802E1D02632CEE01752AC501B02865
:100DB000A001102781018F2564012B244B01E02223
:100DC0003401AC211F018D200D01801FFC00841E09
:100DD000ED00971DDF00B81CD200E61BC600201BEB
:100DE000BC00641AB200B219A8000A19A0006A185F
:100DF0009900D117910040178B00B5168400311669
:100E00007E00B31579003A157300C7146F005814AB
:100E10006A00EE1366008813630025135E00C71294
:100E20005B006C12570015125400C1115100701173
:100E30004F0021114B00D61049008D10470046107D
:100E4000440002104200C00F4000800F3E00420FDD
:100E50003C00060F3B00CB0E3800930E37005C0EB3
:100E60003500270E3400F30D3200C10D3100900D16
:100E70003000600D2E00320D2D00050D2C00D90C18
:100E80002B00AE0C2900850C29005C0C2700350CCA
:100E900027000E0C2600E80B2400C40B2400A00B36
:100EA00023007D0B23005A0B2100390B2100180B66
:100EB0002000F80A1F00D90A1E00BB0A1E009D0A66
:100EC0001D00800A1D00630A1C00470A1B002C0A33
:100ED0001B00110A1A00F7091A00DD091900C409DC
:100EE0001900AB091900920917007B091800630962
:100EF00017004C09160036091600200916000A09C9
:100F00001500F5081500E0081400CC081400B80816
:100F10001400A4081400900813007D0812006B0848
:100F20001300580812004608120034081100230864
:100F300011001208110001081100F0071000E0076D
:100F40001000D0071000C0071000B0070F00A10765
:100F5000100091070E0083070F0074070F0065074C
:100F60000E0057070E0049070E003B070D002E0725
:100F70000E0020070D0013070D0006070D00F906EF
:100F80000C00ED060D00E0060C00D4060C00C806AF
:100F90000C00BC060C00B0060C00A4060B00990661
:100FA0000C008D060B0082060B0077060B006C060A
:100FB0000B0061060A0057060B004C060A004206A9
:100FC0000A0038060A002E060A0024060A001A063D
:100FD0000A001006090007060A00FD050900F405CD
:100FE0000900EB050900E2050900D9050900D00553
:100FF0000900C7050900BE050900B5050800AD05D3
:101000000800A50509009C050800940508008C054A
:101010000800840508007C050800740508006C05BC
:101020000700650508005D050700560508004E0528
:10103000070047050700400508003805070031058F
:1010400007002A050700230507001C0506001605F2
:1010500007000F0507000805060002050700FB044E
:101060000600F5040700EE040600E8040600E204AA
:101070000700DB040600D5040600CF040600C904FF
:101080000600C3040600BD040600B7040600B10450
:101090000500AC040600A6040600A00405009B049D
:1010A000060095040500900406008A0405008504E6
:1010B0000500800406007A0405007504050070042C
:1010C00005006B04050066040500610405005C046E
:1010D000050057040500520405004D0405004804AE
:1010E0000500430405003E0404003A0405003504ED
:1010F0000500300404002C04050027040400230428
:1011000005001E0404001A0404001604050011045E
:1011100004000D0404000904050004040400000494
:101120000400FC030400F8030400F4030400F003CB
:101130000400EC030400E8030400E4030400E003FB
:101140000400DC030400D8030400D4030400D0032B
:101150000400CC030400C8030300C503030024F407
:1011600004D9201BC40C5C0E9804C4095F026507F7
:101170007101F405F900FB04B30048048700C103C2
:1011800069005803550003034500BE023A0084027B
:10119000310053022A002902250004022000E40144
:1011A0001C00C8011900AF01170098011400840148
:1011B0001300710110006101100051010E00430184
:1011C0000D0036010B002B010B0020010B00150157
:1011D00009000C01090003010800FB000800F300EE
:1011E0000800EB000700E4000600DE000600D8005F
:1011F0000600D2000600CC000500C7000500C200B2
:101200000500BD000400B9000400B5000400B100F1
:101210000400AD000400A9000400A5000300A20022
:1012200003009F0004009B0003009800030095004A
:10123000020093000300900003008D0002008B0069
:101240000300880002008600020084000300810081
:1012500002007F0002007D0002007B000200790096
:1012600002007700010076000200740002007200A4
:101270000100710002006F0002006D0001006C00AF
:1012800002006A00010069000200670001006600B8
:1012900001006500010064000200620001006100BD
:1012A0000100600001005F0002005D0001005C00C1
:1012B00001005B0001005A000100590001005800C4
:1012C00001005700010056000100550001005400C4
:1012D00001005300000053000100520001005100C2
:1012E0000100500001004F0001004E0000004E00C0
:1012F00001004D0001004C0001004B0000004B00BC
:1013000001004A00010049000100480000004800B7
:1013100001004700010046000000460001004500B2
:1013200000004500010044000100430000004300AC
:1013300001004200000042000100410000004100A5
:101340000100400001003F0000003F0001003E009E
:1013500000003E0001003D0000003D0001003C0097
:1013600000003C0000003C0001003B0000003B008E
:1013700001003A0000003A00010039000000390085
:10138000010038000000380000003800010037007C
:101390000000370001003600000036000000360073
:1013A0000100350000003500000035000100340068
:1013B000000034000000340001003300000033005E
:1013C0000000330001003200000032000000320053
:1013D0000100310000003100000031000100300048
:1013E000000030000000300001002F0000002F003E
:1013F00000002F0000002F0001002E0000002E0032
:1014000000002E0001002D0000002D0000002D0026
:1014100000002D0001002C0000002C0000002C001A
:1014200000002C0001002B0000002B0000002B000E
:1014300000002B0001002A0000002A0000002A0002
:1014400000002A00010029000000290000002900F6
:1014500000002900000029000100280000002800E9
:1014600000002800000028000000280001002700DC
:1014700000002700000027000000270000002700D0
:1014800001002600000026000000260000002600C3
:1014900000002600010025000000250000002500B6
:1014A00000002500000025000000250001002400A8
:1014B000000024000000240000002400000024009C
:1014C000010023000000230000002300000023008F
:1014D0000000230000002300000023000100220080
:1014E0000000220000002200000022000000220074
:1014F0000000220001002100000021000000210066
:101500000000210000002100000021000000210057
:10151000010020000000200000002000000020004A
:10152000000020000000200000002000000020003B
:1015300001001F0000001F0000001F0000001F002E
:1015400000001F0000001F0000001F0001001E001F
:1015500000001E0000001E0000001E000000447578
:10156000616C204D6F6465204F4E0A004475616CBC
:10157000204D6972726F72204D6F6465204F4E0A64
:10158000004475616C204D6F6465204F46460A002B
:10159000436F6F6C696E6720446F776E204865619A
:1015A0007465720A005072696E7465722068616CAD
:1015B0007465642E206B696C6C28292063616C6CE7
:1015C0006564210A004572726F723A0020636F6C85
:1015D0006420657874727573696F6E2070726576B9
:1015E000656E7465640A006563686F3A005355431D
:1015F000434553530A0056616C756573206F7574CB
:10160000206F662072616E67650A0056616C7565B1
:1016100073206F7574206F662072616E67650A00B3
:1016200056616C756573206F7574206F66207261EA
:101630006E67650A0056616C756573206F7574205E
:101640006F662072616E67650A0020502000205A84
:10165000200020592000536574204D353330205828
:1016600020004D6F64652032203A206379636C65F9
:101670002020202D3E205247423A203620737461AC
:10168000746573002A2A2D3E20004D6F6465203159
:10169000203A2072616E646F6D20202D3E205247EB
:1016A000423A202B31202B32202B332C20647572B0
:1016B000696E67207072696E74696E67002A2A2DE0
:1016C0003E20004D6F64652030203A2064656661DD
:1016D000756C74202D3E205247423A203235352019
:1016E00032353520323535002A2A2D3E20004C6512
:1016F00064206D6F646573203A004D353336204C9D
:101700005B6D6F64655D00486F74656E64206F6625
:1017100066736574733A0054696D6520696E616320
:10172000746976650A005075726765206469737420
:10173000616E63650A005A204F6666736574206F98
:101740006B0A005A204F6666736574203A200A00BF
:101750007A5F6D61783A20007A5F6D696E3A200099
:101760005A204F666673657400504F534954494F71
:101770004E20484F4D453A2000000020002300260F
:101780000029002C002F0032000001000003010698
:1017900001090105050505070508080808020202F8
:1017A000020A0A08080404040401010101010101FC
:1017B000010303030303030303040707070C0C0CD3
:1017C0000C0C0C0C0C0202020206060606060606AB
:1017D000060B0B0B0B0B0B0B0B0102102020080848
:1017E0001020401020408002010201080402010183
:1017F000020408102040808040201008040201806C
:1018000004020180402010080402010804020101C2
:1018100002040810204080010204081020408000CB
:10182000000A0B02090C0D0E08070304010000005A
:1018300000000000000000000000000000000000A8
:101840000000000000000000000000121110000065
:101850000000000000000000000000000000000088
:101860000000000000202D20496E76616C69642024
:101870006578747275646572206E756D626572202C
:10188000210A004572726F723A00646973706C616C
:1018900079206F66666C696E650042434E33442062
:1018A0005369676D61780A0073746172740A006528
:1018B00063686F3A0030322D312E322E390A0065BE
:1018C00072726F722077726974696E6720746F200C
:1018D00066696C650A00205A3A0020593A0020587F
:1018E0003A00656E6473746F7073206869743A208F
:1018F000006563686F3A00446F6E652073617669B6
:101900006E672066696C652E0A006F6B0A004D32A7
:1019100039005341564544205052494E540A007AEA
:1019200070726F62653A20005344206361726420D4
:101930006F6B0A006F70656E526F6F74206661691D
:101940006C65640A00766F6C756D652E696E6974DE
:10195000206661696C65640A004572726F723A00B4
:10196000534420696E6974206661696C0A0065637E
:10197000686F3A004D3234004D32332025730061D8
:1019800075746F25692E67000A0020616E7469689E
:101990006F726172690A3A200020686F7261726921
:1019A0000A20002F3800766F6C7465732000205673
:1019B0006F6C74657320636172676F6C20333A20BB
:1019C0000020616E7469686F726172690A3A200062
:1019D00020686F726172690A20002F3800766F6C80
:1019E000746573200020566F6C7465732063617298
:1019F000676F6C20323A20000A0020647A333A2064
:101A00000020647A323A20005431005430005430BF
:101A1000005430000A0056756974656E73333A20BD
:101A200020004170726F78333A202000566F6C743A
:101A30006573333A2020000A0056756974656E7329
:101A4000323A2020004170726F78323A20200056DE
:101A50006F6C746573323A20200056616C6F72208F
:101A6000645A333A20200056616C6F7220645A32F7
:101A70003A2020004E6577206F6666736574207685
:101A8000657273696F6E3A20007A335F313A2000D5
:101A90007A325F313A20005A7363726F6C6C5F3137
:101AA0003A20007A335F303A20007A325F303A20B1
:101AB000005A7363726F6C6C5F303A2000706C6117
:101AC0006E654E6F726D616C5F312E7A3A200070D8
:101AD0006C616E654E6F726D616C5F312E793A206C
:101AE00000706C616E654E6F726D616C5F312E7847
:101AF0003A2000706C616E654E6F726D616C5F3084
:101B00002E7A3A2000706C616E654E6F726D616C5A
:101B10005F302E793A2000706C616E654E6F726D89
:101B2000616C5F302E783A20005A76616C756520C2
:101B3000616674657220686F6D653A00486F6D6507
:101B400020582F59206265666F7265205A0A00CDB1
:101B5000AC034400809343000052430000000000A7
:101B6000000000000000000A00207A3A20002079DE
:101B70003A200020783A200042656400457874726B
:101B8000756465722072656C65617365642061635C
:101B9000746976653A20005A205349474D412048E0
:101BA0006F6D65640A0045787472756465722061B2
:101BB00063746976653A20004D383400537461725D
:101BC00074696E6720582043616C69627261746940
:101BD0006F6E2057697A6172640A00536574746984
:101BE0006E67732053746F7265640A00204D696ECE
:101BF00075746573203A0020204C617374207072F4
:101C0000696E742074696D652D3E20486F7572731E
:101C1000203A004C617374207072696E7420647590
:101C2000726174696F6E0A002C20546869726420B6
:101C30004944206E756D62657220002C20536563E7
:101C40006F6E64204944206E756D6265723A2000A3
:101C500020204669727374204944206E756D626558
:101C6000723A2000554920496E666F726D61746941
:101C70006F6E2053657269616C204E756D6265727E
:101C80003A0A00206D2C204531207072696E742054
:101C900064697374616E63653A2000206B6D2C205B
:101CA0004530207072696E742064697374616E636C
:101CB000653A2000206B6D2C2059207072696E747B
:101CC0002064697374616E63653A2000206B6D2C2B
:101CD000205831207072696E742064697374616E6B
:101CE00063653A200020432C0A2058302070726926
:101CF0006E742064697374616E63653A20002043DA
:101D00002C206D61782074656D7020423A2000208F
:101D1000432C206D61782074656D7020523A20004C
:101D20002C206D61782074656D70204C3A2000681D
:101D30002C207072696E74732066696E69736865B1
:101D4000643A20002C207072696E74696E6720748A
:101D5000696D653A200020207072696E74733A20B4
:101D60000053544154533A0A0020432C20525F50F0
:101D700052494E543A200020432C20525F424544A1
:101D80003A200020432C20525F52454D4F56453A91
:101D900020002020525F494E534552543A200054AF
:101DA000656D70202843293A0A0020432C204C5F9F
:101DB0005052494E543A200020432C204C5F42455B
:101DC000443A200020432C204C5F52454D4F56454D
:101DD0003A200020204C5F494E534552543A20008F
:101DE00054656D70202843293A0A0020562856650C
:101DF0007273696F6E292000205228426564207238
:101E00006967687420736372657729200020204D0C
:101E1000353331204C28426564206C65667420732C
:101E200063726577292000426564204F666673659A
:101E3000747320286D6D293A0A002050285A2070AA
:101E4000726F62652900205A20002059200020204E
:101E50004D353330205820004F666673657473200B
:101E6000286D6D293A0A00204400204900202D20C9
:101E70004D3330312052494748542050002044000F
:101E800020490020204D333031204C45465420500D
:101E9000005049442073657474696E67733A0A0090
:101EA000205A0020590020204D323036205800485A
:101EB0006F6D65206F666673657420286D6D293AB5
:101EC0000A00204500205A002058002042002054DB
:101ED0000020204D323035205300416476616E631E
:101EE0006564207661726961626C65733A20533D66
:101EF0004D696E20666565647261746520286D6D3C
:101F00002F73292C20543D4D696E207472617665C3
:101F10006C20666565647261746520286D6D2F7331
:101F2000292C20423D6D696E696D756D2073656762
:101F30006D656E742074696D6520286D73292C2081
:101F4000583D6D6178696D756D205859206A6572CC
:101F50006B20286D6D2F73292C20205A3D6D6178E0
:101F6000696D756D205A206A65726B20286D6D2F22
:101F700073292C2020453D6D6178696D756D204574
:101F8000206A65726B20286D6D2F73290A0020541A
:101F90000020204D323034205300416363656C656E
:101FA000726174696F6E3A20533D616363656C655D
:101FB000726174696F6E2C20543D72657472616336
:101FC0007420616363656C65726174696F6E0A0089
:101FD000204500205A0020590020204D3230312069
:101FE00058004D6178696D756D20416363656C655E
:101FF000726174696F6E20286D6D2F7332293A0AF1
:1020000000204500205A0020590020204D32303356
:102010002058004D6178696D756D20666565647244
:102020006174657320286D6D2F73293A0A0020456D
:1020300000205A0020590020204D393220580053EA
:10204000746570732070657220756E69743A0A0049
:1020500070012C0190012701B0012201C0011D0176
:10206000F00118011002130130020E016002090193
:1020700090020401C002FF000003FA004003F500D3
:102080008003F000D003EB002004E6007004E100C0
:10209000E004DC004005D700C005D2004006CD00BA
:1020A000D006C8008007C3003008BE00F008B900A1
:1020B000C009B400B00AAF00B00BAA00D00CA50054
:1020C000000EA000500F9B00C0109600501291000F
:1020D00000148C00C0158700B0178200B0197D0075
:1020E000D01B7800001E730040206E009022690013
:1020F000F024640040275F0090295A00E02B55002F
:10210000102E500020304B0010324600E0334100CA
:1021100090353C001037370070383200A0392D0060
:10212000B03A2800A03B2300603C1E00103D19007F
:10213000903D1400103E0F00703E0A00C03E0500A6
:10214000003F000048797374657265736973207489
:10215000656D70657261747572650A0054686572A8
:102160006D616C2072756E617761792070726F7429
:10217000656374696F6E2062792048656174657269
:102180005F49443A0A004572726F72283833293A1F
:102190002042656420746865726D6973746F722083
:1021A0006E6F742064657465637465640A004572BB
:1021B000726F72283832293A205269676874207425
:1021C0006865726D6973746F72206E6F74206465D8
:1021D0007465637465640A004572726F72283831E1
:1021E000293A204C65667420746865726D69737451
:1021F0006F72206E6F74202064657465637465640B
:102200000A002053544F50205052494E54200A0087
:102210004572726F72283833293A204265642074FF
:102220006865726D6973746F72206E6F7420646577
:102230007465637465640A002053544F50205052F3
:10224000494E54200A004572726F72283832293A7A
:1022500020526967687420746865726D6973746F61
:1022600072206E6F742064657465637465640A001F
:102270002053544F50205052494E54200A0045726A
:10228000726F72283831293A204C65667420746860
:1022900065726D6973746F72206E6F74202064654F
:1022A0007465637465640A0000002100240027003F
:1022B0002A002D0030003300010100000401070155
:1022C0000A0100002200250028002B002E0031000A
:1022D000340002010000050108010B012E2E2E2002
:1022E00054696D656F757421002A2A2A2047656E2E
:1022F00069652057726974654F626A656374202A44
:102300002A2A202D2D2D3E002E2E2E204E414B20F0
:1023100021002A2A2A2047656E6965205772697450
:10232000654F626A656374202A2A2A202D2D2D3E6E
:10233000002E2E2E2041434B2021002A2A2A2047FE
:10234000656E69652057726974654F626A6563746A
:10235000202A2A2A202D2D2D3E002A2A2A204765B0
:102360006E6965204261642042797465202A2A2AB8
:10237000202D2D2D3E203078002056616C75653A59
:10238000200020496E6465783A20002A2A2A2047D6
:10239000656E6965205265706F7274204F626A6560
:1023A0006374202A2A2A204F626A6563743A2000E7
:1023B0002A2A2A2047656E696520436F6E6E656321
:1023C000746564202F2053796E6321202A2A2A0005
:1023D0002056616C75653A200020496E6465783A34
:1023E00020002A2A2A2047656E6965205265706F91
:1023F0007274204576656E74202A2A2A204F626AFC
:102400006563743A2000204C656E6774683A20005A
:102410002A2A2A2047656E696520526563656976B8
:102420006564204D6167696320446F75626C652047
:102430004279746573202A2A2A20496E6465783AA5
:102440002000204C656E6774683A20002A2A2A20F2
:1024500047656E6965205265636569766564204DE0
:1024600061676963204279746573202A2A2A2049AA
:102470006E6465783A20002A2A2A2047656E6965CD
:10248000204E414B205265636F7665727920212181
:1024900021202A2A2A002A2A2A2047656E696520D7
:1024A000446973636F6E6E65637465642066726FF2
:1024B0006D20446F4576656E747321202A2A2A00A8
:1024C0002A2A2A2047656E696520546F6F6B207435
:1024D0006F6F206C6F6E6720746F2072652D656E54
:1024E00074657220446F4576656E747328292C20BC
:1024F0007265647563652064656C61797320696ECB
:1025000020636F64652C2073656C662D70726F7428
:10251000656374696F6E20656E61626C65642E2000
:102520002A2A2A0045787472756465722072656C77
:102530006561736564206163746976653A20005A49
:10254000205349474D4120486F6D65640A00457826
:10255000747275646572206163746976653A2000EF
:102560000000000000809343000000000000A04035
:102570000000A0400000004020004D6F76652074F0
:102580006F3A2000CDAC03440080934300005243D7
:10259000FF01FF504944204175746F74756E6520CA
:1025A00066696E6973686564210A00504944204178
:1025B00075746F74756E65206661696C6564212041
:1025C00074696D656F75740A0020403A006F6B2066
:1025D000543A006F6B20423A0050494420417574D0
:1025E0006F74756E65206661696C65642120546541
:1025F0006D706572617475726520746F6F206869A3
:1026000067680A00204B643A2000204B693A20009A
:10261000204B703A200020436C6173736963205033
:102620004944200A002054753A2000204B753A2076
:1026300000206D61783A2000206D696E3A200020FC
:10264000643A200020626961733A20003B20472DE4
:10265000436F64652067656E6572617465642062AE
:10266000792053696D706C6966793344285229204A
:1026700056657273696F6E202564003B5072696EF7
:10268000742074696D653A202564202573202564C3
:10269000202573202564202573003B54494D453A7D
:1026A000256C64003B2020204275696C64207469AD
:1026B0006D653A202564202573202564202573004C
:1026C0003B202020506C61737469632077656967D3
:1026D00068743A2025642E256467003B46696C6166
:1026E0006D656E7420757365643A2025642E2564CB
:1026F0006D2025642E256467003B46696C616D651D
:102700006E7420757365643A20256C642E256C64A4
:102710006D002520336420252500256420682025B0
:1027200064206D0025203364202525002532642097
:10273000256343002533642025634300253364204B
:1027400025634300526561647920746F204C6F618A
:10275000642F556E6C6F6164200A00256425250086
:10276000253364202563430025336420256343001B
:102770002053544F50205052494E54200A004732A3
:1027800038205830205930004D333500526573756C
:102790006D65206465746563746564200A0047375D
:1027A0003000A1524553554D4521200A00A150410A
:1027B00055534521200A0025336420256343002515
:1027C00033642025634300253364202563430025BB
:1027D00033642025634300253364202563430025AB
:1027E000336420256343002533642025634300259B
:1027F0003364202563430025336420256343005060
:1028000052494E542053455454494E4753200A00D0
:102810007C3C3E5E2B3D3F2F5B5D3B2C2A225C00C7
:102820002A2A2A2047656E696520446973636F6EA2
:102830006E65637465642066726F6D204765744EC3
:102840006578744279746521202A2A2A002A2A2A66
:102850002047656E696520456E61626C6520417434
:10286000746163684576656E7448616E646C657208
:1028700020212121202A2A2A0043616E6E6F7420B4
:10288000656E746572207375626469723A200057D0
:10289000726974696E6720746F2066696C653A208E
:1028A000002E0A006F70656E206661696C65642C8D
:1028B0002046696C653A20002E0A006F70656E2014
:1028C0006661696C65642C2046696C653A20004637
:1028D000696C652073656C65637465640A002053D8
:1028E000697A653A200046696C65206F70656E658F
:1028F000643A20002E0A006F70656E206661696C74
:1029000065642C2046696C653A20004E6F7720661E
:10291000726573682066696C653A20004E6F772097
:10292000646F696E672066696C653A2000222070CA
:102930006F73002220706172656E743A22005355E5
:1029400042524F5554494E452043414C4C207461EE
:10295000726765743A2200747279696E6720746FC9
:102960002063616C6C207375622D67636F646520F2
:1029700066696C6573207769746820746F6F206D69
:10298000616E79206C6576656C732E204D41582000
:102990006C6576656C2069733A004736392041438F
:1029A000544956415445440A0043617264204E61C3
:1029B0006D653A20002F005344207072696E74696F
:1029C0006E67206279746520004E6F742053442036
:1029D0007072696E74696E670A002E0A0044656C35
:1029E0006574696F6E206661696C65642C20466948
:1029F0006C653A200046696C652064656C65746599
:102A0000643A002E0A006F70656E206661696C651D
:102A1000642C2046696C653A2000457874727564B0
:102A20006572204865617465640A0020573A004663
:102A300049524D574152455F4E414D453A4D6172A5
:102A40006C696E2042434E3344205369676D617850
:102A50003B204649524D574152455F5645525349D6
:102A60004F4E3A30322D312E322E393B20464952CC
:102A70004D574152455F55524C3A68747470733AE1
:102A80002F2F6769746875622E636F6D2F42434EF6
:102A900033442F42434E33445369676D61782D466A
:102AA00069726D776172653B2050524F544F434FAE
:102AB0004C5F56455253494F4E3A312E303B204DD4
:102AC000414348494E455F545950453A42434E337D
:102AD00044205369676D61783B20455854525544F2
:102AE00045525F434F554E543A323B205555494469
:102AF0003A00205A3A0020593A0020436F756E740C
:102B000020583A200020453A00205A3A0020593AED
:102B100000583A0047323820583020593000256993
:102B2000206D696E2C20256920736563000A0A00F8
:102B30005374616E6461726420446576696174697E
:102B40006F6E3A20000A004D65616E3A20000A005F
:102B50002020207A3A20000A00793A2000783A2092
:102B6000003F537065636966696564206E756D62C8
:102B70006572206F66206C65677320696E206D6FCB
:102B800076656D656E74206E6F7420706C61757300
:102B900061626C652E0A003F537065636966696502
:102BA00064205920706F736974696F6E206F75743B
:102BB000206F662072616E67652E0A003F53706554
:102BC000636966696564205820706F736974696F02
:102BD0006E206F7574206F662072616E67652E0AB5
:102BE000003F5370656369666965642073616D7049
:102BF0006C652073697A65206E6F7420706C6175E6
:102C00007361626C652E0A0046756C6C207375707A
:102C1000706F72742061743A20687474703A2F2F48
:102C200033647072696E74626F6172642E636F6D6B
:102C30002F666F72756D2E7068700A004D343820E3
:102C40005A2D50726F6265205265706561746162C1
:102C5000696C69747920746573742E202020566520
:102C60007273696F6E20322E30300A003F566572E3
:102C7000626F7365204C6576656C206E6F74207092
:102C80006C61757361626C652E0A006F6B004D316B
:102C9000303700473932204530205A3020522564E1
:102CA000004E6577206C6179657220646574656398
:102CB000746564005A20686F7070696E672064657F
:102CC00074656374656400256920686F757273208C
:102CD0002569206D696E7574657300446F6E65209B
:102CE0007072696E74696E672066696C650A004D62
:102CF0003333007061757365206465746563746552
:102D000064200A00473639005072696E746572207B
:102D100073746F707065642064756520746F2065CE
:102D200072726F72732E2046697820746865206510
:102D300072726F7220616E6420757365204D39392F
:102D40003920746F20726573746172742E20285458
:102D5000656D706572617475726520697320726546
:102D60007365742E205365742069742061667465E0
:102D7000722072657374617274696E67290A006FDC
:102D80006B0A004E6F204C696E65204E756D626552
:102D900072207769746820636865636B73756D2C46
:102DA000204C617374204C696E653A20004E6F2090
:102DB000436865636B73756D2077697468206C690F
:102DC0006E65206E756D6265722C204C6173742087
:102DD0004C696E653A2000636865636B73756D209E
:102DE0006D69736D617463682C204C617374204C41
:102DF000696E653A20004C696E65204E756D62659E
:102E000072206973206E6F74204C617374204C695A
:102E10006E65204E756D6265722B312C204C61738E
:102E200074204C696E653A20004D31313000537486
:102E30006F7265642073657474696E677320726560
:102E4000747269657665640A0048617264636F64D0
:102E500065642044656661756C742053657474699B
:102E60006E6773204C6F616465640A004861726428
:102E7000636F6465642043616C696220616E6420E5
:102E80005049442044656661756C742053657474C0
:102E9000696E6773204C6F616465640A004D383455
:102EA000005374617274696E6720592043616C69C4
:102EB00062726174696F6E2057697A6172640A0088
:102EC000526573656E643A20006F6B0A00256420BA
:102ED0006974656D73001002D80111241FBECFEF15
:102EE000D1E2DEBFCDBF00E00CBF17E0A0E0B2E052
:102EF000EEE5FEE503E00BBF02C007900D92AA3D90
:102F0000B107D9F72DE1AAEDB7E001C01D92AA33B0
:102F1000B207E1F717E1CCE6D7E100E006C0219760
:102F20000109802FFE010F9492ACCB36D10780E0CF
:102F30000807A9F70F94E18B0D941EAF0C940000C5
:102F40002F923F924F925F926F927F928F929F92B9
:102F5000AF92BF92CF92DF92EF92FF920F931F93A7
:102F6000CF93DF93CDB7DEB7C353D1400FB6F894FC
:102F7000DEBF0FBECDBF2DB73EB7CE5CDE4F39836F
:102F80002883C253D14011E01093A9088091100802
:102F900081110CC00F94551060930C0870930D08AC
:102FA00080930E0890930F081093100880910408E6
:102FB00081110DC00F9455106093000870930108A3
:102FC000809302089093030881E080930408809125
:102FD0006318409120025091210260912202709169
:102FE0002302811106C090916418992311F40C9466
:102FF00074254E3851056105710509F45FC60CF062
:10300000D5C04D3351056105710509F4D2C10CF0ED
:103010005AC0403251056105710511F40C946D23BD
:1030200034F5403151056105710509F473C174F43B
:10303000413051056105710509F4A6C142305105C1
:103040006105710509F42FC30C94545842315105A0
:103050006105710509F442C214F40C94CC22433189
:1030600051056105710509F40BC20C9454584233A3
:1030700051056105710509F416C37CF4413251050F
:103080006105710511F40C945C2341335105610510
:10309000710509F4D7C10C945458453351056105A5
:1030A000710511F40C9425244A335105610571050D
:1030B00009F4FBC7443351056105710511F00C9407
:1030C00054580C941C22483551056105710509F4CA
:1030D0009AC154F5463451056105710509F488C457
:1030E0007CF4413451056105710509F40EC4443482
:1030F00051056105710511F40C94CD200C945458C0
:103100004F3451056105710509F45CC5473551051A
:103110006105710509F4C4C14E345105610571059D
:1031200011F00C945458D7C44B3751056105710503
:1031300009F4DFC274F44A3551056105710509F4DB
:10314000D8C2463751056105710509F4D6C10C9402
:103150005458483851056105710509F4E5C04938EE
:1031600051056105710509F4EAC04C375105610547
:10317000710511F00C94545840E050E06AE28AE086
:103180000F94661D40E050E06DE781E20F94661DEC
:1031900011E0109348081092E61B69E178E086E29E
:1031A0000F946E1E109318080C9454584D39510505
:1031B0006105710511F40C94C4230CF04FC045391E
:1031C00051056105710509F4E0C6F4F44139510572
:1031D0006105710509F46AC574F44F38510561053C
:1031E000710509F4C4C5403951056105710509F43B
:1031F00019C60C945458433951056105710509F4F9
:10320000E3C50CF487C53AC6483951056105710517
:1032100011F40C94FA237CF44639510561057105CB
:1032200009F486C6473951056105710511F40C94FE
:103230000B240C9454584B3951056105710511F458
:103240000C94842314F00C948D234A3951056105A4
:10325000710511F40C947B230C945458463A510593
:103260006105710509F406C21CF5423A5105610574
:10327000710509F454C07CF4403A510561057105AB
:1032800011F40C941C24413A51056105710509F4AF
:1032900022C60C945458443A51056105710509F44D
:1032A000FDC10CF0F1C181E08093C01C0C94545816
:1032B000493A51056105710509F4EBC194F4473AA7
:1032C00051056105710509F4DAC1483A51056105F6
:1032D000710511F00C94545881E08093BA1C0C9441
:1032E00054584E3B51056105710509F49EC0433D9C
:1032F00051056105710511F40C9436254A3A5105C2
:103300006105710511F00C94545881E08093B91C4B
:103310000C94545881E08093C31C0C94545881E061
:103320008093C21C0C94545881E08093C31C41E0EC
:1033300050E069E881E20F94661D0C945458809126
:103340000E02833411F00C94545882E480930E02E0
:1033500040E050E067E581E20F94661D40E050E0F8
:1033600066E781E20F94661D40E050E068E881E284
:103370000F94661D40E050E069E881E20F94661DFD
:103380001092E61B0C9454581092480880E00E945A
:1033900030E381E08093B61C8093EE1B40E050E068
:1033A00068E08AE00F94661D81E48093EF1B0C9423
:1033B000545880910E0240E050E0813491F469E06D
:1033C0008AE00F94661D11E01093480869E178E0E7
:1033D00082E00F946E1E109318081092E61B0C9456
:1033E00054586AE28AE00F94661D11E01093480871
:1033F00069E178E086E20F946E1E1093180810922F
:10340000E61B0C94545880917C1C81110C945458E8
:103410008091641881110C94545840E050E069E3A5
:103420008AE00F94661D0C94545880917C1C811185
:103430000C94545840E050E061E08AE00F94661D1F
:103440000C94545880917C1C81110C945458009118
:103450000E02013411F00C94545810924808109246
:10346000631811E01093641840E050E068E08AE0CF
:103470000F94661D0093EF1B1093021D0C9454587B
:1034800080910E02813411F00C94545840E050E0C9
:1034900061E08AE00F94661D109248080C9454581D
:1034A00080910E02823491F3833411F00C945458BD
:1034B00040E050E066E18AE00F94661D41E050E094
:1034C0006DE781E20F94661D82E58093180281E02A
:1034D0008093E61B109248080C945458882311F4EA
:1034E0000C94545880910E02813411F00C9454586D
:1034F00081E08093B81C0C94545880916418882300
:1035000011F40C94545880910E02823429F481E015
:103510008093B71C0C945458833411F00C94545875
:1035200011E010939F0840E050E068E981E20F94B9
:10353000661D40E050E067E981E20F94661D40E0BF
:1035400050E06CE981E20F94661D40E050E06DE9C7
:1035500081E20F94661D41E050E067E881E20F943C
:10356000661D40E050E06CE28AE00F94661D109307
:10357000E61B8FEF9FEF90935B0280935A02E1E18D
:10358000F8E084918F01882351F0082E000C990BEC
:103590000E94ACE00F5F1F4FF8018491F4CF40E030
:1035A00050E06AE981E20F94661D40E050E06BE96B
:1035B00081E20F94661D1F9210EBF12EFF92609135
:1035C000A61C7091A71C8091A81C9091A91C0F9417
:1035D000C7A97F936F9389E098E09F938F938E01A3
:1035E0000F5F1F4F1F930F930F9451A1B8018AE0F3
:1035F0000F946E1EC8010F943C311F92FF92609190
:10360000AA1C7091AB1C8091AC1C9091AD1C0F94C6
:10361000C7A97F936F9381E098E09F938F931F9347
:103620000F930F9451A1B80181E10F946E1EC80150
:103630000F943C311F92FF921F921F9289EF97E0E7
:103640009F938F931F930F930F9451A1B80185E01F
:103650000F946E1EC8010F943C31109248082DB78C
:103660003EB7285E3F4F0FB6F8943EBF0FBE2DBF4A
:103670000C94545881E08093BD1C0C94545881E004
:103680008093BC1C0C94545881E08093BF1C0C9414
:10369000545881E08093BB1C0C94545881E0809373
:1036A000BE1C0C945458423051056105710511F44B
:1036B00089E406C0423351056105710519F482E5BC
:1036C0008093180240E050E06CE481E20F94661DA4
:1036D00040E050E06BE481E20F94661D40E050E072
:1036E00064E18AE00F94661D8FEF8093380F0C948D
:1036F00054584A3551056105710519F41092380F77
:1037000003C081E08093380F8091380F082F10E0BC
:10371000000F111FF801EE57FE4E208131813093CA
:10372000FF072093FE0781111EC0809172089091BF
:1037300073086091E4077091E507681779072CF426
:10374000BC01990F880B990B04C0072E000C880B45
:10375000990B0F94A7A10E571E4E0F94C7A9D8011D
:103760006D937C931DC08091590F90915A0F609179
:10377000E2077091E307681779072CF4BC01990FF1
:10378000880B990B04C0072E000C880B990B0F9423
:10379000A7A10E571E4E0F94C7A9F801718360832D
:1037A00081E48093EF1B40E050E068E08AE00F94F2
:1037B000661D40E050E06DE781E20F94661D80E0F9
:1037C00090E0A3E4B3E48093A5119093A611A09395
:1037D000A711B093A8118090240F9090250FA0906E
:1037E000260FB090270F2091A1113091A211409186
:1037F000A3115091A41160919D1170919E1180911F
:103800009F119091A011E0E96E2EE1E17E2E7F9252
:103810006F92F9EACF2EF1E1DF2EE12CF12C03E4D7
:1038200013E40E94B1C00E944B9D80E090E0A0E2B2
:10383000B1E48093A1119093A211A093A311B0932E
:10384000A4118090200F9090210FA090220FB09093
:10385000230FE090A511F090A6110091A7111091EF
:10386000A81160919D1170919E1180919F1190916E
:10387000A0117F926F9220E030E040E251E40E947C
:10388000B1C00E944B9D0F900F900F900F908091B0
:10389000EF1B8E3411F40C94BE2C1092EF1B0E947F
:1038A000C27863E374E08DE20F946E1E40E050E056
:1038B00068E28AE00F94661D0091380F10E0F8016D
:1038C000EE0FFF1FEE0FFF1FEA55F34E608171816F
:1038D000828193810F94C7A970939D0860939C087F
:1038E000000F111FF801EE57FE4E808191819093D9
:1038F0009B0880939A0888E48093EF1B0E94C2780B
:1039000081E080939E080C9454588091380F813048
:10391000B1F540E050E068E08AE00F94661D87ED65
:1039200090E090938A0F8093890F90935C0F80931F
:103930005B0F8AEA90E090935A0F8093590F81E4CD
:1039400090E09093860F8093850F0F941F0B8091CA
:103950005B0F90915C0F90938511809384110E946E
:10396000D59640E050E06EE781E20F94661D40E09E
:1039700050E06DE481E20F94661D0C94545881115F
:103980000C94545840E050E068E08AE00F94661DC3
:1039900087ED90E090938C0F80938B0F9093750838
:1039A000809374088AEA90E0909373088093720879
:1039B00081E490E09093880F8093870F0F941F0B02
:1039C000809174089091750890938311809382116F
:1039D0000E94D59640E050E06EE781E20F94661DAC
:1039E00040E050E06DE481E20F94661D0C94545861
:1039F0008091380F8130B1F540E050E068E08AE016
:103A00000F94661D84E091E090938A0F8093890F54
:103A100090935C0F80935B0F86EE90E090935A0F2B
:103A20008093590F8AE590E09093860F8093850FDD
:103A30000F941F0B80915B0F90915C0F90938511F9
:103A4000809384110E94D59640E050E06EE781E2B9
:103A50000F94661D40E050E06DE481E20F94661D16
:103A60000C94545881110C94545840E050E068E094
:103A70008AE00F94661D84E091E090938C0F809310
:103A80008B0F909375088093740886EE90E0909366
:103A90007308809372088AE590E09093880F809372
:103AA000870F0F941F0B8091740890917508909365
:103AB0008311809382110E94D59640E050E06EE71A
:103AC00081E20F94661D40E050E06DE481E20F94C6
:103AD000661D0C9454588091380F8130C1F540E038
:103AE00050E068E08AE00F94661D8CED90E09093C2
:103AF0008A0F8093890F86EE90E090935C0F8093FD
:103B00005B0F80EA90E090935A0F8093590F8CE3FB
:103B100090E09093860F8093850F0F941F0B8091F8
:103B20005B0F90915C0F90938511809384110E949C
:103B3000D59640E050E06EE781E20F94661D40E0CC
:103B400050E06DE481E20F94661D0C94545881118D
:103B50000C94545840E050E068E08AE00F94661DF1
:103B60008CED90E090938C0F80938B0F86EE90E01D
:103B7000909375088093740880EA90E0909373089E
:103B8000809372088CE390E09093880F8093870F66
:103B90000F941F0B80917408909175089093831176
:103BA000809382110E94D59640E050E06EE781E25A
:103BB0000F94661D40E050E06DE481E20F94661DB5
:103BC0000C9454588091380F823010F00C94545853
:103BD00040E050E064E38AE00F94661D1F9250EBD2
:103BE000F52EFF9280910D028F9380910C028F939E
:103BF00006E314E01F930F936E01FCEDCF1AFEEF66
:103C0000DF0ADF92CF920F94EEAEB6018DE00F94F3
:103C10006E1E1F92FF9280910B028F9380910A0279
:103C20008F931F930F936E0126EEC21A2EEFD20AC6
:103C3000DF92CF920F94EEAEB6018EE00F946E1E1F
:103C40001F92FF92809109028F93809108028F93B7
:103C50001F930F936E0131E0C30ED31EDF92CF92FC
:103C60000F94EEAEB6018FE00F946E1E1F92FF927E
:103C7000809107028F93809106028F931F930F9379
:103C80008E010F5F1F4F1F930F930F94EEAE4DB732
:103C90005EB7405E5F4F0FB6F8945EBF0FBE4DBF7C
:103CA000B80182E10F946E1E0C94545840E050E02D
:103CB00064E18AE00F94661D0C94545880910C02C4
:103CC00090910D021816190614F00C9454580A9786
:103CD00090930D0280930C021F9220EB2F939F93E1
:103CE0008F938DE394E09F938F938E010F5F1F4F0F
:103CF0001F930F930F94EEAEB8018DE00F946E1EDC
:103D00008DB79EB708960FB6F8949EBF0FBE8DBFB5
:103D10000C94545880910C0290910D028633A1E0CE
:103D20009A0714F00C9454580A9690930D028093BD
:103D30000C021F9220EB2F939F938F938DE394E0BF
:103D40009F938F938E010F5F1F4F1F930F930F94BD
:103D5000EEAEB8018DE00F946E1EEDB7FEB738964B
:103D60000FB6F894FEBF0FBEEDBF0C94545880916F
:103D70000A0290910B021816190614F00C9454586C
:103D80000A9790930B0280930A021F9220EB2F93C5
:103D90009F938F938DE394E09F938F938E010F5F9A
:103DA0001F4F1F930F930F94EEAEB8018EE00F9448
:103DB0006E1E2DB73EB7285F3F4F0FB6F8943EBF3B
:103DC0000FBE2DBF0C94545880910A0290910B02A3
:103DD000863331E0930714F00C9454580A9690936C
:103DE0000B0280930A021F9220EB2F939F938F93D5
:103DF0008DE394E09F938F938E010F5F1F4F1F936E
:103E00000F930F94EEAEB8018EE00F946E1E4DB777
:103E10005EB7485F5F4F0FB6F8945EBF0FBE4DBFF1
:103E20000C945458809108029091090218161906B2
:103E300014F00C9454580A97909309028093080246
:103E40001F9220EB2F939F938F938DE394E09F938A
:103E50008F938E010F5F1F4F1F930F930F94EEAE42
:103E6000B8018FE00F946E1E8DB79EB708960FB6FF
:103E7000F8949EBF0FBE8DBF0C94545880910802D9
:103E8000909109028633A1E09A0714F00C945458DB
:103E90000A9690930902809308021F9220EB2F93B9
:103EA0009F938F938DE394E09F938F938E010F5F89
:103EB0001F4F1F930F930F94EEAEB8018FE00F9436
:103EC0006E1EEDB7FEB738960FB6F894FEBF0FBE64
:103ED000EDBF0C9454588091060290910702181679
:103EE000190614F00C9454580A9790930702809383
:103EF00006021F9220EB2F939F938F938DE394E004
:103F00009F938F938E010F5F1F4F1F930F930F94FB
:103F1000EEAEB80182E10F946E1E2DB73EB7285F5A
:103F20003F4F0FB6F8943EBF0FBE2DBF0C945458B0
:103F300080910602909107028936910514F00C9445
:103F400054580A9690930702809306021F9220EB22
:103F50002F939F938F938DE394E09F938F938E0184
:103F60000F5F1F4F1F930F930F94EEAEB80182E1C6
:103F70000F946E1E4DB75EB7485F5F4F0FB6F89453
:103F80005EBF0FBE4DBF0C94545840E050E068E057
:103F90008AE00F94661DE091380F40910C02509119
:103FA0000D0220910A0230910B026091080270917B
:103FB00009028091060290910702E11130C06C3332
:103FC000A1E07A0714F06BE371E070938C0F6093BB
:103FD0008B0F4C33B1E05B0714F04BE351E050938F
:103FE0007508409374082C33E1E03E0714F02BE38E
:103FF00031E030937308209372088F36910514F0E6
:104000008EE690E09093880F8093870F80917408DC
:1040100090917508909383118093821134C06C3312
:10402000F1E07F0714F06BE371E070938A0F609307
:10403000890F4C3361E056072CF450935C0F40938A
:104040005B0F06C04BE351E050938A0F4093890FFA
:104050002C33A1E03A0714F02BE331E030935A0FF0
:104060002093590F8F36910514F08EE690E09093CF
:10407000860F8093850F80915B0F90915C0F9093DA
:104080008511809384110F941F0B0E94D59640E0F8
:1040900050E06EE781E20F94661D40E050E06DE471
:1040A00081E20F94661D0C94545863E374E08DE232
:1040B0000F946E1E40E050E068E28AE00F94661DA7
:1040C00088E48093EF1B0E94C2788091380F082FFC
:1040D00010E081111DC08091740890917508609165
:1040E000E0077091E107681779072CF4BC01990F7C
:1040F000880B990B04C0072E000C880B990B0F94AA
:10410000A7A10F94C7A9709383116093821122C055
:1041100080915B0F90915C0F6091DE077091DF07DB
:10412000681779072CF4BC01990F880B990B04C010
:10413000072E000C880B990B0F94A7A19801220F52
:10414000331FF901EE57FE4E7F010F94C7A9D70127
:104150006D937C93F801EE0FFF1FEE0FFF1FEA55E2
:10416000F34E60817181828193810F94C7A970930E
:104170009D0860939C08F801EE0FFF1FEE57FE4E5E
:104180008081918190939B0880939A080E94C278C5
:1041900081E080939E080C945458809118028934D1
:1041A00011F00C94545840E050E068E08AE00F941D
:1041B000661D81E48093EF1BE091380FB4E0EB9F24
:1041C000F0011124EE54FD4F608171818281938151
:1041D00060939D1170939E1180939F119093A011F5
:1041E000E090A511F090A6110091A7111091A811CF
:1041F0002091A1113091A2114091A3115091A411CD
:104200000F94201FE090A511F090A6110091A71126
:104210001091A8112091A1113091A2114091A311E8
:104220005091A41160919D1170919E1180919F11E8
:104230009091A011E8E3FFE0FF93EF93812CA0E8B9
:104240009A2EABE3AA2EA6E4BA2EB9EACB2EB1E1A0
:10425000DB2E0E94B1C00E944B9DEFEEF7E08491EF
:104260000F900F908F01882351F0082E000C990BAE
:104270000E94ACE00F5F1F4FF8018491F4CF20E063
:1042800030E040EF51E46091A9117091AA11809142
:10429000AB119091AC110F942DA86093A91170935C
:1042A000AA118093AB119093AC11E090A511F090FE
:1042B000A6110091A7111091A8112091A111309180
:1042C000A2114091A3115091A41160919D11709180
:1042D0009E1180919F119091A011B8E36B2EBFE0C9
:1042E0007B2E7F926F92812C912CE0E3AE2EE1E445
:1042F000BE2EF9EACF2EF1E1DF2E0E94B1C00E945E
:104300004B9D0F900F908091EF1B8E3411F40C9405
:10431000BE2C20E030E446E754E46091A91170918E
:10432000AA118091AB119091AC110F942DA8AB0103
:10433000BC014093A9115093AA116093AB117093E3
:10434000AC1189ED95E10E94F6E2E090A511F090A4
:10435000A6110091A7111091A8112091A1113091DF
:10436000A2114091A3115091A41160919D117091DF
:104370009E1180919F119091A0117F926F92812C3C
:10438000912CA0E7AA2EA2E4BA2E0E94B1C00E94EE
:104390004B9D0F900F908091EF1B8E3411F40C9475
:1043A000BE2C20E030E048E452E46091A911709105
:1043B000AA118091AB119091AC110F942DA860932C
:1043C000A9117093AA118093AB119093AC11E09056
:1043D000A511F090A6110091A7111091A81120919C
:1043E000A1113091A2114091A3115091A41160919B
:1043F0009D1170919E1180919F119091A0117F92BB
:104400006F92812C912CA12CF0E4BF2E0E94B1C0A0
:104410000E944B9D0F900F908091EF1B8E3411F4F2
:104420000C94BE2C1092EF1B40E050E06EE08AE04E
:104430000F94661D0C94545880911802823511F027
:104440000C94545840E050E068E08AE00F94661DF8
:1044500081E48093EF1B66E272E080E090E00F94CD
:104460001D1020E030E046E954E46091A9117091FC
:10447000AA118091AB119091AC110F942CA860936C
:10448000A9117093AA118093AB119093AC11E09095
:10449000A511F090A6110091A7111091A8112091DB
:1044A000A1113091A2114091A3115091A4116091DA
:1044B0009D1170919E1180919F119091A011E8E340
:1044C000FFE0FF93EF93812C912CB0E7AB2EB2E489
:1044D000BB2EE9EACE2EE1E1DE2E0E94B1C00E94A1
:1044E0004B9D0F900F908091EF1B8E3411F40C9424
:1044F000BE2C86E090E09093050280930402109217
:10450000EF1B12E41093D41B0E94C27840E050E0ED
:1045100065E18AE00F94661D40E050E06BE084E1C5
:104520000F94661D1093EF1B8091380F81111AC0F4
:1045300080917408909175089093E1078093E0074B
:1045400080917208909173089093E5078093E40737
:1045500080918B0F90918C0F9093DD078093DC07F7
:104560000C94545880915B0F90915C0F9093DF07EF
:104570008093DE078091590F90915A0F9093E30733
:104580008093E2078091890F90918A0F9093DB07C7
:104590008093DA070C9454588091950881110C94FB
:1045A000545840E050E065E18AE00F94661D40E019
:1045B00050E06BE084E10F94661D82E48093EF1B72
:1045C0008093D41BE091380F24E0E29FF001112486
:1045D000EE54FD4F608171818281938160939D11C2
:1045E00070939E1180939F119093A011E090A5115C
:1045F000F090A6110091A7111091A8112091A1117E
:104600003091A2114091A3115091A411E8E3FFE071
:10461000FF93EF93812CE0E89E2EEBE3AE2EE6E4D1
:10462000BE2EF9EACF2EF1E1DF2E0E94B1C0E0905C
:10463000A511F090A6110091A7111091A811209139
:10464000A1113091A2114091A3115091A411E091B8
:10465000901164E0E69FF0011124EE54FD4F60815B
:104660007181828193810F94201FE091901184E0E9
:10467000E89FF0011124EE54FD4F80819181A281C9
:10468000B38180939D1190939E11A0939F11B0933D
:10469000A011E091380FF0E0EE0FFF1FEE57FE4E35
:1046A0008091FE079091FF07918380830E944B9D2C
:1046B0000F900F900C9454588091950881110C9490
:1046C00054589091840F8091830F98130C947258D2
:1046D00081E08093A1080C94545880919508811131
:1046E0000C9454589091840F8091830F98130C94DC
:1046F00072580C9475589091840F8091830F981381
:104700000C9454580C9479589091840F8091830F95
:1047100098130C9454580C944959E0915A02F09112
:104720005B02EF3F5FEFF50711F40C945458EE0F66
:10473000FF1FEE57FE4E808191818B3361E096071B
:1047400014F00C9454580596918380831F9220EBAB
:104750002F939F938F938FEA97E09F938F938E0170
:104760000F5F1F4F1F930F930F9451A1B80185E066
:104770000F946E1E8DB79EB708960FB6F8949EBF25
:104780000FBE8DBF0C945458E0915A02F0915B0219
:10479000EF3F9FEFF90711F40C945458EE0FFF1FF1
:1047A000EE57FE4E808191811816190614F00C9474
:1047B00054580597918380831F9220EB2F939F93EA
:1047C0008F9387EA97E09F938F938E010F5F1F4F20
:1047D0001F930F930F9451A1B80185E00F946E1EA3
:1047E000ADB7BEB718960FB6F894BEBF0FBEADBF3B
:1047F0000C94545880915A0290915B02019611F4E6
:104800000C9454589091840F8091830F98130C94BA
:1048100072580C941E5A80915A0290915B02019634
:1048200011F40C9454589091840F8091830F981335
:104830000C9472580C94225A9091840F8091830F9B
:1048400098130C9454580C94265A8091D41B82349B
:1048500011F00C945458EEE9F7E084918F0188230D
:1048600051F0082E000C990B0E94ACE00F5F1F4F17
:10487000F8018491F4CF1092EF1B1092950880916B
:104880001802823509F047C089E4809318028091AC
:10489000380F813049F441E050E06CE481E20F943C
:1048A000661D40E050E008C040E050E06CE481E26A
:1048B0000F94661D41E050E06BE481E20F94661DA9
:1048C00041E050E06EE781E20F94661D41E050E068
:1048D0006DE481E20F94661D41E050E061E481E205
:1048E0000F94661D41E050E066E481E20F94661D7E
:1048F00041E050E06EE481E20F94661D41E050E03B
:104900006FE481E20F94661D40E050E064E18AE0CC
:104910000F94661DA7C0893409F0A4C081E4809378
:10492000EF1B40E050E068E08AE00F94661D409085
:104930003B0850903C0860903D0870903E084092C3
:10494000A1115092A2116092A3117092A41120E0C3
:1049500030E040E752E46091D2027091D30280913E
:10496000D4029091D5020F941BA94B015C01E090F9
:10497000A511F090A6110091A7111091A8116091B6
:104980009D1170919E1180919F119091A01120E92D
:1049900031E13F932F93E9EACE2EE1E1DE2EA30130
:1049A00092010E94B1C00E944B9D0F900F90809188
:1049B000EF1B8E3409F4E2C720E030E040E251E41E
:1049C00060913F08709140088091410890914208A1
:1049D0000F942DA87B018C016093A5117093A611F3
:1049E0008093A7119093A8118091E41C89838090F3
:1049F000D6029090D702A090D802B090D902209110
:104A0000A1113091A2114091A3115091A411609174
:104A10009D1170919E1180919F119091A011FE01A6
:104A20003196FF93EF930E94B1C00E944B9D0F906F
:104A30000F908091EF1B8E3409F4A0C71092EF1BEA
:104A400040E050E06AE28AE00F94661D11E01093A6
:104A500048081092E61B69E178E086E20F946E1E2A
:104A6000109318081092D41B0C9454588091C11CB8
:104A70001092EF1B8823B9F01092C11C81E0809343
:104A8000C21C80910E0240E050E0813431F469E0B4
:104A90008AE00F94661D0C9454586AE28AE00F94E1
:104AA000661D0C9454581092E11C1092E61BE3E929
:104AB000F7E084918F01882351F0082E000C990BA8
:104AC0000E94ACE00F5F1F4FF8018491F4CF109269
:104AD000A70881E00E94328F40E050E065E08AE064
:104AE0000F94661D0C94545890912F1D992309F42E
:104AF00028C28091331D823008F423C24734510507
:104B00006105710509F4A3C09CF54B32510561059F
:104B1000710509F462C09CF44731510561057105C6
:104B200009F467C0483151056105710511F00C9415
:104B3000545882E090E00E9475960C94545840338B
:104B400051056105710509F44EC0453351056105F4
:104B5000710509F4BCC14F3251056105710511F0B1
:104B60000C9454588FEF9FEF0E9475960C945458F4
:104B7000403851056105710509F441C004F54E3511
:104B800051056105710509F470C14F355105610585
:104B9000710511F00C94545814E41093D41B40E0A8
:104BA00050E06BE084E10F94661D40E050E065E169
:104BB0008AE00F94661D1093EF1B0C9454584238F2
:104BC000510561057105B9F144F14B3A5105610593
:104BD000710509F4C8C00C9454588EEF9FEF0E94E1
:104BE00075960C94545880E090E00E9475960C9451
:104BF000545881E090E00E9475960C9454588DEFC3
:104C00009FEF9093D61B8093D51B40E050E06AE065
:104C10008AE00F94661D0C94545883E090E09093C2
:104C2000D61B8093D51B40E050E06AE08AE00F94E9
:104C3000661D0C9454581092D61B1092D51B40E060
:104C400050E06AE08AE00F94661D0C94545840E0EE
:104C500050E068E08AE00F94661D81E48093EF1BCA
:104C600041E061E081E00F942B221092EF1B0E9443
:104C70004B9D0E9404931091D51B8091331D82306F
:104C800011F540E050E061E18AE00F94661D80E597
:104C90008093EF1B0091301D010F0093301D002EFB
:104CA000000C110B20E030E0A901CA01B9010F94FA
:104CB000B22540E050E069E18AE00F94661D109251
:104CC000EF1B0C945458833029F540E050E061E12B
:104CD0008AE00F94661D80E58093EF1B0091311DE3
:104CE000010F0093311D002E000C110B20E030E06D
:104CF0004CE553EC60E070E088E393EC0F94B22550
:104D000040E050E069E18AE00F94661D1092EF1BCD
:104D10000C945458843011F00C94545840E050E0F6
:104D200061E18AE00F94661D80E58093EF1B00919E
:104D3000321D010F0093321D002E000C110B20E0DC
:104D400030E04CE553EC60E070E080E493E40F94D5
:104D5000B22540E050E069E18AE00F94661D1092B0
:104D6000EF1B0C9454581092EF1B8091301D409112
:104D7000311D042F081B4091321D142F181B602F6A
:104D8000002E000C770B880B990B0F94A7A12DEC2C
:104D90003CEC4CEC5DEB0F94979C60937C0870931B
:104DA0007D0880937E0890937F08612F012E000C70
:104DB000770B880B990B0F94A7A12DEC3CEC4CECD6
:104DC0005DEB0F94979C60937808709379088093BB
:104DD0007A0890937B080023A1F040E050E06FE157
:104DE0008AE00F94661D07FF07C0202F3327219507
:104DF0000CF4309508E0020F402F000F550B64E0D3
:104E000015C01123B9F040E050E060E28AE00F9451
:104E1000661D17FF07C0812F992781950CF4909587
:104E200018E0180F412F110F550B65E08BE10F941F
:104E3000661D11C014E41093D41B40E050E06BE0F9
:104E400084E10F94661D40E050E065E18AE00F9434
:104E5000661D1093EF1B81E890E090937708809394
:104E600076080F941F0B0C9454584091321D80917A
:104E7000301D142F181BC1F040E050E060E28AE0C2
:104E80000F94661D17FF07C0A12FBB27A1950CF437
:104E9000B09518E01A0F412F110F550B65E08BE10B
:104EA0000F94661D0C94545814E41093D41B40E0E6
:104EB00050E06BE084E10F94661D40E050E065E156
:104EC0008AE00F94661D1093EF1B0C945458809148
:104ED000D41B843411F00C9454581092331D10924A
:104EE0002F1D1092EF1B10927D1110927C111092C9
:104EF00083111092821110928511109284111092D8
:104F0000E11C1092E61BE8E8F7E084918F0188230A
:104F100051F0082E000C990B0E94ACE00F5F1F4F60
:104F2000F8018491F4CF1092A7080E94328F40E0DC
:104F300050E065E08AE00F94661D1092D41B0C943B
:104F40005458403E510510F00C945458FA018827EB
:104F5000EE58FF4F8F4F0D9492AC81E080939008F4
:104F60000C94545881E080938F080C94545881E03D
:104F700080938E080C94545881E080938D080C9493
:104F8000545881E080938C080C9454580E9466E633
:104F9000009751F481E08093910880916F118150C6
:104FA00080936F110C945458019711F00C9454583D
:104FB00081E08093910840E050E067E381E20F9444
:104FC000661D40E050E061E08BE10F94661D80912A
:104FD0006F11815080936F110C9454581092E11C02
:104FE0001092E61BEDE7F7E084918F01882351F0E2
:104FF000082E000C990B0E94ACE00F5F1F4FF801C8
:105000008491F4CF1092A70881E00E94328F40E093
:1050100050E065E08AE00F94661D0C94545880912E
:105020006518882311F40C94545841E061E086E639
:1050300098E10F94EB4A8FEF9FEF90935418809371
:105040005318E12CF12C02E018E19E012F5F3F4F35
:10505000590188248A94982C22242394312C5AE9CB
:10506000C52E54E0D52E4091041B5091051B609134
:10507000061B7091071B80915F1A9091601AA09196
:10508000611AB091621A84179507A607B70708F04E
:105090000EC1D801E2E31D92EA95E9F72DE2422E16
:1050A00055245394809102188D3409F4A5C0409181
:1050B000041B5091051B6091061B7091071B80918A
:1050C0005F1A9091601AA091611AB091621A8417C8
:1050D0009507A607B70708F08FC092E0692E98E100
:1050E000792E80915F1A9091601AA091611AB09107
:1050F000621A4091041B5091051B6091061B709130
:10510000071B84179507A607B70788F480930C1B25
:1051100090930D1BA0930E1BB0930F1B87E59AE194
:105120000F946A47D3018D933D018A3029F4B1E091
:105130004B1A510829F45CC0A353B841C1F3D1CF35
:105140004091041B5091051B6091061B7091071B39
:1051500080915F1A9091601AA091611AB091621AC1
:1051600084179507A607B70708F49CCF41C05A8259
:105170004982DF92CF92FBE86F2EF4E07F2EBF9240
:10518000AF92FF92EF920F9480A189819A810F9044
:105190000F900F900F900F900F90019609F0B9C0EB
:1051A0000150110909F4CCC04091041B5091051B1A
:1051B0006091061B7091071B80915F1A9091601A95
:1051C000A091611AB091621A84179507A607B707D4
:1051D00008F0B6C0A2E08A2EA8E19A2ED701E32DEE
:1051E0001D92EA95E9F70F94602D019609F0BFCF63
:1051F00080E00E9430E3A4C1E114F104F9F49A8242
:105200008982BF92AF92ACE4B6E2BF93AF931F9393
:105210000F930F9480A189819A810F900F900F9026
:105220000F900F900F90019629F030925418209211
:10523000531804C010925418109253189A828982FD
:10524000BF92AF92DF92CF921F930F930F9480A1E2
:1052500089819A810F900F900F900F900F900F906F
:10526000059711F40C943D5A9A828982BF92AF92AD
:10527000DF92CF921F930F930F9480A189819A811F
:105280000F900F900F900F900F900F90069711F4C2
:105290000C943D5A2EE0E216F10409F451C13FEF9F
:1052A000E31AF30A4FE0E416F1040CF4DCCE10929A
:1052B0000C1B10920D1B10920E1B10920F1B40E046
:1052C00050E0BA0187E59AE10F9451458091531857
:1052D00090915418892B49F40CE310E0B2E0EB2EC6
:1052E000B8E1FB2E82E3D82E56C00AEF10E052E060
:1052F000E52E58E1F52E62E3362E44244A94542CD0
:10530000AE014F5F5F4F6A01EBE8AE2EE4E0BE2EC8
:105310004BCF8FEF9FEF9A838983DF92CF927F925B
:105320006F929F928F920F9480A189819A810F90A2
:105330000F900F900F900F900F90892B09F058CF7E
:1053400080E00E9430E3C090C602D090C702E09097
:10535000C802F090C90220E030E0A901C701B601FF
:105360000F9405AB18166CF137C0D701ED2D1D92C7
:10537000EA95E9F70F94602D019609F439CF62E0C0
:1053800078E185E494E00F940FA1892B09F430CFE4
:1053900001501109A9F24091041B5091051B609125
:1053A000061B7091071B80915F1A9091601AA09163
:1053B000611AB091621A84179507A607B707A8F279
:1053C000BFCF2DEC3CEC4CE45DE3C701B6010F947C
:1053D00005AB18165CF0B4C02DEC3CEC4CE45DEB76
:1053E000C701B6010F94A1A187FFAAC040E050E019
:1053F00067E18AE00F94661D8090C6029090C70214
:10540000A090C802B090C90220E030E0A901C50117
:10541000B4010F9405AB18162CF520E030E048ECF1
:1054200052E4C501B4010F94979C0F94C7A90AE0F8
:1054300010E0CB01B8010F9463ACF82EE92E20E008
:1054400030E040E251E4C501B4010F94979C0F9401
:10545000C7A9CB01B8010F9463AC082FD92EC501A1
:10546000B4012AC02401350177FA709477F870945A
:1054700020E030E048EC52E4C301B2010F94979C65
:105480000F94C7A90AE010E0CB01B8010F9463ACF8
:10549000F82EE92E20E030E040E251E4C301B201F1
:1054A0000F94979C0F94C7A9CB01B8010F9463ACDC
:1054B000082FD92EC301B2010F94C7A9162FC72EEA
:1054C00020E030E0A901C501B4010F94A1A187FD3E
:1054D00003C08DE294E002C088E294E0EF92FF9274
:1054E000DF920F93CF921F939F938F9380E397E068
:1054F0009F938F938E010F5F1F4F1F930F930F94F6
:1055000051A1C8010F943C31B80180E30F946E1E85
:105510008FEF9FEFDC018093200290932102A093F4
:105520002202B09323021092A9082DB73EB7245F40
:105530003F4F0FB6F8943EBF0FBE2DBF0C94555A87
:105540008091B51881110C945458CDB6DEB6809177
:105550008A0890918B080E94AAE6E6E6F8E1DF014E
:105560000D900020E9F78DB79EB78A1B9B0BAC010D
:105570004E59574E0FB6F8945EBF0FBE4DBF0DB7D4
:105580001EB70F5F1F4FFF93EF9389E297E09F9342
:105590008F931F930F930F9451A1780154E0E50E60
:1055A000F11C0F900F900F900F900F900F90F7013C
:1055B0008081882349F0082E000C990B0F948DAE42
:1055C000D7018D937D01F3CFC8010E94A48F85E29E
:1055D00097E00E94358F0FB6F894DEBE0FBECDBEA9
:1055E0000C94545880916518882311F40C945458E5
:1055F0008091B51881110C945458CDB6DEB68091C7
:105600008A0890918B080E94AAE6E6E6F8E1DF019D
:105610000D900020E9F78DB79EB78A1B9B0B9C016C
:105620002E59374E0FB6F8943EBF0FBE2DBF0DB7A3
:105630001EB70F5F1F4FFF93EF938EE197E09F938D
:105640008F931F930F930F9451A1780134E0E30ED1
:10565000F11C0F900F900F900F900F900F90F7018B
:105660008081882349F0082E000C990B0F948DAE91
:10567000D7018D937D01F3CFC8010E94A48F8AE1E9
:1056800097E00E94358F0FB6F894DEBE0FBECDBEF8
:105690000C94545840E050E067E381E20F94661D9B
:1056A00040E050E061E08BE10F94661D40E050E087
:1056B00062E08AE00F94661D81E08093E11C809394
:1056C00092080C94545881E0809394080C94545898
:1056D00081E0809393080C94545840E050E062E1DC
:1056E0008AE00F94661D0C94545840E050E06CE141
:1056F0008AE00F94661D80E00E94328F1092A60807
:105700001092A5081092A40881E08093A7080C9439
:1057100054581092E11C1092E61BEFE0F7E08491E0
:105720008F01882351F0082E000C990B0E94ACE0E9
:105730000F5F1F4FF8018491F4CF1092A7080E94C9
:10574000C27881E00E94328F40E050E065E08AE05C
:105750000F94661D0C94545880918211909183117E
:10576000892B29F0109283111092821108C0809128
:105770008B0F90918C0F90938311809382111092D4
:10578000A6080C9454588091841190918511892B0E
:1057900029F0109285111092841108C08091890F10
:1057A00090918A0F90938511809384111092A5088F
:1057B0000C94545880917C1190917D11892B29F083
:1057C00010927D1110927C111CC08091870F9091D6
:1057D000880F6091850F7091860F681779072CF4F8
:1057E000BC01990F880B990B04C0072E000C880B85
:1057F000990B0F94A7A10F94C7A970937D11609383
:105800007C111092A4080C9454588BE097E00E94ED
:10581000358F0C94545840E050E06EE18AE00F94CC
:10582000661D0C94545840E050E065E08AE00F9407
:10583000661D1092E11C1092E61BE0E0F7E08491F7
:105840008F01882351F0082E000C990B0E94ACE0C8
:105850000F5F1F4FF8018491F4CF1092A70888E7DB
:1058600093E090931302809312020F941F0B0C94F9
:10587000545840E050E06AE18AE00F94661D0E94AF
:1058800087E180916518882311F40C945458809115
:105890006E1180936F1126E4E22E21E1F22E3AE59B
:1058A000C32E31E1D32E00E010E049EF842E46E014
:1058B000942E80916E1190E00817190794F566E612
:1058C00078E18DED98E10F949B4A5701D7018D91B6
:1058D0009D917D010E94AAE6F50180819181D6010A
:1058E0008D939D936D018091B518811113C0F401C2
:1058F000849199EFA92E96E0B92E882379F0082E8D
:10590000000C990B0E94ACE0FFEFAF1ABF0AF50143
:105910008491F3CF86E698E10F94FA4E0F5F1F4F04
:10592000C8CF87E090E00E9466970C94545880910D
:105930001202909113028036974041F488E793E079
:1059400090931302809312020F941F0B40E050E0DB
:1059500068E08AE00F94661D81E48093EF1B8091DC
:10596000611C8823D1F040E061E081E00F942B229C
:105970000E944B9D8091EF1B8E3489F48FEF9FEF37
:10598000DC018093200290932102A0932202B09325
:1059900023021092A9080C94555A41E0E5CF81E00A
:1059A0000E94328F1092EF1B86EF96E00E94358F97
:1059B0000E944B9D8091EF1B8E3401F340E050E03C
:1059C0006BE08AE00F94661D0C94545840E050E060
:1059D00064E08AE00F94661D0C94545840E050E057
:1059E00064E28AE00F94661D81E08093FD0789E4FC
:1059F0008093EF1B1F921F928BE494E09F938F93F1
:105A00008E010F5F1F4F1F930F930F94EEAEB801DF
:105A10008EE20F946E1E60918B0F70918C0F072E8B
:105A2000000C880B990B0F94A7A100E010E028EC64
:105A300031E440E050E00F9433320F941F0B60E5E7
:105A400074E089ED95E10F94313263E574E089EDFE
:105A500095E10F9431326091EE027091EF028091E6
:105A6000F0029091F10242E050E00F94D44F67E5CC
:105A700074E089ED95E10F9431322DEB37E346E088
:105A80005EE36091E6027091E7028091E8029091F6
:105A9000E9020F941BA942E050E00F94D44F6BE54C
:105AA00074E089ED95E10F9431322DEB37E346E058
:105AB0005EE36091DE027091DF028091E0029091DE
:105AC000E1020F94979C42E050E00F94D44F609114
:105AD000890F70918A0F072E000C880B990B0F9479
