:100000000C9404170C9435170C9435170C94351771
:100010000C9435170C9435170C9435170C94351730
:100020000C9435170C9435170C9435170C94351720
:100030000C9435170C9435170C9435170D94510505
:100040000C9435170C9435170C9435170C94351700
:100050000C9435170C9435170D94043F0C947DDFE8
:100060000C9435170C94ABDD0C9482DD0C94351791
:100070000C9435170C9435170C9435170C943517D0
:100080000C94EDE00C9435170C9435170C9435173F
:100090000C9435170C9435170C9435170C943517B0
:1000A0000C9435170C9435170C9435170C943517A0
:1000B0000C9435170C9435170C9435170C94351790
:1000C0000C9435170C9435170C9435170C944DDDA2
:1000D0000C9424DD0C9435170C9435170C943517BB
:1000E0000C943517615AE85CB82F7C2D06589B2874
:1000F000C25BB128E85CE85CE85CF0288D28E85C2D
:10010000E925DE25E85C9C39E85CE85CE85CCD5BD1
:1001100059406F4085409B403341B140EB5B4B40C1
:100120001143685AE939DA39C740DB40E85CA62850
:100130005F268D285C2DD43B742D7F5BD44E6C2DB7
:10014000642DA05BFD59E85CAA2F785BE85C7B3CE2
:10015000B9280A26F425E85CE85CCA29053AE85C77
:100160004D5B215B3848B5313528494CF636F839B6
:10017000B931E85CBE5A775A762F603060303C3037
:10018000BD31C132682B09292229FC2F1E30D3250D
:10019000FF25E85CE85C8D28F02FDC2BFE2B4F2937
:1001A000793B593BE85CD1567C57EA59E85CEB5BFC
:1001B000EB5B4A591E59F258C65842586E589A5825
:1001C000335A4F5795431F430B441C467545FF4414
:1001D000E85CE85C0658212C3A2CF02FF456E25BE0
:1001E000E85CE85C3E5BF140284B1447E85C3E2647
:1001F000025507411D41E85C7741E85CAE3AA63AFA
:10020000E85CE85C2435E85CE85CE85C4B359D35EF
:100210008835F52EDF2EB63A852D022E862EB32E8A
:100220004E53062F984773352C47E85CE85CE85C32
:10023000E85CE85CE85CE85CE85CE85C55295D2922
:100240008329E85CE85C424756473848284B344BE2
:10025000394CE85C474FAB4FDA4E2E4F504DE85CBF
:10026000E85C6D4DE85C8351A1389439C7516C4707
:10027000E85C55509F50EB5037514D508247E85C39
:100280000B520D538154A455E85C3754EB45EB45B4
:1002900092549333FF2AC04E594D794D4B4E534ED5
:1002A0008D28C84EE85CE85CE85CE85CE85CE85CEB
:1002B0006639E85CE85CF7572A5AE85CE85CE85C79
:1002C000E85CE85CE85CE85CE85C6856BB56E85CC7
:1002D000E85CE85CE85CE85CE85CE85CE85CE85CFE
:1002E000E85CE85CE85CE85CE85CE85CE85CE85CEE
:1002F000E85CE85CE85CE85CE85CE85CE85CE85CDE
:10030000E85CE85CE85CE85CE85CE85CE85CE85CCD
:10031000E85CE85CE85CE85CE85CE85CE85CE85CBD
:10032000E85CE85CE85CE85CE85CE85CE85CE85CAD
:10033000E85CE85CE85CE85CE85CE85C0D40CF3FCA
:10034000D3429542E85CFA45E85CE85CF8392F2B2B
:1003500085424B41F8394B41E85C61416141072BD3
:100360005B5B545B6A5B715BCA57CF57D457D957F5
:10037000375B285BE357E857ED57F257DE57C55711
:10038000D94AF84A7C2D192A0F2BE85C555A395363
:10039000CD289B2BE85CE85C48570B50E85CE85C98
:1003A000E85C9D55E85CF456E85CE85CE85C163077
:1003B000702B4653652F6534E85CDF4FE85C96553B
:1003C000E85CE85CE85CE85CE85C9D2FB34AC64A00
:1003D000555A335A29360B37CB4F263B0F37212A34
:1003E000D43B3136294E9938D337A454F554E85CC0
:1003F000053ACB4F8848EB5BBE3A372BD34FEB5BCC
:10040000C4DCC7DCB6DCBADCC0DCFEDCCBDCCFDCB9
:10041000D5DCD9DCDDDCE3DCE7DCEBDCFEDCF1DCCD
:10042000F5DCF9DC99DE9EDEA3DEADDEB7DE30DF83
:10043000C1DEC9DED1DEDBDEE5DEEFDEFEDE08DFBB
:1004400030DF12DF1CDF26DF6702730277028902CA
:100450008302890269026D02AB029B02A10285023E
:100460007502A502A3026F027F028D02AD02910206
:100470009302790297028B02A7027B029902810202
:100480009D02084AD73B3BCE016E84BCBFFDC12F05
:100490003D6C74319ABD56833DDA3D00C77F11BE75
:1004A000D9E4BB4C3E916BAAAABE000000803F0578
:1004B000A84CCDB2D44EB93836A9020C50B99186A9
:1004C00088083CA6AAAA2ABE000000803F000D941E
:1004D000930F0D948C100D9460010D94A4100D9445
:1004E000CF0F0D9492610D940D100D949F110D94EA
:1004F000F2100D94C43F0D9407400D9499C70D94CC
:100500006E100D940B400D9431100D9481110D94CB
:100510005B810D94CD100D94EB3F0D94BD110D94A6
:10052000E1A70D949B3F0D94B73F0D94F8B40D9443
:10053000DE3F0D9409400D9427120D9413400D9445
:1005400093610D9463110D94EF0F0D94F8110D94B8
:1005500005400D9485810D94B10F0D948E3F4E4151
:100560004E494E495459494E46CDCCCC3D0AD7232D
:100570003C17B7D13877CC2B329595E6241FB14F75
:100580000A000020410000C84200401C4620BCBEBA
:100590004CCA1B0E5AAEC59D746364696E6F70734E
:1005A0007578585B003B4C415945523A2564003BF5
:1005B000202020757365526166742C2564004D36C9
:1005C0003035205325640043616C63756C75733A54
:1005D00020200043616C63756C75733A20200043E2
:1005E000616C63756C75733A20200053757266698F
:1005F0006E6720300A00417420426F74746F6D2062
:10060000537469636B657200253033642E25303373
:1006100064253033642E2530346400417420426FE9
:1006200074746F6D20537469636B65720025303389
:10063000642E25303364253033642E253034640035
:1006400053757266696E6720300A00473238205849
:1006500030205930005430005431005430005430B0
:100660000053757266696E6720300A0047343300A4
:1006700047343100473430004733340047343300C7
:100680004734330047343100473430004D383400AC
:100690004D3834004D3834005A32204F6666736549
:1006A000743A20004F4B207365636F6E6420457869
:1006B000747275646572210A005A20706F736974D0
:1006C000696F6E3A20005A20706F736974696F6E9B
:1006D0003A20004D3834005A312050726F62652044
:1006E0006F66667365743A20004F4B2066697273BB
:1006F0007420457874727564657221200A005A204E
:10070000706F736974696F6E3A20005A20706F734E
:100710006974696F6E3A200043616C63756C757320
:100720003A20200043616C63756C75733A20200099
:1007300043616C63756C75733A20200043616C6390
:10074000756C75733A2020003630206465677265D9
:100750006573200A00543000543000543000436167
:100760006C6962726174696F6E205375636365733F
:100770007366756C0A005430004A756D70206F7690
:1007800065722073637265773120616E64207363D4
:1007900072657732200A004A756D70206F76657237
:1007A00020736372657731200A0047333400473382
:1007B00034004733340054300047333400537572EB
:1007C00066696E6720300A0053757266696E67202D
:1007D000300A0053757266696E6720300A005375DF
:1007E0007266696E6720300A0053757266696E67BB
:1007F00020300A0054300053757266696E672030ED
:100800000A004D33340053757266696E6720300AF2
:10081000004D3234004D3233202573004D32340008
:100820004D32332025730077696C6C20626520643B
:100830006973746F727465642062792025642E2553
:100840003164253164206D6D2E0054686520666921
:10085000727374206C61796572207072696E746550
:100860006420776974682074686520257320686F38
:1008700074656E640053757266696E6720300A0095
:1008800053757266696E6720300A00537572666927
:100890006E6720300A00526561647920746F2053BE
:1008A000746172740A002564206B6D2E0067636F9B
:1008B000646520666F756E640A0020746F2053743F
:1008C00061727420446973706C61792066726F6D17
:1008D00020526573657400546F6F6B2000646973F8
:1008E000706C6179206F6E6C696E6521002E00203E
:1008F00053544F50205052494E54200A004732382A
:10090000205830205930004D3335004737300052E1
:100910004553554D450A0050415553450A004D3841
:100920003420582059205A2045004D31303700548A
:1009300030005374617274696E67205A2043616C91
:100940006962726174696F6E2057697A6172640AB4
:10095000000A00205A3A200020593A200020583A34
:10096000200042656400456E642066696C65206CF9
:100970006973740A00426567696E2066696C652058
:100980006C6973740A002F005344207072696E748E
:10099000696E67206279746520004E6F742053443D
:1009A000207072696E74696E670A002569206D692E
:1009B0006E2C20256920736563006F6B00464952D9
:1009C0004D574152455F4E414D453A4D61726C69FC
:1009D0006E2042434E3344205369676D61783B205B
:1009E0004649524D574152455F56455253494F4E25
:1009F0003A30322D322E302E3352433B204649526C
:100A00004D574152455F55524C3A68747470733A71
:100A10002F2F6769746875622E636F6D2F42434E86
:100A200033442F42434E33445369676D61782D46FA
:100A300069726D776172653B2050524F544F434F3E
:100A40004C5F56455253494F4E3A312E303B204D64
:100A5000414348494E455F545950453A42434E330D
:100A600044205369676D61783B2045585452554482
:100A700045525F434F554E543A323B2055554944F9
:100A80003A00535441544953544943532052455317
:100A900045540A004D6F64652032203A2063796323
:100AA0006C652020202D3E205247423A203620738C
:100AB0007461746573002A2A2D3E20004D6F6465B1
:100AC0002031203A2072616E646F6D20202D3E200F
:100AD0005247423A202B31202B32202B332C2064DA
:100AE0007572696E67207072696E74696E67002A2C
:100AF0002A2D3E20004D6F64652030203A20646529
:100B00006661756C74202D3E205247423A20323582
:100B1000352032353520323535002A2A2D3E200049
:100B20004C6564206D6F646573203A004D35333633
:100B3000204C5B6D6F64655D00504F534954494FC5
:100B40004E20484F4D453A2000220A00556E6B6EEC
:100B50006F776E20636F6D6D616E643A2022000ABC
:100B600000207A3A200020793A200020783A2000AC
:100B70004265640045787472756465722072656CB4
:100B80006561736564206163746976653A20005A13
:100B9000205349474D4120486F6D65640A004578F0
:100BA000747275646572206163746976653A2000B9
:100BB0004D3834005374617274696E672058204355
:100BC000616C6962726174696F6E2057697A6172D3
:100BD000640A004D3834005374617274696E672082
:100BE000592043616C6962726174696F6E20576944
:100BF0007A6172640A00457874727564657220487F
:100C000065617465640A0020573A00204500205A47
:100C100000205900483D5800205A3A0020593A0017
:100C200020436F756E7420583A200020453A00200A
:100C30005A3A0020593A00583A007A5F6D696E3A84
:100C40002000795F6D61783A2000785F6D61783AB5
:100C50002000785F6D696E3A2000486F74656E649D
:100C6000206F6666736574733A005049442041757D
:100C7000746F74756E652066696E6973686564214A
:100C80002050757420746865206C617374204B70FB
:100C90002C204B6920616E64204B6420636F6E735F
:100CA00074616E74732066726F6D2061626F766519
:100CB00020696E746F20436F6E6669677572617428
:100CC000696F6E2E680A00504944204175746F7434
:100CD000756E65206661696C6564212074696D6557
:100CE0006F75740A0020403A006F6B20543A006F11
:100CF0006B20423A00504944204175746F74756E00
:100D000065206661696C6564212054656D7065724B
:100D1000617475726520746F6F20686967680A0076
:100D2000204B643A2000204B693A2000204B703A57
:100D3000200020436C617373696320504944200A8A
:100D4000002054753A2000204B753A2000206D6138
:100D5000783A2000206D696E3A200020643A200025
:100D600020626961733A2000436F6F6C696E67207F
:100D7000446F776E204865617465720A005072692D
:100D80006E7465722068616C7465642E206B696C8A
:100D90006C28292063616C6C6564210A00457272BD
:100DA0006F723A006C617965722068656967687472
:100DB0003A200045787472756465722072656C65BE
:100DC00061736564206163746976653A20005A2016
:100DD0005349474D4120486F6D65640A004578745A
:100DE0007275646572206163746976653A200000EB
:100DF00000000000809343000000000000A04000BD
:100E000000A0400000004020004D6F766520746F08
:100E10003A2000CDAC03440080934300005243FFCE
:100E200001FF20636F6C6420657874727573696F5D
:100E30006E2070726576656E7465640A006563681D
:100E40006F3A0000002100240027002A002D003006
:100E500000330001010000040107010A0100002223
:100E600000250028002B002E003100340002010074
:100E700000050108010B01000020002300260029C5
:100E8000002C002F003200000100000301060109C0
:100E90000105050505070508080808020202020AFF
:100EA0000A0808040404040101010101010101030D
:100EB00003030303030303040707070C0C0C0C0CC8
:100EC0000C0C0C0202020206060606060606060BBB
:100ED0000B0B0B0B0B0B0B01021020200808102032
:100EE00040102040800201020108040201010204B6
:100EF0000810204080804020100804020180040275
:100F000001804020100804020108040201010204CB
:100F10000810204080010204081020408000000AD0
:100F20000B02090C0D0E080703040100000000006D
:100F300000000000000000000000000000000000B1
:100F4000000000000000000000121110000000006E
:100F50000000000000000000000000000000000091
:100F6000000000646973706C6179206F66666C695B
:100F70006E650042434E3344205369676D61780AC1
:100F80000073746172740A006563686F3A003032EE
:100F90002D322E302E3352430A006572726F72204A
:100FA00077726974696E6720746F2066696C650A70
:100FB00000205A3A0020593A0020583A00656E64E1
:100FC00073746F7073206869743A20006563686F8A
:100FD0003A00446F6E6520736176696E67206669BA
:100FE0006C652E0A006F6B0A004D32390024F4D470
:100FF0003050C38E20C2A24017828B7011127A919A
:101000000D816CD90AA861E108C758660761514390
:10101000061E4B5D05C145A7041A411104093D9800
:1010200003713931034036DB0265339102D4305409
:1010300002802E1D02632CEE01752AC501B028A086
:1010400001102781018F2564012B244B01E02234FC
:1010500001AC211F018D200D01801FFC00841EEDBD
:1010600000971DDF00B81CD200E61BC600201BBC89
:1010700000641AB200B219A8000A19A0006A1899EF
:1010800000D117910040178B00B516840031167EF1
:1010900000B31579003A157300C7146F0058146A2D
:1010A00000EE1366008813630025135E00C7125B11
:1010B000006C12570015125400C111510070114FED
:1010C0000021114B00D61049008D104700461044F6
:1010D0000002104200C00F4000800F3E00420F3C53
:1010E00000060F3B00CB0E3800930E37005C0E3528
:1010F00000270E3400F30D3200C10D3100900D3089
:1011000000600D2E00320D2D00050D2C00D90C2B8A
:1011100000AE0C2900850C29005C0C2700350C273B
:10112000000E0C2600E80B2400C40B2400A00B23A7
:10113000007D0B23005A0B2100390B2100180B20D6
:1011400000F80A1F00D90A1E00BB0A1E009D0A1DD6
:1011500000800A1D00630A1C00470A1B002C0A1BA2
:1011600000110A1A00F7091A00DD091900C409194B
:1011700000AB091900920917007B091800630917D1
:10118000004C09160036091600200916000A091538
:1011900000F5081500E0081400CC081400B8081485
:1011A00000A4081400900813007D0812006B0813B7
:1011B00000580812004608120034081100230811D4
:1011C000001208110001081100F0071000E00710DC
:1011D00000D0071000C0071000B0070F00A10710D3
:1011E0000091070E0083070F0074070F0065070EBC
:1011F0000057070E0049070E003B070D002E070E93
:101200000020070D0013070D0006070D00F9060C5E
:1012100000ED060D00E0060C00D4060C00C8060C1C
:1012200000BC060C00B0060C00A4060B0099060CCE
:10123000008D060B0082060B0077060B006C060B78
:101240000061060A0057060B004C060A0042060A17
:101250000038060A002E060A0024060A001A060AAA
:10126000001006090007060A00FD050900F405093B
:1012700000EB050900E2050900D9050900D00509C0
:1012800000C7050900BE050900B5050800AD050841
:1012900000A50509009C050800940508008C0508B8
:1012A00000840508007C050800740508006C05072B
:1012B00000650508005D050700560508004E050796
:1012C00000470507004005080038050700310507FD
:1012D000002A050700230507001C05060016050760
:1012E000000F0507000805060002050700FB0406BD
:1012F00000F5040700EE040600E8040600E2040717
:1013000000DB040600D5040600CF040600C904066D
:1013100000C3040600BD040600B7040600B10405BE
:1013200000AC040600A6040600A00405009B040609
:101330000095040500900406008A04050085040554
:1013400000800406007A0405007504050070040599
:10135000006B04050066040500610405005C0405DB
:101360000057040500520405004D0405004804051B
:1013700000430405003E0404003A0405003504055A
:1013800000300404002C0405002704040023040595
:10139000001E0404001A04040016040500110404CD
:1013A000000D040400090405000404040000040402
:1013B00000FC030400F8030400F4030400F0030439
:1013C00000EC030400E8030400E4030400E0030469
:1013D00000DC030400D8030400D4030400D0030499
:1013E00000CC030400C8030300C503030024F40475
:1013F000D9201BC40C5C0E9804C4095F02650771F8
:1014000001F405F900FB04B30048048700C1036937
:10141000005803550003034500BE023A0084023120
:101420000053022A002902250004022000E4011CC6
:1014300000C8011900AF01170098011400840113BE
:1014400000710110006101100051010E0043010DF7
:101450000036010B002B010B0020010B00150109C8
:10146000000C01090003010800FB000800F300085C
:1014700000EB000700E4000600DE000600D80006CE
:1014800000D2000600CC000500C7000500C2000520
:1014900000BD000400B9000400B5000400B1000460
:1014A00000AD000400A9000400A5000300A2000391
:1014B000009F0004009B00030098000300950002B9
:1014C0000093000300900003008D0002008B0003D6
:1014D00000880002008600020084000300810002F0
:1014E000007F0002007D0002007B00020079000204
:1014F0000077000100760002007400020072000113
:1015000000710002006F0002006D0001006C00021B
:10151000006A000100690002006700010066000126
:10152000006500010064000200620001006100012A
:1015300000600001005F0002005D0001005C00012E
:10154000005B0001005A0001005900010058000131
:101550000057000100560001005500010054000131
:10156000005300000053000100520001005100012F
:1015700000500001004F0001004E0000004E00012D
:10158000004D0001004C0001004B0000004B000129
:10159000004A000100490001004800000048000125
:1015A0000047000100460000004600010045000021
:1015B0000045000100440001004300000043000119
:1015C0000042000000420001004100000041000113
:1015D00000400001003F0000003F0001003E00000D
:1015E000003E0001003D0000003D0001003C000005
:1015F000003C0000003C0001003B0000003B0001FB
:10160000003A0000003A00010039000000390001F2
:1016100000380000003800000038000100370000EA
:1016200000370001003600000036000000360001DF
:1016300000350000003500000035000100340000D6
:1016400000340000003400010033000000330000CB
:1016500000330001003200000032000000320001BF
:1016600000310000003100000031000100300000B6
:101670000030000000300001002F0000002F0000AB
:10168000002F0000002F0001002E0000002E00009F
:10169000002E0001002D0000002D0000002D000094
:1016A000002D0001002C0000002C0000002C000088
:1016B000002C0001002B0000002B0000002B00007C
:1016C000002B0001002A0000002A0000002A000070
:1016D000002A000100290000002900000029000064
:1016E0000029000000290001002800000028000057
:1016F000002800000028000000280001002700004A
:10170000002700000027000000270000002700013C
:101710000026000000260000002600000026000031
:101720000026000100250000002500000025000023
:101730000025000000250000002500010024000015
:101740000024000000240000002400000024000108
:1017500000230000002300000023000000230000FD
:1017600000230000002300000023000100220000ED
:1017700000220000002200000022000000220000E1
:1017800000220001002100000021000000210000D3
:1017900000210000002100000021000000210001C4
:1017A00000200000002000000020000000200000B9
:1017B00000200000002000000020000000200001A8
:1017C000001F0000001F0000001F0000001F00009D
:1017D000001F0000001F0000001F0001001E00008D
:1017E000001E0000001E0000001E0000002E0A0067
:1017F00044656C6574696F6E206661696C65642C04
:101800002046696C653A200046696C652064656C09
:10181000657465643A002E0A006F70656E2066611B
:10182000696C65642C2046696C653A200047323843
:10183000205830205930000A0A005374616E6461E8
:10184000726420446576696174696F6E3A20000A9B
:10185000004D65616E3A20000A002020207A3A206F
:10186000000A00793A2000783A20003F53706563FF
:101870006966696564206E756D626572206F6620A9
:101880006C65677320696E206D6F76656D656E742B
:10189000206E6F7420706C61757361626C652E0AC6
:1018A000003F537065636966696564205920706FF5
:1018B000736974696F6E206F7574206F6620726132
:1018C0006E67652E0A003F537065636966696564DB
:1018D000205820706F736974696F6E206F75742063
:1018E0006F662072616E67652E0A003F53706563F4
:1018F00069666965642073616D706C652073697ACF
:1019000065206E6F7420706C61757361626C652EFA
:101910000A0046756C6C20737570706F727420616C
:10192000743A20687474703A2F2F33647072696E41
:1019300074626F6172642E636F6D2F666F72756D66
:101940002E7068700A004D3438205A2D50726F6224
:1019500065205265706561746162696C6974792093
:10196000746573742E20202056657273696F6E2023
:10197000322E30300A003F566572626F7365204C1C
:101980006576656C206E6F7420706C617573616232
:101990006C652E0A00426564204865617465640ABE
:1019A0000020573A00496E7374616C6C20256420E6
:1019B0002573206F6E2074686520257320686F740E
:1019C000656E642E0050757267652046696C616DA6
:1019D000656E740A0053757266696E6720310A007D
:1019E00053757266696E6720300A00425249474853
:1019F000544E4553533A2000220A00656E717565B6
:101A0000696E67202200220A00656E717565696E35
:101A100067202200202F0020400020403A0053750C
:101A20007266696E672030200A005430004D3834E9
:101A300020582059205A204500496E7374616C6CFF
:101A4000202564202573206F6E207468652025731F
:101A500020686F74656E642E00526573656E643A1B
:101A600020006F6B0A004475706C69204D6F6465CF
:101A7000204F4E0A004D6972726F72204D6F64657F
:101A8000204F4E0A002C2073617665645F466C61BE
:101A9000675F66616E6C617965725F6D6972726FA6
:101AA000723A20002C2073617665645F6665656418
:101AB00072617465313A20002C2073617665645F31
:101AC0006665656472617465303A20002C2073612C
:101AD0007665645F66616E6C617965723A20002C90
:101AE0002073617665645F74656D706265643A2029
:101AF000002C2073617665645F74656D70303A20E8
:101B0000002C2073617665645F74656D70313A20D6
:101B1000002C2073617665645F66696C65706F7315
:101B20006974696F6E3A20002C2073617665645F7A
:101B3000655F706F736974696F6E3A20002C207353
:101B4000617665645F746F6F6C5F616374697665FD
:101B50003A20002C2073617665645F7A5F706F7342
:101B60006974696F6E3A20002C2073617665645F3A
:101B7000795F706F736974696F6E3A20002C2073FF
:101B8000617665645F785F706F736974696F6E3AD0
:101B9000200053415645205052494E54204C4F4747
:101BA0003A0A006563686F3A005072696E74207279
:101BB00065636F766572792075700A004E6F7420C8
:101BC0007072696E74207265636F766572792075C4
:101BD000700A00535543434553530A0056616C75D0
:101BE0006573206F7574206F662072616E67650A79
:101BF0000056616C756573206F7574206F66207276
:101C0000616E67650A0056616C756573206F757447
:101C1000206F662072616E67650A0056616C75659B
:101C200073206F7574206F662072616E67650A009D
:101C3000535543434553530A0056616C75657320F1
:101C40006F7574206F662072616E67650A00566159
:101C50006C756573206F7574206F662072616E6796
:101C6000650A0056616C756573206F7574206F6628
:101C70002072616E67650A0056616C756573206F2E
:101C80007574206F662072616E67650A00205020AF
:101C900000205A200020592000536574204D353310
:101CA0003020582000486F74656E64206F6666733C
:101CB0006574733A0054696D6520696E6163746977
:101CC00076650A0050757267652064697374616E89
:101CD00063650A005A204F6666736574206F6B0A4D
:101CE000005A204F6666736574203A200A007A5FB6
:101CF0006D61783A20007A5F6D696E3A20005A2053
:101D00004F666673657400504F534954494F4E20D7
:101D1000484F4D453A20002A2A2A2047656E6965BA
:101D200020446973636F6E6E6563746564206672C8
:101D30006F6D204765744E65787442797465212013
:101D40002A2A2A002A2A2A2047656E696520456EBC
:101D500061626C65204174746163684576656E7478
:101D600048616E646C657220212121202A2A2A0094
:101D700043616E6E6F7420656E7465722073756258
:101D80006469723A200057726974696E6720746FD3
:101D90002066696C653A20002E0A006F70656E201F
:101DA0006661696C65642C2046696C653A20002E7A
:101DB0000A006F70656E206661696C65642C204650
:101DC000696C653A200046696C652073656C6563D3
:101DD0007465640A002053697A653A200046696C8C
:101DE00065206F70656E65643A20002E0A006F7082
:101DF000656E206661696C65642C2046696C653A85
:101E000020004E6F772066726573682066696C6586
:101E10003A20004E6F7720646F696E672066696CA8
:101E2000653A20002220706F730022207061726575
:101E30006E743A2200535542524F5554494E452034
:101E400043414C4C207461726765743A220074728D
:101E500079696E6720746F2063616C6C20737562A2
:101E60002D67636F64652066696C6573207769749C
:101E70006820746F6F206D616E79206C6576656C7B
:101E8000732E204D4158206C6576656C2069733A3D
:101E9000005341564544205052494E540A007A702E
:101EA000726F62653A200053442063617264206F50
:101EB0006B0A006F70656E526F6F74206661696C9B
:101EC00065640A00766F6C756D652E696E697420A5
:101ED0006661696C65640A004572726F723A0053FC
:101EE0004420696E6974206661696C0A0070012C77
:101EF0000190012701B0012201C0011D01F001186C
:101F0000011002130130020E016002090190020467
:101F100001C002FF000003FA004003F5008003F057
:101F200000D003EB002004E6007004E100E004DCD4
:101F3000004005D700C005D2004006CD00D006C83D
:101F4000008007C3003008BE00F008B900C009B423
:101F500000B00AAF00B00BAA00D00CA500000EA084
:101F600000500F9B00C01096005012910000148C7E
:101F700000C0158700B0178200B0197D00D01B7813
:101F800000001E730040206E0090226900F024645F
:101F90000040275F0090295A00E02B5500102E507A
:101FA0000020304B0010324600E033410090353CB9
:101FB000001037370070383200A0392D00B03A28B1
:101FC00000A03B2300603C1E00103D1900903D1412
:101FD00000103E0F00703E0A00C03E0500003F00AA
:101FE00000487973746572657369732074656D70E8
:101FF000657261747572650A00546865726D616C12
:102000002072756E617761792070726F7465637488
:10201000696F6E206279204865617465725F49441A
:102020003A0A004572726F723A004572726F7228F6
:102030003833293A2042656420746865726D69738B
:10204000746F72206E6F7420646574656374656468
:102050000A004572726F72283832293A2052696735
:10206000687420746865726D6973746F72206E6F26
:10207000742064657465637465640A004572726FE8
:1020800072283831293A204C65667420746865726C
:102090006D6973746F72206E6F742020646574654F
:1020A000637465640A002053544F50205052494EC7
:1020B00054200A004572726F72283833293A204240
:1020C000656420746865726D6973746F72206E6FD9
:1020D000742064657465637465640A002053544F0A
:1020E00050205052494E54200A004572726F722897
:1020F0003832293A20526967687420746865726DB5
:102100006973746F72206E6F742064657465637494
:1021100065640A002053544F50205052494E5420B9
:102120000A004572726F72283831293A204C656670
:102130007420746865726D6973746F72206E6F7449
:10214000202064657465637465640A002053544FED
:1021500050205052494E54200A004552524F5228A6
:102160003839293A20424544206973206E6F742023
:1021700068656174696E67002053544F5020505257
:10218000494E54200A004552524F52283839293AB4
:1021900020486F74656E64202564206973206E6F1B
:1021A000742068656174696E67006563686F3A00E2
:1021B0000A0020616E7469686F726172690A3A2060
:1021C0000020686F726172690A20002F3800766FF4
:1021D0006C746573200020566F6C746573206361A6
:1021E00072676F6C20333A200020616E7469686FEB
:1021F000726172690A3A200020686F726172690A1E
:1022000020002F3800766F6C746573200020566FA5
:102210006C74657320636172676F6C20323A2000C2
:102220000A0020647A333A200020647A323A20008F
:102230005431005430005430005430000A005675B8
:102240006974656E73333A2020004170726F783381
:102250003A202000566F6C746573333A2020000AD0
:102260000056756974656E73323A202000417072B1
:102270006F78323A202000566F6C746573323A20C2
:10228000200056616C6F7220645A333A2020005649
:10229000616C6F7220645A323A2020004E657720BC
:1022A0006F66667365742076657273696F6E3A2027
:1022B000007A335F313A20007A325F313A20005A97
:1022C0007363726F6C6C5F313A20007A335F303A1F
:1022D00020007A325F303A20005A7363726F6C6C60
:1022E0005F303A20005A76616C75652061667465CE
:1022F0007220686F6D653A00486F6D6520582F59E0
:10230000206265666F7265205A0A003B20202042D9
:1023100075696C642074696D653A202564202573A5
:10232000202564202573003B5072696E7420746907
:102330006D653A20256420257320256420257320AF
:102340002564202573003B54494D453A256C6400B3
:102350003B202020506C6173746963207765696746
:1023600068743A2025642E256467003B46696C61D9
:102370006D656E7420757365643A2025642E25643E
:102380006D2025642E256467003B46696C616D6590
:102390006E7420757365643A20256C642E256C6418
:1023A0006D003B4578747275646572732075736552
:1023B000643A205425642025642E25642054256425
:1023C0002025642E2564003B2020206578747275DA
:1023D0006465724469616D657465722C25642E258F
:1023E000642C25642E2564002E2E2E2054696D65E4
:1023F0006F757421002A2A2A2047656E6965205767
:10240000726974654F626A656374202A2A2A202DD6
:102410002D2D3E002E2E2E204E414B2021002A2A0B
:102420002A2047656E69652057726974654F626A34
:10243000656374202A2A2A202D2D2D3E002E2E2E53
:102440002041434B2021002A2A2A2047656E6965D6
:102450002057726974654F626A656374202A2A2A5C
:10246000202D2D2D3E002A2A2A2047656E696520E1
:102470004261642042797465202A2A2A202D2D2D5C
:102480003E203078002056616C75653A2000204966
:102490006E6465783A20002A2A2A2047656E6965AD
:1024A000205265706F7274204F626A656374202ACF
:1024B0002A2A204F626A6563743A20002A2A2A2059
:1024C00047656E696520436F6E6E65637465642051
:1024D0002F2053796E6321202A2A2A002056616C0E
:1024E00075653A200020496E6465783A20002A2AF2
:1024F0002A2047656E6965205265706F72742045A9
:1025000076656E74202A2A2A204F626A6563743ABF
:102510002000204C656E6774683A20002A2A2A2021
:1025200047656E6965205265636569766564204D0F
:102530006167696320446F75626C652042797465D8
:1025400073202A2A2A20496E6465783A2000204C9C
:10255000656E6774683A20002A2A2A2047656E69EA
:1025600065205265636569766564204D61676963BE
:10257000204279746573202A2A2A20496E6465787E
:102580003A20002A2A2A2047656E6965204E414B71
:10259000205265636F7665727920212121202A2AD5
:1025A0002A002A2A2A2047656E69652044697363D8
:1025B0006F6E6E65637465642066726F6D20446F24
:1025C0004576656E747321202A2A2A002A2A2A2039
:1025D00047656E696520546F6F6B20746F6F206C58
:1025E0006F6E6720746F2072652D656E7465722042
:1025F000446F4576656E747328292C207265647566
:1026000063652064656C61797320696E20636F6413
:10261000652C2073656C662D70726F7465637469C8
:102620006F6E20656E61626C65642E202A2A2A0016
:102630004572726F72205772697465204545505219
:102640004F4D0053657474696E67732053746F72D5
:1026500065640A00204D696E75746573203A002028
:10266000204C617374207072696E742074696D659A
:102670002D3E20486F757273203A004C61737420B0
:102680007072696E74206475726174696F6E0A008D
:102690002C205468697264204944206E756D62650F
:1026A0007220002C205365636F6E64204944206EB5
:1026B000756D6265723A200020204669727374203D
:1026C0004944206E756D6265723A20005549204973
:1026D0006E666F726D6174696F6E205365726961A9
:1026E0006C204E756D6265723A0A00206D2C204593
:1026F00031207072696E742064697374616E6365F1
:102700003A2000206B6D2C204530207072696E7469
:102710002064697374616E63653A2000206B6D2CD0
:102720002059207072696E742064697374616E63DD
:10273000653A2000206B6D2C205831207072696E34
:10274000742064697374616E63653A200020432CC1
:102750000A205830207072696E7420646973746145
:102760006E63653A200020432C206D6178207465EB
:102770006D7020423A200020432C206D6178207437
:10278000656D7020523A20002C206D6178207465B0
:102790006D70204C3A2000682C207072696E747342
:1027A0002066696E69736865643A20002C20707237
:1027B000696E74696E672074696D653A2000202027
:1027C0007072696E74733A200053544154533A0A3C
:1027D0000020432C20525F5052494E543A20002092
:1027E000432C20525F4245443A200020432C205283
:1027F0005F52454D4F56453A20002020525F494ECA
:10280000534552543A200054656D70202843293AAC
:102810000A0020432C204C5F5052494E543A20006D
:1028200020432C204C5F4245443A200020432C207A
:102830004C5F52454D4F56453A200020204C5F4991
:102840004E534552543A200054656D702028432958
:102850003A0A0020562856657273696F6E29200067
:10286000205228426564207269676874207363721D
:10287000657729200020204D353331204C284265D2
:1028800064206C656674207363726577292000424A
:102890006564204F66667365747320286D6D293AF0
:1028A0000A002050285A2070726F62652900205A51
:1028B00020002059200020204D35333020582000A2
:1028C0004F66667365747320286D6D293A0A00207F
:1028D0004400204900202D204D33303120524947FB
:1028E000485420500020440020490020204D33301F
:1028F00031204C45465420500050494420736574A3
:1029000074696E67733A0A00205A0020590020202B
:102910004D323036205800486F6D65206F66667303
:10292000657420286D6D293A0A00204500205A0060
:1029300020580020420020540020204D3230352005
:102940005300416476616E636564207661726961EB
:10295000626C65733A20533D4D696E20666565640F
:102960007261746520286D6D2F73292C20543D4DA4
:10297000696E2074726176656C206665656472614B
:10298000746520286D6D2F73292C20423D6D696E72
:10299000696D756D207365676D656E742074696D02
:1029A0006520286D73292C20583D6D6178696D75FF
:1029B0006D205859206A65726B20286D6D2F732920
:1029C0002C20205A3D6D6178696D756D205A206A02
:1029D00065726B20286D6D2F73292C2020453D6D6D
:1029E0006178696D756D2045206A65726B20286D70
:1029F0006D2F73290A0020540020204D32303420DE
:102A00005300416363656C65726174696F6E3A204F
:102A1000533D616363656C65726174696F6E2C20F0
:102A2000543D7265747261637420616363656C65A3
:102A3000726174696F6E0A00204500205A002059A7
:102A40000020204D3230312058004D6178696D757D
:102A50006D20416363656C65726174696F6E2028D7
:102A60006D6D2F7332293A0A00204500205A00204C
:102A7000590020204D3230332058004D6178696D67
:102A8000756D2066656564726174657320286D6D6F
:102A90002F73293A0A00204500205A0020590020AF
:102AA000204D393220580053746570732070657260
:102AB00020756E69743A0A004D313037004E6577E3
:102AC000206C617965722064657465637465640A5D
:102AD000003B206C61796572003B4C4159455200C6
:102AE000256920686F757273202569206D696E7580
:102AF00074657300446F6E65207072696E74696EE0
:102B0000672066696C650A004D3333005061757348
:102B100065207061726B696E670A00473639005034
:102B200072696E7465722073746F7070656420646E
:102B3000756520746F206572726F72732E204669FE
:102B40007820746865206572726F7220616E6420EF
:102B5000757365204D39393920746F20726573742F
:102B60006172742E202854656D706572617475727F
:102B7000652069732072657365742E205365742017
:102B80006974206166746572207265737461727411
:102B9000696E67290A006F6B0A004E6F204C696EE0
:102BA00065204E756D626572207769746820636870
:102BB00065636B73756D2C204C617374204C696E6A
:102BC000653A20004E6F20436865636B73756D2016
:102BD00077697468206C696E65206E756D626572C8
:102BE0002C204C617374204C696E653A2000636838
:102BF00065636B73756D206D69736D617463682CAB
:102C0000204C617374204C696E653A20004C696EEB
:102C100065204E756D626572206973206E6F742039
:102C20004C617374204C696E65204E756D626572DF
:102C30002B312C204C617374204C696E653A200056
:102C40004D31313000CDAC0344008093430000523D
:102C5000430000000000000000000000007C3C3E3B
:102C60005E2B3D3F2F5B5D3B2C2A225C0065636839
:102C70006F3A004D3234004D3233202573006175B8
:102C8000746F25692E6700504944204175746F7434
:102C9000756E652066696E6973686564210A005007
:102CA0004944204175746F74756E65206661696C66
:102CB0006564212074696D656F75740A0020403A5F
:102CC000006F6B20543A006F6B20423A0050494429
:102CD000204175746F74756E65206661696C6564FA
:102CE000212054656D706572617475726520746F12
:102CF0006F20686967680A00204B643A2000204B07
:102D0000693A2000204B703A200020436C617373B5
:102D1000696320504944200A002054753A2000205D
:102D20004B753A2000206D61783A2000206D696E65
:102D30003A200020643A200020626961733A200042
:102D40003B20472D436F64652067656E6572617433
:102D500065642062792053696D706C6966793344CB
:102D60002852292056657273696F6E2025640052BF
:102D70006561647920746F204C6F61642F556E6CAF
:102D80006F6164200A0053746F7265642073657408
:102D900074696E6773207265747269657665640A1A
:102DA0000048617264636F646564204465666175A0
:102DB0006C742053657474696E6773204C6F616422
:102DC00065640A0048617264636F646564204361EE
:102DD0006C696220616E64205049442044656661DC
:102DE000756C742053657474696E6773204C6F61E1
:102DF0006465640A004736392041435449564154BA
:102E000045440A0095028F0211241FBECFEFD1E284
:102E1000DEBFCDBF00E00CBF18E0A0E0B2E0EAE109
:102E2000F4E903E00BBF02C007900D92A232B10794
:102E3000D9F72DE1A2E2B8E001C01D92AB3BB20789
:102E4000E1F717E1C3E0D7E100E006C021970109EF
:102E5000802FFE010F94EEC6C230D10780E0080734
:102E6000A9F70F940AA80D94FCC90C9400002F92A6
:102E70003F924F925F926F927F928F929F92AF920A
:102E8000BF92CF92DF92EF92FF920F931F93CF9357
:102E9000DF93CDB7DEB7C352D1400FB6F894DEBF93
:102EA0000FBECDBF2DB73EB7CE5DDE4F3983288331
:102EB000C252D14011E010937608809158088111D8
:102EC0000CC00E9471DF6093540870935508809382
:102ED0005608909357081093580880914C08811118
:102EE0000DC00E9471DF6093480870934908809379
:102EF0004A0890934B0881E080934C089091091AFE
:102F000040919702509198026091990270919A02B3
:102F1000911106C080910A1A882311F40C94302272
:102F2000453A51056105710509F44DC60CF0C3C061
:102F3000473551056105710509F4BAC40CF05EC04E
:102F4000413251056105710511F40C94482034F5A6
:102F5000413151056105710509F4FCC774F4413034
:102F600051056105710509F4E8C24031510561055B
:102F7000710509F4BBC10C94E85C4331510561054E
:102F8000710509F47DC40CF49BC440325105610500
:102F9000710511F40C9457200C94E85C41345105F0
:102FA0006105710509F4DBC4ACF4453351056105D5
:102FB000710511F40C94FC204D3351056105710528
:102FC00009F4F4C3413351056105710511F00C9406
:102FD000E85C31C4463451056105710509F4C3C488
:102FE000433551056105710509F4C3C244345105E7
:102FF0006105710509F495C70C94E85C47395105E2
:103000006105710511F40C94E2204CF54637510529
:103010006105710509F476C474F4483551056105FC
:10302000710509F4E9C34A3551056105710509F4D3
:1030300016C60C94E85C4E3751056105710509F41C
:103040008DC1493851056105710509F443C24B37FB
:1030500051056105710511F00C94E85C00C64C390E
:1030600051056105710511F40C9478209CF44A39DE
:1030700051056105710511F40C94662014F00C944F
:103080006F20483951056105710511F40C94D12068
:103090000C94E85C433A51056105710509F480C55B
:1030A0000CF0B7C54D3951056105710511F40C944B
:1030B000A5200C94E85C4F3E51056105710509F4AB
:1030C00072C20CF088C0433D51056105710511F4D1
:1030D0000C94EC21BCF5483A51056105710509F4E1
:1030E000ABC504F5463A51056105710509F400C503
:1030F000473A51056105710511F00C94E85C809127
:103100006F0890917008A0917108B0917208916059
:1031100080936F0890937008A0937108B093720821
:103120000C94E85C4A3A51056105710509F40CC537
:103130000CF45CC54E3B51056105710509F46EC385
:103140000C94E85C453E51056105710509F40FC416
:1031500014F5433E51056105710509F41BC40CF0DB
:103160006AC4423E51056105710511F00C94E85C9A
:1031700080916F0890917008A0917108B0917208C9
:10318000826080936F0890937008A0937108B09349
:1031900072080C94E85C4D3E51056105710509F417
:1031A0000BC10CF0C2C14A3E51056105710511F019
:1031B0000C94E85C40E050E06EE681E20F941D5C08
:1031C0008091470A9091480A92609093480A8093B0
:1031D000470A0C94E85C4B3F51056105710509F401
:1031E00005C484F5473F51056105710509F436C4EE
:1031F000A4F4423F51056105710509F4BAC1463F87
:1032000051056105710509F44EC4413F5105610541
:10321000710511F00C94E85C90C180916F08909159
:103220007008A0917108B09172082091C502309188
:10323000C602493F51056105710509F498C40CF4B3
:103240006AC4BBC34E3631E053076105710509F40A
:10325000A8C0B4F5483691E059076105710509F435
:10326000C2C74A36A1E05A076105710509F499C041
:10327000453651406105710511F00C94E85C40E061
:1032800050E06AE28AE00F941D5C40E050E064E5A3
:1032900081E20F941D5C81E08093E8111092EB11A4
:1032A00064EC78E086E20F942B5D8091470A909160
:1032B000480A98609093480A8093470A0C94E85C07
:1032C0004937E1E05E076105710509F43FC64538FD
:1032D000F1E05F076105710509F46CC148375140A1
:1032E0006105710511F00C94E85C9CC58091230286
:1032F000813419F541E050E066E08BE10F941D5CEC
:1033000041E050E060E181E20F941D5C41E050E05B
:1033100062E181E20F941D5C41E050E063E181E2F3
:103320000F941D5C41E050E06EE781E20F941D5C5C
:1033300084E4809323020C94E85C843411F00C94B0
:10334000E85C8091470A9091480A80649093480A0B
:103350008093470A1092E8110C94E85C40E050E03A
:1033600066E08BE10F941D5C40E050E060E181E29B
:103370000F941D5C40E050E062E181E20F941D5C1F
:1033800040E050E063E181E20F941D5C40E050E0DA
:103390006EE781E20F941D5C81E4809323020C941C
:1033A000E85C8091470A9091480A92609093480A9D
:1033B0008093470A0C94E85C80912302823419F5CB
:1033C00083E48093230241E050E063E08BE10F94BB
:1033D0001D5C41E050E067E581E20F941D5C41E037
:1033E00050E066E781E20F941D5C41E050E06DEE35
:1033F00081E20F941D5C41E050E069E881E20F94A6
:103400001D5C0C94E85C833411F00C94E85C11E0D2
:1034100010936B0840E050E068E981E20F941D5C76
:1034200040E050E067E981E20F941D5C40E050E02D
:103430006CE981E20F941D5C40E050E06DE981E2AF
:103440000F941D5C41E050E06AE481E20F941D5C42
:1034500040E050E06CE28AE00F941D5C1093EB11A9
:103460008FEF9FEF909379028093780240E050E0D5
:103470006AE981E20F941D5C40E050E06BE981E273
:103480000F941D5C60917C1D70917D1D80917E1D4F
:1034900090917F1D0F9416C4AB0166E289E00F94F2
:1034A0001D5C6091801D7091811D8091821D9091A5
:1034B000831D0F9416C4AB0167E289E00F941D5C75
:1034C00040E050E068E289E00F941D5C1092E81142
:1034D0000C94E85C80912302833411F00C94E85C36
:1034E00082E48093230240E050E063E08BE10F949C
:1034F0001D5C40E050E067E581E20F941D5C40E018
:1035000050E066E781E20F941D5C40E050E06DEE14
:1035100081E20F941D5C40E050E069E881E20F9485
:103520001D5C1092EB110C94E85C40E050E064E507
:103530008AE00F941D5C0C94E85C1092E81180E026
:103540000F9466358091470A9091480A8260909363
:10355000480A8093470A81E08093EF1140E050E0F1
:1035600068E08AE00F941D5C81E48093F0110C9474
:10357000E85C80914C0A882311F40C94E85C41E0EB
:1035800050E08091490A8A3011F440E050E066E151
:103590008BE10F941D5C40E050E062E58AE00F94FF
:1035A0001D5C0C94E85C89E480931D020F94AF0DC0
:1035B0000C94E85C8091A91D9091AA1D9093B7117D
:1035C0008093B6110F94B5408091AB1D9091AC1DC6
:1035D0009093B9118093B8110F94B54082E4809311
:1035E000230282E580931D0281E08093EB1110920B
:1035F000E8118091490AE1E08A3009F4E0E0E093C3
:10360000040AF0E0EE0FFF1FEA54FE4E20813181E4
:1036100030934708209346088A3029F48091691135
:1036200090916A1104C080916D1190916E119183F7
:1036300080830F94B54081E48093F01140E050E026
:1036400068E08AE00F941D5C40E050E064E581E2B0
:103650000F941D5C80E090E0A3E4B3E48093D91163
:103660009093DA11A093DB11B093DC118090F009F4
:103670009090F109A090F209B090F3092091D51132
:103680003091D6114091D7115091D8116091D1113C
:103690007091D2118091D3119091D411E4EC6E2EDF
:1036A000E1E17E2E7F926F92FDEDCF2EF1E1DF2ED4
:1036B000E12CF12C03E413E40E947AC60F941B441E
:1036C00080E090E0A0E2B1E48093D5119093D61110
:1036D000A093D711B093D8118090EC099090ED0988
:1036E000A090EE09B090EF09E090D911F090DA11B6
:1036F0000091DB111091DC116091D1117091D21108
:103700008091D3119091D4117F926F9220E030E09C
:1037100040E251E40E947AC60F941B440F900F9030
:103720000F900F908091F0118E3411F40C94F129C8
:103730001092F0110E94616440E050E060E289E084
:103740000F941D5C40E050E064E28AE00F941D5C41
:103750000091040A10E0F801EE0FFF1FEE0FFF1FAB
:10376000E458F24E60817181828193810F9416C476
:103770007093690860936808000F111FF801EA54FC
:10378000FE4E808191810A97909367088093660826
:10379000109265081092640889E48093F0110E94E9
:1037A000616481E080936A080C94E85C8091230254
:1037B00040E050E0813441F469E08AE00F941D5C00
:1037C00064EC78E082E007C06AE28AE00F941D5C56
:1037D00064EC78E086E20F942B5D8091470A90912B
:1037E000480A98609093480A8093470A1092EB1118
:1037F0001092E8110C94E85C80914F0981110C94AF
:10380000E85C80910A1A81110C94E85C40E050E079
:1038100069E38AE00F941D5C0C94E85C80914F0989
:1038200081110C94E85C40E050E061E08AE00F9484
:103830001D5C0C94E85C80914F0981110C94E85C4C
:1038400010912302113411F00C94E85C1092E811ED
:103850001092091A81E080930A1A40E050E068E073
:103860008AE00F941D5C1093F0118091470A9091AB
:10387000480A94609093480A8093470A0C94E85C45
:1038800080912302813439F440E050E061E08AE025
:103890000F941D5CADCF843409F0AACF8091470A04
:1038A0009091480A90619093480A8093470AA0CF6C
:1038B00080912302823441F3833409F099CFEECF13
:1038C00080912302992369F0813459F48091470A49
:1038D0009091480A88609093480A8093470A0C9414
:1038E000E85C843411F00C94E85C8091470A909174
:1038F000480A80689093480A8093470A1092E8111A
:103900000C94E85C80910A1A882311F40C94E85C0A
:1039100080912302823459F48091470A9091480A99
:1039200080619093480A8093470A0C94E85C833442
:1039300011F00C94E85C40E050E066E18AE00F94FE
:103940001D5C41E050E064E581E20F941D5C82E57E
:1039500080931D0281E08093EB110C94E85C0F943E
:103960005A080C94E85C0F94E4070C94E85C80918E
:103970006F0890917008A0917108B09172088460EE
:1039800080936F0890937008A0937108B0937208A9
:103990000C94E85C80916F0890917008A091710878
:1039A000B0917208886080936F0890937008A0931C
:1039B0007108B09372080C94E85C2330310559F417
:1039C000A16080936F0890937008A0937108B093E2
:1039D00072080C94E85C846080936F089093700880
:1039E000A0937108B09372080C94E85C2091C50212
:1039F0003091C60280916F0890917008A091710873
:103A0000B09172082330310559F4A26080936F0899
:103A100090937008A0937108B09372080C94E85CBE
:103A2000886080936F0890937008A0937108B0939A
:103A300072080C94E85C80916F0890917008A091D6
:103A40007108B0917208816080936F08909370083C
:103A5000A0937108B09372080C94E85C2091C502A1
:103A60003091C60280916F0890917008A091710802
:103A7000B09172082330310559F4906180936F083A
:103A800090937008A0937108B09372080C94E85C4E
:103A9000816080936F0890937008A0937108B09331
:103AA00072080C94E85C2091C5023091C6028091A6
:103AB0006F0890917008A0917108B091720823303E
:103AC000310559F4906280936F0890937008A09329
:103AD0007108B09372080C94E85C826080936F0860
:103AE00090937008A0937108B09372080C94E85CEE
:103AF00080916F0890917008A0917108B091720840
:103B0000806280936F0890937008A0937108B093BF
:103B100072080C94E85C2330310559F4906480936A
:103B20006F0890937008A0937108B09372080C947A
:103B3000E85C806280936F0890937008A09371088E
:103B4000B09372080C94E85C80916F0890917008B3
:103B5000A0917108B0917208806180936F08909372
:103B60007008A0937108B09372080C94E85C23303D
:103B7000310559F4906880936F0890937008A09372
:103B80007108B09372080C94E85C806180936F08B0
:103B900090937008A0937108B09372080C94E85C3D
:103BA00080916F0890917008A0917108B09172088F
:103BB000806480936F0890937008A0937108B0930D
:103BC00072080C94E85C80916F0890917008A09145
:103BD0007108B0917208806880936F0890937008A4
:103BE000A0937108B09372080C94E85C80916F0800
:103BF00090917008A0917108B091720892608093C2
:103C00006F0890937008A0937108B09372080C9499
:103C1000E85C80916F0890917008A0917108B09154
:103C20007208946080936F0890937008A093710855
:103C3000B09372080C94E85C80916F0890917008C2
:103C4000A0917108B0917208986080936F0890936A
:103C50007008A0937108B09372080C94E85C4A3520
:103C600051056105710519F41092040A03C081E041
:103C70008093040A8091040AE82FF0E0EE0FFF1F02
:103C8000EA54FE4E20813181309347082093460844
:103C9000811105C08091691190916A1104C08091D1
:103CA0006D1190916E11918380830F94B54081E4E2
:103CB0008093F01140E050E068E08AE00F941D5CD2
:103CC00040E050E064E581E20F941D5C80E090E00C
:103CD000A3E4B3E48093D9119093DA11A093DB119C
:103CE000B093DC118090F0099090F109A090F20956
:103CF000B090F3092091D5113091D6114091D71190
:103D00005091D8116091D1117091D2118091D3113D
:103D10009091D411E4EC6E2EE1E17E2E7F926F92B1
:103D2000FDEDCF2EF1E1DF2EE12CF12C03E413E4C5
:103D30000E947AC60F941B4480E090E0A0E2B1E4B8
:103D40008093D5119093D611A093D711B093D81129
:103D50008090EC099090ED09A090EE09B090EF09E9
:103D6000E090D911F090DA110091DB111091DC1183
:103D70006091D1117091D2118091D3119091D41191
:103D80007F926F9220E030E040E251E40E947AC6D8
:103D90000F941B440F900F900F900F908091F01193
:103DA0008E3411F40C94F1291092F0110E94616488
:103DB00040E050E060E289E00F941D5C40E050E09C
:103DC00064E28AE00F941D5C0091040A10E0F8019F
:103DD000EE0FFF1FEE0FFF1FE458F24E608171815E
:103DE000828193810F9416C4709369086093680868
:103DF000000F111FF801EA54FE4E808191810A974D
:103E00009093670880936608109265081092640882
:103E100089E48093F0110E94616481E080936A08D4
:103E20000C94E85C40E050E060E289E00F941D5C97
:103E300040E050E064E28AE00F941D5C89E48093E6
:103E4000F0110E9461640091040A01111DC080916B
:103E50006B1190916C1160910D1170910E1168179A
:103E600079072CF4BC01990F880B990B04C0072E1D
:103E7000000C880B990B0F94E1BB0F9416C4709340
:103E8000B7116093B61120C080916F11909170119D
:103E90006091071170910811681779072CF4BC0123
:103EA000990F880B990B04C0072E000C880B990BF7
:103EB0000F94E1BB10E0000F111F0A541E4E0F9427
:103EC00016C4D8016D937C930F94B5400091040AF9
:103ED00010E0F801EE0FFF1FEE0FFF1FE458F24E47
:103EE00060817181828193810F9416C470936908F7
:103EF00060936808000F111FF801EA54FE4E80819C
:103F000091810A97909367088093660810926508DC
:103F1000109264080E94616481E080936A080C94A6
:103F2000E85C80918B02882311F40C94F65C8091FC
:103F3000040A811102C08AE101C086E30E94E0DD2B
:103F4000892B11F00C94F65C0C94E85C0F94D0086B
:103F50000C94E85C80916D0881FF02C00C94E85CD1
:103F60009091270A8091260A98130C94775E40E07E
:103F700050E06BE084E10F941D5C40E050E065E1AF
:103F80008AE00F941D5C82E48093F011809370129C
:103F9000E091040A34E0E39FF0011124E555FD4F60
:103FA00060817181828193816093D1117093D2116C
:103FB0008093D3119093D411E090D911F090DA113D
:103FC0000091DB111091DC112091D5113091D611A7
:103FD0004091D7115091D811E4E0FAE0FF93EF93AC
:103FE000812C912CE8E4AE2EE3E4BE2EFDEDCF2E25
:103FF000F1E1DF2E0E947AC6E090D911F090DA113B
:104000000091DB111091DC112091D5113091D61166
:104010004091D7115091D811E091C41164E0E69F0E
:10402000F0011124E555FD4F6081718182819381FA
:104030000F94AD5DE091C41184E0E89FF00111247C
:10404000E555FD4F80819181A281B3818093D1118B
:104050009093D211A093D311B093D411E091040A9C
:10406000F0E0EE0FFF1FEA54FE4E8091460890915B
:104070004708918380830F94B54010924C0A0F94A7
:104080001B4481E00F9411030F900F900C94E85C97
:1040900080916D0881FF02C00C94E85C9091270A22
:1040A0002091260A29130C947B5E0C947E5E8091ED
:1040B0006D0881FF02C00C94E85C9091270A209162
:1040C000260A29130C947B5E0C94825E9091270A39
:1040D0008091260A98130C94E85C0C94865E90916B
:1040E000270A8091260A98130C94E85C0C94115FBF
:1040F000E0917802F0917902EF3F9FEFF90711F418
:104100000C94E85CEE0FFF1FEA54FE4E8081918113
:104110008B33A1E09A0714F00C94E85C0596918328
:1041200080830F94B5400F94B540E0917802F091F0
:104130007902EE0FFF1FEA54FE4E4081518168E282
:1041400089E00F941D5C0C94E85CE0917802F0919A
:104150007902EF3FBFEFFB0711F40C94E85CEE0F20
:10416000FF1FEA54FE4E808191811816190614F043
:104170000C94E85C0597918380830F94B5400F946D
:10418000B540E0917802F0917902EE0FFF1FEA54FA
:10419000FE4E4081518168E289E00F941D5C0C94D1
:1041A000E85C8091780290917902019611F40C9468
:1041B000E85C9091270A8091260A98130C947B5E04
:1041C0000C949F5F8091780290917902019611F48E
:1041D0000C94E85C9091270A8091260A98130C941D
:1041E0007B5E0C94A55F9091270A8091260A981314
:1041F0000C94E85C0C94AB5F80917012823411F0E7
:104200000C94E85C1092F0118091470A9091480A52
:104210008D7F9093480A8093470A80911D028235D2
:1042200031F489E480931D020F94AF0DD1C089341D
:1042300009F0CEC081E48093F01140E050E068E0E6
:104240008AE00F941D5C4090E3085090E408609071
:10425000E5087090E6084092D5115092D611609210
:10426000D7117092D81120E030E040E752E460911D
:104270005E0270915F0280916002909161020F94E2
:104280006AC34B015C01E090D911F090DA11009102
:10429000DB111091DC116091D1117091D2118091DC
:1042A000D3119091D41124EC31E13F932F932DED54
:1042B000C22E21E1D22EA30192010E947AC60F9450
:1042C0001B440F900F908091F0118E3411F40C94D8
:1042D000F12920E030E040E251E46091E70870917C
:1042E000E8088091E9089091EA080F947CC27B016C
:1042F0008C016093D9117093DA118093DB11909344
:10430000DC118091DE0889838090620290906302C4
:10431000A0906402B09065022091D5113091D61121
:104320004091D7115091D8116091D1117091D21153
:104330008091D3119091D411FE013196FF93EF93A8
:104340000E947AC60F941B440F900F908091F01139
:104350008E3411F40C94F1291092F01182E48093C0
:10436000230240E050E063E08BE10F941D5C40E0ED
:1043700050E067E581E20F941D5C40E050E066E7A5
:1043800081E20F941D5C40E050E06DEE81E20F94FD
:104390001D5C40E050E069E881E20F941D5C40E064
:1043A00050E06AE28AE00F941D5C81E08093E8119E
:1043B0001092EB1164EC78E086E20F942B5D809113
:1043C000470A9091480A98609093480A8093470A58
:1043D000109270120C94E85C809102111092F0110E
:1043E0008823E9F0109202118091470A9091480ABF
:1043F00098609093480A8093470A8091230240E096
:1044000050E0813431F469E08AE00F941D5C0C9433
:10441000E85C6AE28AE00F941D5C0C94E85C109200
:1044200077111092EB11EBE8F8E084918F0188236B
:1044300051F0082E000C990B0F946D7D0F5F1F4FEC
:10444000F8018491F4CF1092750881E00F94110364
:1044500040E050E065E08AE00F941D5C0C94E85C5D
:104460008091BF08282F287083FF90C39091C308C4
:10447000923008F48BC3413B51056105710509F485
:10448000A8C0B4F5443651056105710509F4A1C110
:10449000A4F44E3551056105710509F4F0C24F359C
:1044A00051056105710509F41CC3453351056105CA
:1044B000710511F00C94E85C27C3403A5105610581
:1044C000710509F4C8C0423A51056105710509F446
:1044D0006AC0433851056105710511F00C94E85C20
:1044E00040E050E06DE68AE00F941D5C0C94E85CBF
:1044F0004233F1E05F076105710509F45CC13CF5E9
:10450000453C51056105710509F479C04C3C5105E4
:104510006105710509F489C0423B510561057105CA
:1045200011F00C94E85C0F94C60741E050E062EB98
:1045300081E20F941D5C41E050E060EA81E20F945B
:104540001D5C10924402109243020C94E85C4633C6
:1045500031E053076105710509F417C1ACF4433329
:1045600051406105710511F00C94E85C8DEF9FEFEF
:10457000909372128093711240E050E06AE08AE0FA
:104580000F941D5C0C94E85C4E37A1E05A0761055E
:10459000710509F4F2C1483851406105710509F40B
:1045A00024C10C94E85C0F94C60741E050E062EA35
:1045B00081E20F941D5C41E050E060EA81E20F94DB
:1045C0001D5C8EEF9FEF90934402809343020C9406
:1045D000E85C0F94C60741E050E061EB81E20F9484
:1045E0001D5C41E050E060EA81E20F941D5C8FEFBA
:1045F0009FEF90934402809343020C94E85C0F94E5
:10460000C60741E050E065EC81E20F941D5C41E09B
:1046100050E060EA81E20F941D5C81E090E09093AD
:104620004402809343020C94E85C0F94C60741E077
:1046300050E06CEC81E20F941D5C41E050E060EAD8
:1046400081E20F941D5C82E090E09093440280939D
:1046500043020C94E85C00914302109144029801DB
:104660002E5F3F4F2530310510F00C94E85C9230FE
:10467000D9F583E08093C30840E050E061E18AE02F
:104680000F941D5C80E58093F0118091C008800F2D
:104690008093C00800E010E020E030E04CE553ECEF
:1046A00060E070E088E393EC0F94FE9E0F94C607E1
:1046B00080E697E0909344028093430240E050E00C
:1046C00060EA81E20F941D5C42E050E06CE08BE117
:1046D0000F941D5C40E050E069E18AE00F941D5C9E
:1046E0001092F0110C94E85C9330D9F584E080933B
:1046F000C30840E050E061E18AE00F941D5C80E572
:104700008093F0118091C108800F8093C10800E070
:1047100010E020E030E04CE553EC60E070E080E435
:1047200093E40F94FE9E0F94C60780E697E0909363
:1047300044028093430240E050E060EA81E20F943B
:104740001D5C42E050E06CE08BE10F941D5C40E0AA
:1047500050E069E18AE00F941D5C1092F0110C9416
:10476000E85C943011F00C94E85C8091C208800FF2
:104770008093C20840E050E06EE28AE00F941D5C36
:104780008FE48093F0110C94E85C0F94C60740E02E
:1047900050E060EA81E20F941D5C40E050E069E186
:1047A0008AE00F941D5C80E697E09093440280932A
:1047B00043020C94E85C83E090E090937212809343
:1047C000711240E050E06AE08AE00F941D5C0C94A6
:1047D000E85C109272121092711240E050E06AE0B0
:1047E0008AE00F941D5C0C94E85C40E050E068E0C7
:1047F0008AE00F941D5C81E48093F01141E061E058
:1048000081E00E9435D81092F0110F941B440F9450
:104810003F0A109171128091C3088230B1F540E0D7
:1048200050E061E18AE00F941D5C80E58093F01117
:104830000091C008010F0093C008002E000C110B5E
:1048400020E030E0A901CA01B9010F94FE9E0F9447
:10485000C60780E697E0909344028093430240E0CD
:1048600050E060EA81E20F941D5C42E050E06CE0B1
:104870008BE10F941D5C40E050E069E18AE00F9409
:104880001D5C1092F0110C94E85C8330C9F540E097
:1048900050E061E18AE00F941D5C80E58093F011A7
:1048A0000091C108010F0093C108002E000C110BEC
:1048B00020E030E04CE553EC60E070E088E393ECFE
:1048C0000F94FE9E0F94C60780E697E090934402F3
:1048D0008093430240E050E060EA81E20F941D5C67
:1048E00042E050E06CE08BE10F941D5C40E050E052
:1048F00069E18AE00F941D5C1092F0110C94E85C61
:10490000843011F00C94E85C40E050E061E18AE012
:104910000F941D5C80E58093F0110091C208010F97
:104920000093C208002E000C110B20E030E04CE593
:1049300053EC60E070E080E493E40F94FE9E0F94EB
:10494000C60780E697E0909344028093430240E0DC
:1049500050E060EA81E20F941D5C42E050E06CE0C0
:104960008BE10F941D5C40E050E069E18AE00F9418
:104970001D5C1092F0110C94E85C1092F011809183
:10498000C0084091C108042F081B4091C208142F91
:10499000181B602F002E000C770B880B990B0F94BF
:1049A000E1BB2DEC3CEC4CEC5DEB0F94E9B6609375
:1049B0003F09709340098093410990934209612F08
:1049C000012E000C770B880B990B0F94E1BB2DEC9B
:1049D0003CEC4CEC5DEB0F94E9B660933B097093B3
:1049E0003C0980933D0990933E090023A1F040E0EB
:1049F00050E06FE18AE00F941D5C07FF07C0E02FD5
:104A0000FF27E1950CF4F09508E00E0F402F000F02
:104A1000550B64E015C01123B9F040E050E060E2AE
:104A20008AE00F941D5C17FF07C0212F33272195C3
:104A30000CF4309518E0120F412F110F550B65E063
:104A40008BE10F941D5C11C014E41093701240E0D0
:104A500050E06BE084E10F941D5C40E050E065E1C4
:104A60008AE00F941D5C1093F01189EE90E0909312
:104A70003A09809339090F9452680C94E85C40918C
:104A8000C2088091C008142F181BC1F040E050E00C
:104A900060E28AE00F941D5C17FF07C0812F992701
:104AA00081950CF4909518E0180F412F110F550BBC
:104AB00065E08BE10F941D5C0C94E85C14E41093AA
:104AC000701240E050E06BE084E10F941D5C40E028
:104AD00050E065E18AE00F941D5C1093F0110C9496
:104AE000E85C14E41093701240E050E06BE084E165
:104AF0000F941D5C40E050E065E18AE00F941D5C7E
:104B00001093F0110C94E85C90917012943411F0B1
:104B10000C94E85C1092C308877F8093BF081092C2
:104B2000F0111092B1111092B0110F9471401092C7
:104B3000B7111092B6110F94B5401092B91110929E
:104B4000B8110F94B540109277111092EB11E0E874
:104B5000F8E084918F01882351F0082E000C990B06
:104B60000F946D7D0F5F1F4FF8018491F4CF109269
:104B7000750880E00F94110340E050E065E08AE0A2
:104B80000F941D5C109270120C94E85C4E38F1E0AA
:104B90005F0710F00C94E85CFA018827EE58FF4F8D
:104BA0008F4F0D94EEC68091210290912202826077
:104BB00090932202809321020C94E85C8091210260
:104BC00090912202846090932202809321020C949F
:104BD000E85C8091210290912202886090932202E9
:104BE000809321020C94E85C809121029091220232
:104BF000806190932202809321020C94E85C809162
:104C000021029091220280629093220280932102DD
:104C10000C94E85C0F94BC36009781F480912102DB
:104C200090912202946090932202809321028091BD
:104C3000A11181508093A1110C94E85C019711F0AF
:104C40000C94E85C809121029091220294609093F0
:104C500022028093210240E050E067E381E20F945A
:104C60001D5C40E050E061E08BE10F941D5C8091A1
:104C7000A11181508093A1110C94E85C10927711DE
:104C80001092EB11E5E7F8E084918F01882351F051
:104C9000082E000C990B0F946D7D0F5F1F4FF801CC
:104CA0008491F4CF1092750881E00F94110340E0D5
:104CB00050E065E08AE00F941D5C0C94E85C809104
:104CC0000B1A882311F40C94E85C41E061E08CE05D
:104CD0009AE10F944F398FEF9FEF9093FA198093D9
:104CE000F919412C512C32017301620100E010E0EE
:104CF00088EAA82E89E1B82E9E012F5F3F4F190147
:104D000088248394912C4091AA1C5091AB1C6091F3
:104D1000AC1C7091AD1C8091051C9091061CA0915B
:104D2000071CB091081C84179507A607B70708F061
:104D30006DC0D501E2E31D92EA95E9F70F94335F68
:104D40000196D9F41092F4191092F3191092F619F1
:104D50001092F51981E090E09093F8198093F7197B
:104D60001092041A1092031A1092061A1092051A41
:104D700080E00F9466350C94C85F0115110521F58C
:104D80002FEF3FEF3A8329833F922F9240E45DE279
:104D90005F934F93BF92AF920F94BABB89819A8170
:104DA0000F900F900F900F900F900F90019639F089
:104DB0009092FA198092F91907E010E021C0109240
:104DC000FA191092F9191CC080E00F9445B46B01D8
:104DD0007C0181E00F9445B42B013C0120E030E0E0
:104DE000A901C701B6010F9454C518167CF020E044
:104DF00030E0A901C301B2010F9454C5181634F074
:104E00000F5F1F4F0E3111050CF47DCF80E00F9422
:104E1000663520E030E0A901C701B6010F94DBBB85
:104E200018165CF020E030E0A901C301B2010F9434
:104E3000DBBB181614F00C94C85F8090450290906C
:104E40004602A0904702B0904802A5019401C70114
:104E5000B6010F94DBBB811114C020E030E0A90142
:104E6000C701B6010F9454C518165CF420E030E079
:104E7000A901C301B2010F94DBBB181614F00C9406
:104E8000C85F2091490230914A0240914B025091F3
:104E90004C02C65EDE4F288339834A835B83CA5146
:104EA000D140C301B2010F94DBBB81111EC020E0D1
:104EB00030E0A901C301B2010F9454C518165CF487
:104EC00020E030E0A901C701B6010F94DBBB181642
:104ED00014F00C94C85FA5019401C701B6010F94AA
:104EE000DBBB882311F40C94C85F20E030E0A901FB
:104EF000C701B6010F94DBBB20E030E040E251E493
:104F000018161CF0C501B40102C0C701B6010F9408
:104F1000E9B60F9416C46093080220E030E0A901BE
:104F2000C301B2010F94DBBB20E030E040E251E46A
:104F300018164CF0C65EDE4F688179818A819B81AC
:104F4000CA51D14002C0C301B2010F94E9B60F9417
:104F500016C46093090240E050E06FE58AE00F94C8
:104F60001D5C6091450270914602809147029091CC
:104F700048020F9416C4AB016DE489E00F941D5CE8
:104F800020E030E040E251E4609145027091460239
:104F900080914702909148020F94E9B60F9416C48D
:104FA0000AE010E0CB01B8010F94BFC6AC016EE47B
:104FB00089E00F941D5C6091490270914A028091D2
:104FC0004B0290914C020F9416C4AB016FE489E040
:104FD0000F941D5C20E030E040E251E46091490212
:104FE00070914A0280914B0290914C020F94E9B665
:104FF0000F9416C4CB01B8010F94BFC6AC0160E595
:1050000089E00F941D5C809108021AE0612F0F94D3
:105010009EC6482F880F550B61E589E00F941D5CF3
:1050200080910802612F0F949EC6492F990F550B4E
:1050300062E589E00F941D5C80910902612F0F9455
:105040009EC6482F880F550B63E589E00F941D5CC1
:1050500080910902612F0F949EC6492F990F550B1D
:1050600064E589E00F941D5CBCC180910B1A882314
:1050700011F40C94E85C80915B1A81110C94E85C4B
:10508000CDB6DEB680917308909174080F94C9383C
:10509000ECE0FAE1DF010D900020E9F78DB79EB753
:1050A0008A1B9B0B9C01285F354E0FB6F8943EBFC0
:1050B0000FBE2DBF0DB71EB70F5F1F4FFF93EF93AE
:1050C00085E198E09F938F931F930F930F948CBB70
:1050D000780134E0E30EF11C0F900F900F900F90C9
:1050E0000F900F90D7018C91882349F0082E000C67
:1050F000990B0F946CC9F70181937F01F3CFC8011D
:105100000F94830381E198E00F9414030FB6F89491
:10511000DEBE0FBECDBE0C94E85C81E080937711BB
:1051200080912102909122029260909322028093BA
:1051300021020C94E85C80912102909122029160FE
:1051400090932202809321020C94E85C80912102CA
:1051500090912202806890932202809321020C9405
:10516000E85C40E050E062E18AE00F941D5C0C9442
:10517000E85C40E050E06CE18AE00F941D5C80E068
:105180000F94110310928B1D10928A1D1092891D8D
:1051900081E0809375080C94E85C1092771110926E
:1051A000EB11E6E0F8E084918F01882351F0082E9E
:1051B000000C990B0F946D7D0F5F1F4FF8018491C8
:1051C000F4CF109275080E94616481E00F9411037E
:1051D00040E050E065E08AE00F941D5C0C94E85CD0
:1051E0008091B6119091B711892B29F01092B711C7
:1051F0001092B61108C080916B0990916C09909340
:10520000B7118093B6110F94B54010928B1D0C947A
:10521000E85C8091B8119091B911892B29F0109216
:10522000B9111092B81108C080916809909169096C
:105230009093B9118093B8110F94B54010928A1DC4
:105240000C94E85C8091B0119091B111892B29F0F8
:105250001092B1111092B0111CC08091BD089091B4
:10526000BE086091BB087091BC08681779072CF4E0
:10527000BC01990F880B990B04C0072E000C880BFA
:10528000990B0F94E1BB0F9416C47093B111609306
:10529000B0110F9471401092891D0C94E85C82E06B
:1052A00098E00F9414030C94E85C40E050E06EE149
:1052B0008AE00F941D5C0C94E85C40E050E065E0EF
:1052C0008AE00F941D5C109277111092EB11E7EFBA
:1052D000F7E084918F01882351F0082E000C990B80
:1052E0000F946D7D0F5F1F4FF8018491F4CF1092E2
:1052F000750888E793E09093C4028093C3020F94EB
:1053000052680C94E85C40E050E06AE18AE00F9457
:105310001D5C0F94C53380910B1A882311F40C94F3
:10532000E85C8091A0118093A111B8E7EB2EB1E168
:10533000FB2E1CE8C12E11E1D12E00E010E080917F
:10534000A01190E008171907FCF46CE07AE183E8FB
:105350009AE10F943A755701D7018D919D917D0186
:105360000F94C938F50180819181D6018D939D9369
:105370006D0180915B1A882321F08CE09AE10F94F3
:105380005E3D0F5F1F4FDBCF87E090E00F9435123B
:105390000C94E85C8091C3029091C40280369740DF
:1053A00041F488E793E09093C4028093C3020F9482
:1053B000526840E050E068E08AE00F941D5C81E4B0
:1053C0008093F011809171098823D1F040E061E071
:1053D00081E00E9435D80F941B448091F0118E34E7
:1053E00089F48FEF9FEFDC018093970290939802EE
:1053F000A0939902B0939A02109276080C943C64A0
:1054000041E0E5CF81E00F9411031092F01184EF99
:1054100097E00F9414030F941B448091F0118E3485
:1054200001F340E050E06BE08AE00F941D5C0C94C7
:10543000E85C40E050E064E08AE00F941D5C0C946E
:10544000E85C40E050E064E28AE00F941D5C8091EB
:10545000881D82608093881D89E48093F01140E06C
:1054600050E060E289E00F941D5C60916B097091DF
:105470006C09072E000C880B990B0F94E1BB40E0E0
:1054800050E00F94C7840F9452686BE974E08FE783
:1054900097E10F94727D6EE974E08FE797E10F94C6
:1054A000727D60911503709116038091170390919E
:1054B000180342E050E00F941F3762EA74E08FE770
:1054C00097E10F94727D2DEB37E346E05EE3609148
:1054D0000D0370910E0380910F03909110030F94B0
:1054E0006AC342E050E00F941F3766EA74E08FE72A
:1054F00097E10F94727D2DEB37E346E05EE3609118
:1055000005037091060380910703909108030F949F
:10551000E9B642E050E00F941F376091680970913E
:105520006909072E000C880B990B0F94E1BB41E031
:1055300050E00F94C7840F9452686BE974E08FE7D2
:1055400097E10F94727D6EE974E08FE797E10F9415
:10555000727D6091190370911A0380911B039091E1
:105560001C0342E050E00F941F3762EA74E08FE7BB
:1055700097E10F94727D2DEB37E346E05EE3609197
:1055800011037091120380911303909114030F94EF
:105590006AC342E050E00F941F3766EA74E08FE779
:1055A00097E10F94727D2DEB37E346E05EE3609167
:1055B000090370910A0380910B0390910C030F94DF
:1055C000E9B642E050E00F941F371092F0110E94AC
:1055D000616440E050E06BE084E10F941D5C40E0CA
:1055E00050E065E18AE00F941D5C81E00F941103A7
:1055F00084E4809370128093F0110C94E85C40E096
:1056000050E068E28AE00F941D5C0C94E85C40E096
:1056100050E062E18AE00F941D5C0C94E85C10920B
:1056200077111092EB11E9EEF7E084918F01882356
:1056300051F0082E000C990B0F946D7D0F5F1F4FDA
:10564000F8018491F4CF109275080E94616440E0E3
:1056500050E065E08AE00F941D5C0C94E85C40E04B
:1056600050E062E18AE00F941D5C0C94E85C82E5F6
:1056700080931D028091881D81608093881D40E089
:1056800050E06BE581E20F941D5C40E050E06CE57A
:1056900081E20F941D5C40E050E060E08BE10F94EC
:1056A0001D5C40E050E06AE781E20F941D5C40E041
:1056B00050E069E781E20F941D5C40E050E06DE14D
:1056C0008AE00F941D5C8FEF8093040A0C94E85CD1
:1056D00040E050E06CE68AE00F941D5C0C94E85CBE
:1056E00040E050E062E18AE00F941D5C40E050E051
:1056F0006BE581E20F941D5C40E050E06CE581E2D7
:105700000F941D5C40E050E060E08BE10F941D5C65
:1057100040E050E06AE781E20F941D5C40E050E019
:1057200069E781E20F941D5C8091881D8E7F8093D4
:10573000881D0C94E85C109277111092EB11EEED3D
:10574000F7E084918F01882351F0082E000C990B0B
:105750000F946D7D0F5F1F4FF8018491F4CF10926D
:10576000750840E050E065E08AE00F941D5C40E081
:1057700050E06BE581E20F941D5C40E050E06CE589
:1057800081E20F941D5C40E050E060E08BE10F94FB
:105790001D5C40E050E06AE781E20F941D5C40E050
:1057A00050E069E781E20F941D5C8091881D8E7F37
:1057B0008093881D0C94E85C41E050E06BE581E249
:1057C0000F941D5C40E050E06CE581E20F941D5C9D
:1057D00041E050E060E08BE10F941D5C41E050E05F
:1057E0006AE781E20F941D5C41E050E069E781E2E5
:1057F0000F941D5C1092040A0C94E85C40E050E0A9
:105800006BE581E20F941D5C41E050E06CE581E2C4
:105810000F941D5C41E050E060E08BE10F941D5C53
:1058200041E050E06AE781E20F941D5C41E050E006
:1058300069E781E20F941D5C81E08093040A0C9477
:10584000E85C8091C3029091C4028036974041F495
:1058500088E793E09093C4028093C3020F94526848
:105860008091040A8F3F11F40C94E85C0F94A2B16C
:105870000C94E85C8091C3029091C40280369740FA
:1058800041F488E793E09093C4028093C3020F949D
:105890005268E091040AEF3F11F40C94E85C81E057
:1058A0008093EE11F0E0EE0FFF1FEA54FE4E84E00D
:1058B00091E0918380830F94B54081E48093F0114F
:1058C00040E050E068E08AE00F941D5C809171092F
:1058D000882311F040E001C041E061E081E00E94D6
:1058E00035D80F941B448091F0118E3409F479CD92
:1058F00080E090E0A3E4B3E48093D9119093DA11AF
:10590000A093DB11B093DC118090F0099090F10925
:10591000A090F209B090F3092091D5113091D611E1
:105920004091D7115091D8116091D1117091D2113D
:105930008091D3119091D411A4EC6A2EA1E17A2E1A
:105940007F926F92BDEDCB2EB1E1DB2EE12CF12CDD
:1059500003E413E40E947AC60F941B440F900F9047
:105960008091F0118E3409F43CCD80E090E0A0E20B
:10597000B1E48093D5119093D611A093D711B09331
:10598000D8118090EC099090ED09A090EE09B090AC
:10599000EF09E090D911F090DA110091DB1110912C
:1059A000DC116091D1117091D2118091D31190913D
:1059B000D4117F926F9220E030E040E251E40E94E7
:1059C0007AC60F941B440F900F908091F0118E3483
:1059D00009F407CD8091040A811111C080E090E0A4
:1059E0000F94DE2380E090E0ADE9B2E48093D11122
:1059F0009093D211A093D311B093D41120C081E021
:105A000090E00F94DE2320E030E048EC51E4609118
:105A1000AF027091B0028091B1029091B2020F94E6
:105A20007BC220E030E046E552E40F947BC26093F5
:105A3000D1117093D2118093D3119093D411E0902F
:105A4000D911F090DA110091DB111091DC11209145
:105A5000D5113091D6114091D7115091D811609144
:105A6000D1117091D2118091D3119091D411E4E0B1
:105A7000FAE0FF93EF93812C912CE8E4AE2EE3E45F
:105A8000BE2EFDEDCF2EF1E1DF2E0E947AC60F94DF
:105A90001B440F900F908091F0118E3409F4A1CC2B
:105AA0001092F0110E94616440E050E065E28AE0EB
:105AB0000F941D5C0C94E85C8091881D877C846049
:105AC0008093881D0C94E85C8091881D837D8061A3
:105AD0008093881D0C94E85C8091881D837E806291
