:100000000C9419170C944A170C944A170C944A171D
:100010000C944A170C944A170C944A170C944A17DC
:100020000C944A170C944A170C944A170C944A17CC
:100030000C944A170C944A170C944A170D94EE0628
:100040000C944A170C944A170C944A170C944A17AC
:100050000C944A170C944A170D9414340C94869CF3
:100060000C944A170C94B49A0C948B9A0C944A17DB
:100070000C944A170C944A170C944A170C944A177C
:100080000C9490F50C944A170C944A170C944A1748
:100090000C944A170C944A170C944A170C944A175C
:1000A0000C944A170C944A170C944A170C944A174C
:1000B0000C944A170C944A170C944A170C944A173C
:1000C0000C944A170C944A170C944A170C94569A9D
:1000D0000C942D9A0C944A170C944A170C944A17B6
:1000E0000C944A17F95A925DCA2F8E2D9E58AD284E
:1000F0005A5CC328925D925D925D02299F28925DB1
:10010000FB25F025925DAF39925D925D925D655C55
:100110007C409240A840BE405641D440955C6E4021
:100120003443005BFC39ED39EA40FE40925DB8286B
:1001300071269F286E2DE73B862D175C1B4F7E2D69
:10014000762D385C955A925DBC2F105C925D8E3C8A
:10015000CB281C260626925D925DDC29183A925D1A
:10016000E55BB95B5B48C13147286C4CFC360B3A08
:10017000C531925D565B0F5B882F723072304E3006
:10018000C931CD327A2B1B2934290E303030E52588
:100190001126925D925D9F280230EE2B102C612972
:1001A0008C3B6C3B925D68571458825A925D955C0B
:1001B000955CE259B6598A595E59DA58065932594E
:1001C000CB5AE757B84342432E443F469845224511
:1001D000925D925D9E58332C4C2C02308B578C5C78
:1001E000925D925DD65B14414B4B3747925D502632
:1001F000A0552A414041925D9A41925DC13AB93A77
:10020000925D925D3035925D925D925D5735A93574
:100210009435072FF12EC93A972D142E982EC52EFE
:10022000EB53182FBB477F354F47925D925D925D30
:10023000925D925D925D925D925D925D67296F29FC
:100240009529925D925D654779475B484B4B574BCB
:100250005C4C925DA04F0450334F874F734D925DBD
:10026000925D904D925D2052A938A73964528F4714
:10027000925DF2503C518851D451EA50A547925DAD
:10028000A852AA531E554256925DD4540E460E46AD
:100290002F559F33112BF54E7C4DAE4D804E884E21
:1002A0009F28FD4E925D925D925D925D925D925DA2
:1002B0007939925D925D8F58C25A925D925D925DDE
:1002C000925D925D925D925D925DFF565257925D96
:1002D000925D925D925D925D925D925D925D925DA6
:1002E000925D925D925D925D925D925D925D925D96
:1002F000925D925D925D925D925D925D925D925D86
:10030000925D925D925D925D925D925D925D925D75
:10031000925D925D925D925D925D925D925D925D65
:10032000925D925D925D925D925D925D925D925D55
:10033000925D925D925D925D925D925D3040F23F82
:10034000F642B842925D1D46925D925D0B3A412B9A
:10035000A8426E410B3A6E41925D84418441192B53
:10036000F35BEC5B025C095C625867586C5871582F
:10037000CF5BC05B7B58805885588A5876585D584B
:10038000FC4A1B4B8E2D2B2A212B925DED5AD65306
:10039000DF28AD2B925D925DE057A850925D925D93
:1003A000925D3B56925D8B57925D925D925D2830D7
:1003B000822BE353772F7134925D7C50925D3456DB
:1003C000925D925D925D925D925DAF2FD64AE94A51
:1003D000ED5ACB5A353611372450393B1537332A6D
:1003E000E73B3D365E4EA138D93741559355925D76
:1003F000183A2450AB48955CD13A492B7050955C23
:10040000CD99D099BF99C399C999079AD499D89988
:10041000DE99E299E699EC99F099F499079AFA999C
:10042000FE99029AA29BA79BAC9BB69BC09B399C52
:10043000CA9BD29BDA9BE49BEE9BF89B079C119C8A
:10044000399C1B9C259C2F9C710281029102A70262
:100450009D02A7027B028B02A30287028902770218
:100460006F026D029302AB0279028F028D02950238
:100470009B028502A5029F027D0267028302690238
:100480006B02084AD73B3BCE016E84BCBFFDC12F37
:100490003D6C74319ABD56833DDA3D00C77F11BE75
:1004A000D9E4BB4C3E916BAAAABE000000803F0578
:1004B000A84CCDB2D44EB93836A9020C50B99186A9
:1004C00088083CA6AAAA2ABE000000803F000D941E
:1004D00017350D941B350D9423350D9427140D9469
:1004E000CE130D94C2110D9484020D943FC90D9446
:1004F000B0130D949D120D94BB120D9415350D94EF
:10050000B87B0D943C120D9419350D94D4340D9490
:1005100056140D9492130D94D3120D949E340D9491
:10052000EC130D9421130D941E120D94AB340D9405
:1005300054570D949EB60D94C7340D9460120D94CB
:10054000FB340D94DBAF0D94E0110D94EE340D945B
:10055000FC120D94FD020D94FE110D94E27B0D949E
:1005600055574E414E494E495459494E46CDCCCC33
:100570003D0AD7233C17B7D13877CC2B329595E677
:10058000241FB14F0A000020410000C84200401C57
:100590004620BCBE4CCA1B0E5AAEC59D746364692E
:1005A0006E6F70737578585B003B4C415945523AF9
:1005B0002564003B202020757365526166742C25EC
:1005C00064004D363035205325640043616C6375FB
:1005D0006C75733A20200043616C63756C75733AD7
:1005E00020200043616C63756C75733A20200053C2
:1005F000757266696E6720300A00417420426F741C
:10060000746F6D20537469636B65720025303364B9
:100610002E25303364253033642E25303464004178
:100620007420426F74746F6D20537469636B6572CC
:1006300000253033642E25303364253033642E2575
:100640003034640025730053757266696E6720301C
:100650000A004732382058302059300054300054B6
:10066000310054300054300053757266696E672053
:10067000300A0047343300473431004734300047F4
:1006800033340047343300473433004734310047B4
:100690003430004D3834004D3834004D3834005A71
:1006A00032204F66667365743A20004F4B207365A5
:1006B000636F6E64204578747275646572210A00F8
:1006C0005A20706F736974696F6E3A20005A2070F7
:1006D0006F736974696F6E3A20004D3834005A3177
:1006E0002050726F6265206F66667365743A2000F1
:1006F0004F4B206669727374204578747275646517
:100700007221200A005A20706F736974696F6E3A03
:1007100020005A20706F736974696F6E3A2000432D
:10072000616C63756C75733A20200043616C63756E
:100730006C75733A20200043616C63756C75733A75
:1007400020200043616C63756C75733A202000367D
:10075000302064656772656573200A005430005468
:10076000300054300043616C6962726174696F6E6D
:10077000205375636365737366756C0A00543000AB
:100780004A756D70206F766572207363726577317C
:1007900020616E6420736372657732200A004A75A7
:1007A0006D70206F76657220736372657731200AF1
:1007B00000473334004733340047333400543000AB
:1007C0004733340053757266696E6720300A0053F0
:1007D000757266696E6720300A0053757266696EBD
:1007E0006720300A0053757266696E6720300A0010
:1007F00053757266696E6720300A00543000537575
:100800007266696E6720300A004D3334005375728A
:1008100066696E6720300A004D3234004D32332055
:100820002573004D3234004D323320257300776933
:100830006C6C20626520646973746F7274656420E7
:1008400062792025642E253164253164206D6D2E5A
:1008500000546865206669727374206C61796572F2
:10086000207072696E74656420776974682074689A
:100870006520257320686F74656E64005375726619
:10088000696E6720300A0053757266696E672030A2
:100890000A0053757266696E6720300A00526561FE
:1008A000647920746F2053746172740A0025642087
:1008B0006B6D2E0067636F646520666F756E640AEA
:1008C0000020746F20537461727420446973706CDB
:1008D00061792066726F6D20526573657400546F84
:1008E0006F6B2000646973706C6179206F6E6C6946
:1008F0006E6521002E002053544F50205052494E17
:1009000054200A00473238205830205930004D33E7
:10091000350047373000524553554D450A00504188
:100920005553450A004D393930005374617274696A
:100930006E67205A2043616C6962726174696F6EE0
:100940002057697A6172640A000A00205A3A20002E
:1009500020593A200020583A200042656400456E34
:10096000642066696C65206C6973740A004265676F
:10097000696E2066696C65206C6973740A002F00CB
:100980005344207072696E74696E67206279746571
:1009900020004E6F74205344207072696E74696E2B
:1009A000670A002569206D696E2C20256920736512
:1009B00063006F6B004649524D574152455F4E41AF
:1009C0004D453A4D61726C696E2042434E3344206E
:1009D0005369676D61783B204649524D57415245F6
:1009E0005F56455253494F4E3A30322D322E302EFB
:1009F000353B204649524D574152455F55524C3A7E
:100A000068747470733A2F2F6769746875622E6307
:100A10006F6D2F42434E33442F42434E334453694C
:100A2000676D61782D4669726D776172653B205004
:100A3000524F544F434F4C5F56455253494F4E3AD5
:100A4000312E303B204D414348494E455F5459506B
:100A5000453A42434E3344205369676D61783B20E9
:100A600045585452554445525F434F554E543A32BF
:100A70003B20555549443A00535441544953544935
:100A800043532052455345540A00504F534954494B
:100A90004F4E20484F4D453A2000220A00556E6BBC
:100AA0006E6F776E20636F6D6D616E643A20220009
:100AB00000002100240027002A002D003000330010
:100AC00001010000040107010A01000022002500C5
:100AD00028002B002E003100340002010000050127
:100AE00008010B01000020002300260029002C0033
:100AF0002F00320000010000030106010901050575
:100B00000505070508080808020202020A0A080883
:100B100004040404010101010101010103030303B1
:100B200003030303040707070C0C0C0C0C0C0C0C40
:100B30000202020206060606060606060B0B0B0B51
:100B40000B0B0B0B01021020200808102040102076
:100B50004080020102010804020101020408102081
:100B6000408080402010080402018004020180407F
:100B700020100804020108040201010204081020E8
:100B80004080010204081020408000000A0B020986
:100B90000C0D0E0807030401000000000000000017
:100BA0000000000000000000000000000000000045
:100BB0000000000000001211100000000000000002
:100BC0000000000000000000000000000000000025
:100BD000646973706C6179206F66666C696E65001C
:100BE00042434E3344205369676D61780A00737441
:100BF0006172740A006563686F3A0030322D322EDC
:100C0000302E350A004D3234004D3233202573002A
:100C10006175746F25692E67006572726F72207737
:100C2000726974696E6720746F2066696C650A006A
:100C3000205A3A0020593A0020583A00656E6473F1
:100C4000746F7073206869743A20006563686F3A46
:100C500000446F6E6520736176696E672066696C0B
:100C6000652E0A006F6B0A004D323900473238207A
:100C70005830205930000A0A005374616E64617262
:100C80006420446576696174696F6E3A20000A00D9
:100C90004D65616E3A20000A002020207A3A20003B
:100CA0000A00793A2000783A20003F537065636962
:100CB00066696564206E756D626572206F66206C72
:100CC00065677320696E206D6F76656D656E742043
:100CD0006E6F7420706C61757361626C652E0A00B2
:100CE0003F537065636966696564205920706F734E
:100CF0006974696F6E206F7574206F662072616E03
:100D000067652E0A003F53706563696669656420F4
:100D10005820706F736974696F6E206F7574206FDF
:100D2000662072616E67652E0A003F5370656369C5
:100D3000666965642073616D706C652073697A659E
:100D4000206E6F7420706C61757361626C652E0A21
:100D50000046756C6C20737570706F7274206174CE
:100D60003A20687474703A2F2F33647072696E740D
:100D7000626F6172642E636F6D2F666F72756D2E78
:100D80007068700A004D3438205A2D50726F6265B9
:100D9000205265706561746162696C697479207450
:100DA0006573742E20202056657273696F6E203231
:100DB0002E30300A003F566572626F7365204C65B5
:100DC00076656C206E6F7420706C61757361626CF7
:100DD000652E0A00426564204865617465640A00F6
:100DE00020573A00457874727564657220486561D1
:100DF0007465640A0020573A000A00207A3A2000FD
:100E000020793A200020783A200042656400457835
:100E10007472756465722072656C656173656420B7
:100E20006163746976653A20005A205349474D4101
:100E300020486F6D65640A00457874727564657248
:100E4000206163746976653A20004D38340053742C
:100E5000617274696E6720582043616C69627261C7
:100E600074696F6E2057697A6172640A004D383474
:100E7000005374617274696E6720592043616C6914
:100E800062726174696F6E2057697A6172640A00D8
:100E90002C2073617665645F466C61675F66616E86
:100EA0006C617965725F6D6972726F723A20002CA5
:100EB0002073617665645F6665656472617465312F
:100EC0003A20002C2073617665645F666565647204
:100ED000617465303A20002C2073617665645F662A
:100EE000616E6C617965723A20002C2073617665C1
:100EF000645F74656D706265643A20002C207361D4
:100F00007665645F74656D70303A20002C207361E3
:100F10007665645F74656D70313A20002C207361D2
:100F20007665645F66696C65706F736974696F6E0E
:100F30003A20002C2073617665645F655F706F7383
:100F40006974696F6E3A20002C2073617665645F66
:100F5000746F6F6C5F6163746976653A20002C2052
:100F600073617665645F7A5F706F736974696F6EC1
:100F70003A20002C2073617665645F795F706F732F
:100F80006974696F6E3A20002C2073617665645F26
:100F9000785F706F736974696F6E3A2000534156C1
:100FA00045205052494E54204C4F473A0A00656341
:100FB000686F3A005072696E74207265636F76656F
:100FC00072792075700A004E6F74207072696E74A9
:100FD000207265636F766572792075700A005355CB
:100FE00043434553530A0056616C756573206F7512
:100FF00074206F662072616E67650A0056616C75B9
:101000006573206F7574206F662072616E67650A64
:101010000056616C756573206F7574206F66207261
:10102000616E67650A0056616C756573206F757433
:10103000206F662072616E67650A00535543434511
:1010400053530A0056616C756573206F7574206F79
:10105000662072616E67650A0056616C7565732063
:101060006F7574206F662072616E67650A00566145
:101070006C756573206F7574206F662072616E6782
:10108000650A0056616C756573206F7574206F6614
:101090002072616E67650A0020502000205A2000EF
:1010A00020592000536574204D35333020582000DE
:1010B0004D6F64652033203A20507369636F2020A0
:1010C000202D3E205247423A2052697365264661E0
:1010D0006C6C002A2A2D3E20004D6F646520322062
:1010E0003A206379636C652020202D3E20524742D0
:1010F0003A203620737461746573002A2A2D3E20CD
:10110000004D6F64652031203A2072616E646F6D0E
:1011100020202D3E205247423A202B31202B3220D6
:101120002B332C20647572696E67207072696E743F
:10113000696E67002A2A2D3E20004D6F64652030BD
:10114000203A2064656661756C74202D3E205247FC
:10115000423A203235352032353520323535002AB5
:101160002A2D3E20004C6564206D6F646573203A23
:10117000004D353336204C5B6D6F64655D00486F04
:1011800074656E64206F6666736574733A005469A3
:101190006D6520696E6163746976650A00507572C9
:1011A00067652064697374616E63650A004D383445
:1011B00020582059205A2045005A204F66667365F2
:1011C00074206F6B0A005A204F6666736574203A6C
:1011D000200A007A5F6D61783A20007A5F6D696E4F
:1011E0003A20005A204F666673657400504F534989
:1011F00054494F4E20484F4D453A2000436F6F6C85
:10120000696E6720446F776E204865617465720A65
:10121000005072696E7465722068616C7465642E2A
:10122000206B696C6C28292063616C6C6564210AF1
:10123000004572726F723A006C6179657220686560
:10124000696768743A200045787472756465722025
:1012500072656C6561736564206163746976653A73
:1012600020005A205349474D4120486F6D65640A5C
:10127000004578747275646572206163746976657F
:101280003A200000000000008093430000000000AE
:1012900000A0400000A0400000004020004D6F76FC
:1012A0006520746F3A2000CDAC0344008093430066
:1012B000005243FF01FF20636F6C642065787472F5
:1012C0007573696F6E2070726576656E7465640AF9
:1012D000006563686F3A0024F4D43050C38E20C296
:1012E000A24017828B7011127A910D816CD90AA8D5
:1012F00061E108C7586607615143061E4B5D05C191
:1013000045A7041A411104093D980371393103407E
:1013100036DB0265339102D4305402802E1D026305
:101320002CEE01752AC501B028A001102781018F7C
:101330002564012B244B01E0223401AC211F018DD7
:10134000200D01801FFC00841EED00971DDF00B8FA
:101350001CD200E61BC600201BBC00641AB200B2FF
:1013600019A8000A19A0006A189900D11791004025
:10137000178B00B516840031167E00B31579003A3C
:10138000157300C7146F0058146A00EE13660088C6
:1013900013630025135E00C7125B006C1257001523
:1013A000125400C111510070114F0021114B00D691
:1013B0001049008D1047004610440002104200C042
:1013C0000F4000800F3E00420F3C00060F3B00CB59
:1013D0000E3800930E37005C0E3500270E3400F3F4
:1013E0000D3200C10D3100900D3000600D2E003225
:1013F0000D2D00050D2C00D90C2B00AE0C290085FD
:101400000C29005C0C2700350C27000E0C2600E888
:101410000B2400C40B2400A00B23007D0B23005AD7
:101420000B2100390B2100180B2000F80A1F00D9EE
:101430000A1E00BB0A1E009D0A1D00800A1D0063D3
:101440000A1C00470A1B002C0A1B00110A1A00F78D
:10145000091A00DD091900C4091900AB0919009225
:101460000917007B091800630917004C091600369C
:10147000091600200916000A091500F5081500E0F4
:10148000081400CC081400B8081400A40814009034
:101490000813007D0812006B08130058081200465C
:1014A000081200340811002308110012081100016D
:1014B000081100F0071000E0071000D0071000C06E
:1014C000071000B0070F00A107100091070E00835E
:1014D000070F0074070F0065070E0057070E00493D
:1014E000070E003B070D002E070E0020070D00130E
:1014F000070D0006070D00F9060C00ED060D00E0D3
:10150000060C00D4060C00C8060C00BC060C00B08B
:10151000060C00A4060B0099060C008D060B008239
:10152000060B0077060B006C060B0061060A0057DD
:10153000060B004C060A0042060A0038060A002E76
:10154000060A0024060A001A060A00100609000707
:10155000060A00FD050900F4050900EB050900E293
:10156000050900D9050900D0050900C7050900BE15
:10157000050900B5050800AD050800A50509009C92
:10158000050800940508008C050800840508007C07
:10159000050800740508006C050700650508005D76
:1015A000050700560508004E0507004705070040DF
:1015B00005080038050700310507002A0507002344
:1015C0000507001C050600160507000F05070008A3
:1015D00005060002050700FB040600F5040700EEFF
:1015E000040600E8040600E2040700DB040600D558
:1015F000040600CF040600C9040600C3040600BDAB
:10160000040600B7040600B1040500AC040600A6F9
:10161000040600A00405009B040600950405009044
:101620000406008A04050085040500800406007A8B
:1016300004050075040500700405006B04050066D0
:10164000040500610405005C040500570405005210
:101650000405004D04050048040500430405003E50
:101660000404003A04050035040500300404002C8D
:1016700004050027040400230405001E0404001AC6
:1016800004040016040500110404000D04040009FC
:101690000405000404040000040400FC030400F832
:1016A000030400F4030400F0030400EC030400E866
:1016B000030400E4030400E0030400DC030400D896
:1016C000030400D4030400D0030400CC030400C8C6
:1016D000030300C503030024F404D9201BC40C5CDD
:1016E0000E9804C4095F0265077101F405F900FB57
:1016F00004B30048048700C1036900580355000380
:10170000034500BE023A008402310053022A002938
:1017100002250004022000E4011C00C8011900AFEA
:101720000117009801140084011300710110006179
:1017300001100051010E0043010D0036010B002B7A
:10174000010B0020010B00150109000C0109000329
:10175000010800FB000800F3000800EB000700E4AC
:10176000000600DE000600D8000600D2000600CC0D
:10177000000500C7000500C2000500BD000400B957
:10178000000400B5000400B1000400AD000400A98D
:10179000000400A5000300A20003009F0004009BBA
:1017A00000030098000300950002009300030090DE
:1017B0000003008D0002008B0003008800020086F9
:1017C00000020084000300810002007F0002007D0F
:1017D0000002007B00020079000200770001007621
:1017E0000002007400020072000100710002006F2C
:1017F0000002006D0001006C0002006A0001006937
:10180000000200670001006600010065000100643D
:101810000002006200010061000100600001005F41
:101820000002005D0001005C0001005B0001005A45
:101830000001005900010058000100570001005646
:101840000001005500010054000100530000005346
:101850000001005200010051000100500001004F42
:101860000001004E0000004E0001004D0001004C40
:101870000001004B0000004B0001004A000100493C
:101880000001004800000048000100470001004638
:101890000000004600010045000000450001004432
:1018A000000100430000004300010042000000422C
:1018B0000001004100000041000100400001003F24
:1018C0000000003F0001003E0000003E0001003D1E
:1018D0000000003D0001003C0000003C0000003C16
:1018E0000001003B0000003B0001003A0000003A0C
:1018F0000001003900000039000100380000003804
:1019000000000038000100370000003700010036F9
:1019100000000036000000360001003500000035F0
:1019200000000035000100340000003400000034E5
:1019300000010033000000330000003300010032DA
:1019400000000032000000320001003100000031D0
:1019500000000031000100300000003000000030C5
:101960000001002F0000002F0000002F0000002FBA
:101970000001002E0000002E0000002E0001002DAE
:101980000000002D0000002D0000002D0001002CA3
:101990000000002C0000002C0000002C0001002B97
:1019A0000000002B0000002B0000002B0001002A8B
:1019B0000000002A0000002A0000002A000100297F
:1019C0000000002900000029000000290000002973
:1019D0000001002800000028000000280000002866
:1019E0000000002800010027000000270000002759
:1019F000000000270000002700010026000000264C
:101A0000000000260000002600000026000100253E
:101A10000000002500000025000000250000002532
:101A20000000002500010024000000240000002424
:101A30000000002400000024000100230000002317
:101A4000000000230000002300000023000000230A
:101A500000000023000100220000002200000022FC
:101A600000000022000000220000002200010021EE
:101A700000000021000000210000002100000021E2
:101A800000000021000000210001002000000020D3
:101A900000000020000000200000002000000020C6
:101AA00000000020000000200001001F0000001FB7
:101AB0000000001F0000001F0000001F0000001FAA
:101AC0000000001F0001001E0000001E0000001E9C
:101AD0000000001E000000496E7374616C6C2025CC
:101AE00064202573206F6E2074686520257320683C
:101AF0006F74656E642E0050757267652046696C60
:101B0000616D656E740A0053757266696E67203187
:101B10000A0053757266696E6720300A00425249A6
:101B20004748544E4553533A2000220A00656E71CF
:101B30007565696E67202200220A00656E71756501
:101B4000696E67202200202F0020400020403A00CC
:101B500053757266696E672030200A005430004D5C
:101B6000383420582059205A204500496E7374613A
:101B70006C6C202564202573206F6E2074686520AE
:101B8000257320686F74656E642E00526573656EF0
:101B9000643A20006F6B0A004475706C69204D6FC9
:101BA0006465204F4E0A004D6972726F72204D6F4E
:101BB0006465204F4E0A002A2A2A2047656E69650F
:101BC00020446973636F6E6E65637465642066722A
:101BD0006F6D204765744E65787442797465212075
:101BE0002A2A2A002A2A2A2047656E696520456E1E
:101BF00061626C65204174746163684576656E74DA
:101C000048616E646C657220212121202A2A2A00F5
:101C100043616E6E6F7420656E74657220737562B9
:101C20006469723A200057726974696E6720746F34
:101C30002066696C653A20002E0A006F70656E2080
:101C40006661696C65642C2046696C653A20002EDB
:101C50000A006F70656E206661696C65642C2046B1
:101C6000696C653A200046696C652073656C656334
:101C70007465640A002053697A653A200046696CED
:101C800065206F70656E65643A20002E0A006F70E3
:101C9000656E206661696C65642C2046696C653AE6
:101CA00020004E6F772066726573682066696C65E8
:101CB0003A20004E6F7720646F696E672066696C0A
:101CC000653A20002220706F7300222070617265D7
:101CD0006E743A2200535542524F5554494E452096
:101CE00043414C4C207461726765743A22007472EF
:101CF00079696E6720746F2063616C6C2073756204
:101D00002D67636F64652066696C657320776974FD
:101D10006820746F6F206D616E79206C6576656CDC
:101D2000732E204D4158206C6576656C2069733A9E
:101D3000005341564544205052494E540A007A708F
:101D4000726F62653A200053442063617264206FB1
:101D50006B0A006F70656E526F6F74206661696CFC
:101D600065640A00766F6C756D652E696E69742006
:101D70006661696C65640A004572726F723A00535D
:101D80004420696E6974206661696C0A0070012CD8
:101D90000190012701B0012201C0011D01F00118CD
:101DA000011002130130020E0160020901900204C9
:101DB00001C002FF000003FA004003F5008003F0B9
:101DC00000D003EB002004E6007004E100E004DC36
:101DD000004005D700C005D2004006CD00D006C89F
:101DE000008007C3003008BE00F008B900C009B485
:101DF00000B00AAF00B00BAA00D00CA500000EA0E6
:101E000000500F9B00C01096005012910000148CDF
:101E100000C0158700B0178200B0197D00D01B7874
:101E200000001E730040206E0090226900F02464C0
:101E30000040275F0090295A00E02B5500102E50DB
:101E40000020304B0010324600E033410090353C1A
:101E5000001037370070383200A0392D00B03A2812
:101E600000A03B2300603C1E00103D1900903D1473
:101E700000103E0F00703E0A00C03E0500003F000B
:101E800000487973746572657369732074656D7049
:101E9000657261747572650A00546865726D616C73
:101EA0002072756E617761792070726F74656374EA
:101EB000696F6E206279204865617465725F49447C
:101EC0003A0A004572726F723A004572726F722858
:101ED0003833293A2042656420746865726D6973ED
:101EE000746F72206E6F74206465746563746564CA
:101EF0000A004572726F72283832293A2052696797
:101F0000687420746865726D6973746F72206E6F87
:101F1000742064657465637465640A004572726F49
:101F200072283831293A204C6566742074686572CD
:101F30006D6973746F72206E6F74202064657465B0
:101F4000637465640A002053544F50205052494E28
:101F500054200A004572726F72283833293A2042A1
:101F6000656420746865726D6973746F72206E6F3A
:101F7000742064657465637465640A002053544F6B
:101F800050205052494E54200A004572726F7228F8
:101F90003832293A20526967687420746865726D16
:101FA0006973746F72206E6F7420646574656374F6
:101FB00065640A002053544F50205052494E54201B
:101FC0000A004572726F72283831293A204C6566D2
:101FD0007420746865726D6973746F72206E6F74AB
:101FE000202064657465637465640A002053544F4F
:101FF00050205052494E54200A004552524F522808
:102000003839293A20424544206973206E6F742084
:1020100068656174696E67002053544F50205052B8
:10202000494E54200A004552524F52283839293A15
:1020300020486F74656E64202564206973206E6F7C
:10204000742068656174696E67006563686F3A0043
:10205000204500205A00205900483D5800205A3A97
:102060000020593A0020436F756E7420583A2000C2
:1020700020453A00205A3A0020593A00583A007A4E
:102080005F6D696E3A2000795F6D61783A20007863
:102090005F6D61783A2000785F6D696E3A20004884
:1020A0006F74656E64206F6666736574733A005072
:1020B0004944204175746F74756E652066696E6958
:1020C00073686564212050757420746865206C61A4
:1020D0007374204B702C204B6920616E64204B641C
:1020E00020636F6E7374616E74732066726F6D20FF
:1020F00061626F766520696E746F20436F6E6669EA
:102100006775726174696F6E2E680A0050494420C9
:102110004175746F74756E65206661696C656421C4
:102120002074696D656F75740A0020403A006F6B0A
:1021300020543A006F6B20423A00504944204175C8
:10214000746F74756E65206661696C6564212054D6
:10215000656D706572617475726520746F6F20684B
:102160006967680A00204B643A2000204B693A20D6
:1021700000204B703A200020436C61737369632028
:10218000504944200A002054753A2000204B753AEB
:102190002000206D61783A2000206D696E3A2000A1
:1021A00020643A200020626961733A20000A00200E
:1021B000616E7469686F726172690A3A2000206802
:1021C0006F726172690A20002F3800766F6C746537
:1021D00073200020566F6C74657320636172676FA3
:1021E0006C20333A200020616E7469686F726172EE
:1021F000690A3A200020686F726172690A20002F14
:102200003800766F6C746573200020566F6C7465AF
:102210007320636172676F6C20323A20000A0020DD
:10222000647A333A200020647A323A200054310034
:102230005430005430005430000A005675697465FB
:102240006E73333A2020004170726F78333A202049
:1022500000566F6C746573333A2020000A0056757F
:102260006974656E73323A2020004170726F783263
:102270003A202000566F6C746573323A2020005665
:10228000616C6F7220645A333A20200056616C6F83
:102290007220645A323A2020004E6577206F6666BD
:1022A0007365742076657273696F6E3A20007A33B5
:1022B0005F313A20007A325F313A20005A736372FC
:1022C0006F6C6C5F313A20007A335F303A20007ACD
:1022D000325F303A20005A7363726F6C6C5F303A31
:1022E00020005A76616C756520616674657220689D
:1022F0006F6D653A00486F6D6520582F59206265F3
:10230000666F7265205A0A004572726F72205772AA
:1023100069746520454550524F4D0053657474698A
:102320006E67732053746F7265640A00204D696E86
:1023300075746573203A0020204C617374207072AC
:10234000696E742074696D652D3E20486F757273D7
:10235000203A004C617374207072696E7420647549
:10236000726174696F6E0A002C205468697264206F
:102370004944206E756D62657220002C20536563A0
:102380006F6E64204944206E756D6265723A20005C
:1023900020204669727374204944206E756D626511
:1023A000723A2000554920496E666F726D617469FA
:1023B0006F6E2053657269616C204E756D62657237
:1023C0003A0A00206D2C204531207072696E74200D
:1023D00064697374616E63653A2000206B6D2C2014
:1023E0004530207072696E742064697374616E6325
:1023F000653A2000206B6D2C2059207072696E7434
:102400002064697374616E63653A2000206B6D2CE3
:10241000205831207072696E742064697374616E23
:1024200063653A200020432C0A20583020707269DE
:102430006E742064697374616E63653A2000204392
:102440002C206D61782074656D7020423A20002048
:10245000432C206D61782074656D7020523A200005
:102460002C206D61782074656D70204C3A200068D6
:102470002C207072696E74732066696E697368656A
:10248000643A20002C207072696E74696E67207443
:10249000696D653A200020207072696E74733A206D
:1024A0000053544154533A0A0020432C20525F50A9
:1024B00052494E543A200020432C20525F4245445A
:1024C0003A200020432C20525F52454D4F56453A4A
:1024D00020002020525F494E534552543A20005468
:1024E000656D70202843293A0A0020432C204C5F58
:1024F0005052494E543A200020432C204C5F424514
:10250000443A200020432C204C5F52454D4F564505
:102510003A200020204C5F494E534552543A200047
:1025200054656D70202843293A0A002056285665C4
:102530007273696F6E2920002052284265642072F0
:102540006967687420736372657729200020204DC5
:10255000353331204C28426564206C6566742073E5
:1025600063726577292000426564204F6666736553
:10257000747320286D6D293A0A002050285A207063
:10258000726F62652900205A200020592000202007
:102590004D353330205820004F66667365747320C4
:1025A000286D6D293A0A00204400204900202D2082
:1025B0004D333031205249474854205000204400C8
:1025C00020490020204D333031204C4546542050C6
:1025D000005049442073657474696E67733A0A0049
:1025E000205A0020590020204D3230362058004813
:1025F0006F6D65206F666673657420286D6D293A6E
:102600000A00204500205A00205800204200205493
:102610000020204D323035205300416476616E63D6
:102620006564207661726961626C65733A20533D1E
:102630004D696E20666565647261746520286D6DF4
:102640002F73292C20543D4D696E2074726176657C
:102650006C20666565647261746520286D6D2F73EA
:10266000292C20423D6D696E696D756D207365671B
:102670006D656E742074696D6520286D73292C203A
:10268000583D6D6178696D756D205859206A657285
:102690006B20286D6D2F73292C20205A3D6D617899
:1026A000696D756D205A206A65726B20286D6D2FDB
:1026B00073292C2020453D6D6178696D756D20452D
:1026C000206A65726B20286D6D2F73290A002054D3
:1026D0000020204D323034205300416363656C6527
:1026E000726174696F6E3A20533D616363656C6516
:1026F000726174696F6E2C20543D726574726163EF
:102700007420616363656C65726174696F6E0A0041
:10271000204500205A0020590020204D3230312021
:1027200058004D6178696D756D20416363656C6516
:10273000726174696F6E20286D6D2F7332293A0AA9
:1027400000204500205A0020590020204D3230330F
:102750002058004D6178696D756D206665656472FD
:102760006174657320286D6D2F73293A0A00204526
:1027700000205A0020590020204D393220580053A3
:10278000746570732070657220756E69743A0A0002
:102790003B2020204275696C642074696D653A2085
:1027A00025642025732025642025730A003B507280
:1027B000696E742074696D653A2025642025732044
:1027C0002564202573202564202573003B54494D42
:1027D000453A256C64003B202020506C617374697D
:1027E00063207765696768743A2025642E256467DD
:1027F000003B46696C616D656E7420757365643A63
:102800002025642E25646D2025642E256467003BF9
:1028100046696C616D656E7420757365643A202538
:102820006C642E256C646D003B457874727564652C
:10283000727320757365643A205425642025642ED4
:102840002564205425642025642E2564003B202027
:102850002065787472756465724469616D6574652C
:10286000722C25642E25642C25642E2564002E2EC2
:102870002E2054696D656F757421002A2A2A20471D
:10288000656E69652057726974654F626A65637425
:10289000202A2A2A202D2D2D3E002E2E2E204E417C
:1028A0004B2021002A2A2A2047656E69652057722D
:1028B0006974654F626A656374202A2A2A202D2D67
:1028C0002D3E002E2E2E2041434B2021002A2A2A65
:1028D0002047656E69652057726974654F626A6545
:1028E0006374202A2A2A202D2D2D3E002A2A2A20F0
:1028F00047656E6965204261642042797465202ACB
:102900002A2A202D2D2D3E203078002056616C750E
:10291000653A200020496E6465783A20002A2A2A08
:102920002047656E6965205265706F7274204F6232
:102930006A656374202A2A2A204F626A6563743AA2
:1029400020002A2A2A2047656E696520436F6E6E33
:102950006563746564202F2053796E6321202A2AD1
:102960002A002056616C75653A200020496E646526
:10297000783A20002A2A2A2047656E696520526528
:10298000706F7274204576656E74202A2A2A204F53
:10299000626A6563743A2000204C656E6774683A19
:1029A00020002A2A2A2047656E69652052656365E2
:1029B00069766564204D6167696320446F75626C58
:1029C00065204279746573202A2A2A20496E64653D
:1029D000783A2000204C656E6774683A20002A2AF5
:1029E0002A2047656E69652052656365697665646E
:1029F000204D61676963204279746573202A2A2A11
:102A000020496E6465783A20002A2A2A2047656E9C
:102A10006965204E414B205265636F76657279205F
:102A2000212121202A2A2A002A2A2A2047656E6984
:102A30006520446973636F6E6E65637465642066B8
:102A4000726F6D20446F4576656E747321202A2A5B
:102A50002A002A2A2A2047656E696520546F6F6B09
:102A600020746F6F206C6F6E6720746F2072652DFD
:102A7000656E74657220446F4576656E747328299F
:102A80002C207265647563652064656C61797320C0
:102A9000696E20636F64652C2073656C662D70729F
:102AA0006F74656374696F6E20656E61626C6564D6
:102AB0002E202A2A2A007C3C3E5E2B3D3F2F5B5D68
:102AC0003B2C2A225C004D313037004E6577206C5C
:102AD000617965722064657465637465640A003B9E
:102AE000206C61796572003B4C4159455200256963
:102AF00020686F757273202569206D696E75746525
:102B00007300446F6E65207072696E74696E672021
:102B100066696C650A004D3333005061757365203A
:102B20007061726B696E670A0047363900507269CE
:102B30006E7465722073746F70706564206475655F
:102B400020746F206572726F72732E204669782030
:102B5000746865206572726F7220616E642075738F
:102B600065204D39393920746F2072657374617234
:102B7000742E202854656D706572617475726520BD
:102B800069732072657365742E20536574206974AF
:102B90002061667465722072657374617274696E07
:102BA00067290A006F6B0A004E6F204C696E652022
:102BB0004E756D626572207769746820636865631D
:102BC0006B73756D2C204C617374204C696E653A83
:102BD00020004E6F20436865636B73756D207769C5
:102BE0007468206C696E65206E756D6265722C204C
:102BF0004C617374204C696E653A200063686563AC
:102C00006B73756D206D69736D617463682C204CF6
:102C1000617374204C696E653A20004C696E6520C2
:102C20004E756D626572206973206E6F74204C6101
:102C30007374204C696E65204E756D6265722B3120
:102C40002C204C617374204C696E653A20004D3124
:102C5000313000CDAC034400809343000052430068
:102C60000000000000000000000000504944204126
:102C700075746F74756E652066696E6973686564D6
:102C8000210A00504944204175746F74756E6520A7
:102C90006661696C6564212074696D656F75740A7D
:102CA0000020403A006F6B20543A006F6B20423A8C
:102CB00000504944204175746F74756E65206661DB
:102CC000696C6564212054656D70657261747572FC
:102CD0006520746F6F20686967680A00204B643A4A
:102CE0002000204B693A2000204B703A20002043FE
:102CF0006C617373696320504944200A0020547545
:102D00003A2000204B753A2000206D61783A20006F
:102D1000206D696E3A200020643A200020626961CB
:102D2000733A20003B20472D436F64652067656E32
:102D30006572617465642062792053696D706C6995
:102D4000667933442852292056657273696F6E2064
:102D5000256400526561647920746F204C6F616452
:102D60002F556E6C6F6164200A006563686F3A00CE
:102D700053746F7265642073657474696E67732031
:102D80007265747269657665640A0048617264638D
:102D90006F6465642044656661756C742053657466
:102DA00074696E6773204C6F616465640A004861E2
:102DB0007264636F6465642043616C696220616E54
:102DC00064205049442044656661756C74205365E5
:102DD0007474696E6773204C6F616465640A0047A0
:102DE0003639204143544956415445440A002E0A7D
:102DF0000044656C6574696F6E206661696C65641A
:102E00002C2046696C653A200046696C6520646533
:102E10006C657465643A002E0A006F70656E2066FA
:102E200061696C65642C2046696C653A20009902E2
:102E3000A10211241FBECFEFD1E2DEBFCDBF00E063
:102E40000CBF18E0A0E0B2E0E6E6F7E903E00BBF54
:102E500002C007900D92A23AB107D9F72EE1A2EA7B
:102E6000B8E001C01D92A535B207E1F717E1C8E14E
:102E7000D7E100E006C021970109802FFE010F94E1
:102E800094C8C731D10780E00807A9F70F94E09FE5
:102E90000D94A2CB0C9400002F923F924F925F9220
:102EA0006F927F928F929F92AF92BF92CF92DF925A
:102EB000EF92FF920F931F93CF93DF93CDB7DEB7BF
:102EC000C352D1400FB6F894DEBF0FBECDBF2DB7B1
:102ED0003EB7CE5DDE4F39832883C252D14011E028
:102EE0001093F5088091D80881110CC00E947A9C3B
:102EF0006093D4087093D5088093D6089093D70830
:102F00001093D8088091CC0881110DC00E947A9C42
:102F10006093C8087093C9088093CA089093CB083F
:102F200081E08093CC089091D81A40919102509101
:102F300092026091930270919402911106C0809167
:102F4000D91A882311F40C944222453A510561059F
:102F5000710509F44DC60CF0C3C047355105610534
:102F6000710509F4BAC40CF05EC041325105610527
:102F7000710511F40C945A2034F541315105610565
:102F8000710509F4FCC774F4413051056105710500
:102F900009F4E8C2403151056105710509F4BBC16E
:102FA0000C94925D433151056105710509F47DC4AE
:102FB0000CF49BC4403251056105710511F40C9469
:102FC00069200C94925D413451056105710509F445
:102FD000DBC4ACF4453351056105710511F40C9463
:102FE0000E214D3351056105710509F4F4C34133D8
:102FF00051056105710511F00C94925D31C44634A0
:1030000051056105710509F4C3C4433551056105D6
:10301000710509F4C3C2443451056105710509F411
:1030200095C70C94925D473951056105710511F4FE
:103030000C94F4204CF5463751056105710509F4EF
:1030400076C474F4483551056105710509F4E9C386
:103050004A3551056105710509F416C60C94925D57
:103060004E3751056105710509F48DC14938510587
:103070006105710509F443C24B37510561057105BE
:1030800011F00C94925D00C64C3951056105710533
:1030900011F40C948A209CF44A395105610571059C
:1030A00011F40C94782014F00C94812048395105C7
:1030B0006105710511F40C94E3200C94925D433A80
:1030C00051056105710509F480C50CF0B7C54D398E
:1030D00051056105710511F40C94B7200C94925DB3
:1030E0004F3E51056105710509F472C20CF088C0AC
:1030F000433D51056105710511F40C94FE21BCF5A9
:10310000483A51056105710509F4ABC504F5463A25
:1031100051056105710509F400C5473A510561057E
:10312000710511F00C94925D8091EF089091F00878
:10313000A091F108B091F20891608093EF0890930C
:10314000F008A093F108B093F2080C94925D4A3A0B
:1031500051056105710509F40CC50CF45CC54E3BC5
:1031600051056105710509F46EC30C94925D453EED
:1031700051056105710509F40FC414F5433E51056D
:103180006105710509F41BC40CF06AC4423E510587
:103190006105710511F00C94925D8091EF0890919A
:1031A000F008A091F108B091F20882608093EF08D6
:1031B0009093F008A093F108B093F2080C94925DFC
:1031C0004D3E51056105710509F40BC10CF0C2C1FA
:1031D0004A3E51056105710511F00C94925D40E085
:1031E00050E06EE681E20F9431668091260A90915C
:1031F000270A92609093270A8093260A0C94925D86
:103200004B3F51056105710509F405C484F5473F3D
:1032100051056105710509F436C4A4F4423F510516
:103220006105710509F4BAC1463F51056105710593
:1032300009F44EC4413F51056105710511F00C942C
:10324000925D90C18091EF089091F008A091F108F3
:10325000B091F2082091BD023091BE02493F510564
:103260006105710509F498C40CF46AC4BBC34E36F9
:1032700031E053076105710509F4A8C0B4F548367B
:1032800091E059076105710509F4BFC74A36A1E00D
:103290005A076105710509F499C045365140610529
:1032A000710511F00C94925D40E050E06AE28AE012
:1032B0000F94316640E050E064E581E20F9431669E
:1032C00081E080938A1210928D1263E479E086E2A5
:1032D0000F943F678091260A9091270A98609093F7
:1032E000270A8093260A0C94925D4937E1E05E0735
:1032F0006105710509F43FC64538F1E05F076105D6
:10330000710509F46CC1483751406105710511F030
:103310000C94925D9CC580912302813419F541E0A3
:1033200050E066E08BE10F94316641E050E060E1EF
:1033300081E20F94316641E050E062E181E20F9456
:10334000316641E050E063E181E20F94316641E093
:1033500050E06EE781E20F94316684E480932302AB
:103360000C94925D843411F00C94925D8091260A45
:103370009091270A80649093270A8093260A1092DE
:103380008A120C94925D40E050E066E08BE10F946D
:10339000316640E050E060E181E20F94316640E048
:1033A00050E062E181E20F94316640E050E063E179
:1033B00081E20F94316640E050E06EE781E20F94C5
:1033C000316681E4809323020C94925D8091260AF9
:1033D0009091270A92609093270A8093260A0C9472
:1033E000925D80912302823419F583E48093230255
:1033F00041E050E063E08BE10F94316641E050E042
:1034000067E581E20F94316641E050E066E781E2D2
:103410000F94316641E050E06DEE81E20F94316629
:1034200041E050E069E881E20F9431660C94925DCE
:10343000833411F00C94925D11E01093EB0840E09E
:1034400050E068E981E20F94316640E050E067E9BE
:1034500081E20F94316640E050E06CE981E20F9424
:10346000316640E050E06DE981E20F94316641E061
:1034700050E06AE481E20F94316640E050E06CE293
:103480008AE00F94316610938D128FEF9FEF909327
:1034900081028093800240E050E06AE981E20F946B
:1034A000316640E050E06BE981E20F943166609153
:1034B000FD137091FE138091FF13909100140F94EF
:1034C000BCC5AB0166E289E00F94316660910114DE
:1034D0007091021480910314909104140F94BCC550
:1034E000AB0167E289E00F94316640E050E068E2AA
:1034F00089E00F94316610928A120C94925D80914B
:103500002302833411F00C94925D82E480932302B1
:1035100040E050E063E08BE10F94316640E050E022
:1035200067E581E20F94316640E050E066E781E2B2
:103530000F94316640E050E06DEE81E20F94316609
:1035400040E050E069E881E20F94316610928D12FC
:103550000C94925D40E050E064E58AE00F9431669F
:103560000C94925D10928A1280E00F94872A8091C9
:10357000260A9091270A82609093270A8093260A50
:1035800081E08093911240E050E068E08AE00F947F
:10359000316681E4809392120C94925D80912B0AA3
:1035A000882311F40C94925D41E050E08091280A48
:1035B0008A3011F440E050E066E18BE10F9431660F
:1035C00040E050E062E58AE00F9431660C94925D31
:1035D00089E480931D020F94960F0C94925D809164
:1035E0004B1E90914C1E90935912809358120F9439
:1035F000C53580914D1E90914E1E90935B12809325
:103600005A120F94C53582E48093230282E5809399
:103610001D0281E080938D1210928A128091280AF7
:10362000E1E08A3009F4E0E0E0939C0CF0E0EE0F7A
:10363000FF1FE85AFD4E208131813093C708209347
:10364000C6088A3029F48091CE0B9091CF0B04C02C
:103650008091D20B9091D30B918380830F94C535C9
:1036600081E48093921240E050E068E08AE00F9499
:10367000316640E050E064E581E20F94316680E01D
:1036800090E0A3E4B3E480937B1290937C12A09328
:103690007D12B0937E128090880C9090890CA0903F
:1036A0008A0CB0908B0C2091771230917812409157
:1036B000791250917A126091731270917412809104
:1036C000751290917612E6E66E2EE2E17E2E7F92E2
:1036D0006F92FFE7CF2EF2E1DF2EE12CF12C03E415
:1036E00013E40E9426E00F942B3980E090E0A0E2E2
:1036F000B1E48093771290937812A0937912B093EB
:103700007A128090840C9090850CA090860CB090DA
:10371000870CE0907B12F0907C1200917D1210914A
:103720007E12609173127091741280917512909153
:1037300076127F926F9220E030E040E251E40E94E6
:1037400026E00F942B390F900F900F900F908091DF
:1037500092128E3411F40C94032A109292120E9449
:103760000B6540E050E060E289E00F94316640E094
:1037700050E064E28AE00F94316600919C0C10E006
:10378000F801EE0FFF1FEE0FFF1FE350FC4E6081AC
:103790007181828193810F94BCC57093E908609315
:1037A000E808000F111FF801E85AFD4E8081918151
:1037B0000A979093E7088093E6081092E508109224
:1037C000E40889E4809392120E940B6581E0809363
:1037D000EA080C94925D8091230240E050E081342D
:1037E00041F469E08AE00F94316663E479E082E0B5
:1037F00007C06AE28AE00F94316663E479E086E20A
:103800000F943F678091260A9091270A98609093C1
:10381000270A8093260A10928D1210928A120C9415
:10382000925D8091CC0B81110C94925D8091D91A9C
:1038300081110C94925D40E050E069E38AE00F94BE
:1038400031660C94925D8091CC0B81110C94925D49
:1038500040E050E061E08AE00F9431660C94925DA4
:103860008091CC0B81110C94925D10912302113444
:1038700011F00C94925D10928A121092D81A81E085
:103880008093D91A40E050E068E08AE00F943166F6
:10389000109392128091260A9091270A9460909337
:1038A000270A8093260A0C94925D8091230281342A
:1038B00039F440E050E061E08AE00F943166ADCF2A
:1038C000843409F0AACF8091260A9091270A90614A
:1038D0009093270A8093260AA0CF809123028234F6
:1038E00041F3833409F099CFEECF809123029923DD
:1038F00069F0813459F48091260A9091270A8860F2
:103900009093270A8093260A0C94925D843411F0D8
:103910000C94925D8091260A9091270A806890937A
:10392000270A8093260A10928A120C94925D809145
:10393000D91A882311F40C94925D80912302823469
:1039400059F48091260A9091270A80619093270A62
:103950008093260A0C94925D833411F00C94925D4E
:1039600040E050E066E18AE00F94316641E050E0CB
:1039700064E581E20F94316682E580931D0281E067
:1039800080938D120C94925D0F94490A0C94925D71
:103990000F94D3090C94925D8091EF089091F008F8
:1039A000A091F108B091F20884608093EF089093A1
:1039B000F008A093F108B093F2080C94925D809106
:1039C000EF089091F008A091F108B091F20888609A
:1039D0008093EF089093F008A093F108B093F20859
:1039E0000C94925D2330310559F4A1608093EF0867
:1039F0009093F008A093F108B093F2080C94925DB4
:103A000084608093EF089093F008A093F108B0933E
:103A1000F2080C94925D2091BD023091BE0280911B
:103A2000EF089091F008A091F108B091F2082330CE
:103A3000310559F4A2608093EF089093F008A093A9
:103A4000F108B093F2080C94925D88608093EF08BF
:103A50009093F008A093F108B093F2080C94925D53
:103A60008091EF089091F008A091F108B091F208D0
:103A700081608093EF089093F008A093F108B093D1
:103A8000F2080C94925D2091BD023091BE028091AB
:103A9000EF089091F008A091F108B091F20823305E
:103AA000310559F490618093EF089093F008A0934A
:103AB000F108B093F2080C94925D81608093EF0856
:103AC0009093F008A093F108B093F2080C94925DE3
:103AD0002091BD023091BE028091EF089091F008D4
:103AE000A091F108B091F2082330310559F49062A9
:103AF0008093EF089093F008A093F108B093F20838
:103B00000C94925D82608093EF089093F008A093EC
:103B1000F108B093F2080C94925D8091EF089091B7
:103B2000F008A091F108B091F20880628093EF084C
:103B30009093F008A093F108B093F2080C94925D72
:103B40002330310559F490648093EF089093F00886
:103B5000A093F108B093F2080C94925D8062809378
:103B6000EF089093F008A093F108B093F2080C943A
:103B7000925D8091EF089091F008A091F108B091CA
:103B8000F20880618093EF089093F008A093F10809
:103B9000B093F2080C94925D2330310559F490688B
:103BA0008093EF089093F008A093F108B093F20887
:103BB0000C94925D80618093EF089093F008A0933D
:103BC000F108B093F2080C94925D8091EF08909107
:103BD000F008A091F108B091F20880648093EF089A
:103BE0009093F008A093F108B093F2080C94925DC2
:103BF0008091EF089091F008A091F108B091F2083F
:103C000080688093EF089093F008A093F108B09338
:103C1000F2080C94925D8091EF089091F008A091C9
:103C2000F108B091F20892608093EF089093F00849
:103C3000A093F108B093F2080C94925D8091EF0884
:103C40009091F008A091F108B091F20894608093EF
:103C5000EF089093F008A093F108B093F2080C9449
:103C6000925D8091EF089091F008A091F108B091D9
:103C7000F20898608093EF089093F008A093F10801
:103C8000B093F2080C94925D4A35510561057105B7
:103C900019F410929C0C03C081E080939C0C8091DD
:103CA0009C0CE82FF0E0EE0FFF1FE85AFD4E20813C
:103CB00031813093C7082093C608811105C08091D7
:103CC000CE0B9091CF0B04C08091D20B9091D30B6F
:103CD000918380830F94C53581E48093921240E0F4
:103CE00050E068E08AE00F94316640E050E064E51F
:103CF00081E20F94316680E090E0A3E4B3E4809326
:103D00007B1290937C12A0937D12B0937E128090D0
:103D1000880C9090890CA0908A0CB0908B0C20910C
:103D20007712309178124091791250917A12609105
:103D30007312709174128091751290917612E6E66A
:103D40006E2EE2E17E2E7F926F92FFE7CF2EF2E1A0
:103D5000DF2EE12CF12C03E413E40E9426E00F9403
:103D60002B3980E090E0A0E2B1E480937712909349
:103D70007812A0937912B0937A128090840C90906C
:103D8000850CA090860CB090870CE0907B12F09090
:103D90007C1200917D1210917E12609173127091CD
:103DA000741280917512909176127F926F9220E03A
:103DB00030E040E251E40E9426E00F942B390F904E
:103DC0000F900F900F90809192128E3411F40C94FA
:103DD000032A109292120E940B6540E050E060E2CC
:103DE00089E00F94316640E050E064E28AE00F948D
:103DF000316600919C0C10E0F801EE0FFF1FEE0FF2
:103E0000FF1FE350FC4E60817181828193810F948A
:103E1000BCC57093E9086093E808000F111FF80112
:103E2000E85AFD4E808191810A979093E70880932C
:103E3000E6081092E5081092E40889E48093921253
:103E40000E940B6581E08093EA080C94925D40E04B
:103E500050E060E289E00F94316640E050E064E2B7
:103E60008AE00F94316689E4809392120E940B6578
:103E700000919C0C01111DC08091D00B9091D10B31
:103E80006091BD117091BE11681779072CF4BC01C7
:103E9000990F880B990B04C0072E000C880B990B07
:103EA0000F9487BD0F94BCC570935912609358123C
:103EB00020C08091D40B9091D50B6091B711709177
:103EC000B811681779072CF4BC01990F880B990B6E
:103ED00004C0072E000C880B990B0F9487BD10E0CF
:103EE000000F111F085A1D4E0F94BCC5D8016D93C9
:103EF0007C930F94C53500919C0C10E0F801EE0FF7
:103F0000FF1FEE0FFF1FE350FC4E60817181828125
:103F100093810F94BCC57093E9086093E808000F83
:103F2000111FF801E85AFD4E808191810A97909304
:103F3000E7088093E6081092E5081092E4080E94D2
:103F40000B6581E08093EA080C94925D80913702C2
:103F5000882311F40C94A05D80919C0C811102C007
:103F60008AE101C086E30E94E99A892B11F00C9442
:103F7000A05D0C94925D0F94BF0A0C94925D8091A9
:103F8000ED0881FF02C00C94925D8091060A909129
:103F9000050A98130C94215F40E050E06BE084E147
:103FA0000F94316640E050E065E18AE00F9431669D
:103FB00082E48093921280931213E0919C0C34E07F
:103FC000E39FF0011124EB55FD4F608171818281E7
:103FD000938160937312709374128093751290930F
:103FE0007612E0907B12F0907C1200917D1210917D
:103FF0007E1220917712309178124091791250916F
:104000007A12ECE9FCE0FF93EF93812C912CE8E429
:10401000AE2EE3E4BE2EFFE7CF2EF2E1DF2E0E94AC
:1040200026E0E0907B12F0907C1200917D121091BE
:104030007E1220917712309178124091791250912E
:104040007A12E091661264E0E69FF0011124EB55CC
:10405000FD4F60817181828193810F94C167E091EE
:10406000661284E0E89FF0011124EB55FD4F80813A
:104070009181A281B3818093731290937412A09363
:104080007512B0937612E0919C0CF0E0EE0FFF1FDA
:10409000E85AFD4E8091C6089091C70891838083AD
:1040A0000F94C53510922B0A0F942B390F900F9057
:1040B0000C94925D8091ED0881FF02C00C94925D9A
:1040C0009091060A2091050A29130C94255F0C94FF
:1040D000285F8091ED0881FF02C00C94925D909161
:1040E000060A2091050A29130C94255F0C942C5F75
:1040F0008091060A9091050A98130C94925D0C9495
:10410000305F9091060A8091050A98130C94925D95
:104110000C94BB5FE0918002F0918102EF3F9FEF32
:10412000F90711F40C94925DEE0FFF1FE85AFD4E53
:10413000808191818B33A1E09A0714F00C94925DF9
:104140000596918380830F94C5350F94C535E09112
:104150008002F0918102EE0FFF1FE85AFD4E408170
:10416000518168E289E00F9431660C94925DE09190
:104170008002F0918102EF3FBFEFFB0711F40C9436
:10418000925DEE0FFF1FE85AFD4E80819181181657
:10419000190614F00C94925D0597918380830F9417
:1041A000C5350F94C535E0918002F0918102EE0F84
:1041B000FF1FE85AFD4E4081518168E289E00F946B
:1041C00031660C94925D80918002909181020196FB
:1041D00011F40C94925D9091060A8091050A98134F
:1041E0000C94255F0C94496080918002909181022B
:1041F000019611F40C94925D9091060A8091050A43
:1042000098130C94255F0C944F609091060A80914E
:10421000050A98130C94925D0C94556080911213CA
:10422000823411F00C94925D109292128091260AC1
:104230009091270A8D7F9093270A8093260A809178
:104240001D02823531F489E480931D020F94960F8C
:10425000D1C0893409F0CEC081E48093921240E04D
:1042600050E068E08AE00F94316640907C095090FD
:104270007D0960907E0970907F094092771250927C
:1042800078126092791270927A1220E030E040E762
:1042900052E4609166027091670280916802909189
:1042A00069020F9410C54B015C01E0907B12F09005
:1042B0007C1200917D1210917E12609173127091A8
:1042C0007412809175129091761226E632E13F9336
:1042D0002F932FE7C22E22E1D22EA30192010E943A
:1042E00026E00F942B390F900F90809192128E340C
:1042F00011F40C94032A20E030E040E251E4609194
:1043000080097091810980918209909183090F94AD
:1043100022C47B018C0160937B1270937C1280938A
:104320007D1290937E1280917709898380906A0232
:1043300090906B02A0906C02B0906D022091771269
:10434000309178124091791250917A1260917312E3
:10435000709174128091751290917612FE013196CF
:10436000FF93EF930E9426E00F942B390F900F904C
:10437000809192128E3411F40C94032A10929212AE
:1043800082E48093230240E050E063E08BE10F94ED
:10439000316640E050E067E581E20F94316640E02D
:1043A00050E066E781E20F94316640E050E06DEE48
:1043B00081E20F94316640E050E069E881E20F94B9
:1043C000316640E050E06AE28AE00F94316681E0B5
:1043D00080938A1210928D1263E479E086E20F9442
:1043E0003F678091260A9091270A98609093270A48
:1043F0008093260A109212130C94925D8091B21150
:10440000109292128823E9F01092B2118091260A3C
:104410009091270A98609093270A8093260A8091AA
:10442000230240E050E0813431F469E08AE00F94E7
:1044300031660C94925D6AE28AE00F9431660C94C6
:10444000925D1092191210928D12E2E9F8E08491B7
:104450008F01882351F0082E000C990B0F94BD8D0D
:104460000F5F1F4FF8018491F4CF1092E00B81E0B1
:104470000F94AE0440E050E065E08AE00F943166AE
:104480000C94925D80913E09282F287083FF90C381
:1044900090914209923008F48BC3413B510561056C
:1044A000710509F4A8C0B4F54436510561057105DC
:1044B00009F4A1C1A4F44E3551056105710509F453
:1044C000F0C24F3551056105710509F41CC3453330
:1044D00051056105710511F00C94925D27C3403AB6
:1044E00051056105710509F4C8C0423A51056105DD
:1044F000710509F46AC0433851056105710511F071
:104500000C94925D40E050E06DE68AE00F943166D5
:104510000C94925D4233F1E05F076105710509F487
:104520005CC13CF5453C51056105710509F479C054
:104530004C3C51056105710509F489C0423B5105A8
:104540006105710511F00C94925D0F94B50941E07D
:1045500050E062EB81E20F94316641E050E060EAA6
:1045600081E20F94316610924C0210924B020C942F
:10457000925D463331E053076105710509F417C1B7
:10458000ACF4433351406105710511F00C94925D18
:104590008DEF9FEF909314138093131340E050E03E
:1045A0006AE08AE00F9431660C94925D4E37A1E088
:1045B0005A076105710509F4F2C148385140610597
:1045C000710509F424C10C94925D0F94B50941E082
:1045D00050E062EA81E20F94316641E050E060EA27
:1045E00081E20F9431668EEF9FEF90934C0280939F
:1045F0004B020C94925D0F94B50941E050E061EBE1
:1046000081E20F94316641E050E060EA81E20F946C
:1046100031668FEF9FEF90934C0280934B020C9486
:10462000925D0F94B50941E050E065EC81E20F9492
:10463000316641E050E060EA81E20F94316681E04A
:1046400090E090934C0280934B020C94925D0F94F7
:10465000B50941E050E06CEC81E20F94316641E035
:1046600050E060EA81E20F94316682E090E090933E
:104670004C0280934B020C94925D00914B0210917E
:104680004C0298012E5F3F4F2530310510F00C94FD
:10469000925D9230D9F583E08093420940E050E08A
:1046A00061E18AE00F94316680E5809392128091F7
:1046B0003F09800F80933F0900E010E020E030E0E8
:1046C0004CE553EC60E070E088E393EC0F94F8A6BF
:1046D0000F94B50980E697E090934C0280934B02CB
:1046E00040E050E060EA81E20F94316642E050E041
:1046F0006CE08BE10F94316640E050E069E18AE0C4
:104700000F943166109292120C94925D9330D9F509
:1047100084E08093420940E050E061E18AE00F9438
:10472000316680E58093921280914009800F8093DA
:10473000400900E010E020E030E04CE553EC60E0A0
:1047400070E080E493E40F94F8A60F94B50980E636
:1047500097E090934C0280934B0240E050E060EA77
:1047600081E20F94316642E050E06CE08BE10F94FF
:10477000316640E050E069E18AE00F9431661092C2
:1047800092120C94925D943011F00C94925D809191
:104790004109800F8093410940E050E06EE28AE0D9
:1047A0000F9431668FE4809392120C94925D0F9473
:1047B000B50940E050E060EA81E20F94316640E0E4
:1047C00050E069E18AE00F94316680E697E09093CB
:1047D0004C0280934B020C94925D83E090E09093A6
:1047E00014138093131340E050E06AE08AE00F94C2
:1047F00031660C94925D109214131092131340E0E2
:1048000050E06AE08AE00F9431660C94925D40E0DB
:1048100050E068E08AE00F94316681E48093921260
:1048200041E061E081E00E94E1F1109292120F9468
:104830002B390F942E0C1091131380914209823062
:10484000B1F540E050E061E18AE00F94316680E527
:104850008093921200913F09010F00933F09002EAF
:10486000000C110B20E030E0A901CA01B9010F943E
:10487000F8A60F94B50980E697E090934C028093D8
:104880004B0240E050E060EA81E20F94316642E082
:1048900050E06CE08BE10F94316640E050E069E15C
:1048A0008AE00F943166109292120C94925D8330DC
:1048B000C9F540E050E061E18AE00F94316680E59F
:1048C0008093921200914009010F00934009002E3D
:1048D000000C110B20E030E04CE553EC60E070E0A0
:1048E00088E393EC0F94F8A60F94B50980E697E05F
:1048F00090934C0280934B0240E050E060EA81E2EA
:104900000F94316642E050E06CE08BE10F94316629
:1049100040E050E069E18AE00F9431661092921213
:104920000C94925D843011F00C94925D40E050E064
:1049300061E18AE00F94316680E5809392120091E4
:104940004109010F00934109002E000C110B20E0DA
:1049500030E04CE553EC60E070E080E493E40F94C9
:10496000F8A60F94B50980E697E090934C028093E7
:104970004B0240E050E060EA81E20F94316642E091
:1049800050E06CE08BE10F94316640E050E069E16B
:104990008AE00F943166109292120C94925D1092FC
:1049A000921280913F0940914009042F081B4091C9
:1049B0004109142F181B602F002E000C770B880B59
:1049C000990B0F9487BD2DEC3CEC4CEC5DEB0F94F8
:1049D0008FB86093D8097093D9098093DA099093BE
:1049E000DB09612F012E000C770B880B990B0F94BC
:1049F00087BD2DEC3CEC4CEC5DEB0F948FB86093D5
:104A0000D4097093D5098093D6099093D7090023D0
:104A1000A1F040E050E06FE18AE00F94316607FFBB
:104A200007C0E02FFF27E1950CF4F09508E00E0F8A
:104A3000402F000F550B64E015C01123B9F040E082
:104A400050E060E28AE00F94316617FF07C0212F23
:104A5000332721950CF4309518E0120F412F110FD8
:104A6000550B65E08BE10F94316611C014E410938F
:104A7000121340E050E06BE084E10F94316640E0B7
:104A800050E065E18AE00F943166109392128BEE4C
:104A900090E09093D3098093D2090F94145E0C9404
:104AA000925D4091410980913F09142F181BC1F07C
:104AB00040E050E060E28AE00F94316617FF07C0E3
:104AC000812F992781950CF4909518E0180F412FAC
:104AD000110F550B65E08BE10F9431660C94925DDC
:104AE00014E41093121340E050E06BE084E10F9463
:104AF000316640E050E065E18AE00F943166109342
:104B000092120C94925D14E41093121340E050E062
:104B10006BE084E10F94316640E050E065E18AE0AB
:104B20000F943166109392120C94925D909112132F
:104B3000943411F00C94925D10924209877F809317
:104B40003E091092921210925312109252120F9428
:104B5000813510925912109258120F94C535109247
:104B60005B1210925A120F94C535109219121092BE
:104B70008D12E7E8F8E084918F01882351F0082E28
:104B8000000C990B0F94BD8D0F5F1F4FF80184919E
:104B9000F4CF1092E00B80E00F94AE0440E050E0C0
:104BA00065E08AE00F943166109212130C94925DC6
:104BB0004E38F1E05F0710F00C94925DFA018827FF
:104BC000EE58FF4F8F4F0D9494C880912102909121
:104BD0002202826090932202809321020C94925DC3
:104BE000809121029091220284609093220280930E
:104BF00021020C94925D80912102909122028860A2
:104C000090932202809321020C94925D8091210264
:104C100090912202806190932202809321020C9451
:104C2000925D8091210290912202806290932202F3
:104C3000809321020C94925D0F94DD2B009781F4F8
:104C4000809121029091220294609093220280939D
:104C50002102809143128150809343120C94925D03
:104C6000019711F00C94925D8091210290912202A3
:104C70009460909322028093210240E050E067E329
:104C800081E20F94316640E050E061E08BE10F94E7
:104C90003166809143128150809343120C94925D4F
:104CA0001092191210928D12ECE7F8E084918F01A6
:104CB000882351F0082E000C990B0F94BD8D0F5FC7
:104CC0001F4FF8018491F4CF1092E00B81E00F9414
:104CD000AE0440E050E065E08AE00F9431660C9449
:104CE000925D8091DA1A882311F40C94925D41E070
:104CF00061E08BED9AE10F945F2E8FEF9FEF909321
:104D0000C91A8093C81A412C512C320173016201D7
:104D100000E010E087E7A82E8AE1B82E9E012F5F01
:104D20003F4F190188248394912C4091791D509113
:104D30007A1D60917B1D70917C1D8091D41C909197
:104D4000D51CA091D61CB091D71C84179507A60737
:104D5000B70708F06DC0D501E2E31D92EA95E9F7C7
:104D60000F9447690196D9F41092C31A1092C21A8F
:104D70001092C51A1092C41A81E090E09093C71A5D
:104D80008093C61A1092D31A1092D21A1092D51A82
:104D90001092D41A80E00F94872A0C947260011547
:104DA000110521F52FEF3FEF3A8329833F922F9290
:104DB00044E25DE25F934F93BF92AF920F9460BD68
:104DC00089819A810F900F900F900F900F900F9004
:104DD000019639F09092C91A8092C81A07E010E043
:104DE00021C01092C91A1092C81A1CC080E00F94FA
:104DF000E4B56B017C0181E00F94E4B52B013C012B
:104E000020E030E0A901C701B6010F94FAC61816D8
:104E10007CF020E030E0A901C301B2010F94FAC692
:104E2000181634F00F5F1F4F0E3111050CF47DCFB3
:104E300080E00F94872A20E030E0A901C701B60185
:104E40000F9481BD18165CF020E030E0A901C30189
:104E5000B2010F9481BD181614F00C94726080900A
:104E60004D0290904E02A0904F02B0905002A501CA
:104E70009401C701B6010F9481BD811114C020E0D7
:104E800030E0A901C701B6010F94FAC618165CF408
:104E900020E030E0A901C301B2010F9481BD1816D2
:104EA00014F00C94726020915102309152024091A2
:104EB000530250915402C65EDE4F288339834A83E1
:104EC0005B83CA51D140C301B2010F9481BD8111EE
:104ED0001EC020E030E0A901C301B2010F94FAC660
:104EE00018165CF420E030E0A901C701B6010F9468
:104EF00081BD181614F00C947260A5019401C701CD
:104F0000B6010F9481BD882311F40C94726020E0E7
:104F100030E0A901C701B6010F9481BD20E030E067
:104F200040E251E418161CF0C501B40102C0C701EB
:104F3000B6010F948FB80F94BCC56093080220E0AF
:104F400030E0A901C301B2010F9481BD20E030E03F
:104F500040E251E418164CF0C65EDE4F688179815C
:104F60008A819B81CA51D14002C0C301B2010F9412
:104F70008FB80F94BCC56093090240E050E06FE524
:104F80008AE00F94316660914D0270914E028091DB
:104F90004F02909150020F94BCC5AB016DE489E0C3
:104FA0000F94316620E030E040E251E460914D0220
:104FB00070914E0280914F02909150020F948FB8E1
:104FC0000F94BCC50AE010E0CB01B8010F9465C88E
:104FD000AC016EE489E00F943166609151027091EA
:104FE000520280915302909154020F94BCC5AB01C0
:104FF0006FE489E00F94316620E030E040E251E454
:10500000609151027091520280915302909154022A
:105010000F948FB80F94BCC5CB01B8010F9465C82D
:10502000AC0160E589E00F943166809108021AE0D6
:10503000612F0F9444C8482F880F550B61E589E014
:105040000F94316680910802612F0F9444C8492F54
:10505000990F550B62E589E00F9431668091090242
:10506000612F0F9444C8482F880F550B63E589E0E2
:105070000F94316680910902612F0F9444C8492F23
:10508000990F550B64E589E00F943166BCC180919E
:10509000DA1A882311F40C94925D80912A1B8111F5
:1050A0000C94925DCDB6DEB68091F3089091F40831
:1050B0000F94D92DEBEDFAE1DF010D900020E9F717
:1050C0008DB79EB78A1B9B0B9C012952354E0FB69C
:1050D000F8943EBF0FBE2DBF0DB71EB70F5F1F4F19
:1050E000FF93EF938CE198E09F938F931F930F931F
:1050F0000F9432BD780134E0E30EF11C0F900F9055
:105100000F900F900F900F90D7018C91882349F04A
:10511000082E000C990B0F9412CBF70181937F019D
:10512000F3CFC8010F94200588E198E00F94B104F3
:105130000FB6F894DEBE0FBECDBE0C94925D81E03A
:105140008093191280912102909122029260909393
:105150002202809321020C94925D80912102909111
:105160002202916090932202809321020C94925D1E
:105170008091210290912202806890932202809374
:1051800021020C94925D40E050E062E18AE00F94CD
:1051900031660C94925D40E050E06CE18AE00F943F
:1051A000316680E00F94AE0410920C1410920B1430
:1051B00010920A1481E08093E00B0C94925D10929F
:1051C000191210928D12EDE0F8E084918F0188237E
:1051D00051F0082E000C990B0F94BD8D0F5F1F4FDF
:1051E000F8018491F4CF1092E00B0E940B6581E0EE
:1051F0000F94AE0440E050E065E08AE00F94316621
:105200000C94925D8091581290915912892B29F03B
:10521000109259121092581208C08091030C90916C
:10522000040C90935912809358120F94C535109224
:105230000C140C94925D80915A1290915B12892B00
:1052400029F010925B1210925A1208C08091000C43
:105250009091010C90935B1280935A120F94C53574
:1052600010920B140C94925D8091521290915312F3
:10527000892B29F010925312109252121CC0809167
:105280003C0990913D0960913A0970913B0968177A
:1052900079072CF4BC01990F880B990B04C0072ED9
:1052A000000C880B990B0F9487BD0F94BCC57093AD
:1052B0005312609352120F94813510920A140C9479
:1052C000925D89E098E00F94B1040C94925D40E007
:1052D00050E06EE18AE00F9431660C94925D40E0FC
:1052E00050E065E08AE00F94316610921912109236
:1052F0008D12EEEFF7E084918F01882351F0082E94
:10530000000C990B0F94BD8D0F5F1F4FF801849116
:10531000F4CF1092E00B88E793E090933A028093E9
:1053200039020F94145E0C94925D40E050E06AE103
:105330008AE00F9431660F94E6288091DA1A882368
:1053400011F40C94925D8091421280934312BAE161
:10535000EB2EB2E1FB2E1EE2C12E12E1D12E00E0B7
:1053600010E08091421290E008171907FCF46BEDF1
:105370007AE182E59BE10F94BA6B5701D7018D91D9
:105380009D917D010F94D92DF50180819181D601E8
:105390008D939D936D0180912A1B882321F08BEDC5
:1053A0009AE10F946E320F5F1F4FDBCF87E090E0E2
:1053B0000F94D7140C94925D8091390290913A0227
:1053C0008036974041F488E793E090933A028093C7
:1053D00039020F94145E40E050E068E08AE00F94D8
:1053E000316681E4809392128091090C8823D1F078
:1053F00040E061E081E00E94E1F10F942B3980915F
:1054000092128E3489F48FEF9FEFDC01809391022A
:1054100090939202A0939302B09394021092F50895
:105420000C94E66441E0E5CF81E00F94AE04109265
:1054300092128BEF97E00F94B1040F942B39809167
:1054400092128E3401F340E050E06BE08AE00F945A
:1054500031660C94925D40E050E064E08AE00F9485
:1054600031660C94925D40E050E064E28AE00F9473
:1054700031668091091482608093091489E48093D5
:10548000921240E050E060E289E00F943166609152
:10549000030C7091040C072E000C880B990B0F94D1
:1054A00087BD40E050E00F943A7F0F94145E6BE2AA
:1054B00075E08EE498E10F94C28D6EE275E08EE4A3
:1054C00098E10F94C28D609115037091160380913D
:1054D00017039091180342E050E00F942F2C62E3E1
:1054E00075E08EE498E10F94C28D2DEB37E346E032
:1054F0005EE360910D0370910E0380910F03909114
:1055000010030F9410C542E050E00F942F2C66E377
:1055100075E08EE498E10F94C28D2DEB37E346E001
:105520005EE36091050370910603809107039091FB
:1055300008030F948FB842E050E00F942F2C609135
:10554000000C7091010C072E000C880B990B0F9426
:1055500087BD41E050E00F943A7F0F94145E6BE2F8
:1055600075E08EE498E10F94C28D6EE275E08EE4F2
:1055700098E10F94C28D6091190370911A03809184
:105580001B0390911C0342E050E00F942F2C62E328
:1055900075E08EE498E10F94C28D2DEB37E346E081
:1055A0005EE3609111037091120380911303909157
:1055B00014030F9410C542E050E00F942F2C66E3C3
:1055C00075E08EE498E10F94C28D2DEB37E346E051
:1055D0005EE36091090370910A0380910B0390913F
:1055E0000C030F948FB842E050E00F942F2C1092D0
:1055F00092120E940B6540E050E06BE084E10F9452
:10560000316640E050E065E18AE00F94316681E068
:105610000F94AE0484E480931213809392120C943E
:10562000925D40E050E068E28AE00F9431660C94AD
:10563000925D40E050E062E18AE00F9431660C94A4
:10564000925D1092191210928D12E0EFF7E08491A2
:105650008F01882351F0082E000C990B0F94BD8DFB
:105660000F5F1F4FF8018491F4CF1092E00B0E945E
:105670000B6540E050E065E08AE00F9431660C94E1
:10568000925D40E050E062E18AE00F9431660C9454
:10569000925D82E580931D02809109148160809360
:1056A000091440E050E06BE581E20F94316640E080
:1056B00050E06CE581E20F94316640E050E060E03C
:1056C0008BE10F94316640E050E06AE781E20F948D
:1056D000316640E050E069E781E20F94316640E0D6
:1056E00050E06DE18AE00F9431668FEF80939C0C5F
:1056F0000C94925D40E050E06CE68AE00F943166D5
:105700000C94925D40E050E062E18AE00F943166D3
:1057100040E050E06BE581E20F94316640E050E0FC
:105720006CE581E20F94316640E050E060E08BE18F
:105730000F94316640E050E06AE781E20F943166F1
:1057400040E050E069E781E20F94316680910914EE
:105750008E7F809309140C94925D1092191210920E
:105760008D12E5EEF7E084918F01882351F0082E29
:10577000000C990B0F94BD8D0F5F1F4FF8018491A2
:10578000F4CF1092E00B40E050E065E08AE00F9427
:10579000316640E050E06BE581E20F94316640E015
:1057A00050E06CE581E20F94316640E050E060E04B
:1057B0008BE10F94316640E050E06AE781E20F949C
:1057C000316640E050E069E781E20F9431668091F4
:1057D00009148E7F809309140C94925D41E050E08F
:1057E0006BE581E20F94316640E050E06CE581E2C8
:1057F0000F94316641E050E060E08BE10F94316638
:1058000041E050E06AE781E20F94316641E050E008
:1058100069E781E20F94316610929C0C0C94925DC2
:1058200040E050E06BE581E20F94316641E050E0EA
:105830006CE581E20F94316641E050E060E08BE17D
:105840000F94316641E050E06AE781E20F943166DF
:1058500041E050E069E781E20F94316681E0809396
:105860009C0C0C94925D8091390290913A028036A2
:10587000974041F488E793E090933A02809339028D
:105880000F94145E80919C0C8F3F11F40C94925DE8
:105890000F9443B30C94925D8091390290913A0237
:1058A0008036974041F488E793E090933A028093E2
:1058B00039020F94145EE0919C0CEF3F11F40C94AC
:1058C000925D81E080939012F0E0EE0FFF1FE85AA6
:1058D000FD4E84E091E0918380830F94C53581E48F
:1058E0008093921240E050E068E08AE00F943166C5
:1058F0008091090C882311F040E001C041E061E093
:1059000081E00E94E1F10F942B39809192128E3444
:1059100009F479CD80E090E0A3E4B3E480937B12B6
:1059200090937C12A0937D12B0937E128090880C8D
:105930009090890CA0908A0CB0908B0C20917712DB
:10594000309178124091791250917A1260917312CD
:10595000709174128091751290917612A6E66A2E5B
:10596000A2E17A2E7F926F92BFE7CB2EB2E1DB2EBF
:10597000E12CF12C03E413E40E9426E00F942B3970
:105980000F900F90809192128E3409F43CCD80E0FC
:1059900090E0A0E2B1E48093771290937812A09304
:1059A0007912B0937A128090840C9090850CA0901C
:1059B000860CB090870CE0907B12F0907C120091E6
:1059C0007D1210917E126091731270917412809109
:1059D0007512909176127F926F9220E030E040E253
:1059E00051E40E9426E00F942B390F900F90809184
:1059F00092128E3409F407CD80919C0C811111C054
:105A000080E090E00F94FF2580E090E0ADE9B2E403
:105A10008093731290937412A0937512B0937612C0
:105A200020C081E090E00F94FF2520E030E048ECBA
:105A300051E46091A9027091AA028091AB02909109
:105A4000AC020F9421C420E030E046E552E40F940C
:105A500021C46093731270937412809375129093A3
:105A60007612E0907B12F0907C1200917D121091E2
:105A70007E122091771230917812409179125091D4
:105A80007A126091731270917412809175129091D4
:105A90007612ECE9FCE0FF93EF93812C912CE8E483
:105AA000AE2EE3E4BE2EFFE7CF2EF2E1DF2E0E9402
:105AB00026E00F942B390F900F90809192128E3424
:105AC00009F4A1CC109292120E940B6540E050E0C4
:105AD00065E28AE00F9431660C94925D809109141E
