:100000000C9444170C9475170C9475170C94751771
:100010000C9475170C9475170C9475170C94751730
:100020000C9475170C9475170C9475170C94751720
:100030000C9475170C9475170C9475170D9420007B
:100040000C9475170C9475170C9475170C94751700
:100050000C9475170C9475170D94A03F0C94EB9CA1
:100060000C9475170C94199B0C94F09A0C947517BA
:100070000C9475170C9475170C9475170C947517D0
:100080000C94C2EE0C9475170C9475170C9475179C
:100090000C9475170C9475170C9475170C947517B0
:1000A0000C9475170C9475170C9475170C947517A0
:1000B0000C9475170C9475170C9475170C94751790
:1000C0000C9475170C9475170C9475170C94BB9AB7
:1000D0000C94929A0C9475170C9475170C947517D0
:1000E0000C9475172C5BC55DF52FB92DD158D82808
:1000F0008D5CEE28C55DC55DC55D2D29CA28C55D31
:1001000026261B26C55DDA39C55DC55DC55D985CD3
:10011000A740BD40D340E9408141FF40C85C9940C1
:100120005F43335B273A183A15412941C55DE328FF
:100130009C26CA28992D123CB12D4A5C464FA92D08
:10014000A12D6B5CC85AC55DE72F435CC55DB93C0A
:10015000F62847263126C55DC55D072A433AC55DA9
:10016000185CEC5B8648EC317228974C2737363A9E
:10017000F031C55D895B425BB32F9D309D30793096
:10018000F431F832A52B46295F2939305B3010262F
:100190003C26C55DC55DCA282D30192C3B2C8C2909
:1001A000B73B973BC55D9C574758B55AC55DC85C82
:1001B000C85C155AE959BD5991590D5939596559B4
:1001C000FE5A1A58E3436D4359446A46C3454D45A8
:1001D000C55DC55DD1585E2C772C2D30BF57BF5CF7
:1001E000C55DC55D095C3F41764B6247C55D7B26B9
:1001F000CB5555416B41C55DC541C55DEC3AE43A0F
:10020000C55DC55D5B35C55DC55DC55D8235D435F4
:10021000BF35322F1C2FF43AC22D3F2EC32EF02EA5
:100220001654432FE647AA357A47C55DC55DC55DBF
:10023000C55DC55DC55DC55DC55DC55D92299A2974
:10024000C029C55DC55D9047A4478648764B824B63
:10025000874CC55DCB4F2F505E4FB24F9E4DC55D55
:10026000C55DBB4DC55D4B52D438D2398F52BA47AC
:10027000C55D1D516751B351FF511551D047C55D43
:10028000D352D55349556D56C55DFF54394639464D
:100290005A55CA333C2B204FA74DD94DAB4EB34EC8
:1002A000CA28284FC55DC55DC55DC55DC55DC55D19
:1002B000A439C55DC55DC258F55AC55DC55DC55D4E
:1002C000C55DC55DC55DC55DC55D33578657C55DFB
:1002D000C55DC55DC55DC55DC55DC55DC55DC55D0E
:1002E000C55DC55DC55DC55DC55DC55DC55DC55DFE
:1002F000C55DC55DC55DC55DC55DC55DC55DC55DEE
:10030000C55DC55DC55DC55DC55DC55DC55DC55DDD
:10031000C55DC55DC55DC55DC55DC55DC55DC55DCD
:10032000C55DC55DC55DC55DC55DC55DC55DC55DBD
:10033000C55DC55DC55DC55DC55DC55D5B401D40F9
:100340002143E342C55D4846C55DC55D363A6C2B29
:10035000D3429941363A9941C55DAF41AF41442BF3
:10036000265C1F5C355C3C5C95589A589F58A45895
:10037000025CF35BAE58B358B858BD58A9589058B2
:10038000274B464BB92D562A4C2BC55D205B01549B
:100390000A29D82BC55DC55D1358D350C55DC55D11
:1003A000C55D6656C55DBF57C55DC55DC55D53304E
:1003B000AD2B0E54A22F9C34C55DA750C55D5F5672
:1003C000C55DC55DC55DC55DC55DDA2F014B144BCF
:1003D000205BFE5A60363C374F50643B40375E2A04
:1003E000123C6836894ECC3804386C55BE55C55D14
:1003F000433A4F50D648C85CFC3A742B9B50C85CBB
:10040000329A359A249A289A2E9A6C9A399A3D9A59
:10041000439A479A4B9A519A559A599A6C9A5F9A6D
:10042000639A679A079C0C9C119C1B9C259C9E9C24
:100430002F9C379C3F9C499C539C5D9C6C9C769C5C
:100440009E9C809C8A9C949C97026D026F029902EC
:100450008F029902A3028702A70295027102A102EC
:1004600083029B0273027F0269029F029302AB0226
:10047000850291028B0281026B027702A50289023A
:100480008D02084AD73B3BCE016E84BCBFFDC12F15
:100490003D6C74319ABD56833DDA3D00C77F11BE75
:1004A000D9E4BB4C3E916BAAAABE000000803F0578
:1004B000A84CCDB2D44EB93836A9020C50B99186A9
:1004C00088083CA6AAAA2ABE000000803F000D941E
:1004D0001D620D94CF0B0D94A1400D946E0B0D94E5
:1004E000530C0D94C40C0D94500B0D94E5C90D9450
:1004F000A3400D9437B00D9444B70D941E620D9433
:10050000300B0D9487400D94000D0D9453400D94C5
:10051000050C0D94A7400D947A400D94AF400D94B6
:10052000920B0D9460400D942A400D94880D0D940B
:10053000F40A0D942E0C0D94590D0D94AA7C0D9473
:100540001E0D0D94E20C0D94ED0B0D94A5400D9431
:10055000120B0D94807C0D9437404E414E494E490C
:100560005459494E46CDCCCC3D0AD7233C17B7D180
:100570003877CC2B329595E6241FB14F0A00002026
:10058000410000C84200401C4620BCBE4CCA1B0EA5
:100590005AAEC59D746364696E6F70737578585BED
:1005A000003B4C415945523A2564003B20202075C0
:1005B0007365526166742C2564004D3630352053C6
:1005C00025640043616C63756C75733A20200043A9
:1005D000616C63756C75733A20200043616C6375C0
:1005E0006C75733A20200053757266696E6720300F
:1005F0000A00417420426F74746F6D2053746963F4
:100600006B657200253033642E253033642530331A
:10061000642E2530346400417420426F74746F6D11
:1006200020537469636B657200253033642E253066
:100630003364253033642E253034640025737C4DBB
:10064000253032642E253032640053757266696E2F
:100650006720300A00473238205830205930005483
:1006600030005431005430005430005375726669C4
:100670006E6720300A004734330047343100473476
:1006800030004733340047343300473433004734B5
:100690003100473430004D3834004D3834004D3887
:1006A00034005A32204F66667365743A20004F4B0F
:1006B000207365636F6E642045787472756465722B
:1006C000210A005A20706F736974696F6E3A2000B6
:1006D0005A20706F736974696F6E3A20004D383418
:1006E000005A312050726F6265206F6666736574C0
:1006F0003A20004F4B2066697273742045787472FB
:100700007564657221200A005A20706F73697469DC
:100710006F6E3A20005A20706F736974696F6E3A79
:10072000200043616C63756C75733A20200043614F
:100730006C63756C75733A20200043616C63756C53
:1007400075733A20200043616C63756C75733A20B1
:10075000200036302064656772656573200A005496
:10076000300054300054300043616C69627261742F
:10077000696F6E205375636365737366756C0A00E9
:100780005430004A756D70206F7665722073637205
:1007900065773120616E6420736372657732200A59
:1007A000004A756D70206F7665722073637265778D
:1007B00031200A00473334004733340047333400D4
:1007C0005430004733340053757266696E672030C9
:1007D0000A0053757266696E6720300A005375729D
:1007E00066696E6720300A0053757266696E67200D
:1007F000300A0053757266696E6720300A00543003
:100800000053757266696E6720300A004D333400FC
:1008100053757266696E6720300A004D3234004DA0
:100820003233202573004D3234004D32332025738E
:100830000077696C6C20626520646973746F7274F0
:1008400065642062792025642E2531642531642079
:100850006D6D2E00546865206669727374206C613A
:10086000796572207072696E746564207769746846
:100870002074686520257320686F74656E6400536A
:10088000757266696E6720300A0053757266696E0C
:100890006720300A0053757266696E6720300A005F
:1008A000526561647920746F2053746172740A0018
:1008B0002564206B6D2E0067636F646520666F751D
:1008C0006E640A0020746F2053746172742044694E
:1008D00073706C61792066726F6D205265736574F8
:1008E00000546F6F6B2000646973706C6179206FC6
:1008F0006E6C696E6521002E002053544F502050BD
:1009000052494E54200A004732382058302059307E
:10091000004D33350047373000524553554D450A99
:100920000050415553450A004D3939300053746128
:100930007274696E67205A2043616C6962726174D7
:10094000696F6E2057697A6172640A000A00205A42
:100950003A200020593A200020583A20004265648D
:1009600000456E642066696C65206C6973740A00CA
:10097000426567696E2066696C65206C6973740AEC
:10098000002F005344207072696E74696E67206294
:1009900079746520004E6F74205344207072696E24
:1009A00074696E670A002569206D696E2C202569BF
:1009B00020736563006F6B004649524D57415245A5
:1009C0005F4E414D453A4D61726C696E2042434E17
:1009D0003344205369676D61783B204649524D5737
:1009E0004152455F56455253494F4E3A30322D32AF
:1009F0002E302E3752433B204649524D57415245E7
:100A00005F55524C3A68747470733A2F2F6769744B
:100A10006875622E636F6D2F42434E33442F4243FD
:100A20004E33445369676D61782D4669726D776105
:100A300072653B2050524F544F434F4C5F564552C6
:100A400053494F4E3A312E303B204D414348494E99
:100A5000455F545950453A42434E334420536967E9
:100A60006D61783B2045585452554445525F434F81
:100A7000554E543A323B20555549443A005354415F
:100A8000544953544943532052455345540A005046
:100A90004F534954494F4E20484F4D453A2000226C
:100AA0000A00556E6B6E6F776E20636F6D6D616EB1
:100AB000643A20220000002100240027002A002D93
:100AC000003000330001010000040107010A0100A9
:100AD000002200250028002B002E003100340002E7
:100AE000010000050108010B010000200023002681
:100AF0000029002C002F0032000001000003010635
:100B00000109010505050507050808080802020294
:100B1000020A0A0808040404040101010101010198
:100B2000010303030303030303040707070C0C0C6F
:100B30000C0C0C0C0C020202020606060606060647
:100B4000060B0B0B0B0B0B0B0B01021020200808E4
:100B5000102040102040800201020108040201011F
:100B60000204081020408080402010080402018008
:100B7000040201804020100804020108040201015F
:100B80000204081020408001020408102040800068
:100B9000000A0B02090C0D0E0807030401000000F7
:100BA0000000000000000000000000000000000045
:100BB0000000000000000000000000121110000002
:100BC0000000000000000000000000000000000025
:100BD0000000000000646973706C6179206F6666C4
:100BE0006C696E65004465632031342032303138E1
:100BF0002031303A33323A30360A0042434E3344E1
:100C0000205369676D61780A0073746172740A0019
:100C10006563686F3A0030322D322E302E375243E2
:100C20000A004D3234004D32332025730061757453
:100C30006F25692E67006572726F72207772697412
:100C4000696E6720746F2066696C650A00205A3AE5
:100C50000020593A0020583A00656E6473746F7032
:100C600073206869743A20006563686F3A00446FC6
:100C70006E6520736176696E672066696C652E0A01
:100C8000006F6B0A004D32390045787472756465E7
:100C900072204865617465640A0020573A00204557
:100CA00000205A00205900483D5800205A3A0020A0
:100CB000593A0020436F756E7420583A2000204541
:100CC0003A00205A3A0020593A00583A007A5F6DAB
:100CD000696E3A2000795F6D61783A2000785F6D27
:100CE00061783A2000785F6D696E3A2000486F7431
:100CF000656E64206F6666736574733A005049448C
:100D0000204175746F74756E652066696E697368CD
:100D10006564212050757420746865206C6173745B
:100D2000204B702C204B6920616E64204B64206343
:100D30006F6E7374616E74732066726F6D20616282
:100D40006F766520696E746F20436F6E6669677594
:100D5000726174696F6E2E680A00504944204175B3
:100D6000746F74756E65206661696C6564212074AA
:100D7000696D656F75740A0020403A006F6B2054EE
:100D80003A006F6B20423A00504944204175746F1D
:100D900074756E65206661696C6564212054656DAB
:100DA000706572617475726520746F6F2068696711
:100DB000680A00204B643A2000204B693A2000204A
:100DC0004B703A200020436C617373696320504973
:100DD00044200A002054753A2000204B753A200028
:100DE000206D61783A2000206D696E3A2000206401
:100DF0003A200020626961733A20000A00207A3AA2
:100E0000200020793A200020783A200042656400D2
:100E100045787472756465722072656C656173657E
:100E200064206163746976653A20005A205349470B
:100E30004D4120486F6D65640A0045787472756491
:100E40006572206163746976653A20004D3834001C
:100E50005374617274696E6720582043616C6962D3
:100E6000726174696F6E2057697A6172640A004D0D
:100E70003834005374617274696E6720592043617D
:100E80006C6962726174696F6E2057697A6172640D
:100E90000A002C2073617665645F466C61675F664B
:100EA000616E6C617965725F6D6972726F723A2002
:100EB000002C2073617665645F6665656472617499
:100EC00065313A20002C2073617665645F66656544
:100ED0006472617465303A20002C20736176656419
:100EE0005F66616E6C617965723A20002C207361D7
:100EF0007665645F74656D706265643A20002C20CD
:100F000073617665645F74656D70303A20002C20E3
:100F100073617665645F74656D70313A20002C20D2
:100F200073617665645F66696C65706F7369746917
:100F30006F6E3A20002C2073617665645F655F7088
:100F40006F736974696F6E3A20002C207361766547
:100F5000645F746F6F6C5F6163746976653A2000DB
:100F60002C2073617665645F7A5F706F7369746952
:100F70006F6E3A20002C2073617665645F795F7034
:100F80006F736974696F6E3A20002C207361766507
:100F9000645F785F706F736974696F6E3A20005395
:100FA000415645205052494E54204C4F473A0A0072
:100FB0006563686F3A005072696E74207265636F82
:100FC000766572792075700A004E6F7420707269B0
:100FD0006E74207265636F766572792075700A0091
:100FE000535543434553530A0056616C756573204E
:100FF0006F7574206F662072616E67650A005661B6
:101000006C756573206F7574206F662072616E67F2
:10101000650A0056616C756573206F7574206F6684
:101020002072616E67650A0056616C756573206F8A
:101030007574206F662072616E67650A00535543B0
:10104000434553530A0056616C756573206F757480
:10105000206F662072616E67650A0056616C756567
:1010600073206F7574206F662072616E67650A0069
:1010700056616C756573206F7574206F66207261A0
:101080006E67650A0056616C756573206F75742014
:101090006F662072616E67650A0020502000205A3A
:1010A000200020592000536574204D3533302058DE
:1010B00020004D6F64652033203A20507369636FC0
:1010C0002020202D3E205247423A20526973652647
:1010D00046616C6C002A2A2D3E20004D6F6465200D
:1010E00032203A206379636C652020202D3E205207
:1010F00047423A203620737461746573002A2A2DA2
:101100003E20004D6F64652031203A2072616E648C
:101110006F6D20202D3E205247423A202B31202B4C
:1011200032202B332C20647572696E6720707269CF
:101130006E74696E67002A2A2D3E20004D6F64652B
:101140002030203A2064656661756C74202D3E2045
:101150005247423A20323535203235352032353546
:10116000002A2A2D3E20004C6564206D6F64657353
:10117000203A004D353336204C5B6D6F64655D0061
:10118000486F74656E64206F6666736574733A00A9
:1011900054696D6520696E6163746976650A0050F3
:1011A000757267652064697374616E63650A004DCA
:1011B000383420582059205A2045005A204F66665E
:1011C000736574206F6B0A005A204F6666736574EE
:1011D000203A200A007A5F6D61783A20007A5F6DCC
:1011E000696E3A20005A204F666673657400504F4E
:1011F000534954494F4E20484F4D453A2000436FC4
:101200006F6C696E6720446F776E20486561746506
:10121000720A005072696E7465722068616C746540
:10122000642E206B696C6C28292063616C6C65648A
:10123000210A004572726F723A006C617965722002
:101240006865696768743A200045787472756465EA
:10125000722072656C656173656420616374697680
:10126000653A20005A205349474D4120486F6D652B
:10127000640A0045787472756465722061637469EC
:1012800076653A20000000000000809343000000D3
:10129000000000A0400000A0400000004020004DE1
:1012A0006F766520746F3A2000CDAC0344008093C4
:1012B0004300005243FF01FF20636F6C6420657898
:1012C00074727573696F6E2070726576656E746581
:1012D000640A006563686F3A0024F4D43050C38E0A
:1012E00020C2A24017828B7011127A910D816CD9A5
:1012F0000AA861E108C7586607615143061E4B5DA5
:1013000005C145A7041A411104093D9803713931FB
:10131000034036DB0265339102D4305402802E1D27
:1013200002632CEE01752AC501B028A001102781A7
:10133000018F2564012B244B01E0223401AC211FD5
:10134000018D200D01801FFC00841EED00971DDF24
:1013500000B81CD200E61BC600201BBC00641AB2F9
:1013600000B219A8000A19A0006A189900D11791B3
:101370000040178B00B516840031167E00B3157936
:10138000003A157300C7146F0058146A00EE136614
:10139000008813630025135E00C7125B006C1257B0
:1013A0000015125400C111510070114F0021114B52
:1013B00000D61049008D104700461044000210422C
:1013C00000C00F4000800F3E00420F3C00060F3B64
:1013D00000CB0E3800930E37005C0E3500270E341C
:1013E00000F30D3200C10D3100900D3000600D2E64
:1013F00000320D2D00050D2C00D90C2B00AE0C2950
:1014000000850C29005C0C2700350C27000E0C26EB
:1014100000E80B2400C40B2400A00B23007D0B2349
:10142000005A0B2100390B2100180B2000F80A1F6D
:1014300000D90A1E00BB0A1E009D0A1D00800A1D5D
:1014400000630A1C00470A1B002C0A1B00110A1A21
:1014500000F7091A00DD091900C4091900AB0919C0
:1014600000920917007B091800630917004C091640
:101470000036091600200916000A091500F508159E
:1014800000E0081400CC081400B8081400A40814E4
:1014900000900813007D0812006B08130058081212
:1014A0000046081200340811002308110012081128
:1014B0000001081100F0071000E0071000D007102D
:1014C00000C0071000B0070F00A107100091070E21
:1014D0000083070F0074070F0065070E0057070E03
:1014E0000049070E003B070D002E070E0020070DD8
:1014F0000013070D0006070D00F9060C00ED060DA0
:1015000000E0060C00D4060C00C8060C00BC060C5B
:1015100000B0060C00A4060B0099060C008D060B0B
:101520000082060B0077060B006C060B0061060AB2
:101530000057060B004C060A0042060A0038060A4D
:10154000002E060A0024060A001A060A00100609E0
:101550000007060A00FD050900F4050900EB05096E
:1015600000E2050900D9050900D0050900C70509F1
:1015700000BE050900B5050800AD050800A5050970
:10158000009C050800940508008C050800840508E7
:10159000007C050800740508006C05070065050857
:1015A000005D050700560508004E050700470507C2
:1015B000004005080038050700310507002A050727
:1015C00000230507001C050600160507000F050788
:1015D000000805060002050700FB040600F50407E5
:1015E00000EE040600E8040600E2040700DB04063F
:1015F00000D5040600CF040600C9040600C3040693
:1016000000BD040600B7040600B1040500AC0406E2
:1016100000A6040600A00405009B0406009504052E
:1016200000900406008A0405008504050080040675
:10163000007A04050075040500700405006B0405BC
:101640000066040500610405005C040500570405FC
:1016500000520405004D040500480405004304053C
:10166000003E0404003A040500350405003004047B
:10167000002C04050027040400230405001E0404B4
:10168000001A04040016040500110404000D0404EB
:1016900000090405000404040000040400FC030421
:1016A00000F8030400F4030400F0030400EC030456
:1016B00000E8030400E4030400E0030400DC030486
:1016C00000D8030400D4030400D0030400CC0304B6
:1016D00000C8030300C503030024F404D9201BC47D
:1016E0000C5C0E9804C4095F0265077101F405F9EA
:1016F00000FB04B30048048700C103690058035588
:101700000003034500BE023A008402310053022A5E
:10171000002902250004022000E4011C00C8011970
:1017200000AF01170098011400840113007101102B
:10173000006101100051010E0043010D0036010B44
:10174000002B010B0020010B00150109000C010901
:101750000003010800FB000800F3000800EB00078D
:1017600000E4000600DE000600D8000600D20006F5
:1017700000CC000500C7000500C2000500BD000444
:1017800000B9000400B5000400B1000400AD00047D
:1017900000A9000400A5000300A20003009F0004AC
:1017A000009B0003009800030095000200930003D3
:1017B00000900003008D0002008B000300880002EF
:1017C000008600020084000300810002007F000206
:1017D000007D0002007B000200790002007700011A
:1017E0000076000200740002007200010071000225
:1017F000006F0002006D0001006C0002006A000131
:101800000069000200670001006600010065000138
:10181000006400020062000100610001006000013C
:10182000005F0002005D0001005C0001005B000140
:10183000005A000100590001005800010057000142
:101840000056000100550001005400010053000043
:10185000005300010052000100510001005000013E
:10186000004F0001004E0000004E0001004D00013D
:10187000004C0001004B0000004B0001004A000139
:101880000049000100480000004800010047000135
:101890000046000000460001004500000045000130
:1018A000004400010043000000430001004200002A
:1018B0000042000100410000004100010040000121
:1018C000003F0000003F0001003E0000003E00011C
:1018D000003D0000003D0001003C0000003C000015
:1018E000003C0001003B0000003B0001003A00000A
:1018F000003A000100390000003900010038000002
:1019000000380000003800010037000000370001F7
:1019100000360000003600000036000100350000EF
:1019200000350000003500010034000000340000E4
:1019300000340001003300000033000000330001D8
:1019400000320000003200000032000100310000CF
:1019500000310000003100010030000000300000C4
:1019600000300001002F0000002F0000002F0000B9
:10197000002F0001002E0000002E0000002E0001AC
:10198000002D0000002D0000002D0000002D0001A2
:10199000002C0000002C0000002C0000002C000196
:1019A000002B0000002B0000002B0000002B00018A
:1019B000002A0000002A0000002A0000002A00017E
:1019C0000029000000290000002900000029000073
:1019D0000029000100280000002800000028000065
:1019E0000028000000280001002700000027000058
:1019F000002700000027000000270001002600004B
:101A0000002600000026000000260000002600013D
:101A10000025000000250000002500000025000032
:101A20000025000000250001002400000024000023
:101A30000024000000240000002400010023000016
:101A4000002300000023000000230000002300000A
:101A500000230000002300010022000000220000FB
:101A600000220000002200000022000000220001ED
:101A700000210000002100000021000000210000E2
:101A800000210000002100000021000100200000D2
:101A900000200000002000000020000000200000C6
:101AA000002000000020000000200001001F0000B6
:101AB000001F0000001F0000001F0000001F0000AA
:101AC000001F0000001F0001001E0000001E00009B
:101AD000001E0000001E000000496E7374616C6CF3
:101AE000202564202573206F6E207468652025737F
:101AF00020686F74656E642E0050757267652046AD
:101B0000696C616D656E740A0053757266696E6703
:101B100020310A0053757266696E6720300A0042F0
:101B200052494748544E4553533A2000220A006513
:101B30006E717565696E67202200220A00656E71FC
:101B40007565696E67202200202F0020400020402C
:101B50003A0053757266696E672030200A0054306F
:101B6000004D383420582059205A204500496E73C2
:101B700074616C6C202564202573206F6E2074685E
:101B80006520257320686F74656E642E005265733E
:101B9000656E643A20006F6B0A004475706C6920B2
:101BA0004D6F6465204F4E0A004D6972726F72204E
:101BB0004D6F6465204F4E0A004732382058302060
:101BC0005930000A0A005374616E646172642044E3
:101BD0006576696174696F6E3A20000A004D65612F
:101BE0006E3A20000A002020207A3A20000A00796C
:101BF0003A2000783A20003F537065636966696552
:101C000064206E756D626572206F66206C65677307
:101C100020696E206D6F76656D656E74206E6F74D1
:101C200020706C61757361626C652E0A003F5370A1
:101C300065636966696564205920706F73697469AA
:101C40006F6E206F7574206F662072616E67652EEF
:101C50000A003F53706563696669656420582070A7
:101C60006F736974696F6E206F7574206F66207270
:101C7000616E67652E0A003F53706563696669652A
:101C8000642073616D706C652073697A65206E6F76
:101C90007420706C61757361626C652E0A00467504
:101CA0006C6C20737570706F72742061743A206868
:101CB0007474703A2F2F33647072696E74626F613E
:101CC00072642E636F6D2F666F72756D2E70687003
:101CD0000A004D3438205A2D50726F6265205265CB
:101CE000706561746162696C69747920746573747C
:101CF0002E20202056657273696F6E20322E303090
:101D00000A003F566572626F7365204C6576656C9C
:101D1000206E6F7420706C61757361626C652E0A41
:101D200000426564204865617465640A0020573A82
:101D3000002A2A2A2047656E696520446973636F0B
:101D40006E6E65637465642066726F6D204765749E
:101D50004E6578744279746521202A2A2A002A2A3D
:101D60002A2047656E696520456E61626C65204179
:101D700074746163684576656E7448616E646C6501
:101D80007220212121202A2A2A0043616E6E6F745D
:101D900020656E746572207375626469723A200002
:101DA00057726974696E6720746F2066696C653A52
:101DB00020002E0A006F70656E206661696C656494
:101DC0002C2046696C653A20002E0A006F70656E03
:101DD000206661696C65642C2046696C653A200058
:101DE00046696C652073656C65637465640A0020E0
:101DF00053697A653A200046696C65206F70656E9C
:101E000065643A20002E0A006F70656E2066616975
:101E10006C65642C2046696C653A20004E6F772013
:101E200066726573682066696C653A20004E6F774C
:101E300020646F696E672066696C653A2000222015
:101E4000706F73002220706172656E743A220053C5
:101E50005542524F5554494E452043414C4C2074F5
:101E600061726765743A2200747279696E672074D2
:101E70006F2063616C6C207375622D67636F64659E
:101E80002066696C6573207769746820746F6F20B1
:101E90006D616E79206C6576656C732E204D4158AE
:101EA000206C6576656C2069733A00534156454451
:101EB000205052494E540A007A70726F62653A207F
:101EC0000053442063617264206F6B0A006F706579
:101ED0006E526F6F74206661696C65640A00766F7C
:101EE0006C756D652E696E6974206661696C6564D8
:101EF0000A004572726F723A00534420696E697429
:101F0000206661696C0A0070012C0190012701B004
:101F1000012201C0011D01F001180110021301305E
:101F2000020E016002090190020401C002FF0000DC
:101F300003FA004003F5008003F000D003EB00201B
:101F400004E6007004E100E004DC004005D700C0B6
:101F500005D2004006CD00D006C8008007C300307F
:101F600008BE00F008B900C009B400B00AAF00B064
:101F70000BAA00D00CA500000EA000500F9B00C0C3
:101F80001096005012910000148C00C0158700B00C
:101F9000178200B0197D00D01B7800001E7300402E
:101FA000206E0090226900F024640040275F0090BA
:101FB000295A00E02B5500102E500020304B001005
:101FC000324600E033410090353C00103737007056
:101FD000383200A0392D00B03A2800A03B23006021
:101FE0003C1E00103D1900903D1400103E0F007083
:101FF0003E0A00C03E0500003F000048797374654A
:1020000072657369732074656D7065726174757241
:10201000650A00546865726D616C2072756E617737
:1020200061792070726F74656374696F6E20627974
:10203000204865617465725F49443A0A00457272CE
:102040006F723A004572726F72283833293A204213
:10205000656420746865726D6973746F72206E6F49
:10206000742064657465637465640A004572726FF8
:1020700072283832293A205269676874207468657A
:10208000726D6973746F72206E6F7420646574650D
:10209000637465640A004572726F72283831293A98
:1020A000204C65667420746865726D6973746F7214
:1020B000206E6F74202064657465637465640A0023
:1020C0002053544F50205052494E54200A0045721C
:1020D000726F72283833293A20426564207468652B
:1020E000726D6973746F72206E6F742064657465AD
:1020F000637465640A002053544F50205052494E77
:1021000054200A004572726F72283832293A2052E0
:102110006967687420746865726D6973746F722082
:102120006E6F742064657465637465640A0020537F
:10213000544F50205052494E54200A004572726F3D
:1021400072283831293A204C6566742074686572AB
:102150006D6973746F72206E6F742020646574658E
:10216000637465640A002053544F50205052494E06
:1021700054200A004552524F52283839293A2042F9
:102180004544206973206E6F742068656174696EC0
:1021900067002053544F50205052494E54200A009B
:1021A0004552524F52283839293A20486F74656E8B
:1021B00064202564206973206E6F742068656174E3
:1021C000696E67006563686F3A000A0020616E748B
:1021D00069686F726172690A3A200020686F7261E3
:1021E00072690A20002F3800766F6C7465732000C6
:1021F00020566F6C74657320636172676F6C203357
:102200003A200020616E7469686F726172690A3ADF
:10221000200020686F726172690A20002F380076F2
:102220006F6C746573200020566F6C746573206347
:102230006172676F6C20323A20000A0020647A33A2
:102240003A200020647A323A2000543100543000A1
:102250005430005430000A0056756974656E73334B
:102260003A2020004170726F78333A202000566F78
:102270006C746573333A2020000A005675697465E2
:102280006E73323A2020004170726F78323A20200B
:1022900000566F6C746573323A20200056616C6F83
:1022A0007220645A333A20200056616C6F722064A9
:1022B0005A323A2020004E6577206F666673657447
:1022C0002076657273696F6E3A20007A335F313A17
:1022D00020007A325F313A20005A7363726F6C6C5F
:1022E0005F313A20007A335F303A20007A325F3033
:1022F0003A20005A7363726F6C6C5F303A20005A58
:1023000076616C756520616674657220686F6D65B5
:102310003A00486F6D6520582F59206265666F72CC
:1023200065205A0A003B2020204275696C642074A5
:10233000696D653A20256420257320256420257366
:102340000A003B5072696E742074696D653A2025ED
:10235000642025732025642025732025642025739F
:10236000003B54494D453A256C64003B20202050E9
:102370006C6173746963207765696768743A2025B6
:10238000642E256467003B46696C616D656E742040
:10239000757365643A2025642E25646D2025642EAE
:1023A000256467003B46696C616D656E74207573CA
:1023B00065643A20256C642E256C646D003B45787D
:1023C0007472756465727320757365643A20542560
:1023D000642025642E2564205425642025642E2540
:1023E00064003B20202065787472756465724469CE
:1023F000616D657465722C312C25642E2564003B5B
:1024000020202065787472756465724469616D6519
:102410007465722C25642E25642C25642E25640099
:102420003B20202065787472756465724469616D23
:10243000657465722C25642E2564002E2E2E205482
:10244000696D656F757421002A2A2A2047656E69B7
:10245000652057726974654F626A656374202A2A21
:102460002A202D2D2D3E002E2E2E204E414B202198
:10247000002A2A2A2047656E6965205772697465AB
:102480004F626A656374202A2A2A202D2D2D3E0072
:102490002E2E2E2041434B2021002A2A2A20476538
:1024A0006E69652057726974654F626A656374204E
:1024B0002A2A2A202D2D2D3E002A2A2A2047656E01
:1024C0006965204261642042797465202A2A2A20A5
:1024D0002D2D2D3E203078002056616C75653A20F8
:1024E0000020496E6465783A20002A2A2A20476530
:1024F0006E6965205265706F7274204F626A656301
:1025000074202A2A2A204F626A6563743A20002ABE
:102510002A2A2047656E696520436F6E6E65637475
:102520006564202F2053796E6321202A2A2A0020F7
:1025300056616C75653A200020496E6465783A20D2
:10254000002A2A2A2047656E6965205265706F72DD
:1025500074204576656E74202A2A2A204F626A65A7
:1025600063743A2000204C656E6774683A20002A34
:102570002A2A2047656E696520526563656976651C
:1025800064204D6167696320446F75626C65204209
:1025900079746573202A2A2A20496E6465783A2066
:1025A00000204C656E6774683A20002A2A2A20476A
:1025B000656E6965205265636569766564204D6165
:1025C000676963204279746573202A2A2A20496E3C
:1025D0006465783A20002A2A2A2047656E696520BA
:1025E0004E414B205265636F76657279202121211F
:1025F000202A2A2A002A2A2A2047656E6965204453
:102600006973636F6E6E65637465642066726F6D67
:1026100020446F4576656E747321202A2A2A002A89
:102620002A2A2047656E696520546F6F6B20746F8E
:102630006F206C6F6E6720746F2072652D656E74ED
:10264000657220446F4576656E747328292C20725C
:1026500065647563652064656C61797320696E20BB
:10266000636F64652C2073656C662D70726F746582
:102670006374696F6E20656E61626C65642E202ADA
:102680002A2A004572726F7220577269746520455C
:102690004550524F4D0053657474696E67732053F3
:1026A000746F7265640A00204D696E7574657320DD
:1026B0003A0020204C617374207072696E7420742B
:1026C000696D652D3E20486F757273203A004C612C
:1026D0007374207072696E74206475726174696FAE
:1026E0006E0A002C205468697264204944206E757B
:1026F0006D62657220002C205365636F6E64204903
:1027000044206E756D6265723A2000202046697221
:102710007374204944206E756D6265723A200055CD
:102720004920496E666F726D6174696F6E205365E2
:102730007269616C204E756D6265723A0A00206D97
:102740002C204531207072696E7420646973746145
:102750006E63653A2000206B6D2C2045302070722E
:10276000696E742064697374616E63653A20002039
:102770006B6D2C2059207072696E742064697374BB
:10278000616E63653A2000206B6D2C2058312070FB
:1027900072696E742064697374616E63653A2000B7
:1027A00020432C0A205830207072696E74206469AE
:1027B0007374616E63653A200020432C206D61784C
:1027C0002074656D7020423A200020432C206D61FA
:1027D000782074656D7020523A20002C206D61784D
:1027E0002074656D70204C3A2000682C207072694E
:1027F0006E74732066696E69736865643A20002C94
:10280000207072696E74696E672074696D653A2014
:102810000020207072696E74733A20005354415442
:10282000533A0A0020432C20525F5052494E543AEA
:10283000200020432C20525F4245443A2000204390
:102840002C20525F52454D4F56453A2000202052D1
:102850005F494E534552543A200054656D7020280C
:1028600043293A0A0020432C204C5F5052494E54D1
:102870003A200020432C204C5F4245443A2000205F
:10288000432C204C5F52454D4F56453A20002020A6
:102890004C5F494E534552543A200054656D7020A8
:1028A0002843293A0A0020562856657273696F6ECC
:1028B00029200020522842656420726967687420CC
:1028C000736372657729200020204D353331204C09
:1028D00028426564206C656674207363726577298D
:1028E0002000426564204F66667365747320286D0E
:1028F0006D293A0A002050285A2070726F626529AB
:1029000000205A20002059200020204D353330204F
:102910005820004F66667365747320286D6D293AE0
:102920000A00204400204900202D204D3330312062
:10293000524947485420500020440020490020209C
:102940004D333031204C45465420500050494420EE
:1029500073657474696E67733A0A00205A002059CF
:102960000020204D323036205800486F6D65206FB2
:10297000666673657420286D6D293A0A002045004B
:10298000205A0020580020420020540020204D32C0
:102990003035205300416476616E63656420766152
:1029A000726961626C65733A20533D4D696E2066B1
:1029B0006565647261746520286D6D2F73292C2004
:1029C000543D4D696E2074726176656C2066656554
:1029D000647261746520286D6D2F73292C20423D2F
:1029E0006D696E696D756D207365676D656E7420B8
:1029F00074696D6520286D73292C20583D6D6178B0
:102A0000696D756D205859206A65726B20286D6D4F
:102A10002F73292C20205A3D6D6178696D756D20CA
:102A20005A206A65726B20286D6D2F73292C202027
:102A3000453D6D6178696D756D2045206A65726BE5
:102A400020286D6D2F73290A0020540020204D325C
:102A50003034205300416363656C65726174696F43
:102A60006E3A20533D616363656C65726174696F92
:102A70006E2C20543D7265747261637420616363CF
:102A8000656C65726174696F6E0A00204500205A9A
:102A90000020590020204D3230312058004D6178FF
:102AA000696D756D20416363656C65726174696FF2
:102AB0006E20286D6D2F7332293A0A0020450020C0
:102AC0005A0020590020204D3230332058004D61EB
:102AD00078696D756D2066656564726174657320D3
:102AE000286D6D2F73293A0A00204500205A0020D6
:102AF000590020204D3932205800537465707320DE
:102B000070657220756E69743A0A007C3C3E5E2BDB
:102B10003D3F2F5B5D3B2C2A225C004D313037005E
:102B20004E6577206C6179657220646574656374A5
:102B300065640A003B206C61796572003B4C415929
:102B4000455200256920686F757273202569206DD4
:102B5000696E7574657300446F6E65207072696E7E
:102B600074696E672066696C650A004D33330050E6
:102B700061757365207061726B696E670A00473614
:102B800039005072696E7465722073746F7070656D
:102B9000642064756520746F206572726F72732E85
:102BA0002046697820746865206572726F722061B2
:102BB0006E6420757365204D39393920746F207229
:102BC0006573746172742E202854656D706572612E
:102BD000747572652069732072657365742E205355
:102BE00065742069742061667465722072657374FF
:102BF000617274696E67290A006F6B0A004E6F205C
:102C00004C696E65204E756D6265722077697468D7
:102C100020636865636B73756D2C204C6173742041
:102C20004C696E653A20004E6F20436865636B7394
:102C3000756D2077697468206C696E65206E756D9E
:102C40006265722C204C617374204C696E653A2069
:102C500000636865636B73756D206D69736D617476
:102C600063682C204C617374204C696E653A2000B7
:102C70004C696E65204E756D626572206973206EB9
:102C80006F74204C617374204C696E65204E756DB5
:102C90006265722B312C204C617374204C696E6517
:102CA0003A20004D31313000CDAC034400809343D5
:102CB000000052430000000000000000000000007F
:102CC000504944204175746F74756E652066696E55
:102CD0006973686564210A00504944204175746F26
:102CE00074756E65206661696C6564212074696D18
:102CF000656F75740A0020403A006F6B20543A00EB
:102D00006F6B20423A00504944204175746F7475CE
:102D10006E65206661696C6564212054656D70651F
:102D200072617475726520746F6F20686967680AD4
:102D300000204B643A2000204B693A2000204B7061
:102D40003A200020436C617373696320504944202A
:102D50000A002054753A2000204B753A2000206D5F
:102D600061783A2000206D696E3A200020643A2094
:102D70000020626961733A20003B20472D436F6455
:102D8000652067656E6572617465642062792053A1
:102D9000696D706C696679334428522920566572D2
:102DA00073696F6E20256400526561647920746FC9
:102DB000204C6F61642F556E6C6F6164200A006552
:102DC00063686F3A0053746F72656420736574743E
:102DD000696E6773207265747269657665640A004E
:102DE00048617264636F6465642044656661756CF4
:102DF000742053657474696E6773204C6F616465E9
:102E0000640A0048617264636F6465642043616CA6
:102E1000696220616E642050494420446566617592
:102E20006C742053657474696E6773204C6F6164B1
:102E300065640A0047363920414354495641544598
:102E4000440A002E0A0044656C6574696F6E206642
:102E500061696C65642C2046696C653A200046699E
:102E60006C652064656C657465643A002E0A006FB9
:102E700070656E206661696C65642C2046696C65BE
:102E80003A2000007B02790211241FBECFEFD1E26D
:102E9000DEBFCDBF00E00CBF18E0A0E0B2E0E2EB87
:102EA000F8E903E00BBF02C007900D92A43AB10706
:102EB000D9F72EE1A4EAB8E001C01D92A735B20708
:102EC000E1F717E1C3E4D7E100E006C0219701096B
:102ED000802FFE010F943AC9C234D10780E0080761
:102EE000A9F70F942CA00D9448CC0C9400002F92BD
:102EF0003F924F925F926F927F928F929F92AF928A
:102F0000BF92CF92DF92EF92FF920F931F93CF93D6
:102F1000DF93CDB7DEB7C352D1400FB6F894DEBF12
:102F20000FBECDBF2DB73EB7CE5DDE4F39832883B0
:102F3000C252D14011E01093F7088091DA08811154
:102F40000CC00E94DF9C6093D6087093D7088093D2
:102F5000D8089093D9081093DA088091CE0881118F
:102F60000DC00E94DF9C6093CA087093CB088093C9
:102F7000CC089093CD0881E08093CE089091DA1A26
:102F80004091990250919A0260919B0270919C022B
:102F9000911106C08091DB1A882311F40C946D22E4
:102FA000453A51056105710509F44DC60CF0C3C0E1
:102FB000473551056105710509F4BAC40CF05EC0CE
:102FC000413251056105710511F40C94852034F5E9
:102FD000413151056105710509F4FCC774F44130B4
:102FE00051056105710509F4E8C2403151056105DB
:102FF000710509F4BBC10C94C55D433151056105F0
:10300000710509F47DC40CF49BC44032510561057F
:10301000710511F40C9494200C94C55D4134510554
:103020006105710509F4DBC4ACF445335105610554
:10303000710511F40C9439214D3351056105710569
:1030400009F4F4C3413351056105710511F00C9485
:10305000C55D31C4463451056105710509F4C3C429
:10306000433551056105710509F4C3C24434510566
:103070006105710509F495C70C94C55D4739510583
:103080006105710511F40C941F214CF5463751056B
:103090006105710509F476C474F44835510561057C
:1030A000710509F4E9C34A3551056105710509F453
:1030B00016C60C94C55D4E3751056105710509F4BE
:1030C0008DC1493851056105710509F443C24B377B
:1030D00051056105710511F00C94C55D00C64C39B0
:1030E00051056105710511F40C94B5209CF44A3921
:1030F00051056105710511F40C94A32014F00C9492
:10310000AC20483951056105710511F40C940E216C
:103110000C94C55D433A51056105710509F480C5FC
:103120000CF0B7C54D3951056105710511F40C94CA
:10313000E2200C94C55D4F3E51056105710509F40F
:1031400072C20CF088C0433D51056105710511F450
:103150000C942922BCF5483A51056105710509F422
:10316000ABC504F5463A51056105710509F400C582
:10317000473A51056105710511F00C94C55D8091C8
:10318000F1089091F208A091F308B091F4089160D1
:103190008093F1089093F208A093F308B093F40899
:1031A0000C94C55D4A3A51056105710509F40CC5D9
:1031B0000CF45CC54E3B51056105710509F46EC305
:1031C0000C94C55D453E51056105710509F40FC4B8
:1031D00014F5433E51056105710509F41BC40CF05B
:1031E0006AC4423E51056105710511F00C94C55D3C
:1031F0008091F1089091F208A091F308B091F40841
:1032000082608093F1089093F208A093F308B09342
:10321000F4080C94C55D4D3E51056105710509F436
:103220000BC10CF0C2C14A3E51056105710511F098
:103230000C94C55D40E050E06EE681E20F94B95C0D
:103240008091280A9091290A92609093290A80938C
:10325000280A0C94C55D4B3F51056105710509F4C1
:1032600005C484F5473F51056105710509F436C46D
:10327000A4F4423F51056105710509F4BAC1463F06
:1032800051056105710509F44EC4413F51056105C1
:10329000710511F00C94C55D90C18091F108909179
:1032A000F208A091F308B091F4082091C502309182
:1032B000C602493F51056105710509F498C40CF433
:1032C0006AC4BBC34E3631E053076105710509F48A
:1032D000A8C0B4F5483691E059076105710509F4B5
:1032E000BFC74A36A1E05A076105710509F499C0C4
:1032F000453651406105710511F00C94C55D40E003
:1033000050E06AE28AE00F94B95C40E050E064E586
:1033100081E20F94B95C81E080938C1210928F123D
:1033200065E479E086E20F94C75D8091280A909168
:10333000290A98609093290A8093280A0C94C55D05
:103340004937E1E05E076105710509F43FC645387C
:10335000F1E05F076105710509F46CC14837514020
:103360006105710511F00C94C55D9CC58091230227
:10337000813419F541E050E066E08BE10F94B95CCF
:1033800041E050E060E181E20F94B95C41E050E03F
:1033900062E181E20F94B95C41E050E063E181E2D7
:1033A0000F94B95C41E050E06EE781E20F94B95CA4
:1033B00084E4809323020C94C55D843411F00C9452
:1033C000C55D8091280A9091290A80649093290A0A
:1033D0008093280A10928C120C94C55D40E050E056
:1033E00066E08BE10F94B95C40E050E060E181E27F
:1033F0000F94B95C40E050E062E181E20F94B95C67
:1034000040E050E063E181E20F94B95C40E050E0BD
:103410006EE781E20F94B95C81E4809323020C94FF
:10342000C55D8091280A9091290A92609093290A9B
:103430008093280A0C94C55D80912302823419F58B
:1034400083E48093230241E050E063E08BE10F943A
:10345000B95C41E050E067E581E20F94B95C41E07E
:1034600050E066E781E20F94B95C41E050E06DEE18
:1034700081E20F94B95C41E050E069E881E20F9489
:10348000B95C0C94C55D833411F00C94C55D11E0FA
:103490001093ED0840E050E068E981E20F94B95CD8
:1034A00040E050E067E981E20F94B95C40E050E011
:1034B0006CE981E20F94B95C40E050E06DE981E293
:1034C0000F94B95C41E050E06AE481E20F94B95C8A
:1034D00040E050E06CE28AE00F94B95C10938F12E8
:1034E0008FEF9FEF909389028093880240E050E035
:1034F0006AE981E20F94B95C40E050E06BE981E257
:103500000F94B95C6091FF137091001480910114C5
:10351000909102140F9462C6AB0166E289E00F94A9
:10352000B95C60910314709104148091051490911A
:1035300006140F9462C6AB0167E289E00F94B95C90
:1035400040E050E068E289E00F94B95C10928C1280
:103550000C94C55D80912302833411F00C94C55DF9
:1035600082E48093230240E050E063E08BE10F941B
:10357000B95C40E050E067E581E20F94B95C40E05F
:1035800050E066E781E20F94B95C40E050E06DEEF8
:1035900081E20F94B95C40E050E069E881E20F9469
:1035A000B95C10928F120C94C55D40E050E064E568
:1035B0008AE00F94B95C0C94C55D10928C1280E087
:1035C0000F9413368091280A9091290A8260909373
:1035D000290A8093280A81E08093931240E050E00A
:1035E00068E08AE00F94B95C81E4809394120C94B3
:1035F000C55D80912D0A882311F40C94C55D41E0CE
:1036000050E080912A0A8A3011F440E050E066E1EF
:103610008BE10F94B95C40E050E062E58AE00F94E2
:10362000B95C0C94C55D89E480931D020F94C808B1
:103630000C94C55D80914D1E90914E1E90935B122F
:1036400080935A120F94514180914F1E9091501EB9
:1036500090935D1280935C120F94514182E48093A9
:10366000230282E580931D0281E080938F121092E5
:103670008C1280912A0AE1E08A3009F4E0E0E093BC
:103680009E0CF0E0EE0FFF1FE65AFD4E20813181C7
:103690003093C9082093C8088A3029F48091D00B50
:1036A0009091D10B04C08091D40B9091D50B918354
:1036B00080830F94514181E48093941240E050E064
:1036C00068E08AE00F94B95C40E050E064E581E294
:1036D0000F94B95C80E090E0A3E4B3E480937D12A2
:1036E00090937E12A0937F12B093801280908A0CE8
:1036F00090908B0CA0908C0CB0908D0C2091791236
:1037000030917A1240917B1250917C126091751227
:10371000709176128091771290917812E8E66E2E71
:10372000E2E17E2E7F926F92F1E8CF2EF2E1DF2E62
:10373000E12CF12C03E413E40E9458D90F94B74410
:1037400080E090E0A0E2B1E48093791290937A1245
:10375000A0937B12B0937C128090860C9090870C83
:10376000A090880CB090890CE0907D12F0907E12B1
:1037700000917F12109180126091751270917612F3
:1037800080917712909178127F926F9220E030E0D2
:1037900040E251E40E9458D90F94B7440F900F9023
:1037A0000F900F90809194128E3411F40C942E2A65
:1037B000109294120E943E6540E050E060E289E081
:1037C0000F94B95C40E050E064E28AE00F94B95C89
:1037D00000919E0C10E0F801EE0FFF1FEE0FFF1F8F
:1037E000E150FC4E60817181828193810F9462C6A9
:1037F0007093EB086093EA08000F111FF801E65A76
:10380000FD4E808191810A979093E9088093E808A2
:103810001092E7081092E60889E4809394120E94BF
:103820003E6581E08093EC080C94C55D8091230295
:1038300040E050E0813441F469E08AE00F94B95CE3
:1038400065E479E082E007C06AE28AE00F94B95C3F
:1038500065E479E086E20F94C75D8091280A909133
:10386000290A98609093290A8093280A10928F124F
:1038700010928C120C94C55D8091CF0B81110C9429
:10388000C55D8091DB1A81110C94C55D40E050E06C
:1038900069E38AE00F94B95C0C94C55D8091CF0B0D
:1038A00081110C94C55D40E050E061E08AE00F9426
:1038B000B95C0C94C55D8091CF0B81110C94C55DF2
:1038C00010912302113411F00C94C55D10928C12EA
:1038D0001092DA1A81E08093DB1A40E050E068E051
:1038E0008AE00F94B95C109394128091280A909109
:1038F000290A94609093290A8093280A0C94C55D44
:1039000080912302813439F440E050E061E08AE0A4
:103910000F94B95CADCF843409F0AACF8091280A06
:103920009091290A90619093290A8093280AA0CF48
:1039300080912302823441F3833409F099CFEECF92
:1039400080912302992369F0813459F48091280AE7
:103950009091290A88609093290A8093280A0C94F0
:10396000C55D843411F00C94C55D8091280A909156
:10397000290A80689093290A8093280A10928C1251
:103980000C94C55D8091DB1A882311F40C94C55DFD
:1039900080912302823459F48091280A9091290A57
:1039A00080619093290A8093280A0C94C55D833422
:1039B00011F00C94C55D40E050E066E18AE00F94A0
:1039C000B95C41E050E064E581E20F94B95C82E5C6
:1039D00080931D0281E080938F120C94C55D0F943B
:1039E0007B030C94C55D0F9405030C94C55D809119
:1039F000F1089091F208A091F308B091F408846066
:103A00008093F1089093F208A093F308B093F40820
:103A10000C94C55D8091F1089091F208A091F30893
:103A2000B091F40888608093F1089093F208A09315
:103A3000F308B093F4080C94C55D2330310559F4B4
:103A4000A1608093F1089093F208A093F308B093DB
:103A5000F4080C94C55D84608093F1089093F2089B
:103A6000A093F308B093F4080C94C55D2091C502AF
:103A70003091C6028091F1089091F208A091F3086C
:103A8000B091F4082330310559F4A2608093F10815
:103A90009093F208A093F308B093F4080C94C55DDA
:103AA00088608093F1089093F208A093F308B09394
:103AB000F4080C94C55D8091F1089091F208A091F2
:103AC000F308B091F40881608093F1089093F208B4
:103AD000A093F308B093F4080C94C55D2091C5023F
:103AE0003091C6028091F1089091F208A091F308FC
:103AF000B091F4082330310559F490618093F108B6
:103B00009093F208A093F308B093F4080C94C55D69
:103B100081608093F1089093F208A093F308B0932A
:103B2000F4080C94C55D2091C5023091C6028091C5
:103B3000F1089091F208A091F308B091F4082330B5
:103B4000310559F490628093F1089093F208A093A4
:103B5000F308B093F4080C94C55D82608093F1087B
:103B60009093F208A093F308B093F4080C94C55D09
:103B70008091F1089091F208A091F308B091F408B7
:103B800080628093F1089093F208A093F308B093B9
:103B9000F4080C94C55D2330310559F4906480938A
:103BA000F1089093F208A093F308B093F4080C94F2
:103BB000C55D80628093F1089093F208A093F308AA
:103BC000B093F4080C94C55D8091F1089091F208CF
:103BD000A091F308B091F40880618093F10890936C
:103BE000F208A093F308B093F4080C94C55D233059
:103BF000310559F490688093F1089093F208A093EE
:103C0000F308B093F4080C94C55D80618093F108CB
:103C10009093F208A093F308B093F4080C94C55D58
:103C20008091F1089091F208A091F308B091F40806
:103C300080648093F1089093F208A093F308B09306
:103C4000F4080C94C55D8091F1089091F208A09160
:103C5000F308B091F40880688093F1089093F2081B
:103C6000A093F308B093F4080C94C55D8091F1081B
:103C70009091F208A091F308B091F40892608093BB
:103C8000F1089093F208A093F308B093F4080C9411
:103C9000C55D8091F1089091F208A091F308B09170
:103CA000F40894608093F1089093F208A093F308CD
:103CB000B093F4080C94C55D8091F1089091F208DE
:103CC000A091F308B091F40898608093F108909364
:103CD000F208A093F308B093F4080C94C55D4A353C
:103CE00051056105710519F410929E0C03C081E025
:103CF00080939E0C80919E0CE82FF0E0EE0FFF1F4A
:103D0000E65AFD4E208131813093C9082093C808BE
:103D1000811105C08091D00B9091D10B04C080918E
:103D2000D40B9091D50B918380830F94514181E402
:103D30008093941240E050E068E08AE00F94B95C10
:103D400040E050E064E581E20F94B95C80E090E0EF
:103D5000A3E4B3E480937D1290937E12A0937F122C
:103D6000B093801280908A0C90908B0CA0908C0C59
:103D7000B0908D0C2091791230917A1240917B1283
:103D800050917C1260917512709176128091771229
:103D900090917812E8E66E2EE2E17E2E7F926F928D
:103DA000F1E8CF2EF2E1DF2EE12CF12C03E413E455
:103DB0000E9458D90F94B74480E090E0A0E2B1E4AB
:103DC0008093791290937A12A0937B12B0937C1215
:103DD0008090860C9090870CA090880CB090890CF5
:103DE000E0907D12F0907E1200917F12109180126F
:103DF000609175127091761280917712909178127D
:103E00007F926F9220E030E040E251E40E9458D966
:103E10000F94B7440F900F900F900F9080919412D1
:103E20008E3411F40C942E2A109294120E943E6546
:103E300040E050E060E289E00F94B95C40E050E07F
:103E400064E28AE00F94B95C00919E0C10E0F801E6
:103E5000EE0FFF1FEE0FFF1FE150FC4E60817181DE
:103E6000828193810F9462C67093EB086093EA0895
:103E7000000F111FF801E65AFD4E808191810A97CB
:103E80009093E9088093E8081092E7081092E608FA
:103E900089E4809394120E943E6581E08093EC084F
:103EA0000C94C55D40E050E060E289E00F94B95C9D
:103EB00040E050E064E28AE00F94B95C89E48093CA
:103EC00094120E943E6500919E0C01111DC08091CC
:103ED000D20B9091D30B6091BF117091C0116817F4
:103EE00079072CF4BC01990F880B990B04C0072E9D
:103EF000000C880B990B0F942DBE0F9462C6709323
:103F00005B1260935A1220C08091D60B9091D70B10
:103F10006091B9117091BA11681779072CF4BC013E
:103F2000990F880B990B04C0072E000C880B990B76
:103F30000F942DBE10E0000F111F065A1D4E0F9456
:103F400062C6D8016D937C930F94514100919E0CF1
:103F500010E0F801EE0FFF1FEE0FFF1FE150FC4EC7
:103F600060817181828193810F9462C67093EB08A6
:103F70006093EA08000F111FF801E65AFD4E808198
:103F800091810A979093E9088093E8081092E708D6
:103F90001092E6080E943E6581E08093EC080C9444
:103FA000C55D80913702882311F40C94D35D809114
:103FB0009E0C811102C08AE101C086E30E944E9BE3
:103FC000892B11F00C94D35D0C94C55D0F94F10313
:103FD0000C94C55D8091EF0881FF02C00C94C55D13
:103FE0008091080A9091070A98130C94545F40E05E
:103FF00050E06BE084E10F94B95C40E050E065E193
:104000008AE00F94B95C82E4809394128093141335
:10401000E0919E0C34E0E39FF0011124E355FD4F45
:1040200060817181828193816093751270937612A1
:104030008093771290937812E0907D12F0907E1228
:1040400000917F12109180122091791230917A1292
:1040500040917B1250917C12EEE9FCE0FF93EF93CC
:10406000812C912CE8E4AE2EE3E4BE2EF1E8CF2EB5
:10407000F2E1DF2E0E9458D9E0907D12F0907E127E
:1040800000917F12109180122091791230917A1252
:1040900040917B1250917C12E091681264E0E69F9F
:1040A000F0011124E355FD4F60817181828193817C
:1040B0000F94495EE091681284E0E89FF0011124BA
:1040C000E355FD4F80819181A281B3818093751268
:1040D00090937612A0937712B0937812E0919E0C91
:1040E000F0E0EE0FFF1FE65AFD4E8091C808909158
:1040F000C908918380830F94514110922D0A0F9427
:10410000B7440F900F900C94C55D8091EF0881FF2C
:1041100002C00C94C55D9091080A2091070A2913EA
:104120000C94585F0C945B5F8091EF0881FF02C094
:104130000C94C55D9091080A2091070A29130C94EC
:10414000585F0C945F5F8091080A9091070A98135A
:104150000C94C55D0C94635F9091080A8091070AE6
:1041600098130C94C55D0C94EE5FE0918802F09179
:104170008902EF3F9FEFF90711F40C94C55DEE0F34
:10418000FF1FE65AFD4E808191818B33A1E09A0793
:1041900014F00C94C55D0596918380830F94514172
:1041A0000F945141E0918802F0918902EE0FFF1FB8
:1041B000E65AFD4E4081518168E289E00F94B95C76
:1041C0000C94C55DE0918802F0918902EF3FBFEF4A
:1041D000FB0711F40C94C55DEE0FFF1FE65AFD4E70
:1041E000808191811816190614F00C94C55D05970D
:1041F000918380830F9451410F945141E091880243
:10420000F0918902EE0FFF1FE65AFD4E4081518169
:1042100068E289E00F94B95C0C94C55D80918802D6
:1042200090918902019611F40C94C55D9091080A51
:104230008091070A98130C94585F0C947C608091CD
:10424000880290918902019611F40C94C55D9091B9
:10425000080A8091070A98130C94585F0C948260A6
:104260009091080A8091070A98130C94C55D0C94EC
:10427000886080911413823411F00C94C55D109203
:1042800094128091280A9091290A8D7F9093290A8F
:104290008093280A80911D02823531F489E480934D
:1042A0001D020F94C808D1C0893409F0CEC081E442
:1042B0008093941240E050E068E08AE00F94B95C8B
:1042C00040907E0950907F0960908009709081092C
:1042D0004092791250927A1260927B1270927C1204
:1042E00020E030E040E752E460916E0270916F028E
:1042F00080917002909171020F94B6C54B015C01E0
:10430000E0907D12F0907E1200917F121091801249
:104310006091751270917612809177129091781257
:1043200028E632E13F932F9321E8C22E22E1D22EDC
:10433000A30192010E9458D90F94B7440F900F9097
:10434000809194128E3411F40C942E2A20E030E0E7
:1043500040E251E46091820970918309809184095F
:10436000909185090F94C8C47B018C0160937D12E4
:1043700070937E1280937F129093801280917909BE
:1043800089838090720290907302A0907402B09022
:1043900075022091791230917A1240917B125091DE
:1043A0007C126091751270917612809177129091C3
:1043B0007812FE013196FF93EF930E9458D90F9423
:1043C000B7440F900F90809194128E3411F40C9496
:1043D0002E2A1092941282E48093230240E050E04F
:1043E00063E08BE10F94B95C40E050E067E581E267
:1043F0000F94B95C40E050E066E781E20F94B95C4D
:1044000040E050E06DEE81E20F94B95C40E050E096
:1044100069E881E20F94B95C40E050E06AE28AE02A
:104420000F94B95C81E080938C1210928F1265E436
:1044300079E086E20F94C75D8091280A9091290A5D
:1044400098609093290A8093280A109214130C9470
:10445000C55D8091B411109294128823E9F01092F6
:10446000B4118091280A9091290A98609093290AA2
:104470008093280A8091230240E050E0813431F497
:1044800069E08AE00F94B95C0C94C55D6AE28AE049
:104490000F94B95C0C94C55D10921B1210928F1290
:1044A000E5E9F8E084918F01882351F0082E000C93
:1044B000990B0F94858E0F5F1F4FF8018491F4CFF5
:1044C0001092E20B81E00E94E0FD40E050E065E0E8
:1044D0008AE00F94B95C0C94C55D80914009282F47
:1044E000287083FF90C390914409923008F48BC3E5
:1044F000413B51056105710509F4A8C0B4F5443686
:1045000051056105710509F4A1C1A4F44E355105A9
:104510006105710509F4F0C24F355105610571055A
:1045200009F41CC3453351056105710511F00C9464
:10453000C55D27C3403A51056105710509F4C8C03E
:10454000423A51056105710509F46AC043385105C5
:104550006105710511F00C94C55D40E050E06DE619
:104560008AE00F94B95C0C94C55D4233F1E05F07BB
:104570006105710509F45CC13CF5453C51056105D7
:10458000710509F479C04C3C51056105710509F4C8
:1045900089C0423B51056105710511F00C94C55D60
:1045A0000F94E70241E050E062EB81E20F94B95CC6
:1045B00041E050E060EA81E20F94B95C109254024D
:1045C000109253020C94C55D463331E053076105E8
:1045D000710509F417C1ACF443335140610571050D
:1045E00011F00C94C55D8DEF9FEF9093161380939F
:1045F000151340E050E06AE08AE00F94B95C0C9437
:10460000C55D4E37A1E05A076105710509F4F2C195
:10461000483851406105710509F424C10C94C55D09
:104620000F94E70241E050E062EA81E20F94B95C46
:1046300041E050E060EA81E20F94B95C8EEF9FEFB9
:1046400090935402809353020C94C55D0F94E7023B
:1046500041E050E061EB81E20F94B95C41E050E051
:1046600060EA81E20F94B95C8FEF9FEF9093540260
:10467000809353020C94C55D0F94E70241E050E033
:1046800065EC81E20F94B95C41E050E060EA81E2C0
:104690000F94B95C81E090E09093540280935302B0
:1046A0000C94C55D0F94E70241E050E06CEC81E2B0
:1046B0000F94B95C41E050E060EA81E20F94B95C8C
:1046C00082E090E090935402809353020C94C55D75
:1046D000009153021091540298012E5F3F4F2530F4
:1046E000310510F00C94C55D9230D9F583E08093CC
:1046F000440940E050E061E18AE00F94B95C80E554
:104700008093941280914109800F8093410900E0C9
:1047100010E020E030E04CE553EC60E070E088E32E
:1047200093EC0F9454A70F94E70280E697E09093E0
:1047300054028093530240E050E060EA81E20F941B
:10474000B95C42E050E06CE08BE10F94B95C40E072
:1047500050E069E18AE00F94B95C109294120C94D5
:10476000C55D9330D9F584E08093440940E050E082
:1047700061E18AE00F94B95C80E5809394128091A6
:104780004209800F8093420900E010E020E030E011
:104790004CE553EC60E070E080E493E40F9454A7A0
:1047A0000F94E70280E697E09093540280935302BF
:1047B00040E050E060EA81E20F94B95C42E050E0F2
:1047C0006CE08BE10F94B95C40E050E069E18AE075
:1047D0000F94B95C109294120C94C55D943011F052
:1047E0000C94C55D80914309800F8093430940E09C
:1047F00050E06EE28AE00F94B95C8FE480939412EB
:104800000C94C55D0F94E70240E050E060EA81E25D
:104810000F94B95C40E050E069E18AE00F94B95C24
:1048200080E697E090935402809353020C94C55D08
:1048300083E090E0909316138093151340E050E0CE
:104840006AE08AE00F94B95C0C94C55D109216136F
:104850001092151340E050E06AE08AE00F94B95CD2
:104860000C94C55D40E050E068E08AE00F94B95CCC
:1048700081E48093941241E061E081E00E9413EBB7
:10488000109294120F94B7440F9460051091151371
:10489000809144098230B1F540E050E061E18AE066
:1048A0000F94B95C80E58093941200914109010F47
:1048B00000934109002E000C110B20E030E0A9010B
:1048C000CA01B9010F9454A70F94E70280E697E05C
:1048D000909354028093530240E050E060EA81E2FA
:1048E0000F94B95C42E050E06CE08BE10F94B95C4E
:1048F00040E050E069E18AE00F94B95C10929412B4
:104900000C94C55D8330C9F540E050E061E18AE078
:104910000F94B95C80E58093941200914209010FD5
:1049200000934209002E000C110B20E030E04CE512
:1049300053EC60E070E088E393EC0F9454A70F947D
:10494000E70280E697E0909354028093530240E0A0
:1049500050E060EA81E20F94B95C42E050E06CE024
:104960008BE10F94B95C40E050E069E18AE00F947C
:10497000B95C109294120C94C55D843011F00C94C3
:10498000C55D40E050E061E18AE00F94B95C80E5EC
:104990008093941200914309010F00934309002E64
:1049A000000C110B20E030E04CE553EC60E070E0CF
:1049B00080E493E40F9454A70F94E70280E697E015
:1049C000909354028093530240E050E060EA81E209
:1049D0000F94B95C42E050E06CE08BE10F94B95C5D
:1049E00040E050E069E18AE00F94B95C10929412C3
:1049F0000C94C55D10929412809141094091420936
:104A0000042F081B40914309142F181B602F002E00
:104A1000000C770B880B990B0F942DBE2DEC3CEC02
:104A20004CEC5DEB0F9435B96093DA097093DB09B8
:104A30008093DC099093DD09612F012E000C770B28
:104A4000880B990B0F942DBE2DEC3CEC4CEC5DEBE0
:104A50000F9435B96093D6097093D7098093D8091C
:104A60009093D9090023A1F040E050E06FE18AE083
:104A70000F94B95C07FF07C0E02FFF27E1950CF406
:104A8000F09508E00E0F402F000F550B64E015C0A5
:104A90001123B9F040E050E060E28AE00F94B95C85
:104AA00017FF07C0212F332721950CF4309518E00C
:104AB000120F412F110F550B65E08BE10F94B95C7C
:104AC00011C014E41093141340E050E06BE084E153
:104AD0000F94B95C40E050E065E18AE00F94B95C66
:104AE000109394128DEE90E09093D5098093D409A1
:104AF0000F94DD680C94C55D409143098091410994
:104B0000142F181BC1F040E050E060E28AE00F94DF
:104B1000B95C17FF07C0812F992781950CF49095F8
:104B200018E0180F412F110F550B65E08BE10F9422
:104B3000B95C0C94C55D14E41093141340E050E08C
:104B40006BE084E10F94B95C40E050E065E18AE0FD
:104B50000F94B95C109394120C94C55D14E41093F7
:104B6000141340E050E06BE084E10F94B95C40E046
:104B700050E065E18AE00F94B95C109394120C94B4
:104B8000C55D90911413943411F00C94C55D10928E
:104B90004409877F80934009109294121092551215
:104BA000109254120F940D4110925B1210925A12EF
:104BB0000F94514110925D1210925C120F9451416A
:104BC00010921B1210928F12EAE8F8E084918F0184
:104BD000882351F0082E000C990B0F94858E0F5FDF
:104BE0001F4FF8018491F4CF1092E20B80E00E94F5
:104BF000E0FD40E050E065E08AE00F94B95C10927F
:104C000014130C94C55D4E38F1E05F0710F00C945E
:104C1000C55DFA018827EE58FF4F8F4F0D943AC9B2
:104C200080912102909122028260909322028093CF
:104C300021020C94C55D8091210290912202846032
:104C400090932202809321020C94C55D80912102F1
:104C500090912202886090932202809321020C940A
:104C6000C55D809121029091220280619093220281
:104C7000809321020C94C55D8091210290912202C3
:104C8000806290932202809321020C94C55D0F9460
:104C90006937009781F480912102909122029460FB
:104CA000909322028093210280914512815080933B
:104CB00045120C94C55D019711F00C94C55D80916F
:104CC000210290912202946090932202809321020B
:104CD00040E050E067E381E20F94B95C40E050E0CF
:104CE00061E08BE10F94B95C809145128150809313
:104CF00045120C94C55D10921B1210928F12EFE7B3
:104D0000F8E084918F01882351F0082E000C990B54
:104D10000F94858E0F5F1F4FF8018491F4CF10928E
:104D2000E20B81E00E94E0FD40E050E065E08AE0B7
:104D30000F94B95C0C94C55D8091DC1A882311F442
:104D40000C94C55D41E061E08DED9AE10F94EB3983
:104D50008FEF9FEF9093CB1A8093CA1A412C512C5E
:104D600032017301620100E010E089E7A82E8AE1B8
:104D7000B82E9E012F5F3F4F190188248394912CF8
:104D800040917B1D50917C1D60917D1D70917E1D19
:104D90008091D61C9091D71CA091D81CB091D91CA1
:104DA00084179507A607B70708F06DC0D501E2E3A1
:104DB0001D92EA95E9F70F94CF5F0196D9F410920E
:104DC000C51A1092C41A1092C71A1092C61A81E01E
:104DD00090E09093C91A8093C81A1092D51A109235
:104DE000D41A1092D71A1092D61A80E00F94133664
:104DF0000C94A5600115110521F52FEF3FEF3A83C3
:104E000029833F922F9249E75DE25F934F93BF92D0
:104E1000AF920F9406BE89819A810F900F900F90E8
:104E20000F900F900F90019639F09092CB1A8092CC
:104E3000CA1A07E010E021C01092CB1A1092CA1AC9
:104E40001CC080E00F9442B66B017C0181E00F949E
:104E500042B62B013C0120E030E0A901C701B601B8
:104E60000F94A0C718167CF020E030E0A901C30120
:104E7000B2010F94A0C7181634F00F5F1F4F0E3108
:104E800011050CF47DCF80E00F94133620E030E064
:104E9000A901C701B6010F9427BE18165CF020E0E7
:104EA00030E0A901C301B2010F9427BE181614F017
:104EB0000C94A5608090550290905602A0905702E5
:104EC000B0905802A5019401C701B6010F9427BE06
:104ED000811114C020E030E0A901C701B6010F9490
:104EE000A0C718165CF420E030E0A901C301B201AC
:104EF0000F9427BE181614F00C94A5602091590247
:104F000030915A0240915B0250915C02C65EDE4FC6
:104F1000288339834A835B83CA51D140C301B201DC
:104F20000F9427BE81111EC020E030E0A901C3010B
:104F3000B2010F94A0C718165CF420E030E0A9017C
:104F4000C701B6010F9427BE181614F00C94A56083
:104F5000A5019401C701B6010F9427BE882311F45F
:104F60000C94A56020E030E0A901C701B6010F94C0
:104F700027BE20E030E040E251E418161CF0C501E5
:104F8000B40102C0C701B6010F9435B90F9462C6CF
:104F90006093080220E030E0A901C301B2010F9440
:104FA00027BE20E030E040E251E418164CF0C65E27
:104FB000DE4F688179818A819B81CA51D14002C0CC
:104FC000C301B2010F9435B90F9462C66093090210
:104FD00040E050E06FE58AE00F94B95C60915502C3
:104FE0007091560280915702909158020F9462C6B8
:104FF000AB016DE489E00F94B95C20E030E040E261
:1050000051E460915502709156028091570290913F
:1050100058020F9435B90F9462C60AE010E0CB0134
:10502000B8010F940BC9AC016EE489E00F94B95C30
:105030006091590270915A0280915B0290915C02DA
:105040000F9462C6AB016FE489E00F94B95C20E075
:1050500030E040E251E46091590270915A0280912F
:105060005B0290915C020F9435B90F9462C6CB013C
:10507000B8010F940BC9AC0160E589E00F94B95CED
:10508000809108021AE0612F0F94EAC8482F880F18
:10509000550B61E589E00F94B95C80910802612F9E
:1050A0000F94EAC8492F990F550B62E589E00F94D8
:1050B000B95C80910902612F0F94EAC8482F880FCC
:1050C000550B63E589E00F94B95C80910902612F6B
:1050D0000F94EAC8492F990F550B64E589E00F94A6
:1050E000B95CBCC18091DC1A882311F40C94C55DB5
:1050F00080912C1B81110C94C55DCDB6DEB68091DC
:10510000F5089091F6080F946539EDEDFAE1DF01AD
:105110000D900020E9F78DB79EB78A1B9B0B9C0171
:105120002752354E0FB6F8943EBF0FBE2DBF0DB7B8
:105130001EB70F5F1F4FFF93EF938FE198E09F9390
:105140008F931F930F930F94D8BD780134E0E30E33
:10515000F11C0F900F900F900F900F900F90D701B0
:105160008C91882349F0082E000C990B0F94B8CB32
:10517000F70181937F01F3CFC8010E9452FE8BE1BA
:1051800098E00E94E3FD0FB6F894DEBE0FBECDBEE0
:105190000C94C55D81E080931B1280912102909157
:1051A0002202926090932202809321020C94C55DAA
:1051B000809121029091220291609093220280932B
:1051C00021020C94C55D8091210290912202806899
:1051D00090932202809321020C94C55D40E050E040
:1051E00062E18AE00F94B95C0C94C55D40E050E048
:1051F0006CE18AE00F94B95C80E00E94E0FD1092BF
:105200000E1410920D1410920C1481E08093E20B96
:105210000C94C55D10921B1210928F12E0E1F8E021
:1052200084918F01882351F0082E000C990B0F9464
:10523000858E0F5F1F4FF8018491F4CF1092E20B1F
:105240000E943E6581E00E94E0FD40E050E065E0A4
:105250008AE00F94B95C0C94C55D80915A129091CC
:105260005B12892B29F010925B1210925A1208C01F
:105270008091050C9091060C90935B1280935A12CA
:105280000F94514110920E140C94C55D80915C12E4
:1052900090915D12892B29F010925D1210925C1290
:1052A00008C08091020C9091030C90935D12809342
:1052B0005C120F94514110920D140C94C55D8091B5
:1052C000541290915512892B29F010925512109278
:1052D00054121CC080913E0990913F0960913C0995
:1052E00070913D09681779072CF4BC01990F880B60
:1052F000990B04C0072E000C880B990B0F942DBE40
:105300000F9462C670935512609354120F940D411E
:1053100010920C140C94C55D8CE098E00E94E3FDA3
:105320000C94C55D40E050E06EE18AE00F94B95CFA
:105330000C94C55D40E050E065E08AE00F94B95CF4
:1053400010921B1210928F12E1E0F8E084918F010D
:10535000882351F0082E000C990B0F94858E0F5F57
:105360001F4FF8018491F4CF1092E20B88E793E08D
:1053700090934202809341020F94DD680C94C55DC6
:1053800040E050E06AE18AE00F94B95C0F94723417
:105390008091DC1A882311F40C94C55D809144122D
:1053A00080934512BCE1EB2EB2E1FB2E10E3C12E3F
:1053B00012E1D12E00E010E08091441290E0081735
:1053C0001907FCF46DED7AE184E59BE10F94856C9F
:1053D0005701D7018D919D917D010F946539F5019C
:1053E00080819181D6018D939D936D0180912C1BBD
:1053F000882321F08DED9AE10F94FA3D0F5F1F4F46
:10540000DBCF87E090E00F94090E0C94C55D80918E
:105410004102909142028036974041F488E793E040
:1054200090934202809341020F94DD6840E050E087
:1054300068E08AE00F94B95C81E4809394128091D3
:105440000B0C8823D1F040E061E081E00E9413EB77
:105450000F94B744809194128E3489F48FEF9FEFAC
:10546000DC018093990290939A02A0939B02B093DF
:105470009C021092F7080C94196541E0E5CF81E099
:105480000E94E0FD109294128EEF97E00E94E3FDDF
:105490000F94B744809194128E3401F340E050E0B1
:1054A0006BE08AE00F94B95C0C94C55D40E050E07D
:1054B00064E08AE00F94B95C0C94C55D40E050E074
:1054C00064E28AE00F94B95C80910B14826080934F
:1054D0000B1489E48093941240E050E060E289E08C
:1054E0000F94B95C6091050C7091060C072E000CAE
:1054F000880B990B0F942DBE40E050E00F94028072
:105500000F94DD686BE275E080E598E10F948A8E78
:105510006EE275E080E598E10F948A8E6091150344
:1055200070911603809117039091180342E050E0A8
:105530000F94BB3762E375E080E598E10F948A8EA3
:105540002DEB37E346E05EE360910D0370910E03AF
:1055500080910F03909110030F94B6C542E050E084
:105560000F94BB3766E375E080E598E10F948A8E6F
:105570002DEB37E346E05EE360910503709106038F
:1055800080910703909108030F9435B942E050E0F1
:105590000F94BB376091020C7091030C072E000C26
:1055A000880B990B0F942DBE41E050E00F940280C0
:1055B0000F94DD686BE275E080E598E10F948A8EC8
:1055C0006EE275E080E598E10F948A8E6091190390
:1055D00070911A0380911B0390911C0342E050E0EC
:1055E0000F94BB3762E375E080E598E10F948A8EF3
:1055F0002DEB37E346E05EE36091110370911203F7
:1056000080911303909114030F94B6C542E050E0CB
:105610000F94BB3766E375E080E598E10F948A8EBE
:105620002DEB37E346E05EE36091090370910A03D6
:1056300080910B0390910C030F9435B942E050E038
:105640000F94BB37109294120E943E6540E050E0E8
:105650006BE084E10F94B95C40E050E065E18AE0E2
:105660000F94B95C81E00E94E0FD84E48093141300
:10567000809394120C94C55D40E050E068E28AE0AB
:105680000F94B95C0C94C55D40E050E062E18AE0A3
:105690000F94B95C0C94C55D10921B1210928F127E
:1056A000E3EFF7E084918F01882351F0082E000C7E
:1056B000990B0F94858E0F5F1F4FF8018491F4CFE3
:1056C0001092E20B0E943E6540E050E065E08AE007
:1056D0000F94B95C0C94C55D40E050E062E18AE053
:1056E0000F94B95C0C94C55D82E580931D02809196
:1056F0000B14816080930B1440E050E06BE581E275
:105700000F94B95C40E050E06CE581E20F94B95C25
:1057100040E050E060E08BE10F94B95C40E050E085
:105720006AE781E20F94B95C40E050E069E781E20A
:105730000F94B95C40E050E06DE18AE00F94B95CF1
:105740008FEF80939E0C0C94C55D40E050E06CE6BA
:105750008AE00F94B95C0C94C55D40E050E062E1D2
:105760008AE00F94B95C40E050E06BE581E20F9471
:10577000B95C40E050E06CE581E20F94B95C40E038
:1057800050E060E08BE10F94B95C40E050E06AE7E4
:1057900081E20F94B95C40E050E069E781E20F9448
:1057A000B95C80910B148E7F80930B140C94C55DB3
:1057B00010921B1210928F12E8EEF7E084918F0185
:1057C000882351F0082E000C990B0F94858E0F5FE3
:1057D0001F4FF8018491F4CF1092E20B40E050E0AB
:1057E00065E08AE00F94B95C40E050E06BE581E24F
:1057F0000F94B95C40E050E06CE581E20F94B95C35
:1058000040E050E060E08BE10F94B95C40E050E094
:105810006AE781E20F94B95C40E050E069E781E219
:105820000F94B95C80910B148E7F80930B140C94B1
:10583000C55D41E050E06BE581E20F94B95C40E06A
:1058400050E06CE581E20F94B95C41E050E060E02B
:105850008BE10F94B95C41E050E06AE781E20F947C
:10586000B95C41E050E069E781E20F94B95C1092C5
:105870009E0C0C94C55D40E050E06BE581E20F9416
:10588000B95C41E050E06CE581E20F94B95C41E025
:1058900050E060E08BE10F94B95C41E050E06AE7D2
:1058A00081E20F94B95C41E050E069E781E20F9436
:1058B000B95C81E080939E0C0C94C55D809141029F
:1058C000909142028036974041F488E793E09093AC
:1058D0004202809341020F94DD6880919E0C8F3FBD
:1058E00011F40C94C55D0F949FB30C94C55D809129
:1058F0004102909142028036974041F488E793E05C
:1059000090934202809341020F94DD68E0919E0CD7
:10591000EF3F11F40C94C55D81E080939212F0E0AA
:10592000EE0FFF1FE65AFD4E84E091E091838083E5
:105930000F94514181E48093941240E050E068E07C
:105940008AE00F94B95C80910B0C882311F040E041
:1059500001C041E061E081E00E9413EB0F94B74485
:10596000809194128E3409F479CD80E090E0A3E424
:10597000B3E480937D1290937E12A0937F12B09334
:10598000801280908A0C90908B0CA0908C0CB09020
:105990008D0C2091791230917A1240917B125091A6
:1059A0007C126091751270917612809177129091AD
:1059B0007812A8E66A2EA2E17A2E7F926F92B1E861
:1059C000CB2EB2E1DB2EE12CF12C03E413E40E9498
:1059D00058D90F94B7440F900F90809194128E3441
:1059E00009F43CCD80E090E0A0E2B1E4809379122C
:1059F00090937A12A0937B12B0937C128090860CC5
:105A00009090870CA090880CB090890CE0907D124B
:105A1000F0907E1200917F121091801260917512A9
:105A20007091761280917712909178127F926F9296
:105A300020E030E040E251E40E9458D90F94B7448E
:105A40000F900F90809194128E3409F407CD8091BD
:105A50009E0C811111C080E090E00F94321F80E015
:105A600090E0ADE9B2E48093751290937612A09322
:105A70007712B093781220C081E090E00F94321F2B
:105A800020E030E048EC51E46091B1027091B20244
:105A90008091B3029091B4020F94C7C420E030E02B
:105AA00046E552E40F94C7C4609375127093761262
:105AB0008093771290937812E0907D12F0907E128E
:105AC00000917F12109180122091791230917A12F8
:105AD00040917B1250917C126091751270917612F8
