:100000000C9498160C94C9160C94C9160C94C91625
:100010000C94C9160C94C9160C94C9160C94C916E4
:100020000C94C9160C94C9160C94C9160C94C916D4
:100030000C94C9160C94C9160C94C9160C94C916C4
:100040000C94C9160C94AEF10C94C9160C94C916F4
:100050000C94C9160C94C9160C94D5A60C94AEA495
:100060000C94C9160C94E7A20C94BEA20C94C91669
:100070000C94C9160C94C9160C94C9160C94C91684
:100080000C94C9160C94C9160C94C9160C94C91674
:100090000C94C9160C94C9160C94C9160C94C91664
:1000A0000C94C9160C94C9160C94C9160C94C91654
:1000B0000C94C9160C94C9160C94C9160C94C91644
:1000C0000C94C9160C94C9160C94C9160C9495A2DC
:1000D0000C946CA20C94C9160C94C9160C94C916F5
:1000E0000C94C9167B2B8E73D52BAC278E73B31E45
:1000F0008E73FF1E8E738E732739A11F8E738E73BE
:10010000811A7C1A8E73913A8E738E738E7372413C
:100110009B414B4B744BDC4F8E730B436A43C9437B
:100120004F469145F93AEB3A7E27F0458E73D91E3A
:10013000131B791ECE26723D5227D14A025526271F
:10014000FA26FA4A234B8E73A62BC4416236293E07
:10015000281F901A861A8E7334341321624F8E73BF
:100160008B4FB4229D4B7F2F031E89510E359A561B
:10017000FD2F0E4CED41055078212A2E2A2E502DB0
:100180007F300531F522B81FCF1F5D1F4523771A39
:100190008B1A8E738E738E73282CED233024FA1FE6
:1001A000F33CAF3C16423F4267429042B942E242C2
:1001B000F84321444A4473449C44C544ED441645E5
:1001C0003F45684505477E469C4781490B49A54800
:1001D0008E73B44F8E237424AA25282C7E2DA72D30
:1001E000E62DA84A3C4EC14E354F7F4A3337D11ACF
:1001F0002C5E332B8E738E737B5B8E73583C073B68
:1002000023327D32D6328D315032A93203338933D5
:100210005D33292A152AD13BDA27BD28A729DE29F3
:10022000A45B3A2A012B31338E738E738E738E73D7
:100230008E738E738E738E738E73723D21204A205F
:100240009120735DD15D8D4EF54E9D4B354F2E50F7
:100250004E518E73D055495627559855AB52C956B5
:100260008E730A532F3883595039493AC7598E73C0
:100270008E73D1573C58A9581659A857F856455768
:100280000B5A2E5B0E5D8E738E73A35C8E738E7312
:10029000405D8E73A121AE54D5523553FE53275481
:1002A000791ED754FD9CD59D979E739EF89D739E95
:1002B0004F9E219D459D699D109F349F589F7C9F17
:1002C000B19D8D9D2B9E0CA20FA2FEA102A208A2A1
:1002D00046A213A217A21DA221A225A22BA22FA2E1
:1002E00033A246A239A23DA241A2CAA3CFA3D4A35E
:1002F000DEA3E8A361A4F2A3FAA302A40CA416A4AB
:1003000020A42FA439A461A443A44DA457A45FA79B
:100310006CA788A795A7AFA7BCA7D6A7D8A7DAA729
:10032000DCA7E4A7084AD73B3BCE016E84BCBFFDE7
:10033000C12F3D6C74319ABD56833DDA3D00C77FB5
:1003400011BED9E4BB4C3E916BAAAABE000000804E
:100350003F05A84CCDB2D44EB93836A9020C50B9DD
:10036000918688083CA6AAAA2ABE000000803F0009
:100370000D94FC9B0D94DB0C0D943B7C0D94EE1CBA
:100380000D94259C0D94ED1C0D94667C4E414E49B8
:100390004E495459494E46CDCCCC3D0AD7233C1743
:1003A000B7D13877CC2B329595E6241FB14F0A0090
:1003B0000020410000C84200401C4620BCBE4CCA80
:1003C0001B0E5AAEC59D746364696E6F7073757849
:1003D000585B003B202020757365526166742C25A4
:1003E00064004D36303520532564002533642025C4
:1003F00063430025336420256343005075726765AD
:100400002046696C616D656E740A00537572666989
:100410006E6720310A0053757266696E6720300A74
:100420000047333400494E464F3A2042454420436A
:10043000414C4942202D200053757266696E672039
:10044000300A0047323820583020593000543000EC
:1004500054310054300054300053757266696E6731
:1004600020300A004734330047343300473431002A
:1004700047343000473334004734330047343300C7
:1004800047343100473430004D3834004D383400A3
:100490004D3834005A32204F66667365743A200036
:1004A0004F4B207365636F6E64204578747275647A
:1004B000657221005A20706F736974696F6E3A20FB
:1004C000005A20706F736974696F6E3A20004D385E
:1004D00034005A312050726F6265206F6666736512
:1004E000743A20004F4B206669727374204578740B
:1004F000727564657221200A005A20706F736974E6
:10050000696F6E3A20005A20706F736974696F6E5C
:100510003A200043616C63756C75733A2020004388
:10052000616C63756C75733A20200043616C637570
:100530006C75733A20200043616C63756C75733A77
:1005400020200036302064656772656573200A00DC
:1005500054300054300054300043616C6962726161
:1005600074696F6E205375636365737366756C0A87
:10057000005430004A756D70206F76657220736389
:100580007265773120616E64207363726577322003
:100590000A004A756D70206F76657220736372650C
:1005A0007731200A0047333400473334004733346F
:1005B0000054300047333400494E464F3A204245FC
:1005C000442043414C4942202D20004C6F61646916
:1005D0006E670A0053757266696E6720300A0053B1
:1005E000757266696E6720300A0053757266696EAF
:1005F0006720300A002533642025634300253364D7
:100600002025634300253364202563430050757221
:1006100067652046696C616D656E740A00253364F8
:10062000202563430025336420256343002533647C
:10063000202563430025336420256343002533646C
:10064000202563430025336420256343002533645C
:1006500020256343002533642025634300537572CE
:1006600066696E6720300A0053757266696E67208E
:10067000300A00543000466F756E64005375726620
:10068000696E6720300A004D333400537572666915
:100690006E6720300A004D3234004D32332025730E
:1006A000004D3234004D32332025730054686520EC
:1006B0006669727374206C61796572207072696EFC
:1006C00074656420776974682074686520257320D8
:1006D000486F74656E640A77696C6C20626520648B
:1006E0006973746F727465642062792025642E25A5
:1006F0003164253164206D6D0053757266696E67D3
:1007000020300A0053757266696E6720300A005304
:10071000757266696E6720300A005355434345532E
:10072000530A0025336420256343002533642025C4
:10073000634300253364202563430025336420256B
:10074000634300253364202563430025336420255B
:10075000634300253364202563430025336420254B
:1007600063430025336420256343004C6F61646953
:100770006E673A0A002533642025634300253364FD
:1007800020256343002533642025634300507572A0
:1007900067652046696C616D656E74200A00473696
:1007A000392041435449564154454400456E642024
:1007B00066696C65206C69737400426567696E20B8
:1007C00066696C65206C697374002F005344207057
:1007D00072696E74696E67206279746520004E6F6D
:1007E00074205344207072696E74696E67004265AC
:1007F00064204865617465640020423A0020453AEF
:1008000000543A00204500205A00205900483D5825
:10081000004649524D574152455F4E414D453A4D74
:1008200061726C696E2056313B20537072696E7430
:1008300065722F6772626C206D61736875702066D7
:100840006F722067656E36204649524D57415245BA
:100850005F55524C3A68747470733A2F2F676974FD
:100860006875622E636F6D2F4572696B5A616C6D8E
:100870002F4D61726C696E2F2050524F544F434F71
:100880004C5F56455253494F4E3A312E30204D4120
:100890004348494E455F545950453A4D656E64652D
:1008A0006C2045585452554445525F434F554E5461
:1008B0003A3220555549443A3030303030303030BB
:1008C0002D303030302D303030302D303030302D34
:1008D0003030303030303030303030300A007A5FF5
:1008E0006D696E3A2000795F6D61783A2000785F1B
:1008F0006D61783A2000785F6D696E3A2000486F2C
:1009000074656E64206F6666736574733A0050494F
:1009100044204175746F74756E652066696E6973E5
:10092000686564212050757420746865206C61735B
:1009300074204B702C204B6920616E64204B642026
:10094000636F6E7374616E74732066726F6D206175
:10095000626F766520696E746F20436F6E6669679B
:1009600075726174696F6E2E68005049442041753C
:10097000746F74756E65206661696C65642120749E
:10098000696D656F75740020403A006F6B20543AB2
:10099000006F6B20423A00504944204175746F74D7
:1009A000756E65206661696C6564212054656D70A3
:1009B0006572617475726520746F6F20686967680D
:1009C00000204B643A2000204B693A2000204B70F5
:1009D0003A200020436C61737369632050494420BE
:1009E000002054753A2000204B753A2000206D619C
:1009F000783A2000206D696E3A200020643A200089
:100A000020626961733A2000504F534954494F4E58
:100A100020484F4D453A20002200556E6B6E6F778F
:100A20006E20636F6D6D616E643A202200466F72B6
:100A30006D20322100526561647920746F204C6F03
:100A400061642F556E6C6F6164200A002564252552
:100A50000025336420256343002533642025634348
:100A600000253364256343202F2025336425634309
:100A700000253364256343202F20253364256343F9
:100A800000253364256343202F20253364256343E9
:100A90000053757266696E672030200A0043616CEE
:100AA0006962726174696F6E2053756363657373F5
:100AB00066756C0A005430004D3834205820592097
:100AC0005A20450070012C0190012701B00122013C
:100AD000C0011D01F00118011002130130020E01C6
:100AE0006002090190020401C002FF000003FA0045
:100AF0004003F5008003F000D003EB002004E60083
:100B00007004E100E004DC004005D700C005D2001D
:100B10004006CD00D006C8008007C3003008BE00E4
:100B2000F008B900C009B400B00AAF00B00BAA00C9
:100B3000D00CA500000EA000500F9B00C010960026
:100B40005012910000148C00C0158700B01782006D
:100B5000B0197D00D01B7800001E730040206E008D
:100B600090226900F024640040275F0090295A0019
:100B7000E02B5500102E500020304B001032460064
:100B8000E033410090353C001037370070383200B8
:100B9000A0392D00B03A2800A03B2300603C1E0085
:100BA000103D1900903D1400103E0F00703E0A00E9
:100BB000C03E0500003F000048797374657265739C
:100BC00069732074656D7065726174757265005427
:100BD0006865726D616C2072756E617761792070E5
:100BE000726F74656374696F6E2062792048656105
:100BF0007465725F49443A004572726F72283833E7
:100C0000293A2042656420746865726D6973746F57
:100C100072206E6F7420646574656374656400454A
:100C200072726F72283832293A20526967687420CC
:100C3000746865726D6973746F72206E6F7420646E
:100C400065746563746564004572726F722838312B
:100C5000293A204C65667420746865726D697374F6
:100C60006F72206E6F7420206465746563746564B0
:100C7000002053544F50205052494E54200A0045F2
:100C800072726F72283833293A2042656420746882
:100C900065726D6973746F72206E6F742064657411
:100CA0006563746564002053544F50205052494E80
:100CB00054200A004572726F72283832293A205245
:100CC0006967687420746865726D6973746F7220E7
:100CD0006E6F74206465746563746564002053549A
:100CE0004F50205052494E54200A004572726F7284
:100CF000283831293A204C65667420746865726D15
:100D00006973746F72206E6F7420206465746563FC
:100D10007465640000002100240027002A002D00D3
:100D20003000330001010000040107010A01000046
:100D30002200250028002B002E0031003400020183
:100D40000000050108010B0100002000230026001F
:100D500029002C002F0032000001000003010601D1
:100D60000901050505050705080808080202020231
:100D70000A0A080804040404010101010101010137
:100D80000303030303030303040707070C0C0C0C02
:100D90000C0C0C0C020202020606060606060606EB
:100DA0000B0B0B0B0B0B0B0B010210202008081078
:100DB00020401020408002010201080402010102CB
:100DC00004081020408080402010080402018004A4
:100DD00002018040201008040201080402010102FF
:100DE0000408102040800102040810204080000008
:100DF0000A0B02090C0D0E08070304010000000095
:100E000000000000000000000000000000000000E2
:100E1000000000000000000000001211100000009F
:100E200000000000000000000000000000000000C2
:100E300000000000202D20496E76616C69642065F9
:100E400078747275646572206E756D6265722021AA
:100E5000004572726F723A0067636F646520666F57
:100E6000756E640020746F2053746172742044693D
:100E700073706C61792066726F6D20526573657452
:100E800000546F6F6B2000646973706C6179206F20
:100E90006E6C696E652100646973706C6179206F96
:100EA00066666C696E65210042434E334420536987
:100EB000676D6178007374617274006563686F3A7E
:100EC0000030322D312E322E37006572726F722053
:100ED00077726974696E6720746F2066696C65004B
:100EE000205A3A0020593A0020583A00656E64733F
:100EF000746F7073206869743A20006563686F3A94
:100F000000446F6E6520736176696E672066696C58
:100F1000652E006F6B004D3239003B20472D436F2B
:100F200064652067656E657261746564206279200E
:100F300053696D706C69667933442852292056656F
:100F40007273696F6E202564003B5072696E742065
:100F500074696D653A202564202573202564202559
:100F600073202564202573003B54494D453A2025C4
:100F70006C64003B2020204275696C642074696DAC
:100F8000653A202564202573202564202573003BC5
:100F9000202020506C6173746963207765696768ED
:100FA000743A2025642E256467003B46696C616DA8
:100FB000656E7420757365643A2025642E25646D12
:100FC0002025642E256467003B46696C616D656E63
:100FD0007420757365643A20256C752E256C756DCB
:100FE000005341564544205052494E540043616ECF
:100FF0006E6F7420656E74657220737562646972B9
:101000003A200057726974696E6720746F206669B0
:101010006C653A20002E006F70656E206661696C09
:1010200065642C2046696C653A20002E006F70655F
:101030006E206661696C65642C2046696C653A2097
:101040000046696C652073656C6563746564002097
:1010500053697A653A200046696C65206F70656E49
:1010600065643A20002E006F70656E206661696CC1
:1010700065642C2046696C653A20004E6F772066C7
:10108000726573682066696C653A20004E6F772040
:10109000646F696E672066696C653A200022207073
:1010A0006F73002220706172656E743A220053558E
:1010B00042524F5554494E452043414C4C20746197
:1010C000726765743A2200747279696E6720746F72
:1010D0002063616C6C207375622D67636F6465209B
:1010E00066696C6573207769746820746F6F206D12
:1010F000616E79206C6576656C732E204D415820A9
:101100006C6576656C2069733A0045787472756415
:1011100065722072656C65617365642061637469D2
:1011200076653A20005A205349474D4120486F6D5B
:1011300065640045787472756465722061637469D2
:1011400076653A2000000000000080934300000014
:10115000000000A0400000A0400000004020004D22
:101160006F766520746F3A2000CDAC034400809305
:101170004300005243FF01FF20636F6C64206578D9
:1011800074727573696F6E2070726576656E7465C2
:1011900064006563686F3A002E0044656C6574698D
:1011A0006F6E206661696C65642C2046696C653AD7
:1011B000200046696C652064656C657465643A005E
:1011C0002E006F70656E206661696C65642C204628
:1011D000696C653A20004732382058302059300079
:1011E0002569206D696E2C20256920736563000ACE
:1011F0000A005374616E64617264204465766961AB
:1012000074696F6E3A20000A004D65616E3A2000E5
:101210000A002020207A3A200000793A2000783A0B
:1012200020003F537065636966696564206E756D63
:10123000626572206F66206C65677320696E206D31
:101240006F76656D656E74206E6F7420706C61755D
:101250007361626C652E0A003F537065636966694D
:101260006564205920706F736974696F6E206F75A3
:1012700074206F662072616E67652E0A003F53709E
:1012800065636966696564205820706F7369746965
:101290006F6E206F7574206F662072616E67652EA9
:1012A0000A003F5370656369666965642073616D08
:1012B000706C652073697A65206E6F7420706C6144
:1012C000757361626C652E0A0046756C6C207375CF
:1012D00070706F72742061743A20687474703A2F61
:1012E0002F33647072696E74626F6172642E636F03
:1012F0006D2F666F72756D2E7068700A004D3438F0
:10130000205A2D50726F626520526570656174615C
:1013100062696C69747920746573742E202020567C
:10132000657273696F6E20322E30300A003F566549
:1013300072626F7365204C6576656C206E6F7420E9
:10134000706C61757361626C652E0A002A2A2A200E
:1013500047656E6965204261642042797465202A80
:101360002A2A202D2D2D3E203078002056616C75C4
:10137000653A200020496E6465783A20002A2A2ABE
:101380002047656E6965205265706F7274204F62E8
:101390006A656374202A2A2A204F626A6563743A58
:1013A00020002A2A2A2047656E696520436F6E6EE9
:1013B0006563746564202F2053796E6321202A2A87
:1013C0002A002056616C75653A200020496E6465DC
:1013D000783A20002A2A2A2047656E6965205265DE
:1013E000706F7274204576656E74202A2A2A204F09
:1013F000626A6563743A2000204C656E6774683ACF
:1014000020002A2A2A2047656E6965205265636597
:1014100069766564204D6167696320446F75626C0D
:1014200065204279746573202A2A2A20496E6465F2
:10143000783A2000204C656E6774683A20002A2AAA
:101440002A2047656E696520526563656976656423
:10145000204D61676963204279746573202A2A2AC6
:1014600020496E6465783A20002A2A2A2047656E52
:101470006965204E414B205265636F766572792015
:10148000212121202A2A2A002A2A2A2047656E693A
:101490006520446973636F6E6E656374656420666E
:1014A000726F6D20446F4576656E747321202A2A11
:1014B0002A002A2A2A2047656E696520546F6F6BBF
:1014C00020746F6F206C6F6E6720746F2072652DB3
:1014D000656E74657220446F4576656E7473282955
:1014E0002C207265647563652064656C6179732076
:1014F000696E20636F64652C2073656C662D707255
:101500006F74656374696F6E20656E61626C65648B
:101510002E202A2A2A002A2A2A2047656E69652059
:10152000446973636F6E6E65637465642066726F81
:101530006D204765744E6578744279746521202A60
:101540002A2A002A2A2A2047656E696520456E618D
:10155000626C65204174746163684576656E744899
:10156000616E646C657220212121202A2A2A0024C0
:10157000F4D43050C38E20C2A24017828B70111257
:101580007A910D816CD90AA861E108C75866076194
:101590005143061E4B5D05C145A7041A41110409BC
:1015A0003D9803713931034036DB0265339102D433
:1015B000305402802E1D02632CEE01752AC501B045
:1015C00028A001102781018F2564012B244B01E005
:1015D000223401AC211F018D200D01801FFC0084ED
:1015E0001EED00971DDF00B81CD200E61BC60020D0
:1015F0001BBC00641AB200B219A8000A19A0006A44
:10160000189900D117910040178B00B5168400314E
:10161000167E00B31579003A157300C7146F005891
:10162000146A00EE1366008813630025135E00C77A
:10163000125B006C12570015125400C1115100705A
:10164000114F0021114B00D61049008D1047004664
:1016500010440002104200C00F4000800F3E0042C4
:101660000F3C00060F3B00CB0E3800930E37005C9A
:101670000E3500270E3400F30D3200C10D310090FD
:101680000D3000600D2E00320D2D00050D2C00D9FF
:101690000C2B00AE0C2900850C29005C0C270035B2
:1016A0000C27000E0C2600E80B2400C40B2400A01D
:1016B0000B23007D0B23005A0B2100390B2100184E
:1016C0000B2000F80A1F00D90A1E00BB0A1E009D4D
:1016D0000A1D00800A1D00630A1C00470A1B002C1B
:1016E0000A1B00110A1A00F7091A00DD091900C4C3
:1016F000091900AB091900920917007B091800634A
:101700000917004C09160036091600200916000AB0
:10171000091500F5081500E0081400CC081400B8FD
:10172000081400A4081400900813007D0812006B30
:10173000081300580812004608120034081100234C
:101740000811001208110001081100F0071000E054
:10175000071000D0071000C0071000B0070F00A14D
:1017600007100091070E0083070F0074070F006534
:10177000070E0057070E0049070E003B070D002E0D
:10178000070E0020070D0013070D0006070D00F9D6
:10179000060C00ED060D00E0060C00D4060C00C897
:1017A000060C00BC060C00B0060C00A4060B009949
:1017B000060C008D060B0082060B0077060B006CF2
:1017C000060B0061060A0057060B004C060A004291
:1017D000060A0038060A002E060A0024060A001A25
:1017E000060A001006090007060A00FD050900F4B4
:1017F000050900EB050900E2050900D9050900D03B
:10180000050900C7050900BE050900B5050800ADBA
:10181000050800A50509009C050800940508008C32
:10182000050800840508007C050800740508006CA4
:10183000050700650508005D050700560508004E10
:101840000507004705070040050800380507003177
:101850000507002A050700230507001C05060016DA
:101860000507000F0507000805060002050700FB35
:10187000040600F5040700EE040600E8040600E292
:10188000040700DB040600D5040600CF040600C9E7
:10189000040600C3040600BD040600B7040600B138
:1018A000040500AC040600A6040600A00405009B85
:1018B00004060095040500900406008A04050085CE
:1018C000040500800406007A040500750405007014
:1018D0000405006B04050066040500610405005C56
:1018E00004050057040500520405004D0405004896
:1018F000040500430405003E0404003A04050035D5
:10190000040500300404002C04050027040400230F
:101910000405001E0404001A040400160405001146
:101920000404000D0404000904050004040400007C
:10193000040400FC030400F8030400F4030400F0B2
:10194000030400EC030400E8030400E4030400E0E3
:10195000030400DC030400D8030400D4030400D013
:10196000030400CC030400C8030300C503030024E0
:10197000F404D9201BC40C5C0E9804C4095F0265F2
:10198000077101F405F900FB04B30048048700C1A6
:101990000369005803550003034500BE023A008462
:1019A00002310053022A002902250004022000E42B
:1019B000011C00C8011900AF011700980114008430
:1019C000011300710110006101100051010E00436C
:1019D000010D0036010B002B010B0020010B00153F
:1019E0000109000C01090003010800FB000800F3D5
:1019F000000800EB000700E4000600DE000600D847
:101A0000000600D2000600CC000500C7000500C299
:101A1000000500BD000400B9000400B5000400B1D9
:101A2000000400AD000400A9000400A5000300A20A
:101A30000003009F0004009B000300980003009532
:101A400000020093000300900003008D0002008B51
:101A50000003008800020086000200840003008169
:101A60000002007F0002007D0002007B000200797E
:101A7000000200770001007600020074000200728C
:101A8000000100710002006F0002006D0001006C97
:101A90000002006A000100690002006700010066A0
:101AA00000010065000100640002006200010061A5
:101AB000000100600001005F0002005D0001005CA9
:101AC0000001005B0001005A0001005900010058AC
:101AD00000010057000100560001005500010054AC
:101AE00000010053000000530001005200010051AA
:101AF000000100500001004F0001004E0000004EA8
:101B00000001004D0001004C0001004B0000004BA3
:101B10000001004A0001004900010048000000489F
:101B2000000100470001004600000046000100459A
:101B30000000004500010044000100430000004394
:101B4000000100420000004200010041000000418D
:101B5000000100400001003F0000003F0001003E86
:101B60000000003E0001003D0000003D0001003C7F
:101B70000000003C0000003C0001003B0000003B76
:101B80000001003A0000003A00010039000000396D
:101B90000001003800000038000000380001003764
:101BA000000000370001003600000036000000365B
:101BB0000001003500000035000000350001003450
:101BC0000000003400000034000100330000003346
:101BD000000000330001003200000032000000323B
:101BE0000001003100000031000000310001003030
:101BF00000000030000000300001002F0000002F26
:101C00000000002F0000002F0001002E0000002E19
:101C10000000002E0001002D0000002D0000002D0E
:101C20000000002D0001002C0000002C0000002C02
:101C30000000002C0001002B0000002B0000002BF6
:101C40000000002B0001002A0000002A0000002AEA
:101C50000000002A000100290000002900000029DE
:101C600000000029000000290001002800000028D1
:101C700000000028000000280000002800010027C4
:101C800000000027000000270000002700000027B8
:101C900000010026000000260000002600000026AB
:101CA000000000260001002500000025000000259E
:101CB0000000002500000025000000250001002490
:101CC0000000002400000024000000240000002484
:101CD0000001002300000023000000230000002377
:101CE0000000002300000023000000230001002268
:101CF000000000220000002200000022000000225C
:101D0000000000220001002100000021000000214D
:101D1000000000210000002100000021000000213F
:101D20000001002000000020000000200000002032
:101D30000000002000000020000000200000002023
:101D40000001001F0000001F0000001F0000001F16
:101D50000000001F0000001F0000001F0001001E07
:101D60000000001E0000001E0000001E00000053C6
:101D700074617274696E67205A2043616C69627283
:101D80006174696F6E2057697A617264000A00207D
:101D9000616E7469686F726172690A3A2000206826
:101DA0006F726172690A20002F3800766F6C74655B
:101DB00073200020566F6C74657320636172676FC7
:101DC0006C20333A200020616E7469686F72617212
:101DD000690A3A200020686F726172690A20002F38
:101DE0003800766F6C746573200020566F6C7465D4
:101DF0007320636172676F6C20323A20000A002002
:101E0000647A333A200020647A323A200054310058
:101E10005430005430005430000056756974656EBB
:101E200073333A2020004170726F78333A202000DB
:101E3000566F6C746573333A2020000056756974D0
:101E4000656E73323A2020004170726F78323A200A
:101E50002000566F6C746573323A20200056616C16
:101E60006F7220645A333A20200056616C6F7220E2
:101E7000645A323A2020004E6577206F666673659B
:101E8000742076657273696F6E3A20007A335F3121
:101E90003A20007A325F313A20005A7363726F6CD5
:101EA0006C5F313A20007A335F303A20007A325F3B
:101EB000303A20005A7363726F6C6C5F303A2000C6
:101EC000706C616E654E6F726D616C5F312E7A3A27
:101ED0002000706C616E654E6F726D616C5F312EAB
:101EE000793A2000706C616E654E6F726D616C5F47
:101EF000312E783A2000706C616E654E6F726D61A4
:101F00006C5F302E7A3A2000706C616E654E6F7295
:101F10006D616C5F302E793A2000706C616E654E99
:101F20006F726D616C5F302E783A20005A76616C6A
:101F3000756520616674657220686F6D653A00484A
:101F40006F6D6520582F59206265666F7265205A43
:101F5000007C3C3E5E2B3D3F2F5B5D3B2C2A225C90
:101F6000002042403A0020403A00202F003A002052
:101F70005400202F0020423A00202F006F6B205485
:101F80003A004578747275646572204865617465BD
:101F9000640020573A0020453A00543A00205A3A4B
:101FA0000020593A0020436F756E7420583A200083
:101FB00020453A00205A3A0020593A00583A005336
:101FC00054415449535449435320524553455400B6
:101FD0002C2073617665645F466C61675F66616E35
:101FE0006C617965725F6D6972726F723A20002C54
:101FF0002073617665645F66656564726174653AD5
:1020000020002C2073617665645F66616E6C617977
:1020100065723A20002C2073617665645F74656D8B
:10202000706265643A20002C2073617665645F7489
:10203000656D70303A20002C2073617665645F74A2
:10204000656D70313A20002C2073617665645F669F
:10205000696C65706F736974696F6E3A20002C202B
:1020600073617665645F655F706F736974696F6EC5
:102070003A20002C2073617665645F746F6F6C5F2B
:102080006163746976653A20002C2073617665641B
:102090005F7A5F706F736974696F6E3A20002C20ED
:1020A00073617665645F795F706F736974696F6E71
:1020B0003A20002C2073617665645F785F706F73DF
:1020C0006974696F6E3A2000534156452050524959
:1020D0004E54204C4F473A006563686F3A00507287
:1020E000696E74207265636F766572792075700011
:1020F0004E6F74207072696E74207265636F7665BE
:10210000727920757000535543434553530056610F
:102110006C756573206F7574206F662072616E67D1
:10212000650056616C756573206F7574206F66204D
:1021300072616E67650056616C756573206F7574AA
:10214000206F662072616E67650056616C756573FD
:10215000206F7574206F662072616E67650053652D
:102160007474696E67732053746F72656400204DD8
:10217000696E75746573203A0020204C6173742079
:102180007072696E742074696D652D3E20486F759C
:102190007273203A004C617374207072696E7420FF
:1021A0006475726174696F6E002C20546869726482
:1021B000204944206E756D62657220002C205365A5
:1021C000636F6E64204944206E756D6265723A20BB
:1021D0000020204669727374204944206E756D6238
:1021E00065723A2000554920496E666F726D6174C0
:1021F000696F6E2053657269616C204E756D626502
:10220000723A00206D2C204531207072696E742066
:1022100064697374616E63653A2000206B6D2C20D5
:102220004530207072696E742064697374616E63E6
:10223000653A2000206B6D2C2059207072696E74F5
:102240002064697374616E63653A2000206B6D2CA5
:10225000205831207072696E742064697374616EE5
:1022600063653A200020432C0A20583020707269A0
:102270006E742064697374616E63653A2000204354
:102280002C206D61782074656D7020423A2000200A
:10229000432C206D61782074656D7020523A2000C7
:1022A0002C206D61782074656D70204C3A20006898
:1022B0002C207072696E74732066696E697368652C
:1022C000643A20002C207072696E74696E67207405
:1022D000696D653A200020207072696E74733A202F
:1022E0000053544154533A0020432C20525F505223
:1022F000494E543A200020432C20525F4245443A34
:10230000200020432C20525F52454D4F56453A2025
:10231000002020525F494E534552543A20005465E4
:102320006D70202843293A0020432C204C5F5052E6
:10233000494E543A200020432C204C5F4245443AF9
:10234000200020432C204C5F52454D4F56453A20EB
:102350000020204C5F494E534552543A20005465AA
:102360006D70202843293A002056285665727369FB
:102370006F6E2920002052284265642072696768C8
:102380007420736372657729200020204D35333126
:10239000204C28426564206C656674207363726506
:1023A00077292000426564204F6666736574732048
:1023B000286D6D293A002050285A2070726F62658E
:1023C0002900205A20002059200020204D3533308C
:1023D000205820004F66667365747320286D6D2940
:1023E0003A00204400204900202D204D3330312078
:1023F00052494748542050002044002049002020E2
:102400004D333031204C4546542050005049442033
:1024100073657474696E67733A00205A002059001E
:1024200020204D323036205800486F6D65206F6691
:102430006673657420286D6D293A00204500205A86
:102440000020580020420020540020204D3230351A
:10245000205300416476616E636564207661726921
:1024600061626C65733A20533D4D696E2066656507
:10247000647261746520286D6D2F73292C20543D82
:102480004D696E2074726176656C20666565647254
:1024900061746520286D6D2F73292C20423D6D6974
:1024A0006E696D756D207365676D656E74207469F6
:1024B0006D6520286D73292C20583D6D6178696DFC
:1024C000756D205859206A65726B20286D6D2F73C9
:1024D000292C20205A3D6D6178696D756D205A2038
:1024E0006A65726B20286D6D2F73292C2020453D65
:1024F0006D6178696D756D2045206A65726B202865
:102500006D6D2F73290020540020204D323034206F
:102510005300416363656C65726174696F6E3A2044
:10252000533D616363656C65726174696F6E2C20E5
:10253000543D7265747261637420616363656C6598
:10254000726174696F6E00204500205A00205900A6
:1025500020204D3230312058004D6178696D756D05
:1025600020416363656C65726174696F6E20286DCC
:102570006D2F7332293A00204500205A002059005F
:1025800020204D3230332058004D6178696D756DD3
:102590002066656564726174657320286D6D2F73A4
:1025A000293A00204500205A0020590020204D39AA
:1025B0003220580053746570732070657220756EF8
:1025C00069743A002200656E717565696E67202234
:1025D000002200656E717565696E672022002520F6
:1025E00033642025250025642068202564206D00A3
:1025F00025203364202525002532642025634300EF
:10260000253364202563430025336420256343007C
:10261000526561647920746F204C6F61642F556E30
:102620006C6F6164200A0025642525002533642031
:102630002563430025336420256343002053544F12
:1026400050205052494E54200A004732382058300A
:10265000205930004D333500526573756D65206427
:1026600065746563746564200A0047373000A152C1
:102670004553554D4521200A00A150415553452150
:10268000200A002533642025634300253364202578
:1026900063430025336420256343002533642025EC
:1026A00063430025336420256343002533642025DC
:1026B00063430025336420256343002533642025CC
:1026C00063430025336420256343005052494E5430
:1026D0002053455454494E4753200A004D38340086
:1026E0005374617274696E6720582043616C69622B
:1026F000726174696F6E2057697A617264004D3837
:1027000034005374617274696E6720592043616CA0
:102710006962726174696F6E2057697A61726400D0
:10272000535543434553530056616C756573206F91
:102730007574206F662072616E67650056616C75F6
:102740006573206F7574206F662072616E67650017
:1027500056616C756573206F7574206F66207261A9
:102760006E67650056616C756573206F7574206FB8
:10277000662072616E676500486F74656E64206FD5
:102780006666736574733A0054696D6520696E619D
:102790006374697665005075726765206469737447
:1027A000616E6365005A204F6666736574206F6BB7
:1027B000005A204F6666736574203A20007A5F6D78
:1027C00061783A20007A5F6D696E3A20005A204F96
:1027D000666673657400504F534954494F4E204804
:1027E0004F4D453A20007A70726F62653A2000536F
:1027F000442063617264206F6B006F70656E526F6E
:102800006F74206661696C656400766F6C756D65C8
:102810002E696E6974206661696C65640045727228
:102820006F723A00534420696E6974206661696C66
:10283000006563686F3A004D3234004D3233202515
:1028400073006175746F25692E67002E2E2E20543B
:10285000696D656F757421002A2A2A2047656E69A3
:10286000652057726974654F626A656374202A2A0D
:102870002A202D2D2D3E002E2E2E204E414B202184
:10288000002A2A2A2047656E696520577269746597
:102890004F626A656374202A2A2A202D2D2D3E005E
:1028A0002E2E2E2041434B2021002A2A2A20476524
:1028B0006E69652057726974654F626A656374203A
:1028C0002A2A2A202D2D2D3E002564206974656D4D
:1028D00073002534643A252E326468202F20256445
:1028E000670000496E7374616C6C20256420257349
:1028F000206F6E2074686520257320686F74656E84
:10290000640043616C63756C75733A202000436109
:102910006C63756C75733A20200043616C63756C51
:1029200075733A202000496E7374616C6C202564C5
:10293000202573206F6E2074686520257320686FD2
:1029400074656E6400436F6F6C696E6720446F77C7
:102950006E20486561746572005072696E746572AC
:102960002068616C7465642E206B696C6C2829206A
:1029700063616C6C656421004572726F723A004449
:1029800075616C204D6F6465204F4E004475616C1D
:10299000204D6972726F72204D6F6465204F4E003A
:1029A0004475616C204D6F6465204F4646004D387C
:1029B0003420582059205A2045004D3130370054DA
:1029C00030004D31303700473932204530205A3001
:1029D00020522564004E6577206C61796572206411
:1029E00065746563746564005A20686F7070696E01
:1029F0006720646574656374656400256920686F89
:102A0000757273202569206D696E75746573004455
:102A10006F6E65207072696E74696E672066696C8E
:102A200065004D33330070617573652064657465AE
:102A300063746564200A00473639005072696E7409
:102A400065722073746F707065642064756520749E
:102A50006F206572726F72732E20466978207468D9
:102A600065206572726F7220616E642075736520D7
:102A70004D39393920746F20726573746172742E08
:102A8000202854656D706572617475726520697374
:102A90002072657365742E205365742069742061FB
:102AA000667465722072657374617274696E6729E9
:102AB000006F6B004E6F204C696E65204E756D6225
:102AC0006572207769746820636865636B73756DE0
:102AD0002C204C617374204C696E653A20004E6F57
:102AE00020436865636B73756D2077697468206C2B
:102AF000696E65206E756D6265722C204C61737411
:102B0000204C696E653A2000636865636B73756D70
:102B1000206D69736D617463682C204C617374203F
:102B20004C696E653A20004C696E65204E756D6289
:102B30006572206973206E6F74204C617374204C31
:102B4000696E65204E756D6265722B312C204C616B
:102B50007374204C696E653A20004D31313000CDE0
:102B6000AC03440080934300005243000000000087
:102B7000000000000000000A00207A3A20002079BE
:102B80003A200020783A200042656400457874724B
:102B9000756465722072656C65617365642061633C
:102BA000746976653A20005A205349474D412048C0
:102BB0006F6D656400457874727564657220616339
:102BC000746976653A2000504944204175746F74E9
:102BD000756E652066696E69736865642100504989
:102BE00044204175746F74756E65206661696C650B
:102BF00064212074696D656F75740020403A006F20
:102C00006B20543A006F6B20423A005049442041F7
:102C100075746F74756E65206661696C65642120DA
:102C200054656D706572617475726520746F6F2084
:102C30006869676800204B643A2000204B693A209D
:102C400000204B703A200020436C6173736963204D
:102C500050494420002054753A2000204B753A20FA
:102C600000206D61783A2000206D696E3A200020C6
:102C7000643A200020626961733A200053746F72D5
:102C800065642073657474696E677320726574720D
:102C900069657665640048617264636F6465642089
:102CA00044656661756C742053657474696E6773EE
:102CB000204C6F616465640048617264636F646591
:102CC000642043616C696220616E64205049442035
:102CD00044656661756C742053657474696E6773BE
:102CE000204C6F6164656400526573656E643A20C0
:102CF000006F6B000A00205A3A200020593A200049
:102D000020583A200042656400627566666572204C
:102D10006F75743A2000427566666572313A20001C
:102D200043617264204E616D653A2000C001B801B4
:102D300011241FBECFEFD1E2DEBFCDBF00E00CBF3C
:102D400017E0A0E0B2E0E4E8F8E803E00BBF02C05F
:102D500007900D92AC38B107D9F729E1ACE8B7E09C
:102D600001C01D92A43EB207E1F716E1C7E9D6E122
:102D700000E006C021970109802FFE010F9491C148
:102D8000C639D10780E00807A9F70F94D8920D94AF
:102D900031C40C9400002F923F924F925F926F9239
:102DA0007F928F929F92AF92BF92CF92DF92EF92DB
:102DB000FF920F931F93CF93DF93CDB7DEB7C3532B
:102DC000D1400FB6F894DEBF0FBECDBF2DB73EB7D2
:102DD000CE5CDE4F39832883C253D1409091551287
:102DE000992391F08091531236E0839FF0011124D2
:102DF000ED50FE4EF080018112818F5F8F708093C5
:102E000053129150909355128091CE0781110DC0AD
:102E10000E94A2A46093CA077093CB078093CC074B
:102E20009093CD0781E08093CE078091C2078111F6
:102E30000DC00E94A2A46093BE077093BF07809349
:102E4000C0079093C10781E08093C20747E0F41266
:102E50000C948E73013211F00C949D5E80913F0FA3
:102E600081110C940B619091400F91110C940B61A6
:102E70009091C719992309F42CC38091CB19823002
:102E800008F427C3173409F489C1B0F41B32E1F107
:102E900040F4173109F4ADC0183109F4D1C00C94D5
:102EA0008E73103309F47EC0153309F4D8C21F3273
:102EB00011F00C948E734FC0103809F4E4C0D0F4B4
:102EC0001E3509F49AC21F3511F00C948E7314E468
:102ED0001093181840E050E06BE084E10F942D50FF
:102EE00040E050E065E18AE00F942D5010938B088C
:102EF0000C948E73123809F424C108F4F3C01B3A01
:102F000009F4F9C10C948E730E94A2A40091BE072B
:102F10001091BF072091C0073091C107601771075A
:102F20008207930710F40C948E730E94A2A4DC0114
:102F3000CB0188539F4FAF4FBF4F8093BE079093F5
:102F4000BF07A093C007B093C1078EEF9FEF0F9408
:102F5000CBA50C948E730E94A2A40091BE07109181
:102F6000BF072091C0073091C10760177107820722
:102F7000930710F40C948E730E94A2A4DC01CB0181
:102F800088539F4FAF4FBF4F8093BE079093BF07AB
:102F9000A093C007B093C1078FEF9FEF0F94CBA50D
:102FA0000C948E730E94A2A40091BE071091BF07DB
:102FB0002091C0073091C1076017710782079307FE
:102FC00010F40C948E730E94A2A4DC01CB018853F0
:102FD0009F4FAF4FBF4F8093BE079093BF07A09303
:102FE000C007B093C10780E090E00F94CBA50C948C
:102FF0008E730E94A2A40091BE071091BF0720917A
:10300000C0073091C107601771078207930710F45A
:103010000C948E730E94A2A4DC01CB0188539F4FB5
:10302000AF4FBF4F8093BE079093BF07A093C007D9
:10303000B093C10781E090E00F94CBA50C948E7300
:103040000E94A2A40091BE071091BF072091C00763
:103050003091C1076017710782079307A0F00E94A3
:10306000A2A4DC01CB0188539F4FAF4FBF4F809389
:10307000BE079093BF07A093C007B093C10782E03B
:1030800090E00F94CBA50E94A2A40091BE071091DE
:10309000BF072091C0073091C107601771078207F1
:1030A000930710F40C948E730E94A2A4DC01CB0150
:1030B00088539F4FAF4FBF4F8093BE079093BF077A
:1030C000A093C007B093C1078DEF9FEF90931A189C
:1030D0008093191840E050E06AE08AE00F942D5088
:1030E0000C948E730E94A2A40091BE071091BF079A
:1030F0002091C0073091C1076017710782079307BD
:1031000010F40C948E730E94A2A4DC01CB018853AE
:103110009F4FAF4FBF4F8093BE079093BF07A093C1
:10312000C007B093C10783E090E090931A18809392
:10313000191840E050E06AE08AE00F942D500C949A
:103140008E730E94A2A40091BE071091BF07209128
:10315000C0073091C107601771078207930710F409
:103160000C948E730E94A2A4DC01CB0188539F4F64
:10317000AF4FBF4F8093BE079093BF07A093C00788
:10318000B093C10710921A181092191840E050E03D
:103190006AE08AE00F942D500C948E730E94A2A4D2
:1031A0000091BE071091BF072091C0073091C10761
:1031B000601771078207930710F40C948E730E94B6
:1031C000A2A4DC01CB0188539F4FAF4FBF4F809328
:1031D000BE079093BF07A093C007B093C10740E01C
:1031E00050E068E08AE00F942D5081E480938B08D2
:1031F00041E061E081E00E9495CE10928B080E9430
:103200008DF10F9473A1109119188091CB19823010
:1032100011F540E050E061E18AE00F942D5080E527
:1032200080938B080091C819010F0093C819002ED4
:10323000000C110B20E030E0A901CA01B9010F9484
:10324000BCA640E050E069E18AE00F942D50109256
:103250008B080C948E73833029F540E050E061E1D7
:103260008AE00F942D5080E580938B080091C91956
:10327000010F0093C919002E000C110B20E030E063
:103280004CE553EC60E070E088E393EC0F94BCA64F
:1032900040E050E069E18AE00F942D5010928B08D5
:1032A0000C948E73843011F00C948E7340E050E0D7
:1032B00061E18AE00F942D5080E580938B080091A6
:1032C000CA19010F0093CA19002E000C110B20E03F
:1032D00030E04CE553EC60E070E080E493E40F9460
:1032E000BCA640E050E069E18AE00F942D501092B6
:1032F0008B080C948E7310928B088091C8194091A2
:10330000C919042F081B4091CA19142F181B602FCC
:10331000002E000C770B880B990B0F94A6B62DECA2
:103320003CEC4CEC5DEB0F9496B16093BC18709341
:10333000BD188093BE189093BF18612F012E000C0A
:10334000770B880B990B0F94A6B62DEC3CEC4CEC4C
:103350005DEB0F9496B16093B8187093B918809391
:10336000BA189093BB180023A1F040E050E06FE141
:103370008AE00F942D5007FF07C0202F3327219597
:103380000CF4309508E0020F402F000F550B64E05D
:1033900015C01123B9F040E050E060E28AE00F94DC
:1033A0002D5017FF07C0812F992781950CF4909518
:1033B00018E0180F412F110F550B65E08BE10F94AA
:1033C0002D5011C014E41093181840E050E06BE049
:1033D00084E10F942D5040E050E065E18AE00F94C5
:1033E0002D5010938B088FE790E09093B71880933F
:1033F000B6180F94C3230C948E734091CA19809110
:10340000C819142F181BC1F040E050E060E28AE0B8
:103410000F942D5017FF07C0A12FBB27A1950CF4C7
:10342000B09518E01A0F412F110F550B65E08BE195
:103430000F942D500C948E7314E41093181840E0E0
:1034400050E06BE084E10F942D5040E050E065E1E6
:103450008AE00F942D5010938B080C948E738091FA
:103460001818843411F00C948E731092CB191092AA
:10347000C71910928B081092CF0A1092CE0A1092A0
:10348000D50A1092D40A1092D70A1092D60A109236
:10349000EF0A10927C08E4E0F7E084918F01882322
:1034A00051F0082E000C990B0F9434510F5F1F4FF1
:1034B000F8018491F4CF10926D190F94A52740E084
:1034C00050E065E08AE00F942D50109218180C948B
:1034D0008E73412F50E0403E510510F00C948E73D6
:1034E000FA018827EE58FF4F8F4F0D9491C181E06C
:1034F000809316080C948E7381E0809315080C94C9
:103500008E7381E0809314080C948E7381E0809315
:1035100013080C948E7381E0809312080C948E73C0
:103520000E94A2A40091BE071091BF072091C0077E
:103530003091C107601771078207930710F40C944C
:103540008E730E9474B8009721F481E0809317086D
:1035500011C00197A1F481E08093170840E050E08A
:1035600067E381E20F942D5040E050E061E08BE191
:103570000F942D508091C10A81508093C10A0E94FE
:10358000A2A4DC01CB0188539F4FAF4FBF4F809364
:10359000BE079093BF07A093C007B093C1070C94D8
:1035A0008E730E94A2A40091BE071091BF072091C4
:1035B000C0073091C107601771078207930710F4A5
:1035C0000C948E731092EF0A10927C08E9EFF6E0EB
:1035D00084918F01882351F0082E000C990B0F94D1
:1035E00034510F5F1F4FF8018491F4CF10926D1981
:1035F00081E00F94A52740E050E065E08AE00F9459
:103600002D500E94A2A4DC01CB0188539F4FAF4FE5
:10361000BF4F8093BE079093BF07A093C007B0939E
:10362000C1070C948E730E94A2A40091BE07109152
:10363000BF072091C0073091C1076017710782074B
:10364000930708F4CEC28091410F882309F4C9C2C0
:1036500041E061E082E49FE00E9409AF8FEF9FEFBD
:103660009093300F80932F0FE12CF12C0EED1EE084
:103670009E012F5F3F4F590188248A94982C222461
:103680002394312C52EEC52E53E0D52E4091E011FB
:103690005091E1116091E2117091E31180913B1121
:1036A00090913C11A0913D11B0913E118417950766
:1036B000A607B70708F0C8C0D801E2E31D92EA9553
:1036C000E9F725E1422E512C8091DE0E8D3429F44C
:1036D000E114F10409F07FC05FC04091E011509106
:1036E000E1116091E2117091E31180913B11909191
:1036F0003C11A0913D11B0913E1184179507A6078A
:10370000B70730F79EED692E9EE0792E80913B1130
:1037100090913C11A0913D11B0913E114091E0116A
:103720005091E1116091E2117091E31184179507B6
:10373000A607B70788F48093E8119093E911A09346
:10374000EA11B093EB1183E391E10F94CC0ED30116
:103750008D933D018A3029F4B1E04B1A510829F4C8
:10376000B7CFAF50BF40C1F3D1CF4091E0115091DE
:10377000E1116091E2117091E31180913B11909100
:103780003C11A0913D11B0913E1184179507A607F9
:10379000B70708F499CF9CCF9A828982BF92AF92E3
:1037A000AAE1BFE0BF93AF931F930F930F947FB62F
:1037B00089819A810F900F900F900F900F900F902A
:1037C000019629F03092300F20922F0F04C01092F2
:1037D000300F10922F0F9A828982BF92AF92DF92A0
:1037E000CF921F930F930F947FB689819A810F9088
:1037F0000F900F900F900F900F90059711F40C946D
:10380000EF609A828982BF92AF92DF92CF921F932C
:103810000F930F947FB689819A810F900F900F902C
:103820000F900F900F90069711F40C94EF602EE01C
:10383000E216F10409F486C13FEFE31AF30A4FE000
:10384000E416F1040CF422CF1092E8111092E91161
:103850001092EA111092EB1140E050E0BA0183E3BC
:1038600091E10F949E0880912F0F9091300F892B3A
:1038700049F40CE310E0BEEDEB2EBEE0FB2E82E33C
:10388000D82E98C00AEF10E05EEDE52E5EE0F52E32
:1038900062E3362E44244A94542CAE014F5F5F4FAE
:1038A0006A01E3EDAE2EE3E0BE2E4091E0115091AF
:1038B000E1116091E2117091E31180913B119091BF
:1038C0003C11A0913D11B0913E1184179507A607B8
:1038D000B70708F03FC0AEED8A2EAEE09A2ED701B2
:1038E000E32D1D92EA95E9F70E943BB6019621F47B
:1038F00080E00E941EB526C15A824982DF92CF9293
:10390000F3ED6F2EF3E07F2EBF92AF92FF92EF9216
:103910000F947FB689819A810F900F900F900F902E
:103920000F900F90019659F18FEF9FEF9A83898343
:10393000DF92CF927F926F929F928F920F947FB679
:1039400089819A810F900F900F900F900F900F9098
:10395000892B71F680E00E941EB5C090CB02D090FA
:10396000CC02E090CD02F090CE0220E030E0A90140
:10397000C701B6010F9404C0181694F13CC0015061
:10398000110909F092CFE6CFD701ED2D1D92EA95EE
:10399000E9F70E943BB6019609F4AACF6EED7EE0EE
:1039A0008DE194E00F940EB6892B09F4A1CF01505C
:1039B000110981F24091E0115091E1116091E21101
:1039C0007091E31180913B1190913C11A0913D11B8
:1039D000B0913E1184179507A607B707A8F2BACF92
:1039E0002DEC3CEC4CE45DE3C701B6010F9404C040
:1039F00018165CF0A7C02DEC3CEC4CE45DEBC70165
:103A0000B6010F94A0B687FF9DC040E050E067E18B
:103A10008AE00F942D508090CB029090CC02A09021
:103A2000CD02B090CE0220E030E0A901C501B40182
:103A30000F9404C018162CF520E030E048EC52E456
:103A4000C501B4010F9496B10F94C6BE0AE010E010
:103A5000CB01B8010F9462C1F82EE92E20E030E0CE
:103A600040E251E4C501B4010F9496B10F94C6BE73
:103A7000CB01B8010F9462C1082FD92EC501B40142
:103A80002AC02401350177FA709477F8709420E009
:103A900030E048EC52E4C301B2010F9496B10F94A8
:103AA000C6BE0AE010E0CB01B8010F9462C1F82E47
:103AB000E92E20E030E040E251E4C301B2010F946E
:103AC00096B10F94C6BECB01B8010F9462C1082F06
:103AD000D92EC301B2010F94C6BE162FC72E20E007
:103AE00030E0A901C501B4010F94A0B687FD03C061
:103AF00085E094E002C080E094E0EF92FF92DF92D4
:103B00000F93CF921F939F938F938CEA96E09F938E
:103B10008F938E010F5F1F4F1F930F930F9450B61B
:103B2000C8010E94B8B8B80180E30E941FB32DB746
:103B30003EB7245F3F4F0FB6F8943EBF0FBE2DBF78
:103B40000C948E738091910F81114BC0CDB6DEB66F
:103B500080911008909111080E9483AEE2E4FFE08A
:103B6000DF010D900020E9F78DB79EB78A1B9B0BF4
:103B7000AC01425C504F0FB6F8945EBF0FBE4DBF14
:103B80000DB71EB70F5F1F4FFF93EF9385EA96E0C7
:103B90009F938F931F930F930F9450B6780154E027
:103BA000E50EF11C0F900F900F900F900F900F905B
:103BB000F7018081882349F0082E000C990B0F949F
:103BC0008CC3D7018D937D01F3CFC8010F94AE3321
:103BD00081EA96E00F94A8270FB6F894DEBE0FBED8
:103BE000CDBE0E94A2A4DC01CB0188539F4FAF4FF2
:103BF000BF4F8093BE079093BF07A093C007B093B9
:103C0000C1070C948E730E94A2A40091BE0710916C
:103C1000BF072091C0073091C10760177107820765
:103C2000930708F454C08091410F882309F44FC0D2
:103C30008091910F81114BC0CDB6DEB680911008F6
:103C4000909111080E9483AEE2E4FFE0DF010D9045
:103C50000020E9F78DB79EB78A1B9B0B9C01225C65
:103C6000304F0FB6F8943EBF0FBE2DBF0DB71EB735
:103C70000F5F1F4FFF93EF938AE996E09F938F9317
:103C80001F930F930F9450B6780134E0E30EF11CAC
:103C90000F900F900F900F900F900F90F701808171
:103CA000882349F0082E000C990B0F948CC3D70180
:103CB0008D937D01F3CFC8010F94AE3386E996E072
:103CC0000F94A8270FB6F894DEBE0FBECDBE0E949B
:103CD000A2A4DC01CB0188539F4FAF4FBF4F80930D
:103CE000BE079093BF07A093C007B093C1070C9481
:103CF0008E730E94A2A40091BE071091BF0720916D
:103D0000C0073091C107601771078207930710F44D
:103D10000C948E7340E050E067E381E20F942D50E5
:103D200040E050E061E08BE10F942D5040E050E026
:103D300062E08AE00F942D5081E08093EF0A809337
:103D400018080E94A2A4DC01CB0188539F4FAF4FFB
:103D5000BF4F8093BE079093BF07A093C007B09357
:103D6000C1070C948E730E94A2A40091BE0710910B
:103D7000BF072091C0073091C10760177107820704
:103D8000930710F40C948E7381E080931A080E94BC
:103D9000A2A4DC01CB0188539F4FAF4FBF4F80934C
:103DA000BE079093BF07A093C007B093C1070C94C0
:103DB0008E730E94A2A40091BE071091BF072091AC
:103DC000C0073091C107601771078207930710F48D
:103DD0000C948E7381E0809319080E94A2A4DC01E8
:103DE000CB0188539F4FAF4FBF4F8093BE07909337
:103DF000BF07A093C007B093C1070C948E730E94B5
:103E0000A2A40091BE071091BF072091C007309176
:103E1000C107601771078207930710F40C948E7323
:103E200040E050E062E18AE00F942D500E94A2A48D
:103E3000DC01CB0188539F4FAF4FBF4F8093BE072C
:103E40009093BF07A093C007B093C1070C948E73E3
:103E50000E94A2A40091BE071091BF072091C00745
:103E60003091C107601771078207930710F40C9413
:103E70008E7340E050E06CE18AE00F942D5080E0BA
:103E80000F94A52710922C0810922B0810922A0844
:103E900081E080936D190E94A2A4DC01CB018853BC
:103EA0009F4FAF4FBF4F8093BE079093BF07A09324
:103EB000C007B093C1070C948E730E94A2A4009116
:103EC000BE071091BF072091C0073091C10760174E
:103ED00071078207930710F40C948E731092EF0A07
:103EE00010927C08EBE8F6E084918F01882351F072
:103EF000082E000C990B0F9434510F5F1F4FF801DF
:103F00008491F4CF10926D190E94569281E00F9423
:103F1000A52740E050E065E08AE00F942D500E9414
:103F2000A2A4DC01CB0188539F4FAF4FBF4F8093BA
:103F3000BE079093BF07A093C007B093C1070C942E
:103F40008E738091D40A9091D50A892B29F0109212
:103F5000D50A1092D40A08C08091DB089091DC0841
:103F60009093D50A8093D40A10922C080C948E73E7
:103F70008091D60A9091D70A892B29F01092D70AFE
:103F80001092D60A08C08091D9089091DA089093CF
:103F9000D70A8093D60A10922B080C948E738091C6
:103FA000CE0A9091CF0A892B29F01092CF0A109255
:103FB000CE0A1CC08091D7089091D8086091D5088E
:103FC0007091D608681779072CF4BC01990F880BFB
:103FD000990B04C0072E000C880B990B0F94A6B602
:103FE0000F94C6BE7093CF0A6093CE0A10922A082F
:103FF0000C948E730E94A2A40091BE071091BF077B
:104000002091C0073091C10760177107820793079D
:1040100010F40C948E7387E896E00F94A8270E9402
:10402000A2A4DC01CB0188539F4FAF4FBF4F8093B9
:10403000BE079093BF07A093C007B093C1070C942D
:104040008E730E94A2A40091BE071091BF07209119
:10405000C0073091C107601771078207930710F4FA
:104060000C948E7340E050E06EE18AE00F942D5086
:104070000E94A2A4DC01CB0188539F4FAF4FBF4FDA
:104080008093BE079093BF07A093C007B093C1076A
:104090000C948E730E94A2A40091BE071091BF07DA
:1040A0002091C0073091C1076017710782079307FD
:1040B00010F40C948E7340E050E065E08AE00F94B9
:1040C0002D501092EF0A10927C08ECE7F6E08491F4
:1040D0008F01882351F0082E000C990B0F94345156
:1040E0000F5F1F4FF8018491F4CF10926D1988E78C
:1040F00093E090932D0280932C020F94C3230E948F
:10410000A2A4DC01CB0188539F4FAF4FBF4F8093D8
:10411000BE079093BF07A093C007B093C1070C944C
:104120008E730E94A2A40091BE071091BF07209138
:10413000C0073091C107601771078207930710F419
:104140000C948E730E94A2A4DC01CB0188539F4F74
:10415000AF4FBF4F8093BE079093BF07A093C00798
:10416000B093C10740E050E06AE18AE00F942D501F
:104170000F9480538091410F882311F40C948E7317
:104180008091C00A8093C10A28E9E22E2AE0F22E2B
:104190003CEAC32E3AE0D32E00E010E046E7842E3E
:1041A00046E0942E8091C00A90E008171907ACF5FC
:1041B00062E47FE089EB9FE00F9487095701D70104
:1041C0008D919D917D010E9483AEF5018081918149
:1041D000D6018D939D936D018091910F811118C02F
:1041E000F401849196E7A92E96E0B92E882359F020
:1041F000082E000C990B0F943451FFEFAF1ABF0A31
:10420000F5018491F3CF8AE090E00F94345102C01D
:104210000E94FCB30F5F1F4FC5CF87E090E00F9463
:104220000F920C948E730E94A2A40091BE0710916D
:10423000BF072091C0073091C1076017710782073F
:10424000930710F40C948E730E94A2A4DC01CB019E
:1042500080579E4FAF4FBF4F8093BE079093BF07CD
:10426000A093C007B093C10780912C0290912D02BA
:104270008036974041F488E793E090932D02809335
:104280002C020F94C32340E050E068E08AE00F94D2
:104290002D5081E480938B088091F10A882331F1BD
:1042A00040E061E081E00E9495CE0E948DF1809116
:1042B0008B088E3411F40C948E7381E00F94A52733
:1042C00010928B0883E796E00F94A8270E948DF147
:1042D00080918B088E3411F40C948E7340E050E082
:1042E0006BE08AE00F942D500C948E7341E0D9CF8F
:1042F0000E94A2A40091BE071091BF072091C007A1
:104300003091C107601771078207930710F40C946E
:104310008E7340E050E064E08AE00F942D500E94DC
:10432000A2A4DC01CB0188539F4FAF4FBF4F8093B6
:10433000BE079093BF07A093C007B093C1070C942A
:104340008E730E94A2A40091BE071091BF07209116
:10435000C0073091C107601771078207930710F4F7
:104360000C948E730E94A2A4DC01CB0180579E4F57
:10437000AF4FBF4F8093BE079093BF07A093C00776
:10438000B093C10740E050E064E28AE00F942D5002
:1043900081E08093BB0789E480938B081F921F9272
:1043A00083E294E09F938F938E010F5F1F4F1F93C3
:1043B0000F930F9401C4B8018EE20E941FB3609165
:1043C000DB087091DC08072E000C880B990B0F940A
:1043D000A6B600E010E028EC31E440E050E00F9495
:1043E000387E0F94C32368E274E085E39EE00F9467
:1043F000377E6BE274E085E39EE00F94377E609138
:10440000DF027091E0028091E1029091E20242E0CD
:1044100050E00F941E7E6FE274E085E39EE00F94FF
:10442000377E2DEB37E346E05EE36091D702709173
:10443000D8028091D9029091DA020F941ABE42E01C
:1044400050E00F941E7E63E374E085E39EE00F94DA
:10445000377E2DEB37E346E05EE36091CF0270914B
:10446000D0028091D1029091D2020F9496B142E095
:1044700050E00F941E7E6091D9087091DA08072EE3
:10448000000C880B990B0F94A6B600E010E028EC06
:1044900031E441E050E00F94387E0F94C32368E28A
:1044A00074E085E39EE00F94377E6BE274E085E371
:1044B0009EE00F94377E6091E3027091E402809158
:1044C000E5029091E60242E050E00F941E7E6FE21A
:1044D00074E085E39EE00F94377E2DEB37E346E0F2
:1044E0005EE36091DB027091DC028091DD029091CD
:1044F000DE020F941ABE42E050E00F941E7E63E38A
:1045000074E085E39EE00F94377E2DEB37E346E0C1
:104510005EE36091D3027091D4028091D5029091B4
:10452000D6020F9496B142E050E00F941E7E109296
:104530008B080E94569240E050E06BE084E10F94BB
:104540002D5040E050E065E18AE00F942D5084E466
:104550008093181880938B080F900F900F900F90F6
:104560000F900F900C948E730E94A2A40091BE072E
:104570001091BF072091C0073091C10760177107E4
:104580008207930710F40C948E731092EF0A109226
:104590007C08E8E6F6E084918F01882351F0082E2C
:1045A000000C990B0F9434510F5F1F4FF801849149
:1045B000F4CF10926D190E94569240E050E065E0F1
:1045C0008AE00F942D500E94A2A4DC01CB018853F5
:1045D0009F4FAF4FBF4F8093BE079093BF07A093ED
:1045E000C007B093C1070C948E730E94A2A40091DF
:1045F000BE071091BF072091C0073091C107601717
:1046000071078207930710F40C948E7382E58093F0
:10461000190281E08093BA0740E050E06BE581E247
:104620000F942D5040E050E06CE581E20F942D5046
:1046300040E050E060E08BE10F942D5040E050E00E
:104640006AE781E20F942D5040E050E069E781E293
:104650000F942D5040E050E06DE18AE00F942D5012
:104660008FEF8093860B0E94A2A4DC01CB018057C0
:104670009E4FAF4FBF4F8093BE079093BF07A0934D
:10468000C007B093C1070C948E730E94A2A400913E
:10469000BE071091BF072091C0073091C107601776
:1046A00071078207930710F40C948E7340E050E07A
:1046B00062E18AE00F942D5040E050E06BE581E22A
:1046C0000F942D5040E050E06CE581E20F942D50A6
:1046D00040E050E060E08BE10F942D5040E050E06E
:1046E0006AE781E20F942D5040E050E069E781E2F3
:1046F0000F942D501092BA070E94A2A4DC01CB01A6
:1047000088539F4FAF4FBF4F8093BE079093BF0713
:10471000A093C007B093C1070C948E730E94A2A40B
:104720000091BE071091BF072091C0073091C107CB
:10473000601771078207930710F40C948E73109220
:10474000EF0A10927C08EDE5F6E084918F01882352
:1047500051F0082E000C990B0F9434510F5F1F4F2E
:10476000F8018491F4CF10926D1940E050E065E0BB
:104770008AE00F942D5040E050E06BE581E20F9409
:104780002D5040E050E06CE581E20F942D5040E068
:1047900050E060E08BE10F942D5040E050E06AE77C
:1047A00081E20F942D5040E050E069E781E20F94E0
:1047B0002D501092BA070E94A2A4DC01CB018853AD
:1047C0009F4FAF4FBF4F8093BE079093BF07A093FB
:1047D000C007B093C1070C948E730E94A2A40091ED
:1047E000BE071091BF072091C0073091C107601725
:1047F00071078207930710F40C948E7341E050E028
:104800006BE581E20F942D5040E050E06CE581E2D1
:104810000F942D5041E050E060E08BE10F942D505B
:1048200041E050E06AE781E20F942D5041E050E012
:1048300069E781E20F942D501092860B0E94A2A48A
:10484000DC01CB0188539F4FAF4FBF4F8093BE0712
:104850009093BF07A093C007B093C1070C948E73C9
:104860000E94A2A40091BE071091BF072091C0072B
:104870003091C107601771078207930710F40C94F9
:104880008E7340E050E06BE581E20F942D5041E0E3
:1048900050E06CE581E20F942D5041E050E060E083
:1048A0008BE10F942D5041E050E06AE781E20F94D4
:1048B0002D5041E050E069E781E20F942D5081E0F6
:1048C0008093860B0E94A2A4DC01CB0188539F4FEA
:1048D000AF4FBF4F8093BE079093BF07A093C00711
:1048E000B093C1070C948E730E94A2A40091BE07DE
:1048F0001091BF072091C0073091C1076017710761
:104900008207930710F40C948E730E94A2A4DC011A
:10491000CB0188539F4FAF4FBF4F8093BE079093FB
:10492000BF07A093C007B093C10780912C0290915C
:104930002D028036974041F488E793E090932D0252
:1049400080932C020F94C3230091860B0F3F11F428
:104950000C948E7301111DC080917F189091801866
:104960006091960770919707681779072CF4BC013E
:10497000990F880B990B04C0072E000C880B990B1C
:104980000F94A6B60F94C6BE7093D50A6093D40A4E
:1049900020C08091B2189091B318609194077091E3
:1049A0009507681779072CF4BC01990F880B990BB0
:1049B00004C0072E000C880B990B0F94A6B610E0CC
:1049C000000F111F0C52154F0F94C6BED8016D93E6
:1049D0007C9381E08093890881E480938B0840E098
:1049E00050E068E08AE00F942D508091F10A88230E
:1049F00011F040E001C041E061E081E00E9495CE0D
:104A000080E090E0A3E4B3E48093E1189093E2188F
:104A1000A093E318B093E4188090720B9090730BFE
:104A2000A090740BB090750B2091DD183091DE18BA
:104A30004091DF185091E0186091D9187091DA1800
:104A40008091DB189091DC18E2EE6E2EEAE07E2E6B
:104A50007F926F92F5EECF2EF8E1DF2EE12CF12C54
:104A600003E413E40E9438BC80E090E0A0E2B1E4EB
:104A70008093DD189093DE18A093DF18B093E018B0
:104A800080906E0B90906F0BA090700BB090710B9C
:104A9000E090E118F090E2180091E3181091E4180A
:104AA0006091D9187091DA188091DB189091DC1818
:104AB0007F926F9220E030E040E251E40E9438BCE7
:104AC0000E948DF10F900F900F900F9080918B08A6
:104AD0008E3411F40C948E7310928B080E945692AF
:104AE0006BE074E08DE20E941FB340E050E068E2AA
:104AF0008AE00F942D500091860B10E0F801EE0F24
:104B0000FF1FEE0FFF1FEE56F64E6081718182810E
:104B100093810F94C6BE7093230860932208000F00
:104B2000111FF801EC52F54F80819181909321087B
:104B30008093200888E480938B080E94569264EF4B
:104B400071E080E090E00E946AA481E080932408F4
:104B50000C948E730E94A2A40091BE071091BF070F
:104B60002091C0073091C107601771078207930732
:104B700010F40C948E730E94A2A4DC01CB01885324
:104B80009F4FAF4FBF4F8093BE079093BF07A09337
:104B9000C007B093C10780912C0290912D028036FE
:104BA000974041F488E793E090932D0280932C0284
:104BB0000F94C323E091860BEF3F11F40C948E7396
:104BC00081E080938908F0E0EE0FFF1FEC52F54F73
:104BD00084E091E09183808381E480938B0840E0BE
:104BE00050E068E08AE00F942D508091F10A88230C
:104BF00011F040E001C041E061E081E00E9495CE0B
:104C00000E948DF180918B088E3411F40C948E7378
:104C100080E090E0A3E4B3E48093E1189093E2187D
:104C2000A093E318B093E4188090720B9090730BEC
:104C3000A090740BB090750B2091DD183091DE18A8
:104C40004091DF185091E0186091D9187091DA18EE
:104C50008091DB189091DC18E2EE6E2EEAE07E2E59
:104C60007F926F92F5EECF2EF8E1DF2EE12CF12C42
:104C700003E413E40E9438BC0E948DF10F900F9062
:104C800080918B088E3411F40C948E7380E090E048
:104C9000A0E2B1E48093DD189093DE18A093DF18B2
:104CA000B093E01880906E0B90906F0BA090700BFB
:104CB000B090710BE090E118F090E2180091E318C9
:104CC0001091E4186091D9187091DA188091DB186E
:104CD0009091DC187F926F9220E030E040E251E446
:104CE0000E9438BC0E948DF10F900F9080918B082C
:104CF0008E3411F40C948E738091860B811103C055
:104D000080E090E002C081E090E00F94718C80E040
:104D100090E0AFE7B3E48093D9189093DA18A093AA
:104D2000DB18B093DC18E090E118F090E2180091E5
:104D3000E3181091E4182091DD183091DE184091AD
:104D4000DF185091E01886E89BE09F938F93812CA9
:104D500060E8962E6BE3A62E66E4B62E75EEC72E9F
:104D600078E1D72E60E070E08FE793E40E9438BCD2
:104D70000E948DF10F900F9080918B088E3411F46A
:104D80000C948E7310928B080E94569240E050E073
:104D900065E28AE00F942D500C948E730E94A2A4B9
:104DA0000091BE071091BF072091C0073091C10745
:104DB000601771078207930710F40C948E7381E0DB
:104DC00080931E0810921C0810921D0810921F0854
:104DD0000E94A2A4DC01CB0186509F4FAF4FBF4F72
:104DE0008093BE079093BF07A093C007B093C107FD
:104DF0000C948E730E94A2A40091BE071091BF076D
:104E00002091C0073091C10760177107820793078F
:104E100010F40C948E7310921E0881E080931C088D
:104E200010921D0810921F080E94A2A4DC01CB0161
:104E300086509F4FAF4FBF4F8093BE079093BF07E1
:104E4000A093C007B093C1070C948E730E94A2A4D4
:104E50000091BE071091BF072091C0073091C10794
:104E6000601771078207930710F40C948E731092E9
:104E70001E0810921C0881E080931D0810921F08E4
:104E80000E94A2A4DC01CB0186509F4FAF4FBF4FC1
:104E90008093BE079093BF07A093C007B093C1074C
:104EA0000C948E730E94A2A40091BE071091BF07BC
:104EB0002091C0073091C1076017710782079307DF
:104EC00010F40C948E7310921E0810921C0810920D
:104ED0001D0881E080931F080E94A2A4DC01CB0181
:104EE00086509F4FAF4FBF4F8093BE079093BF0731
:104EF000A093C007B093C1070C948E730E94A2A424
:104F00000091BE071091BF072091C0073091C107E3
:104F1000601771078207930710F40C948E738FEF5C
:104F200080931A020E94569240E050E062E18AE0CB
:104F30000F942D500E94A2A4DC01CB0188539F4FF7
:104F4000AF4FBF4F8093BE079093BF07A093C0079A
:104F5000B093C1070C948E730E94A2A40091BE0767
:104F60001091BF072091C0073091C10760177107EA
:104F70008207930710F40C948E738FEF80931A02BC
:104F80000E94569240E050E062E18AE00F942D507A
:104F90000E94A2A4DC01CB0188539F4FAF4FBF4FAB
:104FA0008093BE079093BF07A093C007B093C1073B
:104FB0000C948E730E94A2A40091BE071091BF07AB
:104FC0002091C0073091C1076017710782079307CE
:104FD00010F40C948E7341E050E06CE981E20F9480
:104FE0002D5041E050E06DE981E20F942D50209169
:104FF0006102309162028E010F5F1F4F8091D40ACF
:105000009091D50A1092620210926102213031050E
:1050100009F052C0892B41F48091DB089091DC08A3
:105020009093D50A8093D40A41E050E06AE981E286
:105030000F942D5040E050E06BE981E20F942D5029
:105040001F9240EBF42EFF928091D50A8F938091AE
:10505000D40A8F938EE094E09F938F931F930F93C6
:105060000F9401C4B80185E00E941FB3C8010E94DB
:10507000B8B81F92FF926091921970919319809124
:105080009419909195190F94C6BE7F936F9385E5FF
:1050900096E09F938F931F930F930F9450B6B80190
:1050A0008AE00E941FB3EDB7FEB770960FB6F89472
:1050B000FEBF0FBEEDBF4FC0892B41F48091DB08CE
:1050C0009091DC089093D50A8093D40A41E050E097
:1050D0006AE981E20F942D5040E050E06BE981E2F3
:1050E0000F942D501F9230EBF32EFF928091D50A32
:1050F0008F938091D40A8F938EE094E09F938F9347
:105100001F930F930F9401C4B80185E00E941FB351
:105110001F92FF9260919219709193198091941946
:10512000909195190F94C6BE7F936F938DE496E08E
:105130009F938F931F930F930F9450B6B8018AE0FB
:105140000E941FB32DB73EB7205F3F4F0FB6F894B4
:105150003EBF0FBE2DBF0E94A2A4DC01CB0188532D
:105160009F4FAF4FBF4F8093BE079093BF07A09351
:10517000C007B093C1070C948E730E94A2A4009143
:10518000BE071091BF072091C0073091C10760177B
:1051900071078207930710F40C948E7341E050E07E
:1051A0006CE981E20F942D5041E050E06DE981E21D
:1051B0000F942D5020916102309162028E010F5F99
:1051C0001F4F8091D60A9091D70A232B09F059C01E
:1051D00021E030E03093620220936102892B41F498
:1051E0008091D9089091DA089093D70A8093D60AD3
:1051F00040E050E06AE981E20F942D5041E050E038
:105200006BE981E20F942D501F9220EBF22EFF925A
:105210008091D70A8F938091D60A8F9385E496E088
:105220009F938F931F930F930F9450B6B80185E00F
:105230000E941FB3C8010E94B8B81F92FF926091EC
:1052400096197091971980919819909199190F94C6
:10525000C6BE7F936F938DE396E09F938F931F93CA
:105260000F930F9450B6B80181E10E941FB34DB760
:105270005EB7405F5F4F0FB6F8945EBF0FBE4DBF85
:1052800054C021E030E03093620220936102892B08
:1052900041F48091D9089091DA089093D70A8093CD
:1052A000D60A40E050E06AE981E20F942D5041E0D7
:1052B00050E06BE981E20F942D501F9290EBF92E94
:1052C000FF928091D70A8F938091D60A8F9385E3BE
:1052D00096E09F938F931F930F930F9450B6B8014E
:1052E00085E00E941FB31F92FF9260919619709102
:1052F000971980919819909199190F94C6BE7F9330
:105300006F938DE296E09F938F931F930F930F946B
:1053100050B6B80181E10E941FB38DB79EB7409689
:105320000FB6F8949EBF0FBE8DBF0E94A2A4DC01F1
:10533000CB0188539F4FAF4FBF4F8093BE079093D1
:10534000BF07A093C007B093C1070C948E73E09180
:105350006102F0916202EF3F9FEFF90711F40C94A4
:105360008E73EE0FFF1FEC52F54F808191818B33CE
:10537000A1E09A0714F00C948E73059691838083B4
:105380001F9220EB2F939F938F9385E296E09F933C
:105390008F938E010F5F1F4F1F930F930F9450B683
:1053A000B80185E00E941FB3EDB7FEB738960FB67F
:1053B000F894FEBF0FBEEDBF0C948E73E0916102B6
:1053C000F0916202EF3F2FEFF20711F40C948E730D
:1053D000EE0FFF1FEC52F54F8081918118161906D0
:1053E00014F00C948E730597918380831F9220EBA9
:1053F0002F939F938F938DE196E09F938F938E01D0
:105400000F5F1F4F1F930F930F9450B6B80185E0A5
:105410000E941FB34DB75EB7485F5F4F0FB6F89459
:105420005EBF0FBE4DBF0C948E7380916102909150
:105430006202019611F40C948E739091D4088091BD
:10544000D30898130C94F46081E0809329080C949D
:105450008E738091610290916202019611F40C9416
:105460008E739091D4088091D30898130C94F460B3
:105470000C94F8600E94A2A40091BE071091BF078F
:105480002091C0073091C107601771078207930709
:1054900010F40C948E7381E08093250840E050E076
:1054A00068E981E20F942D5040E050E067E981E225
:1054B0000F942D5040E050E06CE981E20F942D50A4
:1054C00040E050E06DE981E20F942D5040E050E063
:1054D00067E881E20F942D5040E050E06CE28AE0F2
:1054E0000F942D508FEF9FEF909362028093610293
:1054F000EDE0F6E084918F01882351F0082E000C36
:10550000990B0F9434510F5F1F4FF8018491F4CF22
:1055100040E050E06AE981E20F942D5040E050E015
:105520006BE981E20F942D501F9210EBF12EFF9248
:105530006091921970919319809194199091951995
:105540000F94C6BE7F936F9385E096E09F938F93F1
:105550008E010F5F1F4F1F930F930F9450B6B8012A
:105560008AE00E941FB3C8010E94B8B81F92FF9240
:105570006091961970919719809198199091991945
:105580000F94C6BE7F936F938DEF95E09F938F939B
:105590001F930F930F9450B6B80181E10E941FB37F
:1055A000C8010E94B8B81F92FF921F921F9285EF08
:1055B00095E09F938F931F930F930F9450B6B8016C
:1055C00085E00E941FB3C8010E94B8B80E94A2A43F
:1055D000DC01CB0188539F4FAF4FBF4F8093BE0775
:1055E0009093BF07A093C007B093C1072DB73EB7F4
:1055F000285E3F4F0FB6F8943EBF0FBE2DBF0C94F0
:105600008E730E94A2A40091BE071091BF07209143
:10561000C0073091C107601771078207930710F424
:105620000C948E73109225080E944AF181E00F9429
:10563000A5270E94569240E050E066E08AE00F9471
:105640002D500E94A2A4DC01CB0188539F4FAF4F85
:10565000BF4F8093BE079093BF07A093C007B0933E
:10566000C1070C948E730E94A2A40091BE071091F2
:10567000BF072091C0073091C107601771078207EB
:10568000930710F40C948E73109225080E944AF12F
:105690001092EF0A10927C0810926D19EAEEF5E074
:1056A00084918F01882351F0082E000C990B0F94E0
:1056B00034510F5F1F4FF8018491F4CF81E00F94B4
:1056C000A5270E94569240E050E065E08AE00F94E2
:1056D0002D500E94A2A4DC01CB0188539F4FAF4FF5
:1056E000BF4F8093BE079093BF07A093C007B093AE
:1056F000C1070C948E730E94A2A40091BE07109162
:10570000BF072091C0073091C1076017710782075A
:10571000930710F40C948E731092B90740E050E098
:1057200064E08AE00F942D500E94A2A4DC01CB011A
:1057300088539F4FAF4FBF4F8093BE079093BF07D3
:10574000A093C007B093C1070C948E730E94A2A4CB
:105750000091BE071091BF072091C0073091C1078B
:10576000601771078207930710F40C948E7382E51B
:10577000809319028FEF8093860B40E050E066E142
:105780008AE00F942D500E94A2A4DC01CB01885323
:105790009F4FAF4FBF4F8093BE079093BF07A0931B
:1057A000C007B093C1070C948E730E94A2A400910D
:1057B000BE071091BF072091C0073091C107601745
:1057C00071078207930710F40C948E7389E4809319
:1057D000190240E050E06CE481E20F942D5040E06B
:1057E00050E06BE481E20F942D5040E050E061E422
:1057F00081E20F942D5040E050E066E481E20F9486
:105800002D5040E050E06EE481E20F942D5040E0D6
:1058100050E06FE481E20F942D5040E050E064E1ED
:105820008AE00F942D508FEF8093860B0E94A2A4E4
:10583000DC01CB0188539F4FAF4FBF4F8093BE0712
:105840009093BF07A093C007B093C1070C948E73C9
:105850000E94A2A4C090BE07D090BF07E090C007EE
:10586000F090C1076C157D058E059F0510F40C9412
:105870008E730E94A2A4DC01CB0188539F4FAF4FCF
:10588000BF4F8093BE079093BF07A093C007B0930C
:10589000C1071A3519F41092860B03C081E080937A
:1058A000860B0091860B01111DC080917F1890918D
:1058B00080186091960770919707681779072CF404
:1058C000BC01990F880B990B04C0072E000C880BA4
:1058D000990B0F94A6B60F94C6BE7093D50A609329
:1058E000D40A20C08091B2189091B31860919407A7
:1058F00070919507681779072CF4BC01990F880BF4
:10590000990B04C0072E000C880B990B0F94A6B6B8
:1059100010E0000F111F0C52154F0F94C6BED80196
:105920006D937C9381E480938B0840E050E068E0C5
:105930008AE00F942D508091F10A882311F040E005
:1059400001C041E061E081E00E9495CE80E090E0FE
:10595000A3E4B3E48093E1189093E218A093E318D2
:10596000B093E4188090720B9090730BA090740B1E
:10597000B090750B2091DD183091DE184091DF1842
:105980005091E0186091D9187091DA188091DB1865
:105990009091DC18E2EE6E2EEAE07E2E7F926F92FE
:1059A000F5EECF2EF8E1DF2EE12CF12C03E413E429
:1059B0000E9438BC80E090E0A0E2B1E48093DD1862
:1059C0009093DE18A093DF18B093E01880906E0BD0
:1059D00090906F0BA090700BB090710BE090E1185D
:1059E000F090E2180091E3181091E4186091D91832
:1059F0007091DA188091DB189091DC187F926F9289
:105A000020E030E040E251E40E9438BC0E948DF179
:105A10000F900F900F900F9080918B088E3411F49F
:105A20000C948E7310928B080E9456926BE074E077
:105A30008DE20E941FB340E050E068E28AE00F94DC
:105A40002D500091860B10E0F801EE0FFF1FEE0FB6
:105A5000FF1FEE56F64E60817181828193810F9413
:105A6000C6BE7093230860932208000F111FF8012F
:105A7000EC52F54F8081918190932108809320080A
:105A80000E94569288E480938B0864EF71E080E076
:105A900090E00E946AA481E0809324080C948E73A5
:105AA00080911C1881110C948E730E94A2A4009105
:105AB000BE071091BF072091C0073091C107601742
:105AC00071078207930710F40C948E7340E050E046
:105AD00066E08AE00F942D500E94A2A4DC01CB0165
