:100000000C9402170C9433170C9433170C94331779
:100010000C9433170C9433170C9433170C94331738
:100020000C9433170C9433170C9433170C94331728
:100030000C9433170C9433170C9433170D94490513
:100040000C9433170C9433170C9433170C94331708
:100050000C9433170C9433170D94FC3E0C9475DFFD
:100060000C9433170C94A3DD0C947ADD0C943317A5
:100070000C9433170C9433170C9433170C943317D8
:100080000C94E5E00C9433170C9433170C9433174D
:100090000C9433170C9433170C9433170C943317B8
:1000A0000C9433170C9433170C9433170C943317A8
:1000B0000C9433170C9433170C9433170C94331798
:1000C0000C9433170C9433170C9433170C9445DDB0
:1000D0000C941CDD0C9433170C9433170C943317C9
:1000E0000C943317505AD75CB32F772DF5579628B9
:1000F000B15BAC28D75CD75CD75CEB288828D75C91
:10010000E425D925D75C8B39D75CD75CD75CBC5B41
:1001100048405E4074408A402241A040DA5B3A4049
:100120000043575AD839C939B640CA40D75CA128CC
:100130005A268828572DC33B6F2D6E5BC34E672D03
:100140005F2D8F5BEC59D75CA52F675BD75C6A3C52
:10015000B4280526EF25D75CD75CC529F439D75CD0
:100160003C5B105B2748AA313028384CE536E7392C
:10017000AE31D75CAD5A665A712F5B305B30373089
:10018000B231B632632B04291D29F72F1930CE2541
:10019000FA25D75CD75C8828EB2FD72BF92B4A2977
:1001A000683B483BD75CC0566B57D959D75CDA5B84
:1001B000DA5B39590D59E158B55831585D588958AD
:1001C000225A3E5784430E43FA430B466445EE449D
:1001D000D75CD75CF5571C2C352CEB2FE356D15B45
:1001E000D75CD75C2D5BE040174B0347D75C3926C3
:1001F000F154F6400C41D75C6641D75C9D3A953A84
:10020000D75CD75C1935D75CD75CD75C4035923565
:100210007D35F02EDA2EA53A802DFD2D812EAE2EC5
:100220003D53012F874768351B47D75CD75CD75CA8
:10023000D75CD75CD75CD75CD75CD75C5029582992
:100240007E29D75CD75C314745472748174B234B5E
:10025000284CD75C364F9A4FC94E1D4F3F4DD75C47
:10026000D75C5C4DD75C725190388339B6515B478F
:10027000D75C44508E50DA5026513C507147D75CC1
:10028000FA51FC5270549355D75C2654DA45DA453E
:1002900081548833FA2AAF4E484D684D3A4E424E4B
:1002A0008828B74ED75CD75CD75CD75CD75CD75C67
:1002B0005539D75CD75CE657195AD75CD75CD75C01
:1002C000D75CD75CD75CD75CD75C5756AA56D75C4F
:1002D000D75CD75CD75CD75CD75CD75CD75CD75C86
:1002E000D75CD75CD75CD75CD75CD75CD75CD75C76
:1002F000D75CD75CD75CD75CD75CD75CD75CD75C66
:10030000D75CD75CD75CD75CD75CD75CD75CD75C55
:10031000D75CD75CD75CD75CD75CD75CD75CD75C45
:10032000D75CD75CD75CD75CD75CD75CD75CD75C35
:10033000D75CD75CD75CD75CD75CD75CFC3FBE3F53
:10034000C2428442D75CE945D75CD75CE7392A2BA7
:1003500074423A41E7393A41D75C50415041022B4F
:100360004A5B435B595B605BB957BE57C357C8577D
:10037000265B175BD257D757DC57E157CD57B45799
:10038000C84AE74A772D142A0A2BD75C445A2853C7
:10039000C828962BD75CD75C3757FA4FD75CD75C09
:1003A000D75C8C55D75CE356D75CD75CD75C1130F3
:1003B0006B2B3553602F5A34D75CCE4FD75C8555A5
:1003C000D75CD75CD75CD75CD75C982FA24AB54A7C
:1003D000445A225A1E36FA36BA4F153BFE361C2AAC
:1003E000C33B2636184E8838C2379354E454D75C42
:1003F000F439BA4F7748DA5BAD3A322BC24FDA5B49
:10040000BCDCBFDCAEDCB2DCB8DCF6DCC3DCC7DCF9
:10041000CDDCD1DCD5DCDBDCDFDCE3DCF6DCE9DC0D
:10042000EDDCF1DC91DE96DE9BDEA5DEAFDE28DFC3
:10043000B9DEC1DEC9DED3DEDDDEE7DEF6DE00DFFB
:1004400028DF0ADF14DF1EDF6702730277028902EA
:100450008302890269026D02AB029B02A10285023E
:100460007502A502A3026F027F028D02AD02910206
:100470009302790297028B02A7027B029902810202
:100480009D02084AD73B3BCE016E84BCBFFDC12F05
:100490003D6C74319ABD56833DDA3D00C77F11BE75
:1004A000D9E4BB4C3E916BAAAABE000000803F0578
:1004B000A84CCDB2D44EB93836A9020C50B99186A9
:1004C00088083CA6AAAA2ABE000000803F000D941E
:1004D0008B0F0D9484100D9458010D949C100D9465
:1004E000C70F0D948A610D9405100D9497110D940A
:1004F000EA100D94BC3F0D94FF3F0D948FC70D94EF
:1005000066100D9403400D9429100D9479110D94EB
:1005100053810D94C5100D94E33F0D94B5110D94C6
:10052000D9A70D94933F0D94AF3F0D94EEB40D9465
:10053000D63F0D9401400D941F120D940B400D9465
:100540008B610D945B110D94E70F0D94F0110D94D8
:10055000FD3F0D947D810D94A90F0D94863F4E4172
:100560004E494E495459494E46CDCCCC3D0AD7232D
:100570003C17B7D13877CC2B329595E6241FB14F75
:100580000A000020410000C84200401C4620BCBEBA
:100590004CCA1B0E5AAEC59D746364696E6F70734E
:1005A0007578585B003B4C415945523A2564003BF5
:1005B000202020757365526166742C2564004D36C9
:1005C0003035205325640043616C63756C75733A54
:1005D00020200043616C63756C75733A20200043E2
:1005E000616C63756C75733A20200053757266698F
:1005F0006E6720300A00417420426F74746F6D2062
:10060000537469636B657200253033642E25303373
:1006100064253033642E2530346400417420426FE9
:1006200074746F6D20537469636B65720025303389
:10063000642E25303364253033642E253034640035
:1006400053757266696E6720300A00473238205849
:1006500030205930005430005431005430005430B0
:100660000053757266696E6720300A0047343300A4
:1006700047343100473430004733340047343300C7
:100680004734330047343100473430004D383400AC
:100690004D3834004D3834005A32204F6666736549
:1006A000743A20004F4B207365636F6E6420457869
:1006B000747275646572210A005A20706F736974D0
:1006C000696F6E3A20005A20706F736974696F6E9B
:1006D0003A20004D3834005A312050726F62652044
:1006E0006F66667365743A20004F4B2066697273BB
:1006F0007420457874727564657221200A005A204E
:10070000706F736974696F6E3A20005A20706F734E
:100710006974696F6E3A200043616C63756C757320
:100720003A20200043616C63756C75733A20200099
:1007300043616C63756C75733A20200043616C6390
:10074000756C75733A2020003630206465677265D9
:100750006573200A00543000543000543000436167
:100760006C6962726174696F6E205375636365733F
:100770007366756C0A005430004A756D70206F7690
:1007800065722073637265773120616E64207363D4
:1007900072657732200A004A756D70206F76657237
:1007A00020736372657731200A0047333400473382
:1007B00034004733340054300047333400537572EB
:1007C00066696E6720300A0053757266696E67202D
:1007D000300A0053757266696E6720300A005375DF
:1007E0007266696E6720300A0053757266696E67BB
:1007F00020300A0054300053757266696E672030ED
:100800000A004D33340053757266696E6720300AF2
:10081000004D3234004D3233202573004D32340008
:100820004D32332025730077696C6C20626520643B
:100830006973746F727465642062792025642E2553
:100840003164253164206D6D2E0054686520666921
:10085000727374206C61796572207072696E746550
:100860006420776974682074686520257320686F38
:1008700074656E640053757266696E6720300A0095
:1008800053757266696E6720300A00537572666927
:100890006E6720300A00526561647920746F2053BE
:1008A000746172740A002564206B6D2E0067636F9B
:1008B000646520666F756E640A0020746F2053743F
:1008C00061727420446973706C61792066726F6D17
:1008D00020526573657400546F6F6B2000646973F8
:1008E000706C6179206F6E6C696E6521002E00203E
:1008F00053544F50205052494E54200A004732382A
:10090000205830205930004D3335004737300052E1
:100910004553554D450A0050415553450A004D3841
:100920003420582059205A2045004D31303700548A
:1009300030005374617274696E67205A2043616C91
:100940006962726174696F6E2057697A6172640AB4
:10095000000A00205A3A200020593A200020583A34
:10096000200042656400456E642066696C65206CF9
:100970006973740A00426567696E2066696C652058
:100980006C6973740A002F005344207072696E748E
:10099000696E67206279746520004E6F742053443D
:1009A000207072696E74696E670A002569206D692E
:1009B0006E2C20256920736563006F6B00464952D9
:1009C0004D574152455F4E414D453A4D61726C69FC
:1009D0006E2042434E3344205369676D61783B205B
:1009E0004649524D574152455F56455253494F4E25
:1009F0003A30322D322E302E343B204649524D575C
:100A00004152455F55524C3A68747470733A2F2FB7
:100A10006769746875622E636F6D2F42434E33446D
:100A20002F42434E33445369676D61782D46697296
:100A30006D776172653B2050524F544F434F4C5F6E
:100A400056455253494F4E3A312E303B204D41438B
:100A500048494E455F545950453A42434E3344202D
:100A60005369676D61783B2045585452554445524F
:100A70005F434F554E543A323B20555549443A0056
:100A800053544154495354494353205245534554B8
:100A90000A004D6F64652032203A206379636C65EB
:100AA0002020202D3E205247423A20362073746188
:100AB000746573002A2A2D3E20004D6F6465203135
:100AC000203A2072616E646F6D20202D3E205247C7
:100AD000423A202B31202B32202B332C206475728C
:100AE000696E67207072696E74696E67002A2A2DBC
:100AF0003E20004D6F64652030203A2064656661B9
:100B0000756C74202D3E205247423A2032353520F4
:100B100032353520323535002A2A2D3E20004C65ED
:100B200064206D6F646573203A004D353336204C78
:100B30005B6D6F64655D00504F534954494F4E20C3
:100B4000484F4D453A2000220A00556E6B6E6F7774
:100B50006E20636F6D6D616E643A2022000A002082
:100B60007A3A200020793A200020783A2000426525
:100B7000640045787472756465722072656C656195
:100B8000736564206163746976653A20005A205366
:100B900049474D4120486F6D65640A00457874727D
:100BA00075646572206163746976653A20004D381A
:100BB00034005374617274696E6720582043616C0D
:100BC0006962726174696F6E2057697A6172640A32
:100BD000004D3834005374617274696E6720592077
:100BE00043616C6962726174696F6E2057697A61E2
:100BF00072640A0045787472756465722048656194
:100C00007465640A0020573A00204500205A0020ED
:100C10005900483D5800205A3A0020593A002043D4
:100C20006F756E7420583A200020453A00205A3AD9
:100C30000020593A00583A007A5F6D696E3A2000F8
:100C4000795F6D61783A2000785F6D61783A2000B5
:100C5000785F6D696E3A2000486F74656E64206F2E
:100C60006666736574733A00504944204175746F29
:100C700074756E652066696E6973686564212050BD
:100C8000757420746865206C617374204B702C201F
:100C90004B6920616E64204B6420636F6E737461D6
:100CA0006E74732066726F6D2061626F7665206965
:100CB0006E746F20436F6E66696775726174696FD9
:100CC0006E2E680A00504944204175746F74756E29
:100CD00065206661696C6564212074696D656F7556
:100CE000740A0020403A006F6B20543A006F6B206A
:100CF000423A00504944204175746F74756E652006
:100D00006661696C6564212054656D7065726174FB
:100D100075726520746F6F20686967680A00204BE0
:100D2000643A2000204B693A2000204B703A2000A2
:100D300020436C617373696320504944200A00208A
:100D400054753A2000204B753A2000206D61783AA6
:100D50002000206D696E3A200020643A2000206255
:100D60006961733A2000436F6F6C696E6720446F4E
:100D7000776E204865617465720A005072696E74FE
:100D800065722068616C7465642E206B696C6C28D8
:100D9000292063616C6C6564210A004572726F7270
:100DA0003A006C61796572206865696768743A20F9
:100DB0000045787472756465722072656C65617344
:100DC0006564206163746976653A20005A2053494E
:100DD000474D4120486F6D65640A0045787472750F
:100DE000646572206163746976653A2000000000D2
:100DF0000000809343000000000000A0400000A01D
:100E0000400000004020004D6F766520746F3A204E
:100E100000CDAC03440080934300005243FF01FF28
:100E200020636F6C6420657874727573696F6E20CF
:100E300070726576656E7465640A006563686F3A02
:100E40000000002100240027002A002D003000337C
:100E50000001010000040107010A01000022002531
:100E60000028002B002E0031003400020100000594
:100E70000108010B01000020002300260029002C9E
:100E8000002F0032000001000003010601090105E6
:100E9000050505070508080808020202020A0A08F3
:100EA0000804040404010101010101010103030319
:100EB0000303030303040707070C0C0C0C0C0C0CB6
:100EC0000C0202020206060606060606060B0B0BBD
:100ED0000B0B0B0B0B0102102020080810204010F8
:100EE00020408002010201080402010102040810EE
:100EF000204080804020100804020180040201800C
:100F00004020100804020108040201010204081034
:100F1000204080010204081020408000000A0B02DB
:100F2000090C0D0E0807030401000000000000007A
:100F300000000000000000000000000000000000B1
:100F4000000000000000001211100000000000006E
:100F50000000000000000000000000000000000091
:100F600000646973706C6179206F66666C696E6588
:100F70000042434E3344205369676D61780A007321
:100F8000746172740A006563686F3A0030322D3202
:100F90002E302E340A006572726F72207772697477
:100FA000696E6720746F2066696C650A00205A3A82
:100FB0000020593A0020583A00656E6473746F70CF
:100FC00073206869743A20006563686F3A00446F63
:100FD0006E6520736176696E672066696C652E0A9E
:100FE000006F6B0A004D32390024F4D43050C38EA8
:100FF00020C2A24017828B7011127A910D816CD998
:101000000AA861E108C7586607615143061E4B5D97
:1010100005C145A7041A411104093D9803713931EE
:10102000034036DB0265339102D4305402802E1D1A
:1010300002632CEE01752AC501B028A0011027819A
:10104000018F2564012B244B01E0223401AC211FC8
:10105000018D200D01801FFC00841EED00971DDF17
:1010600000B81CD200E61BC600201BBC00641AB2EC
:1010700000B219A8000A19A0006A189900D11791A6
:101080000040178B00B516840031167E00B3157929
:10109000003A157300C7146F0058146A00EE136607
:1010A000008813630025135E00C7125B006C1257A3
:1010B0000015125400C111510070114F0021114B45
:1010C00000D61049008D104700461044000210421F
:1010D00000C00F4000800F3E00420F3C00060F3B57
:1010E00000CB0E3800930E37005C0E3500270E340F
:1010F00000F30D3200C10D3100900D3000600D2E57
:1011000000320D2D00050D2C00D90C2B00AE0C2942
:1011100000850C29005C0C2700350C27000E0C26DE
:1011200000E80B2400C40B2400A00B23007D0B233C
:10113000005A0B2100390B2100180B2000F80A1F60
:1011400000D90A1E00BB0A1E009D0A1D00800A1D50
:1011500000630A1C00470A1B002C0A1B00110A1A14
:1011600000F7091A00DD091900C4091900AB0919B3
:1011700000920917007B091800630917004C091633
:101180000036091600200916000A091500F5081591
:1011900000E0081400CC081400B8081400A40814D7
:1011A00000900813007D0812006B08130058081205
:1011B000004608120034081100230811001208111B
:1011C0000001081100F0071000E0071000D0071020
:1011D00000C0071000B0070F00A107100091070E14
:1011E0000083070F0074070F0065070E0057070EF6
:1011F0000049070E003B070D002E070E0020070DCB
:101200000013070D0006070D00F9060C00ED060D92
:1012100000E0060C00D4060C00C8060C00BC060C4E
:1012200000B0060C00A4060B0099060C008D060BFE
:101230000082060B0077060B006C060B0061060AA5
:101240000057060B004C060A0042060A0038060A40
:10125000002E060A0024060A001A060A00100609D3
:101260000007060A00FD050900F4050900EB050961
:1012700000E2050900D9050900D0050900C70509E4
:1012800000BE050900B5050800AD050800A5050963
:10129000009C050800940508008C050800840508DA
:1012A000007C050800740508006C0507006505084A
:1012B000005D050700560508004E050700470507B5
:1012C000004005080038050700310507002A05071A
:1012D00000230507001C050600160507000F05077B
:1012E000000805060002050700FB040600F50407D8
:1012F00000EE040600E8040600E2040700DB040632
:1013000000D5040600CF040600C9040600C3040685
:1013100000BD040600B7040600B1040500AC0406D5
:1013200000A6040600A00405009B04060095040521
:1013300000900406008A0405008504050080040668
:10134000007A04050075040500700405006B0405AF
:101350000066040500610405005C040500570405EF
:1013600000520405004D040500480405004304052F
:10137000003E0404003A040500350405003004046E
:10138000002C04050027040400230405001E0404A7
:10139000001A04040016040500110404000D0404DE
:1013A00000090405000404040000040400FC030414
:1013B00000F8030400F4030400F0030400EC030449
:1013C00000E8030400E4030400E0030400DC030479
:1013D00000D8030400D4030400D0030400CC0304A9
:1013E00000C8030300C503030024F404D9201BC470
:1013F0000C5C0E9804C4095F0265077101F405F9DD
:1014000000FB04B30048048700C10369005803557A
:101410000003034500BE023A008402310053022A51
:10142000002902250004022000E4011C00C8011963
:1014300000AF01170098011400840113007101101E
:10144000006101100051010E0043010D0036010B37
:10145000002B010B0020010B00150109000C0109F4
:101460000003010800FB000800F3000800EB000780
:1014700000E4000600DE000600D8000600D20006E8
:1014800000CC000500C7000500C2000500BD000437
:1014900000B9000400B5000400B1000400AD000470
:1014A00000A9000400A5000300A20003009F00049F
:1014B000009B0003009800030095000200930003C6
:1014C00000900003008D0002008B000300880002E2
:1014D000008600020084000300810002007F0002F9
:1014E000007D0002007B000200790002007700010D
:1014F0000076000200740002007200010071000218
:10150000006F0002006D0001006C0002006A000123
:10151000006900020067000100660001006500012B
:10152000006400020062000100610001006000012F
:10153000005F0002005D0001005C0001005B000133
:10154000005A000100590001005800010057000135
:101550000056000100550001005400010053000036
:101560000053000100520001005100010050000131
:10157000004F0001004E0000004E0001004D000130
:10158000004C0001004B0000004B0001004A00012C
:101590000049000100480000004800010047000128
:1015A0000046000000460001004500000045000123
:1015B000004400010043000000430001004200001D
:1015C0000042000100410000004100010040000114
:1015D000003F0000003F0001003E0000003E00010F
:1015E000003D0000003D0001003C0000003C000008
:1015F000003C0001003B0000003B0001003A0000FD
:10160000003A0001003900000039000100380000F4
:1016100000380000003800010037000000370001EA
:1016200000360000003600000036000100350000E2
:1016300000350000003500010034000000340000D7
:1016400000340001003300000033000000330001CB
:1016500000320000003200000032000100310000C2
:1016600000310000003100010030000000300000B7
:1016700000300001002F0000002F0000002F0000AC
:10168000002F0001002E0000002E0000002E00019F
:10169000002D0000002D0000002D0000002D000195
:1016A000002C0000002C0000002C0000002C000189
:1016B000002B0000002B0000002B0000002B00017D
:1016C000002A0000002A0000002A0000002A000171
:1016D0000029000000290000002900000029000066
:1016E0000029000100280000002800000028000058
:1016F000002800000028000100270000002700004B
:10170000002700000027000000270001002600003D
:101710000026000000260000002600000026000130
:101720000025000000250000002500000025000025
:101730000025000000250001002400000024000016
:101740000024000000240000002400010023000009
:1017500000230000002300000023000000230000FD
:1017600000230000002300010022000000220000EE
:1017700000220000002200000022000000220001E0
:1017800000210000002100000021000000210000D5
:1017900000210000002100000021000100200000C5
:1017A00000200000002000000020000000200000B9
:1017B000002000000020000000200001001F0000A9
:1017C000001F0000001F0000001F0000001F00009D
:1017D000001F0000001F0001001E0000001E00008E
:1017E000001E0000001E0000002E0A0044656C650B
:1017F00074696F6E206661696C65642C2046696C43
:10180000653A200046696C652064656C65746564A2
:101810003A002E0A006F70656E206661696C65641F
:101820002C2046696C653A20004732382058302019
:101830005930000A0A005374616E64617264204476
:101840006576696174696F6E3A20000A004D6561C2
:101850006E3A20000A002020207A3A20000A0079FF
:101860003A2000783A20003F5370656369666965E5
:1018700064206E756D626572206F66206C6567739B
:1018800020696E206D6F76656D656E74206E6F7465
:1018900020706C61757361626C652E0A003F537035
:1018A00065636966696564205920706F736974693E
:1018B0006F6E206F7574206F662072616E67652E83
:1018C0000A003F537065636966696564205820703B
:1018D0006F736974696F6E206F7574206F66207204
:1018E000616E67652E0A003F5370656369666965BE
:1018F000642073616D706C652073697A65206E6F0A
:101900007420706C61757361626C652E0A00467597
:101910006C6C20737570706F72742061743A2068FB
:101920007474703A2F2F33647072696E74626F61D1
:1019300072642E636F6D2F666F72756D2E70687096
:101940000A004D3438205A2D50726F62652052655E
:10195000706561746162696C69747920746573740F
:101960002E20202056657273696F6E20322E303023
:101970000A003F566572626F7365204C6576656C30
:10198000206E6F7420706C61757361626C652E0AD5
:1019900000426564204865617465640A0020573A16
:1019A00000496E7374616C6C202564202573206F70
:1019B0006E2074686520257320686F74656E642ED0
:1019C0000050757267652046696C616D656E740ABA
:1019D0000053757266696E6720310A00537572662E
:1019E000696E6720300A004252494748544E4553B9
:1019F000533A2000220A00656E717565696E672092
:101A00002200220A00656E717565696E67202200EA
:101A1000202F0020400020403A0053757266696E06
:101A2000672030200A005430004D383420582059A7
:101A3000205A204500496E7374616C6C2025642027
:101A40002573206F6E2074686520257320686F747D
:101A5000656E642E00526573656E643A20006F6B8C
:101A60000A004475706C69204D6F6465204F4E0A02
:101A7000004D6972726F72204D6F6465204F4E0A7F
:101A8000002C2073617665645F466C61675F6661F8
:101A90006E6C617965725F6D6972726F723A200067
:101AA0002C2073617665645F666565647261746538
:101AB000313A20002C2073617665645F6665656449
:101AC00072617465303A20002C2073617665645F22
:101AD00066616E6C617965723A20002C20736176C4
:101AE00065645F74656D706265643A20002C2073D4
:101AF000617665645F74656D70303A20002C2073E8
:101B0000617665645F74656D70313A20002C2073D6
:101B1000617665645F66696C65706F736974696F1F
:101B20006E3A20002C2073617665645F655F706F8C
:101B3000736974696F6E3A20002C20736176656456
:101B40005F746F6F6C5F6163746976653A20002C17
:101B50002073617665645F7A5F706F736974696F13
:101B60006E3A20002C2073617665645F795F706F38
:101B7000736974696F6E3A20002C20736176656416
:101B80005F785F706F736974696F6E3A20005341BC
:101B90005645205052494E54204C4F473A0A006552
:101BA00063686F3A005072696E74207265636F7675
:101BB0006572792075700A004E6F74207072696EBC
:101BC00074207265636F766572792075700A0053B0
:101BD0005543434553530A0056616C756573206F36
:101BE0007574206F662072616E67650A0056616CBD
:101BF000756573206F7574206F662072616E6765FE
:101C00000A0056616C756573206F7574206F6620CD
:101C100072616E67650A0056616C756573206F7539
:101C200074206F662072616E67650A0053554343E6
:101C30004553530A0056616C756573206F757420A7
:101C40006F662072616E67650A0056616C75657318
:101C5000206F7574206F662072616E67650A00568A
:101C6000616C756573206F7574206F662072616E8C
:101C700067650A0056616C756573206F7574206F17
:101C8000662072616E67650A0020502000205A208D
:101C90000020592000536574204D353330205820E2
:101CA00000486F74656E64206F6666736574733A7E
:101CB0000054696D6520696E6163746976650A0018
:101CC00050757267652064697374616E63650A009C
:101CD0005A204F6666736574206F6B0A005A204F56
:101CE0006666736574203A200A007A5F6D61783AFF
:101CF00020007A5F6D696E3A20005A204F66667345
:101D0000657400504F534954494F4E20484F4D453C
:101D10003A20002A2A2A2047656E696520446973A3
:101D2000636F6E6E65637465642066726F6D2047C5
:101D300065744E6578744279746521202A2A2A00D8
:101D40002A2A2A2047656E696520456E61626C65A6
:101D5000204174746163684576656E7448616E6491
:101D60006C657220212121202A2A2A0043616E6E8F
:101D70006F7420656E746572207375626469723A5F
:101D8000200057726974696E6720746F2066696CF1
:101D9000653A20002E0A006F70656E206661696CDE
:101DA00065642C2046696C653A20002E0A006F702D
:101DB000656E206661696C65642C2046696C653AC5
:101DC000200046696C652073656C65637465640A00
:101DD000002053697A653A200046696C65206F706F
:101DE000656E65643A20002E0A006F70656E20668D
:101DF00061696C65642C2046696C653A20004E6F01
:101E0000772066726573682066696C653A20004EBB
:101E10006F7720646F696E672066696C653A200091
:101E20002220706F73002220706172656E743A22F6
:101E300000535542524F5554494E452043414C4C56
:101E4000207461726765743A2200747279696E67F2
:101E500020746F2063616C6C207375622D67636FF3
:101E600064652066696C6573207769746820746F97
:101E70006F206D616E79206C6576656C732E204DD8
:101E80004158206C6576656C2069733A0053415661
:101E90004544205052494E540A007A70726F626570
:101EA0003A200053442063617264206F6B0A006F14
:101EB00070656E526F6F74206661696C65640A00AC
:101EC000766F6C756D652E696E6974206661696CDC
:101ED00065640A004572726F723A00534420696E5D
:101EE0006974206661696C0A0070012C01900127F9
:101EF00001B0012201C0011D01F0011801100213FF
:101F00000130020E016002090190020401C002FFCB
:101F1000000003FA004003F5008003F000D003EB5B
:101F2000002004E6007004E100E004DC004005D776
:101F300000C005D2004006CD00D006C8008007C30F
:101F4000003008BE00F008B900C009B400B00AAF04
:101F500000B00BAA00D00CA500000EA000500F9BF3
:101F600000C01096005012910000148C00C015871C
:101F700000B0178200B0197D00D01B7800001E73DE
:101F80000040206E0090226900F024640040275F2A
:101F90000090295A00E02B5500102E500020304BA5
:101FA0000010324600E033410090353C00103737D6
:101FB0000070383200A0392D00B03A2800A03B2331
:101FC00000603C1E00103D1900903D1400103E0FB3
:101FD00000703E0A00C03E0500003F0000487973D3
:101FE000746572657369732074656D706572617470
:101FF0007572650A00546865726D616C2072756E49
:10200000617761792070726F74656374696F6E2097
:102010006279204865617465725F49443A0A0045F7
:1020200072726F723A004572726F72283833293AB1
:102030002042656420746865726D6973746F7220E4
:102040006E6F742064657465637465640A0045721C
:10205000726F72283832293A205269676874207486
:102060006865726D6973746F72206E6F7420646539
:102070007465637465640A004572726F7228383142
:10208000293A204C65667420746865726D697374B2
:102090006F72206E6F74202064657465637465646C
:1020A0000A002053544F50205052494E54200A00E9
:1020B0004572726F72283833293A20426564207461
:1020C0006865726D6973746F72206E6F74206465D9
:1020D0007465637465640A002053544F5020505255
:1020E000494E54200A004572726F72283832293ADC
:1020F00020526967687420746865726D6973746FC3
:1021000072206E6F742064657465637465640A0080
:102110002053544F50205052494E54200A004572CB
:10212000726F72283831293A204C656674207468C1
:1021300065726D6973746F72206E6F7420206465B0
:102140007465637465640A002053544F50205052E4
:10215000494E54200A004552524F52283839293AE4
:1021600020424544206973206E6F74206865617455
:10217000696E67002053544F50205052494E5420EE
:102180000A004552524F52283839293A20486F7474
:10219000656E64202564206973206E6F7420686505
:1021A0006174696E67006563686F3A000A002061B8
:1021B0006E7469686F726172690A3A200020686FF4
:1021C000726172690A20002F3800766F6C74657333
:1021D000200020566F6C74657320636172676F6CAA
:1021E00020333A200020616E7469686F72617269F1
:1021F0000A3A200020686F726172690A20002F3845
:1022000000766F6C746573200020566F6C74657374
:1022100020636172676F6C20323A20000A002064EC
:102220007A333A200020647A323A20005431005444
:1022300030005430005430000A0056756974656EE1
:1022400073333A2020004170726F78333A202000B7
:10225000566F6C746573333A2020000A0056756916
:1022600074656E73323A2020004170726F78323A92
:10227000202000566F6C746573323A20200056613E
:102280006C6F7220645A333A20200056616C6F7272
:1022900020645A323A2020004E6577206F666673BC
:1022A00065742076657273696F6E3A20007A335FC9
:1022B000313A20007A325F313A20005A7363726FEC
:1022C0006C6C5F313A20007A335F303A20007A320A
:1022D0005F303A20005A7363726F6C6C5F303A2043
:1022E000005A76616C756520616674657220686F4E
:1022F0006D653A00486F6D6520582F5920626566FC
:102300006F7265205A0A003B2020204275696C6478
:102310002074696D653A202564202573202564208A
:102320002573003B5072696E742074696D653A20A4
:10233000256420257320256420257320256420250D
:1023400073003B54494D453A256C64003B202020E6
:10235000506C6173746963207765696768743A20AB
:1023600025642E256467003B46696C616D656E745B
:1023700020757365643A2025642E25646D202564DC
:102380002E256467003B46696C616D656E7420752F
:102390007365643A20256C642E256C646D003B45A2
:1023A000787472756465727320757365643A20542D
:1023B00025642025642E2564205425642025642E60
:1023C0002564003B20202065787472756465724432
:1023D00069616D657465722C25642E25642C2564F5
:1023E0002E2564002E2E2E2054696D656F75742184
:1023F000002A2A2A2047656E69652057726974652C
:102400004F626A656374202A2A2A202D2D2D3E00F2
:102410002E2E2E204E414B2021002A2A2A204765AD
:102420006E69652057726974654F626A65637420CE
:102430002A2A2A202D2D2D3E002E2E2E2041434BC0
:102440002021002A2A2A2047656E69652057726973
:1024500074654F626A656374202A2A2A202D2D2D07
:102460003E002A2A2A2047656E6965204261642061
:1024700042797465202A2A2A202D2D2D3E2030787D
:10248000002056616C75653A200020496E646578BD
:102490003A20002A2A2A2047656E69652052657015
:1024A0006F7274204F626A656374202A2A2A204F53
:1024B000626A6563743A20002A2A2A2047656E6999
:1024C0006520436F6E6E6563746564202F205379B9
:1024D0006E6321202A2A2A002056616C75653A20F5
:1024E0000020496E6465783A20002A2A2A20476530
:1024F0006E6965205265706F7274204576656E74E2
:10250000202A2A2A204F626A6563743A2000204CF0
:10251000656E6774683A20002A2A2A2047656E692A
:1025200065205265636569766564204D61676963FE
:1025300020446F75626C65204279746573202A2A85
:102540002A20496E6465783A2000204C656E6774D5
:10255000683A20002A2A2A2047656E69652052655C
:10256000636569766564204D6167696320427974AB
:102570006573202A2A2A20496E6465783A20002A49
:102580002A2A2047656E6965204E414B20526563BB
:102590006F7665727920212121202A2A2A002A2A91
:1025A0002A2047656E696520446973636F6E6E65A6
:1025B000637465642066726F6D20446F4576656E46
:1025C000747321202A2A2A002A2A2A2047656E6944
:1025D0006520546F6F6B20746F6F206C6F6E672077
:1025E000746F2072652D656E74657220446F457638
:1025F000656E747328292C20726564756365206488
:10260000656C61797320696E20636F64652C20733B
:10261000656C662D70726F74656374696F6E20658A
:102620006E61626C65642E202A2A2A004572726FE0
:102630007220577269746520454550524F4D0053C2
:10264000657474696E67732053746F7265640A00F1
:10265000204D696E75746573203A0020204C6173BB
:1026600074207072696E742074696D652D3E204807
:102670006F757273203A004C617374207072696ECA
:1026800074206475726174696F6E0A002C2054683E
:10269000697264204944206E756D62657220002C59
:1026A000205365636F6E64204944206E756D6265CA
:1026B000723A200020204669727374204944206ECB
:1026C000756D6265723A2000554920496E666F72D9
:1026D0006D6174696F6E2053657269616C204E750F
:1026E0006D6265723A0A00206D2C204531207072AF
:1026F000696E742064697374616E63653A200020AA
:102700006B6D2C204530207072696E742064697383
:1027100074616E63653A2000206B6D2C2059207027
:1027200072696E742064697374616E63653A200027
:10273000206B6D2C205831207072696E7420646992
:102740007374616E63653A200020432C0A20583070
:10275000207072696E742064697374616E63653A87
:10276000200020432C206D61782074656D7020421C
:102770003A200020432C206D61782074656D702014
:10278000523A20002C206D61782074656D70204CC9
:102790003A2000682C207072696E74732066696E2E
:1027A00069736865643A20002C207072696E7469E0
:1027B0006E672074696D653A200020207072696E22
:1027C00074733A200053544154533A0A0020432C66
:1027D00020525F5052494E543A200020432C205240
:1027E0005F4245443A200020432C20525F52454D21
:1027F0004F56453A20002020525F494E53455254CF
:102800003A200054656D70202843293A0A0020437D
:102810002C204C5F5052494E543A200020432C202B
:102820004C5F4245443A200020432C204C5F5245E7
:102830004D4F56453A200020204C5F494E5345529B
:10284000543A200054656D70202843293A0A00202C
:10285000562856657273696F6E29200020522842EF
:1028600065642072696768742073637265772920D4
:102870000020204D353331204C28426564206C65A2
:102880006674207363726577292000426564204F67
:1028900066667365747320286D6D293A0A002050AE
:1028A000285A2070726F62652900205A2000205932
:1028B000200020204D353330205820004F666673AD
:1028C00065747320286D6D293A0A00204400204960
:1028D00000202D204D33303120524947485420509C
:1028E0000020440020490020204D333031204C4549
:1028F00046542050005049442073657474696E67D3
:10290000733A0A00205A0020590020204D323036F8
:10291000205800486F6D65206F66667365742028C7
:102920006D6D293A0A00204500205A0020580020E9
:10293000420020540020204D3230352053004164A5
:1029400076616E636564207661726961626C65733D
:102950003A20533D4D696E20666565647261746509
:1029600020286D6D2F73292C20543D4D696E2074E5
:10297000726176656C206665656472617465202895
:102980006D6D2F73292C20423D6D696E696D756DDB
:10299000207365676D656E742074696D6520286DA0
:1029A00073292C20583D6D6178696D756D205859DB
:1029B000206A65726B20286D6D2F73292C20205A98
:1029C0003D6D6178696D756D205A206A65726B2066
:1029D000286D6D2F73292C2020453D6D6178696D20
:1029E000756D2045206A65726B20286D6D2F7329E7
:1029F0000A0020540020204D32303420530041631F
:102A000063656C65726174696F6E3A20533D6163F2
:102A100063656C65726174696F6E2C20543D7265DC
:102A2000747261637420616363656C65726174695B
:102A30006F6E0A00204500205A0020590020204DCA
:102A40003230312058004D6178696D756D204163D9
:102A500063656C65726174696F6E20286D6D2F738C
:102A600032293A0A00204500205A0020590020202F
:102A70004D3230332058004D6178696D756D206698
:102A8000656564726174657320286D6D2F73293AD2
:102A90000A00204500205A0020590020204D3932DC
:102AA00020580053746570732070657220756E69CC
:102AB000743A0A004D313037004E6577206C6179E9
:102AC00065722064657465637465640A003B206CFC
:102AD00061796572003B4C41594552002569206877
:102AE0006F757273202569206D696E75746573004A
:102AF000446F6E65207072696E74696E67206669D6
:102B00006C650A004D333300506175736520706148
:102B1000726B696E670A00473639005072696E74CD
:102B200065722073746F70706564206475652074BD
:102B30006F206572726F72732E20466978207468F8
:102B400065206572726F7220616E642075736520F6
:102B50004D39393920746F20726573746172742E27
:102B6000202854656D706572617475726520697393
:102B70002072657365742E2053657420697420611A
:102B8000667465722072657374617274696E672908
:102B90000A006F6B0A004E6F204C696E65204E75FF
:102BA0006D626572207769746820636865636B7312
:102BB000756D2C204C617374204C696E653A200051
:102BC0004E6F20436865636B73756D207769746819
:102BD000206C696E65206E756D6265722C204C618B
:102BE0007374204C696E653A2000636865636B738B
:102BF000756D206D69736D617463682C204C617311
:102C000074204C696E653A20004C696E65204E75E3
:102C10006D626572206973206E6F74204C617374ED
:102C2000204C696E65204E756D6265722B312C20CB
:102C30004C617374204C696E653A20004D3131301F
:102C400000CDAC03440080934300005243000000D9
:102C50000000000000000000007C3C3E5E2B3D3F79
:102C60002F5B5D3B2C2A225C006563686F3A004D48
:102C70003234004D3233202573006175746F25693D
:102C80002E6700504944204175746F74756E65203D
:102C900066696E6973686564210A00504944204181
:102CA00075746F74756E65206661696C656421204A
:102CB00074696D656F75740A0020403A006F6B206F
:102CC000543A006F6B20423A0050494420417574D9
:102CD0006F74756E65206661696C6564212054654A
:102CE0006D706572617475726520746F6F206869AC
:102CF00067680A00204B643A2000204B693A2000A4
:102D0000204B703A200020436C617373696320503C
:102D10004944200A002054753A2000204B753A207F
:102D200000206D61783A2000206D696E3A20002005
:102D3000643A200020626961733A20003B20472DED
:102D4000436F64652067656E6572617465642062B7
:102D5000792053696D706C69667933442852292053
:102D600056657273696F6E202564005265616479DF
:102D700020746F204C6F61642F556E6C6F616420FE
:102D80000A0053746F7265642073657474696E67AA
:102D900073207265747269657665640A00486172B1
:102DA00064636F6465642044656661756C74205368
:102DB000657474696E6773204C6F616465640A00A2
:102DC00048617264636F6465642043616C6962206A
:102DD000616E64205049442044656661756C7420BE
:102DE00053657474696E6773204C6F616465640A1F
:102DF00000473639204143544956415445440A005E
:102E000095028F0211241FBECFEFD1E2DEBFCDBFEE
:102E100000E00CBF18E0A0E0B2E0E6E0F4E903E077
:102E20000BBF02C007900D92A831B107D9F72DE171
:102E3000A8E1B8E001C01D92A13BB207E1F717E19C
:102E4000C1E0D7E100E006C021970109802FFE0113
:102E50000F94E4C6C030D10780E00807A9F70F94AB
:102E600002A80D94F2C90C9400002F923F924F9249
:102E70005F926F927F928F929F92AF92BF92CF920A
:102E8000DF92EF92FF920F931F93CF93DF93CDB713
:102E9000DEB7C352D1400FB6F894DEBF0FBECDBF30
:102EA0002DB73EB7CE5DDE4F39832883C252D14065
:102EB00011E010936C0880914E0881110CC00E94A3
:102EC00069DF60934A0870934B0880934C08909395
:102ED0004D0810934E088091420881110DC00E9448
:102EE00069DF60933E0870933F0880934008909399
:102EF000410881E0809342089091FF194091970228
:102F0000509198026091990270919A02911106C0B5
:102F10008091001A882311F40C942B22453A510514
:102F20006105710509F44DC60CF0C3C04735510564
:102F30006105710509F4BAC40CF05EC04132510557
:102F40006105710511F40C94432034F541315105AC
:102F50006105710509F4FCC774F441305105610540
:102F6000710509F4E8C2403151056105710509F4A4
:102F7000BBC10C94D75C433151056105710509F45F
:102F80007DC40CF49BC4403251056105710511F4F8
:102F90000C9452200C94D75C4134510561057105A5
:102FA00009F4DBC4ACF4453351056105710511F436
:102FB0000C94F7204D3351056105710509F4F4C3F4
:102FC000413351056105710511F00C94D75C31C492
:102FD000463451056105710509F4C3C443355105F3
:102FE0006105710509F4C3C24434510561057105D9
:102FF00009F495C70C94D75C4739510561057105F3
:1030000011F40C94DD204CF546375105610571052E
:1030100009F476C474F4483551056105710509F465
:10302000E9C34A3551056105710509F416C60C94CA
:10303000D75C4E3751056105710509F48DC14938DA
:1030400051056105710509F443C24B37510561050E
:10305000710511F00C94D75C00C64C39510561051F
:10306000710511F40C9473209CF44A3951056105E3
:10307000710511F40C94612014F00C946A20483905
:1030800051056105710511F40C94CC200C94D75CAA
:10309000433A51056105710509F480C50CF0B7C5C7
:1030A0004D3951056105710511F40C94A0200C9463
:1030B000D75C4F3E51056105710509F472C20CF0F1
:1030C00088C0433D51056105710511F40C94E72159
:1030D000BCF5483A51056105710509F4ABC504F525
:1030E000463A51056105710509F400C5473A510595
:1030F0006105710511F00C94D75C80916508909181
:103100006608A0916708B09168089160809365088F
:1031100090936608A0936708B09368080C94D75CF6
:103120004A3A51056105710509F40CC50CF45CC5FA
:103130004E3B51056105710509F46EC30C94D75CD3
:10314000453E51056105710509F40FC414F5433E70
:1031500051056105710509F41BC40CF06AC4423EB7
:1031600051056105710511F00C94D75C80916508DB
:1031700090916608A0916708B0916808826080937A
:10318000650890936608A0936708B09368080C944C
:10319000D75C4D3E51056105710509F40BC10CF07A
:1031A000C2C14A3E51056105710511F00C94D75C0E
:1031B00040E050E06EE681E20F94155C80913D0A9C
:1031C00090913E0A926090933E0A80933D0A0C943F
:1031D000D75C4B3F51056105710509F405C484F5C1
:1031E000473F51056105710509F436C4A4F4423F17
:1031F00051056105710509F4BAC1463F51056105E4
:10320000710509F44EC4413F51056105710511F086
:103210000C94D75C90C18091650890916608A0914C
:103220006708B09168082091C5023091C602493FF5
:1032300051056105710509F498C40CF46AC4BBC357
:103240004E3631E053076105710509F4A8C0B4F5A5
:10325000483691E059076105710509F4BFC74A3640
:10326000A1E05A076105710509F499C0453651403E
:103270006105710511F00C94D75C40E050E06AE202
:103280008AE00F94155C40E050E064E581E20F9421
:10329000155C81E08093DE111092E1116AEB78E019
:1032A00086E20F94235D80913D0A90913E0A9860DA
:1032B00090933E0A80933D0A0C94D75C4937E1E035
:1032C0005E076105710509F43FC64538F1E05F0707
:1032D0006105710509F46CC14837514061057105FC
:1032E00011F00C94D75C9CC580912302813419F5B0
:1032F00041E050E066E08BE10F94155C41E050E066
:1033000060E181E20F94155C41E050E062E181E20E
:103310000F94155C41E050E063E181E20F94155C8D
:1033200041E050E06EE781E20F94155C84E4809305
:1033300023020C94D75C843411F00C94D75C8091F8
:103340003D0A90913E0A806490933E0A80933D0A24
:103350001092DE110C94D75C40E050E066E08BE107
:103360000F94155C40E050E060E181E20F94155C41
:1033700040E050E062E181E20F94155C40E050E0F3
:1033800063E181E20F94155C40E050E06EE781E27A
:103390000F94155C81E4809323020C94D75C809198
:1033A0003D0A90913E0A926090933E0A80933D0AB6
:1033B0000C94D75C80912302823419F583E48093C6
:1033C000230241E050E063E08BE10F94155C41E0A3
:1033D00050E067E581E20F94155C41E050E066E75C
:1033E00081E20F94155C41E050E06DEE81E20F94B4
:1033F000155C41E050E069E881E20F94155C0C94A3
:10340000D75C833411F00C94D75C11E01093610801
:1034100040E050E068E981E20F94155C40E050E044
:1034200067E981E20F94155C40E050E06CE981E2CD
:103430000F94155C40E050E06DE981E20F94155C5B
:1034400041E050E06AE481E20F94155C40E050E016
:103450006CE28AE00F94155C1093E1118FEF9FEFFF
:10346000909379028093780240E050E06AE981E22B
:103470000F94155C40E050E06BE981E20F94155C1D
:103480006091721D7091731D8091741D9091751DD6
:103490000F940CC4AB0166E289E00F94155C609157
:1034A000761D7091771D8091781D9091791D0F94F4
:1034B0000CC4AB0167E289E00F94155C40E050E07A
:1034C00068E289E00F94155C1092DE110C94D75CD1
:1034D00080912302833411F00C94D75C82E48093B2
:1034E000230240E050E063E08BE10F94155C40E084
:1034F00050E067E581E20F94155C40E050E066E73C
:1035000081E20F94155C40E050E06DEE81E20F9493
:10351000155C40E050E069E881E20F94155C109280
:10352000E1110C94D75C40E050E064E58AE00F9430
:10353000155C0C94D75C1092DE1180E00F945E3520
:1035400080913D0A90913E0A826090933E0A80935A
:103550003D0A81E08093E51140E050E068E08AE0B8
:103560000F94155C81E48093E6110C94D75C8091F4
:10357000420A882311F40C94D75C41E050E080911A
:103580003F0A8A3011F440E050E066E18BE10F948D
:10359000155C40E050E062E58AE00F94155C0C9405
:1035A000D75C89E480931D020F94A70D0C94D75C1F
:1035B00080919F1D9091A01D9093AD118093AC11AF
:1035C0000F94AD408091A11D9091A21D9093AF11D9
:1035D0008093AE110F94AD4082E48093230282E584
:1035E00080931D0281E08093E1111092DE118091A1
:1035F0003F0AE1E08A3009F4E0E0E093FA09F0E004
:10360000EE0FFF1FE455FE4E2081318130933D08BF
:1036100020933C088A3029F480915F1190916011C9
:1036200004C08091631190916411918380830F9401
:10363000AD4081E48093E61140E050E068E08AE02C
:103640000F94155C40E050E064E581E20F94155C56
:1036500080E090E0A3E4B3E48093CF119093D01185
:10366000A093D111B093D2118090E6099090E70910
:10367000A090E809B090E9092091CB113091CC11CC
:103680004091CD115091CE116091C7117091C81128
:103690008091C9119091CA11EAEB6E2EE1E17E2E64
:1036A0007F926F92F3EDCF2EF1E1DF2EE12CF12C22
:1036B00003E413E40E9472C60F94134480E090E088
:1036C000A0E2B1E48093CB119093CC11A093CD11E3
:1036D000B093CE118090E2099090E309A090E409A4
:1036E000B090E509E090CF11F090D0110091D11188
:1036F0001091D2116091C7117091C8118091C911B8
:103700009091CA117F926F9220E030E040E251E444
:103710000E9472C60F9413440F900F900F900F9059
:103720008091E6118E3411F40C94EC291092E6117C
:103730000E94506440E050E060E289E00F94155C24
:1037400040E050E064E28AE00F94155C0091FA09D1
:1037500010E0F801EE0FFF1FEE0FFF1FEE58F24EC4
:1037600060817181828193810F940CC470935F0892
:1037700060935E08000F111FF801E455FE4E808132
:1037800091810A9790935D0880935C0810925B0882
:1037900010925A0889E48093E6110E94506481E0F7
:1037A000809360080C94D75C8091230240E050E045
:1037B000813441F469E08AE00F94155C6AEB78E0AB
:1037C00082E007C06AE28AE00F94155C6AEB78E059
:1037D00086E20F94235D80913D0A90913E0A9860A5
:1037E00090933E0A80933D0A1092E1111092DE11EF
:1037F0000C94D75C8091450981110C94D75C809121
:10380000001A81110C94D75C40E050E069E38AE033
:103810000F94155C0C94D75C8091450981110C9430
:10382000D75C40E050E061E08AE00F94155C0C94B6
:10383000D75C8091450981110C94D75C10912302CB
:10384000113411F00C94D75C1092DE111092FF1914
:1038500081E08093001A40E050E068E08AE00F9435
:10386000155C1093E61180913D0A90913E0A946098
:1038700090933E0A80933D0A0C94D75C809123027A
:10388000813439F440E050E061E08AE00F94155C47
:10389000ADCF843409F0AACF80913D0A90913E0AC1
:1038A000906190933E0A80933D0AA0CF80912302BD
:1038B000823441F3833409F099CFEECF8091230213
:1038C000992369F0813459F480913D0A90913E0A20
:1038D000886090933E0A80933D0A0C94D75C8434B0
:1038E00011F00C94D75C80913D0A90913E0A80685B
:1038F00090933E0A80933D0A1092DE110C94D75C9F
:103900008091001A882311F40C94D75C80912302D3
:10391000823459F480913D0A90913E0A80619093DF
:103920003E0A80933D0A0C94D75C833411F00C94CA
:10393000D75C40E050E066E18AE00F94155C41E01E
:1039400050E064E581E20F94155C82E580931D02EE
:1039500081E08093E1110C94D75C0F9452080C9491
:10396000D75C0F94DC070C94D75C8091650890912C
:103970006608A0916708B091680884608093650824
:1039800090936608A0936708B09368080C94D75C7E
:103990008091650890916608A0916708B0916808C9
:1039A00088608093650890936608A0936708B09339
:1039B00068080C94D75C2330310559F4A1608093DA
:1039C000650890936608A0936708B09368080C9404
:1039D000D75C84608093650890936608A09367081D
:1039E000B09368080C94D75C2091C5023091C60250
:1039F0008091650890916608A0916708B091680869
:103A00002330310559F4A2608093650890936608CD
:103A1000A0936708B09368080C94D75C8860809383
:103A2000650890936608A0936708B09368080C94A3
:103A3000D75C8091650890916608A0916708B09165
:103A4000680881608093650890936608A093670872
:103A5000B09368080C94D75C2091C5023091C602DF
:103A60008091650890916608A0916708B0916808F8
:103A70002330310559F4906180936508909366086E
:103A8000A0936708B09368080C94D75C816080931A
:103A9000650890936608A0936708B09368080C9433
:103AA000D75C2091C5023091C60280916508909143
:103AB0006608A0916708B09168082330310559F471
:103AC00090628093650890936608A0936708B0930E
:103AD00068080C94D75C82608093650890936608B0
:103AE000A0936708B09368080C94D75C8091650830
:103AF00090916608A0916708B091680880628093F1
:103B0000650890936608A0936708B09368080C94C2
:103B1000D75C2330310559F4906480936508909305
:103B20006608A0936708B09368080C94D75C80621D
:103B30008093650890936608A0936708B09368081F
:103B40000C94D75C8091650890916608A0916708F5
:103B5000B091680880618093650890936608A0938F
:103B60006708B09368080C94D75C2330310559F48A
:103B700090688093650890936608A0936708B09357
:103B800068080C94D75C8061809365089093660800
:103B9000A0936708B09368080C94D75C809165087F
:103BA00090916608A0916708B0916808806480933E
:103BB000650890936608A0936708B09368080C9412
:103BC000D75C8091650890916608A0916708B091D4
:103BD000680880688093650890936608A0936708DA
:103BE000B09368080C94D75C809165089091660842
:103BF000A0916708B09168089260809365089093DF
:103C00006608A0936708B09368080C94D75C80910D
:103C1000650890916608A0916708B0916808946063
:103C20008093650890936608A0936708B09368082E
:103C30000C94D75C8091650890916608A091670804
:103C4000B091680898608093650890936608A09387
:103C50006708B09368080C94D75C4A355105610534
:103C6000710519F41092FA0903C081E08093FA09F2
:103C70008091FA09E82FF0E0EE0FFF1FE455FE4EA9
:103C80002081318130933D0820933C08811105C08B
:103C900080915F119091601104C0809163119091A7
:103CA0006411918380830F94AD4081E48093E61189
:103CB00040E050E068E08AE00F94155C40E050E09E
:103CC00064E581E20F94155C80E090E0A3E4B3E446
:103CD0008093CF119093D011A093D111B093D211B2
:103CE0008090E6099090E709A090E809B090E90972
:103CF0002091CB113091CC114091CD115091CE112A
:103D00006091C7117091C8118091C9119091CA1129
:103D1000EAEB6E2EE1E17E2E7F926F92F3EDCF2ED5
:103D2000F1E1DF2EE12CF12C03E413E40E9472C6D2
:103D30000F94134480E090E0A0E2B1E48093CB11B3
:103D40009093CC11A093CD11B093CE118090E20945
:103D50009090E309A090E409B090E509E090CF11BC
:103D6000F090D0110091D1111091D2116091C71132
:103D70007091C8118091C9119091CA117F926F9270
:103D800020E030E040E251E40E9472C60F941344F8
:103D90000F900F900F900F908091E6118E3411F4D8
:103DA0000C94EC291092E6110E94506440E050E01F
:103DB00060E289E00F94155C40E050E064E28AE044
:103DC0000F94155C0091FA0910E0F801EE0FFF1F47
:103DD000EE0FFF1FEE58F24E608171818281938158
:103DE0000F940CC470935F0860935E08000F111F5E
:103DF000F801E455FE4E808191810A9790935D0809
:103E000080935C0810925B0810925A0889E48093B2
:103E1000E6110E94506481E0809360080C94D75CA6
:103E200040E050E060E289E00F94155C40E050E033
:103E300064E28AE00F94155C89E48093E6110E94A5
:103E400050640091FA0901111DC080916111909197
:103E500062116091031170910411681779072CF4B5
:103E6000BC01990F880B990B04C0072E000C880B1E
:103E7000990B0F94D7BB0F940CC47093AD11609342
:103E8000AC1120C080916511909166116091FD1078
:103E90007091FE10681779072CF4BC01990F880BFC
:103EA000990B04C0072E000C880B990B0F94D7BBFD
:103EB00010E0000F111F04551E4E0F940CC4D801C2
:103EC0006D937C930F94AD400091FA0910E0F801D6
:103ED000EE0FFF1FEE0FFF1FEE58F24E6081718153
:103EE000828193810F940CC470935F0860935E0885
:103EF000000F111FF801E455FE4E808191810A9751
:103F000090935D0880935C0810925B0810925A08A9
:103F10000E94506481E0809360080C94D75C80918B
:103F20008B02882311F40C94E55C8091FA098111CD
:103F300002C08AE101C086E30E94D8DD892B11F01E
:103F40000C94E55C0C94D75C0F94C8080C94D75C77
:103F50008091630881FF02C00C94D75C90911D0A88
:103F600080911C0A98130C94665E40E050E06BE070
:103F700084E10F94155C40E050E065E18AE00F9425
:103F8000155C82E48093E61180936612E091FA0951
:103F900034E0E39FF0011124E555FD4F608171810C
:103FA000828193816093C7117093C8118093C91166
:103FB0009093CA11E090CF11F090D0110091D111DF
:103FC0001091D2112091CB113091CC114091CD1193
:103FD0005091CE11EAEFF9E0FF93EF93812C912CF1
:103FE000E8E4AE2EE3E4BE2EF3EDCF2EF1E1DF2EBA
:103FF0000E9472C6E090CF11F090D0110091D111C3
:104000001091D2112091CB113091CC114091CD1152
:104010005091CE11E091BA1164E0E69FF0011124B5
:10402000E555FD4F60817181828193810F94A55D7B
:10403000E091BA1184E0E89FF0011124E555FD4FAD
:1040400080819181A281B3818093C7119093C8111F
:10405000A093C911B093CA11E091FA09F0E0EE0FF4
:10406000FF1FE455FE4E80913C0890913D089183DE
:1040700080830F94AD401092420A0F9413440F9026
:104080000F900C94D75C8091630881FF02C00C9460
:10409000D75C90911D0A20911C0A29130C946A5E2A
:1040A0000C946D5E8091630881FF02C00C94D75C14
:1040B00090911D0A20911C0A29130C946A5E0C949D
:1040C000715E90911D0A80911C0A98130C94D75C24
:1040D0000C94755E90911D0A80911C0A98130C94A3
:1040E000D75C0C94005FE0917802F0917902EF3F89
:1040F0009FEFF90711F40C94D75CEE0FFF1FE45506
:10410000FE4E808191818B33A1E09A0714F00C94CC
:10411000D75C0596918380830F94AD400F94AD409A
:10412000E0917802F0917902EE0FFF1FE455FE4E08
:104130004081518168E289E00F94155C0C94D75C52
:10414000E0917802F0917902EF3FBFEFFB0711F4A5
:104150000C94D75CEE0FFF1FE455FE4E80819181D9
:104160001816190614F00C94D75C05979183808378
:104170000F94AD400F94AD40E0917802F091790238
:10418000EE0FFF1FE455FE4E4081518168E289E049
:104190000F94155C0C94D75C809178029091790211
:1041A000019611F40C94D75C90911D0A80911C0A21
:1041B00098130C946A5E0C948E5F809178029091B3
:1041C0007902019611F40C94D75C90911D0A8091AC
:1041D0001C0A98130C946A5E0C94945F90911D0ACB
:1041E00080911C0A98130C94D75C0C949A5F809170
:1041F0006612823411F00C94D75C1092E611809113
:104200003D0A90913E0A8D7F90933E0A80933D0A2D
:1042100080911D02823531F489E480931D020F9450
:10422000A70DD1C0893409F0CEC081E48093E61196
:1042300040E050E068E08AE00F94155C4090D908B7
:104240005090DA086090DB087090DC084092CB1147
:104250005092CC116092CD117092CE1120E030E0DE
:1042600040E752E460915E0270915F0280916002CB
:10427000909161020F9460C34B015C01E090CF11FB
:10428000F090D0110091D1111091D2116091C7110D
:104290007091C8118091C9119091CA112AEB31E136
:1042A0003F932F9323EDC22E21E1D22EA301920141
:1042B0000E9472C60F9413440F900F908091E611E4
:1042C0008E3411F40C94EC2920E030E040E251E40B
:1042D0006091DD087091DE088091DF089091E00820
:1042E0000F9472C27B018C016093CF117093D01137
:1042F0008093D1119093D2118091D40889838090BA
:10430000620290906302A0906402B09065022091D6
:10431000CB113091CC114091CD115091CE116091C3
:10432000C7117091C8118091C9119091CA11FE01F5
:104330003196FF93EF930E9472C60F9413440F902F
:104340000F908091E6118E3411F40C94EC291092A8
:10435000E61182E48093230240E050E063E08BE1C9
:104360000F94155C40E050E067E581E20F94155C26
:1043700040E050E066E781E20F94155C40E050E0D9
:104380006DEE81E20F94155C40E050E069E881E257
:104390000F94155C40E050E06AE28AE00F94155CEF
:1043A00081E08093DE111092E1116AEB78E086E201
:1043B0000F94235D80913D0A90913E0A98609093FE
:1043C0003E0A80933D0A109266120C94D75C80914D
:1043D000F8101092E6118823E9F01092F8108091FD
:1043E0003D0A90913E0A986090933E0A80933D0A60
:1043F0008091230240E050E0813431F469E08AE0AA
:104400000F94155C0C94D75C6AE28AE00F94155CFB
:104410000C94D75C10926D111092E111EBE8F8E06A
:1044200084918F01882351F0082E000C990B0F9472
:10443000657D0F5F1F4FF8018491F4CF10926B08D8
:1044400081E00F94090340E050E065E08AE00F94BA
:10445000155C0C94D75C8091B508282F287083FFD9
:1044600090C39091B908923008F48BC3413B510539
:104470006105710509F4A8C0B4F54436510561051C
:10448000710509F4A1C1A4F44E355105610571050A
:1044900009F4F0C24F3551056105710509F41CC3DB
:1044A000453351056105710511F00C94D75C27C3A4
:1044B000403A51056105710509F4C8C0423A5105F9
:1044C0006105710509F46AC043385105610571053C
:1044D00011F00C94D75C40E050E06DE68AE00F9458
:1044E000155C0C94D75C4233F1E05F076105710500
:1044F00009F45CC13CF5453C51056105710509F4C1
:1045000079C04C3C51056105710509F489C0423BF5
:1045100051056105710511F00C94D75C0F94BE072D
:1045200041E050E062EB81E20F94155C41E050E025
:1045300060EA81E20F94155C1092440210924302EB
:104540000C94D75C463331E053076105710509F4DB
:1045500017C1ACF4433351406105710511F00C945F
:10456000D75C8DEF9FEF909368128093671240E0C5
:1045700050E06AE08AE00F94155C0C94D75C4E37EB
:10458000A1E05A076105710509F4F2C148385140AC
:104590006105710509F424C10C94D75C0F94BE0722
:1045A00041E050E062EA81E20F94155C41E050E0A6
:1045B00060EA81E20F94155C8EEF9FEF90934402C6
:1045C000809343020C94D75C0F94BE0741E050E007
:1045D00061EB81E20F94155C41E050E060EA81E21A
:1045E0000F94155C8FEF9FEF9093440280934302EA
:1045F0000C94D75C0F94BE0741E050E065EC81E27B
:104600000F94155C41E050E060EA81E20F94155C84
:1046100081E090E090934402809343020C94D75C35
:104620000F94BE0741E050E06CEC81E20F94155C02
:1046300041E050E060EA81E20F94155C82E090E096
:1046400090934402809343020C94D75C0091430200
:104650001091440298012E5F3F4F2530310510F034
:104660000C94D75C9230D9F583E08093B90840E090
:1046700050E061E18AE00F94155C80E58093E611DB
:104680008091B608800F8093B60800E010E020E02B
:1046900030E04CE553EC60E070E088E393EC0F947D
:1046A000F69E0F94BE0780E697E0909344028093B5
:1046B000430240E050E060EA81E20F94155C42E082
:1046C00050E06CE08BE10F94155C40E050E069E154
:1046D0008AE00F94155C1092E6110C94D75C93302D
:1046E000D9F584E08093B90840E050E061E18AE0C8
:1046F0000F94155C80E58093E6118091B708800FD8
:104700008093B70800E010E020E030E04CE553EC87
:1047100060E070E080E493E40F94F69E0F94BE078F
:1047200080E697E0909344028093430240E050E09B
:1047300060EA81E20F94155C42E050E06CE08BE1AE
:104740000F94155C40E050E069E18AE00F94155C3D
:104750001092E6110C94D75C943011F00C94D75C55
:104760008091B808800F8093B80840E050E06EE276
:104770008AE00F94155C8FE48093E6110C94D75C6B
:104780000F94BE0740E050E060EA81E20F94155CB0
:1047900040E050E069E18AE00F94155C80E697E024
:1047A00090934402809343020C94D75C83E090E0A2
:1047B000909368128093671240E050E06AE08AE0CC
:1047C0000F94155C0C94D75C1092681210926712CB
:1047D00040E050E06AE08AE00F94155C0C94D75CEE
:1047E00040E050E068E08AE00F94155C81E480933B
:1047F000E61141E061E081E00E942DD81092E611BF
:104800000F9413440F94370A109167128091B908DE
:104810008230B1F540E050E061E18AE00F94155C30
:1048200080E58093E6110091B608010F0093B60869
:10483000002E000C110B20E030E0A901CA01B901E3
:104840000F94F69E0F94BE0780E697E09093440283
:104850008093430240E050E060EA81E20F94155CEF
:1048600042E050E06CE08BE10F94155C40E050E0DA
:1048700069E18AE00F94155C1092E6110C94D75C04
:104880008330C9F540E050E061E18AE00F94155CA7
:1048900080E58093E6110091B708010F0093B708F7
:1048A000002E000C110B20E030E04CE553EC60E0F2
:1048B00070E088E393EC0F94F69E0F94BE0780E6B9
:1048C00097E0909344028093430240E050E060EA16
:1048D00081E20F94155C42E050E06CE08BE10F94B4
:1048E000155C40E050E069E18AE00F94155C10929D
:1048F000E6110C94D75C843011F00C94D75C40E046
:1049000050E061E18AE00F94155C80E58093E61148
:104910000091B808010F0093B808002E000C110B8D
:1049200020E030E04CE553EC60E070E080E493E49C
:104930000F94F69E0F94BE0780E697E09093440292
:104940008093430240E050E060EA81E20F94155CFE
:1049500042E050E06CE08BE10F94155C40E050E0E9
:1049600069E18AE00F94155C1092E6110C94D75C13
:104970001092E6118091B6084091B708042F081BE9
:104980004091B808142F181B602F002E000C770BD5
:10499000880B990B0F94D7BB2DEC3CEC4CEC5DEBEA
:1049A0000F94DFB660933509709336098093370909
:1049B00090933809612F012E000C770B880B990B0F
:1049C0000F94D7BB2DEC3CEC4CEC5DEB0F94DFB6B9
:1049D00060933109709332098093330990933409BD
:1049E0000023A1F040E050E06FE18AE00F94155CF5
:1049F00007FF07C0E02FFF27E1950CF4F09508E0D2
:104A00000E0F402F000F550B64E015C01123B9F0B5
:104A100040E050E060E28AE00F94155C17FF07C0A9
:104A2000212F332721950CF4309518E0120F412FD8
:104A3000110F550B65E08BE10F94155C11C014E468
:104A40001093661240E050E06BE084E10F94155C37
:104A500040E050E065E18AE00F94155C1093E611A8
:104A60008AEE90E09093300980932F090F944A6862
:104A70000C94D75C4091B8088091B608142F181B8D
:104A8000C1F040E050E060E28AE00F94155C17FF4F
:104A900007C0812F992781950CF4909518E0180F85
:104AA000412F110F550B65E08BE10F94155C0C94B1
:104AB000D75C14E41093661240E050E06BE084E1B0
:104AC0000F94155C40E050E065E18AE00F94155CBE
:104AD0001093E6110C94D75C14E41093661240E036
:104AE00050E06BE084E10F94155C40E050E065E13C
:104AF0008AE00F94155C1093E6110C94D75C9091AA
:104B00006612943411F00C94D75C1092B908877F28
:104B10008093B5081092E6111092A7111092A61179
:104B20000F9469401092AD111092AC110F94AD40EA
:104B30001092AF111092AE110F94AD4010926D1102
:104B40001092E111E0E8F8E084918F01882351F0A0
:104B5000082E000C990B0F94657D0F5F1F4FF80115
:104B60008491F4CF10926B0880E00F94090340E029
:104B700050E065E08AE00F94155C109266120C9488
:104B8000D75C4E38F1E05F0710F00C94D75CFA0167
:104B90008827EE58FF4F8F4F0D94E4C68091210275
:104BA00090912202826090932202809321020C94C1
:104BB000D75C80912102909122028460909322021E
:104BC000809321020C94D75C809121029091220263
:104BD000886090932202809321020C94D75C80918C
:104BE00021029091220280619093220280932102FF
:104BF0000C94D75C80912102909122028062909364
:104C00002202809321020C94D75C0F94B436009753
:104C100081F480912102909122029460909322026B
:104C200080932102809197118150809397110C9469
:104C3000D75C019711F00C94D75C80912102909180
:104C400022029460909322028093210240E050E07F
:104C500067E381E20F94155C40E050E061E08BE196
:104C60000F94155C809197118150809397110C944B
:104C7000D75C10926D111092E111E5E7F8E0849194
:104C80008F01882351F0082E000C990B0F94657D3D
:104C90000F5F1F4FF8018491F4CF10926B0881E0F1
:104CA0000F94090340E050E065E08AE00F94155C42
:104CB0000C94D75C8091011A882311F40C94D75C72
:104CC00041E061E082E09AE10F9447398FEF9FEF76
:104CD0009093F0198093EF19412C512C32017301FC
:104CE000620100E010E08EE9A82E89E1B82E9E0155
:104CF0002F5F3F4F190188248394912C4091A01C71
:104D00005091A11C6091A21C7091A31C8091FB1B6F
:104D10009091FC1BA091FD1BB091FE1B8417950781
:104D2000A607B70708F06DC0D501E2E31D92EA952A
:104D3000E9F70F942B5F0196D9F41092EA191092BB
:104D4000E9191092EC191092EB1981E090E0909320
:104D5000EE198093ED191092FA191092F919109228
:104D6000FC191092FB1980E00F945E350C94B75F2C
:104D70000115110521F52FEF3FEF3A8329833F926B
:104D80002F924CE35DE25F934F93BF92AF920F94EB
:104D9000B0BB89819A810F900F900F900F900F9068
:104DA0000F90019639F09092F0198092EF1907E078
:104DB00010E021C01092F0191092EF191CC080E091
:104DC0000F943BB46B017C0181E00F943BB42B0149
:104DD0003C0120E030E0A901C701B6010F944AC5AB
:104DE00018167CF020E030E0A901C301B2010F9455
:104DF0004AC5181634F00F5F1F4F0E3111050CF421
:104E00007DCF80E00F945E3520E030E0A901C7013E
:104E1000B6010F94D1BB18165CF020E030E0A90178
:104E2000C301B2010F94D1BB181614F00C94B75FF4
:104E30008090450290904602A0904702B0904802B0
:104E4000A5019401C701B6010F94D1BB811114C013
:104E500020E030E0A901C701B6010F944AC5181639
:104E60005CF420E030E0A901C301B2010F94D1BB92
:104E7000181614F00C94B75F2091490230914A0241
:104E800040914B0250914C02C65EDE4F288339831D
:104E90004A835B83CA51D140C301B2010F94D1BB95
:104EA00081111EC020E030E0A901C301B2010F94BE
:104EB0004AC518165CF420E030E0A901C701B6012C
:104EC0000F94D1BB181614F00C94B75FA501940190
:104ED000C701B6010F94D1BB882311F40C94B75FBE
:104EE00020E030E0A901C701B6010F94D1BB20E05A
:104EF00030E040E251E418161CF0C501B40102C0D4
:104F0000C701B6010F94DFB60F940CC4609308027A
:104F100020E030E0A901C301B2010F94D1BB20E031
:104F200030E040E251E418164CF0C65EDE4F688176
:104F300079818A819B81CA51D14002C0C301B201EB
:104F40000F94DFB60F940CC46093090240E050E068
:104F50006FE58AE00F94155C6091450270914602FE
:104F600080914702909148020F940CC4AB016DE40C
:104F700089E00F94155C20E030E040E251E460915C
:104F800045027091460280914702909148020F9429
:104F9000DFB60F940CC40AE010E0CB01B8010F9407
:104FA000B5C6AC016EE489E00F94155C60914902CE
:104FB00070914A0280914B0290914C020F940CC464
:104FC000AB016FE489E00F94155C20E030E040E233
:104FD00051E46091490270914A0280914B02909194
:104FE0004C020F94DFB60F940CC4CB01B8010F94A0
:104FF000B5C6AC0160E589E00F94155C80910802AC
:105000001AE0612F0F9494C6482F880F550B61E565
:1050100089E00F94155C80910802612F0F9494C66B
:10502000492F990F550B62E589E00F94155C80912B
:105030000902612F0F9494C6482F880F550B63E522
:1050400089E00F94155C80910902612F0F9494C63A
:10505000492F990F550B64E589E00F94155CBCC18D
:105060008091011A882311F40C94D75C8091511A15
:1050700081110C94D75CCDB6DEB680916908909111
:105080006A080F94C138E2E0FAE1DF010D900020D8
:10509000E9F78DB79EB78A1B9B0B9C012250364EB9
:1050A0000FB6F8943EBF0FBE2DBF0DB71EB70F5FF2
:1050B0001F4FFF93EF9385E198E09F938F931F938A
:1050C0000F930F9482BB780134E0E30EF11C0F9034
:1050D0000F900F900F900F900F90D7018C91882315
:1050E00049F0082E000C990B0F9462C9F7018193C7
:1050F0007F01F3CFC8010F947B0381E198E00F9407
:105100000C030FB6F894DEBE0FBECDBE0C94D75C78
:1051100081E080936D118091210290912202926032
:1051200090932202809321020C94D75C80912102FB
:1051300090912202916090932202809321020C941C
:10514000D75C809121029091220280689093220284
:10515000809321020C94D75C40E050E062E18AE049
:105160000F94155C0C94D75C40E050E06CE18AE051
:105170000F94155C80E00F9409031092811D10922A
:10518000801D10927F1D81E080936B080C94D75C8A
:1051900010926D111092E111E6E0F8E084918F0118
:1051A000882351F0082E000C990B0F94657D0F5F3A
:1051B0001F4FF8018491F4CF10926B080E94506445
:1051C00081E00F94090340E050E065E08AE00F942D
:1051D000155C0C94D75C8091AC119091AD11892B2A
:1051E00029F01092AD111092AC1108C080916109A4
:1051F000909162099093AD118093AC110F94AD40E2
:105200001092811D0C94D75C8091AE119091AF11DA
:10521000892B29F01092AF111092AE1108C0809125
:105220005E0990915F099093AF118093AE110F9436
:10523000AD401092801D0C94D75C8091A611909186
:10524000A711892B29F01092A7111092A6111CC04A
:105250008091B3089091B4086091B1087091B20840
:10526000681779072CF4BC01990F880B990B04C0BF
:10527000072E000C880B990B0F94D7BB0F940CC40E
:105280007093A7116093A6110F94694010927F1D2F
:105290000C94D75C82E098E00F940C030C94D75CDC
:1052A00040E050E06EE18AE00F94155C0C94D75C0E
:1052B00040E050E065E08AE00F94155C10926D11BB
:1052C0001092E111E7EFF7E084918F01882351F00C
:1052D000082E000C990B0F94657D0F5F1F4FF8018E
:1052E0008491F4CF10926B0888E793E09093C40206
:1052F0008093C3020F944A680C94D75C40E050E05E
:105300006AE18AE00F94155C0F94BD338091011A15
:10531000882311F40C94D75C809196118093971197
:10532000BEE6EB2EB1E1FB2E12E8C12E11E1D12E2B
:1053300000E010E08091961190E008171907FCF446
:1053400062E07AE189E79AE10F9432755701D7015B
:105350008D919D917D010F94C138F50180819181DE
:10536000D6018D939D936D018091511A882321F070
:1053700082E09AE10F94563D0F5F1F4FDBCF87E02D
:1053800090E00F942D120C94D75C8091C302909101
:10539000C4028036974041F488E793E09093C402BA
:1053A0008093C3020F944A6840E050E068E08AE0CE
:1053B0000F94155C81E48093E6118091670988233E
:1053C000D1F040E061E081E00E942DD80F941344B9
:1053D0008091E6118E3489F48FEF9FEFDC0180938A
:1053E000970290939802A0939902B0939A02109218
:1053F0006C080C942B6441E0E5CF81E00F94090325
:105400001092E61184EF97E00F940C030F9413446D
:105410008091E6118E3401F340E050E06BE08AE0C9
:105420000F94155C0C94D75C40E050E064E08AE097
:105430000F94155C0C94D75C40E050E064E28AE085
:105440000F94155C80917E1D826080937E1D89E49F
:105450008093E61140E050E060E289E00F94155C33
:105460006091610970916209072E000C880B990BFD
:105470000F94D7BB40E050E00F94BF840F944A686C
:105480006BE974E085E797E10F946A7D6EE974E05B
:1054900085E797E10F946A7D60911503709116037B
:1054A000809117039091180342E050E00F94173752
:1054B00062EA74E085E797E10F946A7D2DEB37E3AC
:1054C00046E05EE360910D0370910E0380910F033F
:1054D000909110030F9460C342E050E00F9417378F
:1054E00066EA74E085E797E10F946A7D2DEB37E378
:1054F00046E05EE360910503709106038091070327
:10550000909108030F94DFB642E050E00F941737F4
:1055100060915E0970915F09072E000C880B990B52
:105520000F94D7BB41E050E00F94BF840F944A68BA
:105530006BE974E085E797E10F946A7D6EE974E0AA
:1055400085E797E10F946A7D6091190370911A03C2
:1055500080911B0390911C0342E050E00F94173799
:1055600062EA74E085E797E10F946A7D2DEB37E3FB
:1055700046E05EE360911103709112038091130382
:10558000909114030F9460C342E050E00F941737DA
:1055900066EA74E085E797E10F946A7D2DEB37E3C7
:1055A00046E05EE36091090370910A0380910B036A
:1055B00090910C030F94DFB642E050E00F94173740
:1055C0001092E6110E94506440E050E06BE084E1EC
:1055D0000F94155C40E050E065E18AE00F94155CA3
:1055E00081E00F94090384E4809366128093E611AE
:1055F0000C94D75C40E050E068E28AE00F94155CC0
:105600000C94D75C40E050E062E18AE00F94155CB6
:105610000C94D75C10926D111092E111E9EEF7E055
:1056200084918F01882351F0082E000C990B0F9460
:10563000657D0F5F1F4FF8018491F4CF10926B08C6
:105640000E94506440E050E065E08AE00F94155CF1
:105650000C94D75C40E050E062E18AE00F94155C66
:105660000C94D75C82E580931D0280917E1D816041
:1056700080937E1D40E050E06BE581E20F94155C65
:1056800040E050E06CE581E20F94155C40E050E0B2
:1056900060E08BE10F94155C40E050E06AE781E246
:1056A0000F94155C40E050E069E781E20F94155CCF
:1056B00040E050E06DE18AE00F94155C8FEF80933D
:1056C000FA090C94D75C40E050E06CE68AE00F9455
:1056D000155C0C94D75C40E050E062E18AE00F94E6
:1056E000155C40E050E06BE581E20F94155C40E012
:1056F00050E06CE581E20F94155C40E050E060E022
:105700008BE10F94155C40E050E06AE781E20F9472
:10571000155C40E050E069E781E20F94155C8091F0
:105720007E1D8E7F80937E1D0C94D75C10926D1130
:105730001092E111EEEDF7E084918F01882351F092
:10574000082E000C990B0F94657D0F5F1F4FF80119
:105750008491F4CF10926B0840E050E065E08AE05D
:105760000F94155C40E050E06BE581E20F94155C0E
:1057700040E050E06CE581E20F94155C40E050E0C1
:1057800060E08BE10F94155C40E050E06AE781E255
:105790000F94155C40E050E069E781E20F94155CDE
:1057A00080917E1D8E7F80937E1D0C94D75C41E09E
:1057B00050E06BE581E20F94155C40E050E06CE551
:1057C00081E20F94155C41E050E060E08BE10F94C2
:1057D000155C41E050E06AE781E20F94155C41E01E
:1057E00050E069E781E20F94155C1092FA090C947D
:1057F000D75C40E050E06BE581E20F94155C41E03E
:1058000050E06CE581E20F94155C41E050E060E00F
:105810008BE10F94155C41E050E06AE781E20F9460
:10582000155C41E050E069E781E20F94155C81E08E
:105830008093FA090C94D75C8091C3029091C402C2
:105840008036974041F488E793E09093C4028093B8
:10585000C3020F944A688091FA098F3F11F40C94A7
:10586000D75C0F949AB10C94D75C8091C30290914D
:10587000C4028036974041F488E793E09093C402D5
:105880008093C3020F944A68E091FA09EF3F11F444
:105890000C94D75C81E08093E411F0E0EE0FFF1FE1
:1058A000E455FE4E84E091E0918380830F94AD40F7
:1058B00081E48093E61140E050E068E08AE00F94D4
:1058C000155C80916709882311F040E001C041E038
:1058D00061E081E00E942DD80F9413448091E6117D
:1058E0008E3409F479CD80E090E0A3E4B3E48093B2
:1058F000CF119093D011A093D111B093D211809079
:10590000E6099090E709A090E809B090E909209194
:10591000CB113091CC114091CD115091CE116091AD
:10592000C7117091C8118091C9119091CA11AAEB49
:105930006A2EA1E17A2E7F926F92B3EDCB2EB1E168
:10594000DB2EE12CF12C03E413E40E9472C60F94C9
:1059500013440F900F908091E6118E3409F43CCDE2
:1059600080E090E0A0E2B1E48093CB119093CC1161
:10597000A093CD11B093CE118090E2099090E309ED
:10598000A090E409B090E509E090CF11F090D0111B
:105990000091D1111091D2116091C7117091C8116D
:1059A0008091C9119091CA117F926F9220E030E0EE
:1059B00040E251E40E9472C60F9413440F900F907E
:1059C0008091E6118E3409F407CD8091FA09811196
:1059D00011C080E090E00F94D62380E090E0ADE924
:1059E000B2E48093C7119093C811A093C911B093EA
:1059F000CA1120C081E090E00F94D62320E030E06F
:105A000048EC51E46091AF027091B0028091B10214
:105A10009091B2020F9471C220E030E046E552E46A
:105A20000F9471C26093C7117093C8118093C9110C
:105A30009093CA11E090CF11F090D0110091D11144
:105A40001091D2112091CB113091CC114091CD11F8
:105A50005091CE116091C7117091C8118091C911F8
:105A60009091CA11EAEFF9E0FF93EF93812C912C0A
:105A7000E8E4AE2EE3E4BE2EF3EDCF2EF1E1DF2E0F
:105A80000E9472C60F9413440F900F908091E611FC
:105A90008E3409F4A1CC1092E6110E94506440E0CB
:105AA00050E065E28AE00F94155C0C94D75C80911D
:105AB0007E1D877C846080937E1D0C94D75C8091D2
:105AC0007E1D837D806180937E1D0C94D75C8091C8
:105AD0007E1D837E806280937E1D0C94D75C8091B6
