:100000000C9495160C94C6160C94C6160C94C61631
:100010000C94C6160C94C6160C94C6160C94C616F0
:100020000C94C6160C94C6160C94C6160C94C616E0
:100030000C94C6160C94C6160C94C6160C94C616D0
:100040000C94C6160C94E1CD0C94C6160C94C616EE
:100050000C94C6160C94C6160C9449A60C9422A4B3
:100060000C94C6160C94CFA00C94A6A00C94C616A3
:100070000C94C6160C94C6160C94C6160C94C61690
:100080000C94C6160C94C6160C94C6160C94C61680
:100090000C94C6160C94C6160C94C6160C94C61670
:1000A0000C94C6160C94C6160C94C6160C94C61660
:1000B0000C94C6160C94C6160C94C6160C94C61650
:1000C0000C94C6160C94C6160C94C6160C947DA0FF
:1000D0000C9454A00C94C6160C94C6160C94C61618
:1000E0000C94C6167C2B8673D62BAD278673B41E54
:1000F0008673001F867386732839A21F86738673E2
:100100007E1A791A8673923A867386738673734160
:100110009C414C4B754BDD4F86730C436B43CA437C
:1001200050469245FA3AEC3A7F27F1458673DA1E3B
:10013000101B7A1ECF26733D5327D24A1555272709
:10014000FB26FB4A244B8673A72BC54163362A3E08
:10015000291F8D1A831A867335341421634F8673D1
:100160008C4FB5229E4B802F041E8A510F35AD5601
:10017000FE2F0F4CEE41065079212B2E2B2E512DA8
:1001800080300631F622B91FD01F5E1F4623741A35
:10019000881A867386738673292CEE233124FB1FFD
:1001A000F43CB03C1742404268429142BA42E342BA
:1001B000F94322444B4474449D44C644EE441745DD
:1001C0004045694506477F469D4782490C49A648F8
:1001D0008673B54F8F237524AB25292C7F2DA82D31
:1001E000E72DA94A3D4EC24E364F804A3437CE1ACB
:1001F0003F5E342B867386738E5B8673593C083B57
:1002000024327E32D7328E315132AA3204338A33CD
:100210005E332A2A162AD23BDB27BE28A829DF29EB
:10022000B75B3B2A022B32338673867386738673E1
:1002300086738673867386738673733D22204B2084
:100240009220865DE45D8E4EF64E9E4B364F2F50CB
:100250004F518673E3555C563A55AB55AC52DC565C
:1002600086730B533038965951394A3ADA598673A6
:100270008673E4574F58BC582959BB570B575857EA
:100280001E5A415B215D86738673B65C86738673E6
:10029000535D8673A221C154D652365311543A5439
:1002A0007A1EEA54719C499D0B9EE79D6C9DE79DCB
:1002B000C39D959CB99CDD9C849EA89ECC9EF09E7F
:1002C000259D019D9F9D83A186A175A179A17FA1F7
:1002D000BDA18AA18EA194A198A19CA1A2A1A6A131
:1002E000AAA1BDA1B0A1B4A1B8A13EA343A348A3B4
:1002F00052A35CA3D5A366A36EA376A380A38AA30F
:1003000094A3A3A3ADA3D5A3B7A3C1A3CBA3D3A603
:10031000E0A6FCA609A723A730A74AA74CA74EA78B
:1003200050A758A7084AD73B3BCE016E84BCBFFDFF
:10033000C12F3D6C74319ABD56833DDA3D00C77FB5
:1003400011BED9E4BB4C3E916BAAAABE000000804E
:100350003F05A84CCDB2D44EB93836A9020C50B9DD
:10036000918688083CA6AAAA2ABE000000803F0009
:100370000D94267D0D94FB7C0D948F9B0D94B30002
:100380000D94839D0D94B2004E414E494E495459EF
:10039000494E46CDCCCC3D0AD7233C17B7D1387750
:1003A000CC2B329595E6241FB14F0A000020410066
:1003B00000C84200401C4620BCBE4CCA1B0E5AAEB0
:1003C000C59D746364696E6F70737578585B003B8C
:1003D000202020757365526166742C2564004D36AB
:1003E00030352053256400253364202563430025E0
:1003F0003364202563430050757267652046696C3D
:10040000616D656E740A0053757266696E6720319E
:100410000A0053757266696E6720300A00473334EC
:1004200000494E464F3A204245442043414C494200
:10043000202D200053757266696E6720300A0047D0
:100440003238205830205930005430005431005494
:10045000300054300053757266696E6720300A00B0
:1004600047343300473433004734310047343000D9
:1004700047333400473433004734330047343100C6
:10048000473430004D3834004D3834004D38340096
:100490005A32204F66667365743A20004F4B2073C2
:1004A00065636F6E642045787472756465722100AF
:1004B0005A20706F736974696F6E3A20005A207009
:1004C0006F736974696F6E3A20004D3834005A3189
:1004D0002050726F6265206F66667365743A200003
:1004E0004F4B206669727374204578747275646529
:1004F0007221200A005A20706F736974696F6E3A16
:1005000020005A20706F736974696F6E3A2000433F
:10051000616C63756C75733A20200043616C637580
:100520006C75733A20200043616C63756C75733A87
:1005300020200043616C63756C75733A202000368F
:10054000302064656772656573200A00543000547A
:10055000300054300043616C6962726174696F6E7F
:10056000205375636365737366756C0A00543000BD
:100570004A756D70206F766572207363726577318E
:1005800020616E6420736372657732200A004A75B9
:100590006D70206F76657220736372657731200A03
:1005A00000473334004733340047333400543000BD
:1005B00047333400494E464F3A2042454420434198
:1005C0004C4942202D20004C6F6164696E670A001F
:1005D00053757266696E6720300A005375726669DA
:1005E0006E6720300A0053757266696E6720300AA4
:1005F00000253364202563430025336420256343AD
:1006000000253364202563430050757267652046DA
:10061000696C616D656E740A00253364202563433F
:10062000002533642025634300253364202563437C
:10063000002533642025634300253364202563436C
:10064000002533642025634300253364202563435C
:1006500000253364202563430053757266696E6715
:1006600020300A0053757266696E6720300A0054A4
:100670003000466F756E640053757266696E672050
:10068000300A004D33340053757266696E6720304E
:100690000A004D3234004D3233202573004D323480
:1006A000004D3233202573005468652066697273EB
:1006B00074206C61796572207072696E7465642053
:1006C000776974682074686520257320486F7465A5
:1006D0006E640A77696C6C20626520646973746F5C
:1006E000727465642062792025642E253164253179
:1006F00064206D6D0053757266696E6720300A0064
:1007000053757266696E6720300A005375726669A8
:100710006E6720300A00535543434553530A002562
:10072000336420256343002533642025634300257B
:10073000336420256343002533642025634300256B
:10074000336420256343002533642025634300255B
:10075000336420256343002533642025634300254B
:10076000336420256343004C6F6164696E673A0A05
:10077000002533642025634300253364202563432B
:100780000025336420256343005075726765204659
:10079000696C616D656E74200A00457874727564C9
:1007A00065722072656C656173656420616374694C
:1007B00076653A20005A205349474D4120486F6DD5
:1007C000656400457874727564657220616374694C
:1007D00076653A20005374617274696E67205A20FE
:1007E00043616C6962726174696F6E2057697A61E6
:1007F00072640047363920414354495641544544B8
:10080000000A00205A3A200020593A200020583A85
:100810002000426564002F005344207072696E749A
:10082000696E67206279746520004E6F74205344AE
:10083000207072696E74696E67002E0044656C6585
:1008400074696F6E206661696C65642C2046696C02
:10085000653A200046696C652064656C6574656462
:100860003A002E006F70656E206661696C65642CBD
:100870002046696C653A2000204500205A00205926
:1008800000483D58004649524D574152455F4E4140
:100890004D453A4D61726C696E2056313B20537064
:1008A00072696E7465722F6772626C206D61736815
:1008B000757020666F722067656E36204649524D0E
:1008C000574152455F55524C3A68747470733A2FD1
:1008D0002F6769746875622E636F6D2F4572696B3F
:1008E0005A616C6D2F4D61726C696E2F2050524FA2
:1008F000544F434F4C5F56455253494F4E3A312E59
:1009000030204D414348494E455F545950453A4D7A
:10091000656E64656C2045585452554445525F439A
:100920004F554E543A3220555549443A30303030C4
:10093000303030302D303030302D303030302D30C0
:100940003030302D303030303030303030303030AA
:100950000A007A5F6D696E3A2000795F6D61783ABE
:100960002000785F6D61783A2000785F6D696E3A9B
:100970002000486F74656E64206F666673657473DB
:100980003A00504F534954494F4E20484F4D453A35
:1009900020002200556E6B6E6F776E20636F6D6D59
:1009A000616E643A202200466F726D20322100523F
:1009B0006561647920746F204C6F61642F556E6C93
:1009C0006F6164200A0025642525002533642025F5
:1009D0006343002533642025634300253364256386
:1009E00043202F202533642563430025336425638A
:1009F00043202F202533642563430025336425637A
:100A000043202F20253364256343005375726669A4
:100A10006E672030200A0043616C696272617469FC
:100A20006F6E205375636365737366756C0A00544B
:100A300030004D383420582059205A204500202DB0
:100A400020496E76616C696420657874727564659E
:100A500072206E756D6265722021004572726F7230
:100A60003A0067636F646520666F756E640020747A
:100A70006F20537461727420446973706C617920C3
:100A800066726F6D20526573657400546F6F6B20D2
:100A900000646973706C6179206F6E6C696E65219A
:100AA00000646973706C6179206F66666C696E654D
:100AB000210042434E3344205369676D61007374D3
:100AC000617274006563686F3A0030322D312E32E6
:100AD0002E37006572726F722077726974696E6763
:100AE00020746F2066696C6500205A3A0020593ADC
:100AF0000020583A00656E6473746F7073206869E3
:100B0000743A20006563686F3A00446F6E65207325
:100B10006176696E672066696C652E006F6B004DAB
:100B200032390070012C0190012701B0012201C06F
:100B3000011D01F00118011002130130020E0160C5
:100B400002090190020401C002FF000003FA004004
:100B500003F5008003F000D003EB002004E60070F2
:100B600004E100E004DC004005D700C005D20040ED
:100B700006CD00D006C8008007C3003008BE00F0D4
:100B800008B900C009B400B00AAF00B00BAA00D089
:100B90000CA500000EA000500F9B00C01096005046
:100BA00012910000148C00C0158700B0178200B0AD
:100BB000197D00D01B7800001E730040206E00904D
:100BC000226900F024640040275F0090295A00E069
:100BD0002B5500102E500020304B0010324600E004
:100BE00033410090353C001037370070383200A098
:100BF000392D00B03A2800A03B2300603C1E0010B5
:100C00003D1900903D1400103E0F00703E0A00C0D8
:100C10003E0500003F000048797374657265736992
:100C2000732074656D7065726174757265005468C7
:100C300065726D616C2072756E617761792070727A
:100C40006F74656374696F6E2062792048656174A2
:100C500065725F49443A004572726F7228383329D1
:100C60003A2042656420746865726D6973746F72AE
:100C7000206E6F74206465746563746564004572EA
:100C8000726F72283832293A20526967687420746A
:100C90006865726D6973746F72206E6F742064651D
:100CA000746563746564004572726F722838312907
:100CB0003A204C65667420746865726D6973746F50
:100CC00072206E6F742020646574656374656400BF
:100CD0002053544F50205052494E54200A00457220
:100CE000726F72283833293A20426564207468652F
:100CF000726D6973746F72206E6F742064657465B1
:100D000063746564002053544F50205052494E5430
:100D1000200A004572726F72283832293A205269CF
:100D200067687420746865726D6973746F72206E81
:100D30006F74206465746563746564002053544F58
:100D400050205052494E54200A004572726F72284A
:100D50003831293A204C65667420746865726D6973
:100D600073746F72206E6F74202064657465637491
:100D700065640000002100240027002A002D0030B7
:100D800000330001010000040107010A01000022F4
:100D900000250028002B002E003100340002010045
:100DA00000050108010B0100002000230026002996
:100DB000002C002F00320000010000030106010991
:100DC0000105050505070508080808020202020AD0
:100DD0000A080804040404010101010101010103DE
:100DE00003030303030303040707070C0C0C0C0C99
:100DF0000C0C0C0202020206060606060606060B8C
:100E00000B0B0B0B0B0B0B01021020200808102002
:100E10004010204080020102010804020101020486
:100E20000810204080804020100804020180040245
:100E3000018040201008040201080402010102049C
:100E40000810204080010204081020408000000AA1
:100E50000B02090C0D0E080703040100000000003E
:100E60000000000000000000000000000000000082
:100E7000000000000000000000121110000000003F
:100E80000000000000000000000000000000000062
:100E9000000000526573656E643A20006F6B004479
:100EA00075616C204D6F6465204F4E004475616C18
:100EB000204D6972726F72204D6F6465204F4E0035
:100EC0004475616C204D6F6465204F464600436F4A
:100ED0006F6C696E6720446F776E2048656174653A
:100EE00072005072696E7465722068616C7465641A
:100EF0002E206B696C6C28292063616C6C65642101
:100F0000004572726F723A002A2A2A2047656E697C
:100F100065204261642042797465202A2A2A202DA6
:100F20002D2D3E203078002056616C75653A2000EA
:100F300020496E6465783A20002A2A2A2047656E87
:100F40006965205265706F7274204F626A656374C0
:100F5000202A2A2A204F626A6563743A20002A2ACE
:100F60002A2047656E696520436F6E6E6563746500
:100F700064202F2053796E6321202A2A2A002056CC
:100F8000616C75653A200020496E6465783A2000EE
:100F90002A2A2A2047656E6965205265706F72742F
:100FA000204576656E74202A2A2A204F626A65637E
:100FB000743A2000204C656E6774683A20002A2A33
:100FC0002A2047656E6965205265636569766564A8
:100FD000204D6167696320446F75626C65204279BA
:100FE000746573202A2A2A20496E6465783A2000A5
:100FF000204C656E6774683A20002A2A2A204765CB
:101000006E6965205265636569766564204D616728
:101010006963204279746573202A2A2A20496E6404
:1010200065783A20002A2A2A2047656E6965204E95
:10103000414B205265636F76657279202121212012
:101040002A2A2A002A2A2A2047656E6965204469CF
:1010500073636F6E6E65637465642066726F6D2076
:10106000446F4576656E747321202A2A2A002A2A45
:101070002A2047656E696520546F6F6B20746F6F0F
:10108000206C6F6E6720746F2072652D656E7465BD
:101090007220446F4576656E747328292C20726522
:1010A000647563652064656C61797320696E206383
:1010B0006F64652C2073656C662D70726F74656348
:1010C00074696F6E20656E61626C65642E202A2AD9
:1010D0002A002A2A2A2047656E69652044697363BD
:1010E0006F6E6E65637465642066726F6D20476510
:1010F000744E6578744279746521202A2A2A002A60
:101100002A2A2047656E696520456E61626C6520FC
:101110004174746163684576656E7448616E646C91
:10112000657220212121202A2A2A0024F4D430505B
:10113000C38E20C2A24017828B7011127A910D814A
:101140006CD90AA861E108C7586607615143061EB9
:101150004B5D05C145A7041A411104093D9803716F
:101160003931034036DB0265339102D430540280BA
:101170002E1D02632CEE01752AC501B028A00110B6
:101180002781018F2564012B244B01E0223401AC1F
:10119000211F018D200D01801FFC00841EED009792
:1011A0001DDF00B81CD200E61BC600201BBC00647B
:1011B0001AB200B219A8000A19A0006A189900D141
:1011C00017910040178B00B516840031167E00B3CE
:1011D0001579003A157300C7146F0058146A00EEB1
:1011E0001366008813630025135E00C7125B006C52
:1011F00012570015125400C111510070114F0021F7
:10120000114B00D61049008D1047004610440002D3
:10121000104200C00F4000800F3E00420F3C00060D
:101220000F3B00CB0E3800930E37005C0E350027C5
:101230000E3400F30D3200C10D3100900D3000600E
:101240000D2E00320D2D00050D2C00D90C2B00AEFB
:101250000C2900850C29005C0C2700350C27000E9A
:101260000C2600E80B2400C40B2400A00B23007DF7
:101270000B23005A0B2100390B2100180B2000F81A
:101280000A1F00D90A1E00BB0A1E009D0A1D00800D
:101290000A1D00630A1C00470A1B002C0A1B0011D0
:1012A0000A1A00F7091A00DD091900C4091900AB70
:1012B000091900920917007B091800630917004CEF
:1012C00009160036091600200916000A091500F54E
:1012D000081500E0081400CC081400B8081400A495
:1012E000081400900813007D0812006B08130058C2
:1012F00008120046081200340811002308110012D9
:1013000008110001081100F0071000E0071000D0DC
:10131000071000C0071000B0070F00A107100091D0
:10132000070E0083070F0074070F0065070E0057B4
:10133000070E0049070E003B070D002E070E002088
:10134000070D0013070D0006070D00F9060C00ED50
:10135000060D00E0060C00D4060C00C8060C00BC0C
:10136000060C00B0060C00A4060B0099060C008DBC
:10137000060B0082060B0077060B006C060B006163
:10138000060A0057060B004C060A0042060A0038FF
:10139000060A002E060A0024060A001A060A001091
:1013A00006090007060A00FD050900F4050900EB1F
:1013B000050900E2050900D9050900D0050900C7A3
:1013C000050900BE050900B5050800AD050800A522
:1013D0000509009C050800940508008C0508008498
:1013E0000508007C050800740508006C0507006509
:1013F0000508005D050700560508004E0507004773
:101400000507004005080038050700310507002AD8
:10141000050700230507001C050600160507000F39
:101420000507000805060002050700FB040600F595
:10143000040700EE040600E8040600E2040700DBEF
:10144000040600D5040600CF040600C9040600C344
:10145000040600BD040600B7040600B1040500AC94
:10146000040600A6040600A00405009B04060095DF
:10147000040500900406008A040500850405008028
:101480000406007A04050075040500700405006B6D
:1014900004050066040500610405005C04050057AE
:1014A000040500520405004D0405004804050043EE
:1014B0000405003E0404003A04050035040500302C
:1014C0000404002C04050027040400230405001E66
:1014D0000404001A04040016040500110404000D9D
:1014E000040400090405000404040000040400FCD2
:1014F000030400F8030400F4030400F0030400EC08
:10150000030400E8030400E4030400E0030400DC37
:10151000030400D8030400D4030400D0030400CC67
:10152000030400C8030300C503030024F404D92006
:101530001BC40C5C0E9804C4095F0265077101F4BA
:1015400005F900FB04B30048048700C10369005893
:1015500003550003034500BE023A008402310053E4
:10156000022A002902250004022000E4011C00C810
:10157000011900AF011700980114008401130071D4
:101580000110006101100051010E0043010D0036F1
:10159000010B002B010B0020010B00150109000CB1
:1015A00001090003010800FB000800F3000800EB3C
:1015B000000700E4000600DE000600D8000600D2A6
:1015C000000600CC000500C7000500C2000500BDF4
:1015D000000400B9000400B5000400B1000400AD2F
:1015E000000400A9000400A5000300A20003009F5E
:1015F0000004009B00030098000300950002009384
:10160000000300900003008D0002008B000300889F
:101610000002008600020084000300810002007FB7
:101620000002007D0002007B0002007900020077CA
:1016300000010076000200740002007200010071D7
:101640000002006F0002006D0001006C0002006AE1
:1016500000010069000200670001006600010065EA
:1016600000010064000200620001006100010060EE
:101670000001005F0002005D0001005C0001005BF2
:101680000001005A000100590001005800010057F4
:1016900000010056000100550001005400010053F4
:1016A00000000053000100520001005100010050F1
:1016B0000001004F0001004E0000004E0001004DEF
:1016C0000001004C0001004B0000004B0001004AEB
:1016D00000010049000100480000004800010047E7
:1016E00000010046000000460001004500000045E2
:1016F00000010044000100430000004300010042DB
:1017000000000042000100410000004100010040D3
:101710000001003F0000003F0001003E0000003ECD
:101720000001003D0000003D0001003C0000003CC5
:101730000000003C0001003B0000003B0001003ABB
:101740000000003A000100390000003900010038B3
:1017500000000038000000380001003700000037AA
:1017600000010036000000360000003600010035A0
:101770000000003500000035000100340000003496
:10178000000000340001003300000033000000338B
:101790000001003200000032000000320001003180
:1017A0000000003100000031000100300000003076
:1017B000000000300001002F0000002F0000002F6B
:1017C0000000002F0001002E0000002E0000002E5F
:1017D0000001002D0000002D0000002D0000002D54
:1017E0000001002C0000002C0000002C0000002C48
:1017F0000001002B0000002B0000002B0000002B3C
:101800000001002A0000002A0000002A0000002A2F
:101810000001002900000029000000290000002923
:101820000000002900010028000000280000002816
:101830000000002800000028000100270000002709
:1018400000000027000000270000002700010026FC
:1018500000000026000000260000002600000026F0
:1018600000010025000000250000002500000025E3
:1018700000000025000000250001002400000024D5
:1018800000000024000000240000002400010023C8
:1018900000000023000000230000002300000023BC
:1018A00000000023000000230001002200000022AD
:1018B00000000022000000220000002200000022A0
:1018C0000001002100000021000000210000002193
:1018D0000000002100000021000000210001002084
:1018E0000000002000000020000000200000002078
:1018F0000000002000000020000000200001001F68
:101900000000001F0000001F0000001F0000001F5B
:101910000000001F0000001F0001001E0000001E4C
:101920000000001E0000001E000000627566666573
:1019300072206F75743A2000427566666572313A9E
:10194000200043617264204E616D653A2000473289
:1019500038205830205930002569206D696E2C20C0
:10196000256920736563000A0A005374616E64611F
:10197000726420446576696174696F6E3A20000A6A
:10198000004D65616E3A20000A002020207A3A203E
:101990000000793A2000783A20003F53706563696F
:1019A00066696564206E756D626572206F66206C75
:1019B00065677320696E206D6F76656D656E742046
:1019C0006E6F7420706C61757361626C652E0A00B5
:1019D0003F537065636966696564205920706F7351
:1019E0006974696F6E206F7574206F662072616E06
:1019F00067652E0A003F53706563696669656420F8
:101A00005820706F736974696F6E206F7574206FE2
:101A1000662072616E67652E0A003F5370656369C8
:101A2000666965642073616D706C652073697A65A1
:101A3000206E6F7420706C61757361626C652E0A24
:101A40000046756C6C20737570706F7274206174D1
:101A50003A20687474703A2F2F33647072696E7410
:101A6000626F6172642E636F6D2F666F72756D2E7B
:101A70007068700A004D3438205A2D50726F6265BC
:101A8000205265706561746162696C697479207453
:101A90006573742E20202056657273696F6E203234
:101AA0002E30300A003F566572626F7365204C65B8
:101AB00076656C206E6F7420706C61757361626CFA
:101AC000652E0A003B20472D436F64652067656ED5
:101AD0006572617465642062792053696D706C6908
:101AE000667933442852292056657273696F6E20D7
:101AF0002564003B5072696E742074696D653A20EC
:101B00002564202573202564202573202564202545
:101B100073003B54494D453A256C64003B2020201E
:101B20004275696C642074696D653A2025642025CE
:101B300073202564202573003B202020506C6173A6
:101B4000746963207765696768743A2025642E2577
:101B50006467003B46696C616D656E7420757365E2
:101B6000643A2025642E25646D2025642E25646743
:101B7000003B46696C616D656E7420757365643AEF
:101B800020256C642E256C646D005341564544201D
:101B90005052494E540043616E6E6F7420656E74EE
:101BA0006572207375626469723A200057726974B5
:101BB000696E6720746F2066696C653A20002E009C
:101BC0006F70656E206661696C65642C2046696C77
:101BD000653A20002E006F70656E206661696C6545
:101BE000642C2046696C653A200046696C65207358
:101BF000656C6563746564002053697A653A2000FA
:101C000046696C65206F70656E65643A20002E0031
:101C10006F70656E206661696C65642C2046696C26
:101C2000653A20004E6F772066726573682066699A
:101C30006C653A20004E6F7720646F696E6720668E
:101C4000696C653A20002220706F73002220706159
:101C500072656E743A2200535542524F5554494EA4
:101C6000452043414C4C207461726765743A2200F0
:101C7000747279696E6720746F2063616C6C207375
:101C800075622D67636F64652066696C6573207784
:101C900069746820746F6F206D616E79206C657651
:101CA000656C732E204D4158206C6576656C2069FB
:101CB000733A007C3C3E5E2B3D3F2F5B5D3B2C2A04
:101CC000225C0053657474696E67732053746F727D
:101CD000656400204D696E75746573203A0020209C
:101CE0004C617374207072696E742074696D652D17
:101CF0003E20486F757273203A004C6173742070F7
:101D000072696E74206475726174696F6E002C2044
:101D10005468697264204944206E756D6265722052
:101D2000002C205365636F6E64204944206E756DEE
:101D30006265723A2000202046697273742049441B
:101D4000206E756D6265723A2000554920496E66B5
:101D50006F726D6174696F6E2053657269616C207A
:101D60004E756D6265723A00206D2C2045312070F1
:101D700072696E742064697374616E63653A2000E1
:101D8000206B6D2C204530207072696E7420646960
:101D90007374616E63653A2000206B6D2C205920AE
:101DA0007072696E742064697374616E63653A2041
:101DB00000206B6D2C205831207072696E74206485
:101DC000697374616E63653A200020432C0A2058C1
:101DD00030207072696E742064697374616E63651B
:101DE0003A200020432C206D61782074656D7020AE
:101DF000423A200020432C206D61782074656D707C
:101E000020523A20002C206D61782074656D70207E
:101E10004C3A2000682C207072696E7473206669D9
:101E20006E69736865643A20002C207072696E7464
:101E3000696E672074696D653A20002020707269B0
:101E40006E74733A200053544154533A0020432C8B
:101E500020525F5052494E543A200020432C2052C9
:101E60005F4245443A200020432C20525F52454DAA
:101E70004F56453A20002020525F494E5345525458
:101E80003A200054656D70202843293A0020432CE5
:101E9000204C5F5052494E543A200020432C204C95
:101EA0005F4245443A200020432C204C5F52454D70
:101EB0004F56453A200020204C5F494E534552541E
:101EC0003A200054656D70202843293A0020562896
:101ED00056657273696F6E2920002052284265642E
:101EE0002072696768742073637265772920002007
:101EF000204D353331204C28426564206C65667472
:101F0000207363726577292000426564204F6666FE
:101F10007365747320286D6D293A002050285A206B
:101F200070726F62652900205A200020592000201D
:101F3000204D353330205820004F6666736574732A
:101F400020286D6D293A00204400204900202D20D2
:101F50004D3330312052494748542050002044002E
:101F600020490020204D333031204C45465420502C
:101F7000005049442073657474696E67733A002099
:101F80005A0020590020204D323036205800486F2A
:101F90006D65206F666673657420286D6D293A0043
:101FA000204500205A0020580020420020540020E4
:101FB000204D323035205300416476616E63656494
:101FC000207661726961626C65733A20533D4D6998
:101FD0006E20666565647261746520286D6D2F736F
:101FE000292C20543D4D696E2074726176656C20F9
:101FF000666565647261746520286D6D2F73292C88
:1020000020423D6D696E696D756D207365676D6504
:102010006E742074696D6520286D73292C20583DDD
:102020006D6178696D756D205859206A65726B20F5
:10203000286D6D2F73292C20205A3D6D6178696DB4
:10204000756D205A206A65726B20286D6D2F73297B
:102050002C2020453D6D6178696D756D2045206AA5
:1020600065726B20286D6D2F73290020540020208D
:102070004D323034205300416363656C6572617486
:10208000696F6E3A20533D616363656C657261747C
:10209000696F6E2C20543D726574726163742061A7
:1020A0006363656C65726174696F6E002045002022
:1020B0005A0020590020204D3230312058004D6107
:1020C00078696D756D20416363656C6572617469D3
:1020D0006F6E20286D6D2F7332293A002045002045
:1020E0005A0020590020204D3230332058004D61D5
:1020F00078696D756D2066656564726174657320BD
:10210000286D6D2F73293A00204500205A00205970
:102110000020204D393220580053746570732070B0
:10212000657220756E69743A000A0020616E7469E8
:10213000686F726172690A3A200020686F7261727A
:10214000690A20002F3800766F6C746573200020B8
:10215000566F6C74657320636172676F6C20333ADD
:10216000200020616E7469686F726172690A3A209A
:102170000020686F726172690A20002F3800766F44
:102180006C746573200020566F6C746573206361F6
:1021900072676F6C20323A20000A0020647A333A6A
:1021A000200020647A323A20005431005430005428
:1021B00030005430000056756974656E73333A20F0
:1021C00020004170726F78333A202000566F6C7493
:1021D0006573333A2020000056756974656E73325A
:1021E0003A2020004170726F78323A202000566FFA
:1021F0006C746573323A20200056616C6F722064F3
:102200005A333A20200056616C6F7220645A323A79
:102210002020004E6577206F6666736574207665B2
:102220007273696F6E3A20007A335F313A20007A18
:10223000325F313A20005A7363726F6C6C5F313ACF
:1022400020007A335F303A20007A325F303A200043
:102250005A7363726F6C6C5F303A2000706C616E01
:10226000654E6F726D616C5F312E7A3A2000706C32
:10227000616E654E6F726D616C5F312E793A200030
:10228000706C616E654E6F726D616C5F312E783A65
:102290002000706C616E654E6F726D616C5F302EE8
:1022A0007A3A2000706C616E654E6F726D616C5F82
:1022B000302E793A2000706C616E654E6F726D61E0
:1022C0006C5F302E783A20005A76616C756520611B
:1022D0006674657220686F6D653A00486F6D6520A1
:1022E000582F59206265666F7265205A002200657A
:1022F0006E717565696E672022002200656E7175CA
:1023000065696E672022002520336420252500257D
:10231000642068202564206D002520336420252555
:102320000025326420256343002533642025634360
:10233000002533642025634300526561647920746D
:102340006F204C6F61642F556E6C6F6164200A00C2
:102350002564252500253364202563430025336447
:1023600020256343002053544F50205052494E546F
:10237000200A00473238205830205930004D33357C
:1023800000526573756D652064657465637465647A
:10239000200A0047373000A1524553554D452120B2
:1023A0000A00A1504155534521200A0025336420DD
:1023B00025634300253364202563430025336420CF
:1023C00025634300253364202563430025336420BF
:1023D00025634300253364202563430025336420AF
:1023E000256343002533642025634300253364209F
:1023F000256343005052494E542053455454494E8E
:102400004753200A004578747275646572207265BE
:102410006C6561736564206163746976653A200058
:102420005A205349474D4120486F6D6564004578F7
:10243000747275646572206163746976653A200010
:102440000000000000809343000000000000A04056
:102450000000A0400000004020004D6F7665207411
:102460006F3A2000CDCC9843008093430000524344
:10247000FF01FF2042403A0020403A00202F003A5E
:1024800000205400202F0020423A00202F006F6BC4
:1024900020543A00426564204865617465640020F8
:1024A000423A0020453A00543A0045787472756407
:1024B0006572204865617465640020573A002045C4
:1024C0003A00543A00205A3A0020593A0020436F0B
:1024D000756E7420583A200020453A00205A3A0080
:1024E00020593A00583A00486F74656E64206F6650
:1024F00066736574733A004D3834005374617274B6
:10250000696E6720582043616C6962726174696FFB
:102510006E2057697A617264004D383400537461DB
:102520007274696E6720592043616C6962726174CC
:10253000696F6E2057697A617264007A70726F6297
:10254000653A200053442063617264206F6B006F12
:1025500070656E526F6F74206661696C6564007699
:102560006F6C756D652E696E6974206661696C6546
:1025700064004572726F723A00534420696E697448
:10258000206661696C006563686F3A004D32340003
:102590004D3233202573006175746F25692E6700F5
:1025A0002E2E2E2054696D656F757421002A2A2AFB
:1025B0002047656E69652057726974654F626A6568
:1025C0006374202A2A2A202D2D2D3E002E2E2E2007
:1025D0004E414B2021002A2A2A2047656E6965203A
:1025E00057726974654F626A656374202A2A2A20CB
:1025F0002D2D2D3E002E2E2E2041434B2021002A32
:102600002A2A2047656E69652057726974654F6292
:102610006A656374202A2A2A202D2D2D3E00256408
:10262000206974656D73002534643A252E32646820
:10263000202F202564670000496E7374616C6C2044
:102640002564202573206F6E207468652025732013
:10265000686F74656E640043616C63756C75733A82
:1026600020200043616C63756C75733A2020004331
:10267000616C63756C75733A202000496E737461E8
:102680006C6C202564202573206F6E207468652093
:10269000257320686F74656E64005049442041754D
:1026A000746F74756E652066696E69736865642100
:1026B0002050757420746865206C617374204B70B1
:1026C0002C204B6920616E64204B6420636F6E7315
:1026D00074616E74732066726F6D2061626F7665CF
:1026E00020696E746F20436F6E66696775726174DE
:1026F000696F6E2E6800504944204175746F74757F
:102700006E65206661696C6564212074696D656F12
:1027100075740020403A006F6B20543A006F6B20B4
:10272000423A00504944204175746F74756E6520BB
:102730006661696C6564212054656D7065726174B1
:1027400075726520746F6F206869676800204B643C
:102750003A2000204B693A2000204B703A2000209C
:10276000436C6173736963205049442000205475A1
:102770003A2000204B753A2000206D61783A200005
:10278000206D696E3A200020643A20002062696161
:10279000733A2000535441544953544943532052EF
:1027A00045534554002C2073617665645F466C6127
:1027B000675F66616E6C617965725F6D6972726F79
:1027C000723A20002C2073617665645F66656564EB
:1027D000726174653A20002C2073617665645F66CF
:1027E000616E6C617965723A20002C2073617665A8
:1027F000645F74656D706265643A20002C207361BB
:102800007665645F74656D70303A20002C207361CA
:102810007665645F74656D70313A20002C207361B9
:102820007665645F66696C65706F736974696F6EF5
:102830003A20002C2073617665645F655F706F736A
:102840006974696F6E3A20002C2073617665645F4D
:10285000746F6F6C5F6163746976653A20002C2039
:1028600073617665645F7A5F706F736974696F6EA8
:102870003A20002C2073617665645F795F706F7316
:102880006974696F6E3A20002C2073617665645F0D
:10289000785F706F736974696F6E3A2000534156A8
:1028A00045205052494E54204C4F473A00656368CA
:1028B0006F3A005072696E74207265636F7665724C
:1028C00079207570004E6F74207072696E7420727A
:1028D00065636F7665727920757000535543434583
:1028E00053530056616C756573206F7574206F6665
:1028F0002072616E67650056616C756573206F7537
:1029000074206F662072616E67650056616C756534
:1029100073206F7574206F662072616E6765005654
:10292000616C756573206F7574206F662072616EBF
:1029300067650020636F6C642065787472757369D5
:102940006F6E2070726576656E746564006563688D
:102950006F3A00535543434553530056616C7565B8
:1029600073206F7574206F662072616E6765005604
:10297000616C756573206F7574206F662072616E6F
:1029800067650056616C756573206F7574206F669E
:102990002072616E67650056616C756573206F7596
:1029A00074206F662072616E67650054696D6520E2
:1029B000696E61637469766500507572676520643D
:1029C000697374616E6365005A204F66667365743F
:1029D000206F6B005A204F6666736574203A2000A2
:1029E0007A5F6D61783A20007A5F6D696E3A2000F7
:1029F0005A204F666673657400504F534954494FCF
:102A00004E20484F4D453A20004D3834205820592B
:102A1000205A2045004D313037005430004D3130C0
:102A20003700473932204530205A30205225640083
:102A30004E6577206C617965722064657465637496
:102A40006564005A20686F7070696E6720646574F1
:102A5000656374656400256920686F75727320254D
:102A600069206D696E7574657300446F6E652070C2
:102A700072696E74696E672066696C65004D3333E8
:102A800000706175736520646574656374656420A6
:102A90000A00473639005072696E7465722073748B
:102AA0006F707065642064756520746F2065727244
:102AB0006F72732E20466978207468652065727283
:102AC0006F7220616E6420757365204D393939202D
:102AD000746F20726573746172742E202854656D52
:102AE00070657261747572652069732072657365B3
:102AF000742E205365742069742061667465722099
:102B000072657374617274696E6729006F6B004E31
:102B10006F204C696E65204E756D62657220776915
:102B2000746820636865636B73756D2C204C6173EA
:102B300074204C696E653A20004E6F2043686563CF
:102B40006B73756D2077697468206C696E65206E93
:102B5000756D6265722C204C617374204C696E65D2
:102B60003A2000636865636B73756D206D69736DE2
:102B7000617463682C204C617374204C696E653AF3
:102B800020004C696E65204E756D62657220697318
:102B9000206E6F74204C617374204C696E65204EFA
:102BA000756D6265722B312C204C617374204C69F9
:102BB0006E653A20004D3131300050494420417556
:102BC000746F74756E652066696E697368656421DB
:102BD00000504944204175746F74756E65206661BC
:102BE000696C6564212074696D656F75740020409F
:102BF0003A006F6B20543A006F6B20423A00504904
:102C000044204175746F74756E65206661696C65EA
:102C100064212054656D70657261747572652074ED
:102C20006F6F206869676800204B643A2000204B72
:102C3000693A2000204B703A200020436C61737386
:102C400069632050494420002054753A2000204BED
:102C5000753A2000206D61783A2000206D696E3A47
:102C6000200020643A200020626961733A200053FA
:102C7000746F7265642073657474696E6773207213
:102C800065747269657665640048617264636F6437
:102C900065642044656661756C742053657474695D
:102CA0006E6773204C6F6164656400486172646391
:102CB0006F6465642043616C696220616E642050BA
:102CC00049442044656661756C7420536574746969
:102CD0006E6773204C6F6164656400CDCC984300CF
:102CE00080934300005243000000000000000000F9
:102CF0000000000A00207A3A200020793A200020C3
:102D0000783A200042656400456E642066696C650F
:102D1000206C69737400426567696E2066696C6532
:102D2000206C69737400BC01C00111241FBECFEF79
:102D3000D1E2DEBFCDBF00E00CBF17E0A0E0B2E003
:102D4000E2E8F7E803E00BBF02C007900D92A2385B
:102D5000B107D9F729E1A2E8B7E001C01D92A43D6F
:102D6000B207E1F716E1C4E9D6E100E006C0219719
:102D70000109802FFE010F9424C1C339D10780E0DF
:102D80000807A9F70F946A920D94B0C30C94000041
:102D90002F923F924F925F926F927F928F929F926B
:102DA000AF92BF92CF92DF92EF92FF920F931F9359
:102DB000CF93DF93CDB7DEB7C353D1400FB6F894AE
:102DC000DEBF0FBECDBF2DB73EB7CE5CDE4F398321
:102DD0002883C253D1409091AB11992391F08091F7
:102DE000A91136E0839FF0011124E75BFE4EF080CD
:102DF000018112818F5F8F708093A9119150909300
:102E0000AB118091C40781110DC00E9416A460937C
:102E1000C0077093C1078093C2079093C30781E0F6
:102E20008093C4078091B80781110DC00E9416A439
:102E30006093B4077093B5078093B6079093B70774
:102E400081E08093B80747E0F4120C948673013256
:102E500011F00C94B05E8091950E81110C941E615E
:102E60009091960E91110C941E619091CC0799232C
:102E700009F42CC38091D007823008F427C317349B
:102E800009F489C1B0F41B32E1F140F4173109F4BF
:102E9000ADC0183109F4D1C00C948673103309F415
:102EA0007EC0153309F4D8C21F3211F00C9486731A
:102EB0004FC0103809F4E4C0D0F41E3509F49AC2AA
:102EC0001F3511F00C94867314E41093F81740E04A
:102ED00050E06BE084E10F942B4740E050E065E167
:102EE0008AE00F942B471093740A0C94867312385F
:102EF00009F424C108F4F3C01B3A09F4F9C10C9495
:102F000086730E9416A40091B4071091B507209112
:102F1000B6073091B707601771078207930710F45F
:102F20000C9486730E9416A4DC01CB0188539F4F3A
:102F3000AF4FBF4F8093B4079093B507A093B607E8
:102F4000B093B7078EEF9FEF0F947DAF0C9486730D
:102F50000E9416A40091B4071091B5072091B607FE
:102F60003091B707601771078207930710F40C942C
:102F700086730E9416A4DC01CB0188539F4FAF4F8C
:102F8000BF4F8093B4079093B507A093B607B09353
:102F9000B7078FEF9FEF0F947DAF0C9486730E945D
:102FA00016A40091B4071091B5072091B60730918F
:102FB000B707601771078207930710F40C948673A4
:102FC0000E9416A4DC01CB0188539F4FAF4FBF4F27
:102FD0008093B4079093B507A093B607B093B70753
:102FE00080E090E00F947DAF0C9486730E9416A44D
:102FF0000091B4071091B5072091B6073091B7073B
:10300000601771078207930710F40C9486730E946F
:1030100016A4DC01CB0188539F4FAF4FBF4F809365
:10302000B4079093B507A093B607B093B70781E0B4
:1030300090E00F947DAF0C9486730E9416A40091CB
:10304000B4071091B5072091B6073091B707601704
:10305000710782079307A0F00E9416A4DC01CB0140
:1030600088539F4FAF4FBF4F8093B4079093B507DE
:10307000A093B607B093B70782E090E00F947DAFBE
:103080000E9416A40091B4071091B5072091B607CD
:103090003091B707601771078207930710F40C94FB
:1030A00086730E9416A4DC01CB0188539F4FAF4F5B
:1030B000BF4F8093B4079093B507A093B607B09322
:1030C000B7078DEF9FEF9093FA178093F91740E0C1
:1030D00050E06AE08AE00F942B470C9486730E94BC
:1030E00016A40091B4071091B5072091B60730914E
:1030F000B707601771078207930710F40C94867363
:103100000E9416A4DC01CB0188539F4FAF4FBF4FE5
:103110008093B4079093B507A093B607B093B70711
:1031200083E090E09093FA178093F91740E050E025
:103130006AE08AE00F942B470C9486730E9416A4D1
:103140000091B4071091B5072091B6073091B707E9
:10315000601771078207930710F40C9486730E941E
:1031600016A4DC01CB0188539F4FAF4FBF4F809314
:10317000B4079093B507A093B607B093B707109222
:10318000FA171092F91740E050E06AE08AE00F94D5
:103190002B470C9486730E9416A40091B4071091DB
:1031A000B5072091B6073091B707601771078207FE
:1031B000930710F40C9486730E9416A4DC01CB01D3
:1031C00088539F4FAF4FBF4F8093B4079093B5077D
:1031D000A093B607B093B70740E050E068E08AE0FC
:1031E0000F942B4781E48093740A41E061E081E011
:1031F0000F9477281092740A0E94C0CD0F942AABC6
:103200001091F9178091D007823011F540E050E01D
:1032100061E18AE00F942B4780E58093740A009166
:10322000CD07010F0093CD07002E000C110B20E0FD
:1032300030E0A901CA01B9010F94AC9D40E050E013
:1032400069E18AE00F942B471092740A0C948673FC
:10325000833029F540E050E061E18AE00F942B478C
:1032600080E58093740A0091CE07010F0093CE078A
:10327000002E000C110B20E030E04CE553EC60E038
:1032800070E088EA92EC0F94AC9D40E050E069E178
:103290008AE00F942B471092740A0C948673843042
:1032A00011F00C94867340E050E061E18AE00F94E5
:1032B0002B4780E58093740A0091CF07010F00939C
:1032C000CF07002E000C110B20E030E04CE553EC52
:1032D00060E070E084EA92E40F94AC9D40E050E03E
:1032E00069E18AE00F942B471092740A0C9486735C
:1032F0001092740A8091CD074091CE07042F081BCD
:103300004091CF07142F181B602F002E000C770B55
:10331000880B990B0F9439B62DEC3CEC4CEC5DEB23
:103320000F9429B16093D5077093D6078093D70780
:103330009093D807612F012E000C770B880B990B07
:103340000F9439B62DEC3CEC4CEC5DEB0F9429B1AD
:103350006093D1077093D2078093D3079093D407DB
:103360000023A1F040E050E06FE18AE00F942B478A
:1033700007FF07C0202F332721950CF4309508E074
:10338000020F402F000F550B64E015C01123B9F058
:1033900040E050E060E28AE00F942B4717FF07C03F
:1033A000812F992781950CF4909518E0180F412FE3
:1033B000110F550B65E08BE10F942B4711C014E4FE
:1033C0001093F81740E050E06BE084E10F942B4736
:1033D00040E050E065E18AE00F942B471093740AB7
:1033E0008FE790E090939319809392190F94880738
:1033F0000C9486734091CF078091CD07142F181B32
:10340000C1F040E050E060E28AE00F942B4717FFE4
:1034100007C0A12FBB27A1950CF4B09518E01A0F97
:10342000412F110F550B65E08BE10F942B470C9446
:10343000867314E41093F81740E050E06BE084E1E9
:103440000F942B4740E050E065E18AE00F942B4752
:103450001093740A0C9486738091F817843411F0D9
:103460000C9486731092D0071092CC071092740AB5
:103470001092B5171092B4171092BB171092BA178A
:103480001092BD171092BC171092D5171092650AB2
:10349000E0E0F7E084918F01882351F0082E000CC2
:1034A000990B0F9432480F5F1F4FF8018491F4CFAE
:1034B000109295190F94921740E050E065E08AE071
:1034C0000F942B471092F8170C948673412F50E0FD
:1034D000403E510510F00C948673FA018827EE588F
:1034E000FF4F8F4F0D9424C181E0809319080C94F5
:1034F000867381E0809318080C94867381E0809332
:1035000017080C94867381E0809316080C948673D8
:1035100081E0809315080C9486730E9416A4009194
:10352000B4071091B5072091B6073091B70760171F
:1035300071078207930710F40C9486730E94A8F514
:10354000009721F481E080931A0811C00197A1F43B
:1035500081E080931A0840E050E067E381E20F9435
:103560002B4740E050E061E08BE10F942B478091C6
:10357000A71781508093A7170E9416A4DC01CB01E6
:1035800088539F4FAF4FBF4F8093B4079093B507B9
:10359000A093B607B093B7070C9486730E9416A445
:1035A0000091B4071091B5072091B6073091B70785
:1035B000601771078207930710F40C9486731092BA
:1035C000D5171092650AE5EFF6E084918F01882304
:1035D00051F0082E000C990B0F9432480F5F1F4FCB
:1035E000F8018491F4CF1092951981E00F9492170D
:1035F00040E050E065E08AE00F942B470E9416A45B
:10360000DC01CB0188539F4FAF4FBF4F8093B4076E
:103610009093B507A093B607B093B7070C94867341
:103620000E9416A40091B4071091B5072091B60727
:103630003091B707601771078207930708F4D2C269
:103640008091970E882309F4CDC241E061E088E9BA
:103650009EE00E943FEC8FEF9FEF9093860E809349
:10366000850EE12CF12C04E31EE09E012F5F3F4FFD
:10367000590188248A94982C22242394312C5EEDBD
:10368000C52E53E0D52E40913611509137116091DF
:103690003811709139118091911090919210A091F0
:1036A0009310B091941084179507A607B70708F0F8
:1036B0000EC1D801E2E31D92EA95E9F72DE2422E10
:1036C000552453948091340E8D3409F4A5C0409153
:1036D00036115091371160913811709139118091E4
:1036E000911090919210A0919310B0919410841722
:1036F0009507A607B70708F08FC094E3692E9EE0F0
:10370000792E8091911090919210A0919310B09188
:103710009410409136115091371160913811709189
:10372000391184179507A607B70788F480933E11CF
:1037300090933F11A0934011B093411189E890E11B
:103740000E9430FDD3018D933D018A3029F4B1E010
:103750004B1A510829F45CC0A556BE40C1F3D1CF25
:103760004091361150913711609138117091391193
:103770008091911090919210A0919310B09194101B
:1037800084179507A607B70708F49CCF41C05A8253
:103790004982DF92CF92FFEC6F2EF3E07F2EBF9233
:1037A000AF92FF92EF920F9412B689819A810F9097
:1037B0000F900F900F900F900F90019609F0B9C0E5
:1037C0000150110909F4CCC04091361150913711C4
:1037D00060913811709139118091911090919210EF
:1037E000A0919310B091941084179507A607B7077E
:1037F00008F0B6C0A4E38A2EAEE09A2ED701E32DDE
:103800001D92EA95E9F70E9471F3019609F0BFCF86
:1038100080E00E9456F297C1E114F104F9F49A8213
:103820008982BF92AF92A4ECBAE1BF93AF931F938A
:103830000F930F9412B689819A810F900F900F9079
:103840000F900F900F90019629F03092860E2092E3
:10385000850E04C01092860E1092850E9A8289827F
:10386000BF92AF92DF92CF921F930F930F9412B635
:1038700089819A810F900F900F900F900F900F9069
:10388000059711F40C9402619A828982BF92AF92DB
:10389000DF92CF921F930F930F9412B689819A8172
:1038A0000F900F900F900F900F900F90069711F4BC
:1038B0000C9402612EE0E216F10409F444C13FEFDA
:1038C000E31AF30A4FE0E416F1040CF4DCCE109294
:1038D0003E1110923F11109240111092411140E0A0
:1038E00050E0BA0189E890E10E9414F78091850EBA
:1038F0009091860E892B49F40CE310E0B4E3EB2E93
:10390000BEE0FB2E82E3D82E56C00AEF10E054E34F
:10391000E52E5EE0F52E62E3362E44244A94542CC4
:10392000AE014F5F5F4F6A01EFECAE2EE3E0BE2EBB
:103930004BCF8FEF9FEF9A838983DF92CF927F9255
:103940006F929F928F920F9412B689819A810F90F5
:103950000F900F900F900F900F90892B09F058CF78
:1039600080E00E9456F2C0904702D0904802E0905A
:103970004902F0904A0220E030E0A901C701B601F7
:103980000F9497BF18166CF137C0D701ED2D1D921B
:10399000EA95E9F70E9471F3019609F439CF64E3DF
:1039A0007EE088E194E00F94A1B5892B09F430CF33
:1039B00001501109A9F240913611509137116091CF
:1039C0003811709139118091911090919210A091BD
:1039D0009310B091941084179507A607B707A8F223
:1039E000BFCF2DEC3CEC4CE45DE3C701B6010F9476
:1039F00097BF18165CF0A7C02DEC3CEC4CE45DEBD7
:103A0000C701B6010F9433B687FF9DC040E050E078
:103A100067E18AE00F942B4780904702909048021C
:103A2000A0904902B0904A0220E030E0A901C5010F
:103A3000B4010F9497BF18162CF520E030E048EC45
:103A400052E4C501B4010F9429B10F9459BE0AE0A4
:103A500010E0CB01B8010F94F5C0F82EE92E20E05C
:103A600030E040E251E4C501B4010F9429B10F9454
:103A700059BECB01B8010F94F5C0082FD92EC5014E
:103A8000B4012AC02401350177FA709477F8709454
:103A900020E030E048EC52E4C301B2010F9429B1B8
:103AA0000F9459BE0AE010E0CB01B8010F94F5C0A5
:103AB000F82EE92E20E030E040E251E4C301B201EB
:103AC0000F9429B10F9459BECB01B8010F94F5C0E2
:103AD000082FD92EC301B2010F9459BE162FC72E3D
:103AE00020E030E0A901C501B4010F9433B687FD91
:103AF00003C080E094E002C08BEF93E0EF92FF926E
:103B0000DF920F93CF921F939F938F9388EA96E053
:103B10009F938F938E010F5F1F4F1F930F930F94EF
:103B2000E3B5C8010E94ECF5B80180E30E9457F0AC
:103B30002DB73EB7245F3F4F0FB6F8943EBF0FBE80
:103B40002DBF0C9486738091E70E81114BC0CDB6CA
:103B5000DEB680911308909114080F94394EE8E96D
:103B6000FEE0DF010D900020E9F78DB79EB78A1BBC
:103B70009B0BAC014C56514F0FB6F8945EBF0FBE75
:103B80004DBF0DB71EB70F5F1F4FFF93EF9381EA35
:103B900096E09F938F931F930F930F94E3B5780153
:103BA00054E0E50EF11C0F900F900F900F900F90C6
:103BB0000F90F7018081882349F0082E000C990BA3
:103BC0000F941FC3D7018D937D01F3CFC8010F94CC
:103BD000A3238DE996E00F9495170FB6F894DEBEF7
:103BE0000FBECDBE0E9416A4DC01CB0188539F4FAF
:103BF000AF4FBF4F8093B4079093B507A093B6071C
:103C0000B093B7070C9486730E9416A40091B40772
:103C10001091B5072091B6073091B707601771076B
:103C20008207930708F454C08091970E882309F403
:103C30004FC08091E70E81114BC0CDB6DEB68091AA
:103C40001308909114080F94394EE8E9FEE0DF0163
:103C50000D900020E9F78DB79EB78A1B9B0B9C0146
:103C60002C56314F0FB6F8943EBF0FBE2DBF0DB787
:103C70001EB70F5F1F4FFF93EF9386E996E09F9368
:103C80008F931F930F930F94E3B5780134E0E30E05
:103C9000F11C0F900F900F900F900F900F90F70165
:103CA0008081882349F0082E000C990B0F941FC3C4
:103CB000D7018D937D01F3CFC8010F94A32382E92F
:103CC00096E00F9495170FB6F894DEBE0FBECDBEEA
:103CD0000E9416A4DC01CB0188539F4FAF4FBF4F0A
:103CE0008093B4079093B507A093B607B093B70736
:103CF0000C9486730E9416A40091B4071091B50726
:103D00002091B6073091B7076017710782079307B4
:103D100010F40C94867340E050E067E381E20F9466
:103D20002B4740E050E061E08BE10F942B4740E0EF
:103D300050E062E08AE00F942B4781E08093D51732
:103D400080931B080E9416A4DC01CB0188539F4F6F
:103D5000AF4FBF4F8093B4079093B507A093B607BA
:103D6000B093B7070C9486730E9416A40091B40711
:103D70001091B5072091B6073091B707601771070A
:103D80008207930710F40C94867381E080931D08DA
:103D90000E9416A4DC01CB0188539F4FAF4FBF4F49
:103DA0008093B4079093B507A093B607B093B70775
:103DB0000C9486730E9416A40091B4071091B50765
:103DC0002091B6073091B7076017710782079307F4
:103DD00010F40C94867381E080931C080E9416A452
:103DE000DC01CB0188539F4FAF4FBF4F8093B40787
:103DF0009093B507A093B607B093B7070C9486735A
:103E00000E9416A40091B4071091B5072091B6073F
:103E10003091B707601771078207930710F40C946D
:103E2000867340E050E062E18AE00F942B470E94E5
:103E300016A4DC01CB0188539F4FAF4FBF4F809337
:103E4000B4079093B507A093B607B093B7070C9447
:103E500086730E9416A40091B4071091B5072091B3
:103E6000B6073091B707601771078207930710F400
:103E70000C94867340E050E06CE18AE00F942B478D
:103E800080E00F94921710922F0810922E08109233
:103E90002D0881E0809395190E9416A4DC01CB01C6
:103EA00088539F4FAF4FBF4F8093B4079093B50790
:103EB000A093B607B093B7070C9486730E9416A41C
:103EC0000091B4071091B5072091B6073091B7075C
:103ED000601771078207930710F40C948673109291
:103EE000D5171092650AE7E8F6E084918F018823E0
:103EF00051F0082E000C990B0F9432480F5F1F4FA2
:103F0000F8018491F4CF109295190E94CA9181E032
:103F10000F94921740E050E065E08AE00F942B4741
:103F20000E9416A4DC01CB0188539F4FAF4FBF4FB7
:103F30008093B4079093B507A093B607B093B707E3
:103F40000C9486738091BA179091BB17892B29F036
:103F50001092BB171092BA1708C08091A5089091D3
:103F6000A6089093BB178093BA1710922F080C9451
:103F700086738091BC179091BD17892B29F0109200
:103F8000BD171092BC1708C08091A3089091A40897
:103F90009093BD178093BC1710922E080C948673D3
:103FA0008091B4179091B517892B29F01092B5170D
:103FB0001092B4171CC08091A1089091A208609142
:103FC0009F087091A008681779072CF4BC01990F1D
:103FD000880B990B04C0072E000C880B990B0F94CB
:103FE00039B60F9459BE7093B5176093B4171092F9
:103FF0002D080C9486730E9416A40091B4071091AA
:10400000B5072091B6073091B7076017710782078F
:10401000930710F40C94867383E896E00F94951739
:104020000E9416A4DC01CB0188539F4FAF4FBF4FB6
:104030008093B4079093B507A093B607B093B707E2
:104040000C9486730E9416A40091B4071091B507D2
:104050002091B6073091B707601771078207930761
:1040600010F40C94867340E050E06EE18AE00F9407
:104070002B470E9416A4DC01CB0188539F4FAF4F02
:10408000BF4F8093B4079093B507A093B607B09342
:10409000B7070C9486730E9416A40091B407109180
:1040A000B5072091B6073091B707601771078207EF
:1040B000930710F40C94867340E050E065E08AE0CA
:1040C0000F942B471092D5171092650AE8E7F6E097
:1040D00084918F01882351F0082E000C990B0F94C6
:1040E00032480F5F1F4FF8018491F4CF1092951959
:1040F00088E793E090931E0280931D020F94880737
:104100000E9416A4DC01CB0188539F4FAF4FBF4FD5
:104110008093B4079093B507A093B607B093B70701
:104120000C9486730E9416A40091B4071091B507F1
:104130002091B6073091B707601771078207930780
:1041400010F40C9486730E9416A4DC01CB018853F2
:104150009F4FAF4FBF4F8093B4079093B507A09385
:10416000B607B093B70740E050E06AE18AE00F94E9
:104170002B470F947E4A8091970E882311F40C945C
:1041800086738091A6178093A7172EE7E22E27E16A
:10419000F22E32E9C32E37E1D32E00E010E042E7E1
:1041A000842E46E0942E8091A61790E008171907F8
:1041B000ACF568E97EE08FE09FE00E9419F85701B6
:1041C000D7018D919D917D010F94394EF50180812C
:1041D0009181D6018D939D936D018091E70E8111A0
:1041E00018C0F401849192E7A92E96E0B92E882395
:1041F00059F0082E000C990B0F943248FFEFAF1ABC
:10420000BF0AF5018491F3CF8AE090E00F94324821
:1042100002C00E9434F10F5F1F4FC5CF87E090E0CE
:104220000F94BD4E0C9486730E9416A40091B4079F
:104230001091B5072091B6073091B7076017710745
:104240008207930710F40C9486730E9416A4DC0175
:10425000CB0180579E4FAF4FBF4F8093B4079093D1
:10426000B507A093B607B093B70780911D02909150
:104270001E028036974041F488E793E090931E0237
:1042800080931D020F94880740E050E068E08AE0C8
:104290000F942B4781E48093740A80913818882307
:1042A00031F140E061E081E00F9477280E94C0CDB9
:1042B0008091740A8E3411F40C94867381E00F940B
:1042C00092171092740A8FE696E00F9495170E9449
:1042D000C0CD8091740A8E3411F40C94867340E042
:1042E00050E06BE08AE00F942B470C94867341E01A
:1042F000D9CF0E9416A40091B4071091B507209160
:10430000B6073091B707601771078207930710F45B
:104310000C94867340E050E064E08AE00F942B47F1
:104320000E9416A4DC01CB0188539F4FAF4FBF4FB3
:104330008093B4079093B507A093B607B093B707DF
:104340000C9486730E9416A40091B4071091B507CF
:104350002091B6073091B70760177107820793075E
:1043600010F40C9486730E9416A4DC01CB018057D4
:104370009E4FAF4FBF4F8093B4079093B507A09364
:10438000B607B093B70740E050E064E28AE00F94CC
:104390002B4781E08093B10789E48093740A1F92D0
:1043A0001F928EE194E09F938F938E010F5F1F4FBA
:1043B0001F930F930F9480C3B8018EE20E9457F0B1
:1043C0006091A5087091A608072E000C880B990B28
:1043D0000F9439B600E010E028EC31E440E050E002
:1043E0000F94927F0F94880763E274E08BE89DE05E
:1043F0000F94917F66E274E08BE89DE00F94917FCB
:104400006091EB027091EC028091ED029091EE02CE
:1044100042E050E00F94787F6AE274E08BE89DE020
:104420000F94917F2DEB37E346E05EE36091E3026A
:104430007091E4028091E5029091E6020F94ADBD87
:1044400042E050E00F94787F6EE274E08BE89DE0EC
:104450000F94917F2DEB37E346E05EE36091DB0242
:104460007091DC028091DD029091DE020F9429B1FF
:1044700042E050E00F94787F6091A3087091A40807
:10448000072E000C880B990B0F9439B600E010E052
:1044900028EC31E441E050E00F94927F0F948807BC
:1044A00063E274E08BE89DE00F94917F66E274E034
:1044B0008BE89DE00F94917F6091EF027091F00284
:1044C0008091F1029091F20242E050E00F94787FE7
:1044D0006AE274E08BE89DE00F94917F2DEB37E367
:1044E00046E05EE36091E7027091E8028091E902A4
:1044F0009091EA020F94ADBD42E050E00F94787FB6
:104500006EE274E08BE89DE00F94917F2DEB37E332
:1045100046E05EE36091DF027091E0028091E1028B
:104520009091E2020F9429B142E050E00F94787F1D
:104530001092740A0E94CA9140E050E06BE084E15E
:104540000F942B4740E050E065E18AE00F942B4741
:1045500084E48093F8178093740A0F900F900F9063
:104560000F900F900F900C9486730E9416A40091E8
:10457000B4071091B5072091B6073091B7076017BF
:1045800071078207930710F40C9486731092D51765
:104590001092650AE4E6F6E084918F01882351F0D9
:1045A000082E000C990B0F9432480F5F1F4FF80133
:1045B0008491F4CF109295190E94CA9140E050E086
:1045C00065E08AE00F942B470E9416A4DC01CB0122
:1045D00088539F4FAF4FBF4F8093B4079093B50759
:1045E000A093B607B093B7070C9486730E9416A4E5
:1045F0000091B4071091B5072091B6073091B70725
:10460000601771078207930710F40C94867382E594
:1046100080930C0281E08093B00740E050E06BE5AE
:1046200081E20F942B4740E050E06CE581E20F946B
:104630002B4740E050E060E08BE10F942B4740E0D7
:1046400050E06AE781E20F942B4740E050E069E7D1
:1046500081E20F942B4740E050E06DE18AE00F9437
:104660002B478FEF80938D190E9416A4DC01CB019C
:1046700080579E4FAF4FBF4F8093B4079093B507BD
:10468000A093B607B093B7070C9486730E9416A444
:104690000091B4071091B5072091B6073091B70784
:1046A000601771078207930710F40C94867340E03B
:1046B00050E062E18AE00F942B4740E050E06BE568
:1046C00081E20F942B4740E050E06CE581E20F94CB
:1046D0002B4740E050E060E08BE10F942B4740E037
:1046E00050E06AE781E20F942B4740E050E069E731
:1046F00081E20F942B471092B0070E9416A4DC01B0
:10470000CB0188539F4FAF4FBF4F8093B407909317
:10471000B507A093B607B093B7070C9486730E94B1
:1047200016A40091B4071091B5072091B6073091F7
:10473000B707601771078207930710F40C9486730C
:104740001092D5171092650AE9E5F6E084918F0181
:10475000882351F0082E000C990B0F9432480F5FFC
:104760001F4FF8018491F4CF1092951940E050E06A
:1047700065E08AE00F942B4740E050E06BE581E272
:104780000F942B4740E050E06CE581E20F942B47FB
:1047900040E050E060E08BE10F942B4740E050E0B8
:1047A0006AE781E20F942B4740E050E069E781E23D
:1047B0000F942B471092B0070E9416A4DC01CB0186
:1047C00088539F4FAF4FBF4F8093B4079093B50767
:1047D000A093B607B093B7070C9486730E9416A4F3
:1047E0000091B4071091B5072091B6073091B70733
:1047F000601771078207930710F40C94867341E0E9
:1048000050E06BE581E20F942B4740E050E06CE50F
:1048100081E20F942B4741E050E060E08BE10F9480
:104820002B4741E050E06AE781E20F942B4741E0DB
:1048300050E069E781E20F942B4710928D190E9496
:1048400016A4DC01CB0188539F4FAF4FBF4F80931D
:10485000B4079093B507A093B607B093B7070C942D
:1048600086730E9416A40091B4071091B507209199
:10487000B6073091B707601771078207930710F4E6
:104880000C94867340E050E06BE581E20F942B4777
:1048900041E050E06CE581E20F942B4741E050E0AD
:1048A00060E08BE10F942B4741E050E06AE781E242
:1048B0000F942B4741E050E069E781E20F942B47CA
:1048C00081E080938D190E9416A4DC01CB018853EE
:1048D0009F4FAF4FBF4F8093B4079093B507A093FE
:1048E000B607B093B7070C9486730E9416A4009184
:1048F000B4071091B5072091B6073091B70760173C
:1049000071078207930710F40C9486730E9416A413
:10491000DC01CB0188539F4FAF4FBF4F8093B4074B
:104920009093B507A093B607B093B70780911D0287
:1049300090911E028036974041F488E793E090936F
:104940001E0280931D020F94880700918D190F3F5E
:1049500011F40C94867301111DC08091311990914E
:10496000321960918C0770918D07681779072CF4C4
:10497000BC01990F880B990B04C0072E000C880B03
:10498000990B0F9439B60F9459BE7093BB1760936F
:10499000BA1720C080918E1990918F1960918A0763
:1049A00070918B07681779072CF4BC01990F880B5D
:1049B000990B04C0072E000C880B990B0F9439B685
:1049C00010E0000F111F0654184E0F9459BED80165
:1049D0006D937C9381E08093720A81E48093740AE2
:1049E00040E050E068E08AE00F942B47809138184F
:1049F000882311F040E001C041E061E081E00F94C4
:104A0000772880E090E0A3E4B3E480939D1890932E
:104A10009E18A0939F18B093A01880907919909039
:104A20007A19A0907B19B0907C1920919918309137
:104A30009A1840919B1850919C186091951870910C
:104A400096188091971890919818E8EC6E2EE7E1EF
:104A50007E2E7F926F92F1EACF2EF8E1DF2EE12CCD
:104A6000F12C03E413E40F946F5B80E090E0A0E28C
:104A7000B1E48093991890939A18A0939B18B093DF
:104A80009C188090751990907619A0907719B09025
:104A90007819E0909D18F0909E1800919F18109141
:104AA000A018609195187091961880919718909120
:104AB00098187F926F9220E030E040E251E40F942A
:104AC0006F5B0E94C0CD0F900F900F900F90809160
:104AD000740A8E3411F40C9486731092740A0E9436
:104AE000CA9166E074E08DE20E9457F040E050E029
:104AF00068E28AE00F942B4700918D1910E0F801CD
:104B0000EE0FFF1FEE0FFF1FE654F64E608171811E
:104B1000828193810F9459BE709326086093250873
:104B2000000F111FF801E654F84E80819181909397
:104B300024088093230888E48093740A0E94CA9111
:104B400064EF71E080E090E00E94DEA381E080935A
:104B500027080C9486730E9416A40091B407109144
:104B6000B5072091B6073091B70760177107820724
:104B7000930710F40C9486730E9416A4DC01CB01F9
:104B800088539F4FAF4FBF4F8093B4079093B507A3
:104B9000A093B607B093B70780911D0290911E02B3
:104BA0008036974041F488E793E090931E0280930B
:104BB0001D020F948807E0918D19EF3F11F40C94BA
:104BC000867381E08093720AF0E0EE0FFF1FE654D7
:104BD000F84E84E091E09183808381E48093740AAD
:104BE00040E050E068E08AE00F942B47809138184D
:104BF000882311F040E001C041E061E081E00F94C2
:104C000077280E94C0CD8091740A8E3411F40C94E0
:104C1000867380E090E0A3E4B3E480939D189093C2
:104C20009E18A0939F18B093A01880907919909027
:104C30007A19A0907B19B0907C1920919918309125
:104C40009A1840919B1850919C18609195187091FA
:104C500096188091971890919818E8EC6E2EE7E1DD
:104C60007E2E7F926F92F1EACF2EF8E1DF2EE12CBB
:104C7000F12C03E413E40F946F5B0E94C0CD0F90FE
:104C80000F908091740A8E3411F40C94867380E036
:104C900090E0A0E2B1E48093991890939A18A093C1
:104CA0009B18B0939C188090751990907619A090DD
:104CB0007719B0907819E0909D18F0909E180091A7
:104CC0009F181091A0186091951870919618809176
:104CD0009718909198187F926F9220E030E040E210
:104CE00051E40F946F5B0E94C0CD0F900F908091A4
:104CF000740A8E3411F40C94867380918D1981118D
:104D000003C080E090E002C081E090E00F94B78E95
:104D100080E090E0ABE1B3E480939518909396180F
:104D2000A0939718B0939818E0909D18F0909E1853
:104D300000919F181091A0182091991830919A18FD
:104D400040919B1850919C188DE899E19F938F9307
:104D5000812C60E8962E6BE3A62E66E4B62E71EAEF
:104D6000C72E78E1D72E60E070E08BE193E40F94DA
:104D70006F5B0E94C0CD0F900F908091740A8E34AB
:104D800011F40C9486731092740A0E94CA9140E048
:104D900050E065E28AE00F942B470C9486730E94E2
:104DA00016A40091B4071091B5072091B607309171
:104DB000B707601771078207930710F40C94867386
:104DC00081E08093210810921F0810922008109211
:104DD00022080E9416A4DC01CB0186509F4FAF4FE2
:104DE000BF4F8093B4079093B507A093B607B093D5
:104DF000B7070C9486730E9416A40091B407109113
:104E0000B5072091B6073091B70760177107820781
:104E1000930710F40C9486731092210881E080931C
:104E20001F0810922008109222080E9416A4DC018C
:104E3000CB0186509F4FAF4FBF4F8093B4079093E5
:104E4000B507A093B607B093B7070C9486730E947A
:104E500016A40091B4071091B5072091B6073091C0
:104E6000B707601771078207930710F40C948673D5
:104E70001092210810921F0881E080932008109260
:104E800022080E9416A4DC01CB0186509F4FAF4F31
:104E9000BF4F8093B4079093B507A093B607B09324
:104EA000B7070C9486730E9416A40091B407109162
:104EB000B5072091B6073091B707601771078207D1
:104EC000930710F40C9486731092210810921F0817
:104ED0001092200881E0809322080E9416A4DC0131
:104EE000CB0186509F4FAF4FBF4F8093B407909335
:104EF000B507A093B607B093B7070C9486730E94CA
:104F000016A40091B4071091B5072091B60730910F
:104F1000B707601771078207930710F40C94867324
:104F20008FEF80930D020E94CA9140E050E062E151
:104F30008AE00F942B470E9416A4DC01CB01885312
:104F40009F4FAF4FBF4F8093B4079093B507A09387
:104F5000B607B093B7070C9486730E9416A400910D
:104F6000B4071091B5072091B6073091B7076017C5
:104F700071078207930710F40C9486738FEF809368
:104F80000D020E94CA9140E050E062E18AE00F9475
:104F90002B470E9416A4DC01CB0188539F4FAF4FD3
:104FA000BF4F8093B4079093B507A093B607B09313
:104FB000B7070C9486730E9416A40091B407109151
:104FC000B5072091B6073091B707601771078207C0
:104FD000930710F40C94867341E050E06CE981E291
:104FE0000F942B4741E050E06DE981E20F942B478D
:104FF0002091D5023091D6028E010F5F1F4F809114
:10500000BA179091BB171092D6021092D502213098
:10501000310509F052C0892B41F48091A508909187
:10502000A6089093BB178093BA1741E050E06AE955
:1050300081E20F942B4740E050E06BE981E20F944E
:105040002B471F9240EBF42EFF928091BB178F935A
:105050008091BA178F9389E094E09F938F931F9369
:105060000F930F9480C3B80185E00E9457F0C801E8
:105070000E94ECF51F92FF926091BA197091BB19D2
:105080008091BC199091BD190F9459BE7F936F9375
:1050900081E596E09F938F931F930F930F94E3B551
:1050A000B8018AE00E9457F0EDB7FEB770960FB6D0
:1050B000F894FEBF0FBEEDBF4FC0892B41F4809125
:1050C000A5089091A6089093BB178093BA1741E06A
:1050D00050E06AE981E20F942B4740E050E06BE931
:1050E00081E20F942B471F9230EBF32EFF928091B9
:1050F000BB178F938091BA178F9389E094E09F93A9
:105100008F931F930F930F9480C3B80185E00E9483
:1051100057F01F92FF926091BA197091BB1980915C
:10512000BC199091BD190F9459BE7F936F9389E478
:1051300096E09F938F931F930F930F94E3B5B8015D
:105140008AE00E9457F02DB73EB7205F3F4F0FB661
:10515000F8943EBF0FBE2DBF0E9416A4DC01CB0108
:1051600088539F4FAF4FBF4F8093B4079093B507BD
:10517000A093B607B093B7070C9486730E9416A449
:105180000091B4071091B5072091B6073091B70789
:10519000601771078207930710F40C94867341E03F
:1051A00050E06CE981E20F942B4741E050E06DE95B
:1051B00081E20F942B472091D5023091D6028E01C7
:1051C0000F5F1F4F8091BC179091BD17232B09F0E3
:1051D00059C021E030E03093D6022093D502892BCC
:1051E00041F48091A3089091A4089093BD178093F7
:1051F000BC1740E050E06AE981E20F942B4741E0A0
:1052000050E06BE981E20F942B471F9220EBF22EC6
:10521000FF928091BD178F938091BC178F9381E48B
:1052200096E09F938F931F930F930F94E3B5B8016C
:1052300085E00E9457F0C8010E94ECF51F92FF9292
:105240006091BE197091BF198091C0199091C119D8
:105250000F9459BE7F936F9389E396E09F938F934A
:105260001F930F930F94E3B5B80181E10E9457F0AB
:105270004DB75EB7405F5F4F0FB6F8945EBF0FBE8D
:105280004DBF54C021E030E03093D6022093D502C8
:10529000892B41F48091A3089091A4089093BD17A5
:1052A0008093BC1740E050E06AE981E20F942B47FD
:1052B00041E050E06BE981E20F942B471F9290EBA5
:1052C000F92EFF928091BD178F938091BC178F9319
:1052D00081E396E09F938F931F930F930F94E3B511
:1052E000B80185E00E9457F01F92FF926091BE19AD
:1052F0007091BF198091C0199091C1190F9459BE36
:105300007F936F9389E296E09F938F931F930F9300
:105310000F94E3B5B80181E10E9457F08DB79EB7B5
:1053200040960FB6F8949EBF0FBE8DBF0E9416A484
:10533000DC01CB0188539F4FAF4FBF4F8093B40721
:105340009093B507A093B607B093B7070C948673F4
:10535000E091D502F091D602EF3F9FEFF90711F4EB
:105360000C948673EE0FFF1FE654F84E80819181F6
:105370008B33A1E09A0714F00C9486730596918301
:1053800080831F9220EB2F939F938F9381E296E06F
:105390009F938F938E010F5F1F4F1F930F930F9457
:1053A000E3B5B80185E00E9457F0EDB7FEB7389637
:1053B0000FB6F894FEBF0FBEEDBF0C948673E0915C
:1053C000D502F091D602EF3F2FEFF20711F40C94C3
:1053D0008673EE0FFF1FE654F84E808191811816F8
:1053E000190614F00C9486730597918380831F929D
:1053F00020EB2F939F938F9389E196E09F938F9358
:105400008E010F5F1F4F1F930F930F94E3B5B801E9
:1054100085E00E9457F04DB75EB7485F5F4F0FB60B
:10542000F8945EBF0FBE4DBF0C9486738091D50279
:105430009091D602019611F40C94867390919E0877
:1054400080919D0898130C94076181E080932C084B
:105450000C9486738091D5029091D602019611F436
:105460000C94867390919E0880919D0898130C94DB
:1054700007610C940B610E9416A40091B40710916F
:10548000B5072091B6073091B707601771078207FB
:10549000930710F40C94867381E08093280840E011
:1054A00050E068E981E20F942B4740E050E067E963
:1054B00081E20F942B4740E050E06CE981E20F94C9
:1054C0002B4740E050E06DE981E20F942B4740E02C
:1054D00050E067E881E20F942B4740E050E06CE237
:1054E0008AE00F942B478FEF9FEF9093D602809323
:1054F000D502E9E0F6E084918F01882351F0082E6F
:10550000000C990B0F9432480F5F1F4FF8018491E4
:10551000F4CF40E050E06AE981E20F942B4740E08D
:1055200050E06BE981E20F942B471F9210EBF12EB4
:10553000FF926091BA197091BB198091BC1990913A
:10554000BD190F9459BE7F936F9381E096E09F93AE
:105550008F938E010F5F1F4F1F930F930F94E3B52F
:10556000B8018AE00E9457F0C8010E94ECF51F9232
:10557000FF926091BE197091BF198091C0199091EE
:10558000C1190F9459BE7F936F9389EF95E09F9354
:105590008F931F930F930F94E3B5B80181E10E949D
:1055A00057F0C8010E94ECF51F92FF921F921F92C4
:1055B00081EF95E09F938F931F930F930F94E3B523
:1055C000B80185E00E9457F0C8010E94ECF50E94E6
:1055D00016A4DC01CB0188539F4FAF4FBF4F809380
:1055E000B4079093B507A093B607B093B7072DB74C
:1055F0003EB7285E3F4F0FB6F8943EBF0FBE2DBF9B
:105600000C9486730E9416A40091B4071091B507FC
:105610002091B6073091B70760177107820793078B
:1056200010F40C948673109228080E947DCD81E0BE
:105630000F9492170E94CA9140E050E066E08AE021
:105640000F942B470E9416A4DC01CB0188539F4F77
:10565000AF4FBF4F8093B4079093B507A093B607A1
:10566000B093B7070C9486730E9416A40091B407F8
:105670001091B5072091B6073091B70760177107F1
:105680008207930710F40C948673109228080E94E6
:105690007DCD1092D5171092650A10929519E6EEFD
:1056A000F5E084918F01882351F0082E000C990BAE
:1056B0000F9432480F5F1F4FF8018491F4CF81E0BF
:1056C0000F9492170E94CA9140E050E065E08AE092
:1056D0000F942B470E9416A4DC01CB0188539F4FE7
:1056E000AF4FBF4F8093B4079093B507A093B60711
:1056F000B093B7070C9486730E9416A40091B40768
:105700001091B5072091B6073091B7076017710760
:105710008207930710F40C9486731092AF0740E051
:1057200050E064E08AE00F942B470E9416A4DC014D
:10573000CB0188539F4FAF4FBF4F8093B4079093D7
:10574000B507A093B607B093B7070C9486730E9471
:1057500016A40091B4071091B5072091B6073091B7
:10576000B707601771078207930710F40C948673CC
:1057700082E580930C028FEF80938D1940E050E01A
:1057800066E18AE00F942B470E9416A4DC01CB014E
:1057900088539F4FAF4FBF4F8093B4079093B50787
:1057A000A093B607B093B7070C9486730E9416A413
:1057B0000091B4071091B5072091B6073091B70753
:1057C000601771078207930710F40C94867389E4BD
:1057D00080930C0240E050E06CE481E20F942B4790
:1057E00040E050E06BE481E20F942B4740E050E052
:1057F00061E481E20F942B4740E050E066E481E2EF
:105800000F942B4740E050E06EE481E20F942B4769
:1058100040E050E06FE481E20F942B4740E050E01D
:1058200064E18AE00F942B478FEF80938D190E94DB
:1058300016A4DC01CB0188539F4FAF4FBF4F80931D
:10584000B4079093B507A093B607B093B7070C942D
:1058500086730E9416A4C090B407D090B507E0905C
:10586000B607F090B7076C157D058E059F0510F4FF
:105870000C9486730E9416A4DC01CB0188539F4FC1
:10588000AF4FBF4F8093B4079093B507A093B6076F
:10589000B093B7071A3519F410928D1903C081E03F
:1058A00080938D1900918D1901111DC080913119BE
:1058B0009091321960918C0770918D076817790764
:1058C0002CF4BC01990F880B990B04C0072E000C17
:1058D000880B990B0F9439B60F9459BE7093BB1770
:1058E0006093BA1720C080918E1990918F196091A2
:1058F0008A0770918B07681779072CF4BC01990F00
:10590000880B990B04C0072E000C880B990B0F9481
:1059100039B610E0000F111F0654184E0F9459BEEF
:10592000D8016D937C9381E48093740A40E050E049
:1059300068E08AE00F942B4780913818882311F093
:1059400040E001C041E061E081E00F94772880E011
:1059500090E0A3E4B3E480939D1890939E18A093E5
:105960009F18B093A0188090791990907A19A09000
:105970007B19B0907C192091991830919A18409118
:105980009B1850919C186091951870919618809171
:10599000971890919818E8EC6E2EE7E17E2E7F9292
:1059A0006F92F1EACF2EF8E1DF2EE12CF12C03E427
:1059B00013E40F946F5B80E090E0A0E2B1E4809389
:1059C000991890939A18A0939B18B0939C18809064
:1059D000751990907619A0907719B0907819E09089
:1059E0009D18F0909E1800919F181091A01860913A
:1059F00095187091961880919718909198187F92A9
:105A00006F9220E030E040E251E40F946F5B0E941F
:105A1000C0CD0F900F900F900F908091740A8E342C
:105A200011F40C9486731092740A0E94CA9166E075
:105A300074E08DE20E9457F040E050E068E28AE0B6
:105A40000F942B4700918D1910E0F801EE0FFF1F06
:105A5000EE0FFF1FE654F64E6081718182819381C3
:105A60000F9459BE7093260860932508000F111FEC
:105A7000F801E654F84E8081918190932408809338
:105A800023080E94CA9188E48093740A64EF71E04D
:105A900080E090E00E94DEA381E0809327080C94D0
:105AA00086738091FC1781110C9486730E9416A452
:105AB0000091B4071091B5072091B6073091B70750
:105AC000601771078207930710F40C94867340E007
:105AD00050E066E08AE00F942B470E9416A4DC0198
