:100000000C949E160C94CF160C94CF160C94CF160D
:100010000C94CF160C94CF160C94CF160C94CF16CC
:100020000C94CF160C94CF160C94CF160C94CF16BC
:100030000C94CF160C94CF160C94CF160C94CF16AC
:100040000C94CF160C94B1F10C94CF160C94CF16DF
:100050000C94CF160C94CF160C94D8A60C94B1A483
:100060000C94CF160C94EAA20C94C1A20C94CF1657
:100070000C94CF160C94CF160C94CF160C94CF166C
:100080000C94CF160C94CF160C94CF160C94CF165C
:100090000C94CF160C94CF160C94CF160C94CF164C
:1000A0000C94CF160C94CF160C94CF160C94CF163C
:1000B0000C94CF160C94CF160C94CF160C94CF162C
:1000C0000C94CF160C94CF160C94CF160C9498A2C7
:1000D0000C946FA20C94CF160C94CF160C94CF16E0
:1000E0000C94CF16812B9273DB2BB2279273B91E1F
:1000F0009273051F927392732D39A71F9273927397
:10010000871A821A9273953A927392739273764118
:100110009F414F4B784BE04F92730F436E43CD435B
:1001200053469545FD3AEF3A8427F4459273DF1E16
:10013000191B7F1ED426763D5827D54A06552C27F5
:100140000027FE4A274B9273AC2BC84168362D3EE0
:100150002E1F961A8C1A92733A341921664F927395
:100160008F4FBA22A14B852F091E8D5114359E56F3
:100170000330124CF14109507E21302E302E562D85
:1001800085300B31FB22BE1FD51F631F4B237D1A09
:10019000911A9273927392732E2CF32336240020BB
:1001A000F73CB33C1A4243426B429442BD42E642A2
:1001B000FC4325444E447744A044C944F1441A45C5
:1001C00043456C4509478246A04785490F49A948E0
:1001D0009273B84F94237A24B0252E2C842DAD2D04
:1001E000EC2DAC4A404EC54E394F834A3937D71AA9
:1001F000305E392B927392737F5B92735C3C0B3B46
:1002000029328332DC3293315632AF3209338F33A5
:1002100063332F2A1B2AD53BE027C328AD29E429C5
:10022000A85B402A072B37339273927392739273B1
:1002300092739273927392739273763D272050203B
:100240009720775DD55D914EF94EA14B394F3250D5
:1002500052519273D4554D562B559C55AF52CD5695
:1002600092730E533538875956394F3ACB5992739A
:100270009273D5574058AD581A59AC57FC56495748
:100280000F5A325B125D92739273A75C92739273F2
:10029000445D9273A721B254D952395302542B545E
:1002A0007F1EDB54009DD89D9A9E769EFB9D769E78
:1002B000529E249D489D6C9D139F379F5B9F7F9FFF
:1002C000B49D909D2E9E0FA212A201A205A20BA288
:1002D00049A216A21AA220A224A228A22EA232A2C9
:1002E00036A249A23CA240A244A2CDA3D2A3D7A346
:1002F000E1A3EBA364A4F5A3FDA305A40FA419A493
:1003000023A432A43CA464A446A450A45AA462A783
:100310006FA78BA798A7B2A7BFA7D9A7DBA7DDA711
:10032000DFA7E7A7084AD73B3BCE016E84BCBFFDE1
:10033000C12F3D6C74319ABD56833DDA3D00C77FB5
:1003400011BED9E4BB4C3E916BAAAABE000000804E
:100350003F05A84CCDB2D44EB93836A9020C50B9DD
:10036000918688083CA6AAAA2ABE000000803F0009
:100370000D94DC0C0D94657C0D943A7C0D94FB9BE4
:100380000D94EF1C0D94EE1C0D94249C4E414E498F
:100390004E495459494E46CDCCCC3D0AD7233C1743
:1003A000B7D13877CC2B329595E6241FB14F0A0090
:1003B0000020410000C84200401C4620BCBE4CCA80
:1003C0001B0E5AAEC59D746364696E6F7073757849
:1003D000585B003B202020757365526166742C25A4
:1003E00064004D36303520532564002533642025C4
:1003F00063430025336420256343005075726765AD
:100400002046696C616D656E740A00537572666989
:100410006E6720310A0053757266696E6720300A74
:100420000047333400494E464F3A2042454420436A
:10043000414C4942202D200053757266696E672039
:10044000300A0047323820583020593000543000EC
:1004500054310054300054300053757266696E6731
:1004600020300A004734330047343300473431002A
:1004700047343000473334004734330047343300C7
:1004800047343100473430004D3834004D383400A3
:100490004D3834005A32204F66667365743A200036
:1004A0004F4B207365636F6E64204578747275647A
:1004B000657221005A20706F736974696F6E3A20FB
:1004C000005A20706F736974696F6E3A20004D385E
:1004D00034005A312050726F6265206F6666736512
:1004E000743A20004F4B206669727374204578740B
:1004F000727564657221200A005A20706F736974E6
:10050000696F6E3A20005A20706F736974696F6E5C
:100510003A200043616C63756C75733A2020004388
:10052000616C63756C75733A20200043616C637570
:100530006C75733A20200043616C63756C75733A77
:1005400020200036302064656772656573200A00DC
:1005500054300054300054300043616C6962726161
:1005600074696F6E205375636365737366756C0A87
:10057000005430004A756D70206F76657220736389
:100580007265773120616E64207363726577322003
:100590000A004A756D70206F76657220736372650C
:1005A0007731200A0047333400473334004733346F
:1005B0000054300047333400494E464F3A204245FC
:1005C000442043414C4942202D20004C6F61646916
:1005D0006E670A0053757266696E6720300A0053B1
:1005E000757266696E6720300A0053757266696EAF
:1005F0006720300A002533642025634300253364D7
:100600002025634300253364202563430050757221
:1006100067652046696C616D656E740A00253364F8
:10062000202563430025336420256343002533647C
:10063000202563430025336420256343002533646C
:10064000202563430025336420256343002533645C
:1006500020256343002533642025634300537572CE
:1006600066696E6720300A0053757266696E67208E
:10067000300A00543000466F756E64005375726620
:10068000696E6720300A004D333400537572666915
:100690006E6720300A004D3234004D32332025730E
:1006A000004D3234004D32332025730054686520EC
:1006B0006669727374206C61796572207072696EFC
:1006C00074656420776974682074686520257320D8
:1006D000486F74656E640A77696C6C20626520648B
:1006E0006973746F727465642062792025642E25A5
:1006F0003164253164206D6D0053757266696E67D3
:1007000020300A0053757266696E6720300A005304
:10071000757266696E6720300A005355434345532E
:10072000530A0025336420256343002533642025C4
:10073000634300253364202563430025336420256B
:10074000634300253364202563430025336420255B
:10075000634300253364202563430025336420254B
:1007600063430025336420256343004C6F61646953
:100770006E673A0A002533642025634300253364FD
:1007800020256343002533642025634300507572A0
:1007900067652046696C616D656E74200A00473696
:1007A000392041435449564154454400456E642024
:1007B00066696C65206C69737400426567696E20B8
:1007C00066696C65206C697374002F005344207057
:1007D00072696E74696E67206279746520004E6F6D
:1007E00074205344207072696E74696E67004265AC
:1007F00064204865617465640020423A0020453AEF
:1008000000543A00204500205A00205900483D5825
:10081000004649524D574152455F4E414D453A4D74
:1008200061726C696E2056313B20537072696E7430
:1008300065722F6772626C206D61736875702066D7
:100840006F722067656E36204649524D57415245BA
:100850005F55524C3A68747470733A2F2F676974FD
:100860006875622E636F6D2F4572696B5A616C6D8E
:100870002F4D61726C696E2F2050524F544F434F71
:100880004C5F56455253494F4E3A312E30204D4120
:100890004348494E455F545950453A4D656E64652D
:1008A0006C2045585452554445525F434F554E5461
:1008B0003A3220555549443A3030303030303030BB
:1008C0002D303030302D303030302D303030302D34
:1008D0003030303030303030303030300A007A5FF5
:1008E0006D696E3A2000795F6D61783A2000785F1B
:1008F0006D61783A2000785F6D696E3A2000486F2C
:1009000074656E64206F6666736574733A0050494F
:1009100044204175746F74756E652066696E6973E5
:10092000686564212050757420746865206C61735B
:1009300074204B702C204B6920616E64204B642026
:10094000636F6E7374616E74732066726F6D206175
:10095000626F766520696E746F20436F6E6669679B
:1009600075726174696F6E2E68005049442041753C
:10097000746F74756E65206661696C65642120749E
:10098000696D656F75740020403A006F6B20543AB2
:10099000006F6B20423A00504944204175746F74D7
:1009A000756E65206661696C6564212054656D70A3
:1009B0006572617475726520746F6F20686967680D
:1009C00000204B643A2000204B693A2000204B70F5
:1009D0003A200020436C61737369632050494420BE
:1009E000002054753A2000204B753A2000206D619C
:1009F000783A2000206D696E3A200020643A200089
:100A000020626961733A2000504F534954494F4E58
:100A100020484F4D453A20002200556E6B6E6F778F
:100A20006E20636F6D6D616E643A202200466F72B6
:100A30006D20322100526561647920746F204C6F03
:100A400061642F556E6C6F6164200A002564252552
:100A50000025336420256343002533642025634348
:100A600000253364256343202F2025336425634309
:100A700000253364256343202F20253364256343F9
:100A800000253364256343202F20253364256343E9
:100A90000053757266696E672030200A0043616CEE
:100AA0006962726174696F6E2053756363657373F5
:100AB00066756C0A005430004D3834205820592097
:100AC0005A20450070012C0190012701B00122013C
:100AD000C0011D01F00118011002130130020E01C6
:100AE0006002090190020401C002FF000003FA0045
:100AF0004003F5008003F000D003EB002004E60083
:100B00007004E100E004DC004005D700C005D2001D
:100B10004006CD00D006C8008007C3003008BE00E4
:100B2000F008B900C009B400B00AAF00B00BAA00C9
:100B3000D00CA500000EA000500F9B00C010960026
:100B40005012910000148C00C0158700B01782006D
:100B5000B0197D00D01B7800001E730040206E008D
:100B600090226900F024640040275F0090295A0019
:100B7000E02B5500102E500020304B001032460064
:100B8000E033410090353C001037370070383200B8
:100B9000A0392D00B03A2800A03B2300603C1E0085
:100BA000103D1900903D1400103E0F00703E0A00E9
:100BB000C03E0500003F000048797374657265739C
:100BC00069732074656D7065726174757265005427
:100BD0006865726D616C2072756E617761792070E5
:100BE000726F74656374696F6E2062792048656105
:100BF0007465725F49443A004572726F72283833E7
:100C0000293A2042656420746865726D6973746F57
:100C100072206E6F7420646574656374656400454A
:100C200072726F72283832293A20526967687420CC
:100C3000746865726D6973746F72206E6F7420646E
:100C400065746563746564004572726F722838312B
:100C5000293A204C65667420746865726D697374F6
:100C60006F72206E6F7420206465746563746564B0
:100C7000002053544F50205052494E54200A0045F2
:100C800072726F72283833293A2042656420746882
:100C900065726D6973746F72206E6F742064657411
:100CA0006563746564002053544F50205052494E80
:100CB00054200A004572726F72283832293A205245
:100CC0006967687420746865726D6973746F7220E7
:100CD0006E6F74206465746563746564002053549A
:100CE0004F50205052494E54200A004572726F7284
:100CF000283831293A204C65667420746865726D15
:100D00006973746F72206E6F7420206465746563FC
:100D10007465640000002100240027002A002D00D3
:100D20003000330001010000040107010A01000046
:100D30002200250028002B002E0031003400020183
:100D40000000050108010B0100002000230026001F
:100D500029002C002F0032000001000003010601D1
:100D60000901050505050705080808080202020231
:100D70000A0A080804040404010101010101010137
:100D80000303030303030303040707070C0C0C0C02
:100D90000C0C0C0C020202020606060606060606EB
:100DA0000B0B0B0B0B0B0B0B010210202008081078
:100DB00020401020408002010201080402010102CB
:100DC00004081020408080402010080402018004A4
:100DD00002018040201008040201080402010102FF
:100DE0000408102040800102040810204080000008
:100DF0000A0B02090C0D0E08070304010000000095
:100E000000000000000000000000000000000000E2
:100E1000000000000000000000001211100000009F
:100E200000000000000000000000000000000000C2
:100E300000000000202D20496E76616C69642065F9
:100E400078747275646572206E756D6265722021AA
:100E5000004572726F723A0067636F646520666F57
:100E6000756E640020746F2053746172742044693D
:100E700073706C61792066726F6D20526573657452
:100E800000546F6F6B2000646973706C6179206F20
:100E90006E6C696E652100646973706C6179206F96
:100EA00066666C696E65210042434E334420536987
:100EB000676D6120646576206D6F64652031007315
:100EC00074617274006563686F3A0030322D312EA0
:100ED000322E365243006572726F722077726974D7
:100EE000696E6720746F2066696C6500205A3A004D
:100EF00020593A0020583A00656E6473746F70731D
:100F0000206869743A20006563686F3A00446F6E28
:100F10006520736176696E672066696C652E006F67
:100F20006B004D3239003B20472D436F64652067CD
:100F3000656E6572617465642062792053696D70B5
:100F40006C69667933442852292056657273696F3B
:100F50006E202564003B5072696E742074696D6563
:100F60003A202564202573202564202573202564DC
:100F7000202573003B54494D453A20256C64003BC5
:100F80002020204275696C642074696D653A2025C3
:100F900064202573202564202573003B20202050E9
:100FA0006C6173746963207765696768743A20259A
:100FB000642E256467003B46696C616D656E742024
:100FC000757365643A2025642E25646D2025642E92
:100FD000256467003B46696C616D656E74207573AE
:100FE00065643A20256C752E256C756D005341564D
:100FF0004544205052494E540043616E6E6F742038
:10100000656E746572207375626469723A20005768
:10101000726974696E6720746F2066696C653A2026
:10102000002E006F70656E206661696C65642C200F
:1010300046696C653A20002E006F70656E2066610F
:10104000696C65642C2046696C653A200046696CC1
:10105000652073656C6563746564002053697A6507
:101060003A200046696C65206F70656E65643A20B1
:10107000002E006F70656E206661696C65642C20BF
:1010800046696C653A20004E6F772066726573681A
:101090002066696C653A20004E6F7720646F696E38
:1010A000672066696C653A20002220706F73002209
:1010B00020706172656E743A2200535542524F554A
:1010C00054494E452043414C4C207461726765740D
:1010D0003A2200747279696E6720746F2063616CC4
:1010E0006C207375622D67636F64652066696C653B
:1010F00073207769746820746F6F206D616E79203A
:101100006C6576656C732E204D4158206C65766554
:101110006C2069733A004578747275646572207248
:10112000656C6561736564206163746976653A20F6
:10113000005A205349474D4120486F6D6564004572
:1011400078747275646572206163746976653A209B
:10115000000000000000809343000000000000A099
:10116000400000A0400000004020004D6F76652048
:10117000746F3A2000CDAC034400809343000052CA
:1011800043FF01FF20636F6C642065787472757390
:10119000696F6E2070726576656E74656400656354
:1011A000686F3A002E0044656C6574696F6E206646
:1011B00061696C65642C2046696C653A200046695B
:1011C0006C652064656C657465643A002E006F7010
:1011D000656E206661696C65642C2046696C653AB1
:1011E0002000473238205830205930002569206DC2
:1011F000696E2C20256920736563000A0A00537408
:10120000616E6461726420446576696174696F6EB1
:101210003A20000A004D65616E3A20000A00202045
:10122000207A3A200000793A2000783A20003F5393
:101230007065636966696564206E756D62657220AC
:101240006F66206C65677320696E206D6F76656DC3
:10125000656E74206E6F7420706C61757361626C62
:10126000652E0A003F53706563696669656420599D
:1012700020706F736974696F6E206F7574206F666C
:101280002072616E67652E0A003F53706563696660
:10129000696564205820706F736974696F6E206F80
:1012A0007574206F662072616E67652E0A003F5369
:1012B00070656369666965642073616D706C652033
:1012C00073697A65206E6F7420706C6175736162EA
:1012D0006C652E0A0046756C6C20737570706F72A9
:1012E000742061743A20687474703A2F2F336470DC
:1012F00072696E74626F6172642E636F6D2F666FB8
:1013000072756D2E7068700A004D3438205A2D5059
:10131000726F6265205265706561746162696C69A3
:10132000747920746573742E202020566572736959
:101330006F6E20322E30300A003F566572626F7336
:1013400065204C6576656C206E6F7420706C6175DD
:101350007361626C652E0A002A2A2A2047656E692D
:1013600065204261642042797465202A2A2A202D52
:101370002D2D3E203078002056616C75653A200096
:1013800020496E6465783A20002A2A2A2047656E33
:101390006965205265706F7274204F626A6563746C
:1013A000202A2A2A204F626A6563743A20002A2A7A
:1013B0002A2047656E696520436F6E6E65637465AC
:1013C00064202F2053796E6321202A2A2A00205678
:1013D000616C75653A200020496E6465783A20009A
:1013E0002A2A2A2047656E6965205265706F7274DB
:1013F000204576656E74202A2A2A204F626A65632A
:10140000743A2000204C656E6774683A20002A2ADE
:101410002A2047656E696520526563656976656453
:10142000204D6167696320446F75626C6520427965
:10143000746573202A2A2A20496E6465783A200050
:10144000204C656E6774683A20002A2A2A20476576
:101450006E6965205265636569766564204D6167D4
:101460006963204279746573202A2A2A20496E64B0
:1014700065783A20002A2A2A2047656E6965204E41
:10148000414B205265636F766572792021212120BE
:101490002A2A2A002A2A2A2047656E69652044697B
:1014A00073636F6E6E65637465642066726F6D2022
:1014B000446F4576656E747321202A2A2A002A2AF1
:1014C0002A2047656E696520546F6F6B20746F6FBB
:1014D000206C6F6E6720746F2072652D656E746569
:1014E0007220446F4576656E747328292C207265CE
:1014F000647563652064656C61797320696E20632F
:101500006F64652C2073656C662D70726F746563F3
:1015100074696F6E20656E61626C65642E202A2A84
:101520002A002A2A2A2047656E6965204469736368
:101530006F6E6E65637465642066726F6D204765BB
:10154000744E6578744279746521202A2A2A002A0B
:101550002A2A2047656E696520456E61626C6520A8
:101560004174746163684576656E7448616E646C3D
:10157000657220212121202A2A2A0024F4D4305007
:10158000C38E20C2A24017828B7011127A910D81F6
:101590006CD90AA861E108C7586607615143061E65
:1015A0004B5D05C145A7041A411104093D9803711B
:1015B0003931034036DB0265339102D43054028066
:1015C0002E1D02632CEE01752AC501B028A0011062
:1015D0002781018F2564012B244B01E0223401ACCB
:1015E000211F018D200D01801FFC00841EED00973E
:1015F0001DDF00B81CD200E61BC600201BBC006427
:101600001AB200B219A8000A19A0006A189900D1EC
:1016100017910040178B00B516840031167E00B379
:101620001579003A157300C7146F0058146A00EE5C
:101630001366008813630025135E00C7125B006CFD
:1016400012570015125400C111510070114F0021A2
:10165000114B00D61049008D10470046104400027F
:10166000104200C00F4000800F3E00420F3C0006B9
:101670000F3B00CB0E3800930E37005C0E35002771
:101680000E3400F30D3200C10D3100900D300060BA
:101690000D2E00320D2D00050D2C00D90C2B00AEA7
:1016A0000C2900850C29005C0C2700350C27000E46
:1016B0000C2600E80B2400C40B2400A00B23007DA3
:1016C0000B23005A0B2100390B2100180B2000F8C6
:1016D0000A1F00D90A1E00BB0A1E009D0A1D0080B9
:1016E0000A1D00630A1C00470A1B002C0A1B00117C
:1016F0000A1A00F7091A00DD091900C4091900AB1C
:10170000091900920917007B091800630917004C9A
:1017100009160036091600200916000A091500F5F9
:10172000081500E0081400CC081400B8081400A440
:10173000081400900813007D0812006B081300586D
:101740000812004608120034081100230811001284
:1017500008110001081100F0071000E0071000D088
:10176000071000C0071000B0070F00A1071000917C
:10177000070E0083070F0074070F0065070E005760
:10178000070E0049070E003B070D002E070E002034
:10179000070D0013070D0006070D00F9060C00EDFC
:1017A000060D00E0060C00D4060C00C8060C00BCB8
:1017B000060C00B0060C00A4060B0099060C008D68
:1017C000060B0082060B0077060B006C060B00610F
:1017D000060A0057060B004C060A0042060A0038AB
:1017E000060A002E060A0024060A001A060A00103D
:1017F00006090007060A00FD050900F4050900EBCB
:10180000050900E2050900D9050900D0050900C74E
:10181000050900BE050900B5050800AD050800A5CD
:101820000509009C050800940508008C0508008443
:101830000508007C050800740508006C05070065B4
:101840000508005D050700560508004E050700471E
:101850000507004005080038050700310507002A84
:10186000050700230507001C050600160507000FE5
:101870000507000805060002050700FB040600F541
:10188000040700EE040600E8040600E2040700DB9B
:10189000040600D5040600CF040600C9040600C3F0
:1018A000040600BD040600B7040600B1040500AC40
:1018B000040600A6040600A00405009B040600958B
:1018C000040500900406008A0405008504050080D4
:1018D0000406007A04050075040500700405006B19
:1018E00004050066040500610405005C040500575A
:1018F000040500520405004D04050048040500439A
:101900000405003E0404003A0405003504050030D7
:101910000404002C04050027040400230405001E11
:101920000404001A04040016040500110404000D48
:10193000040400090405000404040000040400FC7D
:10194000030400F8030400F4030400F0030400ECB3
:10195000030400E8030400E4030400E0030400DCE3
:10196000030400D8030400D4030400D0030400CC13
:10197000030400C8030300C503030024F404D920B2
:101980001BC40C5C0E9804C4095F0265077101F466
:1019900005F900FB04B30048048700C1036900583F
:1019A00003550003034500BE023A00840231005390
:1019B000022A002902250004022000E4011C00C8BC
:1019C000011900AF01170098011400840113007180
:1019D0000110006101100051010E0043010D00369D
:1019E000010B002B010B0020010B00150109000C5D
:1019F00001090003010800FB000800F3000800EBE8
:101A0000000700E4000600DE000600D8000600D251
:101A1000000600CC000500C7000500C2000500BD9F
:101A2000000400B9000400B5000400B1000400ADDA
:101A3000000400A9000400A5000300A20003009F09
:101A40000004009B0003009800030095000200932F
:101A5000000300900003008D0002008B000300884B
:101A60000002008600020084000300810002007F63
:101A70000002007D0002007B000200790002007776
:101A80000001007600020074000200720001007183
:101A90000002006F0002006D0001006C0002006A8D
:101AA0000001006900020067000100660001006596
:101AB000000100640002006200010061000100609A
:101AC0000001005F0002005D0001005C0001005B9E
:101AD0000001005A000100590001005800010057A0
:101AE00000010056000100550001005400010053A0
:101AF000000000530001005200010051000100509D
:101B00000001004F0001004E0000004E0001004D9A
:101B10000001004C0001004B0000004B0001004A96
:101B20000001004900010048000000480001004792
:101B3000000100460000004600010045000000458D
:101B40000001004400010043000000430001004286
:101B5000000000420001004100000041000100407F
:101B60000001003F0000003F0001003E0000003E79
:101B70000001003D0000003D0001003C0000003C71
:101B80000000003C0001003B0000003B0001003A67
:101B90000000003A0001003900000039000100385F
:101BA0000000003800000038000100370000003756
:101BB000000100360000003600000036000100354C
:101BC0000000003500000035000100340000003442
:101BD0000000003400010033000000330000003337
:101BE000000100320000003200000032000100312C
:101BF0000000003100000031000100300000003022
:101C0000000000300001002F0000002F0000002F16
:101C10000000002F0001002E0000002E0000002E0A
:101C20000001002D0000002D0000002D0000002DFF
:101C30000001002C0000002C0000002C0000002CF3
:101C40000001002B0000002B0000002B0000002BE7
:101C50000001002A0000002A0000002A0000002ADB
:101C600000010029000000290000002900000029CF
:101C700000000029000100280000002800000028C2
:101C800000000028000000280001002700000027B5
:101C900000000027000000270000002700010026A8
:101CA000000000260000002600000026000000269C
:101CB000000100250000002500000025000000258F
:101CC0000000002500000025000100240000002481
:101CD0000000002400000024000000240001002374
:101CE0000000002300000023000000230000002368
:101CF0000000002300000023000100220000002259
:101D0000000000220000002200000022000000224B
:101D1000000100210000002100000021000000213E
:101D2000000000210000002100000021000100202F
:101D30000000002000000020000000200000002023
:101D40000000002000000020000000200001001F13
:101D50000000001F0000001F0000001F0000001F07
:101D60000000001F0000001F0001001E0000001EF8
:101D70000000001E0000001E000000537461727419
:101D8000696E67205A2043616C6962726174696F81
:101D90006E2057697A617264000A0020616E74696E
:101DA000686F726172690A3A200020686F7261720E
:101DB000690A20002F3800766F6C7465732000204C
:101DC000566F6C74657320636172676F6C20333A71
:101DD000200020616E7469686F726172690A3A202E
:101DE0000020686F726172690A20002F3800766FD8
:101DF0006C746573200020566F6C7465732063618A
:101E000072676F6C20323A20000A0020647A333AFD
:101E1000200020647A323A200054310054300054BB
:101E200030005430000056756974656E73333A2083
:101E300020004170726F78333A202000566F6C7426
:101E40006573333A2020000056756974656E7332ED
:101E50003A2020004170726F78323A202000566F8D
:101E60006C746573323A20200056616C6F72206486
:101E70005A333A20200056616C6F7220645A323A0D
:101E80002020004E6577206F666673657420766546
:101E90007273696F6E3A20007A335F313A20007AAC
:101EA000325F313A20005A7363726F6C6C5F313A63
:101EB00020007A335F303A20007A325F303A2000D7
:101EC0005A7363726F6C6C5F303A2000706C616E95
:101ED000654E6F726D616C5F312E7A3A2000706CC6
:101EE000616E654E6F726D616C5F312E793A2000C4
:101EF000706C616E654E6F726D616C5F312E783AF9
:101F00002000706C616E654E6F726D616C5F302E7B
:101F10007A3A2000706C616E654E6F726D616C5F15
:101F2000302E793A2000706C616E654E6F726D6173
:101F30006C5F302E783A20005A76616C75652061AE
:101F40006674657220686F6D653A00486F6D652034
:101F5000582F59206265666F7265205A007C3C3E9E
:101F60005E2B3D3F2F5B5D3B2C2A225C00204240D4
:101F70003A0020403A00202F003A00205400202F41
:101F80000020423A00202F006F6B20543A00457821
:101F900074727564657220486561746564002057C9
:101FA0003A0020453A00543A00205A3A0020593A63
:101FB0000020436F756E7420583A200020453A0087
:101FC000205A3A0020593A00583A00535441544993
:101FD0005354494353205245534554002C207361B8
:101FE0007665645F466C61675F66616E6C6179659A
:101FF000725F6D6972726F723A20002C2073617685
:1020000065645F66656564726174653A20002C20C2
:1020100073617665645F66616E6C617965723A20A2
:10202000002C2073617665645F74656D7062656411
:102030003A20002C2073617665645F74656D7030A2
:102040003A20002C2073617665645F74656D703191
:102050003A20002C2073617665645F66696C657058
:102060006F736974696F6E3A20002C207361766516
:10207000645F655F706F736974696F6E3A20002CDE
:102080002073617665645F746F6F6C5F6163746900
:1020900076653A20002C2073617665645F7A5F7004
:1020A0006F736974696F6E3A20002C2073617665D6
:1020B000645F795F706F736974696F6E3A20002C8A
:1020C0002073617665645F785F706F736974696FA0
:1020D0006E3A200053415645205052494E54204CF0
:1020E0004F473A006563686F3A005072696E74201A
:1020F0007265636F76657279207570004E6F74201B
:102100007072696E74207265636F7665727920757E
:102110007000535543434553530056616C756573C6
:10212000206F7574206F662072616E67650056615E
:102130006C756573206F7574206F662072616E67B1
:10214000650056616C756573206F7574206F66202D
:1021500072616E67650056616C756573206F75748A
:10216000206F662072616E67650053657474696ED6
:1021700067732053746F72656400204D696E7574C7
:102180006573203A0020204C617374207072696E70
:10219000742074696D652D3E20486F757273203A06
:1021A000004C617374207072696E74206475726182
:1021B00074696F6E002C2054686972642049442051
:1021C0006E756D62657220002C205365636F6E64BE
:1021D000204944206E756D6265723A2000202046C9
:1021E00069727374204944206E756D6265723A207D
:1021F00000554920496E666F726D6174696F6E207B
:1022000053657269616C204E756D6265723A00208B
:102210006D2C204531207072696E7420646973746E
:10222000616E63653A2000206B6D2C204530207074
:1022300072696E742064697374616E63653A20001C
:10224000206B6D2C2059207072696E742064697344
:1022500074616E63653A2000206B6D2C205831202C
:102260007072696E742064697374616E63653A207C
:102270000020432C0A205830207072696E7420644C
:10228000697374616E63653A200020432C206D6190
:10229000782074656D7020423A200020432C206D18
:1022A00061782074656D7020523A20002C206D6199
:1022B000782074656D70204C3A2000682C20707274
:1022C000696E74732066696E69736865643A20008C
:1022D0002C207072696E74696E672074696D653A3E
:1022E000200020207072696E74733A2000535441AC
:1022F00054533A0020432C20525F5052494E543AD6
:10230000200020432C20525F4245443A20002043C5
:102310002C20525F52454D4F56453A200020205206
:102320005F494E534552543A200054656D70202841
:1023300043293A0020432C204C5F5052494E543AD6
:10234000200020432C204C5F4245443A200020438B
:102350002C204C5F52454D4F56453A200020204CD2
:102360005F494E534552543A200054656D70202801
:1023700043293A0020562856657273696F6E2920EA
:102380000020522842656420726967687420736374
:1023900072657729200020204D353331204C2842AA
:1023A0006564206C6566742073637265772920000C
:1023B000426564204F66667365747320286D6D29CD
:1023C0003A002050285A2070726F62652900205A06
:1023D00020002059200020204D3533302058200087
:1023E0004F66667365747320286D6D293A0020442A
:1023F00000204900202D204D3330312052494748DC
:102400005420500020440020490020204D3330311A
:10241000204C454654205000504944207365747444
:10242000696E67733A00205A0020590020204D320F
:102430003036205800486F6D65206F66667365748E
:1024400020286D6D293A00204500205A00205800B0
:1024500020420020540020204D32303520530041CE
:102460006476616E636564207661726961626C6531
:10247000733A20533D4D696E2066656564726174E0
:102480006520286D6D2F73292C20543D4D696E20D9
:1024900074726176656C206665656472617465202E
:1024A000286D6D2F73292C20423D6D696E696D7505
:1024B0006D207365676D656E742074696D65202885
:1024C0006D73292C20583D6D6178696D756D2058AC
:1024D00059206A65726B20286D6D2F73292C20207E
:1024E0005A3D6D6178696D756D205A206A65726B11
:1024F00020286D6D2F73292C2020453D6D61786952
:102500006D756D2045206A65726B20286D6D2F7387
:10251000290020540020204D3230342053004163E4
:1025200063656C65726174696F6E3A20533D6163D7
:1025300063656C65726174696F6E2C20543D7265C1
:10254000747261637420616363656C657261746940
:102550006F6E00204500205A0020590020204D3287
:1025600030312058004D6178696D756D204163638D
:10257000656C65726174696F6E20286D6D2F7332A2
:10258000293A00204500205A0020590020204D32D1
:1025900030332058004D6178696D756D2066656532
:1025A00064726174657320286D6D2F73293A002061
:1025B0004500205A0020590020204D393220580073
:1025C00053746570732070657220756E69743A007B
:1025D0002200656E717565696E67202200220065B4
:1025E0006E717565696E6720220025203364202591
:1025F000250025642068202564206D002520336493
:1026000020252500253264202563430025336420DE
:1026100025634300253364202563430052656164CC
:102620007920746F204C6F61642F556E6C6F6164FC
:10263000200A0025642525002533642025634300F6
:1026400025336420256343002053544F50205052BB
:10265000494E54200A004732382058302059300063
:102660004D333500526573756D652064657465631F
:10267000746564200A0047373000A1524553554D18
:102680004521200A00A1504155534521200A00252B
:1026900033642025634300253364202563430025EC
:1026A00033642025634300253364202563430025DC
:1026B00033642025634300253364202563430025CC
:1026C00033642025634300253364202563430025BC
:1026D000336420256343005052494E5420534554DF
:1026E00054494E4753200A004D38340053746172E8
:1026F00074696E6720582043616C69627261746905
:102700006F6E2057697A617264004D3834005374DB
:10271000617274696E6720592043616C69627261ED
:1027200074696F6E2057697A617264005355434330
:102730004553530056616C756573206F7574206F37
:10274000662072616E67650056616C756573206FF7
:102750007574206F662072616E67650056616C75D6
:102760006573206F7574206F662072616E676500F7
:1027700056616C756573206F7574206F6620726189
:102780006E676500486F74656E64206F666673657A
:1027900074733A0054696D6520696E61637469767B
:1027A000650050757267652064697374616E636556
:1027B000005A204F6666736574206F6B005A204F75
:1027C0006666736574203A20007A5F6D61783A20FE
:1027D000007A5F6D696E3A20005A204F6666736515
:1027E0007400504F534954494F4E20484F4D453A7D
:1027F00020007A70726F62653A2000534420636152
:102800007264206F6B006F70656E526F6F7420661C
:1028100061696C656400766F6C756D652E696E69B3
:1028200074206661696C6564004572726F723A006B
:10283000534420696E6974206661696C0065636841
:102840006F3A004D3234004D3233202573006175EC
:10285000746F25692E67002E2E2E2054696D656FCA
:10286000757421002A2A2A2047656E6965205772EF
:102870006974654F626A656374202A2A2A202D2DA7
:102880002D3E002E2E2E204E414B2021002A2A2A9A
:102890002047656E69652057726974654F626A6585
:1028A0006374202A2A2A202D2D2D3E002E2E2E2024
:1028B00041434B2021002A2A2A2047656E69652062
:1028C00057726974654F626A656374202A2A2A20E8
:1028D0002D2D2D3E002564206974656D730025340F
:1028E000643A252E326468202F2025646700004951
:1028F0006E7374616C6C202564202573206F6E20CC
:1029000074686520257320686F74656E6400436188
:102910006C63756C75733A20200043616C63756C51
:1029200075733A20200043616C63756C75733A20AF
:102930002000496E7374616C6C202564202573201F
:102940006F6E2074686520257320686F74656E64EF
:1029500000436F6F6C696E6720446F776E20486527
:1029600061746572005072696E7465722068616C82
:102970007465642E206B696C6C28292063616C6C13
:10298000656421004572726F723A004475616C2073
:102990004D6F6465204F4E004475616C204D697227
:1029A000726F72204D6F6465204F4E004475616CEC
:1029B000204D6F6465204F4646004D383420582026
:1029C00059205A2045004D313037005430004D31E8
:1029D000303700473932204530205A3020522564A4
:1029E000004E6577206C617965722064657465635B
:1029F000746564005A20686F7070696E6720646542
:102A000074656374656400256920686F757273204E
:102A10002569206D696E7574657300446F6E65205D
:102A20007072696E74696E672066696C65004D33FB
:102A300033007061757365206465746563746564E3
:102A4000200A00473639005072696E74657220732F
:102A5000746F707065642064756520746F20657292
:102A6000726F72732E2046697820746865206572D3
:102A7000726F7220616E6420757365204D3939392B
:102A800020746F20726573746172742E20285465EF
:102A90006D706572617475726520697320726573FB
:102AA00065742E20536574206974206166746572A4
:102AB0002072657374617274696E6729006F6B00B0
:102AC0004E6F204C696E65204E756D626572207781
:102AD00069746820636865636B73756D2C204C6145
:102AE0007374204C696E653A20004E6F2043686510
:102AF000636B73756D2077697468206C696E6520EF
:102B00006E756D6265722C204C617374204C696E19
:102B1000653A2000636865636B73756D206D69733A
:102B20006D617463682C204C617374204C696E6510
:102B30003A20004C696E65204E756D6265722069A1
:102B400073206E6F74204C617374204C696E652025
:102B50004E756D6265722B312C204C617374204C64
:102B6000696E653A20004D31313000CDAC03440030
:102B7000809343000052430000000000000000006A
:102B80000000000A00207A3A200020793A20002034
:102B9000783A200042656400457874727564657205
:102BA0002072656C65617365642061637469766524
:102BB0003A20005A205349474D4120486F6D6564C3
:102BC0000045787472756465722061637469766516
:102BD0003A2000504944204175746F74756E652029
:102BE00066696E69736865642100504944204175C7
:102BF000746F74756E65206661696C6564212074FC
:102C0000696D656F75740020403A006F6B20543A0F
:102C1000006F6B20423A00504944204175746F7434
:102C2000756E65206661696C6564212054656D7000
:102C30006572617475726520746F6F20686967686A
:102C400000204B643A2000204B693A2000204B7052
:102C50003A200020436C617373696320504944201B
:102C6000002054753A2000204B753A2000206D61F9
:102C7000783A2000206D696E3A200020643A2000E6
:102C800020626961733A200053746F726564207327
:102C9000657474696E6773207265747269657665B0
:102CA000640048617264636F6465642044656661B2
:102CB000756C742053657474696E6773204C6F6112
:102CC0006465640048617264636F64656420436195
:102CD0006C696220616E64205049442044656661DD
:102CE000756C742053657474696E6773204C6F61E2
:102CF00064656400526573656E643A20006F6B0012
:102D00000A00205A3A200020593A200020583A2040
:102D10000042656400627566666572206F75743A7C
:102D20002000427566666572313A20004361726424
:102D3000204E616D653A2000C401BE0111241FBE02
:102D4000CFEFD1E2DEBFCDBF00E00CBF17E0A0E0C7
:102D5000B2E0E2E8F8E803E00BBF02C007900D9292
:102D6000A639B107D9F729E1A6E9B7E001C01D925C
:102D7000AE3EB207E1F716E1CDE9D6E100E006C0CC
:102D800021970109802FFE010F9490C1CC39D10702
:102D900080E00807A9F70F94D7920D9430C40C94E3
:102DA00000002F923F924F925F926F927F928F928C
:102DB0009F92AF92BF92CF92DF92EF92FF920F93CA
:102DC0001F93CF93DF93CDB7DEB7C353D1400FB678
:102DD000F894DEBF0FBECDBF2DB73EB7CE5CDE4F41
:102DE00039832883C253D14090915F12992391F087
:102DF00080915D1236E0839FF0011124E350FE4E76
:102E0000F080018112818F5F8F7080935D129150ED
:102E100090935F128091D80781110DC00E94A5A4E4
:102E20006093D4077093D5078093D6079093D70704
:102E300081E08093D8078091CC0781110DC00E945A
:102E4000A5A46093C8077093C9078093CA0790939D
:102E5000CB0781E08093CC0747E0F4120C94927387
:102E6000013211F00C94A15E8091490F81110C94F4
:102E70000F6190914A0F91110C940F619091D119AB
:102E8000992309F42CC38091D519823008F427C303
:102E9000173409F489C1B0F41B32E1F140F4173161
:102EA00009F4ADC0183109F4D1C00C9492731033F9
:102EB00009F47EC0153309F4D8C21F3211F00C9406
:102EC00092734FC0103809F4E4C0D0F41E3509F4F1
:102ED0009AC21F3511F00C94927314E410932218C7
:102EE00040E050E06BE084E10F942C5040E050E073
:102EF00065E18AE00F942C50109395080C9492731E
:102F0000123809F424C108F4F3C01B3A09F4F9C1DA
:102F10000C9492730E94A5A40091C8071091C90750
:102F20002091CA073091CB0760177107820793077A
:102F300010F40C9492730E94A5A4DC01CB01885379
:102F40009F4FAF4FBF4F8093C8079093C907A0937F
:102F5000CA07B093CB078EEF9FEF0F94CAA50C94CE
:102F600092730E94A5A40091C8071091C9072091EF
:102F7000CA073091CB07601771078207930710F4D7
:102F80000C9492730E94A5A4DC01CB0188539F4F3F
:102F9000AF4FBF4F8093C8079093C907A093CA074C
:102FA000B093CB078FEF9FEF0F94CAA50C94927349
:102FB0000E94A5A40091C8071091C9072091CA07D3
:102FC0003091CB07601771078207930710F40C94B8
:102FD00092730E94A5A4DC01CB0188539F4FAF4F91
:102FE000BF4F8093C8079093C907A093CA07B093B7
:102FF000CB0780E090E00F94CAA50C9492730E94D6
:10300000A5A40091C8071091C9072091CA07309163
:10301000CB07601771078207930710F40C94927323
:103020000E94A5A4DC01CB0188539F4FAF4FBF4F37
:103030008093C8079093C907A093CA07B093CB07A2
:1030400081E090E00F94CAA50C9492730E94A5A40D
:103050000091C8071091C9072091CA073091CB078A
:103060006017710782079307A0F00E94A5A4DC01F6
:10307000CB0188539F4FAF4FBF4F8093C8079093AA
:10308000C907A093CA07B093CB0782E090E00F94E2
:10309000CAA50E94A5A40091C8071091C907209154
:1030A000CA073091CB07601771078207930710F4A6
:1030B0000C9492730E94A5A4DC01CB0188539F4F0E
:1030C000AF4FBF4F8093C8079093C907A093CA071B
:1030D000B093CB078DEF9FEF909324188093231824
:1030E00040E050E06AE08AE00F942C500C94927318
:1030F0000E94A5A40091C8071091C9072091CA0792
:103100003091CB07601771078207930710F40C9476
:1031100092730E94A5A4DC01CB0188539F4FAF4F4F
:10312000BF4F8093C8079093C907A093CA07B09375
:10313000CB0783E090E0909324188093231840E01D
:1031400050E06AE08AE00F942C500C9492730E9435
:10315000A5A40091C8071091C9072091CA07309112
:10316000CB07601771078207930710F40C949273D2
:103170000E94A5A4DC01CB0188539F4FAF4FBF4FE6
:103180008093C8079093C907A093CA07B093CB0751
:10319000109224181092231840E050E06AE08AE070
:1031A0000F942C500C9492730E94A5A40091C80710
:1031B0001091C9072091CA073091CB07601771079A
:1031C0008207930710F40C9492730E94A5A4DC016B
:1031D000CB0188539F4FAF4FBF4F8093C807909349
:1031E000C907A093CA07B093CB0740E050E068E05E
:1031F0008AE00F942C5081E48093950841E061E0CF
:1032000081E00E9498CE109295080E9490F10F9450
:1032100072A1109123188091D519823011F540E0E8
:1032200050E061E18AE00F942C5080E5809395088E
:103230000091D219010F0093D219002E000C110B2E
:1032400020E030E0A901CA01B9010F94BBA640E01B
:1032500050E069E18AE00F942C50109295080C948C
:103260009273833029F540E050E061E18AE00F94E9
:103270002C5080E5809395080091D319010F00939D
:10328000D319002E000C110B20E030E04CE553EC7C
:1032900060E070E088E393EC0F94BBA640E050E060
:1032A00069E18AE00F942C50109295080C94927367
:1032B000843011F00C94927340E050E061E18AE0B8
:1032C0000F942C5080E5809395080091D419010F3C
:1032D0000093D419002E000C110B20E030E04CE5D7
:1032E00053EC60E070E080E493E40F94BBA640E010
:1032F00050E069E18AE00F942C50109295080C94EC
:103300009273109295088091D2194091D319042F8D
:10331000081B4091D419142F181B602F002E000C8D
:10332000770B880B990B0F94A5B62DEC3CEC4CEC6D
:103330005DEB0F9495B16093C6187093C718809396
:10334000C8189093C918612F012E000C770B880BB9
:10335000990B0F94A5B62DEC3CEC4CEC5DEB0F9467
:1033600095B16093C2187093C3188093C41890935A
:10337000C5180023A1F040E050E06FE18AE00F940F
:103380002C5007FF07C0202F332721950CF43095D0
:1033900008E0020F402F000F550B64E015C0112309
:1033A000B9F040E050E060E28AE00F942C5017FF43
:1033B00007C0812F992781950CF4909518E0180F7C
:1033C000412F110F550B65E08BE10F942C5011C06C
:1033D00014E41093221840E050E06BE084E10F9475
:1033E0002C5040E050E065E18AE00F942C5010939F
:1033F00095088EE790E09093C1188093C0180F94C1
:10340000C4230C9492734091D4198091D219142F33
:10341000181BC1F040E050E060E28AE00F942C50AD
:1034200017FF07C0A12FBB27A1950CF4B09518E09A
:103430001A0F412F110F550B65E08BE10F942C50A3
:103440000C94927314E41093221840E050E06BE067
:1034500084E10F942C5040E050E065E18AE00F9445
:103460002C50109395080C949273809122188434F8
:1034700011F00C9492731092D5191092D1191092E8
:1034800095081092D90A1092D80A1092DF0A109269
:10349000DE0A1092E10A1092E00A1092F90A1092E4
:1034A0008608E4E0F7E084918F01882351F0082E2C
:1034B000000C990B0F9433510F5F1F4FF80184914B
:1034C000F4CF109277190F94A62740E050E065E002
:1034D0008AE00F942C50109222180C949273412F72
:1034E00050E0403E510510F00C949273FA01882789
:1034F000EE58FF4F8F4F0D9490C181E080932008CC
:103500000C94927381E080931F080C94927381E075
:1035100080931E080C94927381E080931D080C9494
:10352000927381E080931C080C9492730E94A5A46E
:103530000091C8071091C9072091CA073091CB07A5
:10354000601771078207930710F40C9492730E941E
:1035500077B8009721F481E08093210811C001978A
:10356000A1F481E08093210840E050E067E381E22C
:103570000F942C5040E050E061E08BE10F942C5010
:103580008091CB0A81508093CB0A0E94A5A4DC01D4
:10359000CB0188539F4FAF4FBF4F8093C807909385
:1035A000C907A093CA07B093CB070C9492730E94EB
:1035B000A5A40091C8071091C9072091CA073091AE
:1035C000CB07601771078207930710F40C9492736E
:1035D0001092F90A10928608E9EFF6E084918F01C3
:1035E000882351F0082E000C990B0F9433510F5F74
:1035F0001F4FF8018491F4CF1092771981E00F9456
:10360000A62740E050E065E08AE00F942C500E942D
:10361000A5A4DC01CB0188539F4FAF4FBF4F8093D0
:10362000C8079093C907A093CA07B093CB070C941F
:1036300092730E94A5A40091C8071091C907209118
:10364000CA073091CB07601771078207930708F408
:10365000CEC280914B0F882309F4C9C241E061E0DA
:103660008CE49FE00E940CAF8FEF9FEF90933A0F96
:103670008093390FE12CF12C08EE1EE09E012F5FA4
:103680003F4F590188248A94982C22242394312C6A
:1036900052EEC52E53E0D52E4091EA115091EB1118
:1036A0006091EC117091ED1180914511909146114E
:1036B000A0914711B091481184179507A607B70745
:1036C00008F0C8C0D801E2E31D92EA95E9F725E1C8
:1036D000422E512C8091E80E8D3429F4E114F1042E
:1036E00009F07FC05FC04091EA115091EB116091E9
:1036F000EC117091ED118091451190914611A091BE
:103700004711B091481184179507A607B70730F7FE
:1037100098EE692E9EE0792E809145119091461188
:10372000A0914711B09148114091EA115091EB11CD
:103730006091EC117091ED1184179507A607B707FA
:1037400088F48093F2119093F311A093F411B09345
:10375000F5118DE391E10F94CD0ED3018D933D01D1
:103760008A3029F4B1E04B1A510829F4B7CFA95196
:10377000BF40C1F3D1CF4091EA115091EB1160915C
:10378000EC117091ED118091451190914611A0912D
:103790004711B091481184179507A607B70708F499
:1037A00099CF9CCF9A828982BF92AF92A6E2BFE066
:1037B000BF93AF931F930F930F947EB689819A8125
:1037C0000F900F900F900F900F900F90019629F08F
:1037D00030923A0F2092390F04C010923A0F109293
:1037E000390F9A828982BF92AF92DF92CF921F9354
:1037F0000F930F947EB689819A810F900F900F904E
:103800000F900F900F90059711F40C94F3609A822B
:103810008982BF92AF92DF92CF921F930F930F9442
:103820007EB689819A810F900F900F900F900F9024
:103830000F90069711F40C94F3602EE0E216F10459
:1038400009F486C13FEFE31AF30A4FE0E416F104EE
:103850000CF422CF1092F2111092F3111092F41185
:103860001092F51140E050E0BA018DE391E10F9420
:103870009F088091390F90913A0F892B49F40CE3FE
:1038800010E0B8EEEB2EBEE0FB2E82E3D82E98C0FF
:103890000AEF10E058EEE52E5EE0F52E62E3362EDC
:1038A00044244A94542CAE014F5F5F4F6A01E3ED0C
:1038B000AE2EE3E0BE2E4091EA115091EB116091E3
:1038C000EC117091ED118091451190914611A091EC
:1038D0004711B091481184179507A607B70708F05C
:1038E0003FC0A8EE8A2EAEE09A2ED701E32D1D929E
:1038F000EA95E9F70E943EB6019621F480E00E9425
:1039000021B526C15A824982DF92CF92F3ED6F2E04
:10391000F3E07F2EBF92AF92FF92EF920F947EB6AC
:1039200089819A810F900F900F900F900F900F90B8
:10393000019659F18FEF9FEF9A838983DF92CF929F
:103940007F926F929F928F920F947EB689819A8117
:103950000F900F900F900F900F900F90892B71F692
:1039600080E00E9421B5C090CB02D090CC02E090C4
:10397000CD02F090CE0220E030E0A901C701B601EF
:103980000F9403C0181694F13CC00150110909F0BE
:1039900092CFE6CFD701ED2D1D92EA95E9F70E946F
:1039A0003EB6019609F4AACF68EE7EE08DE194E080
:1039B0000F940DB6892B09F4A1CF0150110981F2A2
:1039C0004091EA115091EB116091EC117091ED1161
:1039D0008091451190914611A0914711B0914811E5
:1039E00084179507A607B707A8F2BACF2DEC3CECD1
:1039F0004CE45DE3C701B6010F9403C018165CF0F8
:103A0000A7C02DEC3CEC4CE45DEBC701B6010F9474
:103A10009FB687FF9DC040E050E067E18AE00F94C9
:103A20002C508090CB029090CC02A090CD02B09010
:103A3000CE0220E030E0A901C501B4010F9403C01B
:103A400018162CF520E030E048EC52E4C501B40132
:103A50000F9495B10F94C5BE0AE010E0CB01B801F8
:103A60000F9461C1F82EE92E20E030E040E251E4ED
:103A7000C501B4010F9495B10F94C5BECB01B80137
:103A80000F9461C1082FD92EC501B4012AC02401A9
:103A9000350177FA709477F8709420E030E048ECC4
:103AA00052E4C301B2010F9495B10F94C5BE0AE070
:103AB00010E0CB01B8010F9461C1F82EE92E20E08F
:103AC00030E040E251E4C301B2010F9495B10F948C
:103AD000C5BECB01B8010F9461C1082FD92EC30117
:103AE000B2010F94C5BE162FC72E20E030E0A90109
:103AF000C501B4010F949FB687FD03C085E094E033
:103B000002C080E094E0EF92FF92DF920F93CF9299
:103B10001F939F938F938CEA96E09F938F938E01D0
:103B20000F5F1F4F1F930F930F944FB6C8010E9452
:103B3000BBB8B80180E30E9422B32DB73EB7245F23
:103B40003F4F0FB6F8943EBF0FBE2DBF0C9492733B
:103B500080919B0F81114BC0CDB6DEB680911A08C3
:103B600090911B080E9486AEECE4FFE0DF010D900F
:103B70000020E9F78DB79EB78A1B9B0BAC01485B11
:103B8000504F0FB6F8945EBF0FBE4DBF0DB71EB7B6
:103B90000F5F1F4FFF93EF9385EA96E09F938F93FC
:103BA0001F930F930F944FB6780154E0E50EF11C6C
:103BB0000F900F900F900F900F900F90F701808152
:103BC000882349F0082E000C990B0F948BC3D70162
:103BD0008D937D01F3CFC8010F94AF3381EA96E056
:103BE0000F94A9270FB6F894DEBE0FBECDBE0E947B
:103BF000A5A4DC01CB0188539F4FAF4FBF4F8093EB
:103C0000C8079093C907A093CA07B093CB070C9439
:103C100092730E94A5A40091C8071091C907209132
:103C2000CA073091CB07601771078207930708F422
:103C300054C080914B0F882309F44FC080919B0F93
:103C400081114BC0CDB6DEB680911A0890911B0849
:103C50000E9486AEECE4FFE0DF010D900020E9F762
:103C60008DB79EB78A1B9B0B9C01285B304F0FB60C
:103C7000F8943EBF0FBE2DBF0DB71EB70F5F1F4F8D
:103C8000FF93EF938AE996E09F938F931F930F938F
:103C90000F944FB6780134E0E30EF11C0F900F90B3
:103CA0000F900F900F900F90F7018081882349F0BB
:103CB000082E000C990B0F948BC3D7018D937D01B7
:103CC000F3CFC8010F94AF3386E996E00F94A9278C
:103CD0000FB6F894DEBE0FBECDBE0E94A5A4DC01D7
:103CE000CB0188539F4FAF4FBF4F8093C80790932E
:103CF000C907A093CA07B093CB070C9492730E9494
:103D0000A5A40091C8071091C9072091CA07309156
:103D1000CB07601771078207930710F40C94927316
:103D200040E050E067E381E20F942C5040E050E027
:103D300061E08BE10F942C5040E050E062E08AE0BB
:103D40000F942C5081E08093F90A809322080E94FE
:103D5000A5A4DC01CB0188539F4FAF4FBF4F809389
:103D6000C8079093C907A093CA07B093CB070C94D8
:103D700092730E94A5A40091C8071091C9072091D1
:103D8000CA073091CB07601771078207930710F4B9
:103D90000C94927381E0809324080E94A5A4DC0116
:103DA000CB0188539F4FAF4FBF4F8093C80790936D
:103DB000C907A093CA07B093CB070C9492730E94D3
:103DC000A5A40091C8071091C9072091CA07309196
:103DD000CB07601771078207930710F40C94927356
:103DE00081E0809323080E94A5A4DC01CB018853C5
:103DF0009F4FAF4FBF4F8093C8079093C907A093C1
:103E0000CA07B093CB070C9492730E94A5A40091AB
:103E1000C8071091C9072091CA073091CB076017D6
:103E200071078207930710F40C94927340E050E0FE
:103E300062E18AE00F942C500E94A5A4DC01CB0122
:103E400088539F4FAF4FBF4F8093C8079093C907C8
:103E5000A093CA07B093CB070C9492730E94A5A4B9
:103E60000091C8071091C9072091CA073091CB076C
:103E7000601771078207930710F40C94927340E067
:103E800050E06CE18AE00F942C5080E00F94A6275C
:103E900010923608109235081092340881E0809311
:103EA00077190E94A5A4DC01CB0188539F4FAF4F27
:103EB000BF4F8093C8079093C907A093CA07B093D8
:103EC000CB070C9492730E94A5A40091C80710918F
:103ED000C9072091CA073091CB0760177107820785
:103EE000930710F40C9492731092F90A10928608BA
:103EF000EBE8F6E084918F01882351F0082E000C46
:103F0000990B0F9433510F5F1F4FF8018491F4CF39
:103F1000109277190E94599281E00F94A62740E0F1
:103F200050E065E08AE00F942C500E94A5A4DC01CB
:103F3000CB0188539F4FAF4FBF4F8093C8079093DB
:103F4000C907A093CA07B093CB070C9492738091D2
:103F5000DE0A9091DF0A892B29F01092DF0A109275
:103F6000DE0A08C08091E5089091E6089093DF0A88
:103F70008093DE0A109236080C9492738091E00AC6
:103F80009091E10A892B29F01092E10A1092E00A3F
:103F900008C08091E3089091E4089093E10A80932F
:103FA000E00A109235080C9492738091D80A90918F
:103FB000D90A892B29F01092D90A1092D80A1CC06C
:103FC0008091E1089091E2086091DF087091E0082B
:103FD000681779072CF4BC01990F880B990B04C062
:103FE000072E000C880B990B0F94A5B60F94C5BE35
:103FF0007093D90A6093D80A109234080C94927383
:104000000E94A5A40091C8071091C9072091CA0772
:104010003091CB07601771078207930710F40C9457
:10402000927387E896E00F94A9270E94A5A4DC016B
:10403000CB0188539F4FAF4FBF4F8093C8079093DA
:10404000C907A093CA07B093CB070C9492730E9440
:10405000A5A40091C8071091C9072091CA07309103
:10406000CB07601771078207930710F40C949273C3
:1040700040E050E06EE18AE00F942C500E94A5A42D
:10408000DC01CB0188539F4FAF4FBF4F8093C807D0
:104090009093C907A093CA07B093CB070C9492736F
:1040A0000E94A5A40091C8071091C9072091CA07D2
:1040B0003091CB07601771078207930710F40C94B7
:1040C000927340E050E065E08AE00F942C5010922B
:1040D000F90A10928608ECE7F6E084918F018823B4
:1040E00051F0082E000C990B0F9433510F5F1F4FA6
:1040F000F8018491F4CF1092771988E793E09093B8
:104100002D0280932C020F94C4230E94A5A4DC01ED
:10411000CB0188539F4FAF4FBF4F8093C8079093F9
:10412000C907A093CA07B093CB070C9492730E945F
:10413000A5A40091C8071091C9072091CA07309122
:10414000CB07601771078207930710F40C949273E2
:104150000E94A5A4DC01CB0188539F4FAF4FBF4FF6
:104160008093C8079093C907A093CA07B093CB0761
:1041700040E050E06AE18AE00F942C500F947F53A6
:1041800080914B0F882311F40C9492738091CA0A8A
:104190008093CB0A22EAE22E2AE0F22E36EBC32EDF
:1041A0003AE0D32E00E010E046E7842E46E0942E5D
:1041B0008091CA0A90E008171907ACF56CE47FE01B
:1041C00083EC9FE00F9488095701D7018D919D9151
:1041D0007D010E9486AEF50180819181D6018D938B
:1041E0009D936D0180919B0F811118C0F401849102
:1041F00096E7A92E96E0B92E882359F0082E000CD8
:10420000990B0F943351FFEFAF1ABF0AF501849158
:10421000F3CF8AE090E00F94335102C00E94FFB3C5
:104220000F5F1F4FC5CF87E090E00F940E920C9464
:1042300092730E94A5A40091C8071091C90720910C
:10424000CA073091CB07601771078207930710F4F4
:104250000C9492730E94A5A4DC01CB0180579E4F61
:10426000AF4FBF4F8093C8079093C907A093CA0769
:10427000B093CB0780912C0290912D02803697400D
:1042800041F488E793E090932D0280932C020F94E1
:10429000C42340E050E068E08AE00F942C5081E4B1
:1042A000809395088091FB0A882331F140E061E01A
:1042B00081E00E9498CE0E9490F1809195088E3402
:1042C00011F40C94927381E00F94A6271092950834
:1042D00083E796E00F94A9270E9490F180919508BA
:1042E0008E3411F40C94927340E050E06BE08AE05D
:1042F0000F942C500C94927341E0D9CF0E94A5A446
:104300000091C8071091C9072091CA073091CB07C7
:10431000601771078207930710F40C94927340E0C2
:1043200050E064E08AE00F942C500E94A5A4DC01C8
:10433000CB0188539F4FAF4FBF4F8093C8079093D7
:10434000C907A093CA07B093CB070C9492730E943D
:10435000A5A40091C8071091C9072091CA07309100
:10436000CB07601771078207930710F40C949273C0
:104370000E94A5A4DC01CB0180579E4FAF4FBF4FD9
:104380008093C8079093C907A093CA07B093CB073F
:1043900040E050E064E28AE00F942C5081E080938A
:1043A000C50789E4809395081F921F9283E294E0E9
:1043B0009F938F938E010F5F1F4F1F930F930F9447
:1043C00000C4B8018EE20E9422B36091E5087091AA
:1043D000E608072E000C880B990B0F94A5B600E099
:1043E00010E028EC31E440E050E00F94377E0F9469
:1043F000C42368E274E08FE39EE00F94367E6BE2A4
:1044000074E08FE39EE00F94367E6091DF0270913E
:10441000E0028091E1029091E20242E050E00F94CC
:104420001D7E6FE274E08FE39EE00F94367E2DEBED
:1044300037E346E05EE36091D7027091D802809145
:10444000D9029091DA020F9419BE42E050E00F9425
:104450001D7E63E374E08FE39EE00F94367E2DEBC8
:1044600037E346E05EE36091CF027091D002809125
:10447000D1029091D2020F9495B142E050E00F9496
:104480001D7E6091E3087091E408072E000C880BF4
:10449000990B0F94A5B600E010E028EC31E441E060
:1044A00050E00F94377E0F94C42368E274E08FE3EA
:1044B0009EE00F94367E6BE274E08FE39EE00F94F3
:1044C000367E6091E3027091E4028091E502909162
:1044D000E60242E050E00F941D7E6FE274E08FE34D
:1044E0009EE00F94367E2DEB37E346E05EE360916D
:1044F000DB027091DC028091DD029091DE020F946C
:1045000019BE42E050E00F941D7E63E374E08FE338
:104510009EE00F94367E2DEB37E346E05EE360913C
:10452000D3027091D4028091D5029091D6020F945B
:1045300095B142E050E00F941D7E109295080E94C4
:10454000599240E050E06BE084E10F942C5040E041
:1045500050E065E18AE00F942C5084E480932218A7
:10456000809395080F900F900F900F900F900F90E1
:104570000C9492730E94A5A40091C8071091C907DA
:104580002091CA073091CB07601771078207930704
:1045900010F40C9492731092F90A10928608E8E6CF
:1045A000F6E084918F01882351F0082E000C990BBE
:1045B0000F9433510F5F1F4FF8018491F4CF109285
:1045C00077190E94599240E050E065E08AE00F942C
:1045D0002C500E94A5A4DC01CB0188539F4FAF4F04
:1045E000BF4F8093C8079093C907A093CA07B093A1
:1045F000CB070C9492730E94A5A40091C807109158
:10460000C9072091CA073091CB076017710782074D
:10461000930710F40C94927382E58093190281E061
:104620008093C40740E050E06BE581E20F942C508A
:1046300040E050E06CE581E20F942C5040E050E007
:1046400060E08BE10F942C5040E050E06AE781E29B
:104650000F942C5040E050E069E781E20F942C5019
:1046600040E050E06DE18AE00F942C508FEF809392
:10467000900B0E94A5A4DC01CB0180579E4FAF4F49
:10468000BF4F8093C8079093C907A093CA07B09300
:10469000CB070C9492730E94A5A40091C8071091B7
:1046A000C9072091CA073091CB07601771078207AD
:1046B000930710F40C94927340E050E062E18AE0BA
:1046C0000F942C5040E050E06BE581E20F942C50A9
:1046D00040E050E06CE581E20F942C5040E050E067
:1046E00060E08BE10F942C5040E050E06AE781E2FB
:1046F0000F942C5040E050E069E781E20F942C5079
:104700001092C4070E94A5A4DC01CB0188539F4FDF
:10471000AF4FBF4F8093C8079093C907A093CA07B4
:10472000B093CB070C9492730E94A5A40091C80784
:104730001091C9072091CA073091CB076017710704
:104740008207930710F40C9492731092F90A109256
:104750008608EDE5F6E084918F01882351F0082E5C
:10476000000C990B0F9433510F5F1F4FF801849188
:10477000F4CF1092771940E050E065E08AE00F94A2
:104780002C5040E050E06BE581E20F942C5040E06B
:1047900050E06CE581E20F942C5040E050E060E086
:1047A0008BE10F942C5040E050E06AE781E20F94D7
:1047B0002C5040E050E069E781E20F942C501092B9
:1047C000C4070E94A5A4DC01CB0188539F4FAF4FC3
:1047D000BF4F8093C8079093C907A093CA07B093AF
:1047E000CB070C9492730E94A5A40091C807109166
:1047F000C9072091CA073091CB076017710782075C
:10480000930710F40C94927341E050E06BE581E261
:104810000F942C5040E050E06CE581E20F942C5056
:1048200041E050E060E08BE10F942C5041E050E01B
:104830006AE781E20F942C5041E050E069E781E2A1
:104840000F942C501092900B0E94A5A4DC01CB0178
:1048500088539F4FAF4FBF4F8093C8079093C907AE
:10486000A093CA07B093CB070C9492730E94A5A49F
:104870000091C8071091C9072091CA073091CB0752
:10488000601771078207930710F40C94927340E04D
:1048900050E06BE581E20F942C5041E050E06CE574
:1048A00081E20F942C5041E050E060E08BE10F94E6
:1048B0002C5041E050E06AE781E20F942C5041E037
:1048C00050E069E781E20F942C5081E08093900BD7
:1048D0000E94A5A4DC01CB0188539F4FAF4FBF4F6F
:1048E0008093C8079093C907A093CA07B093CB07DA
:1048F0000C9492730E94A5A40091C8071091C90757
:104900002091CA073091CB07601771078207930780
:1049100010F40C9492730E94A5A4DC01CB0188537F
:104920009F4FAF4FBF4F8093C8079093C907A09385
:10493000CA07B093CB0780912C0290912D0280364C
:10494000974041F488E793E090932D0280932C02E6
:104950000F94C4230091900B0F3F11F40C949273A9
:1049600001111DC08091891890918A186091A0074B
:104970007091A107681779072CF4BC01990F880B77
:10498000990B04C0072E000C880B990B0F94A5B649
:104990000F94C5BE7093DF0A6093DE0A20C0809139
:1049A000BC189091BD1860919E0770919F07681781
:1049B00079072CF4BC01990F880B990B04C0072EC2
:1049C000000C880B990B0F94A5B610E0000F111F77
:1049D0000252154F0F94C5BED8016D937C9381E0B0
:1049E0008093930881E48093950840E050E068E06C
:1049F0008AE00F942C508091FB0A882311F040E04C
:104A000001C041E061E081E00E9498CE80E090E04A
:104A1000A3E4B3E48093EB189093EC18A093ED1803
:104A2000B093EE1880907C0B90907D0BA0907E0B45
:104A3000B0907F0B2091E7183091E8184091E91869
:104A40005091EA186091E3187091E4188091E5188C
:104A50009091E618ECEE6E2EEAE07E2E7F926F9239
:104A6000FFEECF2EF8E1DF2EE12CF12C03E413E46E
:104A70000E943BBC80E090E0A0E2B1E48093E718A4
:104A80009093E818A093E918B093EA188090780BF7
:104A90009090790BA0907A0BB0907B0BE090EB1884
:104AA000F090EC180091ED181091EE186091E31859
:104AB0007091E4188091E5189091E6187F926F92BA
:104AC00020E030E040E251E40E943BBC0E9490F1C3
:104AD0000F900F900F900F90809195088E3411F4E5
:104AE0000C949273109295080E9459926BE074E0B6
:104AF0008DE20E9422B340E050E068E28AE00F9429
:104B00002C500091900B10E0F801EE0FFF1FEE0FFC
:104B1000FF1FE456F64E60817181828193810F946C
:104B2000C5BE70932D0860932C08000F111FF8016B
:104B3000E252F54F8081918190932B0880932A084F
:104B400088E4809395080E94599264EF71E080E0B8
:104B500090E00E946DA481E080932E080C949273E3
:104B60000E94A5A40091C8071091C9072091CA0707
:104B70003091CB07601771078207930710F40C94EC
:104B800092730E94A5A4DC01CB0188539F4FAF4FC5
:104B9000BF4F8093C8079093C907A093CA07B093EB
:104BA000CB0780912C0290912D028036974041F4E2
:104BB00088E793E090932D0280932C020F94C423F6
:104BC000E091900BEF3F11F40C94927381E080938D
:104BD0009308F0E0EE0FFF1FE252F54F84E091E002
:104BE0009183808381E48093950840E050E068E001
:104BF0008AE00F942C508091FB0A882311F040E04A
:104C000001C041E061E081E00E9498CE0E9490F1F5
:104C1000809195088E3411F40C94927380E090E0AA
:104C2000A3E4B3E48093EB189093EC18A093ED18F1
:104C3000B093EE1880907C0B90907D0BA0907E0B33
:104C4000B0907F0B2091E7183091E8184091E91857
:104C50005091EA186091E3187091E4188091E5187A
:104C60009091E618ECEE6E2EEAE07E2E7F926F9227
:104C7000FFEECF2EF8E1DF2EE12CF12C03E413E45C
:104C80000E943BBC0E9490F10F900F90809195087C
:104C90008E3411F40C94927380E090E0A0E2B1E4C1
:104CA0008093E7189093E818A093E918B093EA1856
:104CB0008090780B9090790BA0907A0BB0907B0B42
:104CC000E090EB18F090EC180091ED181091EE18B0
:104CD0006091E3187091E4188091E5189091E618BE
:104CE0007F926F9220E030E040E251E40E943BBCB2
:104CF0000E9490F10F900F90809195088E3411F4DE
:104D00000C9492738091900B811103C080E090E02D
:104D100002C081E090E00F94708C80E090E0AFE7FB
:104D2000B3E48093E3189093E418A093E518B0934C
:104D3000E618E090EB18F090EC180091ED18109147
:104D4000EE182091E7183091E8184091E918509139
:104D5000EA1880E99BE09F938F93812C60E8962E60
:104D60006BE3A62E66E4B62E7FEEC72E78E1D72E33
:104D700060E070E08FE793E40E943BBC0E9490F1FA
:104D80000F900F90809195088E3411F40C949273CB
:104D9000109295080E94599240E050E065E28AE046
:104DA0000F942C500C9492730E94A5A40091C807F4
:104DB0001091C9072091CA073091CB07601771077E
:104DC0008207930710F40C94927381E08093280873
:104DD0001092260810922708109229080E94A5A474
:104DE000DC01CB0186509F4FAF4FBF4F8093C80768
:104DF0009093C907A093CA07B093CB070C94927302
:104E00000E94A5A40091C8071091C9072091CA0764
:104E10003091CB07601771078207930710F40C9449
:104E200092731092280881E0809326081092270838
:104E3000109229080E94A5A4DC01CB0186509F4F47
:104E4000AF4FBF4F8093C8079093C907A093CA077D
:104E5000B093CB070C9492730E94A5A40091C8074D
:104E60001091C9072091CA073091CB0760177107CD
:104E70008207930710F40C949273109228081092F2
:104E8000260881E080932708109229080E94A5A493
:104E9000DC01CB0186509F4FAF4FBF4F8093C807B7
:104EA0009093C907A093CA07B093CB070C94927351
:104EB0000E94A5A40091C8071091C9072091CA07B4
:104EC0003091CB07601771078207930710F40C9499
:104ED000927310922808109226081092270881E0F9
:104EE000809329080E94A5A4DC01CB0186509F4F26
:104EF000AF4FBF4F8093C8079093C907A093CA07CD
:104F0000B093CB070C9492730E94A5A40091C8079C
:104F10001091C9072091CA073091CB07601771071C
:104F20008207930710F40C9492738FEF80931A0208
:104F30000E94599240E050E062E18AE00F942C50C8
:104F40000E94A5A4DC01CB0188539F4FAF4FBF4FF8
:104F50008093C8079093C907A093CA07B093CB0763
:104F60000C9492730E94A5A40091C8071091C907E0
:104F70002091CA073091CB0760177107820793070A
:104F800010F40C9492738FEF80931A020E9459923E
:104F900040E050E062E18AE00F942C500E94A5A40A
:104FA000DC01CB0188539F4FAF4FBF4F8093C807A1
:104FB0009093C907A093CA07B093CB070C94927340
:104FC0000E94A5A40091C8071091C9072091CA07A3
:104FD0003091CB07601771078207930710F40C9488
:104FE000927341E050E06CE981E20F942C5041E073
:104FF00050E06DE981E20F942C50209161023091D4
:1050000062028E010F5F1F4F8091DE0A9091DF0ACE
:1050100010926202109261022130310509F052C0F3
:10502000892B41F48091E5089091E6089093DF0A7E
:105030008093DE0A41E050E06AE981E20F942C504F
:1050400040E050E06BE981E20F942C501F9240EB5E
:10505000F42EFF928091DF0A8F938091DE0A8F9366
:105060008EE094E09F938F931F930F930F9400C44F
:10507000B80185E00E9422B3C8010E94BBB81F920C
:10508000FF9260919C1970919D1980919E19909149
:105090009F190F94C5BE7F936F9385E596E09F930C
:1050A0008F931F930F930F944FB6B8018AE00E941D
:1050B00022B3EDB7FEB770960FB6F894FEBF0FBEE1
:1050C000EDBF4FC0892B41F48091E5089091E6082F
:1050D0009093DF0A8093DE0A41E050E06AE981E2C2
:1050E0000F942C5040E050E06BE981E20F942C507B
:1050F0001F9230EBF32EFF928091DF0A8F93809105
:10510000DE0A8F938EE094E09F938F931F930F930B
:105110000F9400C4B80185E00E9422B31F92FF9251
:1051200060919C1970919D1980919E1990919F1981
:105130000F94C5BE7F936F938DE496E09F938F93FA
:105140001F930F930F944FB6B8018AE00E9422B3C9
:105150002DB73EB7205F3F4F0FB6F8943EBF0FBE4E
:105160002DBF0E94A5A4DC01CB0188539F4FAF4FF8
:10517000BF4F8093C8079093C907A093CA07B09305
:10518000CB070C9492730E94A5A40091C8071091BC
:10519000C9072091CA073091CB07601771078207B2
:1051A000930710F40C94927341E050E06CE981E2B3
:1051B0000F942C5041E050E06DE981E20F942C50A7
:1051C00020916102309162028E010F5F1F4F80912A
:1051D000E00A9091E10A232B09F059C021E030E068
:1051E0003093620220936102892B41F48091E3089D
:1051F0009091E4089093E10A8093E00A40E050E047
:105200006AE981E20F942C5041E050E06BE981E2C1
:105210000F942C501F9220EBF22EFF928091E10A06
:105220008F938091E00A8F9385E496E09F938F930C
:105230001F930F930F944FB6B80185E00E9422B3DD
:10524000C8010E94BBB81F92FF926091A019709193
:10525000A1198091A2199091A3190F94C5BE7F93B3
:105260006F938DE396E09F938F931F930F930F940B
:105270004FB6B80181E10E9422B34DB75EB7405FDF
:105280005F4F0FB6F8945EBF0FBE4DBF54C021E014
:1052900030E03093620220936102892B41F48091C7
:1052A000E3089091E4089093E10A8093E00A40E0DB
:1052B00050E06AE981E20F942C5041E050E06BE944
:1052C00081E20F942C501F9290EBF92EFF92809167
:1052D000E10A8F938091E00A8F9385E396E09F9394
:1052E0008F931F930F930F944FB6B80185E00E94E0
:1052F00022B31F92FF926091A0197091A119809121
:10530000A2199091A3190F94C5BE7F936F938DE25C
:1053100096E09F938F931F930F930F944FB6B8010E
:1053200081E10E9422B38DB79EB740960FB6F894E4
:105330009EBF0FBE8DBF0E94A5A4DC01CB01885388
:105340009F4FAF4FBF4F8093C8079093C907A0935B
:10535000CA07B093CB070C949273E0916102F0916D
:105360006202EF3F9FEFF90711F40C949273EE0F76
:10537000FF1FE252F54F808191818B33A1E09A07A4
:1053800014F00C9492730596918380831F9220EB06
:105390002F939F938F9385E296E09F938F938E0137
:1053A0000F5F1F4F1F930F930F944FB6B80185E007
:1053B0000E9422B3EDB7FEB738960FB6F894FEBF41
:1053C0000FBEEDBF0C949273E0916102F091620206
:1053D000EF3F2FEFF20711F40C949273EE0FFF1FC3
:1053E000E252F54F808191811816190614F00C9441
:1053F00092730597918380831F9220EB2F939F9345
:105400008F938DE196E09F938F938E010F5F1F4FD7
:105410001F930F930F944FB6B80185E00E9422B3FB
:105420004DB75EB7485F5F4F0FB6F8945EBF0FBED3
:105430004DBF0C949273809161029091620201962B
:1054400011F40C9492739091DE088091DD0898130A
:105450000C94F86081E0809333080C9492738091EF
:10546000610290916202019611F40C9492739091F2
:10547000DE088091DD0898130C94F8600C94FC60B1
:105480000E94A5A40091C8071091C9072091CA07DE
:105490003091CB07601771078207930710F40C94C3
:1054A000927381E080932F0840E050E068E981E248
:1054B0000F942C5040E050E067E981E20F942C50AB
:1054C00040E050E06CE981E20F942C5040E050E065
:1054D0006DE981E20F942C5040E050E067E881E2F2
:1054E0000F942C5040E050E06CE28AE00F942C5076
:1054F0008FEF9FEF9093620280936102EDE0F6E000
:1055000084918F01882351F0082E000C990B0F9481
:1055100033510F5F1F4FF8018491F4CF40E050E00A
:105520006AE981E20F942C5040E050E06BE981E29F
:105530000F942C501F9210EBF12EFF9260919C194A
:1055400070919D1980919E1990919F190F94C5BEDD
:105550007F936F9385E096E09F938F938E010F5F0B
:105560001F4F1F930F930F944FB6B8018AE00E940C
:1055700022B3C8010E94BBB81F92FF926091A0198C
:105580007091A1198091A2199091A3190F94C5BE91
:105590007F936F938DEF95E09F938F931F930F935E
:1055A0000F944FB6B80181E10E9422B3C8010E9456
:1055B000BBB81F92FF921F921F9285EF95E09F93B9
:1055C0008F931F930F930F944FB6B80185E00E94FD
:1055D00022B3C8010E94BBB80E94A5A4DC01CB0184
:1055E00088539F4FAF4FBF4F8093C8079093C90711
:1055F000A093CA07B093CB072DB73EB7285E3F4FA5
:105600000FB6F8943EBF0FBE2DBF0C9492730E944C
:10561000A5A40091C8071091C9072091CA0730912D
:10562000CB07601771078207930710F40C949273ED
:1056300010922F080E944DF181E00F94A6270E943E
:10564000599240E050E066E08AE00F942C500E94AE
:10565000A5A4DC01CB0188539F4FAF4FBF4F809370
:10566000C8079093C907A093CA07B093CB070C94BF
:1056700092730E94A5A40091C8071091C9072091B8
:10568000CA073091CB07601771078207930710F4A0
:105690000C94927310922F080E944DF11092F90A07
:1056A0001092860810927719EAEEF5E084918F0146
:1056B000882351F0082E000C990B0F9433510F5F83
:1056C0001F4FF8018491F4CF81E00F94A6270E9428
:1056D000599240E050E065E08AE00F942C500E941F
:1056E000A5A4DC01CB0188539F4FAF4FBF4F8093E0
:1056F000C8079093C907A093CA07B093CB070C942F
:1057000092730E94A5A40091C8071091C907209127
:10571000CA073091CB07601771078207930710F40F
:105720000C9492731092C30740E050E064E08AE06A
:105730000F942C500E94A5A4DC01CB0188539F4FED
:10574000AF4FBF4F8093C8079093C907A093CA0774
:10575000B093CB070C9492730E94A5A40091C80744
:105760001091C9072091CA073091CB0760177107C4
:105770008207930710F40C94927382E580931902C8
:105780008FEF8093900B40E050E066E18AE00F9449
:105790002C500E94A5A4DC01CB0188539F4FAF4F32
:1057A000BF4F8093C8079093C907A093CA07B093CF
:1057B000CB070C9492730E94A5A40091C807109186
:1057C000C9072091CA073091CB076017710782077C
:1057D000930710F40C94927389E48093190240E0CB
:1057E00050E06CE481E20F942C5040E050E06BE418
:1057F00081E20F942C5040E050E061E481E20F948C
:105800002C5040E050E066E481E20F942C5040E0E0
:1058100050E06EE481E20F942C5040E050E06FE4E1
:1058200081E20F942C5040E050E064E18AE00F9454
:105830002C508FEF8093900B0E94A5A4DC01CB012C
:1058400088539F4FAF4FBF4F8093C8079093C907AE
:10585000A093CA07B093CB070C9492730E94A5A49F
:10586000C090C807D090C907E090CA07F090CB0756
:105870006C157D058E059F0510F40C9492730E94A3
:10588000A5A4DC01CB0188539F4FAF4FBF4F80933E
:10589000C8079093C907A093CA07B093CB071A35DE
:1058A00019F41092900B03C081E08093900B00914B
:1058B000900B01111DC08091891890918A186091F8
:1058C000A0077091A107681779072CF4BC01990F04
:1058D000880B990B04C0072E000C880B990B0F94B2
:1058E000A5B60F94C5BE7093DF0A6093DE0A20C090
:1058F0008091BC189091BD1860919E0770919F0790
:10590000681779072CF4BC01990F880B990B04C018
:10591000072E000C880B990B0F94A5B610E0000F12
:10592000111F0252154F0F94C5BED8016D937C9381
:1059300081E48093950840E050E068E08AE00F94AD
:105940002C508091FB0A882311F040E001C041E017
:1059500061E081E00E9498CE80E090E0A3E4B3E4AF
:105960008093EB189093EC18A093ED18B093EE1879
:1059700080907C0B90907D0BA0907E0BB0907F0B65
:105980002091E7183091E8184091E9185091EA18F1
:105990006091E3187091E4188091E5189091E618F1
:1059A000ECEE6E2EEAE07E2E7F926F92FFEECF2E0F
:1059B000F8E1DF2EE12CF12C03E413E40E943BBC60
:1059C00080E090E0A0E2B1E48093E7189093E818BB
:1059D000A093E918B093EA188090780B9090790B17
:1059E000A0907A0BB0907B0BE090EB18F090EC1845
:1059F0000091ED181091EE186091E3187091E41881
:105A00008091E5189091E6187F926F9220E030E047
:105A100040E251E40E943BBC0E9490F10F900F9035
:105A20000F900F90809195088E3411F40C9492731E
:105A3000109295080E9459926BE074E08DE20E94EA
:105A400022B340E050E068E28AE00F942C500091CD
:105A5000900B10E0F801EE0FFF1FEE0FFF1FE45652
:105A6000F64E60817181828193810F94C5BE7093DF
:105A70002D0860932C08000F111FF801E252F54F1A
:105A80008081918190932B0880932A080E945992DB
:105A900088E48093950864EF71E080E090E00E94D4
:105AA0006DA481E080932E080C9492738091261847
:105AB00081110C9492730E94A5A40091C8071091C3
:105AC000C9072091CA073091CB0760177107820779
:105AD000930710F40C94927340E050E066E08AE083
