:100000000C9402170C9433170C9433170C94331779
:100010000C9433170C9433170C9433170C94331738
:100020000C9433170C9433170C9433170C94331728
:100030000C9433170C9433170C9433170D94D62566
:100040000C9433170C9433170C9433170C94331708
:100050000C9433170C9433170D94D64D0C94D7E9A8
:100060000C9433170C9405E80C94DCE70C943317CC
:100070000C9433170C9433170C9433170C943317D8
:100080000C9447EB0C9433170C9433170C943317E0
:100090000C9433170C9433170C9433170C943317B8
:1000A0000C9433170C9433170C9433170C943317A8
:1000B0000C9433170C9433170C9433170C94331798
:1000C0000C9433170C9433170C9433170C94A7E744
:1000D0000C947EE70C9433170C9433170C9433175D
:1000E0000C9433174D5ADB5CAC2F702DF7578A28D0
:1000F000B55BA028DB5CDB5CDB5CDF287C28DB5CA1
:10010000D825CD25DB5C8839DB5CDB5CDB5CC05B48
:100110003D40534069407F4017419540DE5B2F4092
:100120000843545AD539C639AB40BF40DB5C9528EB
:100130004E267C28502DC03B682D725BCB4E602D27
:10014000582D935BE959DB5C9E2F6B5BDB5C673C56
:10015000A828F925E325DB5CDB5CB929F139DB5CF8
:10016000405B145B2F48A5312428404CE236E4392B
:10017000A931DB5CB15A635A6A2F543054303030A5
:10018000AD31B1325C2BF8281129F02F1230C22585
:10019000EE25DB5CDB5C7C28E42FD02BF22B3E29A8
:1001A000653B453BDB5CC2566D57D659DB5CDE5B7D
:1001B000DE5B36590A59DE58B2582E585A588658BE
:1001C0001F5A40578C431643024413466C45F6446D
:1001D000DB5CDB5CF757152C2E2CE42FE556D55B4A
:1001E000DB5CDB5C315BD5401F4B0B47DB5C2D26BA
:1001F000F354EB400141DB5C5B41DB5C9A3A923AA1
:10020000DB5CDB5C1435DB5CDB5CDB5C3B358D3560
:100210007835E92ED32EA23A792DF62D7A2EA72EF7
:100220004253FA2E8F4763352347DB5CDB5CDB5C94
:10023000DB5CDB5CDB5CDB5CDB5CDB5C44294C2992
:100240007229DB5CDB5C39474D472F481F4B2B4B3A
:10025000304CDB5C3E4FA24FD14E254F474DDB5C0F
:10026000DB5C644DDB5C77518D388039BB51634773
:10027000DB5C49509350DF502B5141507947DB5C98
:10028000FF51015372549555DB5C2854E245E24519
:1002900083548333F32AB74E504D704D424E4A4E2D
:1002A0007C28BF4EDB5CDB5CDB5CDB5CDB5CDB5C53
:1002B0005239DB5CDB5CE857165ADB5CDB5CDB5CF1
:1002C000DB5CDB5CDB5CDB5CDB5C5956AC56DB5C33
:1002D000DB5CDB5CDB5CDB5CDB5CDB5CDB5CDB5C66
:1002E000DB5CDB5CDB5CDB5CDB5CDB5CDB5CDB5C56
:1002F000DB5CDB5CDB5CDB5CDB5CDB5CDB5CDB5C46
:10030000DB5CDB5CDB5CDB5CDB5CDB5CDB5CDB5C35
:10031000DB5CDB5CDB5CDB5CDB5CDB5CDB5CDB5C25
:10032000DB5CDB5CDB5CDB5CDB5CDB5CDB5CDB5C15
:10033000DB5CDB5CDB5CDB5CDB5CDB5CF13FB33F51
:10034000CA428C42DB5CF145DB5CDB5CE439232B8D
:100350007C422F41E4392F41DB5C45414541FB2A7A
:100360004E5B475B5D5B645BBB57C057C557CA5765
:100370002A5B1B5BD457D957DE57E357CF57B65785
:10038000D04AEF4A702D082A032BDB5C415A2D53CB
:10039000BC288F2BDB5CDB5C3957FF4FDB5CDB5C05
:1003A000DB5C8E55DB5CE556DB5CDB5CDB5C0A30E2
:1003B000642B3A53592F5534DB5CD34FDB5C8755A4
:1003C000DB5CDB5CDB5CDB5CDB5C912FAA4ABD4A5F
:1003D000415A1F5A1936F736BF4F123BFB36102AC7
:1003E000C03B2136204E8538BF379554E654DB5C40
:1003F000F139BF4F7F48DE5BAA3A2B2BC74FDE5B3C
:100400001EE721E710E714E71AE758E725E729E791
:100410002FE733E737E73DE741E745E758E74BE7A5
:100420004FE753E7F3E8F8E8FDE807E911E98AE95F
:100430001BE923E92BE935E93FE949E958E962E994
:100440008AE96CE976E980E9690289026702AD020E
:10045000AB02AD027B026D027D02810273029B0240
:100460007502A702850299026B028F029102710246
:10047000A90283028D026F02970295028B029F02EE
:10048000A502084AD73B3BCE016E84BCBFFDC12FFD
:100490003D6C74319ABD56833DDA3D00C77F11BE75
:1004A000D9E4BB4C3E916BAAAABE000000803F0578
:1004B000A84CCDB2D44EB93836A9020C50B99186A9
:1004C00088083CA6AAAA2ABE000000803F000D941E
:1004D0005E310D94FF2F0D94DA300D9410310D9490
:1004E000BD4E0D946D4E0D94CF310D940B320D9485
:1004F00002870D94E5210D94F8300D941D300D9474
:1005000052CF0D9493320D94964E0D945B300D9412
:10051000B1BC0D9479300D94DB4E0D94B04E0D941A
:1005200029320D94604E0D947D700D94D94E0D942A
:10053000D74E0D943B300D94ED310D945DA40D9488
:10054000DD4E0D942C870D947C700D94E54E0D942A
:1005500064320D94894E0D949D300D9439314E4185
:100560004E494E495459494E46CDCCCC3D0AD7232D
:100570003C17B7D13877CC2B329595E6241FB14F75
:100580000A000020410000C84200401C4620BCBEBA
:100590004CCA1B0E5AAEC59D746364696E6F70734E
:1005A0007578585B003B4C415945523A2564003BF5
:1005B000202020757365526166742C2564004D36C9
:1005C0003035205325640043616C63756C75733A54
:1005D00020200043616C63756C75733A20200043E2
:1005E000616C63756C75733A20200053757266698F
:1005F0006E6720300A00417420426F74746F6D2062
:10060000537469636B657200253033642E25303373
:1006100064253033642E2530346400417420426FE9
:1006200074746F6D20537469636B65720025303389
:10063000642E25303364253033642E253034640035
:1006400053757266696E6720300A00473238205849
:1006500030205930005430005431005430005430B0
:100660000053757266696E6720300A0047343300A4
:1006700047343100473430004733340047343300C7
:100680004734330047343100473430004D383400AC
:100690004D3834004D3834005A32204F6666736549
:1006A000743A20004F4B207365636F6E6420457869
:1006B000747275646572210A005A20706F736974D0
:1006C000696F6E3A20005A20706F736974696F6E9B
:1006D0003A20004D3834005A312050726F62652044
:1006E0006F66667365743A20004F4B2066697273BB
:1006F0007420457874727564657221200A005A204E
:10070000706F736974696F6E3A20005A20706F734E
:100710006974696F6E3A200043616C63756C757320
:100720003A20200043616C63756C75733A20200099
:1007300043616C63756C75733A20200043616C6390
:10074000756C75733A2020003630206465677265D9
:100750006573200A00543000543000543000436167
:100760006C6962726174696F6E205375636365733F
:100770007366756C0A005430004A756D70206F7690
:1007800065722073637265773120616E64207363D4
:1007900072657732200A004A756D70206F76657237
:1007A00020736372657731200A0047333400473382
:1007B00034004733340054300047333400537572EB
:1007C00066696E6720300A0053757266696E67202D
:1007D000300A0053757266696E6720300A005375DF
:1007E0007266696E6720300A0053757266696E67BB
:1007F00020300A0054300053757266696E672030ED
:100800000A004D33340053757266696E6720300AF2
:10081000004D3234004D3233202573004D32340008
:100820004D32332025730077696C6C20626520643B
:100830006973746F727465642062792025642E2553
:100840003164253164206D6D2E0054686520666921
:10085000727374206C61796572207072696E746550
:100860006420776974682074686520257320686F38
:1008700074656E640053757266696E6720300A0095
:1008800053757266696E6720300A00537572666927
:100890006E6720300A00526561647920746F2053BE
:1008A000746172740A002564206B6D2E0067636F9B
:1008B000646520666F756E640A0020746F2053743F
:1008C00061727420446973706C61792066726F6D17
:1008D00020526573657400546F6F6B2000646973F8
:1008E000706C6179206F6E6C696E6521002E00203E
:1008F00053544F50205052494E54200A004732382A
:10090000205830205930004D3335004737300052E1
:100910004553554D450A0050415553450A004D3841
:100920003420582059205A2045004D31303700548A
:1009300030005374617274696E67205A2043616C91
:100940006962726174696F6E2057697A6172640AB4
:10095000000A00205A3A200020593A200020583A34
:10096000200042656400456E642066696C65206CF9
:100970006973740A00426567696E2066696C652058
:100980006C6973740A002F005344207072696E748E
:10099000696E67206279746520004E6F742053443D
:1009A000207072696E74696E670A002569206D692E
:1009B0006E2C20256920736563006F6B00464952D9
:1009C0004D574152455F4E414D453A4D61726C69FC
:1009D0006E2042434E3344205369676D61783B205B
:1009E0004649524D574152455F56455253494F4E25
:1009F0003A30322D322E302E323B204649524D575E
:100A00004152455F55524C3A68747470733A2F2FB7
:100A10006769746875622E636F6D2F42434E33446D
:100A20002F42434E33445369676D61782D46697296
:100A30006D776172653B2050524F544F434F4C5F6E
:100A400056455253494F4E3A312E303B204D41438B
:100A500048494E455F545950453A42434E3344202D
:100A60005369676D61783B2045585452554445524F
:100A70005F434F554E543A323B20555549443A0056
:100A800053544154495354494353205245534554B8
:100A90000A004D6F64652032203A206379636C65EB
:100AA0002020202D3E205247423A20362073746188
:100AB000746573002A2A2D3E20004D6F6465203135
:100AC000203A2072616E646F6D20202D3E205247C7
:100AD000423A202B31202B32202B332C206475728C
:100AE000696E67207072696E74696E67002A2A2DBC
:100AF0003E20004D6F64652030203A2064656661B9
:100B0000756C74202D3E205247423A2032353520F4
:100B100032353520323535002A2A2D3E20004C65ED
:100B200064206D6F646573203A004D353336204C78
:100B30005B6D6F64655D00504F534954494F4E20C3
:100B4000484F4D453A2000220A00556E6B6E6F7774
:100B50006E20636F6D6D616E643A20220052657382
:100B6000656E643A20006F6B0A004475706C6920F2
:100B70004D6F6465204F4E0A004D6972726F72208E
:100B80004D6F6465204F4E0A004D38340053746138
:100B90007274696E6720582043616C696272617477
:100BA000696F6E2057697A6172640A004D383400AB
:100BB0005374617274696E6720592043616C696275
:100BC000726174696F6E2057697A6172640A0045B8
:100BD00078747275646572204865617465640A0092
:100BE00020573A00204500205A00205900483D581F
:100BF00000205A3A0020593A0020436F756E742045
:100C0000583A200020453A00205A3A0020593A002C
:100C1000583A007A5F6D696E3A2000795F6D6178AD
:100C20003A2000785F6D61783A2000785F6D696ED8
:100C30003A2000486F74656E64206F666673657451
:100C4000733A00504944204175746F74756E652085
:100C500066696E69736865642120507574207468D4
:100C600065206C617374204B702C204B6920616E81
:100C700064204B6420636F6E7374616E74732066BE
:100C8000726F6D2061626F766520696E746F2043AC
:100C90006F6E66696775726174696F6E2E680A009F
:100CA000504944204175746F74756E6520666169A2
:100CB0006C6564212074696D656F75740A0020404D
:100CC0003A006F6B20543A006F6B20423A00504953
:100CD00044204175746F74756E65206661696C653A
:100CE00064212054656D706572617475726520743D
:100CF0006F6F20686967680A00204B643A20002003
:100D00004B693A2000204B703A200020436C6173FD
:100D100073696320504944200A002054753A20002A
:100D2000204B753A2000206D61783A2000206D69D3
:100D30006E3A200020643A200020626961733A20F4
:100D40000045787472756465722072656C656173B4
:100D50006564206163746976653A20005A205349BE
:100D6000474D4120486F6D65640A0045787472757F
:100D7000646572206163746976653A200000000042
:100D80000000809343000000000000A0400000A08D
:100D9000400000004020004D6F766520746F3A20BF
:100DA00000CDAC03440080934300005243FF01FF99
:100DB00020636F6C6420657874727573696F6E2040
:100DC00070726576656E7465640A006563686F3A73
:100DD0000000002100240027002A002D00300033ED
:100DE0000001010000040107010A010000220025A2
:100DF0000028002B002E0031003400020100000505
:100E00000108010B01000020002300260029002C0E
:100E1000002F003200000100000301060109010556
:100E2000050505070508080808020202020A0A0863
:100E30000804040404010101010101010103030389
:100E40000303030303040707070C0C0C0C0C0C0C26
:100E50000C0202020206060606060606060B0B0B2D
:100E60000B0B0B0B0B010210202008081020401068
:100E7000204080020102010804020101020408105E
:100E8000204080804020100804020180040201807C
:100E900040201008040201080402010102040810A5
:100EA000204080010204081020408000000A0B024C
:100EB000090C0D0E080703040100000000000000EB
:100EC0000000000000000000000000000000000022
:100ED00000000000000000121110000000000000DF
:100EE0000000000000000000000000000000000002
:100EF00000646973706C6179206F66666C696E65F9
:100F00000042434E3344205369676D61780A007391
:100F1000746172740A006563686F3A0030322D3272
:100F20002E302E320A006572726F722077726974E9
:100F3000696E6720746F2066696C650A00205A3AF2
:100F40000020593A0020583A00656E6473746F703F
:100F500073206869743A20006563686F3A00446FD3
:100F60006E6520736176696E672066696C652E0A0E
:100F7000006F6B0A004D32390024F4D43050C38E18
:100F800020C2A24017828B7011127A910D816CD908
:100F90000AA861E108C7586607615143061E4B5D08
:100FA00005C145A7041A411104093D98037139315F
:100FB000034036DB0265339102D4305402802E1D8B
:100FC00002632CEE01752AC501B028A0011027810B
:100FD000018F2564012B244B01E0223401AC211F39
:100FE000018D200D01801FFC00841EED00971DDF88
:100FF00000B81CD200E61BC600201BBC00641AB25D
:1010000000B219A8000A19A0006A189900D1179116
:101010000040178B00B516840031167E00B3157999
:10102000003A157300C7146F0058146A00EE136677
:10103000008813630025135E00C7125B006C125713
:101040000015125400C111510070114F0021114BB5
:1010500000D61049008D104700461044000210428F
:1010600000C00F4000800F3E00420F3C00060F3BC7
:1010700000CB0E3800930E37005C0E3500270E347F
:1010800000F30D3200C10D3100900D3000600D2EC7
:1010900000320D2D00050D2C00D90C2B00AE0C29B3
:1010A00000850C29005C0C2700350C27000E0C264F
:1010B00000E80B2400C40B2400A00B23007D0B23AD
:1010C000005A0B2100390B2100180B2000F80A1FD1
:1010D00000D90A1E00BB0A1E009D0A1D00800A1DC1
:1010E00000630A1C00470A1B002C0A1B00110A1A85
:1010F00000F7091A00DD091900C4091900AB091924
:1011000000920917007B091800630917004C0916A3
:101110000036091600200916000A091500F5081501
:1011200000E0081400CC081400B8081400A4081447
:1011300000900813007D0812006B08130058081275
:10114000004608120034081100230811001208118B
:101150000001081100F0071000E0071000D0071090
:1011600000C0071000B0070F00A107100091070E84
:101170000083070F0074070F0065070E0057070E66
:101180000049070E003B070D002E070E0020070D3B
:101190000013070D0006070D00F9060C00ED060D03
:1011A00000E0060C00D4060C00C8060C00BC060CBF
:1011B00000B0060C00A4060B0099060C008D060B6F
:1011C0000082060B0077060B006C060B0061060A16
:1011D0000057060B004C060A0042060A0038060AB1
:1011E000002E060A0024060A001A060A0010060944
:1011F0000007060A00FD050900F4050900EB0509D2
:1012000000E2050900D9050900D0050900C7050954
:1012100000BE050900B5050800AD050800A50509D3
:10122000009C050800940508008C0508008405084A
:10123000007C050800740508006C050700650508BA
:10124000005D050700560508004E05070047050725
:10125000004005080038050700310507002A05078A
:1012600000230507001C050600160507000F0507EB
:10127000000805060002050700FB040600F5040748
:1012800000EE040600E8040600E2040700DB0406A2
:1012900000D5040600CF040600C9040600C30406F6
:1012A00000BD040600B7040600B1040500AC040646
:1012B00000A6040600A00405009B04060095040592
:1012C00000900406008A04050085040500800406D9
:1012D000007A04050075040500700405006B040520
:1012E0000066040500610405005C04050057040560
:1012F00000520405004D04050048040500430405A0
:10130000003E0404003A04050035040500300404DE
:10131000002C04050027040400230405001E040417
:10132000001A04040016040500110404000D04044E
:1013300000090405000404040000040400FC030484
:1013400000F8030400F4030400F0030400EC0304B9
:1013500000E8030400E4030400E0030400DC0304E9
:1013600000D8030400D4030400D0030400CC030419
:1013700000C8030300C503030024F404D9201BC4E0
:101380000C5C0E9804C4095F0265077101F405F94D
:1013900000FB04B30048048700C1036900580355EB
:1013A0000003034500BE023A008402310053022AC2
:1013B000002902250004022000E4011C00C80119D4
:1013C00000AF01170098011400840113007101108F
:1013D000006101100051010E0043010D0036010BA8
:1013E000002B010B0020010B00150109000C010965
:1013F0000003010800FB000800F3000800EB0007F1
:1014000000E4000600DE000600D8000600D2000658
:1014100000CC000500C7000500C2000500BD0004A7
:1014200000B9000400B5000400B1000400AD0004E0
:1014300000A9000400A5000300A20003009F00040F
:10144000009B000300980003009500020093000336
:1014500000900003008D0002008B00030088000252
:10146000008600020084000300810002007F000269
:10147000007D0002007B000200790002007700017D
:101480000076000200740002007200010071000288
:10149000006F0002006D0001006C0002006A000194
:1014A000006900020067000100660001006500019C
:1014B00000640002006200010061000100600001A0
:1014C000005F0002005D0001005C0001005B0001A4
:1014D000005A0001005900010058000100570001A6
:1014E00000560001005500010054000100530000A7
:1014F00000530001005200010051000100500001A2
:10150000004F0001004E0000004E0001004D0001A0
:10151000004C0001004B0000004B0001004A00019C
:101520000049000100480000004800010047000198
:101530000046000000460001004500000045000193
:10154000004400010043000000430001004200008D
:101550000042000100410000004100010040000184
:10156000003F0000003F0001003E0000003E00017F
:10157000003D0000003D0001003C0000003C000078
:10158000003C0001003B0000003B0001003A00006D
:10159000003A000100390000003900010038000065
:1015A000003800000038000100370000003700015B
:1015B0000036000000360000003600010035000053
:1015C0000035000000350001003400000034000048
:1015D000003400010033000000330000003300013C
:1015E0000032000000320000003200010031000033
:1015F0000031000000310001003000000030000028
:1016000000300001002F0000002F0000002F00001C
:10161000002F0001002E0000002E0000002E00010F
:10162000002D0000002D0000002D0000002D000105
:10163000002C0000002C0000002C0000002C0001F9
:10164000002B0000002B0000002B0000002B0001ED
:10165000002A0000002A0000002A0000002A0001E1
:1016600000290000002900000029000000290000D6
:1016700000290001002800000028000000280000C8
:1016800000280000002800010027000000270000BB
:1016900000270000002700000027000100260000AE
:1016A00000260000002600000026000000260001A1
:1016B0000025000000250000002500000025000096
:1016C0000025000000250001002400000024000087
:1016D000002400000024000000240001002300007A
:1016E000002300000023000000230000002300006E
:1016F000002300000023000100220000002200005F
:101700000022000000220000002200000022000150
:101710000021000000210000002100000021000045
:101720000021000000210000002100010020000035
:101730000020000000200000002000000020000029
:10174000002000000020000000200001001F000019
:10175000001F0000001F0000001F0000001F00000D
:10176000001F0000001F0001001E0000001E0000FE
:10177000001E0000001E000000436F6F6C696E6762
:1017800020446F776E204865617465720A0050725C
:10179000696E7465722068616C7465642E206B6973
:1017A0006C6C28292063616C6C6564210A004572A9
:1017B000726F723A006C617965722068656967685A
:1017C000743A20002E0A0044656C6574696F6E20BF
:1017D0006661696C65642C2046696C653A20004638
:1017E000696C652064656C657465643A002E0A0056
:1017F0006F70656E206661696C65642C2046696C4B
:10180000653A2000473238205830205930000A0A03
:10181000005374616E64617264204465766961741A
:10182000696F6E3A20000A004D65616E3A20000A29
:10183000002020207A3A20000A00793A2000783AE5
:1018400020003F537065636966696564206E756D3D
:10185000626572206F66206C65677320696E206D0B
:101860006F76656D656E74206E6F7420706C617537
:101870007361626C652E0A003F5370656369666927
:101880006564205920706F736974696F6E206F757D
:1018900074206F662072616E67652E0A003F537078
:1018A00065636966696564205820706F736974693F
:1018B0006F6E206F7574206F662072616E67652E83
:1018C0000A003F5370656369666965642073616DE2
:1018D000706C652073697A65206E6F7420706C611E
:1018E000757361626C652E0A0046756C6C207375A9
:1018F00070706F72742061743A20687474703A2F3B
:101900002F33647072696E74626F6172642E636FDC
:101910006D2F666F72756D2E7068700A004D3438C9
:10192000205A2D50726F6265205265706561746136
:1019300062696C69747920746573742E2020205656
:10194000657273696F6E20322E30300A003F566523
:1019500072626F7365204C6576656C206E6F7420C3
:10196000706C61757361626C652E0A00426564205B
:101970004865617465640A0020573A004D3130377C
:10198000004E6577206C61796572206465746563CB
:101990007465640A003B206C61796572003B4C41C0
:1019A00059455200256920686F757273202569209A
:1019B0006D696E7574657300446F6E652070726931
:1019C0006E74696E672066696C650A004D3333007A
:1019D0005061757365207061726B696E670A0047AC
:1019E0003639005072696E7465722073746F70704E
:1019F00065642064756520746F206572726F727300
:101A00002E2046697820746865206572726F722096
:101A1000616E6420757365204D39393920746F20EB
:101A2000726573746172742E202854656D706572CE
:101A300061747572652069732072657365742E20F8
:101A400053657420697420616674657220726573D1
:101A500074617274696E67290A006F6B0A004E6FB9
:101A6000204C696E65204E756D62657220776974D1
:101A70006820636865636B73756D2C204C617374AB
:101A8000204C696E653A20004E6F20436865636B99
:101A900073756D2077697468206C696E65206E754A
:101AA0006D6265722C204C617374204C696E653ACE
:101AB0002000636865636B73756D206D69736D617C
:101AC0007463682C204C617374204C696E653A20F5
:101AD000004C696E65204E756D62657220697320D9
:101AE0006E6F74204C617374204C696E65204E7566
:101AF0006D6265722B312C204C617374204C696EC1
:101B0000653A20004D31313000CDAC034400809364
:101B100043000052430000000000000000000000ED
:101B2000000A00207A3A200020793A200020783AF2
:101B30002000426564004578747275646572207295
:101B4000656C6561736564206163746976653A20CC
:101B5000005A205349474D4120486F6D65640A0083
:101B60004578747275646572206163746976653A4C
:101B70002000496E7374616C6C20256420257320ED
:101B80006F6E2074686520257320686F74656E64BD
:101B90002E0050757267652046696C616D656E74C4
:101BA0000A0053757266696E6720310A00537572B8
:101BB00066696E6720300A004252494748544E45D4
:101BC00053533A2000220A00656E717565696E678D
:101BD000202200220A00656E717565696E672022F9
:101BE00000202F0020400020403A005375726669A3
:101BF0006E672030200A005430004D3834205820C1
:101C000059205A204500496E7374616C6C2025641C
:101C1000202573206F6E2074686520257320686FFF
:101C200074656E642E002C2073617665645F466C6B
:101C300061675F66616E6C617965725F6D69727212
:101C40006F723A20002C2073617665645F6665656B
:101C50006472617465313A20002C2073617665648A
:101C60005F6665656472617465303A20002C20738C
:101C7000617665645F66616E6C617965723A2000B9
:101C80002C2073617665645F74656D706265643A7B
:101C900020002C2073617665645F74656D70303A46
:101CA00020002C2073617665645F74656D70313A35
:101CB00020002C2073617665645F66696C65706FC7
:101CC000736974696F6E3A20002C207361766564C5
:101CD0005F655F706F736974696F6E3A20002C20C6
:101CE00073617665645F746F6F6C5F61637469764E
:101CF000653A20002C2073617665645F7A5F706FAF
:101D0000736974696F6E3A20002C20736176656484
:101D10005F795F706F736974696F6E3A20002C2071
:101D200073617665645F785F706F736974696F6EF5
:101D30003A200053415645205052494E54204C4FB2
:101D4000473A0A006563686F3A005072696E742002
:101D50007265636F766572792075700A004E6F74D4
:101D6000207072696E74207265636F766572792077
:101D700075700A00535543434553530A0056616C2E
:101D8000756573206F7574206F662072616E67656C
:101D90000A0056616C756573206F7574206F66203C
:101DA00072616E67650A0056616C756573206F75A8
:101DB00074206F662072616E67650A0056616C75EB
:101DC0006573206F7574206F662072616E67650A97
:101DD00000535543434553530A0056616C75657370
:101DE000206F7574206F662072616E67650A0056F9
:101DF000616C756573206F7574206F662072616EFB
:101E000067650A0056616C756573206F7574206F85
:101E1000662072616E67650A0056616C7565732095
:101E20006F7574206F662072616E67650A002050BE
:101E30002000205A200020592000536574204D3581
:101E4000333020582000486F74656E64206F6666DA
:101E5000736574733A0054696D6520696E616374CB
:101E60006976650A005075726765206469737461EC
:101E70006E63650A005A204F6666736574206F6B47
:101E80000A005A204F6666736574203A200A007A69
:101E90005F6D61783A20007A5F6D696E3A20005A72
:101EA000204F666673657400504F534954494F4E36
:101EB00020484F4D453A20002A2A2A2047656E695E
:101EC0006520446973636F6E6E6563746564206634
:101ED000726F6D204765744E657874427974652120
:101EE000202A2A2A002A2A2A2047656E6965204569
:101EF0006E61626C65204174746163684576656EDD
:101F00007448616E646C657220212121202A2A2A7E
:101F10000043616E6E6F7420656E74657220737518
:101F2000626469723A200057726974696E6720743E
:101F30006F2066696C653A20002E0A006F70656E2E
:101F4000206661696C65642C2046696C653A2000E6
:101F50002E0A006F70656E206661696C65642C20C6
:101F600046696C653A200046696C652073656C654E
:101F7000637465640A002053697A653A20004669F3
:101F80006C65206F70656E65643A20002E0A006FE4
:101F900070656E206661696C65642C2046696C65AD
:101FA0003A20004E6F772066726573682066696C10
:101FB000653A20004E6F7720646F696E672066690E
:101FC0006C653A20002220706F73002220706172CD
:101FD000656E743A2200535542524F5554494E454E
:101FE0002043414C4C207461726765743A2200743E
:101FF0007279696E6720746F2063616C6C207375F1
:10200000622D67636F64652066696C65732077690C
:10201000746820746F6F206D616E79206C657665D1
:102020006C732E204D4158206C6576656C20697369
:102030003A005341564544205052494E540A007AC2
:1020400070726F62653A20005344206361726420AD
:102050006F6B0A006F70656E526F6F7420666169F6
:102060006C65640A00766F6C756D652E696E6974B7
:10207000206661696C65640A004572726F723A008D
:10208000534420696E6974206661696C0A007001AE
:102090002C0190012701B0012201C0011D01F001B6
:1020A00018011002130130020E01600209019002B2
:1020B0000401C002FF000003FA004003F5008003A2
:1020C000F000D003EB002004E6007004E100E0041F
:1020D000DC004005D700C005D2004006CD00D00688
:1020E000C8008007C3003008BE00F008B900C0096E
:1020F000B400B00AAF00B00BAA00D00CA500000ECF
:10210000A000500F9B00C0109600501291000014C8
:102110008C00C0158700B0178200B0197D00D01B5D
:102120007800001E730040206E0090226900F024A9
:10213000640040275F0090295A00E02B5500102EC4
:10214000500020304B0010324600E0334100903503
:102150003C001037370070383200A0392D00B03AFB
:102160002800A03B2300603C1E00103D1900903D5C
:102170001400103E0F00703E0A00C03E0500003FF4
:102180000000487973746572657369732074656DB6
:1021900070657261747572650A00546865726D616C
:1021A0006C2072756E617761792070726F746563EF
:1021B00074696F6E206279204865617465725F4949
:1021C000443A0A004572726F723A004572726F7239
:1021D000283833293A2042656420746865726D6935
:1021E00073746F72206E6F742064657465637465B8
:1021F000640A004572726F72283832293A20526997
:1022000067687420746865726D6973746F72206E8C
:102210006F742064657465637465640A0045727246
:102220006F72283831293A204C65667420746865CD
:10223000726D6973746F72206E6F742020646574A0
:1022400065637465640A002053544F50205052490E
:102250004E54200A004572726F72283833293A2092
:1022600042656420746865726D6973746F72206E64
:102270006F742064657465637465640A0020535448
:102280004F50205052494E54200A004572726F72CE
:10229000283832293A205269676874207468657258
:1022A0006D6973746F72206E6F74206465746563FA
:1022B0007465640A002053544F50205052494E54C4
:1022C000200A004572726F72283831293A204C6515
:1022D000667420746865726D6973746F72206E6FB6
:1022E00074202064657465637465640A0020535427
:1022F0004F50205052494E54200A004552524F52DE
:10230000283839293A20424544206973206E6F7479
:102310002068656174696E67002053544F502050E7
:1023200052494E54200A004552524F5228383929FA
:102330003A20486F74656E64202564206973206EAE
:102340006F742068656174696E67006563686F3AD1
:10235000000A0020616E7469686F726172690A3ADE
:10236000200020686F726172690A20002F380076A1
:102370006F6C746573200020566F6C7465732063F6
:102380006172676F6C20333A200020616E74696857
:102390006F726172690A3A200020686F7261726917
:1023A0000A20002F3800766F6C7465732000205669
:1023B0006F6C74657320636172676F6C20323A20B2
:1023C000000A0020647A333A200020647A323A20EE
:1023D000005431005430005430005430000A00568C
:1023E000756974656E73333A2020004170726F789E
:1023F000333A202000566F6C746573333A20200006
:102400000A0056756974656E73323A202000417077
:10241000726F78323A202000566F6C746573323ACE
:1024200020200056616C6F7220645A333A202000DD
:1024300056616C6F7220645A323A2020004E6577E4
:10244000206F66667365742076657273696F6E3A85
:1024500020007A335F313A20007A325F313A20002F
:102460005A7363726F6C6C5F313A20007A335F305D
:102470003A20007A325F303A20005A7363726F6CF0
:102480006C5F303A20005A76616C75652061667425
:10249000657220686F6D653A00486F6D6520582F32
:1024A00059206265666F7265205A0A003B20202021
:1024B0004275696C642074696D653A202564202535
:1024C00073202564202573003B5072696E7420745C
:1024D000696D653A202564202573202564202573C5
:1024E000202564202573003B54494D453A256C64F2
:1024F000003B202020506C6173746963207765690C
:102500006768743A2025642E256467003B46696C31
:10251000616D656E7420757365643A2025642E259F
:10252000646D2025642E256467003B46696C616DEF
:10253000656E7420757365643A20256C642E256C75
:10254000646D003B457874727564657273207573B1
:1025500065643A205425642025642E256420542582
:10256000642025642E2564003B2020206578747249
:10257000756465724469616D657465722C25642E9D
:1025800025642C25642E2564002E2E2E2054696D82
:10259000656F757421002A2A2A2047656E696520B7
:1025A00057726974654F626A656374202A2A2A200B
:1025B0002D2D2D3E002E2E2E204E414B2021002A67
:1025C0002A2A2047656E69652057726974654F62D3
:1025D0006A656374202A2A2A202D2D2D3E002E2E76
:1025E0002E2041434B2021002A2A2A2047656E696C
:1025F000652057726974654F626A656374202A2A80
:102600002A202D2D2D3E002A2A2A2047656E696535
:10261000204261642042797465202A2A2A202D2DC7
:102620002D3E203078002056616C75653A200020E0
:10263000496E6465783A20002A2A2A2047656E6927
:1026400065205265706F7274204F626A65637420F2
:102650002A2A2A204F626A6563743A20002A2A2AAD
:102660002047656E696520436F6E6E6563746564AF
:10267000202F2053796E6321202A2A2A00205661B8
:102680006C75653A200020496E6465783A20002A0E
:102690002A2A2047656E6965205265706F72742022
:1026A0004576656E74202A2A2A204F626A65637413
:1026B0003A2000204C656E6774683A20002A2A2A66
:1026C0002047656E6965205265636569766564209B
:1026D0004D6167696320446F75626C65204279744F
:1026E0006573202A2A2A20496E6465783A200020E2
:1026F0004C656E6774683A20002A2A2A2047656E66
:102700006965205265636569766564204D61676916
:1027100063204279746573202A2A2A20496E6465F1
:10272000783A20002A2A2A2047656E6965204E41A2
:102730004B205265636F7665727920212121202A12
:102740002A2A002A2A2A2047656E6965204469736F
:10275000636F6E6E65637465642066726F6D20448E
:102760006F4576656E747321202A2A2A002A2A2A48
:102770002047656E696520546F6F6B20746F6F2002
:102780006C6F6E6720746F2072652D656E74657254
:1027900020446F4576656E747328292C2072656419
:1027A0007563652064656C61797320696E20636F61
:1027B00064652C2073656C662D70726F746563742C
:1027C000696F6E20656E61626C65642E202A2A2A0C
:1027D000004572726F7220577269746520454550CA
:1027E000524F4D0053657474696E67732053746F54
:1027F0007265640A00204D696E75746573203A0035
:1028000020204C617374207072696E742074696D3D
:10281000652D3E20486F757273203A004C617374C9
:10282000207072696E74206475726174696F6E0ACB
:10283000002C205468697264204944206E756D62D2
:10284000657220002C205365636F6E64204944201C
:102850006E756D6265723A2000202046697273744D
:10286000204944206E756D6265723A2000554920FA
:10287000496E666F726D6174696F6E20536572691F
:10288000616C204E756D6265723A0A00206D2C20D5
:102890004531207072696E742064697374616E636F
:1028A000653A2000206B6D2C204530207072696ED7
:1028B000742064697374616E63653A2000206B6DE7
:1028C0002C2059207072696E742064697374616E73
:1028D00063653A2000206B6D2C205831207072699E
:1028E0006E742064697374616E63653A20002043DE
:1028F0002C0A205830207072696E742064697374D9
:10290000616E63653A200020432C206D617820744D
:10291000656D7020423A200020432C206D617820A4
:1029200074656D7020523A20002C206D61782074FF
:10293000656D70204C3A2000682C207072696E74AE
:10294000732066696E69736865643A20002C207094
:1029500072696E74696E672074696D653A20002033
:10296000207072696E74733A200053544154533A84
:102970000A0020432C20525F5052494E543A200006
:1029800020432C20525F4245443A200020432C2013
:10299000525F52454D4F56453A20002020525F4924
:1029A0004E534552543A200054656D7020284329F7
:1029B0003A0A0020432C204C5F5052494E543A2092
:1029C0000020432C204C5F4245443A200020432CF9
:1029D000204C5F52454D4F56453A200020204C5F19
:1029E000494E534552543A200054656D7020284397
:1029F000293A0A0020562856657273696F6E29209D
:102A000000205228426564207269676874207363ED
:102A100072657729200020204D353331204C284223
:102A20006564206C65667420736372657729200085
:102A3000426564204F66667365747320286D6D2946
:102A40003A0A002050285A2070726F6265290020CF
:102A50005A20002059200020204D353330205820A6
:102A6000004F66667365747320286D6D293A0A00FD
:102A7000204400204900202D204D33303120524980
:102A800047485420500020440020490020204D3366
:102A90003031204C45465420500050494420736545
:102AA0007474696E67733A0A00205A002059002036
:102AB000204D323036205800486F6D65206F6666B5
:102AC00073657420286D6D293A0A00204500205A4C
:102AD0000020580020420020540020204D32303584
:102AE000205300416476616E63656420766172698B
:102AF00061626C65733A20533D4D696E2066656571
:102B0000647261746520286D6D2F73292C20543DEB
:102B10004D696E2074726176656C206665656472BD
:102B200061746520286D6D2F73292C20423D6D69DD
:102B30006E696D756D207365676D656E742074695F
:102B40006D6520286D73292C20583D6D6178696D65
:102B5000756D205859206A65726B20286D6D2F7332
:102B6000292C20205A3D6D6178696D756D205A20A1
:102B70006A65726B20286D6D2F73292C2020453DCE
:102B80006D6178696D756D2045206A65726B2028CE
:102B90006D6D2F73290A0020540020204D323034EF
:102BA000205300416363656C65726174696F6E3AAE
:102BB00020533D616363656C65726174696F6E2C4F
:102BC00020543D7265747261637420616363656C47
:102BD00065726174696F6E0A00204500205A0020FA
:102BE000590020204D3230312058004D6178696DF8
:102BF000756D20416363656C65726174696F6E20E9
:102C0000286D6D2F7332293A0A00204500205A00A2
:102C100020590020204D3230332058004D61786912
:102C20006D756D2066656564726174657320286DCD
:102C30006D2F73293A0A00204500205A00205900C0
:102C400020204D3932205800537465707320706510
:102C50007220756E69743A0A007C3C3E5E2B3D3FE3
:102C60002F5B5D3B2C2A225C006563686F3A004D48
:102C70003234004D3233202573006175746F25693D
:102C80002E6700504944204175746F74756E65203D
:102C900066696E6973686564210A00504944204181
:102CA00075746F74756E65206661696C656421204A
:102CB00074696D656F75740A0020403A006F6B206F
:102CC000543A006F6B20423A0050494420417574D9
:102CD0006F74756E65206661696C6564212054654A
:102CE0006D706572617475726520746F6F206869AC
:102CF00067680A00204B643A2000204B693A2000A4
:102D0000204B703A200020436C617373696320503C
:102D10004944200A002054753A2000204B753A207F
:102D200000206D61783A2000206D696E3A20002005
:102D3000643A200020626961733A20003B20472DED
:102D4000436F64652067656E6572617465642062B7
:102D5000792053696D706C69667933442852292053
:102D600056657273696F6E202564005265616479DF
:102D700020746F204C6F61642F556E6C6F616420FE
:102D80000A0053746F7265642073657474696E67AA
:102D900073207265747269657665640A00486172B1
:102DA00064636F6465642044656661756C74205368
:102DB000657474696E6773204C6F616465640A00A2
:102DC00048617264636F6465642043616C6962206A
:102DD000616E64205049442044656661756C7420BE
:102DE00053657474696E6773204C6F616465640A1F
:102DF00000473639204143544956415445440A005E
:102E000087029D0211241FBECFEFD1E2DEBFCDBFEE
:102E100000E00CBF18E0A0E0B2E0ECE8F3EA03E069
:102E20000BBF02C007900D92A435B107D9F72DE171
:102E3000A4E5B8E001C01D92AB3EB207E1F717E18F
:102E4000C1E0D7E100E006C021970109802FFE0113
:102E50000F94A7CEC030D10780E00807A9F70F94E0
:102E600086A40D94B5D10C9400002F923F924F92FE
:102E70005F926F927F928F929F92AF92BF92CF920A
:102E8000DF92EF92FF920F931F93CF93DF93CDB713
:102E9000DEB7C352D1400FB6F894DEBF0FBECDBF30
:102EA0002DB73EB7CE5DDE4F39832883C252D14065
:102EB00011E01093A60880918A0881110CC00E942D
:102EC000CBE9609386087093870880938808909375
:102ED000890810938A0880917E0881110DC00E9494
:102EE000CBE960937A0870937B0880937C08909379
:102EF0007D0881E080937E089091391A4091BF024D
:102F00005091C0026091C1027091C202911106C03D
:102F100080913A1A882311F40C941F22453A5105E6
:102F20006105710509F449C60CF0C3C04735510568
:102F30006105710509F4B6C40CF05EC0413251055B
:102F40006105710511F40C94372034F541315105B8
:102F50006105710509F4F0C774F44130510561054C
:102F6000710509F4E8C2403151056105710509F4A4
:102F7000BBC10C94DB5C433151056105710509F45B
:102F800079C40CF497C4403251056105710511F400
:102F90000C9446200C94DB5C4134510561057105AD
:102FA00009F4D7C4ACF4453351056105710511F43A
:102FB0000C94EB204D3351056105710509F4F0C304
:102FC000413351056105710511F00C94DB5C2DC492
:102FD000463451056105710509F4BFC443355105F7
:102FE0006105710509F4C3C24434510561057105D9
:102FF00009F489C70C94DB5C4739510561057105FB
:1030000011F40C94D1204CF546375105610571053A
:1030100009F472C474F4483551056105710509F469
:10302000E5C34A3551056105710509F412C60C94D2
:10303000DB5C4E3751056105710509F48DC14938D6
:1030400051056105710509F443C24B37510561050E
:10305000710511F00C94DB5CFCC54C395105610520
:10306000710511F40C9467209CF44A3951056105EF
:10307000710511F40C94552014F00C945E2048391D
:1030800051056105710511F40C94C0200C94DB5CB2
:10309000433A51056105710509F47CC50CF0B3C5CF
:1030A0004D3951056105710511F40C9494200C946F
:1030B000DB5C4F3E51056105710509F472C20CF0ED
:1030C00088C0433D51056105710511F40C94DB2165
:1030D000BCF5483A51056105710509F4A7C504F529
:1030E000463A51056105710509F4FCC4473A51059A
:1030F0006105710511F00C94DB5C80919F08909143
:10310000A008A091A108B091A208916080939F08A7
:103110009093A008A093A108B093A2080C94DB5C44
:103120004A3A51056105710509F408C50CF458C502
:103130004E3B51056105710509F46AC30C94DB5CD3
:10314000453E51056105710509F40BC414F5433E74
:1031500051056105710509F417C40CF066C4423EBF
:1031600051056105710511F00C94DB5C80919F089D
:103170009091A008A091A108B091A20882608093CC
:103180009F089093A008A093A108B093A2080C9464
:10319000DB5C4D3E51056105710509F40BC10CF076
:1031A000C2C14A3E51056105710511F00C94DB5C0A
:1031B00040E050E06EE681E20F94EF6A8091940A5D
:1031C0009091950A92609093950A8093940A0C943A
:1031D000DB5C4B3F51056105710509F401C484F5C1
:1031E000473F51056105710509F432C4A4F4423F1B
:1031F00051056105710509F4BAC1463F51056105E4
:10320000710509F44AC4413F51056105710511F08A
:103210000C94DB5C90C180919F089091A008A091D4
:10322000A108B091A2082091C5023091C602493F81
:1032300051056105710509F494C40CF466C4B7C363
:103240004E3631E053076105710509F4A8C0B4F5A5
:10325000483691E059076105710509F4B3C74A364C
:10326000A1E05A076105710509F499C0453651403E
:103270006105710511F00C94DB5C40E050E06AE2FE
:103280008AE00F94EF6A40E050E064E581E20F9439
:10329000EF6A81E080938E121092911264EF78E0D1
:1032A00086E20F94FD6B8091940A9091950A986044
:1032B0009093950A8093940A0C94DB5C4937E1E083
:1032C0005E076105710509F433C64538F1E05F0713
:1032D0006105710509F46CC14837514061057105FC
:1032E00011F00C94DB5C94C580912302813419F5B4
:1032F00041E050E066E08BE10F94EF6A41E050E07E
:1033000060E181E20F94EF6A41E050E062E181E226
:103310000F94EF6A41E050E063E181E20F94EF6ABD
:1033200041E050E06EE781E20F94EF6A84E480931D
:1033300023020C94DB5C843411F00C94DB5C8091F0
:10334000940A9091950A80649093950A8093940AC8
:1033500010928E120C94DB5C40E050E066E08BE152
:103360000F94EF6A40E050E060E181E20F94EF6A71
:1033700040E050E062E181E20F94EF6A40E050E00B
:1033800063E181E20F94EF6A40E050E06EE781E292
:103390000F94EF6A81E4809323020C94DB5C8091AC
:1033A000940A9091950A92609093950A8093940A5A
:1033B0000C94DB5C80912302823419F583E48093C2
:1033C000230241E050E063E08BE10F94EF6A41E0BB
:1033D00050E067E581E20F94EF6A41E050E066E774
:1033E00081E20F94EF6A41E050E06DEE81E20F94CC
:1033F000EF6A41E050E069E881E20F94EF6A0C94D3
:10340000DB5C833411F00C94DB5C11E010939B08BF
:1034100040E050E068E981E20F94EF6A40E050E05C
:1034200067E981E20F94EF6A40E050E06CE981E2E5
:103430000F94EF6A40E050E06DE981E20F94EF6A8B
:1034400041E050E06AE481E20F94EF6A40E050E02E
:103450006CE28AE00F94EF6A109391128FEF9FEF66
:10346000909387028093860240E050E06AE981E20F
:103470000F94EF6A40E050E06BE981E20F94EF6A4D
:103480006091AC1D7091AD1D8091AE1D9091AF1DEE
:103490000F94CFCBAB0166E289E00F94EF6A6091A5
:1034A000B01D7091B11D8091B21D9091B31D0F940C
:1034B000CFCBAB0167E289E00F94EF6A40E050E0C8
:1034C00068E289E00F94EF6A10928E120C94DB5C34
:1034D00080912302833411F00C94DB5C82E48093AE
:1034E000230240E050E063E08BE10F94EF6A40E09C
:1034F00050E067E581E20F94EF6A40E050E066E754
:1035000081E20F94EF6A40E050E06DEE81E20F94AB
:10351000EF6A40E050E069E881E20F94EF6A1092B0
:1035200091120C94DB5C40E050E064E58AE00F947B
:10353000EF6A0C94DB5C10928E1280E00F9438449A
:103540008091940A9091950A82609093950A809355
:10355000940A81E08093951240E050E068E08AE0B0
:103560000F94EF6A81E4809396120C94DB5C809157
:10357000990A882311F40C94DB5C41E050E08091BF
:10358000960A8A3011F440E050E066E18BE10F9436
:10359000EF6A40E050E062E58AE00F94EF6A0C9435
:1035A000DB5C89E480931D020F941C2E0C94DB5C81
:1035B0008091D91D9091DA1D90935D1280935C12D9
:1035C0000F94874F8091DB1D9091DC1D90935F12CB
:1035D00080935E120F94874F82E48093230282E5EA
:1035E00080931D0281E08093911210928E1280913F
:1035F000960AE1E08A3009F4E0E0E093510AF0E055
:10360000EE0FFF1FE45AFD4E20813181309379087F
:10361000209378088A3029F480910F12909110122B
:1036200004C08091131290911412918380830F949F
:10363000874F81E48093961240E050E068E08AE092
:103640000F94EF6A40E050E064E581E20F94EF6A86
:1036500080E090E0A3E4B3E480937F129093801223
:10366000A0938112B093821280903D0A90903E0AFE
:10367000A0903F0AB090400A20917B1230917C12BA
:1036800040917D1250917E12609177127091781264
:103690008091791290917A12EAE66E2EE2E17E2E06
:1036A0007F926F92F3E8CF2EF2E1DF2EE12CF12C26
:1036B00003E413E40E94D4D00F94ED5280E090E034
:1036C000A0E2B1E480937B1290937C12A0937D12D0
:1036D000B0937E128090390A90903A0AA0903B0AEB
:1036E000B0903C0AE0907F12F0908012009181121D
:1036F00010918212609177127091781280917912F4
:1037000090917A127F926F9220E030E040E251E493
:103710000E94D4D00F94ED520F900F900F900F9005
:10372000809196128E3411F40C94E0291092961226
:103730000E94526440E050E060E289E00F94EF6A3A
:1037400040E050E064E28AE00F94EF6A0091510A91
:1037500010E0F801EE0FFF1FEE0FFF1FE455F24ED1
:1037600060817181828193810F94CFCB709399088E
:1037700060939808000F111FF801E45AFD4E8081F4
:1037800091810A97909397088093960889E4809393
:1037900096120E94526481E080939A080C94DB5C3C
:1037A0008091230240E050E0813441F469E08AE0F6
:1037B0000F94EF6A64EF78E082E007C06AE28AE083
:1037C0000F94EF6A64EF78E086E20F94FD6B8091CE
:1037D000940A9091950A98609093950A8093940A20
:1037E0001092911210928E120C94DB5C8091BD09A4
:1037F00081110C94DB5C80913A1A81110C94DB5C92
:1038000040E050E069E38AE00F94EF6A0C94DB5CDF
:103810008091BD0981110C94DB5C40E050E061E0D7
:103820008AE00F94EF6A0C94DB5C8091BD098111F2
:103830000C94DB5C10912302113411F00C94DB5CCE
:1038400010928E121092391A81E080933A1A40E059
:1038500050E068E08AE00F94EF6A1093961280912E
:10386000940A9091950A94609093950A8093940A93
:103870000C94DB5C80912302813439F440E050E009
:1038800061E08AE00F94EF6AADCF843409F0AACFEB
:103890008091940A9091950A90619093950A8093F3
:1038A000940AA0CF80912302823441F3833409F03B
:1038B00099CFEECF80912302992369F0813459F496
:1038C0008091940A9091950A88609093950A8093CC
:1038D000940A0C94DB5C843411F00C94DB5C8091D2
:1038E000940A9091950A80689093950A8093940A1F
:1038F00010928E120C94DB5C80913A1A882311F49A
:103900000C94DB5C80912302823459F48091940AF8
:103910009091950A80619093950A8093940A0C94F3
:10392000DB5C833411F00C94DB5C40E050E066E13A
:103930008AE00F94EF6A41E050E064E581E20F9481
:10394000EF6A82E580931D0281E0809391120C94CE
:10395000DB5C0F94DF280C94DB5C0F9469280C94DB
:10396000DB5C80919F089091A008A091A108B09184
:10397000A208846080939F089093A008A093A10858
:10398000B093A2080C94DB5C80919F089091A008F2
:10399000A091A108B091A208886080939F0890939D
:1039A000A008A093A108B093A2080C94DB5C23307C
:1039B000310559F4A16080939F089093A008A093CB
:1039C000A108B093A2080C94DB5C846080939F08EC
:1039D0009093A008A093A108B093A2080C94DB5C7C
:1039E0002091C5023091C60280919F089091A00855
:1039F000A091A108B091A2082330310559F4A2602A
:103A000080939F089093A008A093A108B093A20868
:103A10000C94DB5C886080939F089093A008A0932F
:103A2000A108B093A2080C94DB5C80919F08909150
:103A3000A008A091A108B091A208816080939F087E
:103A40009093A008A093A108B093A2080C94DB5C0B
:103A50002091C5023091C60280919F089091A008E4
:103A6000A091A108B091A2082330310559F49061CA
:103A700080939F089093A008A093A108B093A208F8
:103A80000C94DB5C816080939F089093A008A093C6
:103A9000A108B093A2080C94DB5C2091C502309180
:103AA000C60280919F089091A008A091A108B091B2
:103AB000A2082330310559F4906280939F089093B7
:103AC000A008A093A108B093A2080C94DB5C8260CC
:103AD00080939F089093A008A093A108B093A20898
:103AE0000C94DB5C80919F089091A008A091A108A4
:103AF000B091A208806280939F089093A008A09341
:103B0000A108B093A2080C94DB5C2330310559F472
:103B1000906480939F089093A008A093A108B0930D
:103B2000A2080C94DB5C806280939F089093A008AD
:103B3000A093A108B093A2080C94DB5C80919F082D
:103B40009091A008A091A108B091A20880618093F3
:103B50009F089093A008A093A108B093A2080C948A
:103B6000DB5C2330310559F4906880939F08909373
:103B7000A008A093A108B093A2080C94DB5C80611C
:103B800080939F089093A008A093A108B093A208E7
:103B90000C94DB5C80919F089091A008A091A108F3
:103BA000B091A208806480939F089093A008A0938E
:103BB000A108B093A2080C94DB5C80919F089091BF
:103BC000A008A091A108B091A208806880939F08E6
:103BD0009093A008A093A108B093A2080C94DB5C7A
:103BE00080919F089091A008A091A108B091A2088F
:103BF000926080939F089093A008A093A108B0932F
:103C0000A2080C94DB5C80919F089091A008A09181
:103C1000A108B091A208946080939F089093A00897
:103C2000A093A108B093A2080C94DB5C80919F083C
:103C30009091A008A091A108B091A20898608093EB
:103C40009F089093A008A093A108B093A2080C9499
:103C5000DB5C4A3551056105710519F41092510A72
:103C600003C081E08093510A8091510AE82FF0E06F
:103C7000EE0FFF1FE45AFD4E208131813093790809
:103C800020937808811105C080910F129091101235
:103C900004C08091131290911412918380830F9429
:103CA000874F81E48093961240E050E068E08AE01C
:103CB0000F94EF6A40E050E064E581E20F94EF6A10
:103CC00080E090E0A3E4B3E480937F1290938012AD
:103CD000A0938112B093821280903D0A90903E0A88
:103CE000A0903F0AB090400A20917B1230917C1244
:103CF00040917D1250917E126091771270917812EE
:103D00008091791290917A12EAE66E2EE2E17E2E8F
:103D10007F926F92F3E8CF2EF2E1DF2EE12CF12CAF
:103D200003E413E40E94D4D00F94ED5280E090E0BD
:103D3000A0E2B1E480937B1290937C12A0937D1259
:103D4000B0937E128090390A90903A0AA0903B0A74
:103D5000B0903C0AE0907F12F090801200918112A6
:103D6000109182126091771270917812809179127D
:103D700090917A127F926F9220E030E040E251E41D
:103D80000E94D4D00F94ED520F900F900F900F908F
:103D9000809196128E3411F40C94E02910929612B0
:103DA0000E94526440E050E060E289E00F94EF6AC4
:103DB00040E050E064E28AE00F94EF6A0091510A1B
:103DC00010E0F801EE0FFF1FEE0FFF1FE455F24E5B
:103DD00060817181828193810F94CFCB7093990818
:103DE00060939808000F111FF801E45AFD4E80817E
:103DF00091810A97909397088093960889E480931D
:103E000096120E94526481E080939A080C94DB5CC5
:103E100040E050E060E289E00F94EF6A40E050E05B
:103E200064E28AE00F94EF6A89E4809396120E941C
:103E300052640091510A01111DC08091111290919C
:103E400012126091E5117091E611681779072CF450
:103E5000BC01990F880B990B04C0072E000C880B2E
:103E6000990B0F949AC30F94CFCB70935D1260930C
:103E70005C1220C080911512909116126091DF1192
:103E80007091E011681779072CF4BC01990F880B29
:103E9000990B04C0072E000C880B990B0F949AC342
:103EA00010E0000F111F045A1D4E0F94CFCBD80104
:103EB0006D937C930F94874F0091510A10E0F801A5
:103EC000EE0FFF1FEE0FFF1FE455F24E6081718170
:103ED000828193810F94CFCB709399086093980857
:103EE000000F111FF801E45AFD4E808191810A975D
:103EF00090939708809396080E94526481E0809383
:103F00009A080C94DB5C80919902882311F40C943C
:103F1000E95C8091510A811102C08AE101C086E307
:103F20000E943AE8892B11F00C94E95C0C94DB5C5C
:103F30000F9455290C94DB5C80919D0881FF02C091
:103F40000C94DB5C9091740A8091730A98130C9422
:103F5000695E40E050E06BE084E10F94EF6A40E07E
:103F600050E065E18AE00F94EF6A82E48093961254
:103F700080931613E091510A34E0E39FF00111247D
:103F8000E65CFD4F6081718182819381609377123D
:103F9000709378128093791290937A12E0907F1246
:103FA000F0908012009181121091821220917B1268
:103FB00030917C1240917D1250917E12E1E5FAE041
:103FC000FF93EF93812C912CE8E4AE2EE3E4BE2E18
:103FD000F3E8CF2EF2E1DF2E0E94D4D0E0907F12E2
:103FE000F0908012009181121091821220917B1228
:103FF00030917C1240917D1250917E12E0916A12B4
:1040000064E0E69FF0011124E65CFD4F6081718160
:10401000828193810F947F6CE0916A1284E0E89F23
:10402000F0011124E65CFD4F80819181A281B38172
:104030008093771290937812A0937912B0937A12AA
:10404000E091510AF0E0EE0FFF1FE45AFD4E80911F
:10405000780890917908918380830F94874F10920C
:10406000990A0F94ED520F900F900C94DB5C8091A5
:104070009D0881FF02C00C94DB5C9091740A209132
:10408000730A29130C946D5E0C94705E80919D08E8
:1040900081FF02C00C94DB5C9091740A2091730A3A
:1040A00029130C946D5E0C94745E9091740A809147
:1040B000730A98130C94DB5C0C94785E9091740AEC
:1040C0008091730A98130C94DB5C0C94035FE0916D
:1040D0008602F0918702EF3F9FEFF90711F40C94ED
:1040E000DB5CEE0FFF1FE45AFD4E808191818B3324
:1040F000A1E09A0714F00C94DB5C05969183808311
:104100000F94874F0F94874FE0918602F0918702BA
:10411000EE0FFF1FE45AFD4E4081518168E289E0B5
:104120000F94EF6A0C94DB5CE0918602F0918702B9
:10413000EF3FBFEFFB0711F40C94DB5CEE0FFF1FAA
:10414000E45AFD4E808191811816190614F00C94E2
:10415000DB5C0597918380830F94874F0F94874F83
:10416000E0918602F0918702EE0FFF1FE45AFD4EA8
:104170004081518168E289E00F94EF6A0C94DB5C26
:104180008091860290918702019611F40C94DB5C79
:104190009091740A8091730A98130C946D5E0C943C
:1041A000915F8091860290918702019611F40C94A0
:1041B000DB5C9091740A8091730A98130C946D5E85
:1041C0000C94975F9091740A8091730A98130C94E1
:1041D000DB5C0C949D5F80911613823411F00C947B
:1041E000DB5C109296128091940A9091950A8D7FD3
:1041F0009093950A8093940A80911D02823531F440
:1042000089E480931D020F941C2ED1C0893409F0DB
:10421000CEC081E48093961240E050E068E08AE0EE
:104220000F94EF6A4090130950901409609015099B
:104230007090160940927B1250927C1260927D120F
:1042400070927E1220E030E040E752E460916C0210
:1042500070916D0280916E0290916F020F9423CB4A
:104260004B015C01E0907F12F0908012009181126E
:104270001091821260917712709178128091791268
:1042800090917A122AE632E13F932F9323E8C22ECF
:1042900022E1D22EA30192010E94D4D00F94ED52BC
:1042A0000F900F90809196128E3411F40C94E029A7
:1042B00020E030E040E251E4609117097091180964
:1042C0008091190990911A090F9435CA7B018C01CC
:1042D00060937F1270938012809381129093821268
:1042E00080910E0989838090700290907102A09055
:1042F0007202B090730220917B1230917C12409137
:104300007D1250917E126091771270917812809197
:10431000791290917A12FE013196FF93EF930E94E9
:10432000D4D00F94ED520F900F90809196128E344E
:1043300011F40C94E0291092961282E480932302E7
:1043400040E050E063E08BE10F94EF6A40E050E022
:1043500067E581E20F94EF6A40E050E066E781E2B2
:104360000F94EF6A40E050E06DEE81E20F94EF6A47
:1043700040E050E069E881E20F94EF6A40E050E0ED
:104380006AE28AE00F94EF6A81E080938E121092C5
:10439000911264EF78E086E20F94FD6B8091940AAD
:1043A0009091950A98609093950A8093940A109240
:1043B00016130C94DB5C8091DA111092961288230C
:1043C000E9F01092DA118091940A9091950A986020
:1043D0009093950A8093940A8091230240E050E0E4
:1043E000813431F469E08AE00F94EF6A0C94DB5C6D
:1043F0006AE28AE00F94EF6A0C94DB5C10921D1263
:1044000010929112EBE8F8E084918F01882351F02B
:10441000082E000C990B0F9414830F5F1F4FF801A7
:104420008491F4CF1092A50881E00F94962340E088
:1044300050E065E08AE00F94EF6A0C94DB5C8091B9
:10444000EF08282F287083FF90C39091F3089230D3
:1044500008F48BC3413B51056105710509F4A8C0FF
:10446000B4F5443651056105710509F4A1C1A4F400
:104470004E3551056105710509F4F0C24F355105FE
:104480006105710509F41CC34533510561057105CA
:1044900011F00C94DB5C27C3403A510561057105AE
:1044A00009F4C8C0423A51056105710509F46AC0B2
:1044B000433851056105710511F00C94DB5C40E057
:1044C00050E06DE68AE00F94EF6A0C94DB5C4233B7
:1044D000F1E05F076105710509F45CC13CF5453CFD
:1044E00051056105710509F479C04C3C5105610520
:1044F000710509F489C0423B51056105710511F050
:104500000C94DB5C0F944B2841E050E062EB81E2BD
:104510000F94EF6A41E050E060EA81E20F94EF6AA5
:104520001092AF021092AE020C94DB5C463331E085
:1045300053076105710509F417C1ACF443335140C9
:104540006105710511F00C94DB5C8DEF9FEF90938A
:1045500018138093171340E050E06AE08AE00F944C
:10456000EF6A0C94DB5C4E37A1E05A0761057105D8
:1045700009F4F2C1483851406105710509F424C1BC
:104580000C94DB5C0F944B2841E050E062EA81E23E
:104590000F94EF6A41E050E060EA81E20F94EF6A25
:1045A0008EEF9FEF9093AF028093AE020C94DB5C92
:1045B0000F944B2841E050E061EB81E20F94EF6AE9
:1045C00041E050E060EA81E20F94EF6A8FEF9FEFE5
:1045D0009093AF028093AE020C94DB5C0F944B2857
:1045E00041E050E065EC81E20F94EF6A41E050E079
:1045F00060EA81E20F94EF6A81E090E09093AF026D
:104600008093AE020C94DB5C0F944B2841E050E0A9
:104610006CEC81E20F94EF6A41E050E060EA81E2E5
:104620000F94EF6A82E090E09093AF028093AE0225
:104630000C94DB5C0091AE021091AF0298012E5FEA
:104640003F4F2530310510F00C94DB5C9230D9F5EA
:1046500083E08093F30840E050E061E18AE00F944A
:10466000EF6A80E5809396128091F008800F809326
:10467000F00800E010E020E030E04CE553EC60E0B2
:1046800070E088E393EC0F94C9AA0F944B2880E65E
:1046900097E09093AF028093AE0240E050E060EA72
:1046A00081E20F94EF6A42E050E06CE08BE10F94FE
:1046B000EF6A40E050E069E18AE00F94EF6A1092FF
:1046C00096120C94DB5C9330D9F584E08093F30868
:1046D00040E050E061E18AE00F94EF6A80E580936A
:1046E00096128091F108800F8093F10800E010E0AD
:1046F00020E030E04CE553EC60E070E080E493E4CF
:104700000F94C9AA0F944B2880E697E09093AF02CC
:104710008093AE0240E050E060EA81E20F94EF6ADD
:1047200042E050E06CE08BE10F94EF6A40E050E033
:1047300069E18AE00F94EF6A109296120C94DB5CA8
:10474000943011F00C94DB5C8091F208800F809320
:10475000F20840E050E06EE28AE00F94EF6A8FE4E6
:10476000809396120C94DB5C0F944B2840E050E051
:1047700060EA81E20F94EF6A40E050E069E18AE08C
:104780000F94EF6A80E697E09093AF028093AE02B9
:104790000C94DB5C83E090E09093181380931713E4
:1047A00040E050E06AE08AE00F94EF6A0C94DB5C32
:1047B000109218131092171340E050E06AE08AE05C
:1047C0000F94EF6A0C94DB5C40E050E068E08AE014
:1047D0000F94EF6A81E48093961241E061E081E0FA
:1047E0000E948FE2109296120F94ED520F94BA2A03
:1047F000109117138091F3088230B1F540E050E03A
:1048000061E18AE00F94EF6A80E58093961200914F
:10481000F008010F0093F008002E000C110B20E0AF
:1048200030E0A901CA01B9010F94C9AA0F944B281D
:1048300080E697E09093AF028093AE0240E050E0B4
:1048400060EA81E20F94EF6A42E050E06CE08BE1B5
:104850000F94EF6A40E050E069E18AE00F94EF6A5C
:10486000109296120C94DB5C8330C9F540E050E066
:1048700061E18AE00F94EF6A80E5809396120091DF
:10488000F108010F0093F108002E000C110B20E03D
:1048900030E04CE553EC60E070E088E393EC0F947B
:1048A000C9AA0F944B2880E697E09093AF028093BB
:1048B000AE0240E050E060EA81E20F94EF6A42E02D
:1048C00050E06CE08BE10F94EF6A40E050E069E16A
:1048D0008AE00F94EF6A109296120C94DB5C84309D
:1048E00011F00C94DB5C40E050E061E18AE00F9451
:1048F000EF6A80E5809396120091F208010F009311
:10490000F208002E000C110B20E030E04CE553ECD7
:1049100060E070E080E493E40F94C9AA0F944B2800
:1049200080E697E09093AF028093AE0240E050E0C3
:1049300060EA81E20F94EF6A42E050E06CE08BE1C4
:104940000F94EF6A40E050E069E18AE00F94EF6A6B
:10495000109296120C94DB5C109296128091F008E3
:104960004091F108042F081B4091F208142F181BE6
:10497000602F002E000C770B880B990B0F949AC3B5
:104980002DEC3CEC4CEC5DEB0F94A2BE60936F09F8
:10499000709370098093710990937209612F012EB1
:1049A000000C770B880B990B0F949AC32DEC3CEC01
:1049B0004CEC5DEB0F94A2BE60936B0970936C0995
:1049C00080936D0990936E090023A1F040E050E0C0
:1049D0006FE18AE00F94EF6A07FF07C0E02FFF271F
:1049E000E1950CF4F09508E00E0F402F000F550BE9
:1049F00064E015C01123B9F040E050E060E28AE0C5
:104A00000F94EF6A17FF07C0212F332721950CF46D
:104A1000309518E0120F412F110F550B65E08BE117
:104A20000F94EF6A11C014E41093161340E050E0A5
:104A30006BE084E10F94EF6A40E050E065E18AE0CA
:104A40000F94EF6A1093961288EE90E090936A09A3
:104A5000809369090F943C770C94DB5C4091F208D9
:104A60008091F008142F181BC1F040E050E060E284
:104A70008AE00F94EF6A17FF07C0812F992781956D
:104A80000CF4909518E0180F412F110F550B65E0AD
:104A90008BE10F94EF6A0C94DB5C14E41093161313
:104AA00040E050E06BE084E10F94EF6A40E050E0BA
:104AB00065E18AE00F94EF6A109396120C94DB5C28
:104AC00014E41093161340E050E06BE084E10F947F
:104AD000EF6A40E050E065E18AE00F94EF6A1093DE
:104AE00096120C94DB5C90911613943411F00C9494
:104AF000DB5C1092F308877F8093EF081092961288
:104B000010925712109256120F94434F10925D124A
:104B100010925C120F94874F10925F1210925E12E7
:104B20000F94874F10921D1210929112E0E8F8E056
:104B300084918F01882351F0082E000C990B0F945B
:104B400014830F5F1F4FF8018491F4CF1092A508D2
:104B500080E00F94962340E050E065E08AE00F94F7
:104B6000EF6A109216130C94DB5C4E38F1E05F078D
:104B700010F00C94DB5CFA018827EE58FF4F8F4F42
:104B80000D94A7CE80912102909122028260909391
:104B90002202809321020C94DB5C8091210290918F
:104BA0002202846090932202809321020C94DB5CA9
:104BB000809121029091220288609093220280933A
:104BC00021020C94DB5C8091210290912202806191
:104BD00090932202809321020C94DB5C809121024D
:104BE00090912202806290932202809321020C9481
:104BF000DB5C0F948E45009781F4809121029091A7
:104C000022029460909322028093210280914712A5
:104C10008150809347120C94DB5C019711F00C9447
:104C2000DB5C809121029091220294609093220299
:104C30008093210240E050E067E381E20F94EF6A45
:104C400040E050E061E08BE10F94EF6A8091471201
:104C50008150809347120C94DB5C10921D121092CD
:104C60009112E5E7F8E084918F01882351F0082E36
:104C7000000C990B0F9414830F5F1F4FF801849160
:104C8000F4CF1092A50881E00F94962340E050E005
:104C900065E08AE00F94EF6A0C94DB5C80913B1A2C
:104CA000882311F40C94DB5C41E061E08CE39AE131
:104CB0000F9421488FEF9FEF90932A1A8093291A1F
:104CC000412C512C32017301620100E010E088EDAB
:104CD000A82E89E1B82E9E012F5F3F4F190188242D
:104CE0008394912C4091DA1C5091DB1C6091DC1C68
:104CF0007091DD1C8091351C9091361CA091371C61
:104D0000B091381C84179507A607B70708F06DC047
:104D1000D501E2E31D92EA95E9F70F94056E01963D
:104D2000D9F41092241A1092231A1092261A109273
:104D3000251A81E090E09093281A8093271A109208
:104D4000341A1092331A1092361A1092351A80E0E3
:104D50000F9438440C94BA5F0115110521F52FEF1B
:104D60003FEF3A8329833F922F924CE35DE25F93BA
:104D70004F93BF92AF920F9473C389819A810F9022
:104D80000F900F900F900F900F90019639F0909226
:104D90002A1A8092291A07E010E021C010922A1ADC
:104DA0001092291A1CC080E00F94FEBB6B017C019D
:104DB00081E00F94FEBB2B013C0120E030E0A90113
:104DC000C701B6010F940DCD18167CF020E030E03D
:104DD000A901C301B2010F940DCD181634F00F5F75
:104DE0001F4F0E3111050CF47DCF80E00F94384435
:104DF00020E030E0A901C701B6010F9494C3181652
:104E00005CF020E030E0A901C301B2010F9494C32B
:104E1000181614F00C94BA5F8090B0029090B10212
:104E2000A090B202B090B302A5019401C701B601EF
:104E30000F9494C3811114C020E030E0A901C70190
:104E4000B6010F940DCD18165CF420E030E0A901F6
:104E5000C301B2010F9494C3181614F00C94BA5FF6
:104E60002091B4023091B5024091B6025091B70240
:104E7000C65EDE4F288339834A835B83CA51D140A3
:104E8000C301B2010F9494C381111EC020E030E031
:104E9000A901C301B2010F940DCD18165CF420E0F6
:104EA00030E0A901C701B6010F9494C3181614F09D
:104EB0000C94BA5FA5019401C701B6010F9494C385
:104EC000882311F40C94BA5F20E030E0A901C701F7
:104ED000B6010F9494C320E030E040E251E418168C
:104EE0001CF0C501B40102C0C701B6010F94A2BEF7
:104EF0000F94CFCB6093080220E030E0A901C301FA
:104F0000B2010F9494C320E030E040E251E418165F
:104F10004CF0C65EDE4F688179818A819B81CA51DF
:104F2000D14002C0C301B2010F94A2BE0F94CFCBF7
:104F30006093090240E050E06FE58AE00F94EF6A69
:104F40006091B0027091B1028091B2029091B3026F
:104F50000F94CFCBAB016DE489E00F94EF6A20E0B2
:104F600030E040E251E46091B0027091B102809172
:104F7000B2029091B3020F94A2BE0F94CFCB0AE07D
:104F800010E0CB01B8010F9478CEAC016EE489E05B
:104F90000F94EF6A6091B4027091B5028091B602ED
:104FA0009091B7020F94CFCBAB016FE489E00F94DF
:104FB000EF6A20E030E040E251E46091B402709189
:104FC000B5028091B6029091B7020F94A2BE0F94E1
:104FD000CFCBCB01B8010F9478CEAC0160E589E06E
:104FE0000F94EF6A809108021AE0612F0F9457CE58
:104FF000482F880F550B61E589E00F94EF6A809187
:105000000802612F0F9457CE492F990F550B62E577
:1050100089E00F94EF6A80910902612F0F9457CEB7
:10502000482F880F550B63E589E00F94EF6A809154
:105030000902612F0F9457CE492F990F550B64E544
:1050400089E00F94EF6ABCC180913B1A882311F468
:105050000C94DB5C80918B1A81110C94DB5CCDB6D7
:10506000DEB68091A3089091A4080F949B47ECE3CF
:10507000FAE1DF010D900020E9F78DB79EB78A1B9A
:105080009B0B9C01285C354E0FB6F8943EBF0FBEBB
:105090002DBF0DB71EB70F5F1F4FFF93EF9385E135
:1050A00098E09F938F931F930F930F9445C37801BC
:1050B00034E0E30EF11C0F900F900F900F900F90C3
:1050C0000F90D7018C91882349F0082E000C990B82
:1050D0000F9425D1F70181937F01F3CFC8010F947D
:1050E000082481E198E00F9499230FB6F894DEBE6E
:1050F0000FBECDBE0C94DB5C81E080931D128091CD
:1051000021029091220292609093220280932102C8
:105110000C94DB5C8091210290912202916090932B
:105120002202809321020C94DB5C809121029091F9
:105130002202806890932202809321020C94DB5C0F
:1051400040E050E062E18AE00F94EF6A0C94DB5C8F
:1051500040E050E06CE18AE00F94EF6A80E00F9449
:1051600096231092BB1D1092BA1D1092B91D81E0BA
:105170008093A5080C94DB5C10921D121092911282
:10518000E6E0F8E084918F01882351F0082E000CAE
:10519000990B0F9414830F5F1F4FF8018491F4CF84
:1051A0001092A5080E94526481E00F94962340E07B
:1051B00050E065E08AE00F94EF6A0C94DB5C80912C
:1051C0005C1290915D12892B29F010925D12109261
:1051D0005C1208C0809141119091421190935D1230
:1051E00080935C120F94874F1092BB1D0C94DB5C74
:1051F00080915E1290915F12892B29F010925F12BC
:1052000010925E1208C080913E1190913F119093D0
:105210005F1280935E120F94874F1092BA1D0C9408
:10522000DB5C8091561290915712892B29F01092D5
:105230005712109256121CC08091ED089091EE0802
:105240006091EB087091EC08681779072CF4BC01A9
:10525000990F880B990B04C0072E000C880B990B33
:105260000F949AC30F94CFCB70935712609356123A
:105270000F94434F1092B91D0C94DB5C82E098E0D0
:105280000F9499230C94DB5C40E050E06EE18AE0DF
:105290000F94EF6A0C94DB5C40E050E065E08AE03C
:1052A0000F94EF6A10921D1210929112E7EFF7E03F
:1052B00084918F01882351F0082E000C990B0F94D4
:1052C00014830F5F1F4FF8018491F4CF1092A5084B
:1052D00088E793E09093C4028093C3020F943C77D5
:1052E0000C94DB5C40E050E06AE18AE00F94EF6AE6
:1052F0000F94974280913B1A882311F40C94DB5C45
:105300008091461280934712BEE1EB2EB2E1FB2E54
:1053100012E3C12E12E1D12E00E010E0809146127E
:1053200090E008171907FCF46CE37AE183EB9AE14B
:105330000F94E47A5701D7018D919D917D010F94CF
:105340009B47F50180819181D6018D939D936D01DD
:1053500080918B1A882321F08CE39AE10F94304CD2
:105360000F5F1F4FDBCF87E090E00F94A1320C94CA
:10537000DB5C8091C3029091C4028036974041F477
:1053800088E793E09093C4028093C3020F943C7724
:1053900040E050E068E08AE00F94EF6A81E4809397
:1053A00096128091BE098823D1F040E061E081E04F
:1053B0000E948FE20F94ED52809196128E3489F400
:1053C0008FEF9FEFDC018093BF029093C002A09308
:1053D000C102B093C2021092A6080C942D6441E061
:1053E000E5CF81E00F9496231092961284EF97E018
:1053F0000F9499230F94ED52809196128E3401F3FD
:1054000040E050E06BE08AE00F94EF6A0C94DB5CC4
:1054100040E050E064E08AE00F94EF6A0C94DB5CBB
:1054200040E050E064E28AE00F94EF6A8091B81D9A
:1054300082608093B81D89E48093961240E050E02A
:1054400060E289E00F94EF6A60914111709142111E
:10545000072E000C880B990B0F949AC300E010E004
:1054600028EC31E440E050E00F946E8A0F943C77D2
:1054700063EC74E08FEA97E10F94198366EC74E0B3
:105480008FEA97E10F9419836091150370911603C9
:10549000809117039091180342E050E00F94F1457A
:1054A0006AEC74E08FEA97E10F9419832DEB37E3F0
:1054B00046E05EE360910D0370910E0380910F034F
:1054C000909110030F9423CB42E050E00F94F145EC
:1054D0006EEC74E08FEA97E10F9419832DEB37E3BC
:1054E00046E05EE360910503709106038091070337
:1054F000909108030F94A2BE42E050E00F94F14552
:1055000060913E1170913F11072E000C880B990B92
:105510000F949AC300E010E028EC31E441E050E041
:105520000F946E8A0F943C7763EC74E08FEA97E1F6
:105530000F94198366EC74E08FEA97E10F94198356
:105540006091190370911A0380911B0390911C03C1
:1055500042E050E00F94F1456AEC74E08FEA97E185
:105560000F9419832DEB37E346E05EE3609111035E
:105570007091120380911303909114030F9423CB25
:1055800042E050E00F94F1456EEC74E08FEA97E151
:105590000F9419832DEB37E346E05EE36091090336
:1055A00070910A0380910B0390910C030F94A2BE9B
:1055B00042E050E00F94F145109296120E9452641E
:1055C00040E050E06BE084E10F94EF6A40E050E08F
:1055D00065E18AE00F94EF6A84E480931613809368
:1055E00096120C94DB5C40E050E068E28AE00F9495
:1055F000EF6A0C94DB5C40E050E062E18AE00F94DB
:10560000EF6A0C94DB5C10921D1210929112E9EE7D
:10561000F7E084918F01882351F0082E000C990B3C
:105620000F9414830F5F1F4FF8018491F4CF1092F1
:10563000A5080E94526440E050E065E08AE00F94C3
:10564000EF6A0C94DB5C40E050E062E18AE00F948A
:10565000EF6A0C94DB5C82E580931D028091B81D9B
:1056600081608093B81D40E050E06BE581E20F94CB
:10567000EF6A40E050E06CE581E20F94EF6A40E0B1
:1056800050E060E08BE10F94EF6A40E050E06AE7A1
:1056900081E20F94EF6A40E050E069E781E20F9405
:1056A000EF6A40E050E06DE18AE00F94EF6A8FEF1F
:1056B0008093510A0C94DB5C40E050E06CE68AE099
:1056C0000F94EF6A0C94DB5C40E050E062E18AE00A
:1056D0000F94EF6A40E050E06BE581E20F94EF6ACF
:1056E00040E050E06CE581E20F94EF6A40E050E06A
:1056F00060E08BE10F94EF6A40E050E06AE781E2FE
:105700000F94EF6A40E050E069E781E20F94EF6A9E
:105710008091B81D8E7F8093B81D0C94DB5C109235
:105720001D1210929112EEEDF7E084918F01882303
:1057300051F0082E000C990B0F9414830F5F1F4F2C
:10574000F8018491F4CF1092A50840E050E065E0A4
:105750008AE00F94EF6A40E050E06BE581E20F943D
:10576000EF6A40E050E06CE581E20F94EF6A40E0C0
:1057700050E060E08BE10F94EF6A40E050E06AE7B0
:1057800081E20F94EF6A40E050E069E781E20F9414
:10579000EF6A8091B81D8E7F8093B81D0C94DB5CFE
:1057A00041E050E06BE581E20F94EF6A40E050E0A9
:1057B0006CE581E20F94EF6A41E050E060E08BE13C
:1057C0000F94EF6A41E050E06AE781E20F94EF6ADC
:1057D00041E050E069E781E20F94EF6A1092510ACC
:1057E0000C94DB5C40E050E06BE581E20F94EF6AE3
:1057F00041E050E06CE581E20F94EF6A41E050E057
:1058000060E08BE10F94EF6A41E050E06AE781E2EB
:105810000F94EF6A41E050E069E781E20F94EF6A8C
:1058200081E08093510A0C94DB5C8091C3029091DB
:10583000C4028036974041F488E793E09093C40215
:105840008093C3020F943C778091510A8F3F11F4EB
:105850000C94DB5C0F945BB90C94DB5C8091C3020D
:105860009091C4028036974041F488E793E090938A
:10587000C4028093C3020F943C77E091510AEF3F3A
:1058800011F40C94DB5C81E080939412F0E0EE0F55
:10589000FF1FE45AFD4E84E091E0918380830F94D2
:1058A000874F81E48093961240E050E068E08AE000
:1058B0000F94EF6A8091BE09882311F040E001C087
:1058C00041E061E081E00E948FE20F94ED5280910F
:1058D00096128E3409F474CD80E090E0A3E4B3E432
:1058E00080937F1290938012A0938112B0938212C2
:1058F00080903D0A90903E0AA0903F0AB090400AE6
:1059000020917B1230917C1240917D1250917E1239
:1059100060917712709178128091791290917A1239
:10592000AAE66A2EA2E17A2E7F926F92B3E8CB2E7E
:10593000B2E1DB2EE12CF12C03E413E40E94D4D07D
:105940000F94ED520F900F90809196128E3409F4BF
:1059500037CD80E090E0A0E2B1E480937B12909399
:105960007C12A0937D12B0937E128090390A9090A1
:105970003A0AA0903B0AB0903C0AE0907F12F09067
:1059800080120091811210918212609177127091B1
:1059900078128091791290917A127F926F9220E022
:1059A00030E040E251E40E94D4D00F94ED520F90C9
:1059B0000F90809196128E3409F402CD8091510A95
:1059C000811111C080E090E00E946BAC80E090E01B
:1059D000ADE9B2E48093771290937812A093791294
:1059E000B0937A1220C081E090E00E946BAC20E07E
:1059F00030E048EC51E460913E0270913F028091AA
:105A00004002909141020F9434CA20E030E046E514
:105A100052E40F9434CA6093771270937812809393
:105A2000791290937A12E0907F12F0908012009198
:105A300081121091821220917B1230917C12409140
:105A40007D1250917E126091771270917812809140
:105A5000791290917A12E1E5FAE0FF93EF93812CAD
:105A6000912CE8E4AE2EE3E4BE2EF3E8CF2EF2E173
:105A7000DF2E0E94D4D00F94ED520F900F908091A2
:105A800096128E3409F49CCC109296120E945264A5
:105A900040E050E065E28AE00F94EF6A0C94DB5C32
:105AA0008091B81D877C84608093B81D0C94DB5C6A
:105AB0008091B81D837D80618093B81D0C94DB5C60
:105AC0008091B81D837E80628093B81D0C94DB5C4E
:105AD0008091B81D8B7C88608093B81D0C94DB5C32
