:100000000C94EE160C941F170C941F170C941F17CA
:100010000C941F170C941F170C941F170C941F1788
:100020000C941F170C941F170C941F170C941F1778
:100030000C941F170C941F170C941F170C94E2E6D6
:100040000C941F170C941F170C941F170C941F1758
:100050000C941F170C941F170C94A38E0C947C8C7B
:100060000C941F170C94FC890C94508A0C941F1745
:100070000C941F170C941F170C941F170C941F1728
:100080000C9495DB0C941F170C941F170C941F17DE
:100090000C941F170C941F170C941F170C941F1708
:1000A0000C941F170C941F170C941F170C941F17F8
:1000B0000C941F170C941F170C941F170C941F17E8
:1000C0000C941F170C941F170C941F170C94C789BE
:1000D0000C946B940C941F170C941F170C941F17FF
:1000E0000C941F17AF33C057C733A430C057DC2A56
:1000F000C057E62AC057C057CA3E252BC057C05725
:1001000030272B27C057D13FC057C057C0577C4519
:100110008445FE4A064BFD4DC057CB450946474630
:100120002047A44618400A409730E246C057E12ACB
:100130008827C32A6B30EE418C30E74A73518130F7
:100140007630EF4AF74AC057B9338C45683C954240
:10015000EE2A3F273527C0577C3A152CE64DC0576D
:10016000EE4D5E2D0E4B88366B2A284F353B4E5296
:10017000E9365E4B9445054E642C513551350335B7
:100180004A37AF377E2D3C2B532B022BAD2D262724
:100190003A27C057C057C057F933132E352E7E2B40
:1001A00090416D419C45A445AB45B345BB45C34516
:1001B00055465D4665466D4675467D4684468C4689
:1001C00094469C46A4472E471A48EB497549FF4878
:1001D000C057F64DD52D582E6C2FF93310351835E4
:1001E0003635DF4A654D8B4DDA4DD74A183D6727C6
:1001F00079578833C057C057B755C0573741264045
:100200008C38E6383F391738B93812396C39F23939
:10021000C639C032AC32CF40B13074313E32753263
:10022000BE55D13277339A39C057C057C057C057DF
:10023000C057C057C057C057C057EE41842B8C2BB6
:10024000B22B04574057784DAA4D0E4BDA4D0D4E48
:100250000C4FC057D95136527651C35128505B527A
:10026000C0574150F33D0554D23EAA3F4854C057B1
:10027000C057DB5224536F53BA53D452685293522F
:100280008B548C55E356C057C0579A56C057C05729
:10029000F356C0576C2C63512F504A5003510A51EA
:1002A000C32A6A516F794D7A157BF07A717AF07AA8
:1002B000CB7A9479B979DE79907BB57BDA7BFF7B59
:1002C000287A037AA67A67896A8959895D89638958
:1002D000A1896E89728978897C89808986898A89D1
:1002E0008E89A189948998899C89988B9D8BA28BF2
:1002F000AC8BB68B2F8CC08BC88BD08BDA8BE48BFE
:10030000EE8BFD8B078C2F8C118C1B8C258C2D8FED
:100310003A8F568F638F7D8F8A8FA48FA68FA88F79
:10032000AA8FB28F084AD73B3BCE016E84BCBFFD7B
:10033000C12F3D6C74319ABD56833DDA3D00C77FB5
:1003400011BED9E4BB4C3E916BAAAABE000000804E
:100350003F05A84CCDB2D44EB93836A9020C50B9DD
:10036000918688083CA6AAAA2ABE000000803F0009
:100370000D94C6940D9450900D9493850D94D5943E
:100380000D94C7944E414E494E495459494E46CD5D
:10039000CCCC3D0AD7233C17B7D13877CC2B32953C
:1003A00095E6241FB14F0A000020410000C842001A
:1003B000401C4620BCBE4CCA1B0E5AAEC59D746381
:1003C00064696E6F70737578585B003B20202075F0
:1003D0007365526166742C2564004D3630352053A8
:1003E00025640047333400494E464F3A2042454485
:1003F0002043414C4942202D200053757266696E9E
:100400006720300A004732382058302059300054D5
:100410003000543100543000543000537572666916
:100420006E6720300A0047343300473433004734C6
:100430003100473430004733340047343300473409
:10044000330047343100473430004D3834004D38E4
:1004500034004D3834005A32204F66667365743A62
:1004600020004F4B207365636F6E64204578747273
:100470007564657221005A20706F736974696F6EBC
:100480003A20005A20706F736974696F6E3A2000C9
:100490004D3834005A312050726F6265206F6666A5
:1004A0007365743A20004F4B20666972737420455F
:1004B0007874727564657221200A005A20706F7317
:1004C0006974696F6E3A20005A20706F736974699D
:1004D0006F6E3A200043616C63756C75733A20202F
:1004E0000043616C63756C75733A20200043616C46
:1004F00063756C75733A20200043616C63756C758D
:10050000733A202000363020646567726565732079
:100510000A0054300054300054300043616C69626A
:10052000726174696F6E205375636365737366756A
:100530006C0A005430004A756D70206F7665722029
:1005400073637265773120616E64207363726577BF
:1005500032200A004A756D70206F766572207363D1
:1005600072657731200A004733340047333400473F
:1005700033340054300047333400494E464F3A205C
:100580004245442043414C4942202D20004C6F619C
:1005900064696E670A0053757266696E6720300A77
:1005A0000053757266696E6720300A005375726673
:1005B000696E6720300A00253364202563430025D7
:1005C00033642025634300253364202563430050B2
:1005D000757267652046696C616D656E740A0025E9
:1005E00033642025634300253364202563430025BD
:1005F00033642025634300253364202563430025AD
:10060000336420256343002533642025634300259C
:10061000336420256343002533642025634300535E
:10062000757266696E6720300A0053757266696E6E
:100630006720300A00543000466F756E64005375B1
:100640007266696E6720300A004D3334005375724C
:1006500066696E6720300A004D3234004D32332017
:100660002573004D3234004D323320257300546819
:1006700065206669727374206C617965722070728E
:10068000696E7465642077697468207468652025D4
:100690007320486F74656E640A77696C6C206265BC
:1006A00020646973746F72746564206279202564B4
:1006B0002E253164253164206D6D00537572666995
:1006C0006E6720300A0053757266696E6720300AC3
:1006D0000053757266696E6720300A0053554343B4
:1006E0004553530A002533642025634300253364B2
:1006F00020256343002533642025634300253364AC
:10070000202563430025336420256343002533649B
:10071000202563430025336420256343002533648B
:10072000202563430025336420256343004C6F611B
:1007300064696E673A0A0025336420256343002507
:100740003364202563430025336420256343005030
:10075000757267652046696C616D656E74200A006C
:1007600045787472756465722072656C6561736535
:1007700064206163746976653A20005A20534947C2
:100780004D4120486F6D65640045787472756465ED
:1007900072206163746976653A20005374617274E3
:1007A000696E67205A2043616C6962726174696F77
:1007B0006E2057697A61726400473639204143548C
:1007C000495641544544000A00205A3A2000205915
:1007D0003A200020583A200042656400456E6420AB
:1007E00066696C65206C69737400426567696E2088
:1007F00066696C65206C697374002F005344207027
:1008000072696E74696E67206279746520004E6F3C
:1008100074205344207072696E74696E67002E00F4
:1008200044656C6574696F6E206661696C65642CE3
:100830002046696C653A200046696C652064656CE9
:10084000657465643A002E006F70656E206661699C
:100850006C65642C2046696C653A2000473238206C
:100860005830205930002569206D696E2C2025698B
:100870002073656300204500205A00205900483D40
:1008800058007A5F6D696E3A2000795F6D61783A41
:100890002000785F6D61783A2000785F6D696E3A6C
:1008A0002000504F534954494F4E20484F4D453A30
:1008B00020002200556E6B6E6F776E20636F6D6D3A
:1008C000616E643A20220053757266696E6720304B
:1008D000200A0043616C6962726174696F6E205313
:1008E00075636365737366756C0A005430004D3828
:1008F0003420582059205A204500466F726D20320E
:100900002100526561647920746F204C6F61642FFF
:10091000556E6C6F6164200A00256425250025331F
:100920006420256343002533642025634300253379
:1009300064256343202F202533642563430025333A
:1009400064256343202F202533642563430025332A
:1009500064256343202F20253364256343005072B0
:10096000696E74204A6F622046696E6973686564B7
:10097000004D383420582059205A2045004D313040
:10098000370054300070012C0190012701B0012282
:1009900001C0011D01F00118011002130130020E07
:1009A000016002090190020401C002FF000003FA85
:1009B000004003F5008003F000D003EB002004E6C4
:1009C000007004E100E004DC004005D700C005D25F
:1009D000004006CD00D006C8008007C3003008BE26
:1009E00000F008B900C009B400B00AAF00B00BAA0B
:1009F00000D00CA500000EA000500F9B00C0109668
:100A0000005012910000148C00C0158700B01782AE
:100A100000B0197D00D01B7800001E730040206ECE
:100A20000090226900F024640040275F0090295A5A
:100A300000E02B5500102E500020304B00103246A5
:100A400000E033410090353C0010373700703832F9
:100A500000A0392D00B03A2800A03B2300603C1EC6
:100A600000103D1900903D1400103E0F00703E0A2A
:100A700000C03E0500003F00004879737465726550
:100A80007369732074656D70657261747572650049
:100A9000546865726D616C2072756E617761792042
:100AA00070726F74656374696F6E20627920486537
:100AB000617465725F49443A004572726F722838FA
:100AC00033293A2042656420746865726D697374D5
:100AD0006F72206E6F742064657465637465640062
:100AE0004572726F72283832293A205269676874E9
:100AF00020746865726D6973746F72206E6F7420F4
:100B00006465746563746564004572726F72283839
:100B100031293A204C65667420746865726D69737A
:100B2000746F72206E6F74202064657465637465E1
:100B300064002053544F50205052494E54200A0014
:100B40004572726F72283833293A204265642074E6
:100B50006865726D6973746F72206E6F742064655E
:100B6000746563746564002053544F50205052499B
:100B70004E54200A004572726F72283832293A208A
:100B8000526967687420746865726D6973746F72F6
:100B9000206E6F742064657465637465640020530F
:100BA000544F50205052494E54200A004572726FE3
:100BB00072283831293A204C656674207468657251
:100BC0006D6973746F72206E6F7420206465746534
:100BD000637465640000002100240027002A002DB2
:100BE000003000330001010000040107010A010088
:100BF000002200250028002B002E003100340002C6
:100C0000010000050108010B01000020002300265F
:100C10000029002C002F0032000001000003010613
:100C20000109010505050507050808080802020273
:100C3000020A0A0808040404040101010101010177
:100C4000010303030303030303040707070C0C0C4E
:100C50000C0C0C0C0C020202020606060606060626
:100C6000060B0B0B0B0B0B0B0B01021020200808C3
:100C700010204010204080020102010804020101FE
:100C800002040810204080804020100804020180E7
:100C9000040201804020100804020108040201013E
:100CA0000204081020408001020408102040800047
:100CB000000A0B02090C0D0E0807030401000000D6
:100CC0000000000000000000000000000000000024
:100CD00000000000000000000000001211100000E1
:100CE0000000000000000000000000000000000004
:100CF0000000000000202D20496E76616C696420A0
:100D00006578747275646572206E756D62657220A7
:100D100021004572726F723A0067636F64652066E6
:100D20006F756E640020746F205374617274204478
:100D30006973706C61792066726F6D20526573659E
:100D40007400546F6F6B2000646973706C6179205C
:100D50006F6E6C696E6521002E00646973706C6142
:100D600079206F66666C696E650042434E3344209D
:100D70005369676D617800737461727400656368AC
:100D80006F3A0030322D312E322E395243006572C7
:100D9000726F722077726974696E6720746F206653
:100DA000696C6500205A3A0020593A0020583A00F0
:100DB000656E6473746F7073206869743A2000659F
:100DC00063686F3A00446F6E6520736176696E6781
:100DD0002066696C652E006F6B004D3239005049FA
:100DE00044204175746F74756E652066696E697311
:100DF0006865642100504944204175746F74756EB4
:100E000065206661696C6564212074696D656F7524
:100E1000740020403A006F6B20543A006F6B204200
:100E20003A00504944204175746F74756E652066B0
:100E300061696C6564212054656D706572617475BB
:100E4000726520746F6F206869676800204B643A90
:100E50002000204B693A2000204B703A20002043AC
:100E60006C61737369632050494420002054753AC3
:100E70002000204B753A2000206D61783A20002038
:100E80006D696E3A200020643A2000206269617327
:100E90003A20003B20472D436F64652067656E65EF
:100EA00072617465642062792053696D706C696643
:100EB0007933442852292056657273696F6E202554
:100EC00064003B5072696E742074696D653A202528
:100ED0006420257320256420257320256420257334
:100EE000003B54494D453A256C64003B202020428C
:100EF00075696C642074696D653A202564202573DA
:100F0000202564202573003B202020506C617374E1
:100F10006963207765696768743A2025642E2564C3
:100F200067003B46696C616D656E7420757365641E
:100F30003A2025642E25646D2025642E25646700E3
:100F40003B46696C616D656E7420757365643A200B
:100F5000256C642E256C646D002E2E2E2054696D38
:100F6000656F757421002A2A2A2047656E696520FD
:100F700057726974654F626A656374202A2A2A2051
:100F80002D2D2D3E002E2E2E204E414B2021002AAD
:100F90002A2A2047656E69652057726974654F6219
:100FA0006A656374202A2A2A202D2D2D3E002E2EBC
:100FB0002E2041434B2021002A2A2A2047656E69B2
:100FC000652057726974654F626A656374202A2AC6
:100FD0002A202D2D2D3E0025203364202525002597
:100FE000642068202564206D002520336420252599
:100FF00000253264202563430025336420256343A4
:1010000000253364202563430052656164792074B0
:101010006F204C6F61642F556E6C6F6164200A0005
:10102000256425250025336420256343002533648A
:1010300020256343002053544F50205052494E54B2
:10104000200A00473238205830205930004D3335BF
:1010500000526573756D65206465746563746564BD
:10106000200A0047373000A1524553554D452120F5
:101070000A00A1504155534521200A002533642020
:101080002563430025336420256343002533642012
:101090002563430025336420256343002533642002
:1010A00025634300253364202563430025336420F2
:1010B00025634300253364202563430025336420E2
:1010C000256343005052494E542053455454494ED1
:1010D0004753200A002564206974656D7300253428
:1010E000643A252E326468202F202564670000456D
:1010F000787472756465722072656C65617365647D
:10110000206163746976653A20005A205349474D3F
:101110004120486F6D65640045787472756465722E
:10112000206163746976653A200000000000008049
:101130009343000000000000A0400000A040000019
:10114000004020004D6F766520746F3A2000CDACD2
:1011500003440080934300005243FF01FF20636F6C
:101160006C6420657874727573696F6E2070726537
:1011700076656E746564006563686F3A007C3C3E1A
:101180005E2B3D3F2F5B5D3B2C2A225C0024F4D478
:101190003050C38E20C2A24017828B7011127A91F8
:1011A0000D816CD90AA861E108C7586607615143EF
:1011B000061E4B5D05C145A7041A411104093D985F
:1011C00003713931034036DB0265339102D4305468
:1011D00002802E1D02632CEE01752AC501B028A0E5
:1011E00001102781018F2564012B244B01E022345B
:1011F00001AC211F018D200D01801FFC00841EED1C
:1012000000971DDF00B81CD200E61BC600201BBCE7
:1012100000641AB200B219A8000A19A0006A18994D
:1012200000D117910040178B00B516840031167E4F
:1012300000B31579003A157300C7146F0058146A8B
:1012400000EE1366008813630025135E00C7125B6F
:10125000006C12570015125400C111510070114F4B
:101260000021114B00D61049008D10470046104454
:101270000002104200C00F4000800F3E00420F3CB1
:1012800000060F3B00CB0E3800930E37005C0E3586
:1012900000270E3400F30D3200C10D3100900D30E7
:1012A00000600D2E00320D2D00050D2C00D90C2BE9
:1012B00000AE0C2900850C29005C0C2700350C279A
:1012C000000E0C2600E80B2400C40B2400A00B2306
:1012D000007D0B23005A0B2100390B2100180B2035
:1012E00000F80A1F00D90A1E00BB0A1E009D0A1D35
:1012F00000800A1D00630A1C00470A1B002C0A1B01
:1013000000110A1A00F7091A00DD091900C40919A9
:1013100000AB091900920917007B0918006309172F
:10132000004C09160036091600200916000A091596
:1013300000F5081500E0081400CC081400B80814E3
:1013400000A4081400900813007D0812006B081315
:101350000058081200460812003408110023081132
:10136000001208110001081100F0071000E007103A
:1013700000D0071000C0071000B0070F00A1071031
:101380000091070E0083070F0074070F0065070E1A
:101390000057070E0049070E003B070D002E070EF1
:1013A0000020070D0013070D0006070D00F9060CBD
:1013B00000ED060D00E0060C00D4060C00C8060C7B
:1013C00000BC060C00B0060C00A4060B0099060C2D
:1013D000008D060B0082060B0077060B006C060BD7
:1013E0000061060A0057060B004C060A0042060A76
:1013F0000038060A002E060A0024060A001A060A09
:10140000001006090007060A00FD050900F4050999
:1014100000EB050900E2050900D9050900D005091E
:1014200000C7050900BE050900B5050800AD05089F
:1014300000A50509009C050800940508008C050816
:1014400000840508007C050800740508006C050789
:1014500000650508005D050700560508004E0507F4
:10146000004705070040050800380507003105075B
:10147000002A050700230507001C050600160507BE
:10148000000F0507000805060002050700FB04061B
:1014900000F5040700EE040600E8040600E2040775
:1014A00000DB040600D5040600CF040600C90406CC
:1014B00000C3040600BD040600B7040600B104051D
:1014C00000AC040600A6040600A00405009B040668
:1014D0000095040500900406008A040500850405B3
:1014E00000800406007A04050075040500700405F8
:1014F000006B04050066040500610405005C04053A
:101500000057040500520405004D04050048040579
:1015100000430405003E0404003A040500350405B8
:1015200000300404002C04050027040400230405F3
:10153000001E0404001A040400160405001104042B
:10154000000D040400090405000404040000040460
:1015500000FC030400F8030400F4030400F0030497
:1015600000EC030400E8030400E4030400E00304C7
:1015700000DC030400D8030400D4030400D00304F7
:1015800000CC030400C8030300C503030024F404D3
:10159000D9201BC40C5C0E9804C4095F0265077156
:1015A00001F405F900FB04B30048048700C1036996
:1015B000005803550003034500BE023A008402317F
:1015C0000053022A002902250004022000E4011C25
:1015D00000C8011900AF011700980114008401131D
:1015E00000710110006101100051010E0043010D56
:1015F0000036010B002B010B0020010B0015010927
:10160000000C01090003010800FB000800F30008BA
:1016100000EB000700E4000600DE000600D800062C
:1016200000D2000600CC000500C7000500C200057E
:1016300000BD000400B9000400B5000400B10004BE
:1016400000AD000400A9000400A5000300A20003EF
:10165000009F0004009B0003009800030095000217
:101660000093000300900003008D0002008B000334
:10167000008800020086000200840003008100024E
:10168000007F0002007D0002007B00020079000262
:101690000077000100760002007400020072000171
:1016A00000710002006F0002006D0001006C00027A
:1016B000006A000100690002006700010066000185
:1016C0000065000100640002006200010061000189
:1016D00000600001005F0002005D0001005C00018D
:1016E000005B0001005A0001005900010058000190
:1016F0000057000100560001005500010054000190
:10170000005300000053000100520001005100018D
:1017100000500001004F0001004E0000004E00018B
:10172000004D0001004C0001004B0000004B000187
:10173000004A000100490001004800000048000183
:10174000004700010046000000460001004500007F
:101750000045000100440001004300000043000177
:101760000042000000420001004100000041000171
:1017700000400001003F0000003F0001003E00006B
:10178000003E0001003D0000003D0001003C000063
:10179000003C0000003C0001003B0000003B000159
:1017A000003A0000003A0001003900000039000151
:1017B0000038000000380000003800010037000049
:1017C000003700010036000000360000003600013E
:1017D0000035000000350000003500010034000035
:1017E000003400000034000100330000003300002A
:1017F000003300010032000000320000003200011E
:101800000031000000310000003100010030000014
:101810000030000000300001002F0000002F000009
:10182000002F0000002F0001002E0000002E0000FD
:10183000002E0001002D0000002D0000002D0000F2
:10184000002D0001002C0000002C0000002C0000E6
:10185000002C0001002B0000002B0000002B0000DA
:10186000002B0001002A0000002A0000002A0000CE
:10187000002A0001002900000029000000290000C2
:1018800000290000002900010028000000280000B5
:1018900000280000002800000028000100270000A8
:1018A000002700000027000000270000002700019B
:1018B0000026000000260000002600000026000090
:1018C0000026000100250000002500000025000082
:1018D0000025000000250000002500010024000074
:1018E0000024000000240000002400000024000167
:1018F000002300000023000000230000002300005C
:10190000002300000023000000230001002200004B
:10191000002200000022000000220000002200003F
:101920000022000100210000002100000021000031
:101930000021000000210000002100000021000122
:101940000020000000200000002000000020000017
:101950000020000000200000002000000020000106
:10196000001F0000001F0000001F0000001F0000FB
:10197000001F0000001F0000001F0001001E0000EB
:10198000001E0000001E0000001E000000496E73D3
:1019900074616C6C202564202573206F6E20746840
:1019A0006520257320686F74656E640043616C6305
:1019B000756C75733A20200043616C63756C7573A8
:1019C0003A20200043616C63756C75733A202000E7
:1019D000496E7374616C6C202564202573206F6ED2
:1019E0002074686520257320686F74656E64002517
:1019F000336420256343002533642025634300506E
:101A0000757267652046696C616D656E740A005376
:101A1000757266696E6720310A0053757266696E69
:101A20006720300A002200656E717565696E672057
:101A300022002200656E717565696E6720220020A4
:101A400042403A0020403A00202F003A0020540043
:101A5000202F0020423A00202F006F6B20543A00C4
:101A6000426564204865617465640020423A002044
:101A7000453A00543A00457874727564657220489E
:101A800065617465640020573A0020453A00543A75
:101A9000004649524D574152455F4E414D453A4DE2
:101AA00061726C696E2042434E3344205369676D06
:101AB00061783B204649524D574152455F56455249
:101AC00053494F4E3A30322D312E322E3952433B4C
:101AD000204649524D574152455F55524C3A687421
:101AE0007470733A2F2F6769746875622E636F6D17
:101AF0002F42434E33442F42434E33445369676D64
:101B000061782D4669726D776172653B2050524F46
:101B1000544F434F4C5F56455253494F4E3A312E26
:101B2000303B204D414348494E455F545950453A5A
:101B300042434E3344205369676D61783B204558DA
:101B40005452554445525F434F554E543A323B2010
:101B5000555549443A00205A3A0020593A0020434A
:101B60006F756E7420583A200020453A00205A3A8A
:101B70000020593A00583A00486F74656E64206F2F
:101B80006666736574733A0053657474696E67733F
:101B90002053746F72656400204D696E75746573AF
:101BA000203A0020204C617374207072696E74209A
:101BB00074696D652D3E20486F757273203A004C34
:101BC000617374207072696E7420647572617469D7
:101BD0006F6E002C205468697264204944206E7531
:101BE0006D62657220002C205365636F6E6420491E
:101BF00044206E756D6265723A200020204669723D
:101C00007374204944206E756D6265723A200055E8
:101C10004920496E666F726D6174696F6E205365FD
:101C20007269616C204E756D6265723A00206D2C90
:101C3000204531207072696E742064697374616E1E
:101C400063653A2000206B6D2C204530207072694E
:101C50006E742064697374616E63653A2000206B52
:101C60006D2C2059207072696E74206469737461E0
:101C70006E63653A2000206B6D2C20583120707205
:101C8000696E742064697374616E63653A20002024
:101C9000432C0A205830207072696E742064697376
:101CA00074616E63653A200020432C206D617820BA
:101CB00074656D7020423A200020432C206D6178BD
:101CC0002074656D7020523A20002C206D617820C0
:101CD00074656D70204C3A2000682C207072696E1B
:101CE00074732066696E69736865643A20002C20FD
:101CF0007072696E74696E672074696D653A200050
:101D000020207072696E74733A200053544154530A
:101D10003A0020432C20525F5052494E543A200042
:101D200020432C20525F4245443A200020432C207F
:101D3000525F52454D4F56453A20002020525F4990
:101D40004E534552543A200054656D702028432963
:101D50003A0020432C204C5F5052494E543A200008
:101D600020432C204C5F4245443A200020432C2045
:101D70004C5F52454D4F56453A200020204C5F495C
:101D80004E534552543A200054656D702028432923
:101D90003A0020562856657273696F6E292000201C
:101DA00052284265642072696768742073637265A3
:101DB0007729200020204D353331204C284265649E
:101DC000206C656674207363726577292000426514
:101DD00064204F66667365747320286D6D293A0020
:101DE0002050285A2070726F62652900205A200006
:101DF0002059200020204D353330205820004F66D8
:101E0000667365747320286D6D293A0020440020A4
:101E10004900202D204D333031205249474854206D
:101E2000500020440020490020204D333031204C08
:101E30004546542050005049442073657474696EBF
:101E400067733A00205A0020590020204D32303666
:101E5000205800486F6D65206F6666736574202892
:101E60006D6D293A00204500205A0020580020427C
:101E70000020540020204D3230352053004164763C
:101E8000616E636564207661726961626C65733A44
:101E900020533D4D696E20666565647261746520EE
:101EA000286D6D2F73292C20543D4D696E2074725E
:101EB0006176656C20666565647261746520286D65
:101EC0006D2F73292C20423D6D696E696D756D20F3
:101ED0007365676D656E742074696D6520286D7318
:101EE000292C20583D6D6178696D756D20585920F9
:101EF0006A65726B20286D6D2F73292C20205A3D46
:101F00006D6178696D756D205A206A65726B202845
:101F10006D6D2F73292C2020453D6D6178696D759D
:101F20006D2045206A65726B20286D6D2F73290026
:101F300020540020204D323034205300416363652B
:101F40006C65726174696F6E3A20533D61636365BD
:101F50006C65726174696F6E2C20543D7265747289
:101F600061637420616363656C65726174696F6E2F
:101F700000204500205A0020590020204D323031E9
:101F80002058004D6178696D756D20416363656C03
:101F900065726174696F6E20286D6D2F7332293AF6
:101FA00000204500205A0020590020204D323033B7
:101FB0002058004D6178696D756D206665656472A5
:101FC0006174657320286D6D2F73293A00204500D8
:101FD000205A0020590020204D39322058005374D7
:101FE0006570732070657220756E69743A00534194
:101FF000564544205052494E54007A70726F6265C3
:102000003A200053442063617264206F6B006F704C
:10201000656E526F6F74206661696C656400766FDF
:102020006C756D652E696E6974206661696C656496
:10203000004572726F723A00534420696E697420D1
:102040006661696C006563686F3A004D3234004D1B
:102050003233202573006175746F25692E67000A7D
:102060000020616E7469686F726172690A3A2000BB
:1020700020686F726172690A20002F3800766F6CD9
:10208000746573200020566F6C74657320636172F1
:10209000676F6C20333A200020616E7469686F723C
:1020A0006172690A3A200020686F726172690A20C1
:1020B000002F3800766F6C746573200020566F6CAB
:1020C00074657320636172676F6C20323A20000A76
:1020D0000020647A333A200020647A323A20005497
:1020E000310054300054300054300000567569748B
:1020F000656E73333A2020004170726F78333A2056
:102100002000566F6C746573333A202000005675BA
:102110006974656E73323A2020004170726F7832B4
:102120003A202000566F6C746573323A20200056B6
:10213000616C6F7220645A333A20200056616C6FD4
:102140007220645A323A2020004E6577206F66660E
:102150007365742076657273696F6E3A20007A3306
:102160005F313A20007A325F313A20005A7363724D
:102170006F6C6C5F313A20007A335F303A20007A1E
:10218000325F303A20005A7363726F6C6C5F303A82
:102190002000706C616E654E6F726D616C5F312EE8
:1021A0007A3A2000706C616E654E6F726D616C5F83
:1021B000312E793A2000706C616E654E6F726D61E0
:1021C0006C5F312E783A2000706C616E654E6F72D4
:1021D0006D616C5F302E7A3A2000706C616E654ED6
:1021E0006F726D616C5F302E793A2000706C616E99
:1021F000654E6F726D616C5F302E783A20005A76B2
:10220000616C756520616674657220686F6D653AF2
:1022100000486F6D6520582F59206265666F7265A2
:10222000205A00504944204175746F74756E6520C2
:1022300066696E69736865642120507574207468DE
:1022400065206C617374204B702C204B6920616E8B
:1022500064204B6420636F6E7374616E74732066C8
:10226000726F6D2061626F766520696E746F2043B6
:102270006F6E66696775726174696F6E2E68005063
:102280004944204175746F74756E65206661696C90
:102290006564212074696D656F75740020403A0093
:1022A0006F6B20543A006F6B20423A005049442033
:1022B0004175746F74756E65206661696C65642123
:1022C0002054656D706572617475726520746F6FEE
:1022D000206869676800204B643A2000204B693A07
:1022E0002000204B703A200020436C6173736963B7
:1022F0002050494420002054753A2000204B753A64
:102300002000206D61783A2000206D696E3A20002F
:1023100020643A200020626961733A2000535441DE
:1023200054495354494353205245534554002C209B
:1023300073617665645F466C61675F66616E6C6150
:102340007965725F6D6972726F723A20002C20732A
:10235000617665645F66656564726174653A2000E4
:102360002C2073617665645F66616E6C617965725D
:102370003A20002C2073617665645F74656D70622D
:1023800065643A20002C2073617665645F74656D26
:1023900070303A20002C2073617665645F74656D3F
:1023A00070313A20002C2073617665645F66696C39
:1023B00065706F736974696F6E3A20002C207361C9
:1023C0007665645F655F706F736974696F6E3A20DC
:1023D000002C2073617665645F746F6F6C5F61635E
:1023E000746976653A20002C2073617665645F7AA3
:1023F0005F706F736974696F6E3A20002C2073618F
:102400007665645F795F706F736974696F6E3A2087
:10241000002C2073617665645F785F706F736974F8
:10242000696F6E3A200053415645205052494E5430
:10243000204C4F473A006563686F3A005072696EEE
:1024400074207265636F76657279207570004E6FC7
:1024500074207072696E74207265636F766572792C
:1024600020757000535543434553530056616C75B6
:102470006573206F7574206F662072616E676500EA
:1024800056616C756573206F7574206F662072617C
:102490006E67650056616C756573206F7574206F8B
:1024A000662072616E67650056616C756573206F9A
:1024B0007574206F662072616E67650053554343E3
:1024C0004553530056616C756573206F7574206FAA
:1024D000662072616E67650056616C756573206F6A
:1024E0007574206F662072616E67650056616C7549
:1024F0006573206F7574206F662072616E6765006A
:1025000056616C756573206F7574206F66207261FB
:102510006E67650020502000205A200020592000BE
:10252000536574204D353330205820005265736553
:102530006E643A20006F6B004475616C204D6F64CF
:1025400065204F4E004475616C204D6972726F7248
:10255000204D6F6465204F4E004475616C204D6FB7
:102560006465204F464600436F6F6C696E67204478
:102570006F776E20486561746572005072696E7481
:1025800065722068616C7465642E206B696C6C28C0
:10259000292063616C6C656421004572726F723A28
:1025A000000A0A005374616E6461726420446576A7
:1025B000696174696F6E3A20000A004D65616E3A78
:1025C00020000A002020207A3A200000793A2000DA
:1025D000783A20003F537065636966696564206ED0
:1025E000756D626572206F66206C65677320696E19
:1025F000206D6F76656D656E74206E6F7420706CE3
:1026000061757361626C652E0A003F537065636982
:1026100066696564205920706F736974696F6E20F4
:102620006F7574206F662072616E67652E0A003FB9
:10263000537065636966696564205820706F7369BB
:1026400074696F6E206F7574206F662072616E679B
:10265000652E0A003F53706563696669656420737F
:10266000616D706C652073697A65206E6F7420707F
:102670006C61757361626C652E0A0046756C6C2026
:10268000737570706F72742061743A20687474701E
:102690003A2F2F33647072696E74626F6172642EA8
:1026A000636F6D2F666F72756D2E7068700A004DC6
:1026B0003438205A2D50726F626520526570656102
:1026C000746162696C69747920746573742E20205A
:1026D0002056657273696F6E20322E30300A003FCB
:1026E000566572626F7365204C6576656C206E6FFF
:1026F0007420706C61757361626C652E0A00CDACDC
:102700000344008093430000524300000000000097
:102710000000000000000A00207A3A200020793AE8
:10272000200020783A2000426564004D3834005380
:1027300074617274696E6720582043616C696272BB
:102740006174696F6E2057697A617264002A2A2A5F
:102750002047656E696520446973636F6E6E6563BB
:102760007465642066726F6D204765744E65787479
:102770004279746521202A2A2A002A2A2A204765BC
:102780006E696520456E61626C6520417474616399
:10279000684576656E7448616E646C6572202121AF
:1027A00021202A2A2A0043616E6E6F7420656E74A0
:1027B0006572207375626469723A20005772697499
:1027C000696E6720746F2066696C653A20002E0080
:1027D0006F70656E206661696C65642C2046696C5B
:1027E000653A20002E006F70656E206661696C6529
:1027F000642C2046696C653A200046696C6520733C
:10280000656C6563746564002053697A653A2000DD
:1028100046696C65206F70656E65643A20002E0015
:102820006F70656E206661696C65642C2046696C0A
:10283000653A20004E6F772066726573682066697E
:102840006C653A20004E6F7720646F696E67206672
:10285000696C653A20002220706F7300222070613D
:1028600072656E743A2200535542524F5554494E88
:10287000452043414C4C207461726765743A2200D4
:10288000747279696E6720746F2063616C6C207359
:1028900075622D67636F64652066696C6573207768
:1028A00069746820746F6F206D616E79206C657635
:1028B000656C732E204D4158206C6576656C2069DF
:1028C000733A002A2A2A2047656E696520426164AE
:1028D0002042797465202A2A2A202D2D2D3E203071
:1028E00078002056616C75653A200020496E646559
:1028F000783A20002A2A2A2047656E6965205265A9
:10290000706F7274204F626A656374202A2A2A20CD
:102910004F626A6563743A20002A2A2A2047656E4E
:10292000696520436F6E6E6563746564202F205364
:10293000796E6321202A2A2A002056616C75653A37
:10294000200020496E6465783A20002A2A2A204710
:10295000656E6965205265706F7274204576656E8C
:1029600074202A2A2A204F626A6563743A20002064
:102970004C656E6774683A20002A2A2A2047656EE3
:102980006965205265636569766564204D61676994
:102990006320446F75626C65204279746573202AE8
:1029A0002A2A20496E6465783A2000204C656E67BB
:1029B00074683A20002A2A2A2047656E69652052E9
:1029C00065636569766564204D6167696320427956
:1029D000746573202A2A2A20496E6465783A20009B
:1029E0002A2A2A2047656E6965204E414B20526590
:1029F000636F7665727920212121202A2A2A002AF4
:102A00002A2A2047656E696520446973636F6E6E7C
:102A100065637465642066726F6D20446F457665EA
:102A20006E747321202A2A2A002A2A2A2047656EDA
:102A3000696520546F6F6B20746F6F206C6F6E67C9
:102A400020746F2072652D656E74657220446F4529
:102A500076656E747328292C207265647563652011
:102A600064656C61797320696E20636F64652C20E6
:102A700073656C662D70726F74656374696F6E2018
:102A8000656E61626C65642E202A2A2A004D6F648F
:102A9000652032203A206379636C652020202D3E2A
:102AA000205247423A203620737461746573002ABD
:102AB0002A2D3E20004D6F64652031203A2072613E
:102AC0006E646F6D20202D3E205247423A202B31FC
:102AD000202B32202B332C20647572696E67207096
:102AE00072696E74696E67002A2A2D3E20004D6F50
:102AF00064652030203A2064656661756C74202D11
:102B00003E205247423A2032353520323535203288
:102B10003535002A2A2D3E20004C6564206D6F64F7
:102B20006573203A004D353336204C5B6D6F64651C
:102B30005D00486F74656E64206F666673657473BC
:102B40003A0054696D6520696E6163746976650049
:102B500050757267652064697374616E6365005AAD
:102B6000204F6666736574206F6B005A204F66664F
:102B7000736574203A20007A5F6D61783A20007A9C
:102B80005F6D696E3A20005A204F66667365740067
:102B9000504F534954494F4E20484F4D453A20001D
:102BA00053746F7265642073657474696E67732003
:102BB0007265747269657665640048617264636FFA
:102BC0006465642044656661756C74205365747433
:102BD000696E6773204C6F6164656400486172645C
:102BE000636F6465642043616C696220616E642078
:102BF0005049442044656661756C74205365747453
:102C0000696E6773204C6F61646564004D313037C5
:102C100000473932204530205A3020522564004E7A
:102C20006577206C6179657220646574656374658D
:102C300064005A20686F7070696E672064657465FF
:102C40006374656400256920686F75727320256957
:102C5000206D696E7574657300446F6E65207072C7
:102C6000696E74696E672066696C65004D33330068
:102C70007061757365206465746563746564200AAA
:102C800000473639005072696E7465722073746F34
:102C9000707065642064756520746F206572726F52
:102CA00072732E2046697820746865206572726F91
:102CB0007220616E6420757365204D393939207436
:102CC0006F20726573746172742E202854656D7064
:102CD00065726174757265206973207265736574BD
:102CE0002E205365742069742061667465722072A9
:102CF000657374617274696E6729006F6B004E6F43
:102D0000204C696E65204E756D626572207769741E
:102D10006820636865636B73756D2C204C617374F8
:102D2000204C696E653A20004E6F20436865636BE6
:102D300073756D2077697468206C696E65206E7597
:102D40006D6265722C204C617374204C696E653A1B
:102D50002000636865636B73756D206D69736D61C9
:102D60007463682C204C617374204C696E653A2042
:102D7000004C696E65204E756D6265722069732026
:102D80006E6F74204C617374204C696E65204E75B3
:102D90006D6265722B312C204C617374204C696E0E
:102DA000653A20004D313130004D383400537461A4
:102DB0007274696E6720592043616C696272617434
:102DC000696F6E2057697A61726400436172642092
:102DD0004E616D653A200000BE01BA0111241FBE8C
:102DE000CFEFD1E2DEBFCDBF00E00CBF17E0A0E027
:102DF000B2E0E8EBFCE503E00BBF02C007900D92E8
:102E0000A23EB107D9F72DE1A2EEB7E001C01D92B5
:102E1000A632B207E1F716E1CDEED6E100E006C03A
:102E200021970109802FFE010F94BFABCC3ED10743
:102E300080E00807A9F70F945A860D944BAE0C94C6
:102E400000002F923F924F925F926F927F928F92EB
:102E50009F92AF92BF92CF92DF92EF92FF920F9329
:102E60001F93CF93DF93CDB7DEB7C353D1400FB6D7
:102E7000F894DEBF0FBECDBF2DB73EB7CE5CDE4FA0
:102E800039832883C253D14011E010938C0880917C
:102E9000180881110CC00E94708C60931408709304
:102EA00015088093160890931708109318088091BE
:102EB0000C0881110DC00E94708C609308087093FB
:102EC000090880930A0890930B0881E080930C080E
:102ED0008091EB184091AA025091AB026091AC0234
:102EE0007091AD02811106C09091EC18992311F4F4
:102EF0000C94ED244E3851056105710509F45FC647
:102F00000CF0D5C04D3351056105710509F4D2C1EE
:102F10000CF05AC0403251056105710511F40C9452
:102F2000E62234F5403151056105710509F473C19C
:102F300074F4413051056105710509F4A6C14230B0
:102F400051056105710509F42FC30C94C057423136
:102F500051056105710509F442C214F40C9445222F
:102F6000433151056105710509F40BC20C94C0573A
:102F7000423351056105710509F416C37CF44132F1
:102F800051056105710511F40C94D52241335105A9
:102F90006105710509F4D7C10C94C057453351053B
:102FA0006105710511F40C949E234A3351056105A6
:102FB000710509F4FBC7443351056105710511F032
:102FC0000C94C0570C949521483551056105710545
:102FD00009F49AC154F5463451056105710509F4A7
:102FE00088C47CF4413451056105710509F40EC4AF
:102FF000443451056105710511F40C944E200C9474
:10300000C0574F3451056105710509F45CC547355A
:1030100051056105710509F4C4C14E3451056105BE
:10302000710511F00C94C057D7C44B375105610599
:10303000710509F4DFC274F44A3551056105710563
:1030400009F4D8C2463751056105710509F4D6C1A6
:103050000C94C057483851056105710509F4E5C065
:10306000493851056105710509F4EAC04C3751052D
:103070006105710511F00C94C05740E050E06AE220
:103080008AE00E949B9640E050E06DE781E20E945A
:103090009B9611E01093EF1C1092CF0860E378E04C
:1030A00086E20E94A49710932F080C94C0574D39C4
:1030B00051056105710511F40C943D230CF04FC0CE
:1030C000453951056105710509F4E0C6F4F441394B
:1030D00051056105710509F46AC574F44F3851054D
:1030E0006105710509F4C4C54039510561057105D3
:1030F00009F419C60C94C05743395105610571058F
:1031000009F4E3C50CF487C53AC648395105610591
:10311000710511F40C9473237CF446395105610553
:10312000710509F486C6473951056105710511F429
:103130000C9484230C94C0574B39510561057105DB
:1031400011F40C94FD2214F00C9406234A39510515
:103150006105710511F40C94F4220C94C057463AA1
:1031600051056105710509F406C21CF5423A510585
:103170006105710509F454C07CF4403A51056105BC
:10318000710511F40C949523413A510561057105BF
:1031900009F422C60C94C057443A510561057105E3
:1031A00009F4FDC10CF0F1C181E08093490B0C944E
:1031B000C057493A51056105710509F4EBC194F412
:1031C000473A51056105710509F4DAC1483A5105DC
:1031D0006105710511F00C94C05781E08093430B99
:1031E0000C94C0574E3B51056105710509F49EC012
:1031F000433D51056105710511F40C94AF244A3A21
:1032000051056105710511F00C94C05781E0809360
:10321000420B0C94C05781E080934C0B0C94C05728
:1032200081E080934B0B0C94C05781E080934C0B52
:1032300041E050E069E881E20E949B960C94C057FF
:1032400080910E02833411F00C94C05782E4809375
:103250000E0240E050E067E581E20E949B9640E06C
:1032600050E066E781E20E949B9640E050E068E80B
:1032700081E20E949B9640E050E069E881E20E9472
:103280009B961092CF080C94C0571092EF1C80E0D0
:103290000F94FC0581E080933F0B8093DD0840E0B4
:1032A00050E068E08AE00E949B9681E48093DE080B
:1032B0000C94C05780910E0240E050E0813491F4AC
:1032C00069E08AE00E949B9611E01093EF1C60E396
:1032D00078E082E00E94A49710932F081092CF0804
:1032E0000C94C0576AE28AE00E949B9611E010930A
:1032F000EF1C60E378E086E20E94A49710932F0809
:103300001092CF080C94C0578091CC1181110C946D
:10331000C0578091EC1881110C94C05740E050E0E8
:1033200069E38AE00E949B960C94C0578091CC116F
:1033300081110C94C05740E050E061E08AE00E94A7
:103340009B960C94C0578091CC1181110C94C0575E
:1033500000910E02013411F00C94C0571092EF1C32
:103360001092EB1811E01093EC1840E050E068E088
:103370008AE00E949B960093DE081093FC1C0C943C
:10338000C05780910E02813411F00C94C05740E078
:1033900050E061E08AE00E949B961092EF1C0C9432
:1033A000C05780910E02823491F3833411F00C9453
:1033B000C05740E050E066E18AE00E949B9641E001
:1033C00050E06DE781E20E949B9682E580931102B6
:1033D00081E08093CF081092EF1C0C94C057882393
:1033E00011F40C94C05780910E02813411F00C94AA
:1033F000C05781E08093410B0C94C0578091EC182A
:10340000882311F40C94C05780910E02823429F461
:1034100081E08093400B0C94C057833411F00C94DE
:10342000C05711E01093830840E050E068E981E262
:103430000E949B9640E050E067E981E20E949B96E3
:1034400040E050E06CE981E20E949B9640E050E051
:103450006DE981E20E949B9641E050E067E881E2DD
:103460000E949B9640E050E06CE28AE00E949B96AE
:103470001093CF088FEF9FEF909393028093920267
:10348000EFE4F7E084918F01882351F0082E000CBF
:10349000990B0F9475030F5F1F4FF8018491F4CFC0
:1034A00040E050E06AE981E20E949B9640E050E0F3
:1034B0006BE981E20E949B961F9210EBF12EFF9226
:1034C0006091EB0A7091EC0A8091ED0A9091EE0AFE
:1034D0000F94F4A87F936F9387E497E09F938F9363
:1034E0008E010F5F1F4F1F930F930F947EA0B801A3
:1034F0008AE00E94A497C8010E94109C1F92FF922C
:103500006091EF0A7091F00A8091F10A9091F20AAD
:103510000F94F4A87F936F938FE397E09F938F931B
:103520001F930F930F947EA0B80181E10E94A4978E
:10353000C8010E94109C1F92FF921F921F9287E366
:1035400097E09F938F931F930F930F947EA0B801E2
:1035500085E00E94A497C8010E94109C1092EF1C65
:103560002DB73EB7285E3F4F0FB6F8943EBF0FBE53
:103570002DBF0C94C05781E08093460B0C94C0572C
:1035800081E08093450B0C94C05781E08093480BF9
:103590000C94C05781E08093440B0C94C05781E099
:1035A0008093470B0C94C05742305105610571055B
:1035B00011F489E406C0423351056105710519F41F
:1035C00082E58093110240E050E06CE481E20E94C9
:1035D0009B9640E050E06BE481E20E949B9640E0C5
:1035E00050E064E18AE00E949B968FEF8093000C8C
:1035F0000C94C0574A3551056105710519F41092B4
:10360000000C03C081E08093000C8091000C082F17
:1036100010E0000F111FF801E65FFD4E208131819F
:10362000309307082093060881111EC080919B1CCF
:1036300090919C1C6091EC077091ED0768177907D9
:103640002CF4BC01990F880B990B04C0072E000CB9
:10365000880B990B0F94D4A0065F1D4E0F94F4A80D
:10366000D8016D937C931DC080919F1C9091A01CEC
:103670006091EA077091EB07681779072CF4BC0199
:10368000990F880B990B04C0072E000C880B990B1F
:103690000F94D4A0065F1D4E0F94F4A8F801718317
:1036A000608381E48093DE0840E050E068E08AE0D7
:1036B0000E949B9640E050E06DE781E20E949B965D
:1036C00080E090E0A3E4B3E480932D1290932E1257
:1036D000A0932F12B09330128090EC0B9090ED0BD2
:1036E000A090EE0BB090EF0B2091291230912A128E
:1036F00040912B1250912C1260912512709126123C
:103700008091271290912812E8E16E2EE2E17E2E40
:103710007F926F92F1E3CF2EF2E1DF2EE12CF12CBC
:1037200003E413E40E9497B40E9475DB80E090E00C
:10373000A0E2B1E48093291290932A12A0932B1255
:10374000B0932C128090E80B9090E90BA090EA0BBC
:10375000B090EB0BE0902D12F0902E1200912F12F2
:1037600010913012609125127091261280912712CB
:10377000909128127F926F9220E030E040E251E475
:103780000E9497B40E9475DB0F900F900F900F90DE
:103790008091DE088E3411F40C943C2C1092DE08DB
:1037A0000E94427862E374E08DE20E94A49740E0B8
:1037B00050E068E28AE00E949B960091000C10E0C5
:1037C000F801EE0FFF1FEE0FFF1FE551F54F60816F
:1037D0007181828193810F94F4A870938108609322
:1037E0008008000F111FF801E65FFD4E8081918176
:1037F00090937F0880937E0888E48093DE080E947F
:10380000427881E0809382080C94C0578091000C2C
:103810008130B1F540E050E068E08AE00E949B967C
:1038200087ED90E090932D0980932C099093A21C32
:103830008093A11C8AEA90E09093A01C80939F1C27
:1038400081E490E090932909809328090E94BFFEAB
:103850008091A11C9091A21C90930D1280930C1248
:103860000E9404EC40E050E06EE781E20E949B96EB
:1038700040E050E06DE481E20E949B960C94C057BA
:1038800081110C94C05740E050E068E08AE00E944B
:103890009B9687ED90E090932F0980932E0990934B
:1038A0009E1C80939D1C8AEA90E090939C1C8093C0
:1038B0009B1C81E490E090932B0980932A090E943D
:1038C000BFFE80919D1C90919E1C90930B12809343
:1038D0000A120E9404EC40E050E06EE781E20E9490
:1038E0009B9640E050E06DE481E20E949B960C9430
:1038F000C0578091000C8130B1F540E050E068E0A5
:103900008AE00E949B9684E091E090932D09809339
:103910002C099093A21C8093A11C86EE90E09093BA
:10392000A01C80939F1C8AE590E0909329098093C6
:1039300028090E94BFFE8091A11C9091A21C909327
:103940000D1280930C120E9404EC40E050E06EE7F0
:1039500081E20E949B9640E050E06DE481E20E948B
:103960009B960C94C05781110C94C05740E050E0D6
:1039700068E08AE00E949B9684E091E090932F0992
:1039800080932E0990939E1C80939D1C86EE90E060
:1039900090939C1C80939B1C8AE590E090932B094C
:1039A00080932A090E94BFFE80919D1C90919E1CCD
:1039B00090930B1280930A120E9404EC40E050E0B6
:1039C0006EE781E20E949B9640E050E06DE481E268
:1039D0000E949B960C94C0578091000C8130C1F5D9
:1039E00040E050E068E08AE00E949B968CED90E019
:1039F00090932D0980932C0986EE90E09093A21C61
:103A00008093A11C80EA90E09093A01C80939F1C5F
:103A10008CE390E090932909809328090E94BFFECF
:103A20008091A11C9091A21C90930D1280930C1276
:103A30000E9404EC40E050E06EE781E20E949B9619
:103A400040E050E06DE481E20E949B960C94C057E8
:103A500081110C94C05740E050E068E08AE00E9479
:103A60009B968CED90E090932F0980932E0986EE23
:103A700090E090939E1C80939D1C80EA90E0909330
:103A80009C1C80939B1C8CE390E090932B0980936B
:103A90002A090E94BFFE80919D1C90919E1C9093CC
:103AA0000B1280930A120E9404EC40E050E06EE793
:103AB00081E20E949B9640E050E06DE481E20E942A
:103AC0009B960C94C0578091000C823010F00C949F
:103AD000C05740E050E064E38AE00E949B961F924A
:103AE00050EBF52EFF9280910D028F9380910C0286
:103AF0008F9305E314E01F930F936E01FCEDCF1A33
:103B0000FEEFDF0ADF92CF920F941BAEB6018DE07D
:103B10000E94A4971F92FF9280910B028F93809135
:103B20000A028F931F930F936E0126EEC21A2EEF97
:103B3000D20ADF92CF920F941BAEB6018EE00E94A4
:103B4000A4971F92FF92809109028F93809108029F
:103B50008F931F930F936E0131E0C30ED31EDF923C
:103B6000CF920F941BAEB6018FE00E94A4971F92D4
:103B7000FF92809107028F93809106028F931F938B
:103B80000F938E010F5F1F4F1F930F930F941BAE68
:103B90004DB75EB7405E5F4F0FB6F8945EBF0FBE85
:103BA0004DBFB80182E10E94A4970C94C05740E039
:103BB00050E064E18AE00E949B960C94C05780918B
:103BC0000C0290910D021816190614F00C94C057AF
:103BD0000A9790930D0280930C021F9220EB2F9373
:103BE0009F938F938CE394E09F938F938E010F5F4D
:103BF0001F4F1F930F930F941BAEB8018DE00E94CF
:103C0000A4978DB79EB708960FB6F8949EBF0FBEC7
:103C10008DBF0C94C05780910C0290910D02863399
:103C2000A1E09A0714F00C94C0570A9690930D02E5
:103C300080930C021F9220EB2F939F938F938CE322
:103C400094E09F938F938E010F5F1F4F1F930F93ED
:103C50000F941BAEB8018DE00E94A497EDB7FEB79C
:103C600038960FB6F894FEBF0FBEEDBF0C94C05748
:103C700080910A0290910B021816190614F00C9408
:103C8000C0570A9790930B0280930A021F9220EB71
:103C90002F939F938F938CE394E09F938F938E0148
:103CA0000F5F1F4F1F930F930F941BAEB8018EE051
:103CB0000E94A4972DB73EB7285F3F4F0FB6F894E8
:103CC0003EBF0FBE2DBF0C94C05780910A02909149
:103CD0000B02863331E0930714F00C94C0570A9618
:103CE00090930B0280930A021F9220EB2F939F93D5
:103CF0008F938CE394E09F938F938E010F5F1F4F00
:103D00001F930F930F941BAEB8018EE00E94A497EF
:103D10004DB75EB7485F5F4F0FB6F8945EBF0FBEFA
:103D20004DBF0C94C057809108029091090218165B
:103D3000190614F00C94C0570A97909309028093C7
:103D400008021F9220EB2F939F938F938CE394E0B4
:103D50009F938F938E010F5F1F4F1F930F930F94AD
:103D60001BAEB8018FE00E94A4978DB79EB708964E
:103D70000FB6F8949EBF0FBE8DBF0C94C0578091B4
:103D80000802909109028633A1E09A0714F00C947E
:103D9000C0570A9690930902809308021F9220EB65
:103DA0002F939F938F938CE394E09F938F938E0137
:103DB0000F5F1F4F1F930F930F941BAEB8018FE03F
:103DC0000E94A497EDB7FEB738960FB6F894FEBFE1
:103DD0000FBEEDBF0C94C057809106029091070270
:103DE0001816190614F00C94C0570A9790930702FE
:103DF000809306021F9220EB2F939F938F938CE367
:103E000094E09F938F938E010F5F1F4F1F930F932B
:103E10000F941BAEB80182E10E94A4972DB73EB764
:103E2000285F3F4F0FB6F8943EBF0FBE2DBF0C94D6
:103E3000C05780910602909107028936910514F0CF
:103E40000C94C0570A9690930702809306021F9223
:103E500020EB2F939F938F938CE394E09F938F930A
:103E60008E010F5F1F4F1F930F930F941BAEB8016E
:103E700082E10E94A4974DB75EB7485F5F4F0FB6CF
:103E8000F8945EBF0FBE4DBF0C94C05740E050E0A9
:103E900068E08AE00E949B96E091000C40910C0241
:103EA00050910D0220910A0230910B02609108029C
:103EB000709109028091060290910702E11130C0D1
:103EC0006C33A1E07A0714F06BE371E070932F0973
:103ED00060932E094C33B1E05B0714F04BE351E0E3
:103EE00050939E1C40939D1C2C33E1E03E0714F040
:103EF0002BE331E030939C1C20939B1C8F36910563
:103F000014F08EE690E090932B0980932A0980911B
:103F10009D1C90919E1C90930B1280930A1234C0AA
:103F20006C33F1E07F0714F06BE371E070932D09BF
:103F300060932C094C3361E056072CF45093A21C7B
:103F40004093A11C06C04BE351E050932D094093D0
:103F50002C092C33A1E03A0714F02BE331E0309325
:103F6000A01C20939F1C8F36910514F08EE690E0E4
:103F700090932909809328098091A11C9091A21CFB
:103F800090930D1280930C120E94BFFE0E9404ECCD
:103F900040E050E06EE781E20E949B9640E050E0F6
:103FA0006DE481E20E949B960C94C05762E374E03A
:103FB0008DE20E94A49740E050E068E28AE00E940F
:103FC0009B9688E48093DE080E9442788091000CE2
:103FD000082F10E081111DC080919D1C90919E1CA6
:103FE0006091E8077091E907681779072CF4BC0124
:103FF000990F880B990B04C0072E000C880B990BA6
:104000000F94D4A00F94F4A870930B1260930A122B
:1040100022C08091A11C9091A21C6091E607709132
:10402000E707681779072CF4BC01990F880B990BE7
:1040300004C0072E000C880B990B0F94D4A0980194
:10404000220F331FF901E65FFD4E7F010F94F4A8A4
:10405000D7016D937C93F801EE0FFF1FEE0FFF1F4A
:10406000E551F54F60817181828193810F94F4A8AD
:104070007093810860938008F801EE0FFF1FE65FE0
:10408000FD4E8081918190937F0880937E080E94ED
:10409000427881E0809382080C94C057809111028D
:1040A000893411F00C94C05740E050E068E08AE099
:1040B0000E949B9681E48093DE08E0902D12F090A0
:1040C0002E1200912F12109130122091291230914E
:1040D0002A1240912B1250912C12E091000CB4E066
:1040E000EB9FF0011124E752FD4F608171818281C5
:1040F00093810E945798E0902D12F0902E1200911B
:104100002F12109130122091291230912A124091D1
:104110002B1250912C1260912512709126128091D1
:10412000271290912812E0E0FCE0FF93EF93812C9E
:10413000A0E89A2EABE3AA2EA6E4BA2EB1E3CB2ECA
:10414000B2E1DB2E0E9497B40E9475DBEDE2F7E04E
:1041500084910F900F908F01882351F0082E000C4E
:10416000990B0F9475030F5F1F4FF8018491F4CFE3
:1041700020E030E040EF51E4609131127091321252
:1041800080913312909134120F945AA76093311298
:10419000709332128093331290933412E0902D1268
:1041A000F0902E1200912F121091301220912912AE
:1041B00030912A1240912B1250912C1260912512AD
:1041C000709126128091271290912812B0E06B2EE8
:1041D000BCE07B2E7F926F92812C912CE0E3AE2E7F
:1041E000E1E4BE2EF1E3CF2EF2E1DF2E0E9497B480
:1041F0000E9475DB0F900F908091DE088E3411F4D1
:104200000C943C2C20E030E446E754E460913112F9
:104210007091321280913312909134120F945AA7F8
:10422000AB01BC01409331125093321260933312B0
:104230007093341281E696E10F94C205E0902D123E
:10424000F0902E1200912F1210913012209129120D
:1042500030912A1240912B1250912C12609125120C
:104260007091261280912712909128127F926F925E
:10427000812C912CA0E7AA2EA2E4BA2E0E9497B41A
:104280000E9475DB0F900F908091DE088E3411F440
:104290000C943C2C20E030E048E452E46091311270
:1042A0007091321280913312909134120F945AA768
:1042B00060933112709332128093331290933412C0
:1042C000E0902D12F0902E1200912F1210913012CA
:1042D0002091291230912A1240912B1250912C12C8
:1042E00060912512709126128091271290912812C8
:1042F0007F926F92812C912CA12CF0E4BF2E0E9412
:1043000097B40E9475DB0F900F908091DE088E3479
:1043100011F40C943C2C1092DE0840E050E06EE06A
:104320008AE00E949B960C94C057809111028235BE
:1043300011F00C94C05740E050E068E08AE00E9421
:104340009B9681E48093DE0866E272E080E090E074
:104350000E94388C20E030E046E954E4609131124C
:104360007091321280913312909134120F9459A7A8
:1043700060933112709332128093331290933412FF
:10438000E0902D12F0902E1200912F121091301209
:104390002091291230912A1240912B1250912C1207
:1043A0006091251270912612809127129091281207
:1043B000E0E0FCE0FF93EF93812C912CB0E7AB2E73
:1043C000B2E4BB2EE1E3CE2EE2E1DE2E0E9497B4F2
:1043D0000E9475DB0F900F908091DE088E3411F4EF
:1043E0000C943C2C86E090E09093050280930402AC
:1043F0001092DE0812E410935C1C0E94427840E0A8
:1044000050E065E18AE00E949B9640E050E06BE05E
:1044100084E10E949B961093DE088091000C81112C
:104420001AC080919D1C90919E1C9093E9078093E7
:10443000E80780919B1C90919C1C9093ED078093C2
:10444000EC0780912E0990912F099093E5078093B6
:10445000E4070C94C0578091A11C9091A21C9093EA
:10446000E7078093E60780919F1C9091A01C909392
:10447000EB078093EA0780912C0990912D09909386
:10448000E3078093E2070C94C0578091790881116B
:104490000C94C05740E050E065E18AE00E949B9692
:1044A00040E050E06BE084E10E949B9682E48093C0
:1044B000DE0880935C1CE091000C24E0E29FF00198
:1044C0001124E752FD4F6081718182819381609355
:1044D0002512709326128093271290932812E09051
:1044E0002D12F0902E1200912F1210913012209167
:1044F000291230912A1240912B1250912C12E0E097
:10450000FCE0FF93EF93812CE0E89E2EEBE3AE2ED0
:10451000E6E4BE2EF1E3CF2EF2E1DF2E0E9497B447
:10452000E0902D12F0902E1200912F121091301267
:104530002091291230912A1240912B1250912C1265
:10454000E091181264E0E69FF0011124E752FD4F5C
:1045500060817181828193810E945798E091181245
:1045600084E0E89FF0011124E752FD4F80819181A2
:10457000A281B3818093251290932612A0932712D3
:10458000B0932812E091000CF0E0EE0FFF1FE65F01
:10459000FD4E8091060890910708918380830E94C8
:1045A00075DB0F900F900C94C057809179088111A2
:1045B0000C94C057909127098091260998130C9468
:1045C000DE5781E0809385080C94C057809179086C
:1045D00081110C94C0579091270980912609981356
:1045E0000C94DE570C94E15790912709809126098D
:1045F00098130C94C0570C94E5579091270980911B
:10460000260998130C94C0570C94B558E091920267
:10461000F0919302EF3F5FEFF50711F40C94C05750
:10462000EE0FFF1FE65FFD4E808191818B3361E0CD
:10463000960714F00C94C0570596918380831F92BF
:1046400020EB2F939F938F938DEE96E09F938F9304
:104650008E010F5F1F4F1F930F930F947EA0B80121
:1046600085E00E94A4978DB79EB708960FB6F89480
:104670009EBF0FBE8DBF0C94C057E0919202F09187
:104680009302EF3F9FEFF90711F40C94C057EE0F20
:10469000FF1FE65FFD4E808191811816190614F008
:1046A0000C94C0570597918380831F9220EB2F9322
:1046B0009F938F9385EE96E09F938F938E010F5F6C
:1046C0001F4F1F930F930F947EA0B80185E00E94A7
:1046D000A497ADB7BEB718960FB6F894BEBF0FBE7D
:1046E000ADBF0C94C05780919202909193020196B5
:1046F00011F40C94C05790912709809126099813C2
:104700000C94DE570C948A598091920290919302F6
:10471000019611F40C94C0579091270980912609B5
:1047200098130C94DE570C948E5990912709809120
:10473000260998130C94C0570C94925980915C1CD4
:10474000823411F00C94C057ECEDF6E084918F01A7
:10475000882351F0082E000C990B0F9475030F5FFE
:104760001F4FF8018491F4CF1092DE08109279085F
:1047700080911102823509F047C089E480931102CB
:104780008091000C813049F441E050E06CE481E21A
:104790000E949B9640E050E008C040E050E06CE48E
:1047A00081E20E949B9641E050E06BE481E20E942E
:1047B0009B9641E050E06EE781E20E949B9641E0CB
:1047C00050E06DE481E20E949B9641E050E061E49C
:1047D00081E20E949B9641E050E066E481E20E9403
:1047E0009B9641E050E06EE481E20E949B9641E09E
:1047F00050E06FE481E20E949B9640E050E064E16B
:104800008AE00E949B96A7C0893409F0A4C081E485
:104810008093DE0840E050E068E08AE00E949B96CA
:1048200040904D0850904E0860904F08709050088E
:104830004092291250922A1260922B1270922C12DE
:1048400020E030E040E752E460917C0270917D020C
:1048500080917E0290917F020F9448A84B015C01E9
:10486000E0902D12F0902E1200912F121091301224
:104870006091251270912612809127129091281232
:1048800028E132E13F932F93E1E3CE2EE2E1DE2EE9
:10489000A30192010E9497B40E9475DB0F900F90C4
:1048A0008091DE088E3409F4E7C720E030E040E272
:1048B00051E4609151087091520880915308909191
:1048C00054080F945AA77B018C0160932D127093AA
:1048D0002E1280932F129093301280914808898372
:1048E0008090800290908102A0908202B09083021A
:1048F0002091291230912A1240912B1250912C12A2
:1049000060912512709126128091271290912812A1
:10491000FE013196FF93EF930E9497B40E9475DBDE
:104920000F900F908091DE088E3409F4A5C7109285
:10493000DE0840E050E06AE28AE00E949B9611E0C7
:104940001093EF1C1092CF0860E378E086E20E949B
:10495000A49710932F0810925C1C0C94C057809160
:104960004A0B1092DE088823B9F010924A0B81E0BE
:1049700080934B0B80910E0240E050E0813431F483
:1049800069E08AE00E949B960C94C0576AE28AE034
:104990000E949B960C94C0571092F01C1092CF0866
:1049A000E1EDF6E084918F01882351F0082E000C90
:1049B000990B0F9475030F5F1F4FF8018491F4CF8B
:1049C00010928B0881E00E948DE540E050E065E0A8
:1049D0008AE00E949B960C94C057909120089923DE
:1049E00009F428C280912408823008F423C2473495
:1049F00051056105710509F4A3C09CF54B325105C1
:104A00006105710509F462C09CF4473151056105E7
:104A1000710509F467C0483151056105710511F050
:104A20000C94C05782E090E00E94A4EB0C94C05715
:104A3000403351056105710509F44EC045335105F8
:104A40006105710509F4BCC14F325105610571055D
:104A500011F00C94C0578FEF9FEF0E94A4EB0C94C1
:104A6000C057403851056105710509F441C004F58E
:104A70004E3551056105710509F470C14F35510579
:104A80006105710511F00C94C05714E410935C1C7F
:104A900040E050E06BE084E10E949B9640E050E0F3
:104AA00065E18AE00E949B961093DE080C94C05743
:104AB0004238510561057105B9F144F14B3A510590
:104AC0006105710509F4C8C00C94C0578EEF9FEFC3
:104AD0000E94A4EB0C94C05780E090E00E94A4EBED
:104AE0000C94C05781E090E00E94A4EB0C94C05756
:104AF0008DEF9FEF90935E1C80935D1C40E050E033
:104B00006AE08AE00E949B960C94C05783E090E094
:104B100090935E1C80935D1C40E050E06AE08AE068
:104B20000E949B960C94C05710925E1C10925D1CC4
:104B300040E050E06AE08AE00E949B960C94C057E7
:104B400040E050E068E08AE00E949B9681E4809318
:104B5000DE0841E061E081E00E94F0C61092DE08CC
:104B60000E9475DB0E9431E810915D1C8091240841
:104B7000823011F540E050E061E18AE00E949B96AE
:104B800080E58093DE0800912108010F0093210841
:104B9000002E000C110B20E030E0A901CA01B90180
:104BA0000F94C03240E050E069E18AE00E949B9699
:104BB0001092DE080C94C057833029F540E050E095
:104BC00061E18AE00E949B9680E58093DE08009177
:104BD0002208010F00932208002E000C110B20E088
:104BE00030E04CE553EC60E070E088E393EC0F9428
:104BF000C03240E050E069E18AE00E949B9610924A
:104C0000DE080C94C057843011F00C94C05740E07B
:104C100050E061E18AE00E949B9680E58093DE0887
:104C200000912308010F00932308002E000C110BA4
:104C300020E030E04CE553EC60E070E080E493E489
:104C40000F94C03240E050E069E18AE00E949B96F8
:104C50001092DE080C94C0571092DE088091210853
:104C600040912208042F081B40912308142F181B81
:104C7000602F002E000C770B880B990B0F94D4A09B
:104C80002DEC3CEC4CEC5DEB0F94C49B609329083D
:104C900070932A0880932B0890932C08612F012E83
:104CA000000C770B880B990B0F94D4A02DEC3CECE7
:104CB0004CEC5DEB0F94C49B609325087093260821
:104CC00080932708909328080023A1F040E050E04B
:104CD0006FE18AE00E949B9607FF07C0202F3327D1
:104CE00021950CF4309508E0020F402F000F550B72
:104CF00064E015C01123B9F040E050E060E28AE0C2
:104D00000E949B9617FF07C0812F992781950CF46D
:104D1000909518E0180F412F110F550B65E08BE1AE
:104D20000E949B9611C014E410935C1C40E050E07C
:104D30006BE084E10E949B9640E050E065E18AE0F0
:104D40000E949B961093DE0881E890E09093A41C4B
:104D50008093A31C0E94BFFE0C94C057409123086F
:104D600080912108142F181BC1F040E050E060E250
:104D70008AE00E949B9617FF07C0A12FBB27A19531
:104D80000CF4B09518E01A0F412F110F550B65E088
:104D90008BE10E949B960C94C05714E410935C1C0A
:104DA00040E050E06BE084E10E949B9640E050E0E0
:104DB00065E18AE00E949B961093DE080C94C05730
:104DC00080915C1C843411F00C94C057109224081C
:104DD000109220081092DE08109205121092041210
:104DE00010920B1210920A1210920D1210920C12C5
:104DF0001092F01C1092CF08E6ECF6E084918F013F
:104E0000882351F0082E000C990B0F9475030F5F47
:104E10001F4FF8018491F4CF10928B080E948DE50A
:104E200040E050E065E08AE00E949B9610925C1C96
:104E30000C94C057403E510510F00C94C057FA0135
:104E40008827EE58FF4F8F4F0D94BFAB81E08093C2
:104E500074080C94C05781E0809373080C94C05779
:104E600081E0809372080C94C05781E080937108B0
:104E70000C94C05781E0809370080C94C0570F9435
:104E80003109009751F481E0809375088091F71102
:104E900081508093F7110C94C057019711F00C9436
:104EA000C05781E08093750840E050E067E381E2FD
:104EB0000E949B9640E050E061E08BE10E949B964F
:104EC0008091F71181508093F7110C94C057109284
:104ED000F01C1092CF08EBEBF6E084918F01882351
:104EE00051F0082E000C990B0F9475030F5F1F4FA4
:104EF000F8018491F4CF10928B0881E00E948DE537
:104F000040E050E065E08AE00E949B960C94C05718
:104F10008091ED18882311F40C94C05741E061E0B2
:104F20008EEE98E10F94A65A8FEF9FEF9093DC18C6
:104F30008093DB18E12CF12C0AE818E19E012F5F29
:104F40003F4F590188248A94982C22242394312C91
:104F50005AEDC52E53E0D52E40918C1B50918D1BE0
:104F600060918E1B70918F1B8091E71A9091E81AC7
:104F7000A091E91AB091EA1A84179507A607B70716
:104F800008F00EC1D801E2E31D92EA95E9F72DE29F
:104F9000422E5524539480918A188D3409F4A5C06B
:104FA00040918C1B50918D1B60918E1B70918F1BBB
:104FB0008091E71A9091E81AA091E91AB091EA1A43
:104FC00084179507A607B70708F08FC09AE8692EDF
:104FD00098E1792E8091E71A9091E81AA091E91A48
:104FE000B091EA1A40918C1B50918D1B60918E1BE1
:104FF00070918F1B84179507A607B70788F48093D5
:10500000941B9093951BA093961BB093971B8FEDC9
:105010009AE10E94B1D2D3018D933D018A3029F4E7
:10502000B1E04B1A510829F45CC0AB5BB841C1F345
:10503000D1CF40918C1B50918D1B60918E1B709134
:105040008F1B8091E71A9091E81AA091E91AB0910C
:10505000EA1A84179507A607B70708F49CCF41C042
:105060005A824982DF92CF92FBEC6F2EF3E07F2EC3
:10507000BF92AF92FF92EF920F94ADA089819A8177
:105080000F900F900F900F900F900F90019609F0D6
:10509000B9C00150110909F4CCC040918C1B50914A
:1050A0008D1B60918E1B70918F1B8091E71A9091E0
:1050B000E81AA091E91AB091EA1A84179507A60791
:1050C000B70708F0B6C0AAE88A2EA8E19A2ED70141
:1050D000E32D1D92EA95E9F70E946A99019609F07D
:1050E000BFCF80E00F94FC05A4C1E114F104F9F4F2
:1050F0009A828982BF92AF92A3E9BEE0BF93AF9339
:105100001F930F930F94ADA089819A810F900F90F8
:105110000F900F900F900F90019629F03092DC18AD
:105120002092DB1804C01092DC181092DB189A82CF
:105130008982BF92AF92DF92CF921F930F930F9409
:10514000ADA089819A810F900F900F900F900F90D2
:105150000F90059711F40C94A9599A828982BF92F5
:10516000AF92DF92CF921F930F930F94ADA08981DE
:105170009A810F900F900F900F900F900F900697BD
:1051800011F40C94A9592EE0E216F10409F451C16E
:105190003FEFE31AF30A4FE0E416F1040CF4DCCE1F
:1051A0001092941B1092951B1092961B1092971BB5
:1051B00040E050E0BA018FED9AE10E9477CD8091F6
:1051C000DB189091DC18892B49F40CE310E0BAE865
:1051D000EB2EB8E1FB2E82E3D82E56C00AEF10E08A
:1051E0005AE8E52E58E1F52E62E3362E44244A941F
:1051F000542CAE014F5F5F4F6A01EBECAE2EE3E043
:10520000BE2E4BCF8FEF9FEF9A838983DF92CF9291
:105210007F926F929F928F920F94ADA089819A8115
:105220000F900F900F900F900F900F90892B09F017
:1052300058CF80E00F94FC05C090ED02D090EE02B4
:10524000E090EF02F090F00220E030E0A901C70109
:10525000B6010F9432AA18166CF137C0D701ED2DA4
:105260001D92EA95E9F70E946A99019609F439CFEF
:105270006AE878E184E494E00F943CA0892B09F477
:1052800030CF01501109A9F240918C1B50918D1B18
:1052900060918E1B70918F1B8091E71A9091E81A94
:1052A000A091E91AB091EA1A84179507A607B707E3
:1052B000A8F2BFCF2DEC3CEC4CE45DE3C701B60196
:1052C0000F9432AA18165CF0B4C02DEC3CEC4CE400
:1052D0005DEBC701B6010F94CEA087FFAAC040E0E6
:1052E00050E067E18AE00E949B968090ED029090EA
:1052F000EE02A090EF02B090F00220E030E0A901B1
:10530000C501B4010F9432AA18162CF520E030E044
:1053100048EC52E4C501B4010F94C49B0F94F4A867
:105320000AE010E0CB01B8010F9490ABF82EE92E03
:1053300020E030E040E251E4C501B4010F94C49B89
:105340000F94F4A8CB01B8010F9490AB082FD92E7D
:10535000C501B4012AC02401350177FA709477F8A9
:10536000709420E030E048EC52E4C301B2010F94A5
:10537000C49B0F94F4A80AE010E0CB01B8010F948D
:1053800090ABF82EE92E20E030E040E251E4C3017A
:10539000B2010F94C49B0F94F4A8CB01B8010F94F1
:1053A00090AB082FD92EC301B2010F94F4A8162F89
:1053B000C72E20E030E0A901C501B4010F94CEA0B2
:1053C00087FD03C08CE294E002C087E294E0EF9294
:1053D000FF92DF920F93CF921F939F938F938EE64E
:1053E00096E09F938F938E010F5F1F4F1F930F9334
:1053F0000F947EA0C8010E94109CB80180E30E9417
:10540000A4978FEF9FEFDC018093AA029093AB02E9
:10541000A093AC02B093AD0210928C082DB73EB7AA
:10542000245F3F4F0FB6F8943EBF0FBE2DBF0C94C4
:10543000C15980913D1981110C94C057CDB6DEB68B
:1054400080916E0890916F080F947509EEEEF8E167
:10545000DF010D900020E9F78DB79EB78A1B9B0BEB
:10546000AC014651574E0FB6F8945EBF0FBE4DBF0C
:105470000DB71EB70F5F1F4FFF93EF9387E696E0C0
:105480009F938F931F930F930F947EA0780154E006
:10549000E50EF11C0F900F900F900F900F900F9052
:1054A000F7018081882349F0082E000C990B0F9496
:1054B000BAADD7018D937D01F3CFC8010E9403E6F9
:1054C00083E696E00E9490E50FB6F894DEBE0FBE2C
:1054D000CDBE0C94C0578091ED18882311F40C9424
:1054E000C05780913D1981110C94C057CDB6DEB6DE
:1054F00080916E0890916F080F947509EEEEF8E1B7
:10550000DF010D900020E9F78DB79EB78A1B9B0B3A
:105510009C012651374E0FB6F8943EBF0FBE2DBFEB
:105520000DB71EB70F5F1F4FFF93EF938CE596E00B
:105530009F938F931F930F930F947EA0780134E075
:10554000E30EF11C0F900F900F900F900F900F90A3
:10555000F7018081882349F0082E000C990B0F94E5
:10556000BAADD7018D937D01F3CFC8010E9403E648
:1055700088E596E00E9490E50FB6F894DEBE0FBE77
:10558000CDBE0C94C05740E050E067E381E20E943A
:105590009B9640E050E061E08BE10E949B9640E0EA
:1055A00050E062E08AE00E949B9681E08093F01CCC
:1055B000809376080C94C05781E0809378080C940F
:1055C000C05781E0809377080C94C05740E050E0CA
:1055D00062E18AE00E949B960C94C05740E050E044
:1055E0006CE18AE00E949B9680E00E948DE510921B
:1055F0008A08109289081092880881E080938B08AD
:105600000C94C0571092F01C1092CF08EDE4F6E015
:1056100084918F01882351F0082E000C990B0F9470
:1056200075030F5F1F4FF8018491F4CF10928B0820
:105630000E94427881E00E948DE540E050E065E004
:105640008AE00E949B960C94C05780910A12909118
:105650000B12892B29F010920B1210920A1208C01B
:1056600080912E0990912F0990930B1280930A122A
:1056700010928A080C94C05780910C1290910D12D0
:10568000892B29F010920D1210920C1208C08091F3
:105690002C0990912D0990930D1280930C12109269
:1056A00089080C94C0578091041290910512892B9F
:1056B00029F010920512109204121CC080912A0940
:1056C00090912B0960912809709129096817790731
:1056D0002CF4BC01990F880B990B04C0072E000C09
:1056E000880B990B0F94D4A00F94F4A87093051213
:1056F00060930412109288080C94C05789E496E0D5
:105700000E9490E50C94C05740E050E06EE18AE0C2
:105710000E949B960C94C05740E050E065E08AE000
:105720000E949B961092F01C1092CF08EEE3F6E0D8
:1057300084918F01882351F0082E000C990B0F944F
:1057400075030F5F1F4FF8018491F4CF10928B08FF
:1057500088E793E090932402809323020E94BFFE87
:105760000C94C05740E050E06AE18AE00E949B96AA
:105770000F9450048091ED18882311F40C94C057B5
:105780008091F6118093F7112EECE22E21E1F22E9A
:1057900032EEC32E31E1D32E00E010E048E3842E38
:1057A00046E0942E8091F61190E008171907BCF599
:1057B0006EEE78E185E699E10E94F3D05701D701BA
:1057C0008D919D917D010F947509F50180819181E5
:1057D000D6018D939D936D0180913D19811118C063
:1057E000F401849198E3A92E96E0B92E882359F00C
:1057F000082E000C990B0F947503FFEFAF1ABF0A28
:10580000F5018491F3CF8AE090E00F94750304C012
:105810008EEE98E10F94BE5E0F5F1F4FC3CF87E0FF
:1058200090E00E940DA30C94C057809123029091A8
:1058300024028036974041F488E793E09093240255
:10584000809323020E94BFFE40E050E068E08AE0BF
:105850000E949B9681E48093DE0880916B0B8823E5
:10586000D1F040E061E081E00E94F0C60E9475DB6B
:105870008091DE088E3489F48FEF9FEFDC018093F6
:10588000AA029093AB02A093AC02B093AD02109227
:105890008C080C94C15941E0E5CF81E00E948DE570
:1058A0001092DE0885E396E00E9490E50E9475DB89
:1058B0008091DE088E3401F340E050E06BE08AE036
:1058C0000E949B960C94C05740E050E064E08AE050
:1058D0000E949B960C94C05740E050E064E28AE03E
:1058E0000E949B9681E08093050889E48093DE08FE
:1058F0001F921F928AE494E09F938F938E010F5F13
:105900001F4F1F930F930F941BAEB8018EE20E949E
:10591000A49760912E0970912F09072E000C880B17
:10592000990B0F94D4A000E010E028EC31E440E0A3
:1059300050E00E94E49C0E94BFFE6FE474E081E6A8
:1059400096E10F94598662E574E081E696E10F9442
:105950005986609137027091380280913902909196
:105960003A0242E050E00F94995F66E574E081E608
:1059700096E10F9459862DEB37E346E05EE36091A4
:105980002F027091300280913102909132020F9477
:1059900048A842E050E00F94995F6AE574E081E620
:1059A00096E10F9459862DEB37E346E05EE3609174
:1059B0002702709128028091290290912A020F9467
:1059C000C49B42E050E00F94995F60912C09709164
:1059D0002D09072E000C880B990B0F94D4A000E022
:1059E00010E028EC31E441E050E00E94E49C0E9489
:1059F000BFFE6FE474E081E696E10F94598662E59C
:105A000074E081E696E10F94598660913B027091B3
:105A10003C0280913D0290913E0242E050E00F94A2
:105A2000995F66E574E081E696E10F9459862DEB67
:105A300037E346E05EE36091330270913402809177
:105A40003502909136020F9448A842E050E00F943E
:105A5000995F6AE574E081E696E10F9459862DEB33
:105A600037E346E05EE360912B0270912C02809157
:105A70002D0290912E020F94C49B42E050E00F94AF
:105A8000995F1092DE080E94427840E050E06BE09F
:105A900084E10E949B9640E050E065E18AE00E942C
:105AA0009B9684E480935C1C8093DE080F900F909B
:105AB0000F900F900F900F900C94C0571092F01C05
:105AC0001092CF08EAE2F6E084918F01882351F02A
:105AD000082E000C990B0F9475030F5F1F4FF801F0
