:100000000C9435170C9466170C9466170C946617AD
:100010000C9466170C9466170C9466170C9466176C
:100020000C9466170C9466170C9466170C9466175C
:100030000C9466170C9466170C9466170D9473163F
:100040000C9466170C9466170C9466170C9466173C
:100050000C9466170C9466170D940F3B0C94A19F9B
:100060000C9466170C94CF9D0C94A69D0C94661767
:100070000C9466170C9466170C9466170C9466170C
:100080000D9418050C9466170C9466170C9466175B
:100090000C9466170C9466170C9466170C946617EC
:1000A0000C9466170C9466170C9466170C946617DC
:1000B0000C9466170C9466170C9466170C946617CC
:1000C0000C9466170C9466170C9466170C94719D2B
:1000D0000C94489D0C9466170C9466170C94661744
:1000E0000C946617755BFB5DEB2FAF2D1A59CD286D
:1000F000D65CE328FB5DFB5DFB5D2229BF28FB5D31
:100100001B261026FB5DB33AFB5DFB5DFB5DE15CEE
:1001100037414D416341794111428F41FE5C294194
:10012000EF437C5BD13AC23AA541B941FB5DD82887
:100130009126BF288B2DB83CA62D935CAD4F9D2DED
:10014000942DB45C115BFB5DDD2F8C5CFB5D5F3D32
:10015000EB283C262626FB5DFB5DFC29ED3AFB5D8A
:10016000615C355C1649E2316728264D0038E03A7B
:100170005A32FB5DD25B8B5BA92F933093306F308B
:10018000D232D6339A2B3B2954292F3051300526B1
:100190003126FB5DFB5DBF2823300E2C302C8129DE
:1001A0005E3C3F3CFB5DE4579058FE5AFB5DFE5CB5
:1001B000FE5C5E5A325A065ADA5956598259AE597D
:1001C000475B63587344FD43E944FA465346DD45B3
:1001D000FB5DFB5D1A59532C6C2C23300758F55CE2
:1001E000FB5DFB5D525CCF41064CF247FB5D702628
:1001F0001C56E541FB41FB5D5542FB5D953B8D3B4C
:10020000FB5DFB5D3936FB5DFB5DFB5D6036B23649
:100210009D36282F122F9D3BB82D352EB92EE62E58
:100220006854392F764888360A48FB5DFB5DFB5DD4
:10023000FB5DFB5DFB5DFB5DFB5DFB5D87298F2946
:10024000B529FB5DFB5D204834481649064C124C2D
:10025000164DFB5D1E508150B24F05502C4EFB5D7C
:10026000FB5D494EFB5D9D52AD39AB3AE1524A48C8
:10027000FB5D6F51B9510552515267516048FB5DAA
:10028000255327549B55BE56FB5D5155C946C9465B
:10029000AC55A834312B9A4F354E544E254F2D4F27
:1002A000BF28A24FFB5DFB5DFB5DFB5DFB5DFB5D66
:1002B0007D3AFB5DFB5D0B593E5BFB5DFB5DFB5DD2
:1002C000FB5DFB5DFB5DFB5DFB5D7B57CE57FB5D27
:1002D000FB5DFB5DFB5DFB5DFB5DFB5DFB5DFB5D5E
:1002E000FB5DFB5DFB5DFB5DFB5DFB5DFB5DFB5D4E
:1002F000FB5DFB5DFB5DFB5DFB5DFB5DFB5DFB5D3E
:10030000FB5DFB5DFB5DFB5DFB5DFB5DFB5DFB5D2D
:10031000FB5DFB5DFB5DFB5DFB5DFB5DFB5DFB5D1D
:10032000FB5DFB5DFB5DFB5DFB5DFB5DFB5DFB5D0D
:10033000FB5DFB5DFB5DFB5DFB5DFB5DEB40AD4095
:10034000B1437343FB5DD846FB5DFB5DE03A612B37
:1003500063432942E03A2942FB5D3F423F42392B49
:100360006F5C685C7E5C855CDE58E358E858ED584D
:100370004B5C3C5CF758FC5801590659F258D95867
:10038000B74BD64BAF2D4B2A412BFB5D695B5354CA
:10039000FF28CD2BFB5DFB5D5C582551FB5DFB5DB4
:1003A000FB5DB756FB5D0758FB5DFB5DFB5D4930B0
:1003B000A22B6054982F7A35FB5DF950FB5DB05647
:1003C000FB5DFB5DFB5DFB5DFB5DD02F914BA44BAB
:1003D000695B475B3E371538A1500D3C1938532AED
:1003E000B83C4637044FA539DD38BE550F56FB5D86
:1003F000ED3AA1506649FE5CA53B692BED50FE5CD1
:10040000E89CEB9CDA9CDE9CE49C229DEF9CF39C98
:10041000F99CFD9C019D079D0B9D0F9D229D159DA7
:10042000199D1D9DBD9EC29EC79ED19EDB9E549F61
:10043000E59EED9EF59EFF9E099F139F229F2C9F98
:10044000549F369F409F4A9FAF02910295027302CC
:1004500097028B02AB0277029B028502A3028F02F6
:1004600093028702A9027D02A902A1027F027B02F8
:10047000AD02990281028902830267026F026D0256
:100480006B02084AD73B3BCE016E84BCBFFDC12F37
:100490003D6C74319ABD56833DDA3D00C77F11BE75
:1004A000D9E4BB4C3E916BAAAABE000000803F0578
:1004B000A84CCDB2D44EB93836A9020C50B99186A9
:1004C00088083CA6AAAA2ABE000000803F000D941E
:1004D000556A0D940C120D94236C0D94D46A0D94EE
:1004E000356A0D948A5D0D94CF3B0D94D9CB0D9454
:1004F000123C0D9479890D94176A0D94976A0D94A6
:100500000A6B0D94E76B0D945E6C0D94163C0D9484
:10051000586B0D94056C0D94F63B0D9438B90D9401
:10052000F9690D94A63B0D94736A0D94C23B0D942A
:10053000E93B0D94C96B0D94143C0D944FB40D948C
:1005400085120D94F26A0D941E3C0D948B5D0D94F2
:100550004F890D94336B0D94103C0D948D6C0D945C
:10056000993B4E414E494E495459494E46CDCCCC0B
:100570003D0AD7233C17B7D13877CC2B329595E677
:10058000241FB14F0A000020410000C84200401C57
:100590004620BCBE4CCA1B0E5AAEC59D746364692E
:1005A0006E6F70737578585B003B4C415945523AF9
:1005B0002564003B202020757365526166742C25EC
:1005C00064004D363035205325640043616C6375FB
:1005D0006C75733A20200043616C63756C75733AD7
:1005E00020200043616C63756C75733A20200053C2
:1005F000757266696E6720300A00417420426F741C
:10060000746F6D20537469636B65720025303364B9
:100610002E25303364253033642E25303464004178
:100620007420426F74746F6D20537469636B6572CC
:1006300000253033642E25303364253033642E2575
:100640003034640025730053757266696E6720301C
:100650000A004732382058302059300054300054B6
:10066000310054300054300053757266696E672053
:10067000300A0047343300473431004734300047F4
:1006800033340047343300473433004734310047B4
:100690003430004D3834004D3834004D3834005A71
:1006A00032204F66667365743A20004F4B207365A5
:1006B000636F6E64204578747275646572210A00F8
:1006C0005A20706F736974696F6E3A20005A2070F7
:1006D0006F736974696F6E3A20004D3834005A3177
:1006E0002050726F6265206F66667365743A2000F1
:1006F0004F4B206669727374204578747275646517
:100700007221200A005A20706F736974696F6E3A03
:1007100020005A20706F736974696F6E3A2000432D
:10072000616C63756C75733A20200043616C63756E
:100730006C75733A20200043616C63756C75733A75
:1007400020200043616C63756C75733A202000367D
:10075000302064656772656573200A005430005468
:10076000300054300043616C6962726174696F6E6D
:10077000205375636365737366756C0A00543000AB
:100780004A756D70206F766572207363726577317C
:1007900020616E6420736372657732200A004A75A7
:1007A0006D70206F76657220736372657731200AF1
:1007B00000473334004733340047333400543000AB
:1007C0004733340053757266696E6720300A0053F0
:1007D000757266696E6720300A0053757266696EBD
:1007E0006720300A0053757266696E6720300A0010
:1007F00053757266696E6720300A00543000537575
:100800007266696E6720300A004D3334005375728A
:1008100066696E6720300A004D3234004D32332055
:100820002573004D3234004D323320257300776933
:100830006C6C20626520646973746F7274656420E7
:1008400062792025642E253164253164206D6D2E5A
:1008500000546865206669727374206C61796572F2
:10086000207072696E74656420776974682074689A
:100870006520257320686F74656E64005375726619
:10088000696E6720300A0053757266696E672030A2
:100890000A0053757266696E6720300A00526561FE
:1008A000647920746F2053746172740A0025642087
:1008B0006B6D2E0067636F646520666F756E640AEA
:1008C0000020746F20537461727420446973706CDB
:1008D00061792066726F6D20526573657400546F84
:1008E0006F6B2000646973706C6179206F6E6C6946
:1008F0006E6521002E002053544F50205052494E17
:1009000054200A00473238205830205930004D33E7
:10091000350047373000524553554D450A00504188
:100920005553450A004D393930005374617274696A
:100930006E67205A2043616C6962726174696F6EE0
:100940002057697A6172640A000A00205A3A20002E
:1009500020593A200020583A200042656400456E34
:10096000642066696C65206C6973740A004265676F
:10097000696E2066696C65206C6973740A002F00CB
:100980005344207072696E74696E67206279746571
:1009900020004E6F74205344207072696E74696E2B
:1009A000670A002569206D696E2C20256920736512
:1009B00063006F6B004649524D574152455F4E41AF
:1009C0004D453A4D61726C696E2042434E3344206E
:1009D0005369676D61783B204649524D57415245F6
:1009E0005F56455253494F4E3A30322D322E302EFB
:1009F000373B204649524D574152455F55524C3A7C
:100A000068747470733A2F2F6769746875622E6307
:100A10006F6D2F42434E33442F42434E334453694C
:100A2000676D61782D4669726D776172653B205004
:100A3000524F544F434F4C5F56455253494F4E3AD5
:100A4000312E303B204D414348494E455F5459506B
:100A5000453A42434E3344205369676D61783B20E9
:100A600045585452554445525F434F554E543A32BF
:100A70003B20555549443A00535441544953544935
:100A800043532052455345540A00504F534954494B
:100A90004F4E20484F4D453A2000220A00556E6BBC
:100AA0006E6F776E20636F6D6D616E643A20220009
:100AB00000002100240027002A002D003000330010
:100AC00001010000040107010A01000022002500C5
:100AD00028002B002E003100340002010000050127
:100AE00008010B01000020002300260029002C0033
:100AF0002F00320000010000030106010901050575
:100B00000505070508080808020202020A0A080883
:100B100004040404010101010101010103030303B1
:100B200003030303040707070C0C0C0C0C0C0C0C40
:100B30000202020206060606060606060B0B0B0B51
:100B40000B0B0B0B01021020200808102040102076
:100B50004080020102010804020101020408102081
:100B6000408080402010080402018004020180407F
:100B700020100804020108040201010204081020E8
:100B80004080010204081020408000000A0B020986
:100B90000C0D0E0807030401000000000000000017
:100BA0000000000000000000000000000000000045
:100BB0000000000000001211100000000000000002
:100BC0000000000000000000000000000000000025
:100BD000646973706C6179206F66666C696E65001C
:100BE00042434E3344205369676D61780A00737441
:100BF0006172740A006563686F3A0030322D322EDC
:100C0000302E370A004D3234004D32332025730028
:100C10006175746F25692E67006572726F72207737
:100C2000726974696E6720746F2066696C650A006A
:100C3000205A3A0020593A0020583A00656E6473F1
:100C4000746F7073206869743A20006563686F3A46
:100C500000446F6E6520736176696E672066696C0B
:100C6000652E0A006F6B0A004D32390045787472A8
:100C700075646572204865617465640A0020573A9E
:100C800000204500205A00205900483D5800205AB5
:100C90003A0020593A0020436F756E7420583A206C
:100CA0000020453A00205A3A0020593A00583A00AC
:100CB0007A5F6D696E3A2000795F6D61783A200045
:100CC000785F6D61783A2000785F6D696E3A200038
:100CD000486F74656E64206F6666736574733A005E
:100CE000504944204175746F74756E652066696E55
:100CF0006973686564212050757420746865206C80
:100D0000617374204B702C204B6920616E64204B02
:100D10006420636F6E7374616E74732066726F6D9E
:100D20002061626F766520696E746F20436F6E6616
:100D3000696775726174696F6E2E680A0050494464
:100D4000204175746F74756E65206661696C6564A9
:100D5000212074696D656F75740A0020403A006F38
:100D60006B20543A006F6B20423A005049442041B6
:100D700075746F74756E65206661696C6564212099
:100D800054656D706572617475726520746F6F2043
:100D9000686967680A00204B643A2000204B693A72
:100DA0002000204B703A200020436C61737369630C
:100DB00020504944200A002054753A2000204B75E9
:100DC0003A2000206D61783A2000206D696E3A204B
:100DD0000020643A200020626961733A20002E0AE4
:100DE0000044656C6574696F6E206661696C65644A
:100DF0002C2046696C653A200046696C6520646564
:100E00006C657465643A002E0A006F70656E20662A
:100E100061696C65642C2046696C653A2000473234
:100E200038205830205930000A0A005374616E642B
:100E300061726420446576696174696F6E3A20005E
:100E40000A004D65616E3A20000A002020207A3A9F
:100E500020000A00793A2000783A20003F5370655C
:100E6000636966696564206E756D626572206F6680
:100E7000206C65677320696E206D6F76656D656E99
:100E800074206E6F7420706C61757361626C652E76
:100E90000A003F5370656369666965642059207074
:100EA0006F736974696F6E206F7574206F6620723E
:100EB000616E67652E0A003F5370656369666965F8
:100EC00064205820706F736974696F6E206F757439
:100ED000206F662072616E67652E0A003F53706551
:100EE0006369666965642073616D706C6520736900
:100EF0007A65206E6F7420706C61757361626C65C9
:100F00002E0A0046756C6C20737570706F727420B9
:100F100061743A20687474703A2F2F336470726968
:100F20006E74626F6172642E636F6D2F666F72757F
:100F30006D2E7068700A004D3438205A2D50726F33
:100F40006265205265706561746162696C6974796B
:100F500020746573742E20202056657273696F6E3D
:100F600020322E30300A003F566572626F73652062
:100F70004C6576656C206E6F7420706C6175736162
:100F8000626C652E0A004265642048656174656480
:100F90000A0020573A000A00207A3A200020793AC5
:100FA000200020783A20004265640045787472750C
:100FB0006465722072656C65617365642061637439
:100FC0006976653A20005A205349474D4120486FC1
:100FD0006D65640A0045787472756465722061639A
:100FE000746976653A20004D383400537461727428
:100FF000696E6720582043616C6962726174696F21
:101000006E2057697A6172640A004D383400537457
:10101000617274696E6720592043616C6962726104
:1010200074696F6E2057697A6172640A002C2073AC
:10103000617665645F466C61675F66616E6C61795D
:1010400065725F6D6972726F723A20002C20736155
:101050007665645F6665656472617465313A200027
:101060002C2073617665645F666565647261746582
:10107000303A20002C2073617665645F66616E6C87
:10108000617965723A20002C2073617665645F7423
:10109000656D706265643A20002C2073617665642A
:1010A0005F74656D70303A20002C20736176656442
:1010B0005F74656D70313A20002C20736176656431
:1010C0005F66696C65706F736974696F6E3A200052
:1010D0002C2073617665645F655F706F73697469F6
:1010E0006F6E3A20002C2073617665645F746F6FB9
:1010F0006C5F6163746976653A20002C20736176B9
:1011000065645F7A5F706F736974696F6E3A20000F
:101110002C2073617665645F795F706F73697469A1
:101120006F6E3A20002C2073617665645F785F7083
:101130006F736974696F6E3A2000534156452050B1
:1011400052494E54204C4F473A0A006563686F3A43
:10115000005072696E74207265636F7665727920D3
:1011600075700A004E6F74207072696E742072651B
:10117000636F766572792075700A00535543434555
:1011800053530A0056616C756573206F7574206F38
:10119000662072616E67650A0056616C7565732022
:1011A0006F7574206F662072616E67650A00566104
:1011B0006C756573206F7574206F662072616E6741
:1011C000650A0056616C756573206F7574206F66D3
:1011D0002072616E67650A00535543434553530AB5
:1011E0000056616C756573206F7574206F66207290
:1011F000616E67650A0056616C756573206F757462
:10120000206F662072616E67650A0056616C7565B5
:1012100073206F7574206F662072616E67650A00B7
:1012200056616C756573206F7574206F66207261EE
:101230006E67650A0020502000205A2000205920A7
:1012400000536574204D353330205820004D6F64B5
:10125000652033203A20507369636F2020202D3E93
:10126000205247423A20526973652646616C6C00F1
:101270002A2A2D3E20004D6F64652032203A2063DB
:1012800079636C652020202D3E205247423A20365B
:1012900020737461746573002A2A2D3E20004D6FFF
:1012A00064652031203A2072616E646F6D20202DBC
:1012B0003E205247423A202B31202B32202B332C18
:1012C00020647572696E67207072696E74696E67EA
:1012D000002A2A2D3E20004D6F64652030203A20E0
:1012E00064656661756C74202D3E205247423A2039
:1012F0003235352032353520323535002A2A2D3E1B
:1013000020004C6564206D6F646573203A004D3594
:101310003336204C5B6D6F64655D00486F74656E9D
:1013200064206F6666736574733A0054696D652056
:10133000696E6163746976650A005075726765202D
:1013400064697374616E63650A004D3834205820F7
:1013500059205A2045005A204F6666736574206FE5
:101360006B0A005A204F6666736574203A200A00A3
:101370007A5F6D61783A20007A5F6D696E3A20007D
:101380005A204F666673657400504F534954494F55
:101390004E20484F4D453A2000436F6F6C696E6791
:1013A00020446F776E204865617465720A00507240
:1013B000696E7465722068616C7465642E206B6957
:1013C0006C6C28292063616C6C6564210A0045728D
:1013D000726F723A006C617965722068656967683E
:1013E000743A200045787472756465722072656C79
:1013F0006561736564206163746976653A20005A9B
:10140000205349474D4120486F6D65640A00457877
:10141000747275646572206163746976653A200040
:101420000000000000809343000000000000A04086
:101430000000A0400000004020004D6F7665207441
:101440006F3A2000CDAC0344008093430000524328
:10145000FF01FF20636F6C64206578747275736997
:101460006F6E2070726576656E7465640A006563E0
:10147000686F3A0024F4D43050C38E20C2A24017C3
:10148000828B7011127A910D816CD90AA861E108E2
:10149000C7586607615143061E4B5D05C145A70449
:1014A0001A411104093D9803713931034036DB02BA
:1014B00065339102D4305402802E1D02632CEE015C
:1014C000752AC501B028A001102781018F2564016C
:1014D0002B244B01E0223401AC211F018D200D0192
:1014E000801FFC00841EED00971DDF00B81CD20099
:1014F000E61BC600201BBC00641AB200B219A8008B
:101500000A19A0006A189900D117910040178B00A2
:10151000B516840031167E00B31579003A157300B4
:10152000C7146F0058146A00EE1366008813630036
:1015300025135E00C7125B006C1257001512540091
:10154000C111510070114F0021114B00D6104900FC
:101550008D1047004610440002104200C00F4000AA
:10156000800F3E00420F3C00060F3B00CB0E3800C0
:10157000930E37005C0E3500270E3400F30D320059
:10158000C10D3100900D3000600D2E00320D2D0088
:10159000050D2C00D90C2B00AE0C2900850C290060
:1015A0005C0C2700350C27000E0C2600E80B2400ED
:1015B000C40B2400A00B23007D0B23005A0B210039
:1015C000390B2100180B2000F80A1F00D90A1E0051
:1015D000BB0A1E009D0A1D00800A1D00630A1C0034
:1015E000470A1B002C0A1B00110A1A00F7091A00EF
:1015F000DD091900C4091900AB0919009209170087
:101600007B091800630917004C09160036091600FB
:10161000200916000A091500F5081500E008140055
:10162000CC081400B8081400A40814009008130093
:101630007D0812006B0813005808120046081200BB
:1016400034081100230811001208110001081100CC
:10165000F0071000E0071000D0071000C0071000CE
:10166000B0070F00A107100091070E0083070F00BD
:1016700074070F0065070E0057070E0049070E009C
:101680003B070D002E070E0020070D0013070D006D
:1016900006070D00F9060C00ED060D00E0060C0033
:1016A000D4060C00C8060C00BC060C00B0060C00EA
:1016B000A4060B0099060C008D060B0082060B0099
:1016C00077060B006C060B0061060A0057060B003C
:1016D0004C060A0042060A0038060A002E060A00D6
:1016E00024060A001A060A001006090007060A0066
:1016F000FD050900F4050900EB050900E2050900F4
:10170000D9050900D0050900C7050900BE05090073
:10171000B5050800AD050800A50509009C050800F1
:10172000940508008C050800840508007C05080065
:10173000740508006C050700650508005D050700D5
:10174000560508004E05070047050700400508003C
:1017500038050700310507002A05070023050700A3
:101760001C050600160507000F0507000805060002
:1017700002050700FB040600F5040700EE0406005E
:10178000E8040600E2040700DB040600D5040600B6
:10179000CF040600C9040600C3040600BD04060009
:1017A000B7040600B1040500AC040600A604060058
:1017B000A00405009B0406009504050090040600A3
:1017C0008A04050085040500800406007A040500EB
:1017D00075040500700405006B040500660405002F
:1017E000610405005C04050057040500520405006F
:1017F0004D04050048040500430405003E040400B0
:101800003A04050035040500300404002C040500EA
:1018100027040400230405001E0404001A04040025
:1018200016040500110404000D0404000904050059
:101830000404040000040400FC030400F803040092
:10184000F4030400F0030400EC030400E8030400C4
:10185000E4030400E0030400DC030400D8030400F4
:10186000D4030400D0030400CC030400C803030025
:10187000C503030024F404D9201BC40C5C0E980497
:10188000C4095F0265077101F405F900FB04B300A8
:1018900048048700C103690058035500030345004D
:1018A000BE023A008402310053022A0029022500B8
:1018B00004022000E4011C00C8011900AF01170058
:1018C00098011400840113007101100061011000DF
:1018D00051010E0043010D0036010B002B010B00DE
:1018E00020010B00150109000C010900030108008B
:1018F000FB000800F3000800EB000700E40006000E
:10190000DE000600D8000600D2000600CC0005006C
:10191000C7000500C2000500BD000400B9000400B6
:10192000B5000400B1000400AD000400A9000400EB
:10193000A5000300A20003009F0004009B00030019
:10194000980003009500020093000300900003003C
:101950008D0002008B000300880002008600020058
:1019600084000300810002007F0002007D0002006D
:101970007B0002007900020077000100760002007F
:101980007400020072000100710002006F0002008A
:101990006D0001006C0002006A0001006900020095
:1019A000670001006600010065000100640002009C
:1019B0006200010061000100600001005F000200A0
:1019C0005D0001005C0001005B0001005A000100A5
:1019D00059000100580001005700010056000100A5
:1019E00055000100540001005300000053000100A5
:1019F0005200010051000100500001004F000100A1
:101A00004E0000004E0001004D0001004C0001009E
:101A10004B0000004B0001004A000100490001009A
:101A20004800000048000100470001004600000097
:101A3000460001004500000045000100440001008F
:101A4000430000004300010042000000420001008A
:101A50004100000041000100400001003F00000083
:101A60003F0001003E0000003E0001003D0000007C
:101A70003D0001003C0000003C0000003C00010073
:101A80003B0000003B0001003A0000003A0001006A
:101A90003900000039000100380000003800000063
:101AA0003800010037000000370001003600000058
:101AB000360000003600010035000000350000004F
:101AC0003500010034000000340000003400010043
:101AD000330000003300000033000100320000003A
:101AE000320000003200010031000000310000002F
:101AF0003100010030000000300000003000010023
:101B00002F0000002F0000002F0000002F00010018
:101B10002E0000002E0000002E0001002D0000000D
:101B20002D0000002D0000002D0001002C00000001
:101B30002C0000002C0000002C0001002B000000F5
:101B40002B0000002B0000002B0001002A000000E9
:101B50002A0000002A0000002A00010029000000DD
:101B600029000000290000002900000029000100D0
:101B700028000000280000002800000028000000C5
:101B800028000100270000002700000027000000B7
:101B900027000000270001002600000026000000AA
:101BA000260000002600000026000100250000009D
:101BB0002500000025000000250000002500000091
:101BC0002500010024000000240000002400000083
:101BD0002400000024000100230000002300000076
:101BE0002300000023000000230000002300000069
:101BF000230001002200000022000000220000005B
:101C0000220000002200000022000100210000004C
:101C10002100000021000000210000002100000040
:101C20002100000021000100200000002000000031
:101C30002000000020000000200000002000000024
:101C400020000000200001001F0000001F00000015
:101C50001F0000001F0000001F0000001F00000008
:101C60001F0001001E0000001E0000001E000000FA
:101C70001E00000050757267652046696C616D65D5
:101C80006E740A0053757266696E6720310A0053DC
:101C9000757266696E6720300A004252494748549F
:101CA0004E4553533A2000220A00656E71756569EE
:101CB0006E67202200220A00656E717565696E6785
:101CC000202200202F0020400020403A005265735F
:101CD000656E643A20006F6B0A004475706C692071
:101CE0004D6F6465204F4E0A004D6972726F72200D
:101CF0004D6F6465204F4E0A002A2A2A2047656EE0
:101D0000696520446973636F6E6E656374656420F2
:101D100066726F6D204765744E657874427974659C
:101D200021202A2A2A002A2A2A2047656E6965204E
:101D3000456E61626C6520417474616368457665C7
:101D40006E7448616E646C657220212121202A2AFC
:101D50002A0043616E6E6F7420656E746572207325
:101D600075626469723A200057726974696E6720FF
:101D7000746F2066696C653A20002E0A006F7065EA
:101D80006E206661696C65642C2046696C653A203A
:101D9000002E0A006F70656E206661696C65642CA8
:101DA0002046696C653A200046696C652073656C55
:101DB00065637465640A002053697A653A200046B9
:101DC000696C65206F70656E65643A20002E0A00AC
:101DD0006F70656E206661696C65642C2046696C65
:101DE000653A20004E6F77206672657368206669D9
:101DF0006C653A20004E6F7720646F696E672066CD
:101E0000696C653A20002220706F73002220706197
:101E100072656E743A2200535542524F5554494EE2
:101E2000452043414C4C207461726765743A22002E
:101E3000747279696E6720746F2063616C6C2073B3
:101E400075622D67636F64652066696C65732077C2
:101E500069746820746F6F206D616E79206C65768F
:101E6000656C732E204D4158206C6576656C206939
:101E7000733A005341564544205052494E540A008B
:101E80007A70726F62653A20005344206361726415
:101E9000206F6B0A006F70656E526F6F7420666101
:101EA000696C65640A00766F6C756D652E696E6984
:101EB00074206661696C65640A004572726F723ADB
:101EC00000534420696E6974206661696C0A007071
:101ED000012C0190012701B0012201C0011D01F078
:101EE0000118011002130130020E01600209019075
:101EF000020401C002FF000003FA004003F5008065
:101F000003F000D003EB002004E6007004E100E0E1
:101F100004DC004005D700C005D2004006CD00D04B
:101F200006C8008007C3003008BE00F008B900C032
:101F300009B400B00AAF00B00BAA00D00CA5000095
:101F40000EA000500F9B00C0109600501291000090
:101F5000148C00C0158700B0178200B0197D00D026
:101F60001B7800001E730040206E0090226900F074
:101F700024640040275F0090295A00E02B55001090
:101F80002E500020304B0010324600E033410090CC
:101F9000353C001037370070383200A0392D00B0C2
:101FA0003A2800A03B2300603C1E00103D19009021
:101FB0003D1400103E0F00703E0A00C03E050000B8
:101FC0003F000048797374657265736973207465A6
:101FD0006D70657261747572650A00546865726D22
:101FE000616C2072756E617761792070726F7465B3
:101FF0006374696F6E206279204865617465725FF1
:1020000049443A0A004572726F723A004572726F23
:1020100072283833293A2042656420746865726DED
:102020006973746F72206E6F742064657465637475
:1020300065640A004572726F72283832293A20525C
:102040006967687420746865726D6973746F722053
:102050006E6F742064657465637465640A0045720C
:10206000726F72283831293A204C65667420746882
:1020700065726D6973746F72206E6F742020646571
:102080007465637465640A002053544F50205052A5
:10209000494E54200A004572726F72283833293A2B
:1020A0002042656420746865726D6973746F722074
:1020B0006E6F742064657465637465640A002053F0
:1020C000544F50205052494E54200A004572726FAE
:1020D00072283832293A205269676874207468651A
:1020E000726D6973746F72206E6F742064657465AD
:1020F000637465640A002053544F50205052494E77
:1021000054200A004572726F72283831293A204CE7
:1021100065667420746865726D6973746F72206E81
:102120006F74202064657465637465640A002053CD
:10213000544F50205052494E54200A004552524F9D
:1021400052283839293A20424544206973206E6F5D
:10215000742068656174696E67002053544F502085
:102160005052494E54200A004552524F5228383995
:10217000293A20486F74656E6420256420697320B5
:102180006E6F742068656174696E67006563686F5F
:102190003A000A0020616E7469686F726172690AA0
:1021A0003A200020686F726172690A20002F38009F
:1021B000766F6C746573200020566F6C74657320A5
:1021C000636172676F6C20333A200020616E74691E
:1021D000686F726172690A3A200020686F726172DA
:1021E000690A20002F3800766F6C74657320002018
:1021F000566F6C74657320636172676F6C20323A3E
:1022000020000A0020647A333A200020647A323AAF
:1022100020005431005430005430005430000A0083
:1022200056756974656E73333A2020004170726F81
:1022300078333A202000566F6C746573333A20204F
:10224000000A0056756974656E73323A20200041A9
:1022500070726F78323A202000566F6C746573325A
:102260003A20200056616C6F7220645A333A202065
:102270000056616C6F7220645A323A2020004E651D
:1022800077206F66667365742076657273696F6E0A
:102290003A20007A335F313A20007A325F313A20B7
:1022A000005A7363726F6C6C5F313A20007A335F4F
:1022B000303A20007A325F303A20005A7363726FEE
:1022C0006C6C5F303A20005A76616C7565206166EF
:1022D00074657220686F6D653A00486F6D652058AF
:1022E0002F59206265666F7265205A0A003B2020D4
:1022F000204275696C642074696D653A20256420FC
:1023000025732025642025730A003B5072696E7482
:102310002074696D653A202564202573202564208A
:102320002573202564202573003B54494D453A25EB
:102330006C64003B202020506C61737469632077CB
:1023400065696768743A2025642E256467003B46FA
:10235000696C616D656E7420757365643A202564DF
:102360002E25646D2025642E256467003B46696C2C
:10237000616D656E7420757365643A20256C642EFA
:10238000256C646D003B45787472756465727320CA
:10239000757365643A205425642025642E256420D5
:1023A0005425642025642E2564003B202020657878
:1023B0007472756465724469616D657465722C31FF
:1023C0002C25642E2564003B2020206578747275CE
:1023D0006465724469616D657465722C25642E258F
:1023E000642C25642E2564003B20202065787472BF
:1023F000756465724469616D657465722C25642E1F
:102400002564002E2E2E2054696D656F7574210091
:102410002A2A2A2047656E69652057726974654FBC
:10242000626A656374202A2A2A202D2D2D3E002EF3
:102430002E2E204E414B2021002A2A2A2047656E4D
:1024400069652057726974654F626A656374202AF2
:102450002A2A202D2D2D3E002E2E2E2041434B20AA
:1024600021002A2A2A2047656E69652057726974FF
:10247000654F626A656374202A2A2A202D2D2D3E1D
:10248000002A2A2A2047656E69652042616420423D
:10249000797465202A2A2A202D2D2D3E203078009F
:1024A0002056616C75653A200020496E6465783A63
:1024B00020002A2A2A2047656E6965205265706FC0
:1024C0007274204F626A656374202A2A2A204F6240
:1024D0006A6563743A20002A2A2A2047656E696576
:1024E00020436F6E6E6563746564202F2053796E90
:1024F0006321202A2A2A002056616C75653A200043
:1025000020496E6465783A20002A2A2A2047656EA1
:102510006965205265706F7274204576656E74200F
:102520002A2A2A204F626A6563743A2000204C658B
:102530006E6774683A20002A2A2A2047656E69650A
:10254000205265636569766564204D616769632023
:10255000446F75626C65204279746573202A2A2A5B
:1025600020496E6465783A2000204C656E67746877
:102570003A20002A2A2A2047656E69652052656341
:102580006569766564204D61676963204279746589
:1025900073202A2A2A20496E6465783A20002A2A64
:1025A0002A2047656E6965204E414B205265636F56
:1025B0007665727920212121202A2A2A002A2A2AB6
:1025C0002047656E696520446973636F6E6E65634D
:1025D0007465642066726F6D20446F4576656E7415
:1025E0007321202A2A2A002A2A2A2047656E696533
:1025F00020546F6F6B20746F6F206C6F6E67207448
:102600006F2072652D656E74657220446F45766526
:102610006E747328292C2072656475636520646567
:102620006C61797320696E20636F64652C2073651B
:102630006C662D70726F74656374696F6E20656E61
:1026400061626C65642E202A2A2A004572726F72BC
:1026500020577269746520454550524F4D005365AF
:102660007474696E67732053746F7265640A002016
:102670004D696E75746573203A0020204C61737447
:10268000207072696E742074696D652D3E20486FEC
:10269000757273203A004C617374207072696E74A5
:1026A000206475726174696F6E0A002C2054686929
:1026B0007264204944206E756D62657220002C2082
:1026C0005365636F6E64204944206E756D62657258
:1026D0003A200020204669727374204944206E75A8
:1026E0006D6265723A2000554920496E666F726DC1
:1026F0006174696F6E2053657269616C204E756DEF
:102700006265723A0A00206D2C2045312070726992
:102710006E742064697374616E63653A2000206B87
:102720006D2C204530207072696E7420646973745A
:10273000616E63653A2000206B6D2C205920707209
:10274000696E742064697374616E63653A20002059
:102750006B6D2C205831207072696E74206469731F
:1027600074616E63653A200020432C0A20583020A3
:102770007072696E742064697374616E63653A2067
:102780000020432C206D61782074656D7020423AE2
:10279000200020432C206D61782074656D702052DC
:1027A0003A20002C206D61782074656D70204C3AC1
:1027B0002000682C207072696E74732066696E69DF
:1027C000736865643A20002C207072696E74696EBB
:1027D000672074696D653A200020207072696E74FC
:1027E000733A200053544154533A0A0020432C209A
:1027F000525F5052494E543A200020432C20525FE1
:102800004245443A200020432C20525F52454D4F10
:1028100056453A20002020525F494E534552543AC3
:10282000200054656D70202843293A0A0020432C6B
:10283000204C5F5052494E543A200020432C204CEB
:102840005F4245443A200020432C204C5F52454DC6
:102850004F56453A200020204C5F494E5345525474
:102860003A200054656D70202843293A0A0020560A
:102870002856657273696F6E2920002052284265C0
:102880006420726967687420736372657729200019
:1028900020204D353331204C28426564206C65661C
:1028A00074207363726577292000426564204F6647
:1028B000667365747320286D6D293A0A00205028CC
:1028C0005A2070726F62652900205A20002059201A
:1028D0000020204D353330205820004F6666736548
:1028E000747320286D6D293A0A00204400204900A5
:1028F000202D204D3330312052494748542050007C
:1029000020440020490020204D333031204C4546E2
:10291000542050005049442073657474696E677385
:102920003A0A00205A0020590020204D323036202B
:102930005800486F6D65206F666673657420286D5A
:102940006D293A0A00204500205A002058002042F4
:102950000020540020204D32303520530041647651
:10296000616E636564207661726961626C65733A59
:1029700020533D4D696E2066656564726174652003
:10298000286D6D2F73292C20543D4D696E20747273
:102990006176656C20666565647261746520286D7A
:1029A0006D2F73292C20423D6D696E696D756D2008
:1029B0007365676D656E742074696D6520286D732D
:1029C000292C20583D6D6178696D756D205859200E
:1029D0006A65726B20286D6D2F73292C20205A3D5B
:1029E0006D6178696D756D205A206A65726B20285B
:1029F0006D6D2F73292C2020453D6D6178696D75B3
:102A00006D2045206A65726B20286D6D2F73290A31
:102A10000020540020204D323034205300416363A5
:102A2000656C65726174696F6E3A20533D616363D2
:102A3000656C65726174696F6E2C20543D726574AB
:102A40007261637420616363656C65726174696F40
:102A50006E0A00204500205A0020590020204D32E7
:102A600030312058004D6178696D756D2041636388
:102A7000656C65726174696F6E20286D6D2F73329D
:102A8000293A0A00204500205A0020590020204DF4
:102A90003230332058004D6178696D756D20666560
:102AA0006564726174657320286D6D2F73293A0A0D
:102AB00000204500205A0020590020204D393220A6
:102AC000580053746570732070657220756E697458
:102AD0003A0A0053757266696E672030200A005406
:102AE00030004D383420582059205A204500496E76
:102AF0007374616C6C202564202573206F6E2074C4
:102B0000686520257320686F74656E642E00496EB9
:102B10007374616C6C202564202573206F6E2074A3
:102B2000686520257320686F74656E642E00526599
:102B300061647920746F204C6F61642F556E6C6FE7
:102B40006164200A004D313037004E6577206C619A
:102B50007965722064657465637465640A003B205E
:102B60006C61796572003B4C4159455200256920E2
:102B7000686F757273202569206D696E7574657351
:102B800000446F6E65207072696E74696E672066AE
:102B9000696C650A004D33330050617573652070B0
:102BA00061726B696E670A00473639005072696E50
:102BB0007465722073746F7070656420647565202D
:102BC000746F206572726F72732E2046697820745C
:102BD0006865206572726F7220616E64207573651E
:102BE000204D39393920746F2072657374617274A5
:102BF0002E202854656D7065726174757265206948
:102C0000732072657365742E205365742069742077
:102C100061667465722072657374617274696E673F
:102C2000290A006F6B0A004E6F204C696E65204EBA
:102C3000756D626572207769746820636865636B7F
:102C400073756D2C204C617374204C696E653A204D
:102C5000004E6F20436865636B73756D20776974F0
:102C600068206C696E65206E756D6265722C204CF3
:102C7000617374204C696E653A2000636865636B0C
:102C800073756D206D69736D617463682C204C6180
:102C90007374204C696E653A20004C696E65204E55
:102CA000756D626572206973206E6F74204C61735C
:102CB00074204C696E65204E756D6265722B312CE7
:102CC000204C617374204C696E653A20004D31319F
:102CD0003000CDAC03440080934300005243000019
:102CE000000000000000000000007C3C3E5E2B3D28
:102CF0003F2F5B5D3B2C2A225C00504944204175EC
:102D0000746F74756E652066696E69736865642199
:102D10000A00504944204175746F74756E652066D1
:102D200061696C6564212074696D656F75740A0052
:102D300020403A006F6B20543A006F6B20423A00FB
:102D4000504944204175746F74756E6520666169E1
:102D50006C6564212054656D70657261747572656F
:102D600020746F6F20686967680A00204B643A20FE
:102D700000204B693A2000204B703A200020436C21
:102D8000617373696320504944200A002054753AE6
:102D90002000204B753A2000206D61783A200020F9
:102DA0006D696E3A200020643A20002062696173E8
:102DB0003A20003B20472D436F64652067656E65B0
:102DC00072617465642062792053696D706C696604
:102DD0007933442852292056657273696F6E202515
:102DE00064006563686F3A0053746F7265642073A2
:102DF000657474696E67732072657472696576654F
:102E0000640A0048617264636F64656420446566A7
:102E100061756C742053657474696E6773204C6FB0
:102E2000616465640A0048617264636F646564206C
:102E300043616C696220616E64205049442044659E
:102E40006661756C742053657474696E6773204C89
:102E50006F616465640A004736392041435449561E
:102E6000415445440A008D029D0211241FBECFEF3C
:102E7000D1E2DEBFCDBF00E00CBF18E0A0E0B2E0C1
:102E8000EAE9FCE903E00BBF02C007900D92A23A09
:102E9000B107D9F72EE1A2EAB8E001C01D92A93B23
:102EA000B207E1F717E1C4E3D7E100E006C02197DC
:102EB0000109802FFE010F942ECBC333D10780E090
:102EC0000807A9F70F9456A40D943CCE0C9400006B
:102ED0002F923F924F925F926F927F928F929F922A
:102EE000AF92BF92CF92DF92EF92FF920F931F9318
:102EF000CF93DF93CDB7DEB7C352D1400FB6F8946E
:102F0000DEBF0FBECDBF2DB73EB7CE5DDE4F3983DE
:102F10002883C252D1408091DA0881110DC00E94ED
:102F2000959F6093D6087093D7088093D8089093A4
:102F3000D90881E08093DA088091CE0881110DC014
:102F40000E94959F6093CA087093CB088093CC0829
:102F50009093CD0881E08093CE0881E08093F708BC
:102F600090913B1B4091990250919A0260919B0273
:102F700070919C02911106C080913C1B882311F432
:102F80000C946222463A51056105710509F407C6A1
:102F90000CF0F2C0483551056105710509F489C48A
:102FA0000CF058C0413251056105710511F40C94C3
:102FB0007E2034F5413151056105710509F4FBC7E7
:102FC00074F4413051056105710509F40BC34031BA
:102FD00051056105710509F4ECC10C94FB5D4331A9
:102FE00051056105710509F4A6C40CF4C5C440324D
:102FF00051056105710511F40C948D200C94FB5D55
:103000004D3351056105710509F421C47CF4413348
:1030100051056105710509F46BC44533510561051E
:10302000710511F40C9432210C94FB5D433551056C
:103030006105710509F4F0C2473551056105710557
:1030400009F493C4443451056105710511F00C94E1
:10305000FB5D98C7483951056105710511F40C9461
:1030600007210CF04CC04B3751056105710509F47F
:1030700027C674F44A3551056105710509F420C667
:10308000463751056105710509F499C40C94FB5D3F
:10309000493851056105710509F471C24739510577
:1030A0006105710511F40C9418214E375105610525
:1030B000710511F00C94FB5D40E050E066E08BE19F
:1030C0000F94265840E050E060E181E20F942658CA
:1030D00040E050E062E181E20F94265840E050E089
:1030E00063E181E20F94265840E050E06EE781E210
:1030F0000F94265881E4809325020C94FB5D4D3992
:1031000051056105710511F40C94DB209CF44B39D9
:1031100051056105710511F40C94A52014F00C946F
:10312000AE204A3951056105710511F40C949C20BB
:103130000C94FB5D443A51056105710509F4ADC578
:103140000CF085C5433A51056105710511F00C94E9
:10315000FB5D8091F1089091F208A091F308B09185
:10316000F40880648093F1089093F208A093F30828
:10317000B093F4080C94FB5D413F51056105710566
:1031800009F430C20CF093C0423E5105610571054F
:1031900009F4CDC40CF04EC0493A510561057105E2
:1031A00009F468C504F5473A51056105710509F44C
:1031B0003BC5483A51056105710511F00C94FB5D62
:1031C0008091F1089091F208A091F308B091F40871
:1031D00098608093F1089093F208A093F308B0935D
:1031E000F4080C94FB5D4E3B51056105710509F433
:1031F00072C3433D51056105710511F40C941E2203
:103200004A3A51056105710511F00C94FB5D8091FE
:10321000F1089091F208A091F308B091F408806150
:103220008093F1089093F208A093F308B093F40808
:103230000C94FB5D4A3E51056105710509F48EC190
:1032400014F5443E51056105710509F438C40CF4C8
:10325000E5C3453E51056105710511F00C94FB5D18
:103260008091F1089091F208A091F308B091F408D0
:1032700084608093F1089093F208A093F308B093D0
:10328000F4080C94FB5D4E3E51056105710509F48F
:10329000A1C14F3E51056105710509F4D7C14D3EED
:1032A00051056105710511F00C94FB5DC9C04B3FE0
:1032B00051056105710509F4DDC354F5473F51051A
:1032C0006105710509F40EC474F4423F51056105AE
:1032D000710509F4A1C1463F51056105710509F465
:1032E00039C40C94FB5D8091F1089091F208A09193
:1032F000F308B091F4082091C5023091C602493F0D
:1033000051056105710509F476C40CF45BC499C3D9
:103310004E3631E053076105710509F483C09CF511
:10332000483691E059076105710509F492C74A369C
:10333000A1E05A076105710509F474C04536514092
:103340006105710511F00C94FB5D40E050E06AE20C
:103350008AE00F94265840E050E064E581E20F9443
:1033600026581092C91260EA79E086E20F94345927
:103370008091830A9091840A98609093840A809344
:10338000830A0C94FB5D4937E1E05E076105710536
:1033900009F40DC64538F1E05F076105710509F4D0
:1033A0005CC1483751406105710511F00C94FB5D1B
:1033B0006AC580912502813419F541E050E066E04C
:1033C0008BE10F94265841E050E060E181E20F94D8
:1033D000265841E050E062E181E20F94265841E036
:1033E00050E063E181E20F94265841E050E06EE73F
:1033F00081E20F94265884E4809325020C94FB5DAF
:10340000843411F00C94FB5D8091830A9091840ABE
:1034100080649093840A8093830A85E480932502D4
:103420000C94FB5D8091830A9091840A9260909342
:10343000840A8093830A84E4809325020C94FB5DC4
:1034400080912502823419F583E48093250241E0BE
:1034500050E063E08BE10F94265841E050E067E5CF
:1034600081E20F94265841E050E066E781E20F9434
:10347000265841E050E06DEE81E20F94265841E07D
:1034800050E069E881E20F9426580C94FB5D833488
:1034900011F00C94FB5D11E01093ED0840E050E05A
:1034A00068E981E20F94265840E050E067E981E244
:1034B0000F94265840E050E06CE981E20F942658C2
:1034C00040E050E06DE981E20F94265841E050E081
:1034D0006AE481E20F94265840E050E06CE28AE012
:1034E0000F9426581093C9128FEF9FEF90932002EC
:1034F00080931F0240E050E06AE981E20F94265871
:1035000040E050E06BE981E20F94265860917D1411
:1035100070917E1480917F14909180140F9456C8FE
:10352000AB0166E289E00F94265860918114709196
:10353000821480918314909184140F9456C8AB0127
:1035400067E289E00F94265840E050E068E289E0A5
:103550000F9426581092B21E0C94FB5D40E050E090
:103560006EE681E20F9426588091830A9091840A36
:1035700092609093840A8093830A0C94FB5D8091FF
:103580002502833411F00C94FB5D82E480932502C4
:1035900040E050E063E08BE10F94265840E050E0BB
:1035A00067E581E20F94265840E050E066E781E24B
:1035B0000F94265840E050E06DEE81E20F942658BB
:1035C00040E050E069E881E20F9426581092C91259
:1035D0000C94FB5D40E050E064E58AE00F942658CF
:1035E0000C94FB5D80E00F9482318091830A90916E
:1035F000840A82609093840A8093830A81E0809396
:10360000CD1240E050E068E08AE00F94265881E453
:103610008093CE120C94FB5D8091880A882311F46C
:103620000C94FB5D41E050E08091850A8A3011F4F2
:1036300040E050E066E18BE10F94265840E050E016
:1036400062E58AE00F9426580C94FB5D89E4809330
:103650001D020F94CE670C94FB5D8091AE1E90917D
:10366000AF1E90939612809395120F94C03C809158
:10367000B01E9091B11E90939812809397120F9460
:10368000C03C82E48093250282E580931D0281E0A4
:103690008093C9128091850AE1E08A3009F4E0E064
:1036A000E0939F09F0E0EE0FFF1FEB56FD4E2081E7
:1036B00031813093C9082093C8088A3029F4809159
:1036C0002B0C90912C0C04C080912F0C9091300CFD
:1036D000918380830F94C03C81E48093CE1240E0BC
:1036E00050E068E08AE00F94265840E050E064E53E
:1036F00081E20F94265880E090E0A3E4B3E4809345
:10370000B8129093B912A093BA12B093BB128090E2
:10371000E50C9090E60CA090E70CB090E80C20919E
:10372000B4123091B5124091B6125091B712609117
:10373000B0127091B1128091B2129091B312E3EA7B
:103740006E2EE2E17E2E7F926F92FCEBCF2EF2E1A5
:10375000DF2EE12CF12C03E413E40E94DAEF0F9446
:10376000244080E090E0A0E2B1E48093B412909312
:10377000B512A093B612B093B7128090E10C90905E
:10378000E20CA090E30CB090E40CE090B812F09042
:10379000B9120091BA121091BB126091B0127091DF
:1037A000B1128091B2129091B3127F926F9220E089
:1037B00030E040E251E40E94DAEF0F9424400F9091
:1037C0000F900F900F908091CE128E3411F40C94C4
:1037D000232A1092CE120E94A46540E050E060E2DD
:1037E00089E00F94265840E050E064E28AE00F94AC
:1037F000265800919F0910E0F801EE0FFF1FEE0F11
:10380000FF1FE358FB4E60817181828193810F9489
:1038100056C87093EB086093EA08000F111FF80177
:10382000EB56FD4E808191810A979093E908809331
:10383000E8081092E7081092E60889E48093CE1217
:103840000E94A46581E08093EC080C94FB5D80915C
:10385000250240E050E08134B1F469E08AE00F9441
:10386000265860EA79E082E00F9434598091830A07
:103870009091840A98609093840A8093830A1092AE
:10388000C9120C94FB5D6AE28AE00F94265860EA44
:1038900079E086E20F9434598091830A9091840AEA
:1038A00098609093840A8093830A1092C9120C94B2
:1038B000FB5D80912A0C81110C94FB5D80913C1B77
:1038C00081110C94FB5D40E050E069E38AE00F94C5
:1038D00026580C94FB5D80912A0C81110C94FB5DA1
:1038E00040E050E061E08AE00F9426580C94FB5DC4
:1038F00080912A0C81110C94FB5D109125021134EA
:1039000011F00C94FB5D10923B1B81E080933C1BFB
:1039100040E050E068E08AE00F9426581093CE1201
:103920008091830A9091840A94609093840A809392
:10393000830A0C94FB5D80912502813439F440E0C8
:1039400050E061E08AE00F9426580BC0843449F4BB
:103950008091830A9091840A90619093840A809365
:10396000830A1092B21E0C94FB5D80912502823472
:1039700031F38334B1F7ECCF80912502992369F0BC
:10398000813459F48091830A9091840A88609093DD
:10399000840A8093830A0C94FB5D843411F00C94A8
:1039A000FB5D8091830A9091840A80689093840AD9
:1039B0008093830A86E4809325020C94FB5D8091BA
:1039C0003C1B882311F40C94FB5D8091250282340A
:1039D00059F48091830A9091840A80619093840ABB
:1039E0008093830A0C94FB5D833411F00C94FB5D8F
:1039F00040E050E066E18AE00F94265841E050E054
:103A000064E581E20F94265882E580931D0281E0EF
:103A10008093C9121092B21E0C94FB5D8091F10844
:103A20009091F208A091F308B091F4088860809317
:103A3000F1089093F208A093F308B093F4080C9463
:103A4000FB5D2330310559F4A1608093F108909318
:103A5000F208A093F308B093F4080C94FB5D846023
:103A60008093F1089093F208A093F308B093F408C0
:103A70000C94FB5D2091C5023091C6028091F10843
:103A80009091F208A091F308B091F4082330310529
:103A900059F4A2608093F1089093F208A093F30880
:103AA000B093F4080C94FB5D88608093F1089093C8
:103AB000F208A093F308B093F4080C94FB5D809196
:103AC000F1089091F208A091F308B091F408816098
:103AD0008093F1089093F208A093F308B093F40850
:103AE0000C94FB5D2091C5023091C6028091F108D3
:103AF0009091F208A091F308B091F40823303105B9
:103B000059F490618093F1089093F208A093F30820
:103B1000B093F4080C94FB5D81608093F10890935E
:103B2000F208A093F308B093F4080C94FB5D809125
:103B3000F1089091F208A091F308B091F408826026
:103B40008093F1089093F208A093F308B093F408DF
:103B50000C94FB5D2091C5023091C6028091F10862
:103B60009091F208A091F308B091F4082330310548
:103B700059F490628093F1089093F208A093F308AF
:103B8000B093F4080C94FB5D82608093F1089093ED
:103B9000F208A093F308B093F4080C94FB5D8091B5
:103BA000F1089091F208A091F308B091F4088062B6
:103BB0008093F1089093F208A093F308B093F4086F
:103BC0000C94FB5D2330310559F490648093F10827
:103BD0009093F208A093F308B093F4080C94FB5D63
:103BE00080628093F1089093F208A093F308B09359
:103BF000F4080C94FB5D2330310559F490688093F0
:103C0000F1089093F208A093F308B093F4080C9491
:103C1000FB5D80618093F1089093F208A093F30814
:103C2000B093F4080C94FB5D8091F1089091F20838
:103C3000A091F308B091F40891608093F1089093FB
:103C4000F208A093F308B093F4080C94FB5D809104
:103C5000F1089091F208A091F308B091F4088068FF
:103C60008093F1089093F208A093F308B093F408BE
:103C70000C94FB5D8091F1089091F208A091F308FB
:103C8000B091F40892608093F1089093F208A093A9
:103C9000F308B093F4080C94FB5D8091F1089091C7
:103CA000F208A091F308B091F40894608093F108B1
:103CB0009093F208A093F308B093F4080C94FB5D82
:103CC0004A3551056105710519F410929F0903C029
:103CD00081E080939F0980919F09E82FF0E0EE0F2B
:103CE000FF1FEB56FD4E208131813093C908209390
:103CF000C808811105C080912B0C90912C0C04C038
:103D000080912F0C9091300C918380830F94C03C54
:103D100081E48093CE1240E050E068E08AE00F94A6
:103D2000265840E050E064E581E20F94265880E098
:103D300090E0A3E4B3E48093B8129093B912A093F7
:103D4000BA12B093BB128090E50C9090E60CA09054
:103D5000E70CB090E80C2091B4123091B51240916C
:103D6000B6125091B7126091B0127091B112809159
:103D7000B2129091B312E3EA6E2EE2E17E2E7F92B0
:103D80006F92FCEBCF2EF2E1DF2EE12CF12C03E45D
:103D900013E40E94DAEF0F94244080E090E0A0E268
:103DA000B1E48093B4129093B512A093B612B0937D
:103DB000B7128090E10C9090E20CA090E30CB090D0
:103DC000E40CE090B812F090B9120091BA12109180
:103DD000BB126091B0127091B1128091B2129091A9
:103DE000B3127F926F9220E030E040E251E40E94F3
:103DF000DAEF0F9424400F900F900F900F90809166
:103E0000CE128E3411F40C94232A1092CE120E94FA
:103E1000A46540E050E060E289E00F94265840E05D
:103E200050E064E28AE00F94265800919F0910E068
:103E3000F801EE0FFF1FEE0FFF1FE358FB4E6081EE
:103E40007181828193810F9456C87093EB086093BF
:103E5000EA08000F111FF801EB56FD4E8081918199
:103E60000A979093E9088093E8081092E708109267
:103E7000E60889E48093CE120E94A46581E08093D5
:103E8000EC080C94FB5D40E050E060E289E00F94A8
:103E9000265840E050E064E28AE00F94265889E416
:103EA0008093CE120E94A46500919F0901111DC04C
:103EB00080912D0C90912E0C6091FB117091FC1152
:103EC000681779072CF4BC01990F880B990B04C073
:103ED000072E000C880B990B0F9421C00F9456C825
:103EE000709396126093951220C08091310C90913E
:103EF000320C6091F5117091F611681779072CF466
:103F0000BC01990F880B990B04C0072E000C880B7D
:103F1000990B0F9421C010E0000F111F0B561D4E7E
:103F20000F9456C8D8016D937C930F94C03C0091B8
:103F30009F0910E0F801EE0FFF1FEE0FFF1FE3587F
:103F4000FB4E60817181828193810F9456C870937A
:103F5000EB086093EA08000F111FF801EB56FD4EC5
:103F6000808191810A979093E9088093E8081092E4
:103F7000E7081092E6080E94A46581E08093EC08AF
:103F80000C94FB5D80913902882311F40C94095E36
:103F900080919F09811102C08AE101C086E30E94DD
:103FA000049E892B11F00C94095E0C94FB5D0F9418
:103FB00058190C94FB5D8091EF0881FF02C00C94AE
:103FC000FB5D8091630A9091620A98130C948B5F59
:103FD00040E050E06BE084E10F94265840E050E070
:103FE00065E18AE00F94265882E48093CE12809394
:103FF0004E13E0919F0944E0E49FF0011124E35542
:10400000FD4F80819181A281B3818093B012909302
:10401000B112A093B212B093B312E090B812F09024
:10402000B9120091BA121091BB122091B4123091C2
:10403000B5124091B6125091B712E091A31264E00C
:10404000E69FF0011124E355FD4F6081718182816B
:1040500093810F94B659E090B812F090B912009184
:10406000BA121091BB122091B4123091B512409146
:10407000B6125091B7126091B0127091B112809146
:10408000B2129091B312EFE9F9E0FF93EF93812C14
:10409000912CE8E4AE2EE3E4BE2EFCEBCF2EF2E151
:1040A000DF2E0E94DAEFE091A31284E0E89FF00196
:1040B0001124E355FD4F80819181A281B3818093CA
:1040C000B0129093B112A093B212B093B312E091D8
:1040D0009F09F0E0EE0FFF1FEB56FD4E8091C808E0
:1040E0009091C908918380830F94C03C1092880AF4
:1040F0000F9424400F900F900C94FB5D8091EF087B
:1041000081FF02C00C94FB5D9091630A2091620ACA
:1041100029130C948B5F0C948E5F8091EF0881FFC4
:1041200002C00C94FB5D9091630A2091620A2913EE
:104130000C948B5F0C94925F8091630A9091620A59
:1041400098130C94FB5D0C94965F9091630A809198
:10415000620A98130C94FB5D0C942160E0911F029D
:10416000F0912002EF3F3FEFF30711F40C94FB5D59
:10417000EE0FFF1FEB56FD4E808191818B3341E0A6
:10418000940714F00C94FB5D0596918380830F9443
:10419000C03C0F94C03CE0911F02F0912002EE0F52
:1041A000FF1FEB56FD4E4081518168E289E00F947C
:1041B00026580C94FB5DE0911F02F0912002EF3F26
:1041C0005FEFF50711F40C94FB5DEE0FFF1FEB564C
:1041D000FD4E808191811816190614F00C94FB5D38
:1041E0000597918380830F94C03C0F94C03CE0916D
:1041F0001F02F0912002EE0FFF1FEB56FD4E408193
:10420000518168E289E00F9426580C94FB5D8091FF
:104210001F0290912002019611F40C94FB5D909185
:10422000630A8091620A98130C948B5F0C94AF60C0
:1042300080911F0290912002019611F40C94FB5D75
:104240009091630A8091620A98130C948B5F0C948E
:10425000B5609091630A8091620A98130C94FB5D9B
:104260000C94BB6070904E13B2E47B120C94FB5D17
:104270001092CE128091830A9091840A8D7F909340
:10428000840A8093830A80911D02823531F489E487
:1042900080931D020F94CE67CDC0893409F0CAC047
:1042A00081E48093CE1240E050E068E08AE00F9411
:1042B00026582090D9093090DA094090DB095090B7
:1042C000DC092092B4123092B5124092B61250928C
:1042D000B71220E030E040E752E460917002709144
:1042E000710280917202909173020F94AAC74B01E0
:1042F0005C01E090B812F090B9120091BA121091DE
:10430000BB126091B0127091B1128091B212909173
:10431000B31223EA32E13F932F93BCEBCB2EB2E1F1
:10432000DB2EA20191010E94DAEF0F9424400F903E
:104330000F908091CE128E3411F40C94232A20E039
:1043400030E040E251E46091DD097091DE09809136
:10435000DF099091E0090F94BCC67B018C0160934A
:10436000B8127093B9128093BA129093BB128091D5
:10437000D40989838090740290907502A09076028F
:10438000B09077022091B4123091B5124091B612DC
:104390005091B7126091B0127091B1128091B21227
:1043A0009091B312FE013196FF93EF930E94DAEFE2
:1043B0000F9424400F900F908091CE128E3411F400
:1043C0000C94232A1092CE127092250240E050E005
:1043D00063E08BE10F94265840E050E067E581E20E
:1043E0000F94265840E050E066E781E20F9426588B
:1043F00040E050E06DEE81E20F94265840E050E03E
:1044000069E881E20F94265840E050E06AE28AE0D1
:104410000F9426581092C91260EA79E086E20F9450
:1044200034598091830A9091840A98609093840A09
:104430008093830A10924E130C94FB5D80919F131E
:104440001092CE128823E9F010929F138091830A74
:104450009091840A98609093840A8093830A809153
:10446000250240E050E0813431F469E08AE00F94A5
:1044700026580C94FB5D6AE28AE00F9426580C944F
:10448000FB5D109256121092C912E2E9F8E0849195
:104490008F01882351F0082E000C990B0F941D9466
:1044A0000F5F1F4FF8018491F4CF10923D0C81E013
:1044B0000F94331440E050E065E08AE00F942658F2
:1044C0000C94FB5D90919A09292F287093FF90C35B
:1044D00080919E09823008F48BC3413B51056105F0
:1044E000710509F4A8C0B4F544365105610571059C
:1044F00009F4A1C1A4F44E3551056105710509F413
:10450000F0C24F3551056105710509F41CC34533EF
:1045100051056105710511F00C94FB5D27C3403A0C
:1045200051056105710509F4C8C0423A510561059C
:10453000710509F46AC0433851056105710511F030
:104540000C94FB5D40E050E06DE68AE00F94265845
:104550000C94FB5D4233F1E05F076105710509F4DE
:104560005CC13CF5453C51056105710509F479C014
:104570004C3C51056105710509F489C0423B510568
:104580006105710511F00C94FB5D0F943A1941E03F
:1045900050E062EB81E20F94265841E050E060EA7F
:1045A00081E20F94265810925602109255020C94F4
:1045B000FB5D463331E053076105710509F417C10E
:1045C000ACF4433351406105710511F00C94FB5D6F
:1045D0008DEF9FEF9093501380934F1340E050E086
:1045E0006AE08AE00F9426580C94FB5D4E37A1E0F8
:1045F0005A076105710509F4F2C148385140610557
:10460000710509F424C10C94FB5D0F943A1941E043
:1046100050E062EA81E20F94265841E050E060EAFF
:1046200081E20F9426588EEF9FEF9093560280936D
:1046300055020C94FB5D0F943A1941E050E061EB98
:1046400081E20F94265841E050E060EA81E20F9445
:1046500026588FEF9FEF90935602809355020C944B
:10466000FB5D0F943A1941E050E065EC81E20F9454
:10467000265841E050E060EA81E20F94265881E03C
:1046800090E090935602809355020C94FB5D0F943A
:104690003A1941E050E06CEC81E20F94265841E079
:1046A00050E060EA81E20F94265882E090E0909317
:1046B0005602809355020C94FB5D009155021091B7
:1046C000560298012E5F3F4F2530310510F00C94B3
:1046D000FB5D8230D9F583E080939E0940E050E095
:1046E00061E18AE00F94265880E58093CE12809194
:1046F0009B09800F80939B0900E010E020E030E0F0
:104700004CE553EC60E070E088E393EC0F946CAB05
:104710000F943A1980E697E09093560280935502E1
:1047200040E050E060EA81E20F94265842E050E019
:104730006CE08BE10F94265840E050E069E18AE09C
:104740000F9426581092CE120C94FB5D8330D9F54D
:1047500084E080939E0940E050E061E18AE00F949C
:10476000265880E58093CE1280919C09800F80931B
:104770009C0900E010E020E030E04CE553EC60E004
:1047800070E080E493E40F946CAB0F943A1980E6E8
:1047900097E0909356028093550240E050E060EA23
:1047A00081E20F94265842E050E06CE08BE10F94D8
:1047B000265840E050E069E18AE00F9426581092B4
:1047C000CE120C94FB5D843011F00C94FB5D809153
:1047D0009D09800F80939D0940E050E06EE28AE0E1
:1047E0000F9426588FE48093CE120C94FB5D0F94A7
:1047F0003A1940E050E060EA81E20F94265840E028
:1048000050E069E18AE00F94265880E697E09093A3
:104810005602809355020C94FB5D83E090E09093E8
:10482000501380934F1340E050E06AE08AE00F9409
:1048300026580C94FB5D1092501310924F1340E0D9
:1048400050E06AE08AE00F9426580C94FB5D40E04B
:1048500050E068E08AE00F94265881E48093CE12FD
:1048600041E061E081E00F946A011092CE120F9452
:1048700024400F94DB1A10914F1380919E098230CF
:10488000B1F540E050E061E18AE00F94265880E500
:104890008093CE1200919B09010F00939B09002E7B
:1048A000000C110B20E030E0A901CA01B9010F94FE
:1048B0006CAB0F943A1980E697E090935602809380
:1048C000550240E050E060EA81E20F94265842E051
:1048D00050E06CE08BE10F94265840E050E069E135
:1048E0008AE00F9426581092CE120C94FB5D833010
:1048F000C9F540E050E061E18AE00F94265880E578
:104900008093CE1200919C09010F00939C09002E08
:10491000000C110B20E030E04CE553EC60E070E05F
:1049200088E393EC0F946CAB0F943A1980E697E010
:10493000909356028093550240E050E060EA81E295
:104940000F94265842E050E06CE08BE10F9426581B
:1049500040E050E069E18AE00F9426581092CE12B0
:104960000C94FB5D843011F00C94FB5D40E050E052
:1049700061E18AE00F94265880E58093CE12009181
:104980009D09010F00939D09002E000C110B20E0E2
:1049900030E04CE553EC60E070E080E493E40F9489
:1049A0006CAB0F943A1980E697E09093560280938F
:1049B000550240E050E060EA81E20F94265842E060
:1049C00050E06CE08BE10F94265840E050E069E144
:1049D0008AE00F9426581092CE120C94FB5D109230
:1049E000CE1280919B0940919C09042F081B409195
:1049F0009D09142F181B602F002E000C770B880BBD
:104A0000990B0F9421C02DEC3CEC4CEC5DEB0F941A
:104A100029BB6093350A7093360A8093370A9093C6
:104A2000380A612F012E000C770B880B990B0F941D
:104A300021C02DEC3CEC4CEC5DEB0F9429BB60935A
:104A4000310A7093320A8093330A9093340A002318
:104A5000A1F040E050E06FE18AE00F94265807FF94
:104A600007C0E02FFF27E1950CF4F09508E00E0F4A
:104A7000402F000F550B64E015C01123B9F040E042
:104A800050E060E28AE00F94265817FF07C0212FFC
:104A9000332721950CF4309518E0120F412F110F98
:104AA000550B65E08BE10F94265811C014E4109368
:104AB0004E1340E050E06BE084E10F94265840E054
:104AC00050E065E18AE00F9426581093CE128DEEE7
:104AD00090E09093300A80932F0A0F944A640C94CC
:104AE000FB5D40919D0980919B09142F181BC1F01B
:104AF00040E050E060E28AE00F94265817FF07C0BC
:104B0000812F992781950CF4909518E0180F412F6B
:104B1000110F550B65E08BE10F9426580C94FB5D4B
:104B200014E410934E1340E050E06BE084E10F94E6
:104B3000265840E050E065E18AE00F942658109333
:104B4000CE120C94FB5D14E410934E1340E050E041
:104B50006BE084E10F94265840E050E065E18AE084
:104B60000F9426581093CE120C94FB5D80914E1337
:104B7000843411F00C94FB5D10929E09977F909302
:104B80009A091092CE121092901210928F120F94D6
:104B90007C3C10929612109295120F94C03C109289
:104BA0009812109297120F94C03C109256121092C5
:104BB000C912E7E8F8E084918F01882351F0082EAC
:104BC000000C990B0F941D940F5F1F4FF8018491F7
:104BD000F4CF10923D0C80E00F94331440E050E08D
:104BE00065E08AE00F94265810924E130C94FB5DFA
:104BF0004E38F1E05F0710F00C94FB5DFA01882756
:104C0000EE58FF4F8F4F0D942ECB80912302909141
:104C10002402826090932402809323020C94FB5D13
:104C200080912302909124028460909324028093C7
:104C300023020C94FB5D80912302909124028860F2
:104C400090932402809323020C94FB5D80912302B5
:104C500090912402806190932402809323020C940B
:104C6000FB5D809123029091240280629093240244
:104C7000809323020C94FB5D0F94D832009781F44B
:104C80008091230290912402946090932402809357
:104C90002302809180128150809380120C94FB5DDE
:104CA000019711F00C94FB5D8091230290912402F6
:104CB0009460909324028093230240E050E067E3E5
:104CC00081E20F94265840E050E061E08BE10F94C0
:104CD0002658809180128150809380120C94FB5D45
:104CE000109256121092C912ECE7F8E084918F01ED
:104CF000882351F0082E000C990B0F941D940F5F20
:104D00001F4FF8018491F4CF10923D0C81E00F9475
:104D1000331440E050E065E08AE00F9426580C948C
:104D2000FB5D80913D1B882311F40C94FB5D41E0F9
:104D300061E08EE39BE10F945A358FEF9FEF9093E4
:104D40002C1B80932B1B412C512C320173016201CF
:104D500000E010E0FAEDAF2EFAE1BF2E9E012F5FCA
:104D60003F4F190188248394912C4091DC1D509170
:104D7000DD1D6091DE1D7091DF1D8091371D9091CA
:104D8000381DA091391DB0913A1D84179507A607CB
:104D9000B70708F06DC0D501E2E31D92EA95E9F787
:104DA0000F943C5B0196D9F41092261B1092251BA0
:104DB0001092281B1092271B81E090E090932A1BF1
:104DC0008093291B1092361B1092351B1092381BB2
:104DD0001092371B80E00F9482310C94D56001153E
:104DE000110521F52FEF3FEF3A8329833F922F9250
:104DF00043EB5DE25F934F93BF92AF920F94FABF84
:104E000089819A810F900F900F900F900F900F90C3
:104E1000019639F090922C1B80922B1B07E010E03A
:104E200021C010922C1B10922B1B1CC080E00F94F1
:104E300044B76B017C0181E00F9444B72B013C0126
:104E400020E030E0A901C701B6010F9494C91816FB
:104E50007CF020E030E0A901C301B2010F9494C9B5
:104E6000181634F00F5F1F4F0E3111050CF47DCF73
:104E700080E00F94823120E030E0A901C701B60143
:104E80000F941BC018165CF020E030E0A901C301AC
:104E9000B2010F941BC0181614F00C94D5608090CA
:104EA000570290905802A0905902B0905A02A50162
:104EB0009401C701B6010F941BC0811114C020E0FA
:104EC00030E0A901C701B6010F9494C918165CF42B
:104ED00020E030E0A901C301B2010F941BC01816F5
:104EE00014F00C94D56020915B0230915C024091EB
:104EF0005D0250915E02C65EDE4F288339834A838D
:104F00005B83CA51D140C301B2010F941BC0811110
:104F10001EC020E030E0A901C301B2010F9494C982
:104F200018165CF420E030E0A901C701B6010F9427
:104F30001BC0181614F00C94D560A5019401C7018C
:104F4000B6010F941BC0882311F40C94D56020E0A7
:104F500030E0A901C701B6010F941BC020E030E08A
:104F600040E251E418161CF0C501B40102C0C701AB
:104F7000B6010F9429BB0F9456C86093080220E035
:104F800030E0A901C301B2010F941BC020E030E062
:104F900040E251E418164CF0C65EDE4F688179811C
:104FA0008A819B81CA51D14002C0C301B2010F94D2
:104FB00029BB0F9456C86093090240E050E06FE5AA
:104FC0008AE00F94265860915702709158028091A0
:104FD000590290915A020F9456C8AB016DE489E0D2
:104FE0000F94265820E030E040E251E460915702EF
:104FF000709158028091590290915A020F9429BBE6
:105000000F9456C80AE010E0CB01B8010F94FFCA14
:10501000AC016EE489E00F94265860915B027091B8
:105020005C0280915D0290915E020F9456C8AB01C4
:105030006FE489E00F94265820E030E040E251E42C
:1050400060915B0270915C0280915D0290915E02C2
:105050000F9429BB0F9456C8CB01B8010F94FFCA17
:10506000AC0160E589E00F942658809108021AE0AF
:10507000612F0F94DECA482F880F550B61E589E038
:105080000F94265880910802612F0F94DECA492F91
:10509000990F550B62E589E00F942658809109021B
:1050A000612F0F94DECA482F880F550B63E589E006
:1050B0000F94265880910902612F0F94DECA492F60
:1050C000990F550B64E589E00F942658BCC1809177
:1050D0003D1B882311F40C94FB5D80918D1B811185
:1050E0000C94FB5DCDB6DEB68091F5089091F60884
:1050F0000F94D434EEE3FBE1DF010D900020E9F7DB
:105100008DB79EB78A1B9B0B9C01265C344E0FB655
:10511000F8943EBF0FBE2DBF0DB71EB70F5F1F4FD8
:10512000FF93EF938CE198E09F938F931F930F93DE
:105130000F94CCBF780134E0E30EF11C0F900F9078
:105140000F900F900F900F90D7018C91882349F00A
:10515000082E000C990B0F94ACCDF70181937F01C1
:10516000F3CFC8010F94A51488E198E00F9436148A
:105170000FB6F894DEBE0FBECDBE0C94FB5D81E091
:105180008093561280912302909124029260909312
:105190002402809323020C94FB5D80912302909162
:1051A0002402916090932402809323020C94FB5D6F
:1051B000809123029091240280689093240280932E
:1051C00023020C94FB5D40E050E062E18AE00F9422
:1051D00026580C94FB5D40E050E06CE18AE00F94AF
:1051E000265880E00F9433141092BD131092BC1314
:1051F0001092BB1381E080933D0C0C94FB5D1092E8
:1052000056121092C912EDE0F8E084918F018823C4
:1052100051F0082E000C990B0F941D940F5F1F4F37
:10522000F8018491F4CF10923D0C0E94A46581E0B6
:105230000F94331440E050E065E08AE00F94265864
:105240000C94FB5D8091951290919612892B29F018
:10525000109296121092951208C08091600C909155
:10526000610C90939612809395120F94C03C10920B
:10527000BD130C94FB5D8091971290919812892B2D
:1052800029F0109298121092971208C080915D0C2C
:1052900090915E0C90939812809397120F94C03C5B
:1052A0001092BC130C94FB5D80918F129091901220
:1052B000892B29F01092901210928F121CC08091AD
:1052C00098099091990960919609709197096817CA
:1052D00079072CF4BC01990F880B990B04C0072E99
:1052E000000C880B990B0F9421C00F9456C8709333
:1052F000901260938F120F947C3C1092BB130C940D
:10530000FB5D89E098E00F9436140C94FB5D40E05F
:1053100050E06EE18AE00F9426580C94FB5D40E06B
:1053200050E065E08AE00F942658109256121092D1
:10533000C912EEEFF7E084918F01882351F0082E17
:10534000000C990B0F941D940F5F1F4FF80184916F
:10535000F4CF10923D0C88E793E090934402809341
:1053600043020F944A640C94FB5D40E050E06AE114
:105370008AE00F9426580F94E12F80913D1B8823DB
:1053800011F40C94FB5D80917F1280938012B7E53D
:10539000EB2EB2E1FB2E1BE6C12E12E1D12E00E076
:1053A00010E080917F1290E008171907FCF46EE37B
:1053B0007BE185EB9BE10F9476825701D7018D91BC
:1053C0009D917D010F94D434F50180819181D601A6
:1053D0008D939D936D0180918D1B882321F08EE329
:1053E0009BE10F9469390F5F1F4FDBCF87E090E09F
:1053F0000F940E6D0C94FB5D8091430290914402DA
:105400008036974041F488E793E09093440280937C
:1054100043020F944A6440E050E068E08AE00F9451
:10542000265881E48093CE128091660C8823D1F0B7
:1054300040E061E081E00F946A010F942440809184
:10544000CE128E3489F48FEF9FEFDC0180939902A6
:1054500090939A02A0939B02B0939C021092F7083B
:105460000C947F6541E0E5CF81E00F9433141092F6
:10547000CE128BEF97E00F9436140F942440809156
:10548000CE128E3401F340E050E06BE08AE00F94DE
:1054900026580C94FB5D40E050E064E08AE00F94F5
:1054A00026580C94FB5D40E050E064E28AE00F94E3
:1054B00026588091BA1382608093BA1389E480934E
:1054C000CE1240E050E060E289E00F9426586091EF
:1054D000600C7091610C072E000C880B990B0F94D7
:1054E00021C040E050E00F94D18C0F944A646BE2ED
:1054F00075E081EB98E10F9422946EE275E081EB08
:1055000098E10F9422946091160370911703809193
:1055100018039091190342E050E00F942A3362E39C
:1055200075E081EB98E10F9422942DEB37E346E090
:105530005EE360910E0370910F03809110039091D0
:1055400011030F94AAC742E050E00F942A3366E398
:1055500075E081EB98E10F9422942DEB37E346E060
:105560005EE36091060370910703809108039091B8
:1055700009030F9429BB42E050E00F942A33609155
:105580005D0C70915E0C072E000C880B990B0F942C
:1055900021C041E050E00F94D18C0F944A646BE23B
:1055A00075E081EB98E10F9422946EE275E081EB57
:1055B00098E10F94229460911A0370911B038091DB
:1055C0001C0390911D0342E050E00F942A3362E3E4
:1055D00075E081EB98E10F9422942DEB37E346E0E0
:1055E0005EE3609112037091130380911403909114
:1055F00015030F94AAC742E050E00F942A3366E3E4
:1056000075E081EB98E10F9422942DEB37E346E0AF
:105610005EE360910A0370910B0380910C039091FB
:105620000D030F9429BB42E050E00F942A331092EF
:10563000CE120E94A46540E050E06BE084E10F943C
:10564000265840E050E065E18AE00F94265881E05A
:105650000F94331484E480934E138093CE120C94F1
:10566000FB5D40E050E068E28AE00F9426580C941D
:10567000FB5D40E050E062E18AE00F9426580C9414
:10568000FB5D109256121092C912E0EFF7E0849180
:105690008F01882351F0082E000C990B0F941D9454
:1056A0000F5F1F4FF8018491F4CF10923D0C0E94C0
:1056B000A46540E050E065E08AE00F9426580C9421
:1056C000FB5D40E050E062E18AE00F9426580C94C4
:1056D000FB5D82E580931D028091BA138160809307
:1056E000BA1340E050E06BE581E20F94265840E0A9
:1056F00050E06CE581E20F94265840E050E060E015
:105700008BE10F94265840E050E06AE781E20F9465
:10571000265840E050E069E781E20F94265840E0C7
:1057200050E06DE18AE00F9426588FEF80939F0937
:105730000C94FB5D40E050E06CE68AE00F94265844
:105740000C94FB5D40E050E062E18AE00F94265843
:1057500040E050E06BE581E20F94265840E050E0D5
:105760006CE581E20F94265840E050E060E08BE168
:105770000F94265840E050E06AE781E20F942658E3
:1057800040E050E069E781E20F9426588091BA1317
:105790008E7F8093BA130C94FB5D10925612109278
:1057A000C912E5EEF7E084918F01882351F0082EAD
:1057B000000C990B0F941D940F5F1F4FF8018491FB
:1057C000F4CF10923D0C40E050E065E08AE00F9489
:1057D000265840E050E06BE581E20F94265840E007
:1057E00050E06CE581E20F94265840E050E060E024
:1057F0008BE10F94265840E050E06AE781E20F9475
:10580000265840E050E069E781E20F9426588091E5
:10581000BA138E7F8093BA130C94FB5D41E050E085
:105820006BE581E20F94265840E050E06CE581E2A0
:105830000F94265841E050E060E08BE10F94265829
:1058400041E050E06AE781E20F94265841E050E0E1
:1058500069E781E20F94265810929F090C94FB5D32
:1058600040E050E06BE581E20F94265841E050E0C3
:105870006CE581E20F94265841E050E060E08BE156
:105880000F94265841E050E06AE781E20F942658D1
:1058900041E050E069E781E20F94265881E080936F
:1058A0009F090C94FB5D80914302909144028036E5
:1058B000974041F488E793E0909344028093430239
:1058C0000F944A6480919F098F3F11F40C94FB5D03
:1058D0000F9492B50C94FB5D809143029091440229
:1058E0008036974041F488E793E090934402809398
:1058F00043020F944A64E0919F09EF3F11F40C9426
:10590000FB5D81E08093CC12F0E0EE0FFF1FEB56C1
:10591000FD4E84E091E0918380830F94C03C81E44C
:105920008093CE1240E050E068E08AE00F94265861
:105930008091660C882311F040E001C041E061E0F5
:1059400081E00F946A010F9424408091CE128E342E
:1059500009F479CD80E090E0A3E4B3E48093B81239
:105960009093B912A093BA12B093BB128090E50C39
:105970009090E60CA090E70CB090E80C2091B41247
:105980003091B5124091B6125091B7126091B01299
:105990007091B1128091B2129091B312A3EA6A2E63
:1059A000A2E17A2E7F926F92BCEBCB2EB2E1DB2E7E
:1059B000E12CF12C03E413E40E94DAEF0F9424406D
:1059C0000F900F908091CE128E3409F43CCD80E080
:1059D00090E0A0E2B1E48093B4129093B512A0934A
:1059E000B612B093B7128090E10C9090E20CA090A8
:1059F000E30CB090E40CE090B812F090B912009172
:105A0000BA121091BB126091B0127091B1128091D4
:105A1000B2129091B3127F926F9220E030E040E298
:105A200051E40E94DAEF0F9424400F900F90809180
:105A3000CE128E3409F407CD80919F0981110FC0D9
:105A40000F94FA2C80E090E0ADE9B2E48093B012BC
:105A50009093B112A093B212B093B3121FC081E021
:105A60000F94FA2C20E030E048EC51E46091B10250
:105A70007091B2028091B3029091B4020F94BBC6B0
:105A800020E030E046E552E40F94BBC66093B012CC
:105A90007093B1128093B2129093B312E090B81247
:105AA000F090B9120091BA121091BB122091B41269
:105AB0003091B5124091B6125091B7126091B01268
:105AC0007091B1128091B2129091B312EFE9F9E0A6
:105AD000FF93EF93812C912CE8E4AE2EE3E4BE2EED
