:100000000C94E5160C9416170C9416170C941617EE
:100010000C9416170C9416170C9416170C941617AC
:100020000C9416170C9416170C9416170C9416179C
:100030000C9416170C9416170C9416170C9416178C
:100040000C9416170D941A9F0C9416170C941617EF
:100050000C9416170C9416170D94D8BD0D9482C2EB
:100060000C9416170D94B2C60D94E8C60C9416178E
:100070000C9416170C9416170C9416170C9416174C
:100080000C9416170C9416170C9416170C9416173C
:100090000C9416170C9416170C9416170C9416172C
:1000A0000C9416170C9416170C9416170C9416171C
:1000B0000C9416170C9416170C9416170C9416170C
:1000C0000C9416170C9416170C9416170D945DC704
:1000D0000D9493C70C9416170C9416170C941617BE
:1000E0000C94161709BBF9BBD4BCAABC1EBCAABC95
:1000F00082BC31BB59BB81BB58BD80BDA8BDD0BD42
:10010000D1BBA9BB5ABC6002E802F4012A03E80291
:100110005402E802E402E802E8022A02E001E802EE
:10012000E8021C035803E8023602E802E802E8028B
:1001300000031E02C602FA01F002E8020A0370037D
:10014000BA017E03CC01B2025E03F201C001E802F3
:10015000E8019A0224027203DA02BC015C025A032B
:10016000E2018C0340028A03E8024202C6014A020D
:100170003C02F601FC02F802E8024A034602D402FD
:10018000E8028E02EC02280206024603E602300371
:100190006C026A02100312026E03F4027A037A03FD
:1001A0002E03CA0198029E02D202760396025002E2
:1001B0000E02AA02E802E802E802D8018802260339
:1001C000D00228033202B802A202E00244028803ED
:1001D0003E0244034C03F202FC0180036803DA018F
:1001E0002C020802C802D601F0016603CA02DE0131
:1001F0006202E802900358025C033802D801BA0296
:10020000840286038403900222039C023A030E03B5
:10021000DE0264023A02E802E802B402E8024E0397
:10022000940282026C03D0017E0272021402EA027E
:1002300006038A025A0218021602BE023C03C201D9
:100240006E02EA01220204037403E802E802E802F3
:10025000E802E802E802E802E802E802DA027002D4
:1002600012031A02F801D2016403A40228029C02BC
:10027000DC017402E8022002EC014803E601BE0141
:10028000C801E802A602CC02B60268026A0324038F
:10029000E802E8021A0352027C037A020A024E02C2
:1002A0001002C401CE02B002E802E802FE01E80238
:1002B000E802DC02E8028602520302032E02AC02CC
:1002C000560224023403360300020402E202C4028E
:1002D000180330020C02EE0214033E038E03E40105
:1002E000D40176022003BC02540350038203FA02B5
:1002F000FE024C028002A802BC02F602D6023803BB
:10030000CE012602B8016003A00216037C0262033C
:100310000202660278030803480292021603AE0244
:100320001E034203084AD73B3BCE016E84BCBFFD8F
:10033000C12F3D6C74319ABD56833DDA3D00C77FB5
:1003400011BED9E4BB4C3E916BAAAABE000000804E
:100350003F05A84CCDB2D44EB93836A9020C50B9DD
:10036000918688083CA6AAAA2ABE000000803F0009
:100370000D9463C40D94DD3A0D941D1C0D94DF495A
:100380000D94F83C0D94BB1E0D9409520D94DC386D
:100390000D94324E0D9451260D94933C0D9471C4DE
:1003A0000D9406290D9408560D94C2C30D94173E62
:1003B0000D9494210D94F73B0D944E470D942840D5
:1003C0000D94C6130D94F31B0D94BDC30D94E64C10
:1003D0000D94F8120D94A4530D94A64D0D94CBC515
:1003E0000D948E3D0D94471C0D9427210D944713B9
:1003F0000D948A550D9499420D94833B0D94B454F9
:100400000D946DBE0D9482C40D9489BE0D94452546
:100410000D94453C0D94184F0D94D9BE0D942A109F
:100420000D94B24E0D9403390D94D6280D945A3282
:100430000D942E1F0D94BB140D94E35B0D94B538F1
:100440000D94244D0D94531F0D9490120D9474C46B
:100450000D94C0420D948E2F0D941E3C0D946B4A4A
:100460000D94D7BE0D945E330D94BCC70D9403312B
:100470000D94751A0D947D200D94FC340D94EC3977
:100480000D9425420D94F6200D949E390D944E1531
:100490000D9494C40D94B02C0D940EC40D94634E21
:1004A0000D94B3170D94CC4F0D94D4120D94664B4C
:1004B0000D9412180D94421F0D94FE410D9415C811
:1004C0000D94C9200D94BE3F0D9468560D9486C4BA
:1004D0000D94B92F0D94C9250D94014E0D94F51E60
:1004E0000D9445140D9476280D9475480D94CCC345
:1004F0000D94C8990D94E6500D9478C40D9473270B
:100500000D941DC40D9447280D9427230D94E415D4
:100510000D9489180D9495290D94CB5B0D94B346D9
:100520000D9468450D9498C40D947B310D947E1301
:100530000D94DD260D94D2100D945D460D944D174B
:100540000D946DC40D9451390D941F460D94424A7B
:100550000D9427C40D943E100D943B4B0D949EC4F6
:100560000D9425550D946D310D947B530D9473515D
:100570000D942A390D94FC220D944FC40D94A71CA0
:100580000D94ECC50D9442C50D94B0BE0D9472420D
:100590000D946C3C0D94A2400D948B2E0D942E5313
:1005A0000D9420140D94DD130D948C460D943BC4D2
:1005B0000D941AC70D9432340D9457550D948C1028
:1005C0000D9477390D9496BE0D941C130D94B64876
:1005D0000D94E2560D9435290D9408170D94DBBE49
:1005E0000D9400470D945C3B0D94B9150D9431C4E6
:1005F0000D9439100D94FAC30D9443100D9404C456
:100600000D948E380D94074A0D9449200D94C429F9
:100610000D9490C40D94133A0D9411C70D948B2D25
:100620000D9433430D9470140D94DDBE0D94ABC442
:100630000D94BDBE0D94414F0D9434100D94A2C481
:100640000D94D6C30D94ED450D94BE510D94DE1856
:100650000D94A4330D94771C0D944DC50D94CC22AC
:100660000D94522B0D946FC50D94274C0D9460BEC4
:100670000D9445C40D94A8410D94AE1D0D94E5BE96
:100680000D94C5C70D94A6C40D940E3B0D9418127D
:100690000D94734C0D94712A0D94353B0D940533D4
:1006A0000D94E8C30D94FC4B0D94E0C30D945BC511
:1006B0000D942F100D94504C0D9434190D945F31FE
:1006C0000D9467C40D947CC40D94BB450D94B03E4D
:1006D0000D94D13B0D94B7300D94A6280D94274767
:1006E0000D94783A0D949F1B0D9465290D94F41385
:1006F0000D948AC40D94B2230D9459500D945D3D10
:100700000D94AA3B0D94F0C30D94D3410D946A232C
:100710000D94C5390D944C420D94C91B0D94B8C36A
:100720000D94DA464D383420582059205A2045007F
:100730004D313037005430004D3130370043616E59
:100740006E6F7420656E7465722073756264697271
:100750003A20005341564544205052494E54004DD2
:100760003234004D3233202573006175746F256972
:100770002E67006572726F722077726974696E6796
:1007800020746F2066696C65004E6F74205344209E
:100790007072696E74696E67002F00534420707226
:1007A000696E74696E67206279746520002E00445A
:1007B000656C6574696F6E206661696C65642C2078
:1007C00046696C653A200046696C652064656C6515
:1007D0007465643A002E006F70656E206661696C06
:1007E00065642C2046696C653A200057726974690B
:1007F0006E6720746F2066696C653A20002E006F6A
:1008000070656E206661696C65642C2046696C6554
:100810003A20002E006F70656E206661696C656419
:100820002C2046696C653A200046696C652073652A
:100830006C6563746564002053697A653A200046EC
:10084000696C65206F70656E65643A20002E006FDC
:1008500070656E206661696C65642C2046696C6504
:100860003A20004E6F772066726573682066696C67
:10087000653A20004E6F7720646F696E6720666965
:100880006C653A20002220706F7300222070617224
:10089000656E743A2200535542524F5554494E45A5
:1008A0002043414C4C207461726765743A22007495
:1008B0007279696E6720746F2063616C6C20737548
:1008C000622D67636F64652066696C657320776964
:1008D000746820746F6F206D616E79206C65766529
:1008E0006C732E204D4158206C6576656C206973C1
:1008F0003A007A70726F62653A2000534420636157
:100900007264206F6B006F70656E526F6F7420663B
:1009100061696C656400766F6C756D652E696E69D2
:1009200074206661696C656400534420696E697463
:10093000206661696C006563686F3A004572726F8A
:10094000723A00535543434553530056616C7565E5
:1009500073206F7574206F662072616E6765005634
:10096000616C756573206F7574206F662072616E9F
:1009700067650056616C756573206F7574206F66CE
:100980002072616E67650056616C756573206F75C6
:1009900074206F662072616E67650053554343454E
:1009A00053530056616C756573206F7574206F66C4
:1009B0002072616E67650056616C756573206F7596
:1009C00074206F662072616E67650056616C756594
:1009D00073206F7574206F662072616E67650056B4
:1009E000616C756573206F7574206F662072616E1F
:1009F0006765005354415449535449435320524569
:100A00005345540048617264636F646564204361B8
:100A10006C696220616E64205049442044656661BF
:100A2000756C742053657474696E6773204C6F61C4
:100A30006465640048617264636F64656420446542
:100A40006661756C742053657474696E6773204CAD
:100A50006F616465640053746F72656420736574BC
:100A600074696E6773207265747269657665640077
:100A70002C2073617665645F466C61675F66616EAA
:100A80006C617965725F6D6972726F723A20002CC9
:100A90002073617665645F66656564726174653A4A
:100AA00020002C2073617665645F66616E6C6179ED
:100AB00065723A20002C2073617665645F74656D01
:100AC000706265643A20002C2073617665645F74FF
:100AD000656D70303A20002C2073617665645F7418
:100AE000656D70313A20002C2073617665645F6615
:100AF000696C65706F736974696F6E3A20002C20A1
:100B000073617665645F655F706F736974696F6E3A
:100B10003A20002C2073617665645F746F6F6C5FA0
:100B20006163746976653A20002C20736176656490
:100B30005F7A5F706F736974696F6E3A20002C2062
:100B400073617665645F795F706F736974696F6EE6
:100B50003A20002C2073617665645F785F706F7354
:100B60006974696F6E3A20005341564520505249CE
:100B70004E54204C4F473A00204D696E7574657392
:100B8000203A0020204C617374207072696E7420CA
:100B900074696D652D3E20486F757273203A004C64
:100BA000617374207072696E742064757261746907
:100BB0006F6E002C205468697264204944206E7561
:100BC0006D62657220002C205365636F6E6420494E
:100BD00044206E756D6265723A200020204669726D
:100BE0007374204944206E756D6265723A20005519
:100BF0004920496E666F726D6174696F6E2053652E
:100C00007269616C204E756D6265723A00206D2CC0
:100C1000204531207072696E742064697374616E4E
:100C200063653A2000206B6D2C204530207072697E
:100C30006E742064697374616E63653A2000206B82
:100C40006D2C2059207072696E7420646973746110
:100C50006E63653A2000206B6D2C20583120707235
:100C6000696E742064697374616E63653A20002054
:100C7000432C0A205830207072696E7420646973A6
:100C800074616E63653A200020432C206D617820EA
:100C900074656D7020423A200020432C206D6178ED
:100CA0002074656D7020523A20002C206D617820F0
:100CB00074656D70204C3A2000682C207072696E4B
:100CC00074732066696E69736865643A20002C202D
:100CD0007072696E74696E672074696D653A200080
:100CE00020207072696E74733A200053544154533B
:100CF0003A0020432C20525F5052494E543A200073
:100D000020432C20525F4245443A200020432C20AF
:100D1000525F52454D4F56453A20002020525F49C0
:100D20004E534552543A200054656D702028432993
:100D30003A0020432C204C5F5052494E543A200038
:100D400020432C204C5F4245443A200020432C2075
:100D50004C5F52454D4F56453A200020204C5F498C
:100D60004E534552543A200054656D702028432953
:100D70003A0020562856657273696F6E292000204C
:100D800052284265642072696768742073637265D3
:100D90007729200020204D353331204C28426564CE
:100DA000206C656674207363726577292000426544
:100DB00064204F66667365747320286D6D293A0050
:100DC0002050285A2070726F62652900205A200036
:100DD0002059200020204D353330205820004F6608
:100DE000667365747320286D6D293A0020440020D5
:100DF0004900202D204D333031205249474854209E
:100E0000500020440020490020204D333031204C38
:100E10004546542050005049442073657474696EEF
:100E200067733A00205A0020590020204D32303696
:100E3000205800486F6D65206F66667365742028C2
:100E40006D6D293A00204500205A002058002042AC
:100E50000020540020204D3230352053004164766C
:100E6000616E636564207661726961626C65733A74
:100E700020533D4D696E206665656472617465201E
:100E8000286D6D2F73292C20543D4D696E2074728E
:100E90006176656C20666565647261746520286D95
:100EA0006D2F73292C20423D6D696E696D756D2023
:100EB0007365676D656E742074696D6520286D7348
:100EC000292C20583D6D6178696D756D2058592029
:100ED0006A65726B20286D6D2F73292C20205A3D76
:100EE0006D6178696D756D205A206A65726B202876
:100EF0006D6D2F73292C2020453D6D6178696D75CE
:100F00006D2045206A65726B20286D6D2F73290056
:100F100020540020204D323034205300416363655B
:100F20006C65726174696F6E3A20533D61636365ED
:100F30006C65726174696F6E2C20543D72657472B9
:100F400061637420616363656C65726174696F6E5F
:100F500000204500205A0020590020204D32303119
:100F60002058004D6178696D756D20416363656C33
:100F700065726174696F6E20286D6D2F7332293A26
:100F800000204500205A0020590020204D323033E7
:100F90002058004D6178696D756D206665656472D5
:100FA0006174657320286D6D2F73293A0020450008
:100FB000205A0020590020204D3932205800537407
:100FC0006570732070657220756E69743A005365A0
:100FD0007474696E67732053746F7265640065631F
:100FE000686F3A00204500205A00205900483D58BB
:100FF0000045787472756465722072656C65617302
:101000006564206163746976653A20005A2053490B
:10101000474D4120486F6D65640045787472756472
:101020006572206163746976653A20005072696E5A
:101030007465722068616C7465642E206B696C6CD9
:1010400028292063616C6C65642100436F6F6C69B3
:101050006E6720446F776E20486561746572004446
:1010600075616C204D6972726F72204D6F646520DE
:101070004F4E004475616C204D6F6465204F4E00EB
:101080004475616C204D6F6465204F4646006F6B60
:1010900000526573656E643A2000504F53495449BD
:1010A0004F4E20484F4D453A200054696D652069E8
:1010B0006E61637469766500507572676520646956
:1010C0007374616E636500486F74656E64206F664B
:1010D00066736574733A005A204F666673657420B0
:1010E0003A20007A5F6D61783A20007A5F6D696E10
:1010F0003A20005A204F6666736574005A204F6686
:1011000066736574206F6B004E6F74207072696E29
:1011100074207265636F7665727920757000507205
:10112000696E74207265636F7665727920757000E0
:10113000486F74656E64206F6666736574733A00F9
:101140007A5F6D696E3A2000795F6D61783A2000B0
:10115000785F6D61783A2000785F6D696E3A2000A3
:10116000205A3A0020593A0020436F756E74205877
:101170003A200020453A00205A3A0020593A0058B7
:101180003A004649524D574152455F4E414D453A0E
:101190004D61726C696E2056313B20537072696EDE
:1011A0007465722F6772626C206D61736875702050
:1011B000666F722067656E36204649524D57415220
:1011C000455F55524C3A68747470733A2F2F6769B3
:1011D000746875622E636F6D2F4572696B5A616C0E
:1011E0006D2F4D61726C696E2F2050524F544F43DA
:1011F0004F4C5F56455253494F4E3A312E30204D99
:10120000414348494E455F545950453A4D656E64D7
:10121000656C2045585452554445525F434F554ED6
:10122000543A3220555549443A303030303030301D
:10123000302D303030302D303030302D30303030B7
:101240002D3030303030303030303030300A0042E5
:101250006564204865617465640020423A00204559
:101260003A00543A00457874727564657220486596
:10127000617465640020573A0020453A00543A00F2
:101280002042403A0020403A00202F003A002054EB
:1012900000202F0020423A00202F006F6B20543A8C
:1012A000000A0A005374616E6461726420446576BA
:1012B000696174696F6E3A20000A004D65616E3A8B
:1012C00020000A002020207A3A200000793A2000ED
:1012D000783A20003F537065636966696564206EE3
:1012E000756D626572206F66206C65677320696E2C
:1012F000206D6F76656D656E74206E6F7420706CF6
:1013000061757361626C652E0A003F537065636995
:1013100066696564205920706F736974696F6E2007
:101320006F7574206F662072616E67652E0A003FCC
:10133000537065636966696564205820706F7369CE
:1013400074696F6E206F7574206F662072616E67AE
:10135000652E0A003F537065636966696564207392
:10136000616D706C652073697A65206E6F74207092
:101370006C61757361626C652E0A0046756C6C2039
:10138000737570706F72742061743A206874747031
:101390003A2F2F33647072696E74626F6172642EBB
:1013A000636F6D2F666F72756D2E7068700A004DD9
:1013B0003438205A2D50726F626520526570656115
:1013C000746162696C69747920746573742E20206D
:1013D0002056657273696F6E20322E30300A003FDE
:1013E000566572626F7365204C6576656C206E6F12
:1013F0007420706C61757361626C652E0A002569DA
:10140000206D696E2C202569207365630047323892
:1014100020583020593000627566666572206F75FD
:10142000743A2000427566666572313A2000436165
:101430007264204E616D653A2000456E64206669D5
:101440006C65206C69737400426567696E2066691B
:101450006C65206C697374000A00205A3A200020E1
:10146000593A200020583A2000426564000A0020C2
:101470007A3A200020793A200020783A200042650C
:1014800064000A0020616E7469686F726172690A93
:101490003A200020686F726172690A20002F3800BC
:1014A000766F6C746573200020566F6C74657320C2
:1014B000636172676F6C20333A200020616E74693B
:1014C000686F726172690A3A200020686F726172F7
:1014D000690A20002F3800766F6C74657320002035
:1014E000566F6C74657320636172676F6C20323A5B
:1014F00020000A0020647A333A200020647A323ACD
:101500002000543100543000543000543000005654
:10151000756974656E73333A2020004170726F787C
:10152000333A202000566F6C746573333A202000E4
:101530000056756974656E73323A202000417072EE
:101540006F78323A202000566F6C746573323A20FF
:10155000200056616C6F7220645A333A2020005686
:10156000616C6F7220645A323A2020004E657720F9
:101570006F66667365742076657273696F6E3A2064
:10158000007A335F313A20007A325F313A20005AD4
:101590007363726F6C6C5F313A20007A335F303A5C
:1015A00020007A325F303A20005A7363726F6C6C9D
:1015B0005F303A2000706C616E654E6F726D616CC9
:1015C0005F312E7A3A2000706C616E654E6F726DDD
:1015D000616C5F312E793A2000706C616E654E6FE0
:1015E000726D616C5F312E783A2000706C616E65AF
:1015F0004E6F726D616C5F302E7A3A2000706C61B4
:101600006E654E6F726D616C5F302E793A2000709E
:101610006C616E654E6F726D616C5F302E783A2032
:10162000005A76616C756520616674657220686F1A
:101630006D653A00486F6D6520582F5920626566C8
:101640006F7265205A005374617274696E67205A14
:101650002043616C6962726174696F6E2057697AA8
:10166000617264004D3834005374617274696E673E
:1016700020592043616C6962726174696F6E2057F2
:10168000697A617264004D38340053746172746910
:101690006E6720582043616C6962726174696F6E75
:1016A0002057697A61726400457874727564657256
:1016B0002072656C65617365642061637469766529
:1016C0003A20005A205349474D4120486F6D6564C8
:1016D000004578747275646572206163746976651B
:1016E0003A20002200556E6B6E6F776E20636F6D2F
:1016F0006D616E643A202200504F534954494F4E59
:1017000020484F4D453A200020004D6F76652074EB
:101710006F3A2000473932204530205A3020522578
:1017200064004E6577206C6179657220646574652C
:1017300063746564005A20686F7070696E67206416
:101740006574656374656400256920686F757273DC
:10175000202569206D696E7574657300446F6E6530
:10176000207072696E74696E672066696C65004DE1
:1017700033330070617573652064657465637465E7
:1017800064200A00473639005072696E7465722011
:1017900073746F707065642064756520746F206564
:1017A00072726F72732E20466978207468652065A6
:1017B00072726F7220616E6420757365204D3939C5
:1017C0003920746F20726573746172742E202854EE
:1017D000656D7065726174757265206973207265DC
:1017E0007365742E20536574206974206166746576
:1017F000722072657374617274696E6729006F6B11
:10180000004E6F204C696E65204E756D62657220CA
:101810007769746820636865636B73756D2C204C01
:10182000617374204C696E653A20004E6F204368E6
:1018300065636B73756D2077697468206C696E657C
:10184000206E756D6265722C204C617374204C693A
:101850006E653A2000636865636B73756D206D6912
:10186000736D617463682C204C617374204C696ED5
:10187000653A20004C696E65204E756D6265722078
:101880006973206E6F74204C617374204C696E65AF
:10189000204E756D6265722B312C204C6173742063
:1018A0004C696E653A20004D3131300053757266D7
:1018B000696E672030200A0043616C69627261744E
:1018C000696F6E205375636365737366756C0A0088
:1018D0005430004D383420582059205A20450025D6
:1018E00034643A252E326468202F20256467000076
:1018F000466F726D203221002564206974656D7316
:1019000000526561647920746F204C6F61642F55BB
:101910006E6C6F6164200A00256425250025336400
:101920002025634300253364202563430025336469
:10193000256343202F20253364256343002533642A
:10194000256343202F20253364256343002533641A
:10195000256343202F20253364256343002520334E
:10196000642025250025642068202564206D00253D
:10197000203364202525002532642025634300257B
:1019800033642025634300253364202563430052DC
:101990006561647920746F204C6F61642F556E6CA3
:1019A0006F6164200A002564252500253364202505
:1019B00063430025336420256343002053544F5074
:1019C000205052494E54200A0047323820583020C7
:1019D0005930004D333500526573756D652064656F
:1019E000746563746564200A0047373000A152456E
:1019F00053554D4521200A00A15041555345212002
:101A00000A002533642025634300253364202563C1
:101A10004300253364202563430025336420256378
:101A20004300253364202563430025336420256368
:101A30004300253364202563430025336420256358
:101A4000430025336420256343005052494E5420FF
:101A500053455454494E4753200A00446F6E652045
:101A6000736176696E672066696C652E006F6B0026
:101A70004D32390067636F646520666F756E640070
:101A800042434E3344205369676D6120646576207C
:101A90006D6F646520310073746172740030322D93
:101AA000312E322E365243002200656E7175656903
:101AB0006E672022002200656E717565696E672071
:101AC0002200496E7374616C6C202564202573209C
:101AD0006F6E2074686520257320686F74656E646E
:101AE00000496E7374616C6C202564202573206F2F
:101AF0006E2074686520257320686F74656E6400BD
:101B000043616C63756C75733A20200043616C63AC
:101B1000756C75733A20200043616C63756C757346
:101B20003A202000253364202563430025336420B8
:101B30002563430050757267652046696C616D6569
:101B40006E740A0053757266696E6720310A00531D
:101B5000757266696E6720300A0047333400494E5B
:101B6000464F3A204245442043414C4942202D20D3
:101B70000053757266696E6720300A00473238205C
:101B80005830205930005430005431005430005443
:101B9000300053757266696E6720300A004734332F
:101BA0000047343300473431004734300047333482
:101BB0000047343300473433004734310047343072
:101BC000004D3834004D3834004D3834005A32203E
:101BD0004F66667365743A20004F4B207365636FE0
:101BE0006E6420457874727564657221005A2070A5
:101BF0006F736974696F6E3A20005A20706F736951
:101C000074696F6E3A20004D3834005A312050729A
:101C10006F6265206F66667365743A20004F4B20D3
:101C200066697273742045787472756465722120D8
:101C30000A005A20706F736974696F6E3A20005AF7
:101C400020706F736974696F6E3A200043616C6332
:101C5000756C75733A20200043616C63756C757305
:101C60003A20200043616C63756C75733A20200044
:101C700043616C63756C75733A20200036302064C4
:101C8000656772656573200A005430005430005453
:101C9000300043616C6962726174696F6E205375C4
:101CA000636365737366756C0A005430004A756D22
:101CB00070206F7665722073637265773120616E74
:101CC0006420736372657732200A004A756D702054
:101CD0006F76657220736372657731200A0047332F
:101CE0003400473334004733340054300047333432
:101CF00000494E464F3A204245442043414C494218
:101D0000202D20004C6F6164696E670A0053757264
:101D100066696E6720300A0053757266696E6720C7
:101D2000300A0053757266696E6720300A002533E9
:101D30006420256343002533642025634300253355
:101D400064202563430050757267652046696C61A5
:101D50006D656E740A0025336420256343002533C6
:101D60006420256343002533642025634300253325
:101D70006420256343002533642025634300253315
:101D80006420256343002533642025634300253305
:101D900064202563430053757266696E6720300ABC
:101DA0000053757266696E6720300A005430004631
:101DB0006F756E640053757266696E6720300A0035
:101DC0004D33340053757266696E6720300A004DDA
:101DD0003234004D3233202573004D3234004D3201
:101DE0003320257300546865206669727374206C13
:101DF00061796572207072696E74656420776974A8
:101E0000682074686520257320486F74656E640AC5
:101E100077696C6C20626520646973746F72746595
:101E2000642062792025642E253164253164206D7B
:101E30006D0053757266696E6720300A00537572C3
:101E400066696E6720300A0053757266696E672096
:101E5000300A00535543434553530A002533642049
:101E60002563430025336420256343002533642024
:101E70002563430025336420256343002533642014
:101E80002563430025336420256343002533642004
:101E900025634300253364202563430025336420F4
:101EA000256343004C6F6164696E673A0A0025330D
:101EB00064202563430025336420256343002533D4
:101EC00064202563430050757267652046696C6124
:101ED0006D656E74200A00FF01FF0000A040000045
:101EE000A04000000040CDAC0344008093430000BC
:101EF0005243000000000080934300000000CDAC7E
:101F0000034400809343000052430000000000009F
:101F10000000000000006563686F3A004572726F50
:101F2000723A0020636F6C6420657874727573690F
:101F30006F6E2070726576656E74656400656368A7
:101F40006F3A003B202020506C61737469632077E6
:101F500065696768743A2025642E256467003B46EE
:101F6000696C616D656E7420757365643A202564D3
:101F70002E25646D2025642E256467003B46696C20
:101F8000616D656E7420757365643A20256C752EDD
:101F9000256C756D003B2020207573655261667459
:101FA0002C2564004D36303520532564003B20201D
:101FB000204275696C642074696D653A202564203F
:101FC0002573202564202573003B5072696E7420B0
:101FD00074696D653A2025642025732025642025C9
:101FE00073202564202573003B54494D453A202534
:101FF0006C64003B20472D436F64652067656E6508
:1020000072617465642062792053696D706C6966D1
:102010007933442852292056657273696F6E2025E2
:1020200064007C3C3E5E2B3D3F2F5B5D3B2C2A22B7
:102030005C00205A3A0020593A0020583A00656E58
:102040006473746F7073206869743A200024F4D448
:102050003050C38E20C2A24017828B7011127A9129
:102060000D816CD90AA861E108C758660761514320
:10207000061E4B5D05C145A7041A411104093D9890
:1020800003713931034036DB0265339102D4305499
:1020900002802E1D02632CEE01752AC501B028A016
:1020A00001102781018F2564012B244B01E022348C
:1020B00001AC211F018D200D01801FFC00841EED4D
:1020C00000971DDF00B81CD200E61BC600201BBC19
:1020D00000641AB200B219A8000A19A0006A18997F
:1020E00000D117910040178B00B516840031167E81
:1020F00000B31579003A157300C7146F0058146ABD
:1021000000EE1366008813630025135E00C7125BA0
:10211000006C12570015125400C111510070114F7C
:102120000021114B00D61049008D10470046104485
:102130000002104200C00F4000800F3E00420F3CE2
:1021400000060F3B00CB0E3800930E37005C0E35B7
:1021500000270E3400F30D3200C10D3100900D3018
:1021600000600D2E00320D2D00050D2C00D90C2B1A
:1021700000AE0C2900850C29005C0C2700350C27CB
:10218000000E0C2600E80B2400C40B2400A00B2337
:10219000007D0B23005A0B2100390B2100180B2066
:1021A00000F80A1F00D90A1E00BB0A1E009D0A1D66
:1021B00000800A1D00630A1C00470A1B002C0A1B32
:1021C00000110A1A00F7091A00DD091900C40919DB
:1021D00000AB091900920917007B09180063091761
:1021E000004C09160036091600200916000A0915C8
:1021F00000F5081500E0081400CC081400B8081415
:1022000000A4081400900813007D0812006B081346
:102210000058081200460812003408110023081163
:10222000001208110001081100F0071000E007106B
:1022300000D0071000C0071000B0070F00A1071062
:102240000091070E0083070F0074070F0065070E4B
:102250000057070E0049070E003B070D002E070E22
:102260000020070D0013070D0006070D00F9060CEE
:1022700000ED060D00E0060C00D4060C00C8060CAC
:1022800000BC060C00B0060C00A4060B0099060C5E
:10229000008D060B0082060B0077060B006C060B08
:1022A0000061060A0057060B004C060A0042060AA7
:1022B0000038060A002E060A0024060A001A060A3A
:1022C000001006090007060A00FD050900F40509CB
:1022D00000EB050900E2050900D9050900D0050950
:1022E00000C7050900BE050900B5050800AD0508D1
:1022F00000A50509009C050800940508008C050848
:1023000000840508007C050800740508006C0507BA
:1023100000650508005D050700560508004E050725
:10232000004705070040050800380507003105078C
:10233000002A050700230507001C050600160507EF
:10234000000F0507000805060002050700FB04064C
:1023500000F5040700EE040600E8040600E20407A6
:1023600000DB040600D5040600CF040600C90406FD
:1023700000C3040600BD040600B7040600B104054E
:1023800000AC040600A6040600A00405009B040699
:102390000095040500900406008A040500850405E4
:1023A00000800406007A0405007504050070040529
:1023B000006B04050066040500610405005C04056B
:1023C0000057040500520405004D040500480405AB
:1023D00000430405003E0404003A040500350405EA
:1023E00000300404002C0405002704040023040525
:1023F000001E0404001A040400160405001104045D
:10240000000D040400090405000404040000040491
:1024100000FC030400F8030400F4030400F00304C8
:1024200000EC030400E8030400E4030400E00304F8
:1024300000DC030400D8030400D4030400D0030428
:1024400000CC030400C8030300C503030024F40404
:10245000D9201BC40C5C0E9804C4095F0265077187
:1024600001F405F900FB04B30048048700C10369C7
:10247000005803550003034500BE023A00840231B0
:102480000053022A002902250004022000E4011C56
:1024900000C8011900AF011700980114008401134E
:1024A00000710110006101100051010E0043010D87
:1024B0000036010B002B010B0020010B0015010958
:1024C000000C01090003010800FB000800F30008EC
:1024D00000EB000700E4000600DE000600D800065E
:1024E00000D2000600CC000500C7000500C20005B0
:1024F00000BD000400B9000400B5000400B10004F0
:1025000000AD000400A9000400A5000300A2000320
:10251000009F0004009B0003009800030095000248
:102520000093000300900003008D0002008B000365
:10253000008800020086000200840003008100027F
:10254000007F0002007D0002007B00020079000293
:1025500000770001007600020074000200720001A2
:1025600000710002006F0002006D0001006C0002AB
:10257000006A0001006900020067000100660001B6
:1025800000650001006400020062000100610001BA
:1025900000600001005F0002005D0001005C0001BE
:1025A000005B0001005A00010059000100580001C1
:1025B00000570001005600010055000100540001C1
:1025C00000530000005300010052000100510001BF
:1025D00000500001004F0001004E0000004E0001BD
:1025E000004D0001004C0001004B0000004B0001B9
:1025F000004A0001004900010048000000480001B5
:1026000000470001004600000046000100450000B0
:1026100000450001004400010043000000430001A8
:1026200000420000004200010041000000410001A2
:1026300000400001003F0000003F0001003E00009C
:10264000003E0001003D0000003D0001003C000094
:10265000003C0000003C0001003B0000003B00018A
:10266000003A0000003A0001003900000039000182
:10267000003800000038000000380001003700007A
:10268000003700010036000000360000003600016F
:102690000035000000350000003500010034000066
:1026A000003400000034000100330000003300005B
:1026B000003300010032000000320000003200014F
:1026C0000031000000310000003100010030000046
:1026D0000030000000300001002F0000002F00003B
:1026E000002F0000002F0001002E0000002E00002F
:1026F000002E0001002D0000002D0000002D000024
:10270000002D0001002C0000002C0000002C000017
:10271000002C0001002B0000002B0000002B00000B
:10272000002B0001002A0000002A0000002A0000FF
:10273000002A0001002900000029000000290000F3
:1027400000290000002900010028000000280000E6
:1027500000280000002800000028000100270000D9
:1027600000270000002700000027000000270001CC
:1027700000260000002600000026000000260000C1
:1027800000260001002500000025000000250000B3
:1027900000250000002500000025000100240000A5
:1027A0000024000000240000002400000024000198
:1027B000002300000023000000230000002300008D
:1027C000002300000023000000230001002200007D
:1027D0000022000000220000002200000022000071
:1027E0000022000100210000002100000021000063
:1027F0000021000000210000002100000021000154
:102800000020000000200000002000000020000048
:102810000020000000200000002000000020000137
:10282000001F0000001F0000001F0000001F00002C
:10283000001F0000001F0000001F0001001E00001C
:10284000001E0000001E0000001E000000656368FE
:102850006F3A0048797374657265736973207465A3
:102860006D706572617475726500546865726D6132
:102870006C2072756E617761792070726F74656318
:1028800074696F6E206279204865617465725F4972
:10289000443A004572726F72283833293A204265F3
:1028A0006420746865726D6973746F72206E6F74E2
:1028B000206465746563746564004572726F722884
:1028C0003832293A20526967687420746865726DDD
:1028D0006973746F72206E6F7420646574656374BD
:1028E0006564004572726F72283831293A204C6550
:1028F000667420746865726D6973746F72206E6F90
:102900007420206465746563746564002053544FBB
:1029100050205052494E54200A004572726F72285E
:102920003833293A2042656420746865726D697392
:10293000746F72206E6F742064657465637465646F
:10294000002053544F50205052494E54200A004505
:1029500072726F72283832293A205269676874207F
:10296000746865726D6973746F72206E6F74206421
:1029700065746563746564002053544F5020505251
:10298000494E54200A004572726F72283831293A34
:10299000204C65667420746865726D6973746F721B
:1029A000206E6F74202064657465637465640050E4
:1029B0004944204175746F74756E652066696E694F
:1029C000736865642100504944204175746F7475C3
:1029D0006E65206661696C6564212074696D656F40
:1029E00075740020403A006F6B20543A006F6B20E2
:1029F000423A00504944204175746F74756E6520E9
:102A00006661696C6564212054656D7065726174DE
:102A100075726520746F6F206869676800204B6469
:102A20003A2000204B693A2000204B703A200020C9
:102A3000436C6173736963205049442000205475CE
:102A40003A2000204B753A2000206D61783A200032
:102A5000206D696E3A200020643A2000206269618E
:102A6000733A2000504944204175746F74756E6547
:102A70002066696E697368656421205075742074DE
:102A80006865206C617374204B702C204B69206149
:102A90006E64204B6420636F6E7374616E74732078
:102AA00066726F6D2061626F766520696E746F204B
:102AB000436F6E66696775726174696F6E2E680028
:102AC000504944204175746F74756E652066616964
:102AD0006C6564212074696D656F75740020403ADF
:102AE000006F6B20543A006F6B20423A005049440B
:102AF000204175746F74756E65206661696C6564DC
:102B0000212054656D706572617475726520746FF3
:102B10006F206869676800204B643A2000204B6989
:102B20003A2000204B703A200020436C6173736997
:102B3000632050494420002054753A2000204B75F2
:102B40003A2000206D61783A2000206D696E3A20AD
:102B50000020643A200020626961733A20004572C7
:102B6000726F723A0070012C0190012701B00122AE
:102B700001C0011D01F00118011002130130020E05
:102B8000016002090190020401C002FF000003FA83
:102B9000004003F5008003F000D003EB002004E6C2
:102BA000007004E100E004DC004005D700C005D25D
:102BB000004006CD00D006C8008007C3003008BE24
:102BC00000F008B900C009B400B00AAF00B00BAA09
:102BD00000D00CA500000EA000500F9B00C0109666
:102BE000005012910000148C00C0158700B01782AD
:102BF00000B0197D00D01B7800001E730040206ECD
:102C00000090226900F024640040275F0090295A58
:102C100000E02B5500102E500020304B00103246A3
:102C200000E033410090353C0010373700703832F7
:102C300000A0392D00B03A2800A03B2300603C1EC4
:102C400000103D1900903D1400103E0F00703E0A28
:102C500000C03E0500003F000000000A0B02090C06
:102C60000D0E080703040100000000000000000032
:102C70000000000000000000000000000000000054
:102C80000000000000121110000000000000000011
:102C90000000000000000000000000000000000133
:102CA000021020200808102040102040800201025D
:102CB0000108040201010204081020408080402025
:102CC0001008040201800402018040201008040260
:102CD00001080402010102040810204080010204DE
:102CE00008102040800505050507050808080802AA
:102CF0000202020A0A080804040404010101010195
:102D00000101010303030303030303040707070C83
:102D10000C0C0C0C0C0C0C02020202060606060639
:102D20000606060B0B0B0B0B0B0B0B0000200023F6
:102D300000260029002C002F0032000001000003B3
:102D4000010601090100002200250028002B002EA9
:102D5000003100340002010000050108010B0100F0
:102D6000002100240027002A002D0030003300013C
:102D7000010000040107010A014E414E494E495429
:102D800059494E46CDCCCC3D0AD7233C17B7D13854
:102D900077CC2B329595E6241FB14F0A00002041D5
:102DA0000000C84200401C4620BCBE4CCA1B0E5A44
:102DB000AEC59D746364696E6F70737578585B00FF
:102DC0004E448C02D80240031C0211241FBECFEFD8
:102DD000D1E2DEBFCDBF00E00CBF17E0A0E0B2E063
:102DE000E6E5FAEB03E00BBF02C007900D92AA37AD
:102DF000B107D9F729E1AAE7B7E001C01D92A43EC7
:102E0000B207E1F71DE2C8ECDDE200E006C0229760
:102E10000109FE010BBF0F9449D1C03CD10780E0EE
:102E20000807A9F70F9409C80D9419DD0C94000048
:102E300040E050E0BA010D946394FC0114821782C3
:102E40001382128282E596E0918380830895DC01EB
:102E5000ED91FC910190F081E02D199422E536E08E
:102E6000FC01318320832781222319F004960D94DD
:102E700046950895CF92DF92EF92FF920F931F93A2
:102E8000CF93DF93EC01895A9F4FD7DFCE0188584B
:102E90009F4FD3DF7E0127E9E20EF11C87016E010F
:102EA00033E3C31A3EEFD30AC801C7DF015E1F4FE9
:102EB0000C151D05C9F7FE01E153FE4F89E1818321
:102EC00014823596178ACE018E509E4FB6DFFE01D2
:102ED000ED55FD4F108211821282138238961082B6
:102EE0001182128213821A821B821C82188219821A
:102EF0006E0189E5C81A8DEFD80AF6011082118299
:102F000012821382F80111821082FE01EF5EFD4FE2
:102F1000108286E391E0F7019C011192215030402C
:102F2000E1F7FE01E155FD4F81E08083CB5ADF4F91
:102F3000198218820F94CCC268577C4E8F4F9F4FD6
:102F4000F6016083718382839383DF91CF911F9118
:102F50000F91FF90EF90DF90CF900895FC0120E05B
:102F60003EE2DB014C91403241F0283011F43083D5
:102F70003196DB014C91408331962F5F6F5F7F4F1D
:102F80002B3079F7108208952BE1FB013496DC0198
:102F9000149601900D922A95E1F7FB01228133816D
:102FA000FC013383228322E536E0318320830895B8
:102FB0002F923F924F925F926F927F928F929F9249
:102FC000AF92BF92CF92DF92EF92FF920F931F9337
:102FD000CF93DF93CDB7DEB7CA57D1090FB6F894B8
:102FE000DEBF0FBECDBF8C016B015A0129012DB789
:102FF0003EB7E3963FAF2EAFE397AD961FAEAD97CA
:1030000034E0A30EB11C4296E5969FAF8EAFE597D4
:10301000F801EC5AFF4FE796FFAFEEAFE7971801C4
:10302000F0E52F1AFDEF3F0A98012E543D4FAF9661
:103030003FAF2EAFAF97380135E0630E711C7E01B4
:103040008FE5E80EF11CE0E4F0E0EC0FFD1F349694
:10305000E996FFAFEEAFE997E5964EAD5FADE59728
:10306000BE016F5F7F4FC5010F94B09318160CF02F
:1030700028C12C85322F3871303109F0AEC0F101F2
:10308000808191810197029708F4A7C02DB73EB7C0
:10309000E1963FAF2EAFE197BE016F5F7F4FC70153
:1030A0005DDF81E0F601908191118FC0E1E0F0E0F9
:1030B000D7010D900020E9F7EE19FF09EA0FFB1F79
:1030C00031962DB73EB72E1B3F0B0FB6F8943EBF7F
:1030D0000FBE2DBFEDB7FEB731964F01882319F013
:1030E00062E873E001C0B601C4010F949FD6B70136
:1030F000C4010F9480D662E873E0C4010F9480D6B7
:10310000CE01805C9F4F99DE21E0A701B501E996D1
:103110008EAD9FADE9970F943D97811137C0F101B6
:1031200080819181892B91F5E6E3F9E064919F011B
:103130006623B9F0772767FD70958EE998E1EA96E6
:103140002FAFEA97EB963FAFEB9781DEEA962FAD74
:10315000EA97EB963FADEB972F5F3F4FF9016491F4
:10316000E7CF64E873E08EE998E10F9453C86AE012
:1031700070E08EE998E16BDEB7018EE998E10F947B
:1031800053C86AE070E08EE998E161DEBE01605CE0
:103190007F4FCE018196F8DE20E030E0AE014F5D3A
:1031A0005F4FB401C80104DFCE01819657DECE0126
:1031B000805C9F4F53DEE1962EAD3FADE1970FB699
:1031C000F8943EBF0FBE2DBF47CF80E00190002096
:1031D000E9F73197EC19FD096BCF8981882309F450
:1031E00070C0853E09F438CF8E3209F435CFF8012E
:1031F00082898E3209F430CF23FD2ECF81E0303129
:1032000009F080E0E796EEADFFADE797808381118E
:1032100008C08985873409F01FCF8A858E3709F465
:103220001BCFF1018081918181309105D9F08230ED
:10323000910511F1892B09F00FCFBE016F5F7F4F10
:10324000C3018CDEB6018EE998E10F9453C8B30137
:103250008EE998E10F9453C86AE070E08EE998E136
:10326000F6DDFACEAF96EEADFFADAF9780819181DE
:10327000019691838083F0CEBE016F5F7F4FC301C3
:103280006DDE4114510439F0B301C2010F946DD6C3
:10329000892B79F416C0AD96FFADAD972F2F30E096
:1032A000AF96EEADFFADAF978081918128173907BA
:1032B00041F0AD96FFADAD97FF5FAD96FFAFAD9717
:1032C000CBCEE3962EAD3FADE3970FB6F8943EBF5D
:1032D0000FBE2DBFC658DF4F0FB6F894DEBF0FBE2E
:1032E000CDBFDF91CF911F910F91FF90EF90DF90B5
:1032F000CF90BF90AF909F908F907F906F905F9096
:103300004F903F902F9008950F931F93CF93DF938B
:10331000CDB7DEB76F970FB6F894DEBF0FBECDBF47
:103320008C01FC01E055FD4F11821082855A9F4FA0
:103330007FDDB801695A7F4FCE01019625DE20E07E
:1033400030E0AE014F5F5F4F6CE677E0C80130DEE2
:10335000CE01019683DD6F960FB6F894DEBF0FBEE7
:10336000CDBFDF91CF911F910F9108952BE1FB010C
:103370003496DC01149601900D922A95E1F7FB0139
:1033800022813381FC01338322830895EF92FF92DF
:103390000F931F93CF93DF93EC011C82FC01E25A41
:1033A000FF4F8081882329F0CE01855A9F4F0F94CB
:1033B00046957E0181E3E81A8EEFF80A45E360E066
:1033C000C7010F94C78F81113AC0E6E3F9E0649119
:1033D0008F01662359F0772767FD70958EE998E194
:1033E00036DD0F5F1F4FF8016491F3CFE9E2F9E09A
:1033F00064918F01662359F0772767FD70958EE9F8
:1034000098E125DD0F5F1F4FF8016491F3CF6AE06B
:1034100070E08EE998E11BDD8E01095A1F4FB8015B
:10342000CE0188589F4FA2DFCA58DF4F1983088307
:10343000DF91CF911F910F91FF90EF9008958E0132
:103440000C521E4F41E0B701C8010F94309D81110D
:103450002AC040E0B701C8010F94309D811123C0FC
:10346000ECE3F9E064918F01662359F0772767FD5B
:1034700070958EE998E1EBDC0F5F1F4FF8016491C6
:10348000F3CFE6E1F9E064918F01662309F4BFCF41
:10349000772767FD70958EE998E1D9DC0F5F1F4FA4
:1034A000F8016491F2CFB801CE01855A9F4F0F9475
:1034B0005492811123C0ECE3F9E064918F016623FB
:1034C00059F0772767FD70958EE998E1C0DC0F5FB2
:1034D0001F4FF8016491F3CFE6E0F9E064918F01AA
:1034E000662309F494CF772767FD70958EE998E1FC
:1034F000AEDC0F5F1F4FF8016491F2CF81E08C8347
:10350000E6E3F9E064918F01662359F0772767FDC0
:1035100070958EE998E19BDC0F5F1F4FF801649175
:10352000F3CFEBEFF8E064918F01662309F46FCFDE
:10353000772767FD70958EE998E189DC0F5F1F4F53
:10354000F8016491F2CFFC011282148208950F9366
:103550001F93CF93DF93EC018C81882311F1E2EF6D
:10356000F8E064918F01662359F0772767FD709525
:103570008EE998E16CDC0F5F1F4FF8016491F3CF87
:103580004091CA0A5091CB0A6091CC0A7091CD0A41
:1035900022E030E08EE998E10F942DCA81E08A8321
:1035A0001B82DF91CF911F910F910895FC018281C1
:1035B000882319F0128281E083830895AF92BF922D
:1035C000CF92DF92EF92FF920F931F93CF93DF93EF
:1035D0001F92CDB7DEB78C018FE2FB0181935F01B3
:1035E000D12C41E07801F3E3EF1AFEEFFF0A8FE1FF
:1035F000C82E2D2D30E0F7018081918128173907E1
:10360000D8F4C29EC001C39E900D112485569F4FD1
:10361000B501800F911F49830F94FB91C50149812A
:103620005C010196F5012081222321F04D3810F430
:103630004F5FF6CFD394DDCF47FD11C0B501C80170
:103640008A509E4F0F90DF91CF911F910F91FF9065
:10365000EF90DF90CF90BF90AF900D94FB91F5016C
:1036600010820F90DF91CF911F910F91FF90EF90FB
:10367000DF90CF90BF90AF9008954F925F926F927E
:103680007F928F929F92AF92BF92CF92DF92EF92F2
:10369000FF920F931F93CF93DF93CDB7DEB7AC9715
:1036A0000FB6F894DEBF0FBECDBF7C015B01FC01FD
:1036B0008481882309F4F9C0C7018A509E4F0F9472
:1036C0004695F7011282CE0101966C01B6DB270107
:1036D00096E7490E511CC701895A9F4FF201918309
:1036E0008083F50180818F3209F077C06FE270E04E
:1036F000C5010F948BD68C010F5F1F4F09F473C067
:103700006FE270E0C8010F948BD64C01009709F46A
:103710006BC00817190708F067C03C01601A710AEE
:10372000A301B801CE0180960F94B4D6E0E2F0E098
:10373000EC0FFD1FE60DF71D1082BE01605E7F4F8E
:103740008EE998E10F9453C86AE070E08EE998E141
:103750007EDBF201608171816115710519F06C5F8A
:103760007F4F02C060E070E021E0AE01405E5F4F3D
:10377000CE0105960F943D9781112AC0E7EDF7E041
:1037800064918F01662359F0772767FD70958EE964
:1037900098E15DDB0F5F1F4FF8016491F3CFBE012D
:1037A000605E7F4F8EE998E10F9453C8E5EDF7E036
:1037B00064918F01662309F471C0772767FD7095C6
:1037C0008EE998E144DB0F5F1F4FF8016491F2CF5F
:1037D000F201D182C08284018FCFC70188589F4FE8
:1037E000F201918380838501F201808191810097AC
:1037F00011F0049602C080E090E0B8010F94139895
:10380000882321F1E7ECF7E064915F01662361F022
:10381000772767FD70958EE998E119DBFFEFAF1A06
:10382000BF0AF5016491F2CFB8018EE998E10F94D7
:1038300053C86AE070E08EE998E109DBF701E555CD
:10384000FD4F10821182128213822DC0EFEAF7E041
:1038500064917F01662361F0772767FD70958EE99B
:1038600098E1F5DAFFEFEF1AFF0AF7016491F2CF62
:10387000B8018EE998E10F9453C8EDEAF7E064913E
:103880008F01662359F0772767FD70958EE998E1DF
:10389000DEDA0F5F1F4FF8016491F3CF6AE070E04A
:1038A0008EE998E1D4DAC601D9DAAC960FB6F8946D
:1038B000DEBF0FBECDBFDF91CF911F910F91FF9063
:1038C000EF90DF90CF90BF90AF909F908F907F90C0
:1038D0006F905F904F9008950F931F93CF93DF9356
:1038E000EC018C81882309F43CC0EBE9F7E064919A
:1038F0008F01662359F0772767FD70958EE998E16F
:10390000A6DA0F5F1F4FF8016491F3CFFE01E55572
:10391000FD4F40815181628173812AE030E08EE960
:1039200098E10F942FC9E9E9F7E064918F016623CC
:1039300059F0772767FD70958EE998E188DA0F5F77
:103940001F4FF8016491F3CFCD55DD4F4881598168
:103950006A817B812AE030E08EE998E10F942FC9DB
:1039600010C0E9E8F7E06491EF01662351F0772792
:1039700067FD70958EE998E16ADA2196FE016491FF
:10398000F4CF6AE070E08EE998E1DF91CF911F916A
:103990000F915DCAAF92BF92CF92DF92EF92FF92EA
:1039A0000F931F93CF93DF935C01EB01FB01019019
:1039B0000020E9F78F0101501109061B170B6C015C
:1039C000FAE0CF1AFEEFDF0AF60110826EE470E033
:1039D000CE010F948BD67C01009729F4F801319722
:1039E000EC0FFD1F0DC060E270E00F948BD6EC0170
:1039F00021966AE270E0C7010F948BD6FC013197E3
:103A00008DE081838AE082831382BE01C5018E50DE
:103A10009E4F0F94D999F6018081882379F1ECE3C8
:103A2000F9E06491EF01662351F0772767FD709507
:103A30008EE998E10CDA2196FE016491F4CFE3E778
:103A4000F7E06491EF01662351F0772767FD7095E9
:103A50008EE998E1FCD92196FE016491F4CF6AE0E9
:103A600070E08EE998E1DF91CF911F910F91FF9067
:103A7000EF90DF90CF90BF90AF90E9C9DF91CF91E9
:103A80001F910F91FF90EF90DF90CF90BF90AF907C
:103A900008952F923F924F925F926F927F928F92F2
:103AA0009F92AF92BF92CF92DF92EF92FF920F93CD
:103AB0001F93CF93DF93CDB7DEB7CC55D1090FB6A7
:103AC000F894DEBF0FBECDBF4C018C0101551D4FD8
:103AD000662339F0F8011082F401848181111DC040
:103AE00015C0F8018081882309F4ABC0F401E955C1
:103AF000FD4FC080D180E280F3800F94CCC2C61607
:103B0000D706E806F90608F49CC0E4CFC4013EDC01
:103B1000F4018481882309F494C07401F5E5EF0E63
:103B2000F11CF70181818F9380818F938AE697E062
:103B30009F938F938E01015C1F4F1F930F930F94E0
:103B400002D70F900F900F900F900F900F90B12C05
:103B5000F80101900020E9F73197E01BF10BBE1648
:103B600084F46801CB0CD11CB7FCDA94F601808197
:103B7000992787FD90950F940DD6F6018083B39415
:103B8000E7CFFBE58F0E911CC40152D9512CCE0119
:103B900001966C0193E6692E97E0792E5E0191E221
:103BA000A90EB11C40E050E0B601C4010F94B093DF
:103BB0001816DCF5412CF60101900020E9F7319749
:103BC000EC19FD094E1674F41601240C311C47FC47
:103BD0003A94F101808190E00F940DD6F101808339
:103BE0004394E9CF8A858E37E9F245E050E0B80189
:103BF000C6010F94A6D6892BA9F61F930F937F9227
:103C00006F92BF92AF920F9402D7C5010E940050ED
:103C10008FE597E00E947C500F900F900F900F90CF
:103C20000F900F9055245394BDCF511004C08FEFC7
:103C30009FEFF70104C0F701808191810196918384
:103C40008083C45ADF4F0FB6F894DEBF0FBECDBFDE
:103C5000DF91CF911F910F91FF90EF90DF90CF9068
:103C6000BF90AF909F908F907F906F905F904F909C
:103C70003F902F900895EF92FF920F931F93CF9351
:103C8000DF931F92CDB7DEB78C017C018AE0E81A82
:103C90008EEFF80AC70169830F94FC94C7010F9453
:103CA0004695F801108211826981662309F407C1E3
:103CB0008091F90A9091FA0AA091FB0AB091FC0A4E
:103CC0008093900B9093910BA093920BB093930BD6
:103CD0008091FD0A9091FE0AA091FF0AB091000B1D
:103CE00080938C0B90938D0BA0938E0BB0938F0BC6
:103CF0008091010B9091020BA091030BB091040BEA
:103D00008093880B9093890BA0938A0BB0938B0BB5
:103D10008091540A90E09093870B8093860B40919A
:103D2000050B5091060B6091070B7091080B4093A7
:103D3000820B5093830B6093840B7093850BF70178
:103D400080859185A285B38580937E0B90937F0BB0
:103D5000A093800BB093810B809176189091771887
:103D600090937B0B80937A0B8091781890917918BF
:103D700090937D0B80937C0B8091741890917518B3
:103D80009093790B8093780B80915E0290915F0203
:103D90009093750B8093740B8091520A9091530A03
:103DA0009093770B8093760B8091500A9091510AF3
:103DB00090935F0B80935E0B8091470B80935D0B1C
:103DC0008091480B9091490B9093610B8093600B0D
:103DD00080914A0B90914B0B9093630B8093620BF5
:103DE00080914C0B90914D0B9093650B8093640BDD
:103DF00080914E0B90914F0B9093670B8093660BC5
:103E00008091500B9091510B9093690B8093680BAC
:103E10008091520B9091530B90936B0B80936A0B94
:103E20008091540B9091550B90936D0B80936C0B7C
:103E30008091560B9091570B90936F0B80936E0B64
:103E40008091580B9091590B9093710B8093700B4C
:103E500080915A0B90915B0B9093730B8093720B34
:103E60000E942B6890937702809376020E94B96B30
:103E70006093720270937302809374029093750240
:103E8000E3E5F7E064918F01662361F0772767FD32
:103E900070958EE998E10E9427170F5F1F4FF80178
:103EA0006491F2CF6AE070E08EE998E10F90DF91C3
:103EB000CF911F910F91FF90EF900C9427170F90C7
:103EC000DF91CF911F910F91FF90EF900895CF92C6
:103ED000DF92EF92FF920F931F93CF93DF93CDB7B3
:103EE000DEB76F970FB6F894DEBF0FBECDBF8C0163
:103EF0006A017C0186E7E80EF11CC80188589F4FD3
:103F0000F70191838083E65CFD4F22E030E031834E
:103F1000208332967183608304960E941817F701FC
:103F200060817181CE0101962FD89601AE014F5F5D
:103F30005F4F6CE677E0C8013BD8CE0101960E9446
:103F40002E176F960FB6F894DEBF0FBECDBFDF9170
:103F5000CF911F910F91FF90EF90DF90CF90089538
:103F6000CF92DF92EF92FF920F931F93CF93DF9345
:103F7000CDB7DEB76F970FB6F894DEBF0FBECDBFDB
:103F80008C016C0126E7C20ED11C88589F4FF601A8
:103F900091838083E65CFD4F21E030E03183208314
:103FA0007801FEE4EF1AFDEFFF0AF701118210829B
:103FB00004960E941817F60160817181CE01019666
:103FC0000E94C41720E030E0AE014F5F5F4F6CE607
:103FD00077E0C8010E94D817CE0101960E942E17E3
:103FE000F701808191816F960FB6F894DEBF0FBE06
:103FF000CDBFDF91CF911F910F91FF90EF90DF9098
:10400000CF9008952F923F924F925F926F927F923E
:104010008F929F92AF92BF92CF92DF92EF92FF92D8
:104020000F931F93CF93DF93CDB7DEB7C257D1095C
:104030000FB6F894DEBF0FBECDBF8C012B01E19609
:104040004FAFE197FC018481882309F430C4E75025
:10405000FE4F8081882309F412C12111D9C0780153
:10406000FFEEEF1AFDEFFF0AF7018081882309F4C4
:1040700035C0ECE3F9E064918F01662361F07727A6
:1040800067FD70958EE998E10E9427170F5F1F4F1B
:10409000F8016491F2CFEFEAF8E064918F016623B2
:1040A00061F0772767FD70958EE998E10E942717E8
:1040B0000F5F1F4FF8016491F2CF4AE050E061E0DA
:1040C00070E08EE998E10F9402C96AE070E08EE931
:1040D00098E10E9427170E94B1B1E9C3E6E3F9E035
:1040E00064916F01662369F0772767FD70958EE90B
:1040F00098E10E942717FFEFCF1ADF0AF6016491BB
:10410000F1CFE6E9F8E064916F01662369F0772763
:1041100067FD70958EE998E10E942717FFEFCF1A8F
:10412000DF0AF6016491F1CFB2018EE998E10F94B4
:1041300053C8EBE8F8E064916F01662369F07727D4
:1041400067FD70958EE998E10E942717FFEFCF1A5F
:10415000DF0AF6016491F1CFF70180812DE8D22EBC
:10416000B801D89E600D711D11246A5E7D4FC80193
:1041700025DAF7018081B801D89E600D711D1124E8
:104180006A5E7D4F8EE998E10F9453C8E5E8F8E048
:1041900064916F01662369F0772767FD70958EE95A
:1041A00098E10E942717FFEFCF1ADF0AF60164910A
:1041B000F1CF6801F5E5CF1AFDEFDF0AF601408186
:1041C0005181628173812AE030E08EE998E10F9499
:1041D0002FC96AE070E08EE998E10E942717F70185
:1041E0002081F80184E0289FE00DF11D1124AF012A
:1041F0004E5E5D4FF60180819181A281B381FA010B
:1042000080839183A283B3832F5FF701208331C022
:10421000E6E3F9E064917F01662369F0772767FDA3
:1042200070958EE998E10E942717FFEFEF1AFF0AB9
:10423000F7016491F1CFE4E7F8E064917F01662330
:1042400069F0772767FD70958EE998E10E9427173E
:10425000FFEFEF1AFF0AF7016491F1CFB2018EE987
:1042600098E10F9453C86AE070E08EE998E10E94EB
:104270002717C8018A509E4F0F94469535C0F80104
:10428000EF5EFD4F1082E6E3F9E064917F01662363
:1042900069F0772767FD70958EE998E10E942717EE
:1042A000FFEFEF1AFF0AF7016491F1CFE3E6F8E0C0
:1042B00064917F01662369F0772767FD70958EE929
:1042C00098E10E942717FFEFEF1AFF0AF7016491A8
:1042D000F1CFB2018EE998E10F9453C86AE070E023
:1042E0008EE998E10E942717F80112821E01F0E280
:1042F0002F0E311CC1010E941D17C8018A589F4F03
:10430000AC969FAF8EAFAC974F97AC96EEADFFAD2E
:10431000AC9791838083F20180818F3209F051C183
:104320006FE270E0C2010F948BD601967C01C80148
:1043300080559D4FE0969FAF8EAFE097F801EE5409
:10434000FD4FAE96FFAFEEAFAE974E01FFE38F0E7F
:10435000911C380185E0680E711CE114F10409F428
:104360009AC16FE270E0C7010F948BD66C01009781
:1043700009F492C1E816F90608F08EC15C01AE1886
:10438000BF08A501B701CE01835A9F4F0F94B4D641
:10439000EDE5F0E0EC0FFD1FEA0DFB1D1082BE0104
:1043A000635A7F4F8EE998E10F9453C86AE070E03A
:1043B0008EE998E10E942717AC96EEADFFADAC9761
:1043C000608171816115710519F06C5F7F4F02C0CA
:1043D00060E070E021E0AE01435A5F4FCE01849669
:1043E0000F943D9781112CC0EFE4F8E064918F01A8
:1043F000662361F0772767FD70958EE998E10E944A
:1044000027170F5F1F4FF8016491F2CFBE01635A67
:104410007F4F8EE998E10F9453C8EDE4F8E0649182
:104420008F01662309F43AC2772767FD70958EE9FC
:1044300098E10E9427170F5F1F4FF8016491F1CF99
:10444000AC96EEADFFADAC97318220827601FFEFE6
:10445000EF1AFF0A8091D30B81117FCF81E090E0AA
:10446000E096EEADFFADE09791838083AE96EEAD22
:10447000FFADAE9711821082CE0184960E9418176C
:10448000B101CE0101960E94C41720E030E0AE01D8
:104490004F5F5F4F6CE677E0C8010E94D817CE01EE
:1044A00001960E942E17AE96EEADFFADAE97A0809E
:1044B000B1808EE1F40111928A95E9F77F926F92B3
:1044C0009F928F920F94D4D60F900F900F900F90D1
:1044D0006401F6018081882349F0992787FD909532
:1044E0000F940DD6F60181936F01F3CFC12CD12C1F
:1044F000B701C4010F9496D6892B09F45BC0CA1486
:10450000DB040CF057C082E090E0E096EEADFFAD2A
:10451000E09791838083AE96EEADFFADAE97D182EA
:10452000C082AC96EEADFFADAC97808191810496D0
:104530000E941817B101CE0101960E94C41720E015
:1045400030E0AE014F5F5F4F6CE677E0C8010E943C
:10455000D817CE0101960E942E17F4018EE1119218
:104560008A95E9F77F926F929F928F920F94D4D69B
:104570000F900F900F900F909401F9018081882384
:10458000A9F0992787FD9095E2962FAFE297E396E1
:104590003FAFE3970F940DD6E2962FADE297E396E7
:1045A0003FADE397F90181939F01E7CFFFEFCF1A6A
:1045B000DF0A9ECFAE96EEADFFADAE9711821082B0
:1045C000CCCEC80188589F4FAC96EEADFFADAC97EE
:1045D000918380838091D30B81115DC0C801C0DCC1
:1045E0004C01CE0101967C018EE1F70111928A9572
:1045F000E9F75801F5E0AF0EB11CBF92AF92FF9200
:10460000EF920F94D4D60F900F900F900F906701F8
:10461000F6018081882349F0992787FD90950F94B2
:104620000DD6F60181936F01F3CFC12CD12CB201CD
:10463000C7010F9496D6892B49F1C814D90434F5D3
:1046400040E050E0B601C80142DCF7018EE1119272
:104650008A95E9F7BF92AF92FF92EF920F94D4D66A
:104660000F900F900F900F903701F30180818823F6
:1046700049F0992787FD90950F940DD6F30181930A
:104680003F01F3CFFFEFCF1ADF0AD1CFF801EE548D
:10469000FD4F118210827201C8018A509E4F6C0139
:1046A000E1969FADE197AC96EEADFFADAC97608122
:1046B0007181992309F4A0C06115710519F06C5F2F
:1046C0007F4F02C060E070E021E0A701C6010F94B7
:1046D0003D97882309F466C0F60181899289A389F0
:1046E000B489F801ED55FD4F80839183A283B38394
:1046F000EFE3F8E064915F01C8018D559D4F6C01B7
:10470000662369F0772767FD70958EE998E10E942E
:1047100027179FEFA91AB90AF5016491F1CFB701E4
:104720008EE998E10F9453C8E7E3F8E064917F01C4
:10473000662369F0772767FD70958EE998E10E94FE
:104740002717FFEFEF1AFF0AF7016491F1CFF60187
:1047500040815181628173812AE030E08EE998E1E5
:104760000F942FC96AE070E08EE998E10E94271744
:10477000F801E555FD4F1082118212821382E9E2A1
:10478000F8E064918F01662309F488C0772767FDFC
:1047900070958EE998E10E9427170F5F1F4FF8016F
:1047A0006491F1CFE5E1F8E064918F01662361F057
:1047B000772767FD70958EE998E10E9427170F5FB4
:1047C0001F4FF8016491F2CFB7018EE998E10F9481
:1047D00053C8E3E1F8E064918F01662309F45EC0F9
:1047E000772767FD70958EE998E10E9427170F5F84
:1047F0001F4FF8016491F1CF6115710519F06C5FDD
:104800007F4F02C060E070E026E5A701C6010F946B
:104810003D97811129C0EFEFF7E064918F01662386
:1048200061F0772767FD70958EE998E10E94271760
:104830000F5F1F4FF8016491F2CFB7018EE998E145
:104840000F9453C8EDEFF7E064918F01662331F1C7
:10485000772767FD70958EE998E10E9427170F5F13
:104860001F4FF8016491F2CF81E0F8018083EBEEF5
:10487000F7E064918F01662361F0772767FD7095FB
:104880008EE998E10E9427170F5F1F4FF80164918E
:10489000F2CFB2018EE998E10F9453C86AE070E05C
:1048A0008EE998E10E942717C1010E942E17CE5869
:1048B000DF4F0FB6F894DEBF0FBECDBFDF91CF91B3
:1048C0001F910F91FF90EF90DF90CF90BF90AF902E
:1048D0009F908F907F906F905F904F903F902F9020
:1048E000089521E0FC01218340E08CCBAF92BF9280
:1048F000CF92DF92EF92FF920F931F93CF93DF93AC
:10490000CDB7DEB76F970FB6F894DEBF0FBECDBF41
:104910008C017B01CE0101960E941D17F801E15820
:10492000FF4F80816801811104C027E5C20ED11CB0
:1049300003C088E7C80ED11C21E0A701B6016C5F57
:104940007F4FCE0105960F943D97811136C0E6E367
:10495000F9E064918F01662361F0772767FD709518
:104960008EE998E10E9427170F5F1F4FF8016491AD
:10497000F2CFEDE3F7E064918F01662361F07727D2
:1049800067FD70958EE998E10E9427170F5F1F4F12
:10499000F8016491F2CFB7018EE998E10F9453C802
:1049A0006AE070E08EE998E10E942717CE01019637
:1049B0000E942E178FEF9FEF3AC0F801E353FE4F8E
:1049C000808191818A30910530F59C012F5F3F4FA6
:1049D000318320832FE1289F7001299FF00C11243F
:1049E000F7E9EF0EF11CE00EF11E5C01B701C70103
:1049F0004F960E94B61921E0A21AB1088FE1E81A79
:104A0000F108EFEFAE16BE0689F7B601C801895668
:104A10009F4F0E94B619BE016F5F7F4FC801885833
:104A20009F4F0E94B619CE0101960E942E176F96D5
:104A30000FB6F894DEBF0FBECDBFDF91CF911F91AF
:104A40000F91FF90EF90DF90CF90BF90AF900895BF
:104A5000EF92FF920F931F93CF93DF93EC01C35319
:104A6000DE4F288139812115310529F12150310985
:104A7000398328838C0109561F4FB80188589F4FEE
:104A80000E94B619C80100E010E0288139817C013C
:104A90004FE1E40EF11C0217130738F40F5F1F4FAC
:104AA000B7010E94B619C701F0CF81E090E0232B37
:104AB00021F080E002C08FEF9FEFDF91CF911F9137
:104AC0000F91FF90EF9008958F929F92AF92BF92B7
:104AD000CF92DF92EF92FF920F931F93CF93DF93CA
:104AE000EC011092150B8091830A9091840A019633
:104AF0009093840A8093830AF5D240910B155091CC
:104B00000C1560910D1570910E1540930F15509373
:104B10001015609311157093121588E397E00E94A9
:104B20007C500F94DCA67E018FEEE81A8DEFF80A18
:104B3000F70180818E010A501E4F8823D1F1C801F0
:104B40000F944695F701808181508083BE01FDE876
:104B50008F9F600D711D11246A5E7D4F21E041E041
:104B6000CE0150DAF7018081FE0194E0899FE00DCB
:104B7000F11D1124EE5EFD4F4081518162817381F0
:104B8000FE01E555FD4F4083518362837383C80165
:104B90000F946394CE01DF91CF911F910F91FF90FD
:104BA000EF90DF90CF90BF90AF909F908F900C943C
:104BB000A71A0F946DA7C8010F9446951A8220E09A
:104BC00030E045E050E06AE070E082EF9EE00E9455
:104BD0009A3F85E397E00E947C500F94DCA680E327
:104BE00097E00E947C5083E090E00E94266810923B
:104BF00077181092761810927918109278181092EF
:104C00007518109274181092510A1092500A10924E
:104C1000950B1092940B1092990B1092980B109286
:104C2000970B1092960B10925C0B1092D30B109274
:104C3000D20B1092D10B6091890A70918A0A8091EF
:104C40008B0A90918C0A2CE330E040E050E00F9406
:104C500019D03093860A2093850A7093880A60934E
:104C6000870AC0902715D0902815E0902915F0905C
:104C70002A152091750A3091760A4091770A509151
:104C8000780A6091790A70917A0A80917B0A9091F2
:104C90007C0A0F9470CC4B015C0120916B15309114
:104CA0006C1540916D1550916E1560916F15709156
:104CB000701580917115909172150F94B1CCA70168
:104CC00096010F949DCB9B01AC01C501B4010F94DB
:104CD000BDCA0F9405CC2093750A3093760A409391
:104CE000770A5093780A6093790A70937A0A8093CE
:104CF0007B0A90937C0A20916D0A30916E0A409154
:104D00006F0A5091700A6091710A7091720A8091D5
:104D1000730A9091740A0F9470CC4B015C0120913E
:104D20006315309164154091651550916615609139
:104D30006715709168158091691590916A150F94A7
:104D4000B1CCA70196010F949DCB9B01AC01C5018D
:104D5000B4010F94BDCA0F9405CC20936D0A309313
:104D60006E0A40936F0A5093700A6093710A7093B1
:104D7000720A8093730A9093740A2091650A3091A5
:104D8000660A4091670A5091680A6091690A7091B9
:104D90006A0A80916B0A90916C0A0F9470CC6B0137
:104DA0007C0120915B1530915C1540915D1550910F
:104DB0005E1560915F1570916015809161159091FD
:104DC00062150F94B1CC20912B1530912C15409188
:104DD0002D1550912E150F949DCB9B01AC01C70151
:104DE000B6010F94BDCA0F9405CC2093650A309389
:104DF000660A4093670A5093680A6093690A709341
:104E00006A0A80936B0A90936C0AC0903315D09015
:104E10003415E0903515F090361520915D0A3091EB
:104E20005E0A40915F0A5091600A6091610A709138
:104E3000620A8091630A9091640A0F9470CC4B01CE
:104E40005C012091531530915415409155155091A6
:104E5000561560915715709158158091591590917C
:104E60005A150F94B1CCA70196010F949DCB9B01CD
:104E7000AC01C501B4010F94BDCA0F9405CC2093B9
:104E80005D0A30935E0A40935F0A5093600A609314
:104E9000610A7093620A8093630A9093640A209176
:104EA000550A3091560A4091570A5091580A60911C
:104EB000590A70915A0A80915B0A90915C0A0F948A
:104EC00070CC4B015C0120914B1530914C154091F9
:104ED0004D1550914E1560914F1570915015809160
:104EE0005115909152150F94B1CCA70196010F94D2
:104EF0009DCB9B01AC01C501B4010F94BDCA0F94B9
:104F000005CC2093550A3093560A4093570A509384
:104F1000580A6093590A70935A0A80935B0A9093D7
:104F20005C0A10926B1510926C1510926D15109210
:104F30006E1510926F1510927015109271151092D7
:104F400072151092631510926415109265151092E7
:104F500066151092671510926815109269151092D7
:104F60006A1510925B1510925C1510925D151092E7
:104F70005E1510925F1510926015109261151092D7
:104F800062151092531510925415109255151092E7
:104F900056151092571510925815109259151092D7
:104FA0005A1510924B1510924C1510924D151092E7
:104FB0004E1510924F1510925015109251151092D7
:104FC000521590D084E297E00E947C508091C214E8
:104FD0008823F9F01092C214C091540AD0E0CC0F8B
:104FE000DD1FCA58D74E68817981882777FD809563
:104FF000982F0F9476CC2091BE023091BF02409141
:10500000C0025091C1020F9425CE181614F41982D3
:105010001882DF91CF911F910F91FF90EF90DF9059
:10502000CF90BF90AF909F908F9008958D559D4FDA
:10503000FC016081718182819381089585559D4F26
:10504000FC0160817181828193810895EF92FF92CA
:105050000F931F93CF93DF931F92CDB7DEB78C01D1
:105060007B01460FF70161917F01F80180819181F9
:1050700049830F9400DCF80180819181019691832E
:10508000808349814E11EECF0F90DF91CF911F9118
:105090000F91FF90EF900895EF92FF920F931F935F
:1050A000CF93DF931F92CDB7DEB78C017B01460F04
:1050B000F8018081918149830F94F8DBF701819396
:1050C0007F01F801808191810196918380834981DC
:1050D0004E11EECF0F90DF91CF911F910F91FF9066
:1050E000EF9008950F931F93CF93DF93CDB7DEB763
:1050F00068970FB6F894DEBF0FBECDBF80E390E394
:10510000A0E3B0E08D839E83AF83B88704E610E010
:10511000188F0F8B44E0BE016B5F7F4FCE01479627
:1051200095DF40E167E275E1CE0147968FDF40E110
:1051300067E375E1CE01479689DF40E167E175E1FC
:10514000CE01479683DF44E06FE075E1CE014796DC
:105150007DDF44E067E075E1CE01479677DF44E00C
:1051600063E175E1CE01479671DF44E067EF74E1DA
:10517000CE0147966BDF44E067E475E1CE014796C8
:1051800065DF44E063E075E1CE0147965FDF44E010
:105190006FEF74E1CE01479659DF44E06BEF74E1A5
:1051A000CE01479653DF4CE06DED7AE0CE01479695
:1051B0004DDF87ED90E09E8B8D8B8DE290E09C8B98
:1051C0008B8B1A8A198A80EF90E0988B8F8786E400
:1051D00090E09E878D871C861B8642E0BE016B5E39
:1051E0007F4FCE01479632DF42E0BE016D5E7F4FBA
:1051F000CE0147962BDF42E0BE016F5E7F4FCE01AE
:10520000479624DF42E0BE01615F7F4FCE014796A3
:105210001DDF42E0BE01635F7F4FCE01479616DF80
:1052200042E0BE01655F7F4FCE0147960FDF44E04D
:105230006AEC7AE0CE01479609DF44E06BE272E067
:10524000CE01479603DF44E063E372E0CE01479668
:10525000FDDE44E06BE372E0CE014796F7DE42E00C
:1052600060E47BE0CE014796F1DE42E064E47BE05F
:10527000CE014796EBDE42E062E47BE0CE0147964A
:10528000E5DE42E06EE37BE0CE014796DFDE42E002
:1052900060E37BE0CE014796D9DE42E064E37BE049
:1052A000CE014796D3DE42E062E37BE0CE01479633
:1052B000CDDE42E06EE27BE0CE014796C7DE42E003
:1052C00068E37BE0CE014796C1DE42E06CE37BE021
:1052D000CE014796BBDE42E06AE37BE0CE01479613
:1052E000B5DE42E066E37BE0CE014796AFDE42E00A
:1052F00068E27BE0CE014796A9DE42E06CE27BE00B
:10530000CE014796A3DE42E06AE27BE0CE014796FB
:105310009DDE42E066E27BE0CE01479697DE44E008
:105320006DE173E0CE01479691DE44E065E173E004
:10533000CE0147968BDE44E06DE073E0CE014796E8
:1053400085DE44E061E273E0CE0147967FDE44E013
:1053500069E173E0CE01479679DE44E061E173E0F4
:10536000CE01479673DE42E06FE87AE0CE014796C1
:105370006DDE42E063E87AE0CE01479667DE42E008
:1053800061E87AE0CE01479661DE42E06FE77AE0BD
:10539000CE0147965BDE42E06DE87AE0CE014796AB
:1053A00055DE42E06DE77AE0CE0147964FDE80E2BF
:1053B00090E09A87898742E0BE01675F7F4FCE0108
:1053C000479644DE42E06BED7BE0CE0147963EDE41
:1053D00044E067ED7BE0CE01479638DE42E065EDC4
:1053E0007BE0CE01479632DE42E067E87AE0CE010C
:1053F00047962CDE42E065E87AE0CE01479626DE4D
:1054000048E065E77AE0CE01479620DE48E06DE6A9
:105410007AE0CE0147961ADE48E065E67AE0CE01F2
:10542000479614DE48E06DE57AE0CE0147960EDE41
:1054300048E065E57AE0CE01479608DE42E060E7A5
:1054400072E0CE01479602DE42E068E772E0CE01EC
:105450004796FCDD44E060E97BE0CE014796F6DD4F
:1054600044E06CE87BE0CE014796F0DD44E068E87C
:105470007BE0CE014796EADD42E066E87BE0CE01C4
:105480004796E4DD44E062E87BE0CE014796DEDD4E
:1054900044E06EE77BE0CE014796D8DD42E06CE762
:1054A0007BE0CE014796D2DD42E06AE77BE0CE01A9
:1054B0004796CCDD42E068E77BE0CE014796C6DD4B
:1054C00042E066E77BE0CE014796C0DD42E064E75C
:1054D0007BE0CE014796BADD41E06DE57BE0CE0191
:1054E0004796B4DD42E060E67BE0CE014796AEDD54
:1054F00042E062E67BE0CE014796A8DD42E064E64A
:105500007BE0CE014796A2DD42E066E67BE0CE017D
:1055100047969CDD42E068E67BE0CE01479696DD4B
:1055200042E06AE67BE0CE01479690DD42E06CE621
:105530007BE0CE0147968ADD42E06EE67BE0CE015D
:10554000479684DD42E060E77BE0CE0147967EDD52
:1055500042E062E77BE0CE01479678DD44E06BE015
:1055600075E1CE01479672DD42E06DEA7BE0CE0147
:1055700047966CDD44E066EC7AE0CE01479666DD46
:1055800044E062EC7AE0CE01479660DD44E061E9F8
:105590007AE0CE0147965ADD44E065E97AE0CE0133
:1055A000479654DD44E069E97AE0CE0147964EDD46
:1055B00044E06DE97AE0CE01479648DD42E066E7D7
:1055C00072E0CE01479642DD44E062E772E0CE0130
:1055D00047963CDD42E060E57AE0CE01479636DD55
:1055E00042E060EC7AE0CE01479630DD42E062E4D2
:1055F00072E0CE0147962ADD86E591E3A2E3B0E0B2
:1056000089839A83AB83BC83188F0F8B44E0BE01E0
:105610006F5F7F4FCE01479619DDEEEDFFE064919D
:105620008F01662361F0772767FD70958EE998E119
:105630000E9427170F5F1F4FF8016491F2CFEEEC25
:10564000FFE064918F01662361F0772767FD709515
:105650008EE998E10E9427170F5F1F4FF8016491B0
:10566000F2CF6AE070E08EE998E10E942717689611
:105670000FB6F894DEBF0FBECDBFDF91CF911F9163
:105680000F9108950F931F93CF93DF93CEEDDFE03B
:10569000FE0164918E01662361F0772767FD7095A6
:1056A0008EE998E10E9427170F5F1F4FF801649160
:1056B000F2CFEEEBFFE064918F01662361F0772774
:1056C00067FD70958EE998E10E9427170F5F1F4FC5
:1056D000F8016491F2CF6AE070E08EE998E10E94EF
:1056E0002717FE0164910EED1FE0662361F0772716
:1056F00067FD70958EE998E10E9427170F5F1F4F95
:10570000F8016491F2CF40912715509128156091CE
:10571000291570912A1586EB9FE00E94944F4091C5
:105720002B1550912C1560912D1570912E1583EB32
:105730009FE00E94944F40912F1550913015609139
:1057400031157091321580EB9FE00E94944F40918B
:1057500033155091341560913515709136158DEAD9
:105760009FE00E94944F6CE677E08EE998E10F94F9
:1057700053C86AE070E08EE998E10E942717FE01A5
:1057800064910EED1FE0662361F0772767FD709549
:105790008EE998E10E9427170F5F1F4FF80164916F
:1057A000F2CFE3E9FFE064918F01662361F0772790
:1057B00067FD70958EE998E10E9427170F5F1F4FD4
:1057C000F8016491F2CF6AE070E08EE998E10E94FE
:1057D0002717FE0164910EED1FE0662361F0772725
:1057E00067FD70958EE998E10E9427170F5F1F4FA4
:1057F000F8016491F2CF40913715509138156091BE
:10580000391570913A158AE89FE00E94944F4091B3
:105810003B1550913C1560913D1570913E1587E800
:105820009FE00E94944F40913F1550914015609128
:1058300041157091421584E89FE00E94944F409179
:10584000431550914415609145157091461581E8B6
:105850009FE00E94944F6CE677E08EE998E10F9408
:1058600053C86AE070E08EE998E10E942717FE01B4
:1058700064910EED1FE0662361F0772767FD709558
:105880008EE998E10E9427170F5F1F4FF80164917E
:10589000F2CFE3E6FFE064918F01662361F07727A2
:1058A00067FD70958EE998E10E9427170F5F1F4FE3
:1058B000F8016491F2CF6AE070E08EE998E10E940D
:1058C0002717FE0164910EED1FE0662361F0772734
:1058D00067FD70958EE998E10E9427170F5F1F4FB3
:1058E000F8016491F2CF409117155091181560910D
:1058F000191570911A158AE59FE00E94DC4F4091BE
:105900001B1550911C1560911D1570911E1587E592
:105910009FE00E94DC4F40911F155091201560912F
:1059200021157091221584E59FE00E94DC4F409183
:10593000231550912415609125157091261581E548
:105940009FE00E94DC4F6CE677E08EE998E10F94CF
:1059500053C86AE070E08EE998E10E942717FE01C3
:1059600064910EED1FE0662361F0772767FD709567
:105970008EE998E10E9427170F5F1F4FF80164918D
:10598000F2CFECE1FFE064918F01662361F07727AD
:1059900067FD70958EE998E10E9427170F5F1F4FF2
:1059A000F8016491F2CF6AE070E08EE998E10E941C
:1059B0002717FE0164910EED1FE0662361F0772743
:1059C00067FD70958EE998E10E9427170F5F1F4FC2
:1059D000F8016491F2CF40910F155091101560912C
:1059E00011157091121583E19FE00E94944F409130
:1059F0000715509108156091091570910A1580E1FD
:105A00009FE00E94944F6CE677E08EE998E10F9456
:105A100053C86AE070E08EE998E10E942717FE0102
:105A200064910EED1FE0662361F0772767FD7095A6
:105A30008EE998E10E9427170F5F1F4FF8016491CC
:105A4000F2CFEDE5FEE064918F01662361F07727E8
:105A500067FD70958EE998E10E9427170F5F1F4F31
:105A6000F8016491F2CF6AE070E08EE998E10E945B
:105A70002717FE0164910EED1FE0662361F0772782
:105A800067FD70958EE998E10E9427170F5F1F4F01
:105A9000F8016491F2CF4091131550911415609163
:105AA00015157091161584E59EE00E94944F409163
:105AB000F7145091F8146091F9147091FA1481E57B
:105AC0009EE00E94944F4091471550914815609177
:105AD000491570914A158EE49EE00E94DC4F40917A
