:100000000C9496160C94C7160C94C7160C94C7162D
:100010000C94C7160C94C7160C94C7160C94C716EC
:100020000C94C7160C94C7160C94C7160C94C716DC
:100030000C94C7160C94C7160C94C7160C94C716CC
:100040000C94C7160C94C7160C94C7160C94C716BC
:100050000C94C7160C94C7160C9458F70C9431F5F1
:100060000C94C7160C94B9F20C9403F30C94C716B5
:100070000C94C7160C94C7160C94C7160C94C7168C
:100080000C94AF8D0C94C7160C94C7160C94C7161D
:100090000C94C7160C94C7160C94C7160C94C7166C
:1000A0000C94C7160C94C7160C94C7160C94C7165C
:1000B0000C94C7160C94C7160C94C7160C94C7164C
:1000C0000C94C7160C94C7160C94C7160C94ED86A6
:1000D0000C94C3860C94C7160C94C7160C94C716C0
:1000E0000C94C7168D336D57A53382306D57C02AD7
:1000F0006D57CA2A6D576D57A83E092B6D576D571E
:10010000252720276D57AF3F6D576D576D575A45BF
:100110006245BC4AC44ABB4D6D57A945E7452546D3
:10012000FE468246F63FE83F7530C0466D57C52A09
:100130007D27A72A4930CC416A30A54A1F515F303C
:100140005430AD4AB54A6D5797336A45463C7342C1
:10015000D22A34272A276D575A3AF92BA44D6D57C6
:10016000AC4D372DCC4A66364F2AE64E133BF8513C
:10017000C7361C4B7245C34D3D2C2F352F35E1340E
:1001800028378D37572D202B372BE62A862D1B2716
:100190002F276D576D576D57D733EC2D0E2E622BD1
:1001A0006E414B417A458245894591459945A14526
:1001B00033463B4643464B4653465B4662466A4699
:1001C00072467A4672470C47E847A9493349CD48F9
:1001D0006D57B44DAE2D312E462FD733EE34F63455
:1001E00014359D4A234D664D984D954AF63C5C2743
:1001F0001F5766336D576D5761556D571541044054
:100200006A38C4381D39F5379738F0384A39D0394B
:10021000A4399E328A32AD408F3052311C32533273
:100220006855AF32553378396D576D576D576D57E7
:100230006D576D576D576D576D57CC41682B702BAF
:10024000962BAB56E756534D794DCC4A984DCB4D36
:10025000CA4E6D578551E05122516F51E64F0552FC
:100260006D57FF4FD13DAF53B03E883FF2536D57AE
:100270006D578552CE52195364537E5212523D52DD
:10028000355436558A566D576D5741566D576D57D3
:100290009A566D57452C0F51ED4F0850AF50B65040
:1002A000A72A16518779657A527B2D7B897A087B3C
:1002B000E37AAC79D179F679CD7BF27B177C3C7C03
:1002C000407A1B7ABE7A40F243F232F236F23CF2C6
:1002D0007AF247F24BF251F255F259F25FF263F2C1
:1002E00067F27AF26DF271F275F24DF452F457F44E
:1002F00061F46BF4E4F475F47DF485F48FF499F40F
:10030000A3F4B2F4BCF4E4F4C6F4D0F4DAF4E2F703
:10031000EFF70BF818F832F83FF859F85BF85DF88A
:100320005FF867F8084AD73B3BCE016E84BCBFFD3F
:10033000C12F3D6C74319ABD56833DDA3D00C77FB5
:1003400011BED9E4BB4C3E916BAAAABE000000804E
:100350003F05A84CCDB2D44EB93836A9020C50B9DD
:10036000918688083CA6AAAA2ABE000000803F0009
:100370000D9405550D941B5C0D94E88C0D94F05B69
:100380000D946A060D94FE964E414E494E495459BD
:10039000494E46CDCCCC3D0AD7233C17B7D1387750
:1003A000CC2B329595E6241FB14F0A000020410066
:1003B00000C84200401C4620BCBE4CCA1B0E5AAEB0
:1003C000C59D746364696E6F70737578585B003B8C
:1003D000202020757365526166742C2564004D36AB
:1003E0003035205325640047333400494E464F3A98
:1003F000204245442043414C4942202D2000537562
:100400007266696E6720300A004732382058302003
:1004100059300054300054310054300054300053EF
:10042000757266696E6720300A00473433004734BE
:100430003300473431004734300047333400473409
:1004400033004734330047343100473430004D38EF
:1004500034004D3834004D3834005A32204F66662F
:100460007365743A20004F4B207365636F6E642090
:10047000457874727564657221005A20706F7369D3
:1004800074696F6E3A20005A20706F736974696FD7
:100490006E3A20004D3834005A312050726F626538
:1004A000206F66667365743A20004F4B2066697250
:1004B000737420457874727564657221200A005A3D
:1004C00020706F736974696F6E3A20005A20706FE4
:1004D000736974696F6E3A200043616C63756C7563
:1004E000733A20200043616C63756C75733A202069
:1004F0000043616C63756C75733A20200043616C36
:1005000063756C75733A202000363020646567721D
:10051000656573200A0054300054300054300043A5
:10052000616C6962726174696F6E20537563636593
:10053000737366756C0A005430004A756D70206FD5
:100540007665722073637265773120616E64207303
:100550006372657732200A004A756D70206F766588
:100560007220736372657731200A00473334004785
:100570003334004733340054300047333400494E9D
:10058000464F3A204245442043414C4942202D20C9
:10059000004C6F6164696E670A0053757266696E1C
:1005A0006720300A0053757266696E6720300A0052
:1005B00053757266696E6720300A00253364202502
:1005C00063430025336420256343002533642025DD
:1005D00063430050757267652046696C616D656E96
:1005E000740A0025336420256343002533642025E5
:1005F00063430025336420256343002533642025AD
:10060000634300253364202563430025336420259C
:10061000634300253364202563430025336420258C
:1006200063430053757266696E6720300A00537524
:100630007266696E6720300A00543000466F756E2E
:10064000640053757266696E6720300A004D33345A
:100650000053757266696E6720300A004D323400AF
:100660004D3233202573004D3234004D3233202576
:100670007300546865206669727374206C617965D3
:1006800072207072696E7465642077697468207472
:10069000686520257320486F74656E640A77696CFD
:1006A0006C20626520646973746F72746564206283
:1006B000792025642E253164253164206D6D005329
:1006C000757266696E6720300A0053757266696ECE
:1006D0006720300A0053757266696E6720300A0021
:1006E000535543434553530A002533642025634340
:1006F00000253364202563430025336420256343AC
:10070000002533642025634300253364202563439B
:10071000002533642025634300253364202563438B
:10072000002533642025634300253364202563437B
:10073000004C6F6164696E673A0A002533642025B6
:10074000634300253364202563430025336420255B
:1007500063430050757267652046696C616D656E14
:1007600074200A0045787472756465722072656C35
:100770006561736564206163746976653A20005A27
:10078000205349474D4120486F6D6564004578749A
:100790007275646572206163746976653A200053EE
:1007A00074617274696E67205A2043616C69627269
:1007B0006174696F6E2057697A61726400473639D7
:1007C00020414354495641544544002E0044656C31
:1007D0006574696F6E206661696C65642C2046697A
:1007E0006C653A200046696C652064656C657465CB
:1007F000643A002E006F70656E206661696C6564F6
:100800002C2046696C653A20004265642048656189
:100810007465640020423A0020453A00543A0020B2
:100820004500205A00205900483D58004649524D85
:10083000574152455F4E414D453A4D61726C696E6C
:100840002056313B20537072696E7465722F677247
:10085000626C206D617368757020666F72206765C9
:100860006E36204649524D574152455F55524C3ADB
:1008700068747470733A2F2F6769746875622E6399
:100880006F6D2F4572696B5A616C6D2F4D61726C83
:10089000696E2F2050524F544F434F4C5F56455274
:1008A00053494F4E3A312E30204D414348494E4531
:1008B0005F545950453A4D656E64656C20455854F7
:1008C00052554445525F434F554E543A3220555588
:1008D00049443A30303030303030302D30303030E4
:1008E0002D303030302D303030302D303030303011
:1008F000303030303030300A00205A3A0020593A37
:100900000020436F756E7420583A200020453A004D
:10091000205A3A0020593A00583A007A5F6D696EC1
:100920003A2000795F6D61783A2000785F6D6178D8
:100930003A2000785F6D696E3A2000504F53495459
:10094000494F4E20484F4D453A20002200556E6BCE
:100950006E6F776E20636F6D6D616E643A2022005A
:1009600053757266696E672030200A0043616C69B6
:1009700062726174696F6E20537563636573736629
:10098000756C0A005430004D383420582059205AD4
:10099000204500526561647920746F204C6F61645A
:1009A0002F556E6C6F6164200A0025642525002593
:1009B00033642025634300253364202563430025E9
:1009C0003364256343202F202533642563430025AA
:1009D0003364256343202F2025336425634300259A
:1009E0003364256343202F20253364256343004669
:1009F0006F726D20322100202D20496E76616C6966
:100A000064206578747275646572206E756D6265B8
:100A1000722021004572726F723A0067636F6465DD
:100A200020666F756E640020746F20537461727459
:100A300020446973706C61792066726F6D20526515
:100A400073657400546F6F6B2000646973706C6120
:100A500079206F6E6C696E6521002E006469706C80
:100A60006179206F66666C696E650042434E33445F
:100A7000205369676D6178007374617274006563F7
:100A8000686F3A0030322D312E322E370065727287
:100A90006F722077726974696E6720746F2066695F
:100AA0006C6500205A3A0020593A0020583A0065F7
:100AB0006E6473746F7073206869743A20006563A4
:100AC000686F3A00446F6E6520736176696E6720C7
:100AD00066696C652E006F6B004D32390024F4D4CA
:100AE0003050C38E20C2A24017828B7011127A91AF
:100AF0000D816CD90AA861E108C7586607615143A6
:100B0000061E4B5D05C145A7041A411104093D9815
:100B100003713931034036DB0265339102D430541E
:100B200002802E1D02632CEE01752AC501B028A09B
:100B300001102781018F2564012B244B01E0223411
:100B400001AC211F018D200D01801FFC00841EEDD2
:100B500000971DDF00B81CD200E61BC600201BBC9E
:100B600000641AB200B219A8000A19A0006A189904
:100B700000D117910040178B00B516840031167E06
:100B800000B31579003A157300C7146F0058146A42
:100B900000EE1366008813630025135E00C7125B26
:100BA000006C12570015125400C111510070114F02
:100BB0000021114B00D61049008D1047004610440B
:100BC0000002104200C00F4000800F3E00420F3C68
:100BD00000060F3B00CB0E3800930E37005C0E353D
:100BE00000270E3400F30D3200C10D3100900D309E
:100BF00000600D2E00320D2D00050D2C00D90C2BA0
:100C000000AE0C2900850C29005C0C2700350C2750
:100C1000000E0C2600E80B2400C40B2400A00B23BC
:100C2000007D0B23005A0B2100390B2100180B20EB
:100C300000F80A1F00D90A1E00BB0A1E009D0A1DEB
:100C400000800A1D00630A1C00470A1B002C0A1BB7
:100C500000110A1A00F7091A00DD091900C4091960
:100C600000AB091900920917007B091800630917E6
:100C7000004C09160036091600200916000A09154D
:100C800000F5081500E0081400CC081400B808149A
:100C900000A4081400900813007D0812006B0813CC
:100CA00000580812004608120034081100230811E9
:100CB000001208110001081100F0071000E00710F1
:100CC00000D0071000C0071000B0070F00A10710E8
:100CD0000091070E0083070F0074070F0065070ED1
:100CE0000057070E0049070E003B070D002E070EA8
:100CF0000020070D0013070D0006070D00F9060C74
:100D000000ED060D00E0060C00D4060C00C8060C31
:100D100000BC060C00B0060C00A4060B0099060CE3
:100D2000008D060B0082060B0077060B006C060B8D
:100D30000061060A0057060B004C060A0042060A2C
:100D40000038060A002E060A0024060A001A060ABF
:100D5000001006090007060A00FD050900F4050950
:100D600000EB050900E2050900D9050900D00509D5
:100D700000C7050900BE050900B5050800AD050856
:100D800000A50509009C050800940508008C0508CD
:100D900000840508007C050800740508006C050740
:100DA00000650508005D050700560508004E0507AB
:100DB0000047050700400508003805070031050712
:100DC000002A050700230507001C05060016050775
:100DD000000F0507000805060002050700FB0406D2
:100DE00000F5040700EE040600E8040600E204072C
:100DF00000DB040600D5040600CF040600C9040683
:100E000000C3040600BD040600B7040600B10405D3
:100E100000AC040600A6040600A00405009B04061E
:100E20000095040500900406008A04050085040569
:100E300000800406007A04050075040500700405AE
:100E4000006B04050066040500610405005C0405F0
:100E50000057040500520405004D04050048040530
:100E600000430405003E0404003A0405003504056F
:100E700000300404002C04050027040400230405AA
:100E8000001E0404001A04040016040500110404E2
:100E9000000D040400090405000404040000040417
:100EA00000FC030400F8030400F4030400F003044E
:100EB00000EC030400E8030400E4030400E003047E
:100EC00000DC030400D8030400D4030400D00304AE
:100ED00000CC030400C8030300C503030024F4048A
:100EE000D9201BC40C5C0E9804C4095F026507710D
:100EF00001F405F900FB04B30048048700C103694D
:100F0000005803550003034500BE023A0084023135
:100F10000053022A002902250004022000E4011CDB
:100F200000C8011900AF01170098011400840113D3
:100F300000710110006101100051010E0043010D0C
:100F40000036010B002B010B0020010B00150109DD
:100F5000000C01090003010800FB000800F3000871
:100F600000EB000700E4000600DE000600D80006E3
:100F700000D2000600CC000500C7000500C2000535
:100F800000BD000400B9000400B5000400B1000475
:100F900000AD000400A9000400A5000300A20003A6
:100FA000009F0004009B00030098000300950002CE
:100FB0000093000300900003008D0002008B0003EB
:100FC0000088000200860002008400030081000205
:100FD000007F0002007D0002007B00020079000219
:100FE0000077000100760002007400020072000128
:100FF00000710002006F0002006D0001006C000231
:10100000006A00010069000200670001006600013B
:10101000006500010064000200620001006100013F
:1010200000600001005F0002005D0001005C000143
:10103000005B0001005A0001005900010058000146
:101040000057000100560001005500010054000146
:101050000053000000530001005200010051000144
:1010600000500001004F0001004E0000004E000142
:10107000004D0001004C0001004B0000004B00013E
:10108000004A00010049000100480000004800013A
:101090000047000100460000004600010045000036
:1010A000004500010044000100430000004300012E
:1010B0000042000000420001004100000041000128
:1010C00000400001003F0000003F0001003E000022
:1010D000003E0001003D0000003D0001003C00001A
:1010E000003C0000003C0001003B0000003B000110
:1010F000003A0000003A0001003900000039000108
:1011000000380000003800000038000100370000FF
:1011100000370001003600000036000000360001F4
:1011200000350000003500000035000100340000EB
:1011300000340000003400010033000000330000E0
:1011400000330001003200000032000000320001D4
:1011500000310000003100000031000100300000CB
:101160000030000000300001002F0000002F0000C0
:10117000002F0000002F0001002E0000002E0000B4
:10118000002E0001002D0000002D0000002D0000A9
:10119000002D0001002C0000002C0000002C00009D
:1011A000002C0001002B0000002B0000002B000091
:1011B000002B0001002A0000002A0000002A000085
:1011C000002A000100290000002900000029000079
:1011D000002900000029000100280000002800006C
:1011E000002800000028000000280001002700005F
:1011F0000027000000270000002700000027000152
:101200000026000000260000002600000026000046
:101210000026000100250000002500000025000038
:10122000002500000025000000250001002400002A
:10123000002400000024000000240000002400011D
:101240000023000000230000002300000023000012
:101250000023000000230000002300010022000002
:1012600000220000002200000022000000220000F6
:1012700000220001002100000021000000210000E8
:1012800000210000002100000021000000210001D9
:1012900000200000002000000020000000200000CE
:1012A00000200000002000000020000000200001BD
:1012B000001F0000001F0000001F0000001F0000B2
:1012C000001F0000001F0000001F0001001E0000A2
:1012D000001E0000001E0000001E00000048797380
:1012E000746572657369732074656D70657261747D
:1012F00075726500546865726D616C2072756E61FF
:101300007761792070726F74656374696F6E2062A3
:1013100079204865617465725F49443A007A707259
:101320006F62653A20004D3234004D323320257310
:10133000006175746F25692E6700534420636172E4
:1013400064206F6B006F70656E526F6F7420666102
:10135000696C656400766F6C756D652E696E697475
:10136000206661696C656400534420696E6974206D
:101370006661696C003B20472D436F64652067659B
:101380006E6572617465642062792053696D706C5A
:1013900069667933442852292056657273696F6EE5
:1013A0002025640057726974696E6720746F206627
:1013B000696C653A20002E006F70656E2066616969
:1013C0006C65642C2046696C653A20002E006F70B5
:1013D000656E206661696C65642C2046696C653AAF
:1013E000200046696C652073656C656374656400F4
:1013F0002053697A653A200046696C65206F7065F4
:101400006E65643A20002E006F70656E206661691B
:101410006C65642C2046696C653A20004E6F77201D
:1014200066726573682066696C653A20004E6F7756
:1014300020646F696E672066696C653A200022201F
:10144000706F73002220706172656E743A220053CF
:101450005542524F5554494E452043414C4C2074FF
:1014600061726765743A2200747279696E672074DC
:101470006F2063616C6C207375622D67636F6465A8
:101480002066696C6573207769746820746F6F20BB
:101490006D616E79206C6576656C732E204D4158B8
:1014A000206C6576656C2069733A004572726F72C4
:1014B0003A00CDAC03440080934300005243000047
:1014C000000000000000000000000A00207A3A201E
:1014D0000020793A200020783A2000426564004DCF
:1014E0003834005374617274696E67205820436108
:1014F0006C6962726174696F6E2057697A61726497
:10150000004D3834005374617274696E672059203D
:1015100043616C6962726174696F6E2057697A61A8
:101520007264000A0A005374616E6461726420443C
:101530006576696174696F6E3A20000A004D6561D5
:101540006E3A20000A002020207A3A200000793AE2
:101550002000783A20003F537065636966696564CE
:10156000206E756D626572206F66206C65677320F2
:10157000696E206D6F76656D656E74206E6F742078
:10158000706C61757361626C652E0A003F53706503
:10159000636966696564205920706F736974696F47
:1015A0006E206F7574206F662072616E67652E0AFB
:1015B000003F537065636966696564205820706FE9
:1015C000736974696F6E206F7574206F6620726125
:1015D0006E67652E0A003F537065636966696564CE
:1015E0002073616D706C652073697A65206E6F740D
:1015F00020706C61757361626C652E0A0046756CB3
:101600006C20737570706F72742061743A20687406
:1016100074703A2F2F33647072696E74626F6172E6
:10162000642E636F6D2F666F72756D2E7068700A11
:10163000004D3438205A2D50726F6265205265700B
:101640006561746162696C69747920746573742E64
:1016500020202056657273696F6E20322E30300A5A
:10166000003F566572626F7365204C6576656C202D
:101670006E6F7420706C61757361626C652E0A0008
:101680002042403A0020403A00202F003A002054E7
:1016900000202F0020423A00202F006F6B20543A88
:1016A000004578747275646572204865617465647C
:1016B0000020573A0020453A00543A00486F7465BC
:1016C0006E64206F6666736574733A000A00206169
:1016D0006E7469686F726172690A3A200020686FDF
:1016E000726172690A20002F3800766F6C7465731E
:1016F000200020566F6C74657320636172676F6C95
:1017000020333A200020616E7469686F72617269DB
:101710000A3A200020686F726172690A20002F382F
:1017200000766F6C746573200020566F6C7465735F
:1017300020636172676F6C20323A20000A002064D7
:101740007A333A200020647A323A2000543100542F
:1017500030005430005430000056756974656E7363
:10176000333A2020004170726F78333A20200056BF
:101770006F6C746573333A20200000567569746588
:101780006E73323A2020004170726F78323A202016
:1017900000566F6C746573323A20200056616C6F8E
:1017A0007220645A333A20200056616C6F722064B4
:1017B0005A323A2020004E6577206F666673657452
:1017C0002076657273696F6E3A20007A335F313A22
:1017D00020007A325F313A20005A7363726F6C6C6A
:1017E0005F313A20007A335F303A20007A325F303E
:1017F0003A20005A7363726F6C6C5F303A2000704D
:101800006C616E654E6F726D616C5F312E7A3A203D
:1018100000706C616E654E6F726D616C5F312E7918
:101820003A2000706C616E654E6F726D616C5F3155
:101830002E783A2000706C616E654E6F726D616C2F
:101840005F302E7A3A2000706C616E654E6F726D5B
:10185000616C5F302E793A2000706C616E654E6F5E
:10186000726D616C5F302E783A20005A76616C752B
:101870006520616674657220686F6D653A00486F17
:101880006D6520582F59206265666F7265205A0079
:101890000A00205A3A200020593A200020583A20C5
:1018A00000426564000000000000809343000000D7
:1018B000000000A0400000A0400000004020004DBB
:1018C0006F766520746F3A2000CDAC03440080939E
:1018D0004300005243FF01FF20636F6C6420657872
:1018E00074727573696F6E2070726576656E74655B
:1018F00064006563686F3A0053657474696E67735A
:101900002053746F72656400204D696E7574657341
:10191000203A0020204C617374207072696E74202C
:1019200074696D652D3E20486F757273203A004CC6
:10193000617374207072696E742064757261746969
:101940006F6E002C205468697264204944206E75C3
:101950006D62657220002C205365636F6E642049B0
:1019600044206E756D6265723A20002020466972CF
:101970007374204944206E756D6265723A2000557B
:101980004920496E666F726D6174696F6E20536590
:101990007269616C204E756D6265723A00206D2C23
:1019A000204531207072696E742064697374616EB1
:1019B00063653A2000206B6D2C20453020707269E1
:1019C0006E742064697374616E63653A2000206BE5
:1019D0006D2C2059207072696E7420646973746173
:1019E0006E63653A2000206B6D2C20583120707298
:1019F000696E742064697374616E63653A200020B7
:101A0000432C0A205830207072696E742064697308
:101A100074616E63653A200020432C206D6178204C
:101A200074656D7020423A200020432C206D61784F
:101A30002074656D7020523A20002C206D61782052
:101A400074656D70204C3A2000682C207072696EAD
:101A500074732066696E69736865643A20002C208F
:101A60007072696E74696E672074696D653A2000E2
:101A700020207072696E74733A200053544154539D
:101A80003A0020432C20525F5052494E543A2000D5
:101A900020432C20525F4245443A200020432C2012
:101AA000525F52454D4F56453A20002020525F4923
:101AB0004E534552543A200054656D7020284329F6
:101AC0003A0020432C204C5F5052494E543A20009B
:101AD00020432C204C5F4245443A200020432C20D8
:101AE0004C5F52454D4F56453A200020204C5F49EF
:101AF0004E534552543A200054656D7020284329B6
:101B00003A0020562856657273696F6E29200020AE
:101B10005228426564207269676874207363726535
:101B20007729200020204D353331204C2842656430
:101B3000206C6566742073637265772920004265A6
:101B400064204F66667365747320286D6D293A00B2
:101B50002050285A2070726F62652900205A200098
:101B60002059200020204D353330205820004F666A
:101B7000667365747320286D6D293A002044002037
:101B80004900202D204D3330312052494748542000
:101B9000500020440020490020204D333031204C9B
:101BA0004546542050005049442073657474696E52
:101BB00067733A00205A0020590020204D323036F9
:101BC000205800486F6D65206F6666736574202825
:101BD0006D6D293A00204500205A0020580020420F
:101BE0000020540020204D323035205300416476CF
:101BF000616E636564207661726961626C65733AD7
:101C000020533D4D696E2066656564726174652080
:101C1000286D6D2F73292C20543D4D696E207472F0
:101C20006176656C20666565647261746520286DF7
:101C30006D2F73292C20423D6D696E696D756D2085
:101C40007365676D656E742074696D6520286D73AA
:101C5000292C20583D6D6178696D756D205859208B
:101C60006A65726B20286D6D2F73292C20205A3DD8
:101C70006D6178696D756D205A206A65726B2028D8
:101C80006D6D2F73292C2020453D6D6178696D7530
:101C90006D2045206A65726B20286D6D2F732900B9
:101CA00020540020204D32303420530041636365BE
:101CB0006C65726174696F6E3A20533D6163636550
:101CC0006C65726174696F6E2C20543D726574721C
:101CD00061637420616363656C65726174696F6EC2
:101CE00000204500205A0020590020204D3230317C
:101CF0002058004D6178696D756D20416363656C96
:101D000065726174696F6E20286D6D2F7332293A88
:101D100000204500205A0020590020204D32303349
:101D20002058004D6178696D756D20666565647237
:101D30006174657320286D6D2F73293A002045006A
:101D4000205A0020590020204D3932205800537469
:101D50006570732070657220756E69743A00700149
:101D60002C0190012701B0012201C0011D01F001E9
:101D700018011002130130020E01600209019002E5
:101D80000401C002FF000003FA004003F5008003D5
:101D9000F000D003EB002004E6007004E100E00452
:101DA000DC004005D700C005D2004006CD00D006BB
:101DB000C8008007C3003008BE00F008B900C009A1
:101DC000B400B00AAF00B00BAA00D00CA500000E02
:101DD000A000500F9B00C0109600501291000014FC
:101DE0008C00C0158700B0178200B0197D00D01B91
:101DF0007800001E730040206E0090226900F024DD
:101E0000640040275F0090295A00E02B5500102EF7
:101E1000500020304B0010324600E0334100903536
:101E20003C001037370070383200A0392D00B03A2E
:101E30002800A03B2300603C1E00103D1900903D8F
:101E40001400103E0F00703E0A00C03E0500003F27
:101E500000004572726F72283833293A2042656457
:101E600020746865726D6973746F72206E6F742070
:101E70006465746563746564004572726F722838B6
:101E800032293A20526967687420746865726D69F6
:101E900073746F72206E6F7420646574656374650B
:101EA00064004572726F72283831293A204C656699
:101EB0007420746865726D6973746F72206E6F74CC
:101EC00020206465746563746564002053544F502A
:101ED000205052494E54200A004572726F722838C1
:101EE00033293A2042656420746865726D697374A1
:101EF0006F72206E6F74206465746563746564002E
:101F00002053544F50205052494E54200A004572DD
:101F1000726F72283832293A2052696768742074C7
:101F20006865726D6973746F72206E6F742064657A
:101F3000746563746564002053544F5020505249B7
:101F40004E54200A004572726F72283831293A20A7
:101F50004C65667420746865726D6973746F722065
:101F60006E6F74202064657465637465640000009E
:101F70002100240027002A002D0030003300010139
:101F80000000040107010A010000220025002800CA
:101F90002B002E0031003400020100000501080171
:101FA0000B01000020002300260029002C002F0038
:101FB00032000001000003010601090105050505C5
:101FC000070508080808020202020A0A08080404B1
:101FD00004040101010101010101030303030303DF
:101FE0000303040707070C0C0C0C0C0C0C0C02026E
:101FF000020206060606060606060B0B0B0B0B0B6B
:102000000B0B0102102020080810204010204080F7
:1020100002010201080402010102040810204080AC
:10202000804020100804020180040201804020103A
:102030000804020108040201010204081020408083
:10204000010204081020408000000A0B02090C0D58
:102050000E0807030401000000000000000000005B
:102060000000000000000000000000000000000070
:10207000000000001211100000000000000000002D
:1020800000000000000000000000000000007C3C98
:102090003E5E2B3D3F2F5B5D3B2C2A225C00436F55
:1020A0006F6C696E6720446F776E20486561746558
:1020B00072005072696E7465722068616C74656438
:1020C0002E206B696C6C28292063616C6C6564211F
:1020D000004572726F723A00457874727564657269
:1020E0002072656C656173656420616374697665EF
:1020F0003A20005A205349474D4120486F6D65648E
:1021000000457874727564657220616374697665E0
:102110003A2000504944204175746F74756E6520F3
:1021200066696E69736865642120507574207468EF
:1021300065206C617374204B702C204B6920616E9C
:1021400064204B6420636F6E7374616E74732066D9
:10215000726F6D2061626F766520696E746F2043C7
:102160006F6E66696775726174696F6E2E68005074
:102170004944204175746F74756E65206661696CA1
:102180006564212074696D656F75740020403A00A4
:102190006F6B20543A006F6B20423A005049442044
:1021A0004175746F74756E65206661696C65642134
:1021B0002054656D706572617475726520746F6FFF
:1021C000206869676800204B643A2000204B693A18
:1021D0002000204B703A200020436C6173736963C8
:1021E0002050494420002054753A2000204B753A75
:1021F0002000206D61783A2000206D696E3A200041
:1022000020643A200020626961733A2000535441EF
:1022100054495354494353205245534554002C20AC
:1022200073617665645F466C61675F66616E6C6161
:102230007965725F6D6972726F723A20002C20733B
:10224000617665645F66656564726174653A2000F5
:102250002C2073617665645F66616E6C617965726E
:102260003A20002C2073617665645F74656D70623E
:1022700065643A20002C2073617665645F74656D37
:1022800070303A20002C2073617665645F74656D50
:1022900070313A20002C2073617665645F66696C4A
:1022A00065706F736974696F6E3A20002C207361DA
:1022B0007665645F655F706F736974696F6E3A20ED
:1022C000002C2073617665645F746F6F6C5F61636F
:1022D000746976653A20002C2073617665645F7AB4
:1022E0005F706F736974696F6E3A20002C207361A0
:1022F0007665645F795F706F736974696F6E3A2099
:10230000002C2073617665645F785F706F73697409
:10231000696F6E3A200053415645205052494E5441
:10232000204C4F473A006563686F3A005072696EFF
:1023300074207265636F76657279207570004E6FD8
:1023400074207072696E74207265636F766572793D
:1023500020757000535543434553530056616C75C7
:102360006573206F7574206F662072616E676500FB
:1023700056616C756573206F7574206F662072618D
:102380006E67650056616C756573206F7574206F9C
:10239000662072616E67650056616C756573206FAB
:1023A0007574206F662072616E676500456E6420EB
:1023B00066696C65206C69737400426567696E209C
:1023C00066696C65206C6973740062756666657217
:1023D000206F75743A2000427566666572313A2046
:1023E0000043617264204E616D653A20002F0053F6
:1023F00044207072696E74696E672062797465201A
:10240000004E6F74205344207072696E74696E6759
:1024100000473238205830205930002569206D6936
:102420006E2C2025692073656300252033642025E8
:10243000250025642068202564206D002520336454
:1024400020252500253264202563430025336420A0
:10245000256343002533642025634300526561648E
:102460007920746F204C6F61642F556E6C6F6164BE
:10247000200A0025642525002533642025634300B8
:1024800025336420256343002053544F502050527D
:10249000494E54200A004732382058302059300025
:1024A0004D333500526573756D65206465746563E1
:1024B000746564200A0047373000A1524553554DDA
:1024C0004521200A00A1504155534521200A0025ED
:1024D00033642025634300253364202563430025AE
:1024E000336420256343002533642025634300259E
:1024F000336420256343002533642025634300258E
:10250000336420256343002533642025634300257D
:10251000336420256343005052494E5420534554A0
:1025200054494E4753200A002E2E2E2054696D65C3
:102530006F757421002A2A2A2047656E6965205725
:10254000726974654F626A656374202A2A2A202D95
:102550002D2D3E002E2E2E204E414B2021002A2ACA
:102560002A2047656E69652057726974654F626AF3
:10257000656374202A2A2A202D2D2D3E002E2E2E12
:102580002041434B2021002A2A2A2047656E696595
:102590002057726974654F626A656374202A2A2A1B
:1025A000202D2D2D3E002A2A2A2047656E696520A0
:1025B0004261642042797465202A2A2A202D2D2D1B
:1025C0003E203078002056616C75653A2000204925
:1025D0006E6465783A20002A2A2A2047656E69656C
:1025E000205265706F7274204F626A656374202A8E
:1025F0002A2A204F626A6563743A20002A2A2A2018
:1026000047656E696520436F6E6E6563746564200F
:102610002F2053796E6321202A2A2A002056616CCC
:1026200075653A200020496E6465783A20002A2AB0
:102630002A2047656E6965205265706F7274204567
:1026400076656E74202A2A2A204F626A6563743A7E
:102650002000204C656E6774683A20002A2A2A20E0
:1026600047656E6965205265636569766564204DCE
:102670006167696320446F75626C65204279746597
:1026800073202A2A2A20496E6465783A2000204C5B
:10269000656E6774683A20002A2A2A2047656E69A9
:1026A00065205265636569766564204D616769637D
:1026B000204279746573202A2A2A20496E6465783D
:1026C0003A20002A2A2A2047656E6965204E414B30
:1026D000205265636F7665727920212121202A2A94
:1026E0002A002A2A2A2047656E6965204469736397
:1026F0006F6E6E65637465642066726F6D20446FE3
:102700004576656E747321202A2A2A002A2A2A20F7
:1027100047656E696520546F6F6B20746F6F206C16
:102720006F6E6720746F2072652D656E7465722000
:10273000446F4576656E747328292C207265647524
:1027400063652064656C61797320696E20636F64D2
:10275000652C2073656C662D70726F746563746987
:102760006F6E20656E61626C65642E202A2A2A00D5
:10277000535543434553530056616C756573206F41
:102780007574206F662072616E67650056616C75A6
:102790006573206F7574206F662072616E676500C7
:1027A00056616C756573206F7574206F6620726159
:1027B0006E67650056616C756573206F7574206F68
:1027C000662072616E676500486F74656E64206F85
:1027D0006666736574733A0054696D6520696E614D
:1027E00063746976650050757267652064697374F7
:1027F000616E6365005A204F6666736574206F6B67
:10280000005A204F6666736574203A20007A5F6D27
:1028100061783A20007A5F6D696E3A20005A204F45
:10282000666673657400504F534954494F4E2048B3
:102830004F4D453A20004475616C204D6F64652012
:102840004F4E004475616C204D6972726F72204D5D
:102850006F6465204F4E004475616C204D6F646558
:10286000204F464600496E7374616C6C20256420CD
:102870002573206F6E2074686520257320686F743F
:10288000656E640043616C63756C75733A2020005B
:1028900043616C63756C75733A20200043616C630F
:1028A000756C75733A202000496E7374616C6C20EE
:1028B0002564202573206F6E2074686520257320A1
:1028C000686F74656E6400253364202563430025BA
:1028D0003364202563430050757267652046696C38
:1028E000616D656E740A0053757266696E6720319A
:1028F0000A0053757266696E6720300A002200650F
:102900006E717565696E672022002200656E7175B3
:1029100065696E67202200504944204175746F74C8
:10292000756E652066696E6973686564210050493B
:1029300044204175746F74756E65206661696C65BD
:1029400064212074696D656F75740020403A006FD2
:102950006B20543A006F6B20423A005049442041AA
:1029600075746F74756E65206661696C656421208D
:1029700054656D706572617475726520746F6F2037
:102980006869676800204B643A2000204B693A2050
:1029900000204B703A200020436C61737369632000
:1029A00050494420002054753A2000204B753A20AD
:1029B00000206D61783A2000206D696E3A20002079
:1029C000643A200020626961733A20003B507269CA
:1029D0006E742074696D653A202564202573202566
:1029E00064202573202564202573003B54494D4500
:1029F0003A256C64003B2020204275696C64207489
:102A0000696D653A2025642025732025642025738F
:102A1000003B202020506C617374696320776569E6
:102A20006768743A2025642E256467003B46696C0C
:102A3000616D656E7420757365643A2025642E257A
:102A4000646D2025642E256467003B46696C616DCA
:102A5000656E7420757365643A20256C642E256C50
:102A6000646D005341564544205052494E54004332
:102A7000616E6E6F7420656E74657220737562642A
:102A800069723A20006563686F3A004D3834205807
:102A90002059205A2045004D313037005430004D28
:102AA00031303700473932204530205A3020522506
:102AB00064004E6577206C61796572206465746589
:102AC00063746564005A20686F7070696E67206473
:102AD0006574656374656400256920686F75727339
:102AE000202569206D696E7574657300446F6E658D
:102AF000207072696E74696E672066696C65004D3E
:102B00003333007061757365206465746563746543
:102B100064200A00473639005072696E746572206D
:102B200073746F707065642064756520746F2065C0
:102B300072726F72732E2046697820746865206502
:102B400072726F7220616E6420757365204D393921
:102B50003920746F20726573746172742E2028544A
:102B6000656D706572617475726520697320726538
:102B70007365742E205365742069742061667465D2
:102B8000722072657374617274696E6729006F6B6D
:102B9000004E6F204C696E65204E756D6265722027
:102BA0007769746820636865636B73756D2C204C5E
:102BB000617374204C696E653A20004E6F20436843
:102BC00065636B73756D2077697468206C696E65D9
:102BD000206E756D6265722C204C617374204C6997
:102BE0006E653A2000636865636B73756D206D696F
:102BF000736D617463682C204C617374204C696E32
:102C0000653A20004C696E65204E756D62657220D4
:102C10006973206E6F74204C617374204C696E650B
:102C2000204E756D6265722B312C204C61737420BF
:102C30004C696E653A20004D3131300053746F722B
:102C400065642073657474696E677320726574724D
:102C500069657665640048617264636F64656420C9
:102C600044656661756C742053657474696E67732E
:102C7000204C6F616465640048617264636F6465D1
:102C8000642043616C696220616E64205049442075
:102C900044656661756C742053657474696E6773FE
:102CA000204C6F61646564002A2A2A2047656E699A
:102CB0006520446973636F6E6E6563746564206636
:102CC000726F6D204765744E657874427974652122
:102CD000202A2A2A002A2A2A2047656E696520456B
:102CE0006E61626C65204174746163684576656EDF
:102CF0007448616E646C657220212121202A2A2A81
:102D0000002564206974656D73002534643A252EAE
:102D1000326468202F202564670000526573656E59
:102D2000643A20006F6B0000C201BC0111241FBE79
:102D3000CFEFD1E2DEBFCDBF00E00CBF17E0A0E0D7
:102D4000B2E0EAE1F7E503E00BBF02C007900D92A5
:102D5000A03BB107D9F729E1A0EBB7E001C01D9274
:102D6000AB3EB207E1F716E1C5E9D6E100E006C0E7
:102D700021970109802FFE010F94F0A8C439D107D3
:102D800080E00807A9F70F94B6830D947CAB0C94F0
:102D900000002F923F924F925F926F927F928F929C
:102DA0009F92AF92BF92CF92DF92EF92FF920F93DA
:102DB0001F93CF93DF93CDB7DEB7C353D1400FB688
:102DC000F894DEBF0FBECDBF2DB73EB7CE5CDE4F51
:102DD00039832883C253D14011E010935308809166
:102DE000E60781110CC00E9425F56093E2077093FD
:102DF000E3078093E4079093E5071093E60780913B
:102E000065164091D1025091D2026091D302709127
:102E1000D402811106C090916616992311F40C9486
:102E2000E2244E3851056105710509F466C60CF0BF
:102E3000D6C04D3351056105710509F4D3C10CF0BD
:102E40005BC0403251056105710511F40C94D92223
:102E500034F5403151056105710509F474C174F40C
:102E6000413051056105710509F4A7C14230510592
:102E70006105710509F430C30C946D574231510559
:102E80006105710509F443C214F40C942B224331FB
:102E900051056105710509F40CC20C946D5742335C
:102EA00051056105710509F417C37CF441325105E0
:102EB0006105710511F40C94C82241335105610577
:102EC000710509F4D8C10C946D574533510561055E
:102ED000710511F40C9491234A3351056105710574
:102EE00011F40C94741F443351056105710511F000
:102EF0000C946D570C947B21483551056105710583
:102F000009F49AC154F5463451056105710509F477
:102F10008EC47CF4413451056105710509F414C473
:102F2000443451056105710511F40C9426200C946C
:102F30006D574F3451056105710509F462C5473578
:102F400051056105710509F4C4C14E34510561058F
:102F5000710511F00C946D57DDC44B3751056105B7
:102F6000710509F4DFC274F44A3551056105710534
:102F700009F4D8C2463751056105710509F4D6C177
:102F80000C946D57483851056105710509F4E5C089
:102F9000493851056105710509F4EAC04C375105FE
:102FA0006105710511F00C946D5740E050E06AE244
:102FB0008AE00F947A3840E050E06DE781E20F94A8
:102FC0007A3811E0109380111092500F6EEF77E075
:102FD00086E20E944B9B1093FD070C946D574D3970
:102FE00051056105710511F40C9430230CF04FC0AC
:102FF000453951056105710509F4E6C6F4F4413916
:1030000051056105710509F470C574F44F38510517
:103010006105710509F4CAC540395105610571059D
:1030200009F41FC60C946D574339510561057105AC
:1030300009F4E9C50CF48DC540C648395105610550
:10304000710511F40C9466237CF446395105610531
:10305000710509F48CC6473951056105710511F4F4
:103060000C9477230C946D574B395105610571050C
:1030700011F40C94F02214F00C94F9224A39510501
:103080006105710511F40C94E7220C946D57463AD2
:1030900051056105710509F406C21CF5423A510556
:1030A0006105710509F454C07CF4403A510561058D
:1030B000710511F40C948823413A5105610571059D
:1030C00009F428C60C946D57443A51056105710501
:1030D00009F4FDC10CF0F1C181E080938F110C94D3
:1030E0006D57493A51056105710509F4EBC194F436
:1030F000473A51056105710509F4DAC1483A5105AD
:103100006105710511F00C946D5781E08093891170
:103110000C946D574E3B51056105710509F49EC035
:10312000433D51056105710511F40C94A4244A3AFC
:1031300051056105710511F00C946D5781E0809384
:1031400088110C946D5781E0809392110C946D5707
:1031500081E0809391110C946D5781E080939211DE
:1031600041E050E069E881E20F947A380C946D57A1
:1031700080910E02833411F00C946D5782E4809399
:103180000E0240E050E067E581E20F947A3840E0BB
:1031900050E066E781E20F947A3840E050E068E85A
:1031A00081E20F947A3840E050E069E881E20F94C0
:1031B0007A381092500F0C946D571092801180E065
:1031C0000F94F36681E0809385118093E91040E0CD
:1031D00050E068E08AE00F947A3881E48093EA1046
:1031E0000C946D5780910E0240E050E0813491F4D0
:1031F00069E08AE00F947A3811E0109380116EEF45
:1032000077E082E00E944B9B1093FD071092500FD5
:103210000C946D576AE28AE00F947A3811E01093AB
:1032200080116EEF77E086E20E944B9B1093FD07C2
:103230001092500F0C946D5780912A0881110C94B4
:103240006D578091661681110C946D5740E050E0E7
:1032500069E38AE00F947A380C946D5780912A08BC
:1032600081110C946D5740E050E061E08AE00F94CA
:103270007A380C946D5780912A0881110C946D57FF
:1032800000910E02013411F00C946D5710928011D0
:103290001092651611E01093661640E050E068E069
:1032A0008AE00F947A380093EA10109397120C94E6
:1032B0006D5780910E02813411F00C946D5740E0EF
:1032C00050E061E08AE00F947A38109280110C94FB
:1032D0006D5780910E02823491F3833411F00C9477
:1032E0006D5740E050E066E18AE00F947A3841E0A3
:1032F00050E06DE781E20F947A3882E58093110205
:1033000081E08093500F109280110C946D578823A8
:1033100011F40C946D5780910E02813411F00C94CD
:103320006D5781E0809387110C946D5780916616DC
:10333000882311F40C946D5780910E02823429F485
:1033400081E0809386110C946D57833411F00C94B6
:103350006D5711E01093400840E050E068E981E2C9
:103360000F947A3840E050E067E981E20F947A38B0
:1033700040E050E06CE981E20F947A3840E050E0A0
:103380006DE981E20F947A3841E050E067E881E22C
:103390000F947A3840E050E06CE28AE00F947A387B
:1033A0001093500F8FEF9FEF9093750280937402EC
:1033B000E3E5F7E084918F01882351F0082E000C9B
:1033C000990B0F94D9630F5F1F4FF8018491F4CFCD
:1033D00040E050E06AE981E20F947A3840E050E042
:1033E0006BE981E20F947A381F92A0EBFA2EFF92DC
:1033F00060911F12709120128091211290912212DF
:103400000F9425A67F936F938BE497E09F938F9300
:103410008E010F5F1F4F1F930F930F94AF9DB80145
:103420008AE00E944B9BC8010E943A9B1F92FF9228
:10343000609123127091241280912512909126128E
:103440000F9425A67F936F9383E497E09F938F93C8
:103450001F930F930F94AF9DB80181E10E944B9B86
:10346000C8010E943A9B1F92FF921F921F928BE30A
:1034700097E09F938F931F930F930F94AF9DB80185
:1034800085E00E944B9BC8010E943A9B10928011DC
:103490002DB73EB7285E3F4F0FB6F8943EBF0FBE24
:1034A0002DBF0C946D5781E080938C110C946D5757
:1034B00081E080938B110C946D5781E080938E1185
:1034C0000C946D5781E080938A110C946D5781E0C4
:1034D00080938D110C946D57423051056105710533
:1034E00011F489E406C0423351056105710519F4F0
:1034F00082E58093110240E050E06CE481E20F9499
:103500007A3840E050E06BE481E20F947A3840E092
:1035100050E064E18AE00F947A388FEF8093BC101A
:103520000C946D574A3551056105710519F41092D7
:10353000BC1003C081E08093BC108091BC10082FA8
:1035400010E0000F111FF801E559FD4E2081318177
:103550003093E1072093E00781111EC080916F1125
:10356000909170116091BA077091BB076817790745
:103570002CF4BC01990F880B990B04C0072E000C8A
:10358000880B990B0F94059E05591D4E0F9425A687
:10359000D8016D937C931DC08091B0119091B111B1
:1035A0006091B8077091B907681779072CF4BC01CE
:1035B000990F880B990B04C0072E000C880B990BF0
:1035C0000F94059E05591D4E0F9425A6F801718391
:1035D000608381E48093EA1040E050E068E08AE094
:1035E0000F947A3840E050E06DE781E20F947A382A
:1035F00080E090E0A3E4B3E480938E1290938F1266
:10360000A0939012B09391128090A8109090A9105E
:10361000A090AA10B090AB1020918A1230918B121A
:1036200040918C1250918D12609186127091871288
:10363000809188129091891219E7612E12E1712E02
:103640007F926F9202E9C02E02E1D02EE12CF12C84
:1036500003E413E40E941DD50E948E8D80E090E06B
:10366000A0E2B1E480938A1290938B12A0938C1203
:10367000B0938D128090A4109090A510A090A610E9
:10368000B090A710E0908E12F0908F1200919012DF
:103690001091911260918612709187128091881218
:1036A000909189127F926F9220E030E040E251E4E5
:1036B0000E941DD50E948E8D0F900F900F900F903D
:1036C0008091EA108E3411F40C946E591092EA1025
:1036D0000E944E7869E074E08DE20E944B9B40E0CE
:1036E00050E068E28AE00F947A380091BC1010E054
:1036F000F801EE0FFF1FEE0FFF1FE15EFD4E608130
:103700007181828193810F9425A670933E08609306
:103710003D08000F111FF801E559FD4E8081918190
:1037200090933C0880933B0888E48093EA100E94C1
:103730004E7864EF71E080E090E00E94EDF481E06B
:1037400080933F080C946D578091BC108130B1F587
:1037500040E050E068E08AE00F947A3887ED90E02E
:103760009093BB088093BA089093B3118093B211E1
:103770008AEA90E09093B1118093B01181E490E0D7
:103780009093B7088093B6080E944CEE8091B211D6
:103790009091B31190936E1280936D120F946A7C86
:1037A00040E050E06EE781E20F947A3840E050E06C
:1037B0006DE481E20F947A380C946D5781110C946A
:1037C0006D5740E050E068E08AE00F947A3887ED6A
:1037D00090E09093BD088093BC0890937211809301
:1037E00071118AEA90E09093701180936F1181E4D7
:1037F00090E09093B9088093B8080E944CEE8091B5
:1038000071119091721190936C1280936B120F94BE
:103810006A7C40E050E06EE781E20F947A3840E045
:1038200050E06DE481E20F947A380C946D578091EA
:10383000BC108130B1F540E050E068E08AE00F94C0
:103840007A3884E091E09093BB088093BA08909313
:10385000B3118093B21186EE90E09093B1118093F2
:10386000B0118AE590E09093B7088093B6080E9463
:103870004CEE8091B2119091B31190936E1280939F
:103880006D120F946A7C40E050E06EE781E20F9485
:103890007A3840E050E06DE481E20F947A380C947D
:1038A0006D5781110C946D5740E050E068E08AE05C
:1038B0000F947A3884E091E09093BD088093BC081F
:1038C000909372118093711186EE90E09093701135
:1038D00080936F118AE590E09093B9088093B808BF
:1038E0000E944CEE809171119091721190936C1224
:1038F00080936B120F946A7C40E050E06EE781E2A7
:103900000F947A3840E050E06DE481E20F947A3809
:103910000C946D578091BC108130C1F540E050E0AF
:1039200068E08AE00F947A388CED90E09093BB08C1
:103930008093BA0886EE90E09093B3118093B21111
:1039400080EA90E09093B1118093B0118CE390E005
:103950009093B7088093B6080E944CEE8091B21104
:103960009091B31190936E1280936D120F946A7CB4
:1039700040E050E06EE781E20F947A3840E050E09A
:103980006DE481E20F947A380C946D5781110C9498
:103990006D5740E050E068E08AE00F947A388CED93
:1039A00090E09093BD088093BC0886EE90E09093E1
:1039B00072118093711180EA90E09093701180935E
:1039C0006F118CE390E09093B9088093B8080E943F
:1039D0004CEE809171119091721190936C128093C2
:1039E0006B120F946A7C40E050E06EE781E20F9426
:1039F0007A3840E050E06DE481E20F947A380C941C
:103A00006D578091BC10823010F00C946D5740E0DF
:103A100050E064E38AE00F947A381F92F0EBFF2EB7
:103A2000FF9280910D028F9380910C028F930CE096
:103A300014E01F930F936E01FCEDCF1AFEEFDF0A27
:103A4000DF92CF920F944CABB6018DE00E944B9B5E
:103A50001F92FF9280910B028F9380910A028F93A5
:103A60001F930F936E0126EEC21A2EEFD20ADF9239
:103A7000CF920F944CABB6018EE00E944B9B1F92ED
:103A8000FF92809109028F93809108028F931F9378
:103A90000F936E0131E0C30ED31EDF92CF920F94CD
:103AA0004CABB6018FE00E944B9B1F92FF9280911E
:103AB00007028F93809106028F931F930F938E01BD
:103AC0000F5F1F4F1F930F930F944CAB4DB75EB713
:103AD000405E5F4F0FB6F8945EBF0FBE4DBFB8019A
:103AE00082E10E944B9B0C946D5740E050E064E1F2
:103AF0008AE00F947A380C946D5780910C02909163
:103B00000D021816190614F00C946D570A9790932D
:103B10000D0280930C021F9220EB2F939F938F93A3
:103B200083E194E09F938F938E010F5F1F4F1F934C
:103B30000F930F944CABB8018DE00E944B9B8DB757
:103B40009EB708960FB6F8949EBF0FBE8DBF0C941B
:103B50006D5780910C0290910D028633A1E09A0777
:103B600014F00C946D570A9690930D0280930C02FA
:103B70001F9220EB2F939F938F9383E194E09F9369
:103B80008F938E010F5F1F4F1F930F930F944CABBA
:103B9000B8018DE00E944B9BEDB7FEB738960FB68B
:103BA000F894FEBF0FBEEDBF0C946D5780910A02D2
:103BB00090910B021816190614F00C946D570A9781
:103BC00090930B0280930A021F9220EB2F939F93F6
:103BD0008F9383E194E09F938F938E010F5F1F4F2C
:103BE0001F930F930F944CABB8018EE00E944B9B38
:103BF0002DB73EB7285F3F4F0FB6F8943EBF0FBEBC
:103C00002DBF0C946D5780910A0290910B02863360
:103C100031E0930714F00C946D570A9690930B02C1
:103C200080930A021F9220EB2F939F938F9383E13F
:103C300094E09F938F938E010F5F1F4F1F930F93FD
:103C40000F944CABB8018EE00E944B9B4DB75EB712
:103C5000485F5F4F0FB6F8945EBF0FBE4DBF0C9428
:103C60006D5780910802909109021816190614F0F8
:103C70000C946D570A9790930902809308021F9243
:103C800020EB2F939F938F9383E194E09F938F93E7
:103C90008E010F5F1F4F1F930F930F944CABB80112
:103CA0008FE00E944B9B8DB79EB708960FB6F89495
:103CB0009EBF0FBE8DBF0C946D57809108029091EE
:103CC00009028633A1E09A0714F00C946D570A9606
:103CD00090930902809308021F9220EB2F939F93E9
:103CE0008F9383E194E09F938F938E010F5F1F4F1B
:103CF0001F930F930F944CABB8018FE00E944B9B26
:103D0000EDB7FEB738960FB6F894FEBF0FBEEDBF05
:103D10000C946D57809106029091070218161906AF
:103D200014F00C946D570A97909307028093060243
:103D30001F9220EB2F939F938F9383E194E09F93A7
:103D40008F938E010F5F1F4F1F930F930F944CABF8
:103D5000B80182E10E944B9B2DB73EB7285F3F4FD1
:103D60000FB6F8943EBF0FBE2DBF0C946D578091D7
:103D70000602909107028936910514F00C946D5754
:103D80000A9690930702809306021F9220EB2F93CE
:103D90009F938F9383E194E09F938F938E010F5FA6
:103DA0001F4F1F930F930F944CABB80182E10E94F9
:103DB0004B9B4DB75EB7485F5F4F0FB6F8945EBF41
:103DC0000FBE4DBF0C946D5740E050E068E08AE0B4
:103DD0000F947A38E091BC1040910C0250910D0282
:103DE00020910A0230910B02609108027091090241
:103DF0008091060290910702E11130C06C33A1E07E
:103E00007A0714F06BE371E07093BD086093BC080F
:103E10004C33B1E05B0714F04BE351E05093721167
:103E2000409371112C33E1E03E0714F02BE331E0B5
:103E30003093701120936F118F36910514F08EE638
:103E400090E09093B9088093B80880917111909197
:103E5000721190936C1280936B1234C06C33F1E04A
:103E60007F0714F06BE371E07093BB086093BA08AE
:103E70004C3361E056072CF45093B3114093B211C8
:103E800006C04BE351E05093BB084093BA082C3373
:103E9000A1E03A0714F02BE331E03093B111209305
:103EA000B0118F36910514F08EE690E09093B7082C
:103EB0008093B6088091B2119091B31190936E12D5
:103EC00080936D120E944CEE0F946A7C40E050E0AB
:103ED0006EE781E20F947A3840E050E06DE481E2D1
:103EE0000F947A380C946D5769E074E08DE20E946B
:103EF0004B9B40E050E068E28AE00F947A3888E417
:103F00008093EA100E944E780091BC1001111DC0F0
:103F100080917111909172116091B6077091B707FD
:103F2000681779072CF4BC01990F880B990B04C012
:103F3000072E000C880B990B0F94059E0F9425A655
:103F400070936C1260936B1220C08091B2119091AB
:103F5000B3116091B4077091B507681779072CF415
:103F6000BC01990F880B990B04C0072E000C880B1D
:103F7000990B0F94059E10E0000F111F05591D4E5F
:103F80000F9425A6F8017183608380E090E0A8EC8F
:103F9000B2E480938A1290938B12A0938C12B09308
:103FA0008D12E0908E12F0908F120091901210916D
:103FB000911260918612709187128091881290916F
:103FC00089122CEB30E13F932F93812C20E8922E25
:103FD0002BE3A22E26E4B22E32E9C32E32E1D32EF9
:103FE00020E030E048EC52E40E941DD50E948E8D06
:103FF0000091BC1010E0F801EE0FFF1FEE0FFF1F45
:10400000E15EFD4E60817181828193810F9425A6CE
:1040100070933E0860933D08000F111FF801E559A9
:10402000FD4E8081918190933C0880933B080E94D3
:104030004E7864EF71E080E090E00E94EDF481E062
:1040400080933F080F900F900C946D578091110250
:10405000893411F00C946D5740E050E068E08AE03C
:104060000F947A3881E48093EA1066E272E080E08F
:1040700090E00E94EDF4E0908E12F0908F1200918B
:1040800090121091911220918A1230918B124091CE
:104090008C1250918D12E091BC1064E0E69FF0010B
:1040A0001124E754FD4F60817181828193810E94C8
:1040B000909D80E090E0A4E8B3E480938612909312
:1040C0008712A0938812B0938912E0908E12F0901C
:1040D0008F12009190121091911220918A123091BA
:1040E0008B1240918C1250918D128CEB90E19F932A
:1040F0008F93812CA0E89A2EABE3AA2EA6E4BA2EC9
:10410000B2E9CB2EB2E1DB2E60E070E084E893E40C
:104110000E941DD50E948E8DE1E3F7E084910F90FF
:104120000F908F01882351F0082E000C990B0F94EB
:10413000D9630F5F1F4FF8018491F4CF20E030E086
:1041400040EF51E460919212709193128091941219
:10415000909195120F948BA4609392127093931286
:104160008093941290939512E0908E12F0908F129B
:10417000009190121091911220918A1230918B121D
:1041800040918C1250918D1260918612709187121D
:104190008091881290918912BCEB6B2EB0E17B2E3E
:1041A0007F926F92812C912CE0E3AE2EE1E4BE2E43
:1041B000F2E9CF2EF2E1DF2E0E941DD50E948E8DF6
:1041C0000F900F908091EA108E3411F40C946E5978
:1041D00020E030E446E754E460919212709193122B
:1041E00080919412909195120F948BA4AB01BC0115
:1041F000409392125093931260939412709395127D
:104200008BE595E10E94799EE0908E12F0908F12DE
:10421000009190121091911220918A1230918B127C
:1042200040918C1250918D1260918612709187127C
:1042300080918812909189127F926F92812C912C9B
:10424000A6EAAA2EA2E4BA2E0E941DD50E948E8D47
:104250000F900F908091EA108E3411F40C946E59E7
:1042600020E030E048E452E46091921270919312A1
:1042700080919412909195120F948BA46093921256
:10428000709393128093941290939512E0908E12F3
:10429000F0908F12009190121091911220918A1239
:1042A00030918B1240918C1250918D126091861238
:1042B0007091871280918812909189127F926F92EB
:1042C000812C912CA12CF0E4BF2E0E941DD50E94C0
:1042D0008E8D0F900F908091EA108E3411F40C9413
:1042E0006E591092EA1040E050E06EE08AE00F94C0
:1042F0007A380C946D5780911102823511F00C942C
:104300006D5740E050E068E08AE00F947A3881E42D
:104310008093EA1066E272E080E090E00E94EDF4A3
:1043200020E030E046E954E46091921270919312DB
:1043300080919412909195120F948AA46093921296
:10434000709393128093941290939512E0908E1232
:10435000F0908F12009190121091911220918A1278
:1043600030918B1240918C1250918D126091861277
:10437000709187128091881290918912ECEBF0E194
:10438000FF93EF93812C912CB6EAAB2EB2E4BB2EB7
:10439000E2E9CE2EE2E1DE2E0E941DD50E948E8D36
:1043A0000F900F908091EA108E3411F40C946E5996
:1043B00086E090E090930502809304021092EA1048
:1043C00012E4109339100E944E7840E050E065E10D
:1043D0008AE00F947A3840E050E06BE084E10F947B
:1043E0007A381093EA108091BC1081111AC0809124
:1043F0007111909172119093B7078093B6078091D5
:104400006F11909170119093BB078093BA078091C0
:10441000BC089091BD089093B3078093B2070C94A9
:104420006D578091B2119091B3119093B50780931D
:10443000B4078091B0119091B1119093B907809316
:10444000B8078091BA089091BB089093B107809308
:10445000B0070C946D578091360881110C946D57FC
:1044600040E050E068E08AE00F947A3881E480937D
:10447000EA10E091BC1024E0E29FF0011124E7541F
:10448000FD4F608171818281938160938612709368
:1044900087128093881290938912E0908E12F09088
:1044A0008F12009190121091911220918A123091E6
:1044B0008B1240918C1250918D12ECEBF0E1FF9336
:1044C000EF93812CE0E89E2EEBE3AE2EE6E4BE2EC9
:1044D000F2E9CF2EF2E1DF2E0E941DD5E0908E1280
:1044E000F0908F12009190121091911220918A12E7
:1044F00030918B1240918C1250918D12E091791273
:1045000064E0E69FF0011124E754FD4F6081718162
:10451000828193810E94909DE091791284E0E89FCE
:10452000F0011124E754FD4F80819181A281B38174
:104530008093861290938712A0938812B093891269
:10454000E091BC10F0E0EE0FFF1FE559FD4E8091A9
:10455000E0079091E107918380830E948E8D1092F5
:10456000EA100E944E7812E41093391040E050E0B7
:1045700065E18AE00F947A3840E050E06BE084E136
:104580000F947A381093EA100F900F900C946D5797
:104590008091360881110C946D579091B5088091E7
:1045A000B40898130C948B5781E0809342080C94C4
:1045B0006D578091360881110C946D579091B50814
:1045C0008091B40898130C948B570C948E5790914B
:1045D000B5088091B40898130C946D570C949257B9
:1045E0009091B5088091B40898130C946D570C9471
:1045F0006258E0917402F0917502EF3F5FEFF507AA
:1046000011F40C946D57EE0FFF1FE559FD4E80819C
:1046100091818B3361E0960714F00C946D570596E9
:10462000918380831F9220EB2F939F938F9381EF31
:1046300096E09F938F938E010F5F1F4F1F930F93F1
:104640000F94AF9DB80185E00E944B9B8DB79EB73C
:1046500008960FB6F8949EBF0FBE8DBF0C946D5791
:10466000E0917402F0917502EF3F9FEFF90711F4AA
:104670000C946D57EE0FFF1FE559FD4E808191811F
:104680001816190614F00C946D57059791838083C2
:104690001F9220EB2F939F938F9389EE96E09F9329
:1046A0008F938E010F5F1F4F1F930F930F94AF9D3A
:1046B000B80185E00E944B9BADB7BEB718960FB608
:1046C000F894BEBF0FBEADBF0C946D5780917402BD
:1046D00090917502019611F40C946D579091B50864
:1046E0008091B40898130C948B570C94375980918F
:1046F000740290917502019611F40C946D5790918B
:10470000B5088091B40898130C948B570C943B59BE
:104710009091B5088091B40898130C946D570C943F
:104720003F5980913910823411F00C946D57E0EEAE
:10473000F6E084918F01882351F0082E000C990B2C
:104740000F94D9630F5F1F4FF8018491F4CF10923B
:10475000EA101092360880911102823509F047C0A4
:1047600089E4809311028091BC10813049F441E0CA
:1047700050E06CE481E20F947A3840E050E008C0E9
:1047800040E050E06CE481E20F947A3841E050E080
:104790006BE481E20F947A3841E050E06EE781E209
:1047A0000F947A3841E050E06DE481E20F947A385A
:1047B00041E050E061E481E20F947A3841E050E05A
:1047C00066E481E20F947A3841E050E06EE481E2E1
:1047D0000F947A3841E050E06FE481E20F947A3828
:1047E00040E050E064E18AE00F947A38A9C089344F
:1047F00009F0A6C081E48093EA1040E050E068E050
:104800008AE00F947A3840901B0850901C08609002
:104810001D0870901E0840928A1250928B1260926E
:104820008C1270928D1220E030E040E752E46091EB
:104830005E0270915F0280916002909161020F941C
:1048400079A54B015C01E0908E12F0908F120091DF
:10485000901210919112609186127091871280913E
:1048600088129091891229E732E13F932F93E2E970
:10487000CE2EE2E1DE2EA30192010E941DD50E9400
:104880008E8D0F900F908091EA108E3411F40C945D
:104890006E5920E030E040E251E460911F087091D1
:1048A000200880912108909122080F948BA47B010D
:1048B0008C0160938E1270938F128093901290935C
:1048C0009112809116088983809062029090630211
:1048D000A0906402B090650220918A1230918B12F0
:1048E00040918C1250918D126091861270918712B6
:1048F0008091881290918912FE013196FF93EF9377
:104900000E941DD50E948E8D0F900F908091EA100D
:104910008E3411F40C946E591092EA1040E050E07D
:104920006AE28AE00F947A3811E0109380111092B5
:10493000500F6EEF77E086E20E944B9B1093FD07CD
:10494000109239100C946D57809190111092EA10CA
:104950008823B9F01092901181E080939111809199
:104960000E0240E050E0813431F469E08AE00F94B7
:104970007A380C946D576AE28AE00F947A380C9476
:104980006D5710922E101092500FE5EDF6E08491C5
:104990008F01882351F0082E000C990B0F94D963D6
:1049A0000F5F1F4FF8018491F4CF1092961281E0AF
:1049B0000F942D5740E050E065E08AE00F947A387C
:1049C0000C946D579091EE07992309F428C28091B9
:1049D000F207823008F423C247345105610571059E
:1049E00009F4A3C09CF54B3251056105710509F42A
:1049F00062C09CF4473151056105710509F467C037
:104A0000483151056105710511F00C946D5782E034
:104A100090E00F940A7C0C946D574033510561056A
:104A2000710509F44EC0453351056105710509F45E
:104A3000BCC14F3251056105710511F00C946D57E1
:104A40008FEF9FEF0F940A7C0C946D5740385105FF
:104A50006105710509F441C004F54E355105610544
:104A6000710509F470C14F3551056105710511F0EB
:104A70000C946D5714E41093391040E050E06BE053
:104A800084E10F947A3840E050E065E18AE00F94C9
:104A90007A381093EA100C946D574238510561052D
:104AA0007105B9F144F14B3A51056105710509F4FD
:104AB000C8C00C946D578EEF9FEF0F940A7C0C9436
:104AC0006D5780E090E00F940A7C0C946D5781E064
:104AD00090E00F940A7C0C946D578DEF9FEF9093AC
:104AE0003B1080933A1040E050E06AE08AE00F9477
:104AF0007A380C946D5783E090E090933B1080934C
:104B00003A1040E050E06AE08AE00F947A380C9462
:104B10006D5710923B1010923A1040E050E06AE05E
:104B20008AE00F947A380C946D5740E050E068E0CA
:104B30008AE00F947A3881E48093EA1041E061E0E2
:104B400081E00F947B061092EA100E948E8D0F94E4
:104B50007D5810913A108091F207823011F540E0B3
:104B600050E061E18AE00F947A3880E58093EA10A2
:104B70000091EF07010F0093EF07002E000C110BBF
:104B800020E030E0A901CA01B9010F940A0A40E00F
:104B900050E069E18AE00F947A381092EA100C94A0
:104BA0006D57833029F540E050E061E18AE00F94D1
:104BB0007A3880E58093EA100091F007010F0093A6
:104BC000F007002E000C110B20E030E04CE553EC18
:104BD00060E070E088E393EC0F940A0A40E050E054
:104BE00069E18AE00F947A381092EA100C946D57BC
:104BF000843011F00C946D5740E050E061E18AE0A0
:104C00000F947A3880E58093EA100091F107010F44
:104C10000093F107002E000C110B20E030E04CE572
:104C200053EC60E070E080E493E40F940A0A40E003
:104C300050E069E18AE00F947A381092EA100C94FF
:104C40006D571092EA108091EF074091F007042F02
:104C5000081B4091F107142F181B602F002E000C29
:104C6000770B880B990B0F94059E2DEC3CEC4CECCC
:104C70005DEB0F94F5986093F7077093F8078093B6
:104C8000F9079093FA07612F012E000C770B880B20
:104C9000990B0F94059E2DEC3CEC4CEC5DEB0F94C6
:104CA000F5986093F3077093F4078093F50790935A
:104CB000F6070023A1F040E050E06FE18AE00F9496
:104CC0007A3807FF07C0202F332721950CF4309541
:104CD00008E0020F402F000F550B64E015C01123B0
:104CE000B9F040E050E060E28AE00F947A3817FFB4
:104CF00007C0812F992781950CF4909518E0180F23
:104D0000412F110F550B65E08BE10F947A3811C0DC
:104D100014E41093391040E050E06BE084E10F940C
:104D20007A3840E050E065E18AE00F947A381093D9
:104D3000EA108FE790E09093B5118093B4110E9430
:104D40004CEE0C946D574091F1078091EF07142FB2
:104D5000181BC1F040E050E060E28AE00F947A381E
:104D600017FF07C0A12FBB27A1950CF4B09518E041
:104D70001A0F412F110F550B65E08BE10F947A3814
:104D80000C946D5714E41093391040E050E06BE040
:104D900084E10F947A3840E050E065E18AE00F94B6
:104DA0007A381093EA100C946D578091391084343E
:104DB00011F00C946D571092F2071092EE071092BA
:104DC000EA10109266121092651210926C121092F4
:104DD0006B1210926E1210926D1210922E10109291
:104DE000500FEAECF6E084918F01882351F0082EF1
:104DF000000C990B0F94D9630F5F1F4FF80184913A
:104E0000F4CF109296120F942D5740E050E065E0D9
:104E10008AE00F947A38109239100C946D57403E06
:104E2000510510F00C946D57FA018827EE58FF4F8A
:104E30008F4F0D94F0A881E080934E080C946D572D
:104E400081E080934D080C946D5781E080934C086D
:104E50000C946D5781E080934B080C946D5781E062
:104E600080934A080C946D570E94CF9B009751F491
:104E700081E080934F08809158128150809358129E
:104E80000C946D57019711F00C946D5781E080934D
:104E90004F0840E050E067E381E20F947A3840E049
:104EA00050E061E08BE10F947A3880915812815084
:104EB000809358120C946D5710922E101092500F30
:104EC000EFEBF6E084918F01882351F0082E000C5F
:104ED000990B0F94D9630F5F1F4FF8018491F4CFA2
:104EE0001092961281E00F942D5740E050E065E05B
:104EF0008AE00F947A380C946D5780916716882356
:104F000011F40C946D5741E061E088E696E10E944F
:104F1000E6948FEF9FEF9093561680935516E12CF1
:104F2000F12C04E016E19E012F5F3F4F59018824C8
:104F30008A94982C22242394312C5EEDC52E53E0C4
:104F4000D52E40910619509107196091081970915A
:104F500009198091611890916218A0916318B0911D
:104F6000641884179507A607B70708F0C8C0D801CA
:104F7000E2E31D92EA95E9F725E1422E512C80915A
:104F800004168D3429F4E114F10409F07FC05FC0E8
:104F900040910619509107196091081970910919EB
:104FA0008091611890916218A0916318B091641873
:104FB00084179507A607B70730F794E0692E96E1A6
:104FC000792E8091611890916218A0916318B09128
:104FD0006418409106195091071960910819709151
:104FE000091984179507A607B70788F480930E1947
:104FF00090930F19A0931019B093111989E598E1B6
:105000000F949801D3018D933D018A3029F4B1E0CA
:105010004B1A510829F4B7CFA553B641C1F3D1CFEC
:10502000409106195091071960910819709109195A
:105030008091611890916218A0916318B0916418E2
:1050400084179507A607B70708F499CF9CCF9A82D3
:105050008982BF92AF92A5E7B3E1BF93AF931F934D
:105060000F930F94DE9D89819A810F900F900F907E
:105070000F900F900F90019629F0309256162092C3
:10508000551604C010925616109255169A828982AF
:10509000BF92AF92DF92CF921F930F930F94DE9D3A
:1050A00089819A810F900F900F900F900F900F9021
:1050B000059711F40C9456599A828982BF92AF9247
:1050C000DF92CF921F930F930F94DE9D89819A8177
:1050D0000F900F900F900F900F900F90069711F474
:1050E0000C9456592EE0E216F10409F486C13FEF04
:1050F000E31AF30A4FE0E416F1040CF422CF109205
:105100000E1910920F19109210191092111940E0F7
:1051100050E0BA0189E598E10E9475FE809155162C
:1051200090915616892B49F40CE310E0B4E0EB2E75
:10513000B6E1FB2E82E3D82E98C00AEF10E054E0CF
:10514000E52E56E1F52E62E3362E44244A94542C83
:10515000AE014F5F5F4F6A01EFECAE2EE3E0BE2E73
:105160004091061950910719609108197091091919
:105170008091611890916218A0916318B0916418A1
:1051800084179507A607B70708F03FC0A4E08A2E4A
:10519000A6E19A2ED701E32D1D92EA95E9F70F9427
:1051A0000C69019621F480E00F94F36626C15A82BF
:1051B0004982DF92CF92FFEC6F2EF3E07F2EBF92F9
:1051C000AF92FF92EF920F94DE9D89819A810F90AA
:1051D0000F900F900F900F900F90019659F18FEF55
:1051E0009FEF9A838983DF92CF927F926F929F92F3
:1051F0008F920F94DE9D89819A810F900F900F906E
:105200000F900F900F90892B71F680E00F94F3664A
:10521000C090CD02D090CE02E090CF02F090D002AC
:1052200020E030E0A901C701B6010F9463A718166A
:1052300094F13CC00150110909F092CFE6CFD7019B
:10524000ED2D1D92EA95E9F70F940C69019609F48A
:10525000AACF64E076E18BE194E00F946D9D892BF9
:1052600009F4A1CF0150110981F240910619509122
:10527000071960910819709109198091611890912E
:105280006218A0916318B091641884179507A60757
:10529000B707A8F2BACF2DEC3CEC4CE45DE3C701B4
:1052A000B6010F9463A718165CF0A7C02DEC3CEC78
:1052B0004CE45DEBC701B6010F94FF9D87FF9DC0D5
:1052C00040E050E067E18AE00F947A388090CD02A8
:1052D0009090CE02A090CF02B090D00220E030E0BB
:1052E000A901C501B4010F9463A718162CF520E09D
:1052F00030E048EC52E4C501B4010F94F5980F94E6
:1053000025A60AE010E0CB01B8010F94C1A8F82E41
:10531000E92E20E030E040E251E4C501B4010F94F1
:10532000F5980F9425A6CB01B8010F94C1A8082FBA
:10533000D92EC501B4012AC02401350177FA709431
:1053400077F8709420E030E048EC52E4C301B201F9
:105350000F94F5980F9425A60AE010E0CB01B80150
:105360000F94C1A8F82EE92E20E030E040E251E48D
:10537000C301B2010F94F5980F9425A6CB01B80193
:105380000F94C1A8082FD92EC301B2010F9425A6EE
:10539000162FC72E20E030E0A901C501B4010F94FB
:1053A000FF9D87FD03C083E094E002C08EEF93E091
:1053B000EF92FF92DF920F93CF921F939F938F9361
:1053C00082E796E09F938F938E010F5F1F4F1F938D
:1053D0000F930F94AF9DC8010E943A9BB80180E3E0
:1053E0000E944B9B2DB73EB7245F3F4F0FB6F894FA
:1053F0003EBF0FBE2DBF0C946E598091B716811120
:105400000C946D57CDB6DEB680914808909149084E
:105410000F94826AE8E6F6E1DF010D900020E9F7DB
:105420008DB79EB78A1B9B0BAC014C59594E0FB6DA
:10543000F8945EBF0FBE4DBF0DB71EB70F5F1F4F75
:10544000FF93EF938BE696E09F938F931F930F93B9
:105450000F94AF9D780154E0E50EF11C0F900F9072
:105460000F900F900F900F90F7018081882349F0E3
:10547000082E000C990B0F94EBAAD7018D937D0198
:10548000F3CFC8010F94A25787E696E00F943057E8
:105490000FB6F894DEBE0FBECDBE0C946D57809152
:1054A0006716882311F40C946D578091B7168111FB
:1054B0000C946D57CDB6DEB680914808909149089E
:1054C0000F94826AE8E6F6E1DF010D900020E9F72B
:1054D0008DB79EB78A1B9B0B9C012C59394E0FB67A
:1054E000F8943EBF0FBE2DBF0DB71EB70F5F1F4F05
:1054F000FF93EF9380E696E09F938F931F930F9314
:105500000F94AF9D780134E0E30EF11C0F900F90E3
:105510000F900F900F900F90F7018081882349F032
:10552000082E000C990B0F94EBAAD7018D937D01E7
:10553000F3CFC8010F94A2578CE596E00F94305733
:105540000FB6F894DEBE0FBECDBE0C946D5740E092
:1055500050E067E381E20F947A3840E050E061E088
:105560008BE10F947A3840E050E062E08AE00F94DB
:105570007A3881E080932E10809350080C946D57F8
:1055800081E0809352080C946D5781E0809351081C
:105590000C946D5740E050E062E18AE00F947A3855
:1055A0000C946D5740E050E06CE18AE00F947A383B
:1055B00080E00F942D5710924708109246081092E1
:1055C000450881E0809396120C946D5710922E102E
:1055D0001092500FE1E5F6E084918F01882351F09D
:1055E000082E000C990B0F94D9630F5F1F4FF80121
:1055F0008491F4CF109296120E944E7881E00F941D
:105600002D5740E050E065E08AE00F947A380C9422
:105610006D5780916B1290916C12892B29F010922A
:105620006C1210926B1208C08091BC089091BD085A
:1056300090936C1280936B12109247080C946D57E4
:1056400080916D1290916E12892B29F010926E123A
:1056500010926D1208C08091BA089091BB08909387
:105660006E1280936D12109246080C946D578091C3
:10567000651290916612892B29F010926612109291
:1056800065121CC08091B8089091B9086091B60865
:105690007091B708681779072CF4BC01990F880B33
:1056A000990B04C0072E000C880B990B0F94059ED4
:1056B0000F9425A6709366126093651210924508A8
:1056C0000C946D578DE496E00F9430570C946D5701
:1056D00040E050E06EE18AE00F947A380C946D5708
:1056E00040E050E065E08AE00F947A3810922E1086
:1056F0001092500FE2E4F6E084918F01882351F07C
:10570000082E000C990B0F94D9630F5F1F4FF801FF
:105710008491F4CF1092961288E793E0909323023D
:10572000809322020E944CEE0C946D5740E050E0B2
:105730006AE18AE00F947A380E94139C8091671680
:10574000882311F40C946D5780915712809358124E
:105750002FE2E22E22E1F22E33E4C32E32E1D32EE9
:1057600000E010E04CE3842E46E0942E8091571226
:1057700090E008171907BCF568E676E18FED96E131
:105780000F94C9015701D7018D919D917D010F940F
:10579000826AF50180819181D6018D939D936D017F
:1057A0008091B716811118C0F40184919CE3A92E51
:1057B00096E0B92E882359F0082E000C990B0F940F
:1057C000D963FFEFAF1ABF0AF5018491F3CF8AE0E6
:1057D00090E00F94D96304C088E696E10F94416687
:1057E0000F5F1F4FC3CF87E090E00F94FC7C0C94B9
:1057F0006D5780912202909123028036974041F4A8
:1058000088E793E090932302809322020E944CEE5B
:1058100040E050E068E08AE00F947A3881E48093B9
:10582000EA1080911A11882331F140E061E081E0B3
:105830000F947B060E948E8D8091EA108E3411F4B5
:105840000C946E5981E00F942D571092EA1089E361
:1058500096E00F9430570E948E8D8091EA108E341E
:1058600011F40C946E5940E050E06BE08AE00F9424
:105870007A380C946D5741E0D9CF40E050E064E0B5
:105880008AE00F947A380C946D5740E050E064E25F
:105890008AE00F947A3881E08093DF0789E480936F
:1058A000EA101F921F9281E294E09F938F938E01E2
:1058B0000F5F1F4F1F930F930F944CABB8018EE2F5
:1058C0000E944B9B6091BC087091BD08072E000C94
:1058D000880B990B0F94059E00E010E028EC31E452
:1058E00040E050E00F94055F0E944CEE66E274E0E9
:1058F0008BE595E10F94045F69E274E08BE595E137
:105900000F94045F6091E5027091E6028091E702D6
:105910009091E80242E050E00F94C75E6DE274E0BF
:105920008BE595E10F94045F2DEB37E346E05EE3F2
:105930006091DD027091DE028091DF029091E002C1
:105940000F9479A542E050E00F94C75E61E374E0E4
:105950008BE595E10F94045F2DEB37E346E05EE3C2
:105960006091D5027091D6028091D7029091D802B1
:105970000F94F59842E050E00F94C75E6091BA082A
:105980007091BB08072E000C880B990B0F94059E95
:1059900000E010E028EC31E441E050E00F94055FB6
:1059A0000E944CEE66E274E08BE595E10F94045F93
:1059B00069E274E08BE595E10F94045F6091E90280
:1059C0007091EA028091EB029091EC0242E050E08B
:1059D0000F94C75E6DE274E08BE595E10F94045F70
:1059E0002DEB37E346E05EE36091E1027091E20265
:1059F0008091E3029091E4020F9479A542E050E097
:105A00000F94C75E61E374E08BE595E10F94045F4A
:105A10002DEB37E346E05EE36091D9027091DA0244
:105A20008091DB029091DC020F94F59842E050E007
:105A30000F94C75E1092EA100E944E7840E050E04A
:105A40006BE084E10F947A3840E050E065E18AE051
:105A50000F947A3884E4809339108093EA100F9081
:105A60000F900F900F900F900F900C946D57109215
:105A70002E101092500FEEE2F6E084918F018823F1
:105A800051F0082E000C990B0F94D9630F5F1F4F34
:105A9000F8018491F4CF109296120E944E7840E063
:105AA00050E065E08AE00F947A380C946D5782E5F7
:105AB0008093110281E08093DE0740E050E06BE5C7
:105AC00081E20F947A3840E050E06CE581E20F9477
:105AD0007A3840E050E060E08BE10F947A3840E0A3
