:100000000C9417170C9448170C9448170C94481725
:100010000C9448170C9448170C9448170C944817E4
:100020000C9448170C9448170C9448170C944817D4
:100030000C9448170C9448170C9448170D945512BB
:100040000C9448170C9448170C9448170C944817B4
:100050000C9448170C9448170D94AD3F0C94EFC8BE
:100060000C9448170C941DC70C94F4C60C944817B4
:100070000C9448170C9448170C9448170C94481784
:100080000C9459E10C9448170C9448170C94481799
:100090000C9448170C9448170C9448170C94481764
:1000A0000C9448170C9448170C9448170C94481754
:1000B0000C9448170C9448170C9448170C94481744
:1000C0000C9448170C9448170C9448170C94BFC60E
:1000D0000C9496C60C9448170C9448170C94481727
:1000E0000C944817745AFB5CC82F8C2D1958AB28F8
:1000F000D55BC128FB5CFB5CFB5C00299D28FB5C9D
:10010000F925EE25FB5CAD39FB5CFB5CFB5CE05B41
:100110006A4080409640AC404441C240FE5B5C4037
:1001200022437B5AFA39EB39D840EC40FB5CB628C5
:100130006F269D286C2DE53B842D925BE54E7C2D32
:10014000742DB35B105AFB5CBA2F8B5BFB5C8C3C51
:10015000C9281A260426FB5CFB5CDA29163AFB5CEC
:10016000605B345B4948BF3145285A4CFA36093A3E
:10017000C331FB5CD15A8A5A862F703070304C30B4
:10018000C731CB32782B192932290C302E30E32598
:100190000F26FB5CFB5C9D280030EC2B0E2C5F29AE
:1001A0008A3B6A3BFB5CE4568F57FD59FB5CFE5B68
:1001B000FE5B5D5931590559D95855588158AD588C
:1001C000465A6257A64330431C442D468645104587
:1001D000FB5CFB5C1958312C4A2C00300757F55B4F
:1001E000FB5CFB5C515B0241394B2547FB5C4E26B7
:1001F000135518412E41FB5C8841FB5CBF3AB73A6E
:10020000FB5CFB5C2E35FB5CFB5CFB5C5535A73572
:100210009235052FEF2EC73A952D122E962EC32E0E
:100220005F53162FA9477D353D47FB5CFB5CFB5CAC
:10023000FB5CFB5CFB5CFB5CFB5CFB5C65296D2990
:100240009329FB5CFB5C534767474948394B454B57
:100250004A4CFB5C584FBC4FEB4E3F4F614DFB5C33
:10026000FB5C7E4DFB5C9451A738A539D8517D4786
:10027000FB5C6650B050FC5048515E509347FB5CAD
:100280001C521E539254B555FB5C4854FC45FC452A
:10029000A3549D330F2BD14E6A4D8A4D5C4E644E54
:1002A0009D28D94EFB5CFB5CFB5CFB5CFB5CFB5C58
:1002B0007739FB5CFB5C0A583D5AFB5CFB5CFB5CE2
:1002C000FB5CFB5CFB5CFB5CFB5C7B56CE56FB5C2F
:1002D000FB5CFB5CFB5CFB5CFB5CFB5CFB5CFB5C66
:1002E000FB5CFB5CFB5CFB5CFB5CFB5CFB5CFB5C56
:1002F000FB5CFB5CFB5CFB5CFB5CFB5CFB5CFB5C46
:10030000FB5CFB5CFB5CFB5CFB5CFB5CFB5CFB5C35
:10031000FB5CFB5CFB5CFB5CFB5CFB5CFB5CFB5C25
:10032000FB5CFB5CFB5CFB5CFB5CFB5CFB5CFB5C15
:10033000FB5CFB5CFB5CFB5CFB5CFB5C1E40E03F36
:10034000E442A642FB5C0B46FB5CFB5C093A3F2B9C
:1003500096425C41093A5C41FB5C72417241172B49
:100360006E5B675B7D5B845BDD57E257E757EC575D
:100370004A5B3B5BF657FB5700580558F157D85777
:10038000EA4A094B8C2D292A1F2BFB5C685A4A53D9
:10039000DD28AB2BFB5CFB5C5B571C50FB5CFB5C08
:1003A000FB5CAE55FB5C0757FB5CFB5CFB5C2630E3
:1003B000802B5753752F6F34FB5CF04FFB5CA755B8
:1003C000FB5CFB5CFB5CFB5CFB5CAD2FC44AD74A6F
:1003D000685A465A33360F37DC4F373B1337312ACA
:1003E000E53B3B363A4E9F38D737B5540655FB5C54
:1003F000163ADC4F9948FE5BCF3A472BE44FFE5B41
:1004000036C639C628C62CC632C670C63DC641C6D9
:1004100047C64BC64FC655C659C65DC670C663C6ED
:1004200067C66BC60BC810C815C81FC829C8A2C8A4
:1004300033C83BC843C84DC857C861C870C87AC8DC
:10044000A2C884C88EC898C89B028F02910273020A
:1004500077027302A90289028702A10297027B0236
:100460006F0295026D02A502810283027D029D0248
:100470008502990275028D02A302AB0269026B022A
:100480006702084AD73B3BCE016E84BCBFFDC12F3B
:100490003D6C74319ABD56833DDA3D00C77F11BE75
:1004A000D9E4BB4C3E916BAAAABE000000803F0578
:1004B000A84CCDB2D44EB93836A9020C50B99186A9
:1004C00088083CA6AAAA2ABE000000803F000D941E
:1004D000BC400D94B2400D94B4400D942C090D9481
:1004E000DB0A0D942B620D940A0A0D9487400D943B
:1004F0006E090D94640E0D94BD0A0D9437400D9451
:100500002A620D94AB090D94F90A0D9460400D9484
:10051000EE080D94E1090D94B9B50D9494400D9435
:100520004A090D942F0A0D945AC80D94340B0D945A
:100530009F0A0D946D400D94D0080D9444400D9485
:1005400010820D94630B0D94AE400D940C090D9424
:10055000E6810D94C9090D94B0400D94DEAE4E4174
:100560004E494E495459494E46CDCCCC3D0AD7232D
:100570003C17B7D13877CC2B329595E6241FB14F75
:100580000A000020410000C84200401C4620BCBEBA
:100590004CCA1B0E5AAEC59D746364696E6F70734E
:1005A0007578585B003B4C415945523A2564003BF5
:1005B000202020757365526166742C2564004D36C9
:1005C0003035205325640043616C63756C75733A54
:1005D00020200043616C63756C75733A20200043E2
:1005E000616C63756C75733A20200053757266698F
:1005F0006E6720300A00417420426F74746F6D2062
:10060000537469636B657200253033642E25303373
:1006100064253033642E2530346400417420426FE9
:1006200074746F6D20537469636B65720025303389
:10063000642E25303364253033642E253034640035
:1006400025737C4D253032642E253032640053757D
:100650007266696E6720300A0047323820583020B1
:10066000593000543000543100543000543000539D
:10067000757266696E6720300A004734330047346C
:1006800031004734300047333400473433004734B7
:10069000330047343100473430004D3834004D3892
:1006A00034004D3834005A32204F66667365743A10
:1006B00020004F4B207365636F6E64204578747221
:1006C00075646572210A005A20706F736974696FCE
:1006D0006E3A20005A20706F736974696F6E3A2009
:1006E000004D3834005A312050726F6265206F66B9
:1006F000667365743A20004F4B20666972737420EC
:10070000457874727564657221200A005A20706FF2
:10071000736974696F6E3A20005A20706F73697440
:10072000696F6E3A200043616C63756C75733A2093
:10073000200043616C63756C75733A20200043613F
:100740006C63756C75733A20200043616C63756C43
:1007500075733A20200036302064656772656573D2
:10076000200A0054300054300054300043616C695A
:1007700062726174696F6E2053756363657373662B
:10078000756C0A005430004A756D70206F76657282
:100790002073637265773120616E642073637265C4
:1007A0007732200A004A756D70206F76657220736B
:1007B0006372657731200A004733340047333400D1
:1007C0004733340054300047333400537572666940
:1007D0006E6720300A0053757266696E6720300AB2
:1007E0000053757266696E6720300A005375726631
:1007F000696E6720300A0053757266696E67203033
:100800000A0054300053757266696E6720300A0022
:100810004D33340053757266696E6720300A004D9F
:100820003234004D3233202573004D3234004D32C6
:10083000332025730077696C6C20626520646973CE
:10084000746F727465642062792025642E2531648A
:10085000253164206D6D2E005468652066697273C1
:1008600074206C61796572207072696E74656420A1
:10087000776974682074686520257320686F7465D3
:100880006E640053757266696E6720300A00537596
:100890007266696E6720300A0053757266696E670A
:1008A00020300A00526561647920746F20537461AE
:1008B00072740A002564206B6D2E0067636F646597
:1008C00020666F756E640A0020746F205374617225
:1008D0007420446973706C61792066726F6D205268
:1008E0006573657400546F6F6B2000646973706C7E
:1008F0006179206F6E6C696E6521002E0020535463
:100900004F50205052494E54200A00473238205848
:1009100030205930004D33350047373000524553B1
:10092000554D450A0050415553450A004D38342075
:10093000582059205A2045004D313037005430009E
:100940005374617274696E67205A2043616C6962E6
:10095000726174696F6E2057697A6172640A000A65
:1009600000205A3A200020593A200020583A20000E
:1009700042656400456E642066696C65206C69732D
:10098000740A00426567696E2066696C65206C694F
:1009900073740A002F005344207072696E74696E7C
:1009A00067206279746520004E6F74205344207074
:1009B00072696E74696E670A002569206D696E2C14
:1009C00020256920736563006F6B004649524D57BF
:1009D0004152455F4E414D453A4D61726C696E2002
:1009E00042434E3344205369676D61783B2046494A
:1009F000524D574152455F56455253494F4E3A303A
:100A0000322D322E302E3552433B204649524D571F
:100A10004152455F55524C3A68747470733A2F2FA7
:100A20006769746875622E636F6D2F42434E33445D
:100A30002F42434E33445369676D61782D46697286
:100A40006D776172653B2050524F544F434F4C5F5E
:100A500056455253494F4E3A312E303B204D41437B
:100A600048494E455F545950453A42434E3344201D
:100A70005369676D61783B2045585452554445523F
:100A80005F434F554E543A323B20555549443A0046
:100A900053544154495354494353205245534554A8
:100AA0000A004D6F64652032203A206379636C65DB
:100AB0002020202D3E205247423A20362073746178
:100AC000746573002A2A2D3E20004D6F6465203125
:100AD000203A2072616E646F6D20202D3E205247B7
:100AE000423A202B31202B32202B332C206475727C
:100AF000696E67207072696E74696E67002A2A2DAC
:100B00003E20004D6F64652030203A2064656661A8
:100B1000756C74202D3E205247423A2032353520E4
:100B200032353520323535002A2A2D3E20004C65DD
:100B300064206D6F646573203A004D353336204C68
:100B40005B6D6F64655D00504F534954494F4E20B3
:100B5000484F4D453A2000220A00556E6B6E6F7764
:100B60006E20636F6D6D616E643A2022000A002072
:100B70007A3A200020793A200020783A2000426515
:100B8000640045787472756465722072656C656185
:100B9000736564206163746976653A20005A205356
:100BA00049474D4120486F6D65640A00457874726D
:100BB00075646572206163746976653A20004D380A
:100BC00034005374617274696E6720582043616CFD
:100BD0006962726174696F6E2057697A6172640A22
:100BE000004D3834005374617274696E6720592067
:100BF00043616C6962726174696F6E2057697A61D2
:100C000072640A0045787472756465722048656183
:100C10007465640A0020573A00204500205A0020DD
:100C20005900483D5800205A3A0020593A002043C4
:100C30006F756E7420583A200020453A00205A3AC9
:100C40000020593A00583A007A5F6D696E3A2000E8
:100C5000795F6D61783A2000785F6D61783A2000A5
:100C6000785F6D696E3A2000486F74656E64206F1E
:100C70006666736574733A00504944204175746F19
:100C800074756E652066696E6973686564212050AD
:100C9000757420746865206C617374204B702C200F
:100CA0004B6920616E64204B6420636F6E737461C6
:100CB0006E74732066726F6D2061626F7665206955
:100CC0006E746F20436F6E66696775726174696FC9
:100CD0006E2E680A00504944204175746F74756E19
:100CE00065206661696C6564212074696D656F7546
:100CF000740A0020403A006F6B20543A006F6B205A
:100D0000423A00504944204175746F74756E6520F5
:100D10006661696C6564212054656D7065726174EB
:100D200075726520746F6F20686967680A00204BD0
:100D3000643A2000204B693A2000204B703A200092
:100D400020436C617373696320504944200A00207A
:100D500054753A2000204B753A2000206D61783A96
:100D60002000206D696E3A200020643A2000206245
:100D70006961733A2000436F6F6C696E6720446F3E
:100D8000776E204865617465720A005072696E74EE
:100D900065722068616C7465642E206B696C6C28C8
:100DA000292063616C6C6564210A004572726F7260
:100DB0003A006C61796572206865696768743A20E9
:100DC0000000002100240027002A002D00300033FD
:100DD0000001010000040107010A010000220025B2
:100DE0000028002B002E0031003400020100000515
:100DF0000108010B01000020002300260029002C1F
:100E0000002F003200000100000301060109010566
:100E1000050505070508080808020202020A0A0873
:100E20000804040404010101010101010103030399
:100E30000303030303040707070C0C0C0C0C0C0C36
:100E40000C0202020206060606060606060B0B0B3D
:100E50000B0B0B0B0B010210202008081020401078
:100E6000204080020102010804020101020408106E
:100E7000204080804020100804020180040201808C
:100E800040201008040201080402010102040810B5
:100E9000204080010204081020408000000A0B025C
:100EA000090C0D0E080703040100000000000000FB
:100EB0000000000000000000000000000000000032
:100EC00000000000000000121110000000000000EF
:100ED0000000000000000000000000000000000012
:100EE00000646973706C6179206F66666C696E6509
:100EF000004F637420333020323031382031363A9D
:100F000032373A30370A0042434E33442053696740
:100F10006D61780A0073746172740A006563686FAA
:100F20003A0030322D322E302E3552430A0065728F
:100F3000726F722077726974696E6720746F2066B1
:100F4000696C650A00205A3A0020593A0020583A44
:100F500000656E6473746F7073206869743A200062
:100F60006563686F3A00446F6E6520736176696EE1
:100F7000672066696C652E0A006F6B0A004D323976
:100F80000045787472756465722072656C65617372
:100F90006564206163746976653A20005A2053497C
:100FA000474D4120486F6D65640A0045787472753D
:100FB000646572206163746976653A200000000000
:100FC0000000809343000000000000A0400000A04B
:100FD000400000004020004D6F766520746F3A207D
:100FE00000CDAC03440080934300005243FF01FF57
:100FF00020636F6C6420657874727573696F6E20FE
:1010000070726576656E7465640A006563686F3A30
:101010000024F4D43050C38E20C2A24017828B70BB
:1010200011127A910D816CD90AA861E108C758663E
:1010300007615143061E4B5D05C145A7041A4111C6
:1010400004093D9803713931034036DB0265339161
:1010500002D4305402802E1D02632CEE01752AC585
:1010600001B028A001102781018F2564012B244B9A
:1010700001E0223401AC211F018D200D01801FFCF5
:1010800000841EED00971DDF00B81CD200E61BC6D1
:1010900000201BBC00641AB200B219A8000A19A0F3
:1010A000006A189900D117910040178B00B516847B
:1010B0000031167E00B31579003A157300C7146F1E
:1010C0000058146A00EE1366008813630025135E4F
:1010D00000C7125B006C12570015125400C1115169
:1010E0000070114F0021114B00D61049008D1047A0
:1010F000004610440002104200C00F4000800F3E26
:1011000000420F3C00060F3B00CB0E3800930E3719
:10111000005C0E3500270E3400F30D3200C10D3196
:1011200000900D3000600D2E00320D2D00050D2CAD
:1011300000D90C2B00AE0C2900850C29005C0C2773
:1011400000350C27000E0C2600E80B2400C40B24ED
:1011500000A00B23007D0B23005A0B2100390B212B
:1011600000180B2000F80A1F00D90A1E00BB0A1E37
:10117000009D0A1D00800A1D00630A1C00470A1B0F
:10118000002C0A1B00110A1A00F7091A00DD0919C0
:1011900000C4091900AB091900920917007B09184E
:1011A00000630917004C09160036091600200916BD
:1011B000000A091500F5081500E0081400CC081411
:1011C00000B8081400A4081400900813007D081249
:1011D000006B08130058081200460812003408116A
:1011E00000230811001208110001081100F0071077
:1011F00000E0071000D0071000C0071000B0070F74
:1012000000A107100091070E0083070F0074070F5D
:101210000065070E0057070E0049070E003B070D3B
:10122000002E070E0020070D0013070D0006070D06
:1012300000F9060C00ED060D00E0060C00D4060CCB
:1012400000C8060C00BC060C00B0060C00A4060B7F
:101250000099060C008D060B0082060B0077060B2A
:10126000006C060B0061060A0057060B004C060ACC
:101270000042060A0038060A002E060A0024060A62
:10128000001A060A001006090007060A00FD0509F3
:1012900000F4050900EB050900E2050900D905097C
:1012A00000D0050900C7050900BE050900B50508FD
:1012B00000AD050800A50509009C05080094050877
:1012C000008C050800840508007C050800740508EA
:1012D000006C050700650508005D05070056050858
:1012E000004E0507004705070040050800380507C0
:1012F00000310507002A050700230507001C050625
:1013000000160507000F050700080506000205077F
:1013100000FB040600F5040700EE040600E80406DE
:1013200000E2040700DB040600D5040600CF040633
:1013300000C9040600C3040600BD040600B7040685
:1013400000B1040500AC040600A6040600A00405D4
:10135000009B04060095040500900406008A04051D
:101360000085040500800406007A04050075040564
:1013700000700405006B04050066040500610405A7
:10138000005C04050057040500520405004D0405E7
:101390000048040500430405003E0404003A040527
:1013A0000035040500300404002C04050027040463
:1013B00000230405001E0404001A0404001604059A
:1013C00000110404000D04040009040500040404D1
:1013D0000000040400FC030400F8030400F4030408
:1013E00000F0030400EC030400E8030400E4030439
:1013F00000E0030400DC030400D8030400D4030469
:1014000000D0030400CC030400C8030300C5030399
:101410000024F404D9201BC40C5C0E9804C4095F9A
:101420000265077101F405F900FB04B30048048765
:1014300000C10369005803550003034500BE023A8A
:10144000008402310053022A0029022500040220F0
:1014500000E4011C00C8011900AF01170098011435
:101460000084011300710110006101100051010E90
:101470000043010D0036010B002B010B0020010B76
:1014800000150109000C01090003010800FB000818
:1014900000F3000800EB000700E4000600DE000691
:1014A00000D8000600D2000600CC000500C70005E9
:1014B00000C2000500BD000400B9000400B500042E
:1014C00000B1000400AD000400A9000400A5000361
:1014D00000A20003009F0004009B0003009800038B
:1014E000009500020093000300900003008D0002AD
:1014F000008B0003008800020086000200840003C5
:1015000000810002007F0002007D0002007B0002DB
:1015100000790002007700010076000200740002EA
:101520000072000100710002006F0002006D0001F6
:10153000006C0002006A00010069000200670001FF
:101540000066000100650001006400020062000105
:101550000061000100600001005F0002005D000109
:10156000005C0001005B0001005A0001005900010D
:10157000005800010057000100560001005500010D
:10158000005400010053000000530001005200010C
:101590000051000100500001004F0001004E00000A
:1015A000004E0001004D0001004C0001004B000006
:1015B000004B0001004A0001004900010048000002
:1015C00000480001004700010046000000460001FD
:1015D00000450000004500010044000100430000F8
:1015E00000430001004200000042000100410000F1
:1015F0000041000100400001003F0000003F0001E9
:10160000003E0000003E0001003D0000003D0001E2
:10161000003C0000003C0000003C0001003B0000DA
:10162000003B0001003A0000003A000100390000D0
:1016300000390001003800000038000000380001C7
:1016400000370000003700010036000000360000BF
:1016500000360001003500000035000000350001B3
:1016600000340000003400000034000100330000AA
:10167000003300000033000100320000003200009F
:101680000032000100310000003100000031000193
:10169000003000000030000000300001002F00008A
:1016A000002F0000002F0000002F0001002E00007E
:1016B000002E0000002E0001002D0000002D000073
:1016C000002D0000002D0001002C0000002C000067
:1016D000002C0000002C0001002B0000002B00005B
:1016E000002B0000002B0001002A0000002A00004F
:1016F000002A0000002A0001002900000029000043
:101700000029000000290000002900010028000035
:101710000028000000280000002800000028000128
:10172000002700000027000000270000002700001D
:10173000002700010026000000260000002600000F
:101740000026000000260001002500000025000002
:1017500000250000002500000025000000250001F4
:1017600000240000002400000024000000240000E9
:1017700000240001002300000023000000230000DB
:1017800000230000002300000023000000230001CC
:1017900000220000002200000022000000220000C1
:1017A00000220000002200010021000000210000B2
:1017B00000210000002100000021000000210000A5
:1017C0000021000100200000002000000020000097
:1017D0000020000000200000002000000020000089
:1017E00000200001001F0000001F0000001F00007B
:1017F000001F0000001F0000001F0000001F00016C
:10180000001E0000001E0000001E0000001E000060
:10181000002E0A0044656C6574696F6E206661690C
:101820006C65642C2046696C653A200046696C65DD
:101830002064656C657465643A002E0A006F7065FB
:101840006E206661696C65642C2046696C653A207F
:1018500000473238205830205930000A0A005374AB
:10186000616E6461726420446576696174696F6E4B
:101870003A20000A004D65616E3A20000A002020DF
:10188000207A3A20000A00793A2000783A20003F76
:10189000537065636966696564206E756D62657213
:1018A000206F66206C65677320696E206D6F7665AA
:1018B0006D656E74206E6F7420706C6175736162FB
:1018C0006C652E0A003F5370656369666965642024
:1018D0005920706F736974696F6E206F7574206F13
:1018E000662072616E67652E0A003F5370656369FA
:1018F00066696564205820706F736974696F6E2023
:101900006F7574206F662072616E67652E0A003FE6
:101910005370656369666965642073616D706C6599
:101920002073697A65206E6F7420706C61757361C5
:10193000626C652E0A0046756C6C20737570706F52
:1019400072742061743A20687474703A2F2F336473
:101950007072696E74626F6172642E636F6D2F6650
:101960006F72756D2E7068700A004D3438205A2DD4
:1019700050726F6265205265706561746162696C56
:1019800069747920746573742E20202056657273F3
:10199000696F6E20322E30300A003F566572626FDA
:1019A0007365204C6576656C206E6F7420706C6179
:1019B000757361626C652E0A00426564204865613A
:1019C0007465640A0020573A0053757266696E6741
:1019D0002030200A005430004D383420582059203F
:1019E0005A204500496E7374616C6C202564202573
:1019F00073206F6E2074686520257320686F74658E
:101A00006E642E00496E7374616C6C202564202511
:101A100073206F6E2074686520257320686F74656D
:101A20006E642E0050757267652046696C616D6545
:101A30006E740A0053757266696E6720310A00532E
:101A4000757266696E6720300A00425249474854F1
:101A50004E4553533A2000220A00656E7175656940
:101A60006E67202200220A00656E717565696E67D7
:101A7000202200202F0020400020403A00526573B1
:101A8000656E643A20006F6B0A004475706C6920C3
:101A90004D6F6465204F4E0A004D6972726F72205F
:101AA0004D6F6465204F4E0A002C2073617665648B
:101AB0005F466C61675F66616E6C617965725F6DD0
:101AC0006972726F723A20002C2073617665645FD0
:101AD0006665656472617465313A20002C2073611B
:101AE0007665645F6665656472617465303A20008E
:101AF0002C2073617665645F66616E6C61796572D6
:101B00003A20002C2073617665645F74656D7062A5
:101B100065643A20002C2073617665645F74656D9E
:101B200070303A20002C2073617665645F74656DB7
:101B300070313A20002C2073617665645F66696CB1
:101B400065706F736974696F6E3A20002C20736141
:101B50007665645F655F706F736974696F6E3A2054
:101B6000002C2073617665645F746F6F6C5F6163D6
:101B7000746976653A20002C2073617665645F7A1B
:101B80005F706F736974696F6E3A20002C20736107
:101B90007665645F795F706F736974696F6E3A2000
:101BA000002C2073617665645F785F706F73697471
:101BB000696F6E3A200053415645205052494E54A9
:101BC000204C4F473A0A006563686F3A00507269CB
:101BD0006E74207265636F766572792075700A0085
:101BE0004E6F74207072696E74207265636F7665D3
:101BF00072792075700A00535543434553530A00C8
:101C000056616C756573206F7574206F6620726104
:101C10006E67650A0056616C756573206F75742078
:101C20006F662072616E67650A0056616C75657338
:101C3000206F7574206F662072616E67650A0056AA
:101C4000616C756573206F7574206F662072616EAC
:101C500067650A00535543434553530A0056616C68
:101C6000756573206F7574206F662072616E67658D
:101C70000A0056616C756573206F7574206F66205D
:101C800072616E67650A0056616C756573206F75C9
:101C900074206F662072616E67650A0056616C750C
:101CA0006573206F7574206F662072616E67650AB8
:101CB0000020502000205A20002059200053657435
:101CC000204D35333020582000486F74656E6420F5
:101CD0006F6666736574733A0054696D6520696E4A
:101CE0006163746976650A0050757267652064697E
:101CF0007374616E63650A005A204F66667365747B
:101D0000206F6B0A005A204F6666736574203A2074
:101D10000A007A5F6D61783A20007A5F6D696E3AE9
:101D200020005A204F666673657400504F53495423
:101D3000494F4E20484F4D453A20002A2A2A204735
:101D4000656E696520446973636F6E6E6563746563
:101D5000642066726F6D204765744E6578744279B1
:101D6000746521202A2A2A002A2A2A2047656E69BA
:101D70006520456E61626C652041747461636845DD
:101D800076656E7448616E646C6572202121212035
:101D90002A2A2A0043616E6E6F7420656E74657224
:101DA000207375626469723A200057726974696EB3
:101DB0006720746F2066696C653A20002E0A006FF8
:101DC00070656E206661696C65642C2046696C657F
:101DD0003A20002E0A006F70656E206661696C659E
:101DE000642C2046696C653A200046696C65207356
:101DF000656C65637465640A002053697A653A20EE
:101E00000046696C65206F70656E65643A20002E2F
:101E10000A006F70656E206661696C65642C2046EF
:101E2000696C653A20004E6F772066726573682092
:101E300066696C653A20004E6F7720646F696E6743
:101E40002066696C653A20002220706F73002220A2
:101E5000706172656E743A2200535542524F555468
:101E6000494E452043414C4C207461726765743A79
:101E70002200747279696E6720746F2063616C6CE4
:101E8000207375622D67636F64652066696C657386
:101E9000207769746820746F6F206D616E79206C93
:101EA0006576656C732E204D4158206C6576656CA7
:101EB0002069733A005341564544205052494E54CC
:101EC0000A007A70726F62653A20005344206361A1
:101ED0007264206F6B0A006F70656E526F6F7420B2
:101EE0006661696C65640A00766F6C756D652E6954
:101EF0006E6974206661696C65640A004572726F70
:101F0000723A00534420696E6974206661696C0AF4
:101F10000070012C0190012701B0012201C0011DB8
:101F200001F00118011002130130020E01600209D4
:101F30000190020401C002FF000003FA004003F513
:101F4000008003F000D003EB002004E6007004E101
:101F500000E004DC004005D700C005D2004006CDFB
:101F600000D006C8008007C3003008BE00F008B9E2
:101F700000C009B400B00AAF00B00BAA00D00CA595
:101F800000000EA000500F9B00C010960050129150
:101F90000000148C00C0158700B0178200B0197DB6
:101FA00000D01B7800001E730040206E0090226954
:101FB00000F024640040275F0090295A00E02B5570
:101FC00000102E500020304B0010324600E033410C
:101FD0000090353C001037370070383200A0392DA2
:101FE00000B03A2800A03B2300603C1E00103D19C1
:101FF00000903D1400103E0F00703E0A00C03E05E8
:1020000000003F000048797374657265736973203E
:1020100074656D70657261747572650A00546865E7
:10202000726D616C2072756E617761792070726F6C
:1020300074656374696F6E206279204865617465A8
:10204000725F49443A0A004572726F723A004572F3
:10205000726F72283833293A2042656420746865AB
:10206000726D6973746F72206E6F7420646574652D
:10207000637465640A004572726F72283832293AB7
:1020800020526967687420746865726D6973746F33
:1020900072206E6F742064657465637465640A00F1
:1020A0004572726F72283831293A204C6566742067
:1020B000746865726D6973746F72206E6F7420201E
:1020C00064657465637465640A002053544F50203E
:1020D0005052494E54200A004572726F72283833AC
:1020E000293A2042656420746865726D6973746F63
:1020F00072206E6F742064657465637465640A0091
:102100002053544F50205052494E54200A004572DB
:10211000726F72283832293A2052696768742074C5
:102120006865726D6973746F72206E6F7420646578
:102130007465637465640A002053544F50205052F4
:10214000494E54200A004572726F72283831293A7C
:10215000204C65667420746865726D6973746F7263
:10216000206E6F74202064657465637465640A0072
:102170002053544F50205052494E54200A0045528B
:10218000524F52283839293A204245442069732059
:102190006E6F742068656174696E67002053544FD8
:1021A00050205052494E54200A004552524F522856
:1021B0003839293A20486F74656E64202564206997
:1021C00073206E6F742068656174696E6700656363
:1021D000686F3A000A0020616E7469686F726172FC
:1021E000690A3A200020686F726172690A20002F24
:1021F0003800766F6C746573200020566F6C7465C0
:102200007320636172676F6C20333A200020616E27
:102210007469686F726172690A3A200020686F728F
:102220006172690A20002F3800766F6C7465732024
:102230000020566F6C74657320636172676F6C2049
:10224000323A20000A0020647A333A200020647A6F
:10225000323A2000543100543000543000543000E1
:102260000A0056756974656E73333A202000417018
:10227000726F78333A202000566F6C746573333A6E
:102280002020000A0056756974656E73323A20206A
:10229000004170726F78323A202000566F6C74657E
:1022A00073323A20200056616C6F7220645A333AC0
:1022B00020200056616C6F7220645A323A20200050
:1022C0004E6577206F6666736574207665727369F4
:1022D0006F6E3A20007A335F313A20007A325F31F4
:1022E0003A20005A7363726F6C6C5F313A20007A47
:1022F000335F303A20007A325F303A20005A7363FD
:10230000726F6C6C5F303A20005A76616C75652094
:10231000616674657220686F6D653A00486F6D651F
:1023200020582F59206265666F7265205A0A003B5B
:102330002020204275696C642074696D653A2025FF
:10234000642025732025642025730A003B507269A0
:102350006E742074696D653A2025642025732025EC
:1023600064202573202564202573003B54494D4586
:102370003A256C64003B202020506C6173746963C3
:10238000207765696768743A2025642E25646700A4
:102390003B46696C616D656E7420757365643A20A7
:1023A00025642E25646D2025642E256467003B4638
:1023B000696C616D656E7420757365643A20256C77
:1023C000642E256C646D003B45787472756465728B
:1023D0007320757365643A205425642025642E2586
:1023E00064205425642025642E2564003B20202091
:1023F00065787472756465724469616D657465723F
:102400002C25642E25642C25642E2564002E2E2E6A
:102410002054696D656F757421002A2A2A2047654A
:102420006E69652057726974654F626A65637420CE
:102430002A2A2A202D2D2D3E002E2E2E204E414BB5
:102440002021002A2A2A2047656E69652057726973
:1024500074654F626A656374202A2A2A202D2D2D07
:102460003E002E2E2E2041434B2021002A2A2A20D6
:1024700047656E69652057726974654F626A656366
:1024800074202A2A2A202D2D2D3E002A2A2A204770
:10249000656E6965204261642042797465202A2A4C
:1024A0002A202D2D2D3E203078002056616C756538
:1024B0003A200020496E6465783A20002A2A2A20B2
:1024C00047656E6965205265706F7274204F626A4D
:1024D000656374202A2A2A204F626A6563743A2051
:1024E000002A2A2A2047656E696520436F6E6E6553
:1024F00063746564202F2053796E6321202A2A2A71
:10250000002056616C75653A200020496E6465783C
:102510003A20002A2A2A2047656E69652052657094
:102520006F7274204576656E74202A2A2A204F62C5
:102530006A6563743A2000204C656E6774683A20BF
:10254000002A2A2A2047656E6965205265636569FD
:10255000766564204D6167696320446F75626C65C0
:10256000204279746573202A2A2A20496E6465788E
:102570003A2000204C656E6774683A20002A2A2AA7
:102580002047656E696520526563656976656420DC
:102590004D61676963204279746573202A2A2A2075
:1025A000496E6465783A20002A2A2A2047656E69B8
:1025B00065204E414B205265636F7665727920210C
:1025C0002121202A2A2A002A2A2A2047656E6965A5
:1025D00020446973636F6E6E656374656420667210
:1025E0006F6D20446F4576656E747321202A2A2A08
:1025F000002A2A2A2047656E696520546F6F6B2078
:10260000746F6F206C6F6E6720746F2072652D651C
:102610006E74657220446F4576656E747328292C3C
:10262000207265647563652064656C6179732069E7
:102630006E20636F64652C2073656C662D70726FFD
:1026400074656374696F6E20656E61626C65642E7B
:10265000202A2A2A004572726F72205772697465A7
:1026600020454550524F4D0053657474696E677331
:102670002053746F7265640A00204D696E7574652D
:1026800073203A0020204C617374207072696E745C
:102690002074696D652D3E20486F757273203A0075
:1026A0004C617374207072696E7420647572617409
:1026B000696F6E0A002C20546869726420494420B6
:1026C0006E756D62657220002C205365636F6E64B9
:1026D000204944206E756D6265723A2000202046C4
:1026E00069727374204944206E756D6265723A2078
:1026F00000554920496E666F726D6174696F6E2076
:1027000053657269616C204E756D6265723A0A009C
:10271000206D2C204531207072696E7420646973BD
:1027200074616E63653A2000206B6D2C204530206B
:102730007072696E742064697374616E63653A20A7
:1027400000206B6D2C2059207072696E74206469B2
:102750007374616E63653A2000206B6D2C205831D4
:10276000207072696E742064697374616E63653A77
:10277000200020432C0A205830207072696E74208B
:1027800064697374616E63653A200020432C206D88
:1027900061782074656D7020423A200020432C201F
:1027A0006D61782074656D7020523A20002C206D88
:1027B00061782074656D70204C3A2000682C207080
:1027C00072696E74732066696E69736865643A2015
:1027D000002C207072696E74696E672074696D6573
:1027E0003A200020207072696E74733A20005354AE
:1027F0004154533A0A0020432C20525F5052494E14
:10280000543A200020432C20525F4245443A200095
:1028100020432C20525F52454D4F56453A20002010
:1028200020525F494E534552543A200054656D7012
:10283000202843293A0A0020432C204C5F5052495B
:102840004E543A200020432C204C5F4245443A200D
:102850000020432C204C5F52454D4F56453A2000F6
:1028600020204C5F494E534552543A200054656D28
:1028700070202843293A0A00205628566572736949
:102880006F6E2920002052284265642072696768B3
:102890007420736372657729200020204D35333111
:1028A000204C28426564206C6566742073637265F1
:1028B00077292000426564204F6666736574732033
:1028C000286D6D293A0A002050285A2070726F62D4
:1028D000652900205A20002059200020204D353342
:1028E00030205820004F66667365747320286D6D24
:1028F000293A0A00204400204900202D204D333081
:1029000031205249474854205000204400204900BB
:1029100020204D333031204C454654205000504942
:10292000442073657474696E67733A0A00205A0014
:1029300020590020204D323036205800486F6D65F8
:10294000206F666673657420286D6D293A0A002031
:102950004500205A0020580020420020540020202A
:102960004D323035205300416476616E63656420DA
:102970007661726961626C65733A20533D4D696E90
:1029800020666565647261746520286D6D2F7329FA
:102990002C20543D4D696E2074726176656C206602
:1029A0006565647261746520286D6D2F73292C2014
:1029B000423D6D696E696D756D207365676D656EFD
:1029C000742074696D6520286D73292C20583D6D25
:1029D0006178696D756D205859206A65726B202881
:1029E0006D6D2F73292C20205A3D6D6178696D75AE
:1029F0006D205A206A65726B20286D6D2F73292C0B
:102A00002020453D6D6178696D756D2045206A65B2
:102A1000726B20286D6D2F73290A0020540020202E
:102A20004D323034205300416363656C65726174CC
:102A3000696F6E3A20533D616363656C65726174C2
:102A4000696F6E2C20543D726574726163742061ED
:102A50006363656C65726174696F6E0A002045007E
:102A6000205A0020590020204D3230312058004D8E
:102A70006178696D756D20416363656C6572617421
:102A8000696F6E20286D6D2F7332293A0A00204538
:102A900000205A0020590020204D323033205800A9
:102AA0004D6178696D756D206665656472617465E8
:102AB0007320286D6D2F73293A0A00204500205A93
:102AC0000020590020204D39322058005374657081
:102AD000732070657220756E69743A0A004D31304A
:102AE00037004E6577206C61796572206465746586
:102AF000637465640A003B206C61796572003B4C2D
:102B00004159455200256920686F75727320256907
:102B1000206D696E7574657300446F6E6520707208
:102B2000696E74696E672066696C650A004D33339F
:102B3000005061757365207061726B696E670A0081
:102B4000473639005072696E7465722073746F7005
:102B50007065642064756520746F206572726F7291
:102B6000732E2046697820746865206572726F72D2
:102B700020616E6420757365204D39393920746F7A
:102B800020726573746172742E202854656D7065AF
:102B90007261747572652069732072657365742E35
:102BA00020536574206974206166746572207265B3
:102BB0007374617274696E67290A006F6B0A004E44
:102BC0006F204C696E65204E756D62657220776965
:102BD000746820636865636B73756D2C204C61733A
:102BE00074204C696E653A20004E6F20436865631F
:102BF0006B73756D2077697468206C696E65206EE3
:102C0000756D6265722C204C617374204C696E6521
:102C10003A2000636865636B73756D206D69736D31
:102C2000617463682C204C617374204C696E653A42
:102C300020004C696E65204E756D62657220697367
:102C4000206E6F74204C617374204C696E65204E49
:102C5000756D6265722B312C204C617374204C6948
:102C60006E653A20004D31313000CDAC0344008018
:102C700093430000524300000000000000000000E9
:102C800000007C3C3E5E2B3D3F2F5B5D3B2C2A22AF
:102C90005C006563686F3A004D3234004D3233207A
:102CA0002573006175746F25692E670050494420B3
:102CB0004175746F74756E652066696E69736865B9
:102CC00064210A00504944204175746F74756E6523
:102CD000206661696C6564212074696D656F757427
:102CE0000A0020403A006F6B20543A006F6B20427C
:102CF0003A00504944204175746F74756E652066C2
:102D000061696C6564212054656D706572617475CC
:102D1000726520746F6F20686967680A00204B64D1
:102D20003A2000204B693A2000204B703A200020C6
:102D3000436C617373696320504944200A00205436
:102D4000753A2000204B753A2000206D61783A20BA
:102D500000206D696E3A200020643A2000206269EC
:102D600061733A20003B20472D436F6465206765FF
:102D70006E6572617465642062792053696D706C50
:102D800069667933442852292056657273696F6EDB
:102D900020256400526561647920746F204C6F6156
:102DA000642F556E6C6F6164200A0053746F7265F6
:102DB000642073657474696E6773207265747269D8
:102DC000657665640A0048617264636F64656420B7
:102DD00044656661756C742053657474696E6773BD
:102DE000204C6F616465640A0048617264636F64BB
:102DF00065642043616C696220616E6420504944BF
:102E00002044656661756C742053657474696E67DF
:102E100073204C6F616465640A0047363920414372
:102E2000544956415445440A00008B02AD02112416
:102E30001FBECFEFD1E2DEBFCDBF00E00CBF18E078
:102E4000A0E0B2E0ECE9F5E903E00BBF02C00790B7
:102E50000D92A431B107D9F72DE1A4E1B8E001C08A
:102E60001D92AD3AB207E1F717E1C6E1D7E100E004
:102E700006C021970109802FFE010F94AFC7C5310D
:102E8000D10780E00807A9F70F9484A80D94BDCA64
:102E90000C9400002F923F924F925F926F927F921C
:102EA0008F929F92AF92BF92CF92DF92EF92FF925A
:102EB0000F931F93CF93DF93CDB7DEB7C352D140AB
:102EC0000FB6F894DEBF0FBECDBF2DB73EB7CE5DB7
:102ED000DE4F39832883C252D14011E01093680835
:102EE00080914A0881110CC00E94E3C86093460893
:102EF00070934708809348089093490810934A08B4
:102F000080913E0881110DC00E94E3C860933A0889
:102F100070933B0880933C0890933D0881E0809338
:102F20003E089091FB194091970250919802609150
:102F3000990270919A02911106C08091FC19882320
:102F400011F40C944022453A51056105710509F4CC
:102F50004DC60CF0C3C0473551056105710509F434
:102F6000BAC40CF05EC0413251056105710511F41F
:102F70000C94582034F5413151056105710509F46F
:102F8000FCC774F4413051056105710509F4E8C2CC
:102F9000403151056105710509F4BBC10C94FB5C1E
:102FA000433151056105710509F47DC40CF49BC4DE
:102FB000403251056105710511F40C9467200C94A1
:102FC000FB5C413451056105710509F4DBC4ACF4C7
:102FD000453351056105710511F40C940C214D33F5
:102FE00051056105710509F4F4C3413351056105CB
:102FF000710511F00C94FB5C31C446345105610538
:10300000710509F4C3C4433551056105710509F41F
:10301000C3C2443451056105710509F495C70C9488
:10302000FB5C473951056105710511F40C94F220E0
:103030004CF5463751056105710509F476C474F401
:10304000483551056105710509F4E9C34A35510553
:103050006105710509F416C60C94FB5C4E375105E9
:103060006105710509F48DC1493851056105710586
:1030700009F443C24B3751056105710511F00C94F9
:10308000FB5C00C64C3951056105710511F40C94C7
:1030900088209CF44A3951056105710511F40C949E
:1030A000762014F00C947F20483951056105710594
:1030B00011F40C94E1200C94FB5C433A510561053A
:1030C000710509F480C50CF0B7C54D39510561058E
:1030D000710511F40C94B5200C94FB5C4F3E510526
:1030E0006105710509F472C20CF088C0433D5105B9
:1030F0006105710511F40C94FC21BCF5483A5105A9
:103100006105710509F4ABC504F5463A5105610541
:10311000710509F400C5473A51056105710511F0C3
:103120000C94FB5C8091610890916208A091630807
:10313000B091640891608093610890936208A093B5
:103140006308B09364080C94FB5C4A3A510561052E
:10315000710509F40CC50CF45CC54E3B51056105C5
:10316000710509F46EC30C94FB5C453E5105610585
:10317000710509F40FC414F5433E5105610571054D
:1031800009F41BC40CF06AC4423E51056105710587
:1031900011F00C94FB5C8091610890916208A09101
:1031A0006308B0916408826080936108909362081C
:1031B000A0936308B09364080C94FB5C4D3E5105EA
:1031C0006105710509F40BC10CF0C2C14A3E5105FD
:1031D0006105710511F00C94FB5C40E050E06EE677
:1031E00081E20F94C65C8091A5099091A609926036
:1031F0009093A6098093A5090C94FB5C4B3F510565
:103200006105710509F405C484F5473F5105610561
:10321000710509F436C4A4F4423F510561057105F6
:1032200009F4BAC1463F51056105710509F44EC460
:10323000413F51056105710511F00C94FB5C90C193
:103240008091610890916208A0916308B091640830
:103250002091C5023091C602493F510561057105B3
:1032600009F498C40CF46AC4BBC34E3631E053076A
:103270006105710509F4A8C0B4F5483691E0590715
:103280006105710509F4BFC74A36A1E05A07610517
:10329000710509F499C0453651406105710511F079
:1032A0000C94FB5C40E050E06AE28AE00F94C65C5C
:1032B00040E050E064E581E20F94C65C81E08093D9
:1032C000DA111092DD1166EB78E086E20F94D45D9E
:1032D0008091A5099091A60998609093A609809382
:1032E000A5090C94FB5C4937E1E05E0761057105B7
:1032F00009F43FC64538F1E05F076105710509F43F
:103300006CC1483751406105710511F00C94FB5CAC
:103310009CC580912302813419F541E050E066E0BC
:103320008BE10F94C65C41E050E060E181E20F94D4
:10333000C65C41E050E062E181E20F94C65C41E08E
:1033400050E063E181E20F94C65C41E050E06EE73B
:1033500081E20F94C65C84E4809323020C94FB5CAE
:10336000843411F00C94FB5C8091A5099091A6091E
:1033700080649093A6098093A5091092DA110C94A9
:10338000FB5C40E050E066E08BE10F94C65C40E0FF
:1033900050E060E181E20F94C65C40E050E062E101
:1033A00081E20F94C65C40E050E063E181E20F945B
:1033B000C65C40E050E06EE781E20F94C65C81E4B9
:1033C000809323020C94FB5C8091A5099091A6093F
:1033D00092609093A6098093A5090C94FB5C809160
:1033E0002302823419F583E48093230241E050E004
:1033F00063E08BE10F94C65C41E050E067E581E259
:103400000F94C65C41E050E066E781E20F94C65C31
:1034100041E050E06DEE81E20F94C65C41E050E087
:1034200069E881E20F94C65C0C94FB5C833411F074
:103430000C94FB5C11E010935D0840E050E068E9FB
:1034400081E20F94C65C40E050E067E981E20F94AE
:10345000C65C40E050E06CE981E20F94C65C40E05D
:1034600050E06DE981E20F94C65C41E050E06AE40F
:1034700081E20F94C65C40E050E06CE28AE00F9479
:10348000C65C1093DD118FEF9FEF909387028093BE
:10349000860240E050E06AE981E20F94C65C40E0B9
:1034A00050E06BE981E20F94C65C60916E1D7091F3
:1034B0006F1D8091701D9091711D0F94D7C4AB0149
:1034C00066E289E00F94C65C6091721D7091731D75
:1034D0008091741D9091751D0F94D7C4AB0167E264
:1034E00089E00F94C65C40E050E068E289E00F9408
:1034F000C65C1092DA110C94FB5C80912302833439
:1035000011F00C94FB5C82E48093230240E050E0D5
:1035100063E08BE10F94C65C40E050E067E581E238
:103520000F94C65C40E050E066E781E20F94C65C11
:1035300040E050E06DEE81E20F94C65C40E050E068
:1035400069E881E20F94C65C1092DD110C94FB5C7B
:1035500040E050E064E58AE00F94C65C0C94FB5CAC
:103560001092DA1180E00F9420368091A509909195
:10357000A60982609093A6098093A50981E08093B3
:10358000E11140E050E068E08AE00F94C65C81E41D
:103590008093E2110C94FB5C8091AA09882311F4BA
:1035A0000C94FB5C41E050E08091A7098A3011F453
:1035B00040E050E066E18BE10F94C65C40E050E0F3
:1035C00062E58AE00F94C65C0C94FB5C89E480930E
:1035D0001D020F94A4060C94FB5C80919B1D90919E
:1035E0009C1D9093A9118093A8110F945E41809126
:1035F0009D1D90919E1D9093AB118093AA110F94E5
:103600005E4182E48093230282E580931D0281E083
:103610008093DD111092DA118091A709E1E08A30E0
:1036200009F4E0E0E093DE0BF0E0EE0FFF1FE85559
:10363000FE4E2081318130933908209338088A303A
:1036400029F480915B1190915C1104C080915F110D
:1036500090916011918380830F945E4181E4809307
:10366000E21140E050E068E08AE00F94C65C40E080
:1036700050E064E581E20F94C65C80E090E0A3E452
:10368000B3E48093CB119093CC11A093CD11B09360
:10369000CE118090CA0B9090CB0BA090CC0BB09029
:1036A000CD0B2091C7113091C8114091C911509193
:1036B000CA116091C3117091C4118091C51190918C
:1036C000C611E6EB6E2EE1E17E2E7F926F92FFEC4B
:1036D000CF2EF1E1DF2EE12CF12C03E413E40E9464
:1036E000F0CB0F94C44480E090E0A0E2B1E480937A
:1036F000C7119093C811A093C911B093CA118090BB
:10370000C60B9090C70BA090C80BB090C90BE0906F
:10371000CB11F090CC110091CD111091CE11609190
:10372000C3117091C4118091C5119091C6117F92FF
:103730006F9220E030E040E251E40E94F0CB0F9421
:10374000C4440F900F900F900F908091E2118E342F
:1037500011F40C94012A1092E2110E94746440E06A
:1037600050E060E289E00F94C65C40E050E064E223
:103770008AE00F94C65C0091DE0B10E0F801EE0FBA
:10378000FF1FEE0FFF1FE259F24E608171818281AF
:1037900093810F94D7C470935B0860935A08000F0D
:1037A000111FF801E855FE4E808191810A97909390
:1037B000590880935808109257081092560889E4C7
:1037C0008093E2110E94746481E080935C080C9401
:1037D000FB5C8091230240E050E0813441F469E0D9
:1037E0008AE00F94C65C66EB78E082E007C06AE28C
:1037F0008AE00F94C65C66EB78E086E20F94D45DB5
:103800008091A5099091A60998609093A60980934C
:10381000A5091092DD111092DA110C94FB5C8091D5
:10382000410981110C94FB5C8091FC1981110C946D
:10383000FB5C40E050E069E38AE00F94C65C0C94C6
:10384000FB5C8091410981110C94FB5C40E050E0ED
:1038500061E08AE00F94C65C0C94FB5C80914109A6
:1038600081110C94FB5C10912302113411F00C9423
:10387000FB5C1092DA111092FB1981E08093FC1925
:1038800040E050E068E08AE00F94C65C1093E211DB
:103890008091A5099091A60994609093A6098093C0
:1038A000A5090C94FB5C80912302813439F440E03B
:1038B00050E061E08AE00F94C65CADCF843409F03B
:1038C000AACF8091A5099091A60990619093A6092D
:1038D0008093A509A0CF80912302823441F38334E1
:1038E00009F099CFEECF80912302992369F08134BA
:1038F00059F48091A5099091A60988609093A60932
:103900008093A5090C94FB5C843411F00C94FB5C4F
:103910008091A5099091A60980689093A60980934B
:10392000A5091092DA110C94FB5C8091FC19882394
:1039300011F40C94FB5C80912302823459F4809141
:10394000A5099091A60980619093A6098093A50985
:103950000C94FB5C833411F00C94FB5C40E050E071
:1039600066E18AE00F94C65C41E050E064E581E2E4
:103970000F94C65C82E580931D0281E08093DD1187
:103980000C94FB5C0F945E150C94FB5C0F94E81494
:103990000C94FB5C8091610890916208A09163088F
:1039A000B091640884608093610890936208A0934A
:1039B0006308B09364080C94FB5C8091610890915B
:1039C0006208A0916308B0916408886080936108E0
:1039D00090936208A0936308B09364080C94FB5C16
:1039E0002330310559F4A1608093610890936208F7
:1039F000A0936308B09364080C94FB5C846080938C
:103A0000610890936208A0936308B09364080C94D3
:103A1000FB5C2091C5023091C602809161089091B3
:103A20006208A0916308B09164082330310559F40D
:103A3000A2608093610890936208A0936308B0939A
:103A400064080C94FB5C8860809361089093620822
:103A5000A0936308B09364080C94FB5C80916108A8
:103A600090916208A0916308B0916408816080938E
:103A7000610890936208A0936308B09364080C9463
:103A8000FB5C2091C5023091C60280916108909143
:103A90006208A0916308B09164082330310559F49D
:103AA00090618093610890936208A0936308B0933B
:103AB00064080C94FB5C81608093610890936208B9
:103AC000A0936308B09364080C94FB5C2091C5023A
:103AD0003091C6028091610890916208A0916308BC
:103AE000B09164082330310559F4906280936108E5
:103AF00090936208A0936308B09364080C94FB5CF5
:103B000082608093610890936208A0936308B093E9
:103B100064080C94FB5C8091610890916208A0910C
:103B20006308B09164088062809361089093620892
:103B3000A0936308B09364080C94FB5C23303105B8
:103B400059F490648093610890936208A09363088D
:103B5000B09364080C94FB5C80628093610890933E
:103B60006208A0936308B09364080C94FB5C809196
:103B7000610890916208A0916308B0916408806127
:103B80008093610890936208A0936308B0936408DF
:103B90000C94FB5C2330310559F4906880936108E4
:103BA00090936208A0936308B09364080C94FB5C44
:103BB00080618093610890936208A0936308B0933A
:103BC00064080C94FB5C8091610890916208A0915C
:103BD0006308B091640880648093610890936208E0
:103BE000A0936308B09364080C94FB5C8091610817
:103BF00090916208A0916308B091640880688093F6
:103C0000610890936208A0936308B09364080C94D1
:103C1000FB5C8091610890916208A0916308B0916B
:103C2000640892608093610890936208A09363088F
:103C3000B09364080C94FB5C8091610890916208D9
:103C4000A0916308B0916408946080936108909398
:103C50006208A0936308B09364080C94FB5C8091A5
:103C6000610890916208A0916308B091640898601F
:103C70008093610890936208A0936308B0936408EE
:103C80000C94FB5C4A3551056105710519F41092DD
:103C9000DE0B03C081E08093DE0B8091DE0BE82F0A
:103CA000F0E0EE0FFF1FE855FE4E2081318130938A
:103CB000390820933808811105C080915B119091DB
:103CC0005C1104C080915F11909160119183808399
:103CD0000F945E4181E48093E21140E050E068E09F
:103CE0008AE00F94C65C40E050E064E581E20F9406
:103CF000C65C80E090E0A3E4B3E48093CB119093A2
:103D0000CC11A093CD11B093CE118090CA0B90909E
:103D1000CB0BA090CC0BB090CD0B2091C711309164
:103D2000C8114091C9115091CA116091C31170918D
:103D3000C4118091C5119091C611E6EB6E2EE1E1A0
:103D40007E2E7F926F92FFECCF2EF1E1DF2EE12CE1
:103D5000F12C03E413E40E94F0CB0F94C44480E000
:103D600090E0A0E2B1E48093C7119093C811A093B2
:103D7000C911B093CA118090C60B9090C70BA09048
:103D8000C80BB090C90BE090CB11F090CC11009112
:103D9000CD111091CE116091C3117091C411809119
:103DA000C5119091C6117F926F9220E030E040E201
:103DB00051E40E94F0CB0F94C4440F900F900F90E9
:103DC0000F908091E2118E3411F40C94012A10921C
:103DD000E2110E94746440E050E060E289E00F94D8
:103DE000C65C40E050E064E28AE00F94C65C00915B
:103DF000DE0B10E0F801EE0FFF1FEE0FFF1FE25980
:103E0000F24E60817181828193810F94D7C4709347
:103E10005B0860935A08000F111FF801E855FE4E29
:103E2000808191810A979093590880935808109245
:103E300057081092560889E48093E2110E94746436
:103E400081E080935C080C94FB5C40E050E060E211
:103E500089E00F94C65C40E050E064E28AE00F9491
:103E6000C65C89E48093E2110E9474640091DE0BC9
:103E700001111DC080915D1190915E116091E21061
:103E80007091E310681779072CF4BC01990F880B27
:103E9000990B04C0072E000C880B990B0F94A2BC41
:103EA0000F94D7C47093A9116093A81120C080917A
:103EB0006111909162116091DC107091DD106817B2
:103EC00079072CF4BC01990F880B990B04C0072EBD
:103ED000000C880B990B0F94A2BC10E0000F111F6F
:103EE00008551E4E0F94D7C4D8016D937C930F9440
:103EF0005E410091DE0B10E0F801EE0FFF1FEE0FA8
:103F0000FF1FE259F24E60817181828193810F948B
:103F1000D7C470935B0860935A08000F111FF80113
:103F2000E855FE4E808191810A97909359088093BD
:103F3000580810925708109256080E94746481E045
:103F400080935C080C94FB5C80915A02882311F4E6
:103F50000C94095D8091DE0B811102C08AE101C0E1
:103F600086E30E9452C7892B11F00C94095D0C94D2
:103F7000FB5C0F94CC010C94FB5C80915F0881FF8B
:103F800002C00C94FB5C8091850990918409981380
:103F90000C948A5E40E050E06BE084E10F94C65CD4
:103FA00040E050E065E18AE00F94C65C82E48093D3
:103FB000E21180936212E091DE0B34E0E39FF001A6
:103FC0001124E555FD4F6081718182819381609359
:103FD000C3117093C4118093C5119093C611E090E2
:103FE000CB11F090CC110091CD111091CE112091F8
:103FF000C7113091C8114091C9115091CA11EEED0D
:10400000FBE0FF93EF93812C912CE8E4AE2EE3E4E8
:10401000BE2EFFECCF2EF1E1DF2E0E94F0CBE09020
:10402000CB11F090CC110091CD111091CE112091B7
:10403000C7113091C8114091C9115091CA11E09136
:10404000B61164E0E69FF0011124E555FD4F608153
:104050007181828193810F94565EE091B61184E064
:10406000E89FF0011124E555FD4F80819181A281E7
:10407000B3818093C3119093C411A093C511B093E1
:10408000C611E091DE0BF0E0EE0FFF1FE855FE4E8B
:104090008091380890913908918380830F945E4114
:1040A0001092AA090F94C4440F900F900C94FB5CDB
:1040B00080915F0881FF02C00C94FB5C90918509A0
:1040C0002091840929130C948E5E0C94915E80914A
:1040D0005F0881FF02C00C94FB5C909185092091E0
:1040E000840929130C948E5E0C94955E8091850949
:1040F0009091840998130C94FB5C0C94995E9091B8
:1041000085098091840998130C94FB5C0C94245FBE
:10411000E0918602F0918702EF3F9FEFF90711F4DB
:104120000C94FB5CEE0FFF1FE855FE4E80819181E1
:104130008B33A1E09A0714F00C94FB5C05969183F5
:1041400080830F945E410F945E41E0918602F0916E
:104150008702EE0FFF1FE855FE4E4081518168E255
:1041600089E00F94C65C0C94FB5CE0918602F091B0
:104170008702EF3FBFEFFB0711F40C94FB5CEE0FDF
:10418000FF1FE855FE4E808191811816190614F024
:104190000C94FB5C0597918380830F945E410F9490
:1041A0005E41E0918602F0918702EE0FFF1FE85515
:1041B000FE4E4081518168E289E00F94C65C0C9408
:1041C000FB5C8091860290918702019611F40C9419
:1041D000FB5C909185098091840998130C948E5E04
:1041E0000C94B25F8091860290918702019611F43F
:1041F0000C94FB5C909185098091840998130C9430
:104200008E5E0C94B85F9091850980918409981313
:104210000C94FB5C0C94BE5F80916212823411F0AE
:104220000C94FB5C1092E2118091A5099091A60973
:104230008D7F9093A6098093A50980911D028235F8
:1042400031F489E480931D020F94A406D1C089340F
:1042500009F0CEC081E48093E21140E050E068E0D4
:104260008AE00F94C65C4090D5085090D6086090C4
:10427000D7087090D8084092C7115092C811609228
:10428000C9117092CA1120E030E040E752E4609119
:104290006C0270916D0280916E0290916F020F948A
:1042A0002BC44B015C01E090CB11F090CC1100913C
:1042B000CD111091CE116091C3117091C4118091F4
:1042C000C5119091C61126EB31E13F932F932FEC4E
:1042D000C22E21E1D22EA30192010E94F0CB0F94B5
:1042E000C4440F900F908091E2118E3411F40C941D
:1042F000012A20E030E040E251E46091D908709159
:10430000DA088091DB089091DC080F943DC37B01B3
:104310008C016093CB117093CC118093CD1190934D
:10432000CE118091D00889838090700290907102A4
:10433000A0907202B09073022091C7113091C81101
:104340004091C9115091CA116091C3117091C4116B
:104350008091C5119091C611FE013196FF93EF93A4
:104360000E94F0CB0F94C4440F900F908091E21103
:104370008E3411F40C94012A1092E21182E480939D
:10438000230240E050E063E08BE10F94C65C40E024
:1043900050E067E581E20F94C65C40E050E066E7DC
:1043A00081E20F94C65C40E050E06DEE81E20F9434
:1043B000C65C40E050E069E881E20F94C65C40E0F2
:1043C00050E06AE28AE00F94C65C81E08093DA11E3
:1043D0001092DD1166EB78E086E20F94D45D809157
:1043E000A5099091A60998609093A6098093A509C4
:1043F000109262120C94FB5C8091D7101092E21123
:104400008823E9F01092D7108091A5099091A60910
:1044100098609093A6098093A5098091230240E0BB
:1044200050E0813431F469E08AE00F94C65C0C946A
:10443000FB5C6AE28AE00F94C65C0C94FB5C109211
:1044400069111092DD11E9E9F8E084918F01882368
:1044500051F0082E000C990B0F94F87D0F5F1F4F41
:10446000F8018491F4CF1092670881E00F94151041
:1044700040E050E065E08AE00F94C65C0C94FB5C81
:104480008091B108282F287083FF90C39091B508C0
:10449000923008F48BC3413B51056105710509F465
:1044A000A8C0B4F5443651056105710509F4A1C1F0
:1044B000A4F44E3551056105710509F4F0C24F357C
:1044C00051056105710509F41CC3453351056105AA
:1044D000710511F00C94FB5C27C3403A510561054E
:1044E000710509F4C8C0423A51056105710509F426
:1044F0006AC0433851056105710511F00C94FB5CED
:1045000040E050E06DE68AE00F94C65C0C94FB5CE2
:104510004233F1E05F076105710509F45CC13CF5C8
:10452000453C51056105710509F479C04C3C5105C4
:104530006105710509F489C0423B510561057105AA
:1045400011F00C94FB5C0F94CA1441E050E062EB54
:1045500081E20F94C65C41E050E060EA81E20F9492
:10456000C65C10924402109243020C94FB5C4633EA
:1045700031E053076105710509F417C1ACF4433309
:1045800051406105710511F00C94FB5C8DEF9FEFBC
:10459000909364128093631240E050E06AE08AE0F6
:1045A0000F94C65C0C94FB5C4E37A1E05A07610582
:1045B000710509F4F2C1483851406105710509F4EB
:1045C00024C10C94FB5C0F94CA1441E050E062EAF1
:1045D00081E20F94C65C41E050E060EA81E20F9412
:1045E000C65C8EEF9FEF90934402809343020C943D
:1045F000FB5C0F94CA1441E050E061EB81E20F9440
:10460000C65C41E050E060EA81E20F94C65C8FEF47
:104610009FEF90934402809343020C94FB5C0F94B1
:10462000CA1441E050E065EC81E20F94C65C41E0C1
:1046300050E060EA81E20F94C65C81E090E09093E4
:104640004402809343020C94FB5C0F94CA1441E033
:1046500050E06CEC81E20F94C65C41E050E060EA0F
:1046600081E20F94C65C82E090E0909344028093D4
:1046700043020C94FB5C00914302109144029801A8
:104680002E5F3F4F2530310510F00C94FB5C9230CB
:10469000D9F583E08093B50840E050E061E18AE01D
:1046A0000F94C65C80E58093E2118091B208800F80
:1046B0008093B20800E010E020E030E04CE553ECDD
:1046C00060E070E088E393EC0F94A19F0F94CA140C
:1046D00080E697E0909344028093430240E050E0EC
:1046E00060EA81E20F94C65C42E050E06CE08BE14E
:1046F0000F94C65C40E050E069E18AE00F94C65C2C
:104700001092E2110C94FB5C9330D9F584E0809315
:10471000B50840E050E061E18AE00F94C65C80E5B6
:104720008093E2118091B308800F8093B30800E07A
:1047300010E020E030E04CE553EC60E070E080E415
:1047400093E40F94A19F0F94CA1480E697E090938E
:1047500044028093430240E050E060EA81E20F941B
:10476000C65C42E050E06CE08BE10F94C65C40E038
:1047700050E069E18AE00F94C65C1092E2110C945B
:10478000FB5C943011F00C94FB5C8091B408800FBA
:104790008093B40840E050E06EE28AE00F94C65C7B
:1047A0008FE48093E2110C94FB5C0F94CA1440E0F8
:1047B00050E060EA81E20F94C65C40E050E069E1BD
:1047C0008AE00F94C65C80E697E090934402809361
:1047D00043020C94FB5C83E090E09093641280931E
:1047E000631240E050E06AE08AE00F94C65C0C94EB
:1047F000FB5C109264121092631240E050E06AE099
:104800008AE00F94C65C0C94FB5C40E050E068E0EA
:104810008AE00F94C65C81E48093E21141E061E09C
:1048200081E00E94AADD1092E2110F94C4440F941B
:104830003C03109163128091B5088230B1F540E0DD
:1048400050E061E18AE00F94C65C80E58093E2115C
:104850000091B208010F0093B208002E000C110B5A
:1048600020E030E0A901CA01B9010F94A19F0F9483
:10487000CA1480E697E0909344028093430240E09C
:1048800050E060EA81E20F94C65C42E050E06CE0E8
:104890008BE10F94C65C40E050E069E18AE00F9440
:1048A000C65C1092E2110C94FB5C8330C9F540E0C9
:1048B00050E061E18AE00F94C65C80E58093E211EC
:1048C0000091B308010F0093B308002E000C110BE8
:1048D00020E030E04CE553EC60E070E088E393ECDE
:1048E0000F94A19F0F94CA1480E697E0909344021E
:1048F0008093430240E050E060EA81E20F94C65C9E
:1049000042E050E06CE08BE10F94C65C40E050E088
:1049100069E18AE00F94C65C1092E2110C94FB5C92
:10492000843011F00C94FB5C40E050E061E18AE0DF
:104930000F94C65C80E58093E2110091B408010FEA
:104940000093B408002E000C110B20E030E04CE581
:1049500053EC60E070E080E493E40F94A19F0F9427
:10496000CA1480E697E0909344028093430240E0AB
:1049700050E060EA81E20F94C65C42E050E06CE0F7
:104980008BE10F94C65C40E050E069E18AE00F944F
:10499000C65C1092E2110C94FB5C1092E2118091C3
:1049A000B2084091B308042F081B4091B408142F9B
:1049B000181B602F002E000C770B880B990B0F949F
:1049C000A2BC2DEC3CEC4CEC5DEB0F94AAB76093D1
:1049D0003109709332098093330990933409612F20
:1049E000012E000C770B880B990B0F94A2BC2DECB9
:1049F0003CEC4CEC5DEB0F94AAB760932D097093DF
:104A00002E0980932F09909330090023A1F040E0F4
:104A100050E06FE18AE00F94C65C07FF07C0E02F0B
:104A2000FF27E1950CF4F09508E00E0F402F000FE2
:104A3000550B64E015C01123B9F040E050E060E28E
:104A40008AE00F94C65C17FF07C0212F33272195FA
:104A50000CF4309518E0120F412F110F550B65E043
:104A60008BE10F94C65C11C014E41093621240E015
:104A700050E06BE084E10F94C65C40E050E065E1FB
:104A80008AE00F94C65C1093E2118BEE90E0909355
:104A90002C0980932B090F94EA680C94FB5C4091DD
:104AA000B4088091B208142F181BC1F040E050E008
:104AB00060E28AE00F94C65C17FF07C0812F992738
:104AC00081950CF4909518E0180F412F110F550B9C
:104AD00065E08BE10F94C65C0C94FB5C14E41093CE
:104AE000621240E050E06BE084E10F94C65C40E06D
:104AF00050E065E18AE00F94C65C1093E2110C94DB
:104B0000FB5C14E41093621240E050E06BE084E13F
:104B10000F94C65C40E050E065E18AE00F94C65C0B
:104B20001093E2110C94FB5C90916212943411F09A
:104B30000C94FB5C1092B508877F8093B1081092AB
:104B4000E2111092A3111092A2110F941A41109227
:104B5000A9111092A8110F945E411092AB111092FE
:104B6000AA110F945E41109269111092DD11EEE8C6
:104B7000F8E084918F01882351F0082E000C990BE6
:104B80000F94F87D0F5F1F4FF8018491F4CF1092BE
:104B9000670880E00F94151040E050E065E08AE07F
:104BA0000F94C65C109262120C94FB5C4E38F1E0DC
:104BB0005F0710F00C94FB5CFA018827EE58FF4F5A
:104BC0008F4F0D94AFC78091210290912202826095
:104BD00090932202809321020C94FB5C809121022D
:104BE00090912202846090932202809321020C947F
:104BF000FB5C8091210290912202886090932202B6
:104C0000809321020C94FB5C8091210290912202FE
:104C1000806190932202809321020C94FB5C80912E
:104C200021029091220280629093220280932102BD
:104C30000C94FB5C0F947637009781F480912102ED
:104C4000909122029460909322028093210280919D
:104C500093118150809393110C94FB5C019711F098
:104C60000C94FB5C809121029091220294609093BD
:104C700022028093210240E050E067E381E20F943A
:104C8000C65C40E050E061E08BE10F94C65C80912F
:104C900093118150809393110C94FB5C10926911D5
:104CA0001092DD11E3E8F8E084918F01882351F040
:104CB000082E000C990B0F94F87D0F5F1F4FF80121
:104CC0008491F4CF1092670881E00F94151040E0B2
:104CD00050E065E08AE00F94C65C0C94FB5C809128
:104CE000FD19882311F40C94FB5C41E061E08EEF28
:104CF00099E10F94F8398FEF9FEF9093EC1980931F
:104D0000EB19412C512C32017301620100E010E0DB
:104D10008AE9A82E89E1B82E9E012F5F3F4F190125
:104D200088248394912C40919C1C50919D1C6091EF
:104D30009E1C70919F1C8091F71B9091F81BA09175
:104D4000F91BB091FA1B84179507A607B70708F05F
:104D50006DC0D501E2E31D92EA95E9F70F94DC5F9F
:104D60000196D9F41092E6191092E5191092E819FB
:104D70001092E71981E090E09093EA198093E91985
:104D80001092F6191092F5191092F8191092F7195D
:104D900080E00F9420360C94DB5F0115110521F59E
:104DA0002FEF3FEF3A8329833F922F9245E65DE252
:104DB0005F934F93BF92AF920F947BBC89819A818E
:104DC0000F900F900F900F900F900F90019639F069
:104DD0009092EC198092EB1907E010E021C010923C
:104DE000EC191092EB191CC080E00F94FFB46B011A
:104DF0007C0181E00F94FFB42B013C0120E030E006
:104E0000A901C701B6010F9415C618167CF020E061
:104E100030E0A901C301B2010F9415C6181634F091
:104E20000F5F1F4F0E3111050CF47DCF80E00F9402
:104E3000203620E030E0A901C701B6010F949CBCE8
:104E400018165CF020E030E0A901C301B2010F9414
:104E50009CBC181614F00C94DB5F80904502909077
:104E60004602A0904702B0904802A5019401C701F4
:104E7000B6010F949CBC811114C020E030E0A90160
:104E8000C701B6010F9415C618165CF420E030E097
:104E9000A901C301B2010F949CBC181614F00C9424
:104EA000DB5F2091490230914A0240914B025091C0
:104EB0004C02C65EDE4F288339834A835B83CA5126
:104EC000D140C301B2010F949CBC81111EC020E0EF
:104ED00030E0A901C301B2010F9415C618165CF4A5
:104EE00020E030E0A901C701B6010F949CBC181660
:104EF00014F00C94DB5FA5019401C701B6010F9477
:104F00009CBC882311F40C94DB5F20E030E0A90105
:104F1000C701B6010F949CBC20E030E040E251E4B0
:104F200018161CF0C501B40102C0C701B6010F94E8
:104F3000AAB70F94D7C46093080220E030E0A9011B
:104F4000C301B2010F949CBC20E030E040E251E488
:104F500018164CF0C65EDE4F688179818A819B818C
:104F6000CA51D14002C0C301B2010F94AAB70F9435
:104F7000D7C46093090240E050E06FE58AE00F94E7
:104F8000C65C609145027091460280914702909103
:104F900048020F94D7C4AB016DE489E00F94C65C5E
:104FA00020E030E040E251E4609145027091460219
:104FB00080914702909148020F94AAB70F94D7C4EA
:104FC0000AE010E0CB01B8010F9480C7AC016EE499
:104FD00089E00F94C65C6091490270914A02809109
:104FE0004B0290914C020F94D7C4AB016FE489E05F
:104FF0000F94C65C20E030E040E251E46091490249
:1050000070914A0280914B0290914C020F94AAB782
:105010000F94D7C4CB01B8010F9480C7AC0160E5F1
:1050200089E00F94C65C809108021AE0612F0F940A
:105030005FC7482F880F550B61E589E00F94C65C68
:1050400080910802612F0F945FC7492F990F550B6C
:1050500062E589E00F94C65C80910902612F0F948C
:105060005FC7482F880F550B63E589E00F94C65C36
:1050700080910902612F0F945FC7492F990F550B3B
:1050800064E589E00F94C65CBCC18091FD1988235A
:1050900011F40C94FB5C80914D1A81110C94FB5C13
:1050A000CDB6DEB680916508909166080F9472398E
:1050B000EEEFF9E1DF010D900020E9F78DB79EB723
:1050C0008A1B9B0B9C012650364E0FB6F8943EBFB0
:1050D0000FBE2DBF0DB71EB70F5F1F4FFF93EF938E
:1050E00083E298E09F938F931F930F930F944DBC8F
:1050F000780134E0E30EF11C0F900F900F900F90A9
:105100000F900F90D7018C91882349F0082E000C46
:10511000990B0F942DCAF70181937F01F3CFC8013A
:105120000F9487108FE198E00F9418100FB6F89441
:10513000DEBE0FBECDBE0C94FB5C81E08093691196
:10514000809121029091220292609093220280939A
:1051500021020C94FB5C80912102909122029160CB
:1051600090932202809321020C94FB5C8091210297
:1051700090912202806890932202809321020C94E5
:10518000FB5C40E050E062E18AE00F94C65C0C9466
:10519000FB5C40E050E06CE18AE00F94C65C80E08C
:1051A0000F94151010927D1D10927C1D10927B1D86
:1051B00081E0809367080C94FB5C10926911109257
:1051C000DD11E4E1F8E084918F01882351F0082E8D
:1051D000000C990B0F94F87D0F5F1F4FF80184911D
:1051E000F4CF109267080E94746481E00F94151048
:1051F00040E050E065E08AE00F94C65C0C94FB5CF4
:105200008091A8119091A911892B29F01092A911D0
:105210001092A81108C080915D0990915E09909349
:10522000A9118093A8110F945E4110927D1D0C94DA
:10523000FB5C8091AA119091AB11892B29F01092FF
:10524000AB111092AA1108C080915A0990915B0984
:105250009093AB118093AA110F945E4110927C1D24
:105260000C94FB5C8091A2119091A311892B29F0E1
:105270001092A3111092A2111CC08091AF089091BE
:10528000B0086091AD087091AE08681779072CF4EA
:10529000BC01990F880B990B04C0072E000C880BDA
:1052A000990B0F94A2BC0F94D7C47093A311609371
:1052B000A2110F941A4110927B1D0C94FB5C80E1AB
:1052C00098E00F9418100C94FB5C40E050E06EE105
:1052D0008AE00F94C65C0C94FB5C40E050E065E013
:1052E0008AE00F94C65C109269111092DD11E5E01E
:1052F000F8E084918F01882351F0082E000C990B5F
:105300000F94F87D0F5F1F4FF8018491F4CF109236
:10531000670888E793E09093C4028093C3020F94D8
:10532000EA680C94FB5C40E050E06AE18AE00F948C
:10533000C65C0F947F348091FD19882311F40C947E
:10534000FB5C8091921180939311BAE6EB2EB1E150
:10535000FB2E1EE7C12E11E1D12E00E010E080915E
:10536000921190E008171907FCF46EEF79E185E7D8
:105370009AE10F94C5755701D7018D919D917D01DB
:105380000F947239F50180819181D6018D939D939F
:105390006D0180914D1A882321F08EEF99E10F94D1
:1053A000073E0F5F1F4FDBCF87E090E00F94790B34
:1053B0000C94FB5C8091C3029091C40280369740AC
:1053C00041F488E793E09093C4028093C3020F9462
:1053D000EA6840E050E068E08AE00F94C65C81E44F
:1053E0008093E21180914B0B8823D1F040E061E083
:1053F00081E00E94AADD0F94C4448091E2118E34B2
:1054000089F48FEF9FEFDC018093970290939802CD
:10541000A0939902B0939A02109268080C944F647A
:1054200041E0E5CF81E00F9415101092E21182E087
:1054300098E00F9418100F94C4448091E2118E34B8
:1054400001F340E050E06BE08AE00F94C65C0C94FE
:10545000FB5C40E050E064E08AE00F94C65C0C9492
:10546000FB5C40E050E064E28AE00F94C65C80910F
:105470007A1D826080937A1D89E48093E21140E076
:1054800050E060E289E00F94C65C60915D09709124
:105490005E09072E000C880B990B0F94A2BC40E00C
:1054A00050E00F9468850F94EA686BE974E081E737
:1054B00097E10F94FD7D6EE974E081E797E10F9429
:1054C000FD7D6091150370911603809117039091F3
:1054D000180342E050E00F94C83762EA74E081E7B5
:1054E00097E10F94FD7D2DEB37E346E05EE360919D
:1054F0000D0370910E0380910F03909110030F9490
:105500002BC442E050E00F94C83766EA74E081E7AC
:1055100097E10F94FD7D2DEB37E346E05EE360916C
:1055200005037091060380910703909108030F947F
:10553000AAB742E050E00F94C83760915A097091C1
:105540005B09072E000C880B990B0F94A2BC41E05D
:1055500050E00F9468850F94EA686BE974E081E786
:1055600097E10F94FD7D6EE974E081E797E10F9478
:10557000FD7D6091190370911A0380911B03909136
:105580001C0342E050E00F94C83762EA74E081E700
:1055900097E10F94FD7D2DEB37E346E05EE36091EC
:1055A00011037091120380911303909114030F94CF
:1055B0002BC442E050E00F94C83766EA74E081E7FC
:1055C00097E10F94FD7D2DEB37E346E05EE36091BC
:1055D000090370910A0380910B0390910C030F94BF
:1055E000AAB742E050E00F94C8371092E2110E942F
:1055F000746440E050E06BE084E10F94C65C40E0EE
:1056000050E065E18AE00F94C65C81E00F941510CC
:1056100084E4809362128093E2110C94FB5C40E07E
:1056200050E068E28AE00F94C65C0C94FB5C40E0BA
:1056300050E062E18AE00F94C65C0C94FB5C10922F
:1056400069111092DD11E7EFF7E084918F01882353
:1056500051F0082E000C990B0F94F87D0F5F1F4F2F
:10566000F8018491F4CF109267080E94746440E0BE
:1056700050E065E08AE00F94C65C0C94FB5C40E06F
:1056800050E062E18AE00F94C65C0C94FB5C82E51A
:1056900080931D0280917A1D816080937A1D40E085
:1056A00050E06BE581E20F94C65C40E050E06CE5B1
:1056B00081E20F94C65C40E050E060E08BE10F9423
:1056C000C65C40E050E06AE781E20F94C65C40E0CF
:1056D00050E069E781E20F94C65C40E050E06DE184
:1056E0008AE00F94C65C8FEF8093DE0B0C94FB5C1A
:1056F00040E050E06CE68AE00F94C65C0C94FB5CE2
:1057000040E050E062E18AE00F94C65C40E050E087
:105710006BE581E20F94C65C40E050E06CE581E20D
:105720000F94C65C40E050E060E08BE10F94C65CF3
:1057300040E050E06AE781E20F94C65C40E050E050
:1057400069E781E20F94C65C80917A1D8E7F809319
:105750007A1D0C94FB5C109269111092DD11ECEE35
:10576000F7E084918F01882351F0082E000C990BEB
:105770000F94F87D0F5F1F4FF8018491F4CF1092C2
:10578000670840E050E065E08AE00F94C65C40E0C6
:1057900050E06BE581E20F94C65C40E050E06CE5C0
:1057A00081E20F94C65C40E050E060E08BE10F9432
:1057B000C65C40E050E06AE781E20F94C65C40E0DE
:1057C00050E069E781E20F94C65C80917A1D8E7F7C
:1057D00080937A1D0C94FB5C41E050E06BE581E224
:1057E0000F94C65C40E050E06CE581E20F94C65C2B
:1057F00041E050E060E08BE10F94C65C41E050E096
:105800006AE781E20F94C65C41E050E069E781E21B
:105810000F94C65C1092DE0B0C94FB5C40E050E0F1
:105820006BE581E20F94C65C41E050E06CE581E2FB
:105830000F94C65C41E050E060E08BE10F94C65CE1
:1058400041E050E06AE781E20F94C65C41E050E03D
:1058500069E781E20F94C65C81E08093DE0B0C94D3
:10586000FB5C8091C3029091C4028036974041F462
:1058700088E793E09093C4028093C3020F94EA6890
:105880008091DE0B8F3F11F40C94FB5C0F944FB3AF
:105890000C94FB5C8091C3029091C40280369740C7
:1058A00041F488E793E09093C4028093C3020F947D
:1058B000EA68E091DE0BEF3F11F40C94FB5C81E0B1
:1058C0008093E011F0E0EE0FFF1FE855FE4E84E0FC
:1058D00091E0918380830F945E4181E48093E21193
:1058E00040E050E068E08AE00F94C65C80914B0B8A
:1058F000882311F040E001C041E061E081E00E94B6
:10590000AADD0F94C4448091E2118E3409F479CD5C
:1059100080E090E0A3E4B3E48093CB119093CC11AA
:10592000A093CD11B093CE118090CA0B9090CB0B69
:10593000A090CC0BB090CD0B2091C7113091C81125
:105940004091C9115091CA116091C3117091C41155
:105950008091C5119091C611A6EB6A2EA1E17A2E15
:105960007F926F92BFECCB2EB1E1DB2EE12CF12CBC
:1059700003E413E40E94F0CB0F94C4440F900F9003
:105980008091E2118E3409F43CCD80E090E0A0E2F9
:10599000B1E48093C7119093C811A093C911B0933B
:1059A000CA118090C60B9090C70BA090C80BB09006
:1059B000C90BE090CB11F090CC110091CD1110915A
:1059C000CE116091C3117091C4118091C511909155
:1059D000C6117F926F9220E030E040E251E40E94D5
:1059E000F0CB0F94C4440F900F908091E2118E344D
:1059F00009F407CD8091DE0B811111C080E090E0A9
:105A00000F948C2480E090E0ADE9B2E48093C31160
:105A10009093C411A093C511B093C61120C081E02A
:105A200090E00F948C2420E030E048EC51E4609149
:105A3000AF027091B0028091B1029091B2020F94C6
:105A40003CC320E030E046E552E40F943CC3609351
:105A5000C3117093C4118093C5119093C611E09047
:105A6000CB11F090CC110091CD111091CE1120915D
:105A7000C7113091C8114091C9115091CA1160915C
:105A8000C3117091C4118091C5119091C611EEEDB2
:105A9000FBE0FF93EF93812C912CE8E4AE2EE3E43E
:105AA000BE2EFFECCF2EF1E1DF2E0E94F0CB0F9443
:105AB000C4440F900F908091E2118E3409F4A1CC70
:105AC0001092E2110E94746440E050E065E28AE0C6
:105AD0000F94C65C0C94FB5C80917A1D877C84607B
