:100000000C9448170C9479170C9479170C94791761
:100010000C9479170C9479170C9479170C94791720
:100020000C9479170C9479170C9479170C94791710
:100030000C9479170C9479170C9479170D948E16EB
:100040000C9479170C9479170C9479170C947917F0
:100050000C9479170C9479170D942A3B0C94BC9F3F
:100060000C9479170C94EA9D0C94C19D0C9479170B
:100070000C9479170C9479170C9479170C947917C0
:100080000D9433050C9479170C9479170C94791707
:100090000C9479170C9479170C9479170C947917A0
:1000A0000C9479170C9479170C9479170C94791790
:1000B0000C9479170C9479170C9479170C94791780
:1000C0000C9479170C9479170C9479170C948C9DD7
:1000D0000C94639D0C9479170C9479170C947917F0
:1000E0000C947917905B165EFE2FC22D3559E028CF
:1000F000F15CF628165E165E165E3529D228165E6D
:100100002E262326165EC63A165E165E165EFC5C2A
:100110004A41604176418C412442A241195D3C41F3
:100120000244975BE43AD53AB841CC41165EEB28DD
:10013000A426D2289E2DCB3CB92DAE5CC04FB02D4D
:10014000A72DCF5C2C5B165EF02FA75C165E723D70
:10015000FE284F263926165E165E0F2A003B165ED5
:100160007C5C505C2949F5317A28394D1338F33AD3
:100170006D32165EED5BA65BBC2FA630A6308230DA
:10018000E532E933AD2B4E29672942306430182619
:100190004426165E165ED2283630212C432C942934
:1001A000713C523C165E0058AB58195B165E195DE7
:1001B000195D795A4D5A215AF55971599D59C959A4
:1001C000625B7E5886441044FC440D476646F04509
:1001D000165E165E3559662C7F2C36302358105D1E
:1001E000165E165E6D5CE241194C0548165E83266C
:1001F0002F56F8410E42165E6842165EA83BA03BA1
:10020000165E165E4C36165E165E165E7336C53684
:10021000B0363B2F252FB03BCB2D482ECC2EF92EC0
:100220007B544C2F89489B361D48165E165E165E21
:10023000165E165E165E165E165E165E9A29A22978
:10024000C829165E165E334847482949194C254C83
:10025000294D165E31509450C54F18503F4E165ED2
:10026000165E5C4E165EB052C039BE3AF4525D481E
:10027000165E8251CC51185264527A517348165E00
:1002800038533A54AE55D156165E6455DC46DC46BA
:10029000BF55BB34442BAD4F484E674E384F404F8F
:1002A000D228B54F165E165E165E165E165E165E98
:1002B000903A165E165E2659595B165E165E165EFD
:1002C000165E165E165E165E165E9757EA57165E47
:1002D000165E165E165E165E165E165E165E165E7E
:1002E000165E165E165E165E165E165E165E165E6E
:1002F000165E165E165E165E165E165E165E165E5E
:10030000165E165E165E165E165E165E165E165E4D
:10031000165E165E165E165E165E165E165E165E3D
:10032000165E165E165E165E165E165E165E165E2D
:10033000165E165E165E165E165E165EFE40C040C7
:10034000C4438643165EEB46165E165EF33A742B84
:1003500076433C42F33A3C42165E524252424C2BA8
:100360008A5C835C995CA05CF958FE580359085973
:10037000665C575C125917591C5921590D59F4588C
:10038000CA4BE94BC22D5E2A542B165E845B665421
:100390001229E02B165E165E77583851165E165EEF
:1003A000165ECA56165E2358165E165E165E5C30E2
:1003B000B52B7354AB2F8D35165E0C51165EC3569C
:1003C000165E165E165E165E165EE32FA44BB74BE6
:1003D000845B625B51372838B450203C2C38662A45
:1003E000CB3C5937174FB839F038D1552256165EE5
:1003F000003BB4507949195DB83B7C2B0051195D25
:10040000039D069DF59CF99CFF9C3D9D0A9D0E9DBC
:10041000149D189D1C9D229D269D2A9D3D9D309DCD
:10042000349D389DD89EDD9EE29EEC9EF69E6F9F89
:10043000009F089F109F1A9F249F2E9F3D9F479FBC
:100440006F9F519F5B9F659FAF0291029502730260
:1004500097028B02AB0277029B028502A3028F02F6
:1004600093028702A9027D02A902A1027F027B02F8
:10047000AD02990281028902830267026F026D0256
:100480006B02084AD73B3BCE016E84BCBFFDC12F37
:100490003D6C74319ABD56833DDA3D00C77F11BE75
:1004A000D9E4BB4C3E916BAAAABE000000803F0578
:1004B000A84CCDB2D44EB93836A9020C50B99186A9
:1004C00088083CA6AAAA2ABE000000803F000D941E
:1004D000706A0D9427120D943E6C0D94EF6A0D9482
:1004E000506A0D94A55D0D94EA3B0D9404CC0D94D7
:1004F0002D3C0D9494890D94326A0D94B26A0D943A
:10050000256B0D94026C0D94796C0D94313C0D9417
:10051000736B0D94206C0D94113C0D9463B90D9484
:10052000146A0D94C13B0D948E6A0D94DD3B0D94BD
:10053000043C0D94E46B0D942F3C0D947AB40D940F
:10054000A0120D940D6B0D94393C0D94A65D0D9485
:100550006A890D944E6B0D942B3C0D94A86C0D94F0
:10056000B43B4E414E494E495459494E46CDCCCCF0
:100570003D0AD7233C17B7D13877CC2B329595E677
:10058000241FB14F0A000020410000C84200401C57
:100590004620BCBE4CCA1B0E5AAEC59D746364692E
:1005A0006E6F70737578585B003B4C415945523AF9
:1005B0002564003B202020757365526166742C25EC
:1005C00064004D363035205325640043616C6375FB
:1005D0006C75733A20200043616C63756C75733AD7
:1005E00020200043616C63756C75733A20200053C2
:1005F000757266696E6720300A00417420426F741C
:10060000746F6D20537469636B65720025303364B9
:100610002E25303364253033642E25303464004178
:100620007420426F74746F6D20537469636B6572CC
:1006300000253033642E25303364253033642E2575
:100640003034640025737C4D253032642E253032E1
:10065000640053757266696E6720300A004732384D
:1006600020583020593000543000543100543000AC
:1006700054300053757266696E6720300A00473443
:1006800033004734310047343000473334004734B7
:1006900033004734330047343100473430004D389D
:1006A00034004D3834004D3834005A32204F6666DD
:1006B0007365743A20004F4B207365636F6E64203E
:1006C0004578747275646572210A005A20706F73E0
:1006D0006974696F6E3A20005A20706F736974698B
:1006E0006F6E3A20004D3834005A312050726F62DC
:1006F00065206F66667365743A20004F4B2066690B
:1007000072737420457874727564657221200A00D2
:100710005A20706F736974696F6E3A20005A2070A6
:100720006F736974696F6E3A200043616C63756C16
:1007300075733A20200043616C63756C75733A20C1
:10074000200043616C63756C75733A20200043612F
:100750006C63756C75733A202000363020646567D1
:1007600072656573200A0054300054300054300024
:1007700043616C6962726174696F6E205375636363
:1007800065737366756C0A005430004A756D70208D
:100790006F7665722073637265773120616E6420B5
:1007A000736372657732200A004A756D70206F7628
:1007B000657220736372657731200A004733340015
:1007C0004733340047333400543000473334005348
:1007D000757266696E6720300A0053757266696EBD
:1007E0006720300A0053757266696E6720300A0010
:1007F00053757266696E6720300A005375726669B8
:100800006E6720300A0054300053757266696E6757
:1008100020300A004D33340053757266696E6720CC
:10082000300A004D3234004D3233202573004D32F2
:1008300034004D32332025730077696C6C2062657B
:1008400020646973746F7274656420627920256412
:100850002E253164253164206D6D2E00546865208D
:100860006669727374206C61796572207072696E4A
:100870007465642077697468207468652025732026
:10088000686F74656E640053757266696E672030B8
:100890000A0053757266696E6720300A00537572DC
:1008A00066696E6720300A00526561647920746F52
:1008B0002053746172740A002564206B6D2E0067EA
:1008C000636F646520666F756E640A0020746F2024
:1008D000537461727420446973706C61792066721C
:1008E0006F6D20526573657400546F6F6B200064E8
:1008F0006973706C6179206F6E6C696E6521002E72
:10090000002053544F50205052494E54200A004763
:100910003238205830205930004D333500473730B9
:1009200000524553554D450A0050415553450A0064
:100930004D393930005374617274696E67205A20E2
:1009400043616C6962726174696F6E2057697A6184
:1009500072640A000A00205A3A200020593A200006
:1009600020583A200042656400456E642066696C38
:1009700065206C6973740A00426567696E20666958
:100980006C65206C6973740A002F005344207072E8
:10099000696E74696E67206279746520004E6F74A9
:1009A000205344207072696E74696E670A0025696D
:1009B000206D696E2C20256920736563006F6B00C4
:1009C0004649524D574152455F4E414D453A4D6162
:1009D000726C696E2042434E3344205369676D61E7
:1009E000783B204649524D574152455F5645525338
:1009F000494F4E3A30322D322E302E3752433B2063
:100A00004649524D574152455F55524C3A687474AD
:100A100070733A2F2F6769746875622E636F6D2F3C
:100A200042434E33442F42434E33445369676D6112
:100A3000782D4669726D776172653B2050524F5434
:100A40004F434F4C5F56455253494F4E3A312E302B
:100A50003B204D414348494E455F545950453A4229
:100A6000434E3344205369676D61783B20455854A9
:100A700052554445525F434F554E543A323B2055F0
:100A80005549443A0053544154495354494353201F
:100A900052455345540A00504F534954494F4E2034
:100AA000484F4D453A2000220A00556E6B6E6F7715
:100AB0006E20636F6D6D616E643A2022000000212C
:100AC00000240027002A002D00300033000101001F
:100AD00000040107010A0100002200250028002B64
:100AE000002E003100340002010000050108010B56
:100AF00001000020002300260029002C002F0032D6
:100B000000000100000301060109010505050507B4
:100B10000508080808020202020A0A080804040478
:100B200004010101010101010103030303030303A4
:100B300003040707070C0C0C0C0C0C0C0C02020233
:100B40000206060606060606060B0B0B0B0B0B0B26
:100B50000B010210202008081020401020408002C5
:100B600001020108040201010204081020408080F3
:100B70004020100804020180040201804020100877
:100B8000040201080402010102040810204080014F
:100B90000204081020408000000A0B02090C0D0E10
:100BA000080703040100000000000000000000002E
:100BB0000000000000000000000000000000000035
:100BC00000000012111000000000000000000000F2
:100BD00000000000000000000000000000646973D5
:100BE000706C6179206F66666C696E65004D61722C
:100BF00020203420323031392031383A30343A3400
:100C0000390A0042434E3344205369676D61780AC4
:100C10000073746172740A006563686F3A00303261
:100C20002D322E302E3752430A004D3234004D32D1
:100C300033202573006175746F25692E6700657216
:100C4000726F722077726974696E6720746F2066A4
:100C5000696C650A00205A3A0020593A0020583A37
:100C600000656E6473746F7073206869743A200055
:100C70006563686F3A00446F6E6520736176696ED4
:100C8000672066696C652E0A006F6B0A004D323969
:100C90000045787472756465722048656174656496
:100CA0000A0020573A00204500205A0020590048E9
:100CB0003D5800205A3A0020593A0020436F756E83
:100CC0007420583A200020453A00205A3A00205912
:100CD0003A00583A007A5F6D696E3A2000795F6D8C
:100CE00061783A2000785F6D61783A2000785F6D16
:100CF000696E3A2000486F74656E64206F66667393
:100D00006574733A00504944204175746F74756E70
:100D1000652066696E69736865642120507574206A
:100D2000746865206C617374204B702C204B6920B3
:100D3000616E64204B6420636F6E7374616E7473B4
:100D40002066726F6D2061626F766520696E746FC8
:100D500020436F6E66696775726174696F6E2E6885
:100D60000A00504944204175746F74756E652066A1
:100D700061696C6564212074696D656F75740A0022
:100D800020403A006F6B20543A006F6B20423A00CB
:100D9000504944204175746F74756E6520666169B1
:100DA0006C6564212054656D70657261747572653F
:100DB00020746F6F20686967680A00204B643A20CE
:100DC00000204B693A2000204B703A200020436CF1
:100DD000617373696320504944200A002054753AB6
:100DE0002000204B753A2000206D61783A200020C9
:100DF0006D696E3A200020643A20002062696173B8
:100E00003A20002E0A0044656C6574696F6E206696
:100E100061696C65642C2046696C653A20004669FE
:100E20006C652064656C657465643A002E0A006F19
:100E300070656E206661696C65642C2046696C651E
:100E40003A2000473238205830205930000A0A0032
:100E50005374616E6461726420446576696174697B
:100E60006F6E3A20000A004D65616E3A20000A005C
:100E70002020207A3A20000A00793A2000783A208F
:100E8000003F537065636966696564206E756D62C5
:100E90006572206F66206C65677320696E206D6FC8
:100EA00076656D656E74206E6F7420706C617573FD
:100EB00061626C652E0A003F5370656369666965FF
:100EC00064205920706F736974696F6E206F757438
:100ED000206F662072616E67652E0A003F53706551
:100EE000636966696564205820706F736974696FFF
:100EF0006E206F7574206F662072616E67652E0AB2
:100F0000003F5370656369666965642073616D7045
:100F10006C652073697A65206E6F7420706C6175E2
:100F20007361626C652E0A0046756C6C2073757077
:100F3000706F72742061743A20687474703A2F2F45
:100F400033647072696E74626F6172642E636F6D68
:100F50002F666F72756D2E7068700A004D343820E0
:100F60005A2D50726F6265205265706561746162BE
:100F7000696C69747920746573742E20202056651D
:100F80007273696F6E20322E30300A003F566572E0
:100F9000626F7365204C6576656C206E6F7420708F
:100FA0006C61757361626C652E0A0042656420484D
:100FB00065617465640A0020573A000A00207A3A95
:100FC000200020793A200020783A20004265640011
:100FD00045787472756465722072656C65617365BD
:100FE00064206163746976653A20005A205349474A
:100FF0004D4120486F6D65640A00457874727564D0
:101000006572206163746976653A20004D3834005A
:101010005374617274696E6720582043616C696211
:10102000726174696F6E2057697A6172640A004D4B
:101030003834005374617274696E672059204361BB
:101040006C6962726174696F6E2057697A6172644B
:101050000A002C2073617665645F466C61675F6689
:10106000616E6C617965725F6D6972726F723A2040
:10107000002C2073617665645F66656564726174D7
:1010800065313A20002C2073617665645F66656582
:101090006472617465303A20002C20736176656457
:1010A0005F66616E6C617965723A20002C20736115
:1010B0007665645F74656D706265643A20002C200B
:1010C00073617665645F74656D70303A20002C2022
:1010D00073617665645F74656D70313A20002C2011
:1010E00073617665645F66696C65706F7369746956
:1010F0006F6E3A20002C2073617665645F655F70C7
:101100006F736974696F6E3A20002C207361766585
:10111000645F746F6F6C5F6163746976653A200019
:101120002C2073617665645F7A5F706F7369746990
:101130006F6E3A20002C2073617665645F795F7072
:101140006F736974696F6E3A20002C207361766545
:10115000645F785F706F736974696F6E3A200053D3
:10116000415645205052494E54204C4F473A0A00B0
:101170006563686F3A005072696E74207265636FC0
:10118000766572792075700A004E6F7420707269EE
:101190006E74207265636F766572792075700A00CF
:1011A000535543434553530A0056616C756573208C
:1011B0006F7574206F662072616E67650A005661F4
:1011C0006C756573206F7574206F662072616E6731
:1011D000650A0056616C756573206F7574206F66C3
:1011E0002072616E67650A0056616C756573206FC9
:1011F0007574206F662072616E67650A00535543EF
:10120000434553530A0056616C756573206F7574BE
:10121000206F662072616E67650A0056616C7565A5
:1012200073206F7574206F662072616E67650A00A7
:1012300056616C756573206F7574206F66207261DE
:101240006E67650A0056616C756573206F75742052
:101250006F662072616E67650A0020502000205A78
:10126000200020592000536574204D35333020581C
:1012700020004D6F64652033203A20507369636FFE
:101280002020202D3E205247423A20526973652685
:1012900046616C6C002A2A2D3E20004D6F6465204B
:1012A00032203A206379636C652020202D3E205245
:1012B00047423A203620737461746573002A2A2DE0
:1012C0003E20004D6F64652031203A2072616E64CB
:1012D0006F6D20202D3E205247423A202B31202B8B
:1012E00032202B332C20647572696E67207072690E
:1012F0006E74696E67002A2A2D3E20004D6F64656A
:101300002030203A2064656661756C74202D3E2083
:101310005247423A20323535203235352032353584
:10132000002A2A2D3E20004C6564206D6F64657391
:10133000203A004D353336204C5B6D6F64655D009F
:10134000486F74656E64206F6666736574733A00E7
:1013500054696D6520696E6163746976650A005031
:10136000757267652064697374616E63650A004D08
:10137000383420582059205A2045005A204F66669C
:10138000736574206F6B0A005A204F66667365742C
:10139000203A200A007A5F6D61783A20007A5F6D0A
:1013A000696E3A20005A204F666673657400504F8C
:1013B000534954494F4E20484F4D453A2000436F02
:1013C0006F6C696E6720446F776E20486561746545
:1013D000720A005072696E7465722068616C74657F
:1013E000642E206B696C6C28292063616C6C6564C9
:1013F000210A004572726F723A006C617965722041
:101400006865696768743A20004578747275646528
:10141000722072656C6561736564206163746976BE
:10142000653A20005A205349474D4120486F6D6569
:10143000640A00457874727564657220616374692A
:1014400076653A2000000000000080934300000011
:10145000000000A0400000A0400000004020004D1F
:101460006F766520746F3A2000CDAC034400809302
:101470004300005243FF01FF20636F6C64206578D6
:1014800074727573696F6E2070726576656E7465BF
:10149000640A006563686F3A0024F4D43050C38E48
:1014A00020C2A24017828B7011127A910D816CD9E3
:1014B0000AA861E108C7586607615143061E4B5DE3
:1014C00005C145A7041A411104093D98037139313A
:1014D000034036DB0265339102D4305402802E1D66
:1014E00002632CEE01752AC501B028A001102781E6
:1014F000018F2564012B244B01E0223401AC211F14
:10150000018D200D01801FFC00841EED00971DDF62
:1015100000B81CD200E61BC600201BBC00641AB237
:1015200000B219A8000A19A0006A189900D11791F1
:101530000040178B00B516840031167E00B3157974
:10154000003A157300C7146F0058146A00EE136652
:10155000008813630025135E00C7125B006C1257EE
:101560000015125400C111510070114F0021114B90
:1015700000D61049008D104700461044000210426A
:1015800000C00F4000800F3E00420F3C00060F3BA2
:1015900000CB0E3800930E37005C0E3500270E345A
:1015A00000F30D3200C10D3100900D3000600D2EA2
:1015B00000320D2D00050D2C00D90C2B00AE0C298E
:1015C00000850C29005C0C2700350C27000E0C262A
:1015D00000E80B2400C40B2400A00B23007D0B2388
:1015E000005A0B2100390B2100180B2000F80A1FAC
:1015F00000D90A1E00BB0A1E009D0A1D00800A1D9C
:1016000000630A1C00470A1B002C0A1B00110A1A5F
:1016100000F7091A00DD091900C4091900AB0919FE
:1016200000920917007B091800630917004C09167E
:101630000036091600200916000A091500F50815DC
:1016400000E0081400CC081400B8081400A4081422
:1016500000900813007D0812006B08130058081250
:101660000046081200340811002308110012081166
:101670000001081100F0071000E0071000D007106B
:1016800000C0071000B0070F00A107100091070E5F
:101690000083070F0074070F0065070E0057070E41
:1016A0000049070E003B070D002E070E0020070D16
:1016B0000013070D0006070D00F9060C00ED060DDE
:1016C00000E0060C00D4060C00C8060C00BC060C9A
:1016D00000B0060C00A4060B0099060C008D060B4A
:1016E0000082060B0077060B006C060B0061060AF1
:1016F0000057060B004C060A0042060A0038060A8C
:10170000002E060A0024060A001A060A001006091E
:101710000007060A00FD050900F4050900EB0509AC
:1017200000E2050900D9050900D0050900C705092F
:1017300000BE050900B5050800AD050800A50509AE
:10174000009C050800940508008C05080084050825
:10175000007C050800740508006C05070065050895
:10176000005D050700560508004E05070047050700
:10177000004005080038050700310507002A050765
:1017800000230507001C050600160507000F0507C6
:10179000000805060002050700FB040600F5040723
:1017A00000EE040600E8040600E2040700DB04067D
:1017B00000D5040600CF040600C9040600C30406D1
:1017C00000BD040600B7040600B1040500AC040621
:1017D00000A6040600A00405009B0406009504056D
:1017E00000900406008A04050085040500800406B4
:1017F000007A04050075040500700405006B0405FB
:101800000066040500610405005C0405005704053A
:1018100000520405004D040500480405004304057A
:10182000003E0404003A04050035040500300404B9
:10183000002C04050027040400230405001E0404F2
:10184000001A04040016040500110404000D040429
:1018500000090405000404040000040400FC03045F
:1018600000F8030400F4030400F0030400EC030494
:1018700000E8030400E4030400E0030400DC0304C4
:1018800000D8030400D4030400D0030400CC0304F4
:1018900000C8030300C503030024F404D9201BC4BB
:1018A0000C5C0E9804C4095F0265077101F405F928
:1018B00000FB04B30048048700C1036900580355C6
:1018C0000003034500BE023A008402310053022A9D
:1018D000002902250004022000E4011C00C80119AF
:1018E00000AF01170098011400840113007101106A
:1018F000006101100051010E0043010D0036010B83
:10190000002B010B0020010B00150109000C01093F
:101910000003010800FB000800F3000800EB0007CB
:1019200000E4000600DE000600D8000600D2000633
:1019300000CC000500C7000500C2000500BD000482
:1019400000B9000400B5000400B1000400AD0004BB
:1019500000A9000400A5000300A20003009F0004EA
:10196000009B000300980003009500020093000311
:1019700000900003008D0002008B0003008800022D
:10198000008600020084000300810002007F000244
:10199000007D0002007B0002007900020077000158
:1019A0000076000200740002007200010071000263
:1019B000006F0002006D0001006C0002006A00016F
:1019C0000069000200670001006600010065000177
:1019D000006400020062000100610001006000017B
:1019E000005F0002005D0001005C0001005B00017F
:1019F000005A000100590001005800010057000181
:101A00000056000100550001005400010053000081
:101A1000005300010052000100510001005000017C
:101A2000004F0001004E0000004E0001004D00017B
:101A3000004C0001004B0000004B0001004A000177
:101A40000049000100480000004800010047000173
:101A5000004600000046000100450000004500016E
:101A60000044000100430000004300010042000068
:101A7000004200010041000000410001004000015F
:101A8000003F0000003F0001003E0000003E00015A
:101A9000003D0000003D0001003C0000003C000053
:101AA000003C0001003B0000003B0001003A000048
:101AB000003A000100390000003900010038000040
:101AC0000038000000380001003700000037000136
:101AD000003600000036000000360001003500002E
:101AE0000035000000350001003400000034000023
:101AF0000034000100330000003300000033000117
:101B0000003200000032000000320001003100000D
:101B10000031000000310001003000000030000002
:101B200000300001002F0000002F0000002F0000F7
:101B3000002F0001002E0000002E0000002E0001EA
:101B4000002D0000002D0000002D0000002D0001E0
:101B5000002C0000002C0000002C0000002C0001D4
:101B6000002B0000002B0000002B0000002B0001C8
:101B7000002A0000002A0000002A0000002A0001BC
:101B800000290000002900000029000000290000B1
:101B900000290001002800000028000000280000A3
:101BA0000028000000280001002700000027000096
:101BB0000027000000270000002700010026000089
:101BC000002600000026000000260000002600017C
:101BD0000025000000250000002500000025000071
:101BE0000025000000250001002400000024000062
:101BF0000024000000240000002400010023000055
:101C00000023000000230000002300000023000048
:101C10000023000000230001002200000022000039
:101C2000002200000022000000220000002200012B
:101C30000021000000210000002100000021000020
:101C40000021000000210000002100010020000010
:101C50000020000000200000002000000020000004
:101C6000002000000020000000200001001F0000F4
:101C7000001F0000001F0000001F0000001F0000E8
:101C8000001F0000001F0001001E0000001E0000D9
:101C9000001E0000001E000000507572676520469F
:101CA000696C616D656E740A0053757266696E6762
:101CB00020310A0053757266696E6720300A00424F
:101CC00052494748544E4553533A2000220A006572
:101CD0006E717565696E67202200220A00656E715B
:101CE0007565696E67202200202F0020400020408B
:101CF0003A00526573656E643A20006F6B0A0044C7
:101D000075706C69204D6F6465204F4E0A004D69F7
:101D100072726F72204D6F6465204F4E0A002A2A3E
:101D20002A2047656E696520446973636F6E6E652E
:101D3000637465642066726F6D204765744E6578C4
:101D4000744279746521202A2A2A002A2A2A2047E7
:101D5000656E696520456E61626C652041747461D1
:101D600063684576656E7448616E646C65722021A7
:101D70002121202A2A2A0043616E6E6F7420656E2D
:101D8000746572207375626469723A2000577269D3
:101D900074696E6720746F2066696C653A20002E46
:101DA0000A006F70656E206661696C65642C204660
:101DB000696C653A20002E0A006F70656E206661BE
:101DC000696C65642C2046696C653A200046696C34
:101DD000652073656C65637465640A002053697AD5
:101DE000653A200046696C65206F70656E65643ADF
:101DF00020002E0A006F70656E206661696C656454
:101E00002C2046696C653A20004E6F77206672651B
:101E100073682066696C653A20004E6F7720646FA6
:101E2000696E672066696C653A20002220706F73C6
:101E3000002220706172656E743A2200535542523E
:101E40004F5554494E452043414C4C2074617267B4
:101E500065743A2200747279696E6720746F20632A
:101E6000616C6C207375622D67636F6465206669B1
:101E70006C6573207769746820746F6F206D616E74
:101E800079206C6576656C732E204D4158206C6509
:101E900076656C2069733A00534156454420505290
:101EA000494E540A007A70726F62653A20005344BA
:101EB0002063617264206F6B0A006F70656E526FF1
:101EC0006F74206661696C65640A00766F6C756D6D
:101ED000652E696E6974206661696C65640A0045E7
:101EE00072726F723A00534420696E6974206661A1
:101EF000696C0A0070012C0190012701B0012201D8
:101F0000C0011D01F00118011002130130020E0181
:101F10006002090190020401C002FF000003FA0000
:101F20004003F5008003F000D003EB002004E6003E
:101F30007004E100E004DC004005D700C005D200D9
:101F40004006CD00D006C8008007C3003008BE00A0
:101F5000F008B900C009B400B00AAF00B00BAA0085
:101F6000D00CA500000EA000500F9B00C0109600E2
:101F70005012910000148C00C0158700B017820029
:101F8000B0197D00D01B7800001E730040206E0049
:101F900090226900F024640040275F0090295A00D5
:101FA000E02B5500102E500020304B001032460020
:101FB000E033410090353C00103737007038320074
:101FC000A0392D00B03A2800A03B2300603C1E0041
:101FD000103D1900903D1400103E0F00703E0A00A5
:101FE000C03E0500003F0000487973746572657358
:101FF00069732074656D70657261747572650A002D
:10200000546865726D616C2072756E6177617920BC
:1020100070726F74656374696F6E206279204865B1
:10202000617465725F49443A0A004572726F723A90
:10203000004572726F72283833293A204265642055
:10204000746865726D6973746F72206E6F7420644A
:10205000657465637465640A004572726F7228382E
:1020600032293A20526967687420746865726D6914
:1020700073746F72206E6F74206465746563746529
:10208000640A004572726F72283831293A204C6513
:10209000667420746865726D6973746F72206E6FF8
:1020A00074202064657465637465640A0020535469
:1020B0004F50205052494E54200A004572726F72A0
:1020C000283833293A2042656420746865726D6946
:1020D00073746F72206E6F742064657465637465C9
:1020E000640A002053544F50205052494E54200A45
:1020F000004572726F72283832293A205269676837
:102100007420746865726D6973746F72206E6F7479
:102110002064657465637465640A002053544F50ED
:10212000205052494E54200A004572726F7228386E
:1021300031293A204C65667420746865726D697344
:10214000746F72206E6F74202064657465637465AB
:10215000640A002053544F50205052494E54200AD4
:10216000004552524F52283839293A2042454420DE
:102170006973206E6F742068656174696E670020F2
:1021800053544F50205052494E54200A0045525249
:102190004F52283839293A20486F74656E642025DB
:1021A00064206973206E6F742068656174696E675E
:1021B000006563686F3A000A0020616E7469686F99
:1021C000726172690A3A200020686F726172690A4E
:1021D00020002F3800766F6C746573200020566FD6
:1021E0006C74657320636172676F6C20333A2000F2
:1021F00020616E7469686F726172690A3A2000200A
:10220000686F726172690A20002F3800766F6C74F3
:102210006573200020566F6C74657320636172676C
:102220006F6C20323A20000A0020647A333A200092
:1022300020647A323A200054310054300054300087
:102240005430000A0056756974656E73333A202065
:10225000004170726F78333A202000566F6C7465BD
:1022600073333A2020000A0056756974656E733224
:102270003A2020004170726F78323A202000566F69
:102280006C746573323A20200056616C6F72206462
:102290005A333A20200056616C6F7220645A323AE9
:1022A0002020004E6577206F666673657420766522
:1022B0007273696F6E3A20007A335F313A20007A88
:1022C000325F313A20005A7363726F6C6C5F313A3F
:1022D00020007A335F303A20007A325F303A2000B3
:1022E0005A7363726F6C6C5F303A20005A76616C7F
:1022F000756520616674657220686F6D653A004887
:102300006F6D6520582F59206265666F7265205A7F
:102310000A003B2020204275696C642074696D6559
:102320003A2025642025732025642025730A003B6C
:102330005072696E742074696D653A202564202599
:1023400073202564202573202564202573003B54C9
:10235000494D453A256C64003B202020506C617348
:10236000746963207765696768743A2025642E254F
:102370006467003B46696C616D656E7420757365BA
:10238000643A2025642E25646D2025642E2564671B
:10239000003B46696C616D656E7420757365643AC7
:1023A00020256C642E256C646D003B457874727535
:1023B0006465727320757365643A20542564202522
:1023C000642E2564205425642025642E2564003B5A
:1023D00020202065787472756465724469616D654A
:1023E0007465722C312C25642E2564003B2020203E
:1023F00065787472756465724469616D657465723F
:102400002C25642E25642C25642E2564003B202079
:102410002065787472756465724469616D65746570
:10242000722C25642E2564002E2E2E2054696D6595
:102430006F757421002A2A2A2047656E6965205726
:10244000726974654F626A656374202A2A2A202D96
:102450002D2D3E002E2E2E204E414B2021002A2ACB
:102460002A2047656E69652057726974654F626AF4
:10247000656374202A2A2A202D2D2D3E002E2E2E13
:102480002041434B2021002A2A2A2047656E696596
:102490002057726974654F626A656374202A2A2A1C
:1024A000202D2D2D3E002A2A2A2047656E696520A1
:1024B0004261642042797465202A2A2A202D2D2D1C
:1024C0003E203078002056616C75653A2000204926
:1024D0006E6465783A20002A2A2A2047656E69656D
:1024E000205265706F7274204F626A656374202A8F
:1024F0002A2A204F626A6563743A20002A2A2A2019
:1025000047656E696520436F6E6E65637465642010
:102510002F2053796E6321202A2A2A002056616CCD
:1025200075653A200020496E6465783A20002A2AB1
:102530002A2047656E6965205265706F7274204568
:1025400076656E74202A2A2A204F626A6563743A7F
:102550002000204C656E6774683A20002A2A2A20E1
:1025600047656E6965205265636569766564204DCF
:102570006167696320446F75626C65204279746598
:1025800073202A2A2A20496E6465783A2000204C5C
:10259000656E6774683A20002A2A2A2047656E69AA
:1025A00065205265636569766564204D616769637E
:1025B000204279746573202A2A2A20496E6465783E
:1025C0003A20002A2A2A2047656E6965204E414B31
:1025D000205265636F7665727920212121202A2A95
:1025E0002A002A2A2A2047656E6965204469736398
:1025F0006F6E6E65637465642066726F6D20446FE4
:102600004576656E747321202A2A2A002A2A2A20F8
:1026100047656E696520546F6F6B20746F6F206C17
:102620006F6E6720746F2072652D656E7465722001
:10263000446F4576656E747328292C207265647525
:1026400063652064656C61797320696E20636F64D3
:10265000652C2073656C662D70726F746563746988
:102660006F6E20656E61626C65642E202A2A2A00D6
:102670004572726F722057726974652045455052D9
:102680004F4D0053657474696E67732053746F7295
:1026900065640A00204D696E75746573203A0020E8
:1026A000204C617374207072696E742074696D655A
:1026B0002D3E20486F757273203A004C6173742070
:1026C0007072696E74206475726174696F6E0A004D
:1026D0002C205468697264204944206E756D6265CF
:1026E0007220002C205365636F6E64204944206E75
:1026F000756D6265723A20002020466972737420FD
:102700004944206E756D6265723A20005549204932
:102710006E666F726D6174696F6E20536572696168
:102720006C204E756D6265723A0A00206D2C204552
:1027300031207072696E742064697374616E6365B0
:102740003A2000206B6D2C204530207072696E7429
:102750002064697374616E63653A2000206B6D2C90
:102760002059207072696E742064697374616E639D
:10277000653A2000206B6D2C205831207072696EF4
:10278000742064697374616E63653A200020432C81
:102790000A205830207072696E7420646973746105
:1027A0006E63653A200020432C206D6178207465AB
:1027B0006D7020423A200020432C206D61782074F7
:1027C000656D7020523A20002C206D617820746570
:1027D0006D70204C3A2000682C207072696E747302
:1027E0002066696E69736865643A20002C207072F7
:1027F000696E74696E672074696D653A20002020E7
:102800007072696E74733A200053544154533A0AFB
:102810000020432C20525F5052494E543A20002051
:10282000432C20525F4245443A200020432C205242
:102830005F52454D4F56453A20002020525F494E89
:10284000534552543A200054656D70202843293A6C
:102850000A0020432C204C5F5052494E543A20002D
:1028600020432C204C5F4245443A200020432C203A
:102870004C5F52454D4F56453A200020204C5F4951
:102880004E534552543A200054656D702028432918
:102890003A0A0020562856657273696F6E29200027
:1028A00020522842656420726967687420736372DD
:1028B000657729200020204D353331204C28426592
:1028C00064206C656674207363726577292000420A
:1028D0006564204F66667365747320286D6D293AB0
:1028E0000A002050285A2070726F62652900205A11
:1028F00020002059200020204D3533302058200062
:102900004F66667365747320286D6D293A0A00203E
:102910004400204900202D204D33303120524947BA
:10292000485420500020440020490020204D3330DE
:1029300031204C4546542050005049442073657462
:1029400074696E67733A0A00205A002059002020EB
:102950004D323036205800486F6D65206F666673C3
:10296000657420286D6D293A0A00204500205A0020
:1029700020580020420020540020204D32303520C5
:102980005300416476616E636564207661726961AB
:10299000626C65733A20533D4D696E2066656564CF
:1029A0007261746520286D6D2F73292C20543D4D64
:1029B000696E2074726176656C206665656472610B
:1029C000746520286D6D2F73292C20423D6D696E32
:1029D000696D756D207365676D656E742074696DC2
:1029E0006520286D73292C20583D6D6178696D75BF
:1029F0006D205859206A65726B20286D6D2F7329E0
:102A00002C20205A3D6D6178696D756D205A206AC1
:102A100065726B20286D6D2F73292C2020453D6D2C
:102A20006178696D756D2045206A65726B20286D2F
:102A30006D2F73290A0020540020204D323034209D
:102A40005300416363656C65726174696F6E3A200F
:102A5000533D616363656C65726174696F6E2C20B0
:102A6000543D7265747261637420616363656C6563
:102A7000726174696F6E0A00204500205A00205967
:102A80000020204D3230312058004D6178696D753D
:102A90006D20416363656C65726174696F6E202897
:102AA0006D6D2F7332293A0A00204500205A00200C
:102AB000590020204D3230332058004D6178696D27
:102AC000756D2066656564726174657320286D6D2F
:102AD0002F73293A0A00204500205A00205900206F
:102AE000204D393220580053746570732070657220
:102AF00020756E69743A0A0053757266696E6720B4
:102B000030200A005430004D383420582059205AC3
:102B1000204500496E7374616C6C20256420257318
:102B2000206F6E2074686520257320686F74656E51
:102B3000642E00496E7374616C6C202564202573CB
:102B4000206F6E2074686520257320686F74656E31
:102B5000642E00526561647920746F204C6F61644B
:102B60002F556E6C6F6164200A004D313037004E76
:102B70006577206C6179657220646574656374653E
:102B8000640A003B206C61796572003B4C415945F9
:102B90005200256920686F757273202569206D6960
:102BA0006E7574657300446F6E65207072696E7423
:102BB000696E672066696C650A004D3333005061A9
:102BC000757365207061726B696E670A00473639EC
:102BD000005072696E7465722073746F70706564F2
:102BE0002064756520746F206572726F72732E2079
:102BF00046697820746865206572726F7220616E14
:102C00006420757365204D39393920746F207265E1
:102C100073746172742E202854656D7065726174CE
:102C20007572652069732072657365742E20536513
:102C300074206974206166746572207265737461B2
:102C40007274696E67290A006F6B0A004E6F204C20
:102C5000696E65204E756D626572207769746820B3
:102C6000636865636B73756D2C204C617374204CC5
:102C7000696E653A20004E6F20436865636B73751B
:102C80006D2077697468206C696E65206E756D6261
:102C900065722C204C617374204C696E653A20007B
:102CA000636865636B73756D206D69736D617463C3
:102CB000682C204C617374204C696E653A20004C7E
:102CC000696E65204E756D626572206973206E6F46
:102CD00074204C617374204C696E65204E756D6272
:102CE00065722B312C204C617374204C696E653AEF
:102CF00020004D31313000CDAC03440080934300BF
:102D00000052430000000000000000000000007CB2
:102D10003C3E5E2B3D3F2F5B5D3B2C2A225C0050EE
:102D20004944204175746F74756E652066696E69DB
:102D300073686564210A00504944204175746F74BA
:102D4000756E65206661696C6564212074696D65C6
:102D50006F75740A0020403A006F6B20543A006F80
:102D60006B20423A00504944204175746F74756E6F
:102D700065206661696C6564212054656D706572BB
:102D8000617475726520746F6F20686967680A00E6
:102D9000204B643A2000204B693A2000204B703AC7
:102DA000200020436C617373696320504944200AFA
:102DB000002054753A2000204B753A2000206D61A8
:102DC000783A2000206D696E3A200020643A200095
:102DD00020626961733A20003B20472D436F646590
:102DE0002067656E6572617465642062792053693D
:102DF0006D706C6966793344285229205665727368
:102E0000696F6E202564006563686F3A0053746FC4
:102E10007265642073657474696E6773207265747B
:102E20007269657665640A0048617264636F6465FF
:102E3000642044656661756C742053657474696EB2
:102E40006773204C6F616465640A00486172646353
:102E50006F6465642043616C696220616E64205018
:102E600049442044656661756C74205365747469C7
:102E70006E6773204C6F616465640A0047363920C1
:102E80004143544956415445440A00008D029D0275
:102E900011241FBECFEFD1E2DEBFCDBF00E00CBFDB
:102EA00018E0A0E0B2E0E0EFFCE903E00BBF02C0F5
:102EB00007900D92A43AB107D9F72EE1A4EAB8E041
:102EC00001C01D92AB3BB207E1F717E1C7E4D7E1C0
:102ED00000E006C021970109802FFE010F9459CB15
:102EE000C634D10780E00807A9F70F9471A40D94A8
:102EF00067CE0C9400002F923F924F925F926F9298
:102F00007F928F929F92AF92BF92CF92DF92EF9279
:102F1000FF920F931F93CF93DF93CDB7DEB7C352CA
:102F2000D1400FB6F894DEBF0FBECDBF2DB73EB770
:102F3000CE5DDE4F39832883C252D1408091DC08B8
:102F400081110DC00E94B09F6093D8087093D9087A
:102F50008093DA089093DB0881E08093DC0880910D
:102F6000D00881110DC00E94B09F6093CC0870936F
:102F7000CD088093CE089093CF0881E08093D0084D
:102F800081E08093F90890913D1B40919902509106
:102F90009A0260919B0270919C02911106C08091EF
:102FA0003E1B882311F40C947522463A51056105A5
:102FB000710509F407C60CF0F2C0483551056105EA
:102FC000710509F489C40CF058C0413251056105FE
:102FD000710511F40C94912034F5413151056105CE
:102FE000710509F4FBC774F44130510561057105A1
:102FF00009F40BC3403151056105710509F4ECC1B9
:103000000C94165E433151056105710509F4A6C49F
:103010000CF4C5C4403251056105710511F40C94DE
:10302000A0200C94165E4D3351056105710509F41D
:1030300021C47CF4413351056105710509F46BC469
:10304000453351056105710511F40C9445210C942B
:10305000165E433551056105710509F4F0C2473527
:1030600051056105710509F493C4443451056105A6
:10307000710511F00C94165E98C748395105610529
:10308000710511F40C941A210CF04CC04B3751050A
:103090006105710509F427C674F44A3551056105C7
:1030A000710509F420C6463751056105710509F41B
:1030B00099C40C94165E493851056105710509F4EF
:1030C00071C2473951056105710511F40C942B212A
:1030D0004E3751056105710511F00C94165E40E004
:1030E00050E066E08BE10F94415840E050E060E131
:1030F00081E20F94415840E050E062E181E20F9498
:10310000415840E050E063E181E20F94415840E0D3
:1031100050E06EE781E20F94415881E480932502EC
:103120000C94165E4D3951056105710511F40C942E
:10313000EE209CF44B3951056105710511F40C9496
:10314000B82014F00C94C1204A395105610571056D
:1031500011F40C94AF200C94165E443A51056105AD
:10316000710509F4ADC50CF085C5433A51056105FB
:10317000710511F00C94165E8091F3089091F4089B
:10318000A091F508B091F60880648093F3089093BD
:10319000F408A093F508B093F6080C94165E413F2E
:1031A00051056105710509F430C20CF093C0423E2F
:1031B00051056105710509F4CDC40CF04EC0493AC2
:1031C00051056105710509F468C504F5473A5105D3
:1031D0006105710509F43BC5483A51056105710562
:1031E00011F00C94165E8091F3089091F408A09170
:1031F000F508B091F60898608093F3089093F4086E
:10320000A093F508B093F6080C94165E4E3B51055A
:103210006105710509F472C3433D510561057105EE
:1032200011F40C9431224A3A51056105710511F0EF
:103230000C94165E8091F3089091F408A091F50823
:10324000B091F60880618093F3089093F408A093FE
:10325000F508B093F6080C94165E4A3E51056105D8
:10326000710509F48EC114F5443E510561057105DF
:1032700009F438C40CF4E5C3453E510561057105F8
:1032800011F00C94165E8091F3089091F408A091CF
:10329000F508B091F60884608093F3089093F408E1
:1032A000A093F508B093F6080C94165E4E3E5105B7
:1032B0006105710509F4A1C14F3E51056105710514
:1032C00009F4D7C14D3E51056105710511F00C940B
:1032D000165EC9C04B3F51056105710509F4DDC398
:1032E00054F5473F51056105710509F40EC474F4A6
:1032F000423F51056105710509F4A1C1463F5105E1
:103300006105710509F439C40C94165E8091F308C7
:103310009091F408A091F508B091F6082091C502AB
:103320003091C602493F51056105710509F476C423
:103330000CF45BC499C34E3631E053076105710547
:1033400009F483C09CF5483691E059076105710581
:1033500009F492C74A36A1E05A076105710509F4DC
:1033600074C0453651406105710511F00C94165E2C
:1033700040E050E06AE28AE00F94415840E050E0BB
:1033800064E581E20F9441581092CB1262EA79E031
:1033900086E20F944F598091850A9091860A986031
:1033A0009093860A8093850A0C94165E4937E1E073
:1033B0005E076105710509F40DC64538F1E05F0748
:1033C0006105710509F45CC148375140610571051B
:1033D00011F00C94165E6AC580912502813419F5AE
:1033E00041E050E066E08BE10F94415841E050E04D
:1033F00060E181E20F94415841E050E062E181E2F6
:103400000F94415841E050E063E181E20F9441584C
:1034100041E050E06EE781E20F94415884E48093EC
:1034200025020C94165E843411F00C94165E809183
:10343000850A9091860A80649093860A8093850A13
:1034400085E4809325020C94165E8091850A909104
:10345000860A92609093860A8093850A84E480931A
:1034600025020C94165E80912502823419F583E4BE
:103470008093250241E050E063E08BE10F944158D6
:1034800041E050E067E581E20F94415841E050E0AF
:1034900066E781E20F94415841E050E06DEE81E231
:1034A0000F94415841E050E069E881E20F9441589F
:1034B0000C94165E833411F00C94165E11E0109398
:1034C000EF0840E050E068E981E20F94415840E0A5
:1034D00050E067E981E20F94415840E050E06CE928
:1034E00081E20F94415840E050E06DE981E20F9491
:1034F000415841E050E06AE481E20F94415840E0D5
:1035000050E06CE28AE00F9441581093CB128FEF99
:103510009FEF9093200280931F0240E050E06AE901
:1035200081E20F94415840E050E06BE981E20F9452
:10353000415860917F147091801480918114909112
:1035400082140F9481C8AB0166E289E00F94415860
:1035500060918314709184148091851490918614E5
:103560000F9481C8AB0167E289E00F94415840E0B5
:1035700050E068E289E00F9441581092B41E0C9418
:10358000165E40E050E06EE681E20F944158809173
:10359000850A9091860A92609093860A8093850AA4
:1035A0000C94165E80912502833411F00C94165E03
:1035B00082E48093250240E050E063E08BE10F94C9
:1035C000415840E050E067E581E20F94415840E007
:1035D00050E066E781E20F94415840E050E06DEE24
:1035E00081E20F94415840E050E069E881E20F9495
:1035F00041581092CB120C94165E40E050E064E506
:103600008AE00F9441580C94165E80E00F949D312F
:103610008091850A9091860A82609093860A8093B1
:10362000850A81E08093CF1240E050E068E08AE0B4
:103630000F94415881E48093D0120C94165E8091CF
:103640008A0A882311F40C94165E41E050E08091C0
:10365000870A8A3011F440E050E066E18BE10F9474
:10366000415840E050E062E58AE00F9441580C94E4
:10367000165E89E480931D020F94E9670C94165E30
:103680008091B01E9091B11E9093981280939712E2
:103690000F94DB3C8091B21E9091B31E90939A12CE
:1036A000809399120F94DB3C82E48093250282E59B
:1036B00080931D0281E08093CB128091870AE1E024
:1036C0008A3009F4E0E0E093A109F0E0EE0FFF1F7B
:1036D000E956FD4E208131813093CB082093CA08F2
:1036E0008A3029F480912D0C90912E0C04C0809189
:1036F000310C9091320C918380830F94DB3C81E4F8
:103700008093D01240E050E068E08AE00F94415886
:1037100040E050E064E581E20F94415880E090E0A1
:10372000A3E4B3E48093BA129093BB12A093BC12AB
:10373000B093BD128090E70C9090E80CA090E90C3B
:10374000B090EA0C2091B6123091B7124091B812A5
:103750005091B9126091B2127091B3128091B4126B
:103760009091B512E5EA6E2EE2E17E2E7F926F9285
:10377000FEEBCF2EF2E1DF2EE12CF12C03E413E47B
:103780000E94F5EF0F943F4080E090E0A0E2B1E4AA
:103790008093B6129093B712A093B812B093B91257
:1037A0008090E30C9090E40CA090E50CB090E60CB7
:1037B000E090BA12F090BB120091BC121091BD12B1
:1037C0006091B2127091B3128091B4129091B512BF
:1037D0007F926F9220E030E040E251E40E94F5EFEA
:1037E0000F943F400F900F900F900F908091D01248
:1037F0008E3411F40C94362A1092D0120E94BF65B8
:1038000040E050E060E289E00F94415840E050E031
:1038100064E28AE00F9441580091A10910E0F80198
:10382000EE0FFF1FEE0FFF1FE158FB4E608171810D
:10383000828193810F9481C87093ED086093EC08A6
:10384000000F111FF801E956FD4E808191810A9702
:103850009093EB088093EA081092E9081092E80828
:1038600089E48093D0120E94BF6581E08093EE08C6
:103870000C94165E8091250240E050E08134B1F452
:1038800069E08AE00F94415862EA79E082E00F949F
:103890004F598091850A9091860A98609093860A84
:1038A0008093850A1092CB120C94165E6AE28AE02D
:1038B0000F94415862EA79E086E20F944F59809163
:1038C000850A9091860A98609093860A8093850A6B
:1038D0001092CB120C94165E80912C0C81110C94DA
:1038E000165E80913E1B81110C94165E40E050E004
:1038F00069E38AE00F9441580C94165E80912C0C79
:1039000081110C94165E40E050E061E08AE00F9473
:1039100041580C94165E80912C0C81110C94165E0B
:1039200010912502113411F00C94165E10923D1B7B
:1039300081E080933E1B40E050E068E08AE00F9415
:1039400041581093D0128091850A9091860A946014
:103950009093860A8093850A0C94165E80912502C6
:10396000813439F440E050E061E08AE00F9441583E
:103970000BC0843449F48091850A9091860A906145
:103980009093860A8093850A1092B41E0C94165E5A
:1039900080912502823431F38334B1F7ECCF8091EA
:1039A0002502992369F0813459F48091850A909118
:1039B000860A88609093860A8093850A0C94165E26
:1039C000843411F00C94165E8091850A9091860AD9
:1039D00080689093860A8093850A86E48093250206
:1039E0000C94165E80913E1B882311F40C94165E95
:1039F00080912502823459F48091850A9091860A3B
:103A000080619093860A8093850A0C94165E8334B5
:103A100011F00C94165E40E050E066E18AE00F94ED
:103A2000415841E050E064E581E20F94415882E55D
:103A300080931D0281E08093CB121092B41E0C94EF
:103A4000165E8091F3089091F408A091F508B0916A
:103A5000F60888608093F3089093F408A093F50823
:103A6000B093F6080C94165E2330310559F4A1602A
:103A70008093F3089093F408A093F508B093F608A8
:103A80000C94165E84608093F3089093F408A093DE
:103A9000F508B093F6080C94165E2091C50230919B
:103AA000C6028091F3089091F408A091F508B091B6
:103AB000F6082330310559F4A2608093F3089093FF
:103AC000F408A093F508B093F6080C94165E88608D
:103AD0008093F3089093F408A093F508B093F60848
:103AE0000C94165E8091F3089091F408A091F5086B
:103AF000B091F60881608093F3089093F408A09346
:103B0000F508B093F6080C94165E2091C50230912A
:103B1000C6028091F3089091F408A091F508B09145
:103B2000F6082330310559F490618093F30890939F
:103B3000F408A093F508B093F6080C94165E816023
:103B40008093F3089093F408A093F508B093F608D7
:103B50000C94165E8091F3089091F408A091F508FA
:103B6000B091F60882608093F3089093F408A093D4
:103B7000F508B093F6080C94165E2091C5023091BA
:103B8000C6028091F3089091F408A091F508B091D5
:103B9000F6082330310559F490628093F30890932E
:103BA000F408A093F508B093F6080C94165E8260B2
:103BB0008093F3089093F408A093F508B093F60867
:103BC0000C94165E8091F3089091F408A091F5088A
:103BD000B091F60880628093F3089093F408A09364
:103BE000F508B093F6080C94165E2330310559F4AD
:103BF00090648093F3089093F408A093F508B09331
:103C0000F6080C94165E80628093F3089093F40893
:103C1000A093F508B093F6080C94165E2330310596
:103C200059F490688093F3089093F408A093F508F2
:103C3000B093F6080C94165E80618093F30890931D
:103C4000F408A093F508B093F6080C94165E8091E2
:103C5000F3089091F408A091F508B091F6089160EE
:103C60008093F3089093F408A093F508B093F608B6
:103C70000C94165E8091F3089091F408A091F508D9
:103C8000B091F60880688093F3089093F408A093AD
:103C9000F508B093F6080C94165E8091F3089091A5
:103CA000F408A091F508B091F60892608093F308AB
:103CB0009093F408A093F508B093F6080C94165E60
:103CC0008091F3089091F408A091F508B091F6085E
:103CD00094608093F3089093F408A093F508B09350
:103CE000F6080C94165E4A3551056105710519F404
:103CF0001092A10903C081E08093A1098091A109DC
:103D0000E82FF0E0EE0FFF1FE956FD4E20813181D4
:103D10003093CB082093CA08811105C080912D0CE7
:103D200090912E0C04C08091310C9091320C9183B3
:103D300080830F94DB3C81E48093D01240E050E01C
:103D400068E08AE00F94415840E050E064E581E289
:103D50000F94415880E090E0A3E4B3E48093BA125A
:103D60009093BB12A093BC12B093BD128090E70C4D
:103D70009090E80CA090E90CB090EA0C2091B6125B
:103D80003091B7124091B8125091B9126091B212AD
:103D90007091B3128091B4129091B512E5EA6E2E33
:103DA000E2E17E2E7F926F92FEEBCF2EF2E1DF2ECC
:103DB000E12CF12C03E413E40E94F5EF0F943F4053
:103DC00080E090E0A0E2B1E48093B6129093B71245
:103DD000A093B812B093B9128090E30C9090E40CC9
:103DE000A090E50CB090E60CE090BA12F090BB12F7
:103DF0000091BC121091BD126091B2127091B31279
:103E00008091B4129091B5127F926F9220E030E0D1
:103E100040E251E40E94F5EF0F943F400F900F9065
:103E20000F900F908091D0128E3411F40C94362A9A
:103E30001092D0120E94BF6540E050E060E289E03D
:103E40000F94415840E050E064E28AE00F944158FA
:103E50000091A10910E0F801EE0FFF1FEE0FFF1F08
:103E6000E158FB4E60817181828193810F9481C8FA
:103E70007093ED086093EC08000F111FF801E956EC
:103E8000FD4E808191810A979093EB088093EA0818
:103E90001092E9081092E80889E48093D0120E94F9
:103EA000BF6581E08093EE080C94165E40E050E020
:103EB00060E289E00F94415840E050E064E28AE01B
:103EC0000F94415889E48093D0120E94BF650091FD
:103ED000A10901111DC080912F0C9091300C6091AF
:103EE000FD117091FE11681779072CF4BC01990F30
:103EF000880B990B04C0072E000C880B990B0F94AC
:103F00004CC00F9481C8709398126093971220C090
:103F10008091330C9091340C6091F7117091F811ED
:103F2000681779072CF4BC01990F880B990B04C012
:103F3000072E000C880B990B0F944CC010E0000F5B
:103F4000111F09561D4E0F9481C8D8016D937C93A3
:103F50000F94DB3C0091A10910E0F801EE0FFF1F68
:103F6000EE0FFF1FE158FB4E6081718182819381CA
:103F70000F9481C87093ED086093EC08000F111F37
:103F8000F801E956FD4E808191810A979093EB08E4
:103F90008093EA081092E9081092E8080E94BF6531
:103FA00081E08093EE080C94165E8091390288239C
:103FB00011F40C94245E8091A109811102C08AE160
:103FC00001C086E30E941F9E892B11F00C94245E91
:103FD0000C94165E0F9473190C94165E8091F10880
:103FE00081FF02C00C94165E8091650A9091640A6C
:103FF00098130C94A65F40E050E06BE084E10F94CE
:10400000415840E050E065E18AE00F94415882E475
:104010008093D01280935013E091A10944E0E49F73
:10402000F0011124E355FD4F80819181A281B3817C
:104030008093B2129093B312A093B412B093B512BE
:10404000E090BA12F090BB120091BC121091BD1218
:104050002091B6123091B7124091B8125091B91216
:10406000E091A51264E0E69FF0011124E355FD4FB5
:1040700060817181828193810F94D159E090BA124D
:10408000F090BB120091BC121091BD122091B6129B
:104090003091B7124091B8125091B9126091B2129A
:1040A0007091B3128091B4129091B512E1EAF9E0E7
:1040B000FF93EF93812C912CE8E4AE2EE3E4BE2E27
:1040C000FEEBCF2EF2E1DF2E0E94F5EFE091A5127C
:1040D00084E0E89FF0011124E355FD4F8081918138
:1040E000A281B3818093B2129093B312A093B412C1
:1040F000B093B512E091A109F0E0EE0FFF1FE95671
:10410000FD4E8091CA089091CB08918380830F94D3
:10411000DB3C10928A0A0F943F400F900F900C9452
:10412000165E8091F10881FF02C00C94165E90919A
:10413000650A2091640A29130C94A65F0C94A95F68
:104140008091F10881FF02C00C94165E9091650A7F
:104150002091640A29130C94A65F0C94AD5F8091A2
:10416000650A9091640A98130C94165E0C94B15FE2
:104170009091650A8091640A98130C94165E0C94D1
:104180003C60E0911F02F0912002EF3F3FEFF30708
:1041900011F40C94165EEE0FFF1FE956FD4E808160
:1041A00091818B3341E0940714F00C94165E0596D0
:1041B000918380830F94DB3C0F94DB3CE0911F02E2
:1041C000F0912002EE0FFF1FE956FD4E4081518114
:1041D00068E289E00F9441580C94165EE0911F024A
:1041E000F0912002EF3F5FEFF50711F40C94165E9B
:1041F000EE0FFF1FE956FD4E8081918118161906BA
:1042000014F00C94165E0597918380830F94DB3C29
:104210000F94DB3CE0911F02F0912002EE0FFF1F94
:10422000E956FD4E4081518168E289E00F94415882
:104230000C94165E80911F0290912002019611F459
:104240000C94165E9091650A8091640A98130C9400
:10425000A65F0C94CA6080911F0290912002019683
:1042600011F40C94165E9091650A8091640A98137B
:104270000C94A65F0C94D0609091650A8091640ABA
:1042800098130C94165E0C94D66070905013B2E4A0
:104290007B120C94165E1092D0128091850A909138
:1042A000860A8D7F9093860A8093850A80911D02ED
:1042B000823531F489E480931D020F94E967CDC003
:1042C000893409F0CAC081E48093D01240E050E004
:1042D00068E08AE00F9441582090DB093090DC09B7
:1042E0004090DD095090DE092092B6123092B7124C
:1042F0004092B8125092B91220E030E040E752E408
:1043000060917002709171028091720290917302BB
:104310000F94D5C74B015C01E090BA12F090BB122C
:104320000091BC121091BD126091B2127091B31243
:104330008091B4129091B51225EA32E13F932F9308
:10434000BEEBCB2EB2E1DB2EA20191010E94F5EF74
:104350000F943F400F900F908091D0128E3411F443
:104360000C94362A20E030E040E251E46091DF090D
:104370007091E0098091E1099091E2090F94E7C6FC
:104380007B018C016093BA127093BB128093BC12B4
:104390009093BD128091D609898380907402909089
:1043A0007502A0907602B09077022091B6123091FB
:1043B000B7124091B8125091B9126091B212709137
:1043C000B3128091B4129091B512FE013196FF9311
:1043D000EF930E94F5EF0F943F400F900F90809164
:1043E000D0128E3411F40C94362A1092D01270929E
:1043F000250240E050E063E08BE10F94415840E03B
:1044000050E067E581E20F94415840E050E066E7F4
:1044100081E20F94415840E050E06DEE81E20F944C
:10442000415840E050E069E881E20F94415840E093
:1044300050E06AE28AE00F9441581092CB1262EA8F
:1044400079E086E20F944F598091850A9091860A0F
:1044500098609093860A8093850A109250130C946A
:10446000165E8091A1131092D0128823E9F0109269
:10447000A1138091850A9091860A98609093860A8C
:104480008093850A8091250240E050E0813431F428
:1044900069E08AE00F9441580C94165E6AE28AE063
:1044A0000F9441580C94165E109258121092CB1231
:1044B000EDE9F8E084918F01882351F0082E000C7B
:1044C000990B0F9438940F5F1F4FF8018491F4CF2C
:1044D00010923F0C81E00F944E1440E050E065E0F4
:1044E0008AE00F9441580C94165E90919C09292FF4
:1044F000287093FF90C38091A009823008F48BC389
:10450000413B51056105710509F4A8C0B4F5443675
:1045100051056105710509F4A1C1A4F44E35510599
:104520006105710509F4F0C24F355105610571054A
:1045300009F41CC3453351056105710511F00C9454
:10454000165E27C3403A51056105710509F4C8C0DC
:10455000423A51056105710509F46AC043385105B5
:104560006105710511F00C94165E40E050E06DE6B7
:104570008AE00F9441580C94165E4233F1E05F07D5
:104580006105710509F45CC13CF5453C51056105C7
:10459000710509F479C04C3C51056105710509F4B8
:1045A00089C0423B51056105710511F00C94165EFE
:1045B0000F94551941E050E062EB81E20F944158AD
:1045C00041E050E060EA81E20F94415810925602B7
:1045D000109255020C94165E463331E05307610584
:1045E000710509F417C1ACF44333514061057105FD
:1045F00011F00C94165E8DEF9FEF90935213809301
:10460000511340E050E06AE08AE00F9441580C9466
:10461000165E4E37A1E05A076105710509F4F2C133
:10462000483851406105710509F424C10C94165EA7
:104630000F94551941E050E062EA81E20F9441582D
:1046400041E050E060EA81E20F9441588EEF9FEF25
:1046500090935602809355020C94165E0F94551950
:1046600041E050E061EB81E20F94415841E050E0BD
:1046700060EA81E20F9441588FEF9FEF90935602CA
:10468000809355020C94165E0F94551941E050E04A
:1046900065EC81E20F94415841E050E060EA81E22C
:1046A0000F94415881E090E0909356028093550218
:1046B0000C94165E0F94551941E050E06CEC81E2C9
:1046C0000F94415841E050E060EA81E20F94415874
:1046D00082E090E090935602809355020C94165E0F
:1046E000009155021091560298012E5F3F4F2530E0
:1046F000310510F00C94165E8230D9F583E080937A
:10470000A00940E050E061E18AE00F94415880E563
:104710008093D01280919D09800F80939D0900E0C5
:1047200010E020E030E04CE553EC60E070E088E31E
:1047300093EC0F9497AB0F94551980E697E0909304
:1047400056028093550240E050E060EA81E20F9407
:10475000415842E050E06CE08BE10F94415840E05A
:1047600050E069E18AE00F9441581092D0120C9405
:10477000165E8330D9F584E08093A00940E050E0D4
:1047800061E18AE00F94415880E58093D0128091D6
:104790009E09800F80939E0900E010E020E030E049
:1047A0004CE553EC60E070E080E493E40F9497AB49
:1047B0000F94551980E697E0909356028093550226
:1047C00040E050E060EA81E20F94415842E050E05E
:1047D0006CE08BE10F94415840E050E069E18AE0E1
:1047E0000F9441581092D0120C94165E843011F040
:1047F0000C94165E80919F09800F80939F0940E082
:1048000050E06EE28AE00F9441588FE48093D0121A
:104810000C94165E0F94551940E050E060EA81E276
:104820000F94415840E050E069E18AE00F9441580C
:1048300080E697E090935602809355020C94165EA2
:1048400083E090E0909352138093511340E050E046
:104850006AE08AE00F9441580C94165E109252134D
:104860001092511340E050E06AE08AE00F94415802
:104870000C94165E40E050E068E08AE00F944158E6
:1048800081E48093D01241E061E081E00F948501E2
:104890001092D0120F943F400F94F61A10915113BA
:1048A0008091A0098230B1F540E050E061E18AE0FA
:1048B0000F94415880E58093D01200919D09010F1B
:1048C00000939D09002E000C110B20E030E0A9019F
:1048D000CA01B9010F9497AB0F94551980E697E080
:1048E000909356028093550240E050E060EA81E2E6
:1048F0000F94415842E050E06CE08BE10F94415836
:1049000040E050E069E18AE00F9441581092D012E3
:104910000C94165E8330C9F540E050E061E18AE016
:104920000F94415880E58093D01200919E09010FA9
:1049300000939E09002E000C110B20E030E04CE5A6
:1049400053EC60E070E088E393EC0F9497AB0F9426
:10495000551980E697E0909356028093550240E007
:1049600050E060EA81E20F94415842E050E06CE090
:104970008BE10F94415840E050E069E18AE00F94E8
:1049800041581092D0120C94165E843011F00C94A1
:10499000165E40E050E061E18AE00F94415880E506
:1049A0008093D01200919F09010F00939F09002E60
:1049B000000C110B20E030E04CE553EC60E070E0BF
:1049C00080E493E40F9497AB0F94551980E697E039
:1049D000909356028093550240E050E060EA81E2F5
:1049E0000F94415842E050E06CE08BE10F94415845
:1049F00040E050E069E18AE00F9441581092D012F3
:104A00000C94165E1092D01280919D0940919E09DF
:104A1000042F081B40919F09142F181B602F002E94
:104A2000000C770B880B990B0F944CC02DEC3CECD1
:104A30004CEC5DEB0F9454BB6093370A7093380ACB
:104A40008093390A90933A0A612F012E000C770B5C
:104A5000880B990B0F944CC02DEC3CEC4CEC5DEBAF
:104A60000F9454BB6093330A7093340A8093350AD1
:104A70009093360A0023A1F040E050E06FE18AE015
:104A80000F94415807FF07C0E02FFF27E1950CF472
:104A9000F09508E00E0F402F000F550B64E015C095
:104AA0001123B9F040E050E060E28AE00F944158F1
:104AB00017FF07C0212F332721950CF4309518E0FC
:104AC000120F412F110F550B65E08BE10F944158E8
:104AD00011C014E41093501340E050E06BE084E107
:104AE0000F94415840E050E065E18AE00F9441584E
:104AF0001093D0128DEE90E09093320A8093310A99
:104B00000F9465640C94165E40919F0980919D09F5
:104B1000142F181BC1F040E050E060E28AE00F94CF
:104B2000415817FF07C0812F992781950CF4909564
:104B300018E0180F412F110F550B65E08BE10F9412
:104B400041580C94165E14E41093501340E050E06A
:104B50006BE084E10F94415840E050E065E18AE069
:104B60000F9441581093D0120C94165E14E41093D5
:104B7000501340E050E06BE084E10F94415840E076
:104B800050E065E18AE00F9441581093D0120C94E4
:104B9000165E80915013843411F00C94165E1092BE
:104BA000A009977F90939C091092D01210929212B4
:104BB000109291120F94973C1092981210929712A3
:104BC0000F94DB3C10929A12109299120F94DB3CD6
:104BD000109258121092CB12E2E9F8E084918F0102
:104BE000882351F0082E000C990B0F9438940F5F16
:104BF0001F4FF8018491F4CF10923F0C80E00F9486
:104C00004E1440E050E065E08AE00F944158109265
:104C100050130C94165E4E38F1E05F0710F00C94C0
:104C2000165EFA018827EE58FF4F8F4F0D9459CB2F
:104C300080912302909124028260909324028093B9
:104C400023020C94165E80912302909124028460CA
:104C500090932402809323020C94165E8091230289
:104C600090912402886090932402809323020C94F4
:104C7000165E809123029091240280619093240219
:104C8000809323020C94165E80912302909124025B
:104C9000806290932402809323020C94165E0F94FA
:104CA000F332009781F48091230290912402946062
:104CB00090932402809323028091821281508093EA
:104CC00082120C94165E019711F00C94165E80917E
:104CD00023029091240294609093240280932302F3
:104CE00040E050E067E381E20F94415840E050E03B
:104CF00061E08BE10F944158809182128150809342
:104D000082120C94165E109258121092CB12E7E8A1
:104D1000F8E084918F01882351F0082E000C990B44
:104D20000F9438940F5F1F4FF8018491F4CF1092C5
:104D30003F0C81E00F944E1440E050E065E08AE0C3
:104D40000F9441580C94165E80913F1B882311F4F8
:104D50000C94165E41E061E080E49BE10F947535B0
:104D60008FEF9FEF90932E1B80932D1B412C512C86
:104D700032017301620100E010E0FCEDAF2EFAE1B8
:104D8000BF2E9E012F5F3F4F190188248394912CE1
:104D90004091DE1D5091DF1D6091E01D7091E11D7D
:104DA0008091391D90913A1DA0913B1DB0913C1D01
:104DB00084179507A607B70708F06DC0D501E2E391
:104DC0001D92EA95E9F70F94575B0196D9F410927A
:104DD000281B1092271B10922A1B1092291B81E07E
:104DE00090E090932C1B80932B1B1092381B1092F9
:104DF000371B10923A1B1092391B80E00F949D31A3
:104E00000C94F0600115110521F52FEF3FEF3A8367
:104E100029833F922F9248ED5DE25F934F93BF92BB
:104E2000AF920F9425C089819A810F900F900F90B7
:104E30000F900F900F90019639F090922E1B809258
:104E40002D1B07E010E021C010922E1B10922D1B8D
:104E50001CC080E00F946FB76B017C0181E00F9460
:104E60006FB72B013C0120E030E0A901C701B6017A
:104E70000F94BFC918167CF020E030E0A901C301EF
:104E8000B2010F94BFC9181634F00F5F1F4F0E31D7
:104E900011050CF47DCF80E00F949D3120E030E0CF
:104EA000A901C701B6010F9446C018165CF020E0B6
:104EB00030E0A901C301B2010F9446C0181614F0E6
:104EC0000C94F0608090570290905802A090590284
:104ED000B0905A02A5019401C701B6010F9446C0D3
:104EE000811114C020E030E0A901C701B6010F9480
:104EF000BFC918165CF420E030E0A901C301B2017B
:104F00000F9446C0181614F00C94F06020915B02C8
:104F100030915C0240915D0250915E02C65EDE4FB0
:104F2000288339834A835B83CA51D140C301B201CC
:104F30000F9446C081111EC020E030E0A901C301DA
:104F4000B2010F94BFC918165CF420E030E0A9014B
:104F5000C701B6010F9446C0181614F00C94F06007
:104F6000A5019401C701B6010F9446C0882311F42E
:104F70000C94F06020E030E0A901C701B6010F9465
:104F800046C020E030E040E251E418161CF0C501B4
:104F9000B40102C0C701B6010F9454BB0F9481C87D
:104FA0006093080220E030E0A901C301B2010F9430
:104FB00046C020E030E040E251E418164CF0C65EF6
:104FC000DE4F688179818A819B81CA51D14002C0BC
:104FD000C301B2010F9454BB0F9481C860930902BE
:104FE00040E050E06FE58AE00F944158609157022D
:104FF000709158028091590290915A020F9481C881
:10500000AB016DE489E00F94415820E030E040E2CC
:1050100051E4609157027091580280915902909129
:105020005A020F9454BB0F9481C80AE010E0CB01E0
:10503000B8010F942ACBAC016EE489E00F9441587B
:1050400060915B0270915C0280915D0290915E02C2
:105050000F9481C8AB016FE489E00F94415820E0C0
:1050600030E040E251E460915B0270915C0280911B
:105070005D0290915E020F9454BB0F9481C8CB01E6
:10508000B8010F942ACBAC0160E589E00F94415838
:10509000809108021AE0612F0F9409CB482F880FE6
:1050A000550B61E589E00F94415880910802612F0A
:1050B0000F9409CB492F990F550B62E589E00F94A6
:1050C000415880910902612F0F9409CB482F880F16
:1050D000550B63E589E00F94415880910902612FD7
:1050E0000F9409CB492F990F550B64E589E00F9474
:1050F0004158BCC180913F1B882311F40C94165E6B
:1051000080918F1B81110C94165ECDB6DEB6809116
:10511000F7089091F8080F94EF34E0E4FBE1DF0129
:105120000D900020E9F78DB79EB78A1B9B0B9C0161
:10513000245C344E0FB6F8943EBF0FBE2DBF0DB7A2
:105140001EB70F5F1F4FFF93EF9387E298E09F9387
:105150008F931F930F930F94F7BF780134E0E30E02
:10516000F11C0F900F900F900F900F900F90D701A0
:105170008C91882349F0082E000C990B0F94D7CD01
:10518000F70181937F01F3CFC8010F94C01483E22C
:1051900098E00F9451140FB6F894DEBE0FBECDBE4A
:1051A0000C94165E81E080935812809123029091B6
:1051B0002402926090932402809323020C94165E42
:1051C0008091230290912402916090932402809315
:1051D00023020C94165E8091230290912402806831
:1051E00090932402809323020C94165E40E050E0DA
:1051F00062E18AE00F9441580C94165E40E050E062
:105200006CE18AE00F94415880E00F944E141092A4
:10521000BF131092BE131092BD1381E080933F0C18
:105220000C94165E109258121092CB12E8E1F8E03E
:1052300084918F01882351F0082E000C990B0F9454
:1052400038940F5F1F4FF8018491F4CF10923F0CF8
:105250000E94BF6581E00F944E1440E050E065E08D
:105260008AE00F9441580C94165E809197129091A9
:105270009812892B29F0109298121092971208C058
:105280008091620C9091630C909398128093971286
:105290000F94DB3C1092BF130C94165E8091991210
:1052A00090919A12892B29F010929A1210929912C9
:1052B00008C080915F0C9091600C90939A1280933B
:1052C00099120F94DB3C1092BE130C94165E8091E1
:1052D000911290919212892B29F0109292121092B1
:1052E00091121CC080919A0990919B096091980934
:1052F00070919909681779072CF4BC01990F880BF4
:10530000990B04C0072E000C880B990B0F944CC00E
:105310000F9481C870939212609391120F94973CEE
:105320001092BD130C94165E84E198E00F94511412
:105330000C94165E40E050E06EE18AE00F94415814
:105340000C94165E40E050E065E08AE00F9441580E
:10535000109258121092CB12E9E0F8E084918F017C
:10536000882351F0082E000C990B0F9438940F5F8E
:105370001F4FF8018491F4CF10923F0C88E793E01F
:1053800090934402809343020F9465640C94165EDC
:1053900040E050E06AE18AE00F9441580F94FC2FFE
:1053A00080913F1B882311F40C94165E809181122A
:1053B00080938212B9E5EB2EB2E1FB2E1DE6C12EE1
:1053C00012E1D12E00E010E08091811290E00817E8
:1053D0001907FCF460E47BE187EB9BE10F94918279
:1053E0005701D7018D919D917D010F94EF34F50107
:1053F00080819181D6018D939D936D0180918F1B4A
:10540000882321F080E49BE10F9484390F5F1F4FC4
:10541000DBCF87E090E00F94296D0C94165E8091AD
:105420004302909144028036974041F488E793E02C
:1054300090934402809343020F94656440E050E0EF
:1054400068E08AE00F94415881E48093D012809103
:10545000680C8823D1F040E061E081E00F94850181
:105460000F943F408091D0128E3489F48FEF9FEFDC
:10547000DC018093990290939A02A0939B02B093CF
:105480009C021092F9080C949A6541E0E5CF81E006
:105490000F944E141092D01286E098E00F9451149D
:1054A0000F943F408091D0128E3401F340E050E0E1
:1054B0006BE08AE00F9441580C94165E40E050E097
:1054C00064E08AE00F9441580C94165E40E050E08E
:1054D00064E28AE00F9441588091BC13826080930B
:1054E000BC1389E48093D01240E050E060E289E090
:1054F0000F9441586091620C7091630C072E000C60
:10550000880B990B0F944CC040E050E00F94EC8C4A
:105510000F9465646BE275E083EB98E10F943D9422
:105520006EE275E083EB98E10F943D946091160371
:1055300070911703809118039091190342E050E095
:105540000F94453362E375E083EB98E10F943D944B
:105550002DEB37E346E05EE360910E0370910F039D
:1055600080911003909111030F94D5C742E050E051
:105570000F94453366E375E083EB98E10F943D9417
:105580002DEB37E346E05EE360910603709107037D
:1055900080910803909109030F9454BB42E050E0BE
:1055A0000F94453360915F0C7091600C072E000CD6
:1055B000880B990B0F944CC041E050E00F94EC8C99
:1055C0000F9465646BE275E083EB98E10F943D9472
:1055D0006EE275E083EB98E10F943D9460911A03BD
:1055E00070911B0380911C0390911D0342E050E0D9
:1055F0000F94453362E375E083EB98E10F943D949B
:105600002DEB37E346E05EE36091120370911303E4
:1056100080911403909115030F94D5C742E050E098
:105620000F94453366E375E083EB98E10F943D9466
:105630002DEB37E346E05EE360910A0370910B03C4
:1056400080910C0390910D030F9454BB42E050E005
:105650000F9445331092D0120E94BF6540E050E095
:105660006BE084E10F94415840E050E065E18AE04E
:105670000F94415881E00F944E1484E480935013AA
:105680008093D0120C94165E40E050E068E28AE00D
:105690000F9441580C94165E40E050E062E18AE0BD
:1056A0000F9441580C94165E109258121092CB121F
:1056B000EBEFF7E084918F01882351F0082E000C66
:1056C000990B0F9438940F5F1F4FF8018491F4CF1A
:1056D00010923F0C0E94BF6540E050E065E08AE018
:1056E0000F9441580C94165E40E050E062E18AE06D
:1056F0000F9441580C94165E82E580931D028091B0
:10570000BC1381608093BC1340E050E06BE581E204
:105710000F94415840E050E06CE581E20F9441580D
:1057200040E050E060E08BE10F94415840E050E0F1
:105730006AE781E20F94415840E050E069E781E276
:105740000F94415840E050E06DE18AE00F944158D9
:105750008FEF8093A1090C94165E40E050E06CE658
:105760008AE00F9441580C94165E40E050E062E1EC
:105770008AE00F94415840E050E06BE581E20F94DD
:10578000415840E050E06CE581E20F94415840E020
:1057900050E060E08BE10F94415840E050E06AE750
:1057A00081E20F94415840E050E069E781E20F94B4
:1057B00041588091BC138E7F8093BC130C94165E6D
:1057C000109258121092CB12E0EFF7E084918F0103
:1057D000882351F0082E000C990B0F9438940F5F1A
:1057E0001F4FF8018491F4CF10923F0C40E050E03D
:1057F00065E08AE00F94415840E050E06BE581E2BB
:105800000F94415840E050E06CE581E20F9441581C
:1058100040E050E060E08BE10F94415840E050E000
:105820006AE781E20F94415840E050E069E781E285
:105830000F9441588091BC138E7F8093BC130C94BD
:10584000165E41E050E06BE581E20F94415840E084
:1058500050E06CE581E20F94415841E050E060E097
:105860008BE10F94415841E050E06AE781E20F94E8
:10587000415841E050E069E781E20F9441581092AD
:10588000A1090C94165E40E050E06BE581E20F94B4
:10589000415841E050E06CE581E20F94415841E00D
:1058A00050E060E08BE10F94415841E050E06AE73E
:1058B00081E20F94415841E050E069E781E20F94A2
:1058C000415881E08093A1090C94165E80914302B7
:1058D000909144028036974041F488E793E090939A
:1058E0004402809343020F9465648091A1098F3F25
:1058F00011F40C94165E0F94BDB50C94165E809155
:105900004302909144028036974041F488E793E047
:1059100090934402809343020F946564E091A1093F
:10592000EF3F11F40C94165E81E08093CE12F0E00C
:10593000EE0FFF1FE956FD4E84E091E091838083D6
:105940000F94DB3C81E48093D01240E050E068E0AB
:105950008AE00F9441588091680C882311F040E050
:1059600001C041E061E081E00F9485010F943F4068
:105970008091D0128E3409F479CD80E090E0A3E4D8
:10598000B3E48093BA129093BB12A093BC12B0936D
:10599000BD128090E70C9090E80CA090E90CB090BC
:1059A000EA0C2091B6123091B7124091B812509182
:1059B000B9126091B2127091B3128091B4129091A9
:1059C000B512A5EA6A2EA2E17A2E7F926F92BEEB03
:1059D000CB2EB2E1DB2EE12CF12C03E413E40E9488
:1059E000F5EF0F943F400F900F908091D0128E34BE
:1059F00009F43CCD80E090E0A0E2B1E48093B612DF
:105A00009093B712A093B812B093B9128090E30CA0
:105A10009090E40CA090E50CB090E60CE090BA12E7
:105A2000F090BB120091BC121091BD126091B212A5
:105A30007091B3128091B4129091B5127F926F92CF
:105A400020E030E040E251E40E94F5EF0F943F4047
:105A50000F900F908091D0128E3409F407CD809171
:105A6000A10981110FC00F94152D80E090E0ADE9E0
:105A7000B2E48093B2129093B312A093B412B09395
:105A8000B5121FC081E00F94152D20E030E048ECE6
:105A900051E46091B1027091B2028091B302909191
:105AA000B4020F94E6C620E030E046E552E40F94DD
:105AB000E6C66093B2127093B3128093B4129093BF
:105AC000B512E090BA12F090BB120091BC12109186
:105AD000BD122091B6123091B7124091B812509178
